{
	"contracts/groupcreaiton.sol": {
		"GroupCreationTest": {
			"abi": [
				{
					"anonymous": false,
					"inputs": [
						{
							"indexed": false,
							"internalType": "uint256",
							"name": "groupIndex",
							"type": "uint256"
						},
						{
							"indexed": false,
							"internalType": "uint256",
							"name": "size",
							"type": "uint256"
						}
					],
					"name": "GroupSize",
					"type": "event"
				},
				{
					"anonymous": false,
					"inputs": [
						{
							"indexed": false,
							"internalType": "uint256",
							"name": "numberOfGroups",
							"type": "uint256"
						}
					],
					"name": "GroupsCreated",
					"type": "event"
				},
				{
					"inputs": [
						{
							"internalType": "address[]",
							"name": "participants",
							"type": "address[]"
						}
					],
					"name": "createGroups",
					"outputs": [],
					"stateMutability": "nonpayable",
					"type": "function"
				},
				{
					"inputs": [],
					"name": "getGroupCount",
					"outputs": [
						{
							"internalType": "uint256",
							"name": "",
							"type": "uint256"
						}
					],
					"stateMutability": "view",
					"type": "function"
				},
				{
					"inputs": [
						{
							"internalType": "uint256",
							"name": "groupIndex",
							"type": "uint256"
						},
						{
							"internalType": "uint256",
							"name": "memberIndex",
							"type": "uint256"
						}
					],
					"name": "getGroupMember",
					"outputs": [
						{
							"internalType": "address",
							"name": "",
							"type": "address"
						}
					],
					"stateMutability": "view",
					"type": "function"
				},
				{
					"inputs": [
						{
							"internalType": "uint256",
							"name": "groupIndex",
							"type": "uint256"
						}
					],
					"name": "getGroupMembers",
					"outputs": [
						{
							"internalType": "address[]",
							"name": "",
							"type": "address[]"
						}
					],
					"stateMutability": "view",
					"type": "function"
				},
				{
					"inputs": [
						{
							"internalType": "uint256",
							"name": "index",
							"type": "uint256"
						}
					],
					"name": "getGroupSize",
					"outputs": [
						{
							"internalType": "uint256",
							"name": "",
							"type": "uint256"
						}
					],
					"stateMutability": "view",
					"type": "function"
				}
			],
			"devdoc": {
				"custom:dev-run-script": "/script/group_creation.js",
				"details": "Manages community creation, membership, and contributions",
				"kind": "dev",
				"methods": {},
				"title": "CommunityGovernance",
				"version": 1
			},
			"evm": {
				"assembly": "    /* \"contracts/groupcreaiton.sol\":211:6351  contract GroupCreationTest {... */\n  mstore(0x40, 0x80)\n  callvalue\n  dup1\n  iszero\n  tag_1\n  jumpi\n  0x00\n  dup1\n  revert\ntag_1:\n  pop\n  dataSize(sub_0)\n  dup1\n  dataOffset(sub_0)\n  0x00\n  codecopy\n  0x00\n  return\nstop\n\nsub_0: assembly {\n        /* \"contracts/groupcreaiton.sol\":211:6351  contract GroupCreationTest {... */\n      mstore(0x40, 0x80)\n      callvalue\n      dup1\n      iszero\n      tag_1\n      jumpi\n      0x00\n      dup1\n      revert\n    tag_1:\n      pop\n      jumpi(tag_2, lt(calldatasize, 0x04))\n      shr(0xe0, calldataload(0x00))\n      dup1\n      0x06545a93\n      eq\n      tag_3\n      jumpi\n      dup1\n      0x36cc8130\n      eq\n      tag_4\n      jumpi\n      dup1\n      0x3a40fea8\n      eq\n      tag_5\n      jumpi\n      dup1\n      0x71b44fc7\n      eq\n      tag_6\n      jumpi\n      dup1\n      0x9119ba1b\n      eq\n      tag_7\n      jumpi\n    tag_2:\n      0x00\n      dup1\n      revert\n        /* \"contracts/groupcreaiton.sol\":5513:5605  function getGroupCount() public view returns (uint256) {... */\n    tag_3:\n      tag_8\n      tag_9\n      jump\t// in\n    tag_8:\n      mload(0x40)\n      tag_10\n      swap2\n      swap1\n      tag_11\n      jump\t// in\n    tag_10:\n      mload(0x40)\n      dup1\n      swap2\n      sub\n      swap1\n      return\n        /* \"contracts/groupcreaiton.sol\":6141:6349  function getGroupMembers(uint256 groupIndex) public view returns (address[] memory) {... */\n    tag_4:\n      tag_12\n      0x04\n      dup1\n      calldatasize\n      sub\n      dup2\n      add\n      swap1\n      tag_13\n      swap2\n      swap1\n      tag_14\n      jump\t// in\n    tag_13:\n      tag_15\n      jump\t// in\n    tag_12:\n      mload(0x40)\n      tag_16\n      swap2\n      swap1\n      tag_17\n      jump\t// in\n    tag_16:\n      mload(0x40)\n      dup1\n      swap2\n      sub\n      swap1\n      return\n        /* \"contracts/groupcreaiton.sol\":431:1243  function createGroups(address[] memory participants) public {... */\n    tag_5:\n      tag_18\n      0x04\n      dup1\n      calldatasize\n      sub\n      dup2\n      add\n      swap1\n      tag_19\n      swap2\n      swap1\n      tag_20\n      jump\t// in\n    tag_19:\n      tag_21\n      jump\t// in\n    tag_18:\n      stop\n        /* \"contracts/groupcreaiton.sol\":5806:6134  function getGroupMember(uint256 groupIndex, uint256 memberIndex) public view returns (address) {... */\n    tag_6:\n      tag_22\n      0x04\n      dup1\n      calldatasize\n      sub\n      dup2\n      add\n      swap1\n      tag_23\n      swap2\n      swap1\n      tag_24\n      jump\t// in\n    tag_23:\n      tag_25\n      jump\t// in\n    tag_22:\n      mload(0x40)\n      tag_26\n      swap2\n      swap1\n      tag_27\n      jump\t// in\n    tag_26:\n      mload(0x40)\n      dup1\n      swap2\n      sub\n      swap1\n      return\n        /* \"contracts/groupcreaiton.sol\":5611:5799  function getGroupSize(uint256 index) public view returns (uint256) {... */\n    tag_7:\n      tag_28\n      0x04\n      dup1\n      calldatasize\n      sub\n      dup2\n      add\n      swap1\n      tag_29\n      swap2\n      swap1\n      tag_14\n      jump\t// in\n    tag_29:\n      tag_30\n      jump\t// in\n    tag_28:\n      mload(0x40)\n      tag_31\n      swap2\n      swap1\n      tag_11\n      jump\t// in\n    tag_31:\n      mload(0x40)\n      dup1\n      swap2\n      sub\n      swap1\n      return\n        /* \"contracts/groupcreaiton.sol\":5513:5605  function getGroupCount() public view returns (uint256) {... */\n    tag_9:\n        /* \"contracts/groupcreaiton.sol\":5559:5566  uint256 */\n      0x00\n        /* \"contracts/groupcreaiton.sol\":5585:5591  groups */\n      dup1\n        /* \"contracts/groupcreaiton.sol\":5585:5598  groups.length */\n      dup1\n      sload\n      swap1\n      pop\n        /* \"contracts/groupcreaiton.sol\":5578:5598  return groups.length */\n      swap1\n      pop\n        /* \"contracts/groupcreaiton.sol\":5513:5605  function getGroupCount() public view returns (uint256) {... */\n      swap1\n      jump\t// out\n        /* \"contracts/groupcreaiton.sol\":6141:6349  function getGroupMembers(uint256 groupIndex) public view returns (address[] memory) {... */\n    tag_15:\n        /* \"contracts/groupcreaiton.sol\":6207:6223  address[] memory */\n      0x60\n        /* \"contracts/groupcreaiton.sol\":6256:6262  groups */\n      0x00\n        /* \"contracts/groupcreaiton.sol\":6256:6269  groups.length */\n      dup1\n      sload\n      swap1\n      pop\n        /* \"contracts/groupcreaiton.sol\":6243:6253  groupIndex */\n      dup3\n        /* \"contracts/groupcreaiton.sol\":6243:6269  groupIndex < groups.length */\n      lt\n        /* \"contracts/groupcreaiton.sol\":6235:6299  require(groupIndex < groups.length, \"Group index out of bounds\") */\n      tag_34\n      jumpi\n      mload(0x40)\n      0x08c379a000000000000000000000000000000000000000000000000000000000\n      dup2\n      mstore\n      0x04\n      add\n      tag_35\n      swap1\n      tag_36\n      jump\t// in\n    tag_35:\n      mload(0x40)\n      dup1\n      swap2\n      sub\n      swap1\n      revert\n    tag_34:\n        /* \"contracts/groupcreaiton.sol\":6316:6322  groups */\n      0x00\n        /* \"contracts/groupcreaiton.sol\":6323:6333  groupIndex */\n      dup3\n        /* \"contracts/groupcreaiton.sol\":6316:6334  groups[groupIndex] */\n      dup2\n      sload\n      dup2\n      lt\n      tag_37\n      jumpi\n      tag_38\n      tag_39\n      jump\t// in\n    tag_38:\n    tag_37:\n      swap1\n      0x00\n      mstore\n      keccak256(0x00, 0x20)\n      add\n        /* \"contracts/groupcreaiton.sol\":6316:6342  groups[groupIndex].members */\n      0x00\n      add\n        /* \"contracts/groupcreaiton.sol\":6309:6342  return groups[groupIndex].members */\n      dup1\n      sload\n      dup1\n      0x20\n      mul\n      0x20\n      add\n      mload(0x40)\n      swap1\n      dup2\n      add\n      0x40\n      mstore\n      dup1\n      swap3\n      swap2\n      swap1\n      dup2\n      dup2\n      mstore\n      0x20\n      add\n      dup3\n      dup1\n      sload\n      dup1\n      iszero\n      tag_41\n      jumpi\n      0x20\n      mul\n      dup3\n      add\n      swap2\n      swap1\n      0x00\n      mstore\n      keccak256(0x00, 0x20)\n      swap1\n    tag_42:\n      dup2\n      0x00\n      swap1\n      sload\n      swap1\n      0x0100\n      exp\n      swap1\n      div\n      0xffffffffffffffffffffffffffffffffffffffff\n      and\n      0xffffffffffffffffffffffffffffffffffffffff\n      and\n      dup2\n      mstore\n      0x20\n      add\n      swap1\n      0x01\n      add\n      swap1\n      dup1\n      dup4\n      gt\n      tag_42\n      jumpi\n    tag_41:\n      pop\n      pop\n      pop\n      pop\n      pop\n      swap1\n      pop\n        /* \"contracts/groupcreaiton.sol\":6141:6349  function getGroupMembers(uint256 groupIndex) public view returns (address[] memory) {... */\n      swap2\n      swap1\n      pop\n      jump\t// out\n        /* \"contracts/groupcreaiton.sol\":431:1243  function createGroups(address[] memory participants) public {... */\n    tag_21:\n        /* \"contracts/groupcreaiton.sol\":531:532  0 */\n      0x00\n        /* \"contracts/groupcreaiton.sol\":509:521  participants */\n      dup2\n        /* \"contracts/groupcreaiton.sol\":509:528  participants.length */\n      mload\n        /* \"contracts/groupcreaiton.sol\":509:532  participants.length > 0 */\n      gt\n        /* \"contracts/groupcreaiton.sol\":501:552  require(participants.length > 0, \"No participants\") */\n      tag_44\n      jumpi\n      mload(0x40)\n      0x08c379a000000000000000000000000000000000000000000000000000000000\n      dup2\n      mstore\n      0x04\n      add\n      tag_45\n      swap1\n      tag_46\n      jump\t// in\n    tag_45:\n      mload(0x40)\n      dup1\n      swap2\n      sub\n      swap1\n      revert\n    tag_44:\n        /* \"contracts/groupcreaiton.sol\":570:576  groups */\n      0x00\n      dup1\n        /* \"contracts/groupcreaiton.sol\":563:576  delete groups */\n      tag_47\n      swap2\n      swap1\n      tag_48\n      jump\t// in\n    tag_47:\n        /* \"contracts/groupcreaiton.sol\":586:607  shuffle(participants) */\n      tag_49\n        /* \"contracts/groupcreaiton.sol\":594:606  participants */\n      dup2\n        /* \"contracts/groupcreaiton.sol\":586:593  shuffle */\n      tag_50\n        /* \"contracts/groupcreaiton.sol\":586:607  shuffle(participants) */\n      jump\t// in\n    tag_49:\n        /* \"contracts/groupcreaiton.sol\":618:642  uint8[] memory roomSizes */\n      0x00\n        /* \"contracts/groupcreaiton.sol\":645:684  determineRoomSizes(participants.length) */\n      tag_51\n        /* \"contracts/groupcreaiton.sol\":664:676  participants */\n      dup3\n        /* \"contracts/groupcreaiton.sol\":664:683  participants.length */\n      mload\n        /* \"contracts/groupcreaiton.sol\":645:663  determineRoomSizes */\n      tag_52\n        /* \"contracts/groupcreaiton.sol\":645:684  determineRoomSizes(participants.length) */\n      jump\t// in\n    tag_51:\n        /* \"contracts/groupcreaiton.sol\":618:684  uint8[] memory roomSizes = determineRoomSizes(participants.length) */\n      swap1\n      pop\n        /* \"contracts/groupcreaiton.sol\":695:719  uint256 participantIndex */\n      0x00\n        /* \"contracts/groupcreaiton.sol\":738:747  uint256 i */\n      dup1\n        /* \"contracts/groupcreaiton.sol\":733:1193  for (uint256 i = 0; i < roomSizes.length; i++) {... */\n    tag_53:\n        /* \"contracts/groupcreaiton.sol\":757:766  roomSizes */\n      dup3\n        /* \"contracts/groupcreaiton.sol\":757:773  roomSizes.length */\n      mload\n        /* \"contracts/groupcreaiton.sol\":753:754  i */\n      dup2\n        /* \"contracts/groupcreaiton.sol\":753:773  i < roomSizes.length */\n      lt\n        /* \"contracts/groupcreaiton.sol\":733:1193  for (uint256 i = 0; i < roomSizes.length; i++) {... */\n      iszero\n      tag_54\n      jumpi\n        /* \"contracts/groupcreaiton.sol\":794:823  address[] memory groupMembers */\n      0x00\n        /* \"contracts/groupcreaiton.sol\":840:849  roomSizes */\n      dup4\n        /* \"contracts/groupcreaiton.sol\":850:851  i */\n      dup3\n        /* \"contracts/groupcreaiton.sol\":840:852  roomSizes[i] */\n      dup2\n      mload\n      dup2\n      lt\n      tag_56\n      jumpi\n      tag_57\n      tag_39\n      jump\t// in\n    tag_57:\n    tag_56:\n      0x20\n      mul\n      0x20\n      add\n      add\n      mload\n        /* \"contracts/groupcreaiton.sol\":826:853  new address[](roomSizes[i]) */\n      0xff\n      and\n      0xffffffffffffffff\n      dup2\n      gt\n      iszero\n      tag_58\n      jumpi\n      tag_59\n      tag_60\n      jump\t// in\n    tag_59:\n    tag_58:\n      mload(0x40)\n      swap1\n      dup1\n      dup3\n      mstore\n      dup1\n      0x20\n      mul\n      0x20\n      add\n      dup3\n      add\n      0x40\n      mstore\n      dup1\n      iszero\n      tag_61\n      jumpi\n      dup2\n      0x20\n      add\n      0x20\n      dup3\n      mul\n      dup1\n      calldatasize\n      dup4\n      calldatacopy\n      dup1\n      dup3\n      add\n      swap2\n      pop\n      pop\n      swap1\n      pop\n    tag_61:\n      pop\n        /* \"contracts/groupcreaiton.sol\":794:853  address[] memory groupMembers = new address[](roomSizes[i]) */\n      swap1\n      pop\n        /* \"contracts/groupcreaiton.sol\":872:881  uint256 j */\n      0x00\n        /* \"contracts/groupcreaiton.sol\":867:1069  for (uint256 j = 0; j < roomSizes[i] && participantIndex < participants.length; j++) {... */\n    tag_62:\n        /* \"contracts/groupcreaiton.sol\":891:900  roomSizes */\n      dup5\n        /* \"contracts/groupcreaiton.sol\":901:902  i */\n      dup4\n        /* \"contracts/groupcreaiton.sol\":891:903  roomSizes[i] */\n      dup2\n      mload\n      dup2\n      lt\n      tag_65\n      jumpi\n      tag_66\n      tag_39\n      jump\t// in\n    tag_66:\n    tag_65:\n      0x20\n      mul\n      0x20\n      add\n      add\n      mload\n        /* \"contracts/groupcreaiton.sol\":887:903  j < roomSizes[i] */\n      0xff\n      and\n        /* \"contracts/groupcreaiton.sol\":887:888  j */\n      dup2\n        /* \"contracts/groupcreaiton.sol\":887:903  j < roomSizes[i] */\n      lt\n        /* \"contracts/groupcreaiton.sol\":887:945  j < roomSizes[i] && participantIndex < participants.length */\n      dup1\n      iszero\n      tag_67\n      jumpi\n      pop\n        /* \"contracts/groupcreaiton.sol\":926:938  participants */\n      dup6\n        /* \"contracts/groupcreaiton.sol\":926:945  participants.length */\n      mload\n        /* \"contracts/groupcreaiton.sol\":907:923  participantIndex */\n      dup5\n        /* \"contracts/groupcreaiton.sol\":907:945  participantIndex < participants.length */\n      lt\n        /* \"contracts/groupcreaiton.sol\":887:945  j < roomSizes[i] && participantIndex < participants.length */\n    tag_67:\n        /* \"contracts/groupcreaiton.sol\":867:1069  for (uint256 j = 0; j < roomSizes[i] && participantIndex < participants.length; j++) {... */\n      iszero\n      tag_63\n      jumpi\n        /* \"contracts/groupcreaiton.sol\":988:1000  participants */\n      dup6\n        /* \"contracts/groupcreaiton.sol\":1001:1017  participantIndex */\n      dup5\n        /* \"contracts/groupcreaiton.sol\":988:1018  participants[participantIndex] */\n      dup2\n      mload\n      dup2\n      lt\n      tag_68\n      jumpi\n      tag_69\n      tag_39\n      jump\t// in\n    tag_69:\n    tag_68:\n      0x20\n      mul\n      0x20\n      add\n      add\n      mload\n        /* \"contracts/groupcreaiton.sol\":970:982  groupMembers */\n      dup3\n        /* \"contracts/groupcreaiton.sol\":983:984  j */\n      dup3\n        /* \"contracts/groupcreaiton.sol\":970:985  groupMembers[j] */\n      dup2\n      mload\n      dup2\n      lt\n      tag_70\n      jumpi\n      tag_71\n      tag_39\n      jump\t// in\n    tag_71:\n    tag_70:\n      0x20\n      mul\n      0x20\n      add\n      add\n        /* \"contracts/groupcreaiton.sol\":970:1018  groupMembers[j] = participants[participantIndex] */\n      swap1\n      0xffffffffffffffffffffffffffffffffffffffff\n      and\n      swap1\n      dup2\n      0xffffffffffffffffffffffffffffffffffffffff\n      and\n      dup2\n      mstore\n      pop\n      pop\n        /* \"contracts/groupcreaiton.sol\":1036:1054  participantIndex++ */\n      dup4\n      dup1\n      tag_72\n      swap1\n      tag_73\n      jump\t// in\n    tag_72:\n      swap5\n      pop\n      pop\n        /* \"contracts/groupcreaiton.sol\":947:950  j++ */\n      dup1\n      dup1\n      tag_74\n      swap1\n      tag_73\n      jump\t// in\n    tag_74:\n      swap2\n      pop\n      pop\n        /* \"contracts/groupcreaiton.sol\":867:1069  for (uint256 j = 0; j < roomSizes[i] && participantIndex < participants.length; j++) {... */\n      jump(tag_62)\n    tag_63:\n      pop\n        /* \"contracts/groupcreaiton.sol\":1082:1088  groups */\n      0x00\n        /* \"contracts/groupcreaiton.sol\":1094:1113  Group(groupMembers) */\n      mload(0x40)\n      dup1\n      0x20\n      add\n      0x40\n      mstore\n      dup1\n        /* \"contracts/groupcreaiton.sol\":1100:1112  groupMembers */\n      dup4\n        /* \"contracts/groupcreaiton.sol\":1094:1113  Group(groupMembers) */\n      dup2\n      mstore\n      pop\n        /* \"contracts/groupcreaiton.sol\":1082:1114  groups.push(Group(groupMembers)) */\n      swap1\n      dup1\n      0x01\n      dup2\n      sload\n      add\n      dup1\n      dup3\n      sstore\n      dup1\n      swap2\n      pop\n      pop\n      0x01\n      swap1\n      sub\n      swap1\n      0x00\n      mstore\n      keccak256(0x00, 0x20)\n      add\n      0x00\n      swap1\n      swap2\n      swap1\n      swap2\n      swap1\n      swap2\n      pop\n      0x00\n      dup3\n      add\n      mload\n      dup2\n      0x00\n      add\n      swap1\n      dup1\n      mload\n      swap1\n      0x20\n      add\n      swap1\n      tag_76\n      swap3\n      swap2\n      swap1\n      tag_77\n      jump\t// in\n    tag_76:\n      pop\n      pop\n      pop\n        /* \"contracts/groupcreaiton.sol\":1133:1182  GroupSize(groups.length - 1, groupMembers.length) */\n      0x767a851128f909c41fca6f6228026b9236f48b30fbea453b216bb7bb5fd5191a\n        /* \"contracts/groupcreaiton.sol\":1159:1160  1 */\n      0x01\n        /* \"contracts/groupcreaiton.sol\":1143:1149  groups */\n      0x00\n        /* \"contracts/groupcreaiton.sol\":1143:1156  groups.length */\n      dup1\n      sload\n      swap1\n      pop\n        /* \"contracts/groupcreaiton.sol\":1143:1160  groups.length - 1 */\n      tag_78\n      swap2\n      swap1\n      tag_79\n      jump\t// in\n    tag_78:\n        /* \"contracts/groupcreaiton.sol\":1162:1174  groupMembers */\n      dup3\n        /* \"contracts/groupcreaiton.sol\":1162:1181  groupMembers.length */\n      mload\n        /* \"contracts/groupcreaiton.sol\":1133:1182  GroupSize(groups.length - 1, groupMembers.length) */\n      mload(0x40)\n      tag_80\n      swap3\n      swap2\n      swap1\n      tag_81\n      jump\t// in\n    tag_80:\n      mload(0x40)\n      dup1\n      swap2\n      sub\n      swap1\n      log1\n        /* \"contracts/groupcreaiton.sol\":780:1193  {... */\n      pop\n        /* \"contracts/groupcreaiton.sol\":775:778  i++ */\n      dup1\n      dup1\n      0x01\n      add\n      swap2\n      pop\n      pop\n        /* \"contracts/groupcreaiton.sol\":733:1193  for (uint256 i = 0; i < roomSizes.length; i++) {... */\n      jump(tag_53)\n    tag_54:\n      pop\n        /* \"contracts/groupcreaiton.sol\":1208:1236  GroupsCreated(groups.length) */\n      0xa190acb00932f4b8695e401d761368489be3aee79a894990162d47abf4148daa\n        /* \"contracts/groupcreaiton.sol\":1222:1228  groups */\n      0x00\n        /* \"contracts/groupcreaiton.sol\":1222:1235  groups.length */\n      dup1\n      sload\n      swap1\n      pop\n        /* \"contracts/groupcreaiton.sol\":1208:1236  GroupsCreated(groups.length) */\n      mload(0x40)\n      tag_82\n      swap2\n      swap1\n      tag_11\n      jump\t// in\n    tag_82:\n      mload(0x40)\n      dup1\n      swap2\n      sub\n      swap1\n      log1\n        /* \"contracts/groupcreaiton.sol\":491:1243  {... */\n      pop\n      pop\n        /* \"contracts/groupcreaiton.sol\":431:1243  function createGroups(address[] memory participants) public {... */\n      pop\n      jump\t// out\n        /* \"contracts/groupcreaiton.sol\":5806:6134  function getGroupMember(uint256 groupIndex, uint256 memberIndex) public view returns (address) {... */\n    tag_25:\n        /* \"contracts/groupcreaiton.sol\":5892:5899  address */\n      0x00\n        /* \"contracts/groupcreaiton.sol\":5932:5938  groups */\n      dup1\n        /* \"contracts/groupcreaiton.sol\":5932:5945  groups.length */\n      dup1\n      sload\n      swap1\n      pop\n        /* \"contracts/groupcreaiton.sol\":5919:5929  groupIndex */\n      dup4\n        /* \"contracts/groupcreaiton.sol\":5919:5945  groupIndex < groups.length */\n      lt\n        /* \"contracts/groupcreaiton.sol\":5911:5975  require(groupIndex < groups.length, \"Group index out of bounds\") */\n      tag_84\n      jumpi\n      mload(0x40)\n      0x08c379a000000000000000000000000000000000000000000000000000000000\n      dup2\n      mstore\n      0x04\n      add\n      tag_85\n      swap1\n      tag_36\n      jump\t// in\n    tag_85:\n      mload(0x40)\n      dup1\n      swap2\n      sub\n      swap1\n      revert\n    tag_84:\n        /* \"contracts/groupcreaiton.sol\":6007:6013  groups */\n      0x00\n        /* \"contracts/groupcreaiton.sol\":6014:6024  groupIndex */\n      dup4\n        /* \"contracts/groupcreaiton.sol\":6007:6025  groups[groupIndex] */\n      dup2\n      sload\n      dup2\n      lt\n      tag_86\n      jumpi\n      tag_87\n      tag_39\n      jump\t// in\n    tag_87:\n    tag_86:\n      swap1\n      0x00\n      mstore\n      keccak256(0x00, 0x20)\n      add\n        /* \"contracts/groupcreaiton.sol\":6007:6033  groups[groupIndex].members */\n      0x00\n      add\n        /* \"contracts/groupcreaiton.sol\":6007:6040  groups[groupIndex].members.length */\n      dup1\n      sload\n      swap1\n      pop\n        /* \"contracts/groupcreaiton.sol\":5993:6004  memberIndex */\n      dup3\n        /* \"contracts/groupcreaiton.sol\":5993:6040  memberIndex < groups[groupIndex].members.length */\n      lt\n        /* \"contracts/groupcreaiton.sol\":5985:6071  require(memberIndex < groups[groupIndex].members.length, \"Member index out of bounds\") */\n      tag_89\n      jumpi\n      mload(0x40)\n      0x08c379a000000000000000000000000000000000000000000000000000000000\n      dup2\n      mstore\n      0x04\n      add\n      tag_90\n      swap1\n      tag_91\n      jump\t// in\n    tag_90:\n      mload(0x40)\n      dup1\n      swap2\n      sub\n      swap1\n      revert\n    tag_89:\n        /* \"contracts/groupcreaiton.sol\":6088:6094  groups */\n      0x00\n        /* \"contracts/groupcreaiton.sol\":6095:6105  groupIndex */\n      dup4\n        /* \"contracts/groupcreaiton.sol\":6088:6106  groups[groupIndex] */\n      dup2\n      sload\n      dup2\n      lt\n      tag_92\n      jumpi\n      tag_93\n      tag_39\n      jump\t// in\n    tag_93:\n    tag_92:\n      swap1\n      0x00\n      mstore\n      keccak256(0x00, 0x20)\n      add\n        /* \"contracts/groupcreaiton.sol\":6088:6114  groups[groupIndex].members */\n      0x00\n      add\n        /* \"contracts/groupcreaiton.sol\":6115:6126  memberIndex */\n      dup3\n        /* \"contracts/groupcreaiton.sol\":6088:6127  groups[groupIndex].members[memberIndex] */\n      dup2\n      sload\n      dup2\n      lt\n      tag_95\n      jumpi\n      tag_96\n      tag_39\n      jump\t// in\n    tag_96:\n    tag_95:\n      swap1\n      0x00\n      mstore\n      keccak256(0x00, 0x20)\n      add\n      0x00\n      swap1\n      sload\n      swap1\n      0x0100\n      exp\n      swap1\n      div\n      0xffffffffffffffffffffffffffffffffffffffff\n      and\n        /* \"contracts/groupcreaiton.sol\":6081:6127  return groups[groupIndex].members[memberIndex] */\n      swap1\n      pop\n        /* \"contracts/groupcreaiton.sol\":5806:6134  function getGroupMember(uint256 groupIndex, uint256 memberIndex) public view returns (address) {... */\n      swap3\n      swap2\n      pop\n      pop\n      jump\t// out\n        /* \"contracts/groupcreaiton.sol\":5611:5799  function getGroupSize(uint256 index) public view returns (uint256) {... */\n    tag_30:\n        /* \"contracts/groupcreaiton.sol\":5669:5676  uint256 */\n      0x00\n        /* \"contracts/groupcreaiton.sol\":5704:5710  groups */\n      dup1\n        /* \"contracts/groupcreaiton.sol\":5704:5717  groups.length */\n      dup1\n      sload\n      swap1\n      pop\n        /* \"contracts/groupcreaiton.sol\":5696:5701  index */\n      dup3\n        /* \"contracts/groupcreaiton.sol\":5696:5717  index < groups.length */\n      lt\n        /* \"contracts/groupcreaiton.sol\":5688:5747  require(index < groups.length, \"Group index out of bounds\") */\n      tag_99\n      jumpi\n      mload(0x40)\n      0x08c379a000000000000000000000000000000000000000000000000000000000\n      dup2\n      mstore\n      0x04\n      add\n      tag_100\n      swap1\n      tag_36\n      jump\t// in\n    tag_100:\n      mload(0x40)\n      dup1\n      swap2\n      sub\n      swap1\n      revert\n    tag_99:\n        /* \"contracts/groupcreaiton.sol\":5764:5770  groups */\n      0x00\n        /* \"contracts/groupcreaiton.sol\":5771:5776  index */\n      dup3\n        /* \"contracts/groupcreaiton.sol\":5764:5777  groups[index] */\n      dup2\n      sload\n      dup2\n      lt\n      tag_101\n      jumpi\n      tag_102\n      tag_39\n      jump\t// in\n    tag_102:\n    tag_101:\n      swap1\n      0x00\n      mstore\n      keccak256(0x00, 0x20)\n      add\n        /* \"contracts/groupcreaiton.sol\":5764:5785  groups[index].members */\n      0x00\n      add\n        /* \"contracts/groupcreaiton.sol\":5764:5792  groups[index].members.length */\n      dup1\n      sload\n      swap1\n      pop\n        /* \"contracts/groupcreaiton.sol\":5757:5792  return groups[index].members.length */\n      swap1\n      pop\n        /* \"contracts/groupcreaiton.sol\":5611:5799  function getGroupSize(uint256 index) public view returns (uint256) {... */\n      swap2\n      swap1\n      pop\n      jump\t// out\n        /* \"contracts/groupcreaiton.sol\":1249:1545  function shuffle(address[] memory array) internal view {... */\n    tag_50:\n        /* \"contracts/groupcreaiton.sol\":1319:1328  uint256 i */\n      0x00\n        /* \"contracts/groupcreaiton.sol\":1346:1347  1 */\n      0x01\n        /* \"contracts/groupcreaiton.sol\":1331:1336  array */\n      dup3\n        /* \"contracts/groupcreaiton.sol\":1331:1343  array.length */\n      mload\n        /* \"contracts/groupcreaiton.sol\":1331:1347  array.length - 1 */\n      tag_108\n      swap2\n      swap1\n      tag_79\n      jump\t// in\n    tag_108:\n        /* \"contracts/groupcreaiton.sol\":1319:1347  uint256 i = array.length - 1 */\n      swap1\n      pop\n        /* \"contracts/groupcreaiton.sol\":1314:1539  for (uint256 i = array.length - 1; i > 0; i--) {... */\n    tag_105:\n        /* \"contracts/groupcreaiton.sol\":1353:1354  0 */\n      0x00\n        /* \"contracts/groupcreaiton.sol\":1349:1350  i */\n      dup2\n        /* \"contracts/groupcreaiton.sol\":1349:1354  i > 0 */\n      gt\n        /* \"contracts/groupcreaiton.sol\":1314:1539  for (uint256 i = array.length - 1; i > 0; i--) {... */\n      iszero\n      tag_106\n      jumpi\n        /* \"contracts/groupcreaiton.sol\":1375:1384  uint256 j */\n      0x00\n        /* \"contracts/groupcreaiton.sol\":1469:1470  1 */\n      0x01\n        /* \"contracts/groupcreaiton.sol\":1465:1466  i */\n      dup3\n        /* \"contracts/groupcreaiton.sol\":1465:1470  i + 1 */\n      tag_109\n      swap2\n      swap1\n      tag_110\n      jump\t// in\n    tag_109:\n        /* \"contracts/groupcreaiton.sol\":1422:1437  block.timestamp */\n      timestamp\n        /* \"contracts/groupcreaiton.sol\":1439:1455  block.prevrandao */\n      prevrandao\n        /* \"contracts/groupcreaiton.sol\":1457:1458  i */\n      dup5\n        /* \"contracts/groupcreaiton.sol\":1405:1459  abi.encodePacked(block.timestamp, block.prevrandao, i) */\n      add(0x20, mload(0x40))\n      tag_111\n      swap4\n      swap3\n      swap2\n      swap1\n      tag_112\n      jump\t// in\n    tag_111:\n      mload(0x40)\n      0x20\n      dup2\n      dup4\n      sub\n      sub\n      dup2\n      mstore\n      swap1\n      0x40\n      mstore\n        /* \"contracts/groupcreaiton.sol\":1395:1460  keccak256(abi.encodePacked(block.timestamp, block.prevrandao, i)) */\n      dup1\n      mload\n      swap1\n      0x20\n      add\n      keccak256\n        /* \"contracts/groupcreaiton.sol\":1387:1461  uint256(keccak256(abi.encodePacked(block.timestamp, block.prevrandao, i))) */\n      0x00\n      shr\n        /* \"contracts/groupcreaiton.sol\":1387:1471  uint256(keccak256(abi.encodePacked(block.timestamp, block.prevrandao, i))) % (i + 1) */\n      tag_113\n      swap2\n      swap1\n      tag_114\n      jump\t// in\n    tag_113:\n        /* \"contracts/groupcreaiton.sol\":1375:1471  uint256 j = uint256(keccak256(abi.encodePacked(block.timestamp, block.prevrandao, i))) % (i + 1) */\n      swap1\n      pop\n        /* \"contracts/groupcreaiton.sol\":1509:1514  array */\n      dup3\n        /* \"contracts/groupcreaiton.sol\":1515:1516  j */\n      dup2\n        /* \"contracts/groupcreaiton.sol\":1509:1517  array[j] */\n      dup2\n      mload\n      dup2\n      lt\n      tag_115\n      jumpi\n      tag_116\n      tag_39\n      jump\t// in\n    tag_116:\n    tag_115:\n      0x20\n      mul\n      0x20\n      add\n      add\n      mload\n        /* \"contracts/groupcreaiton.sol\":1519:1524  array */\n      dup4\n        /* \"contracts/groupcreaiton.sol\":1525:1526  i */\n      dup4\n        /* \"contracts/groupcreaiton.sol\":1519:1527  array[i] */\n      dup2\n      mload\n      dup2\n      lt\n      tag_117\n      jumpi\n      tag_118\n      tag_39\n      jump\t// in\n    tag_118:\n    tag_117:\n      0x20\n      mul\n      0x20\n      add\n      add\n      mload\n        /* \"contracts/groupcreaiton.sol\":1486:1491  array */\n      dup5\n        /* \"contracts/groupcreaiton.sol\":1492:1493  i */\n      dup5\n        /* \"contracts/groupcreaiton.sol\":1486:1494  array[i] */\n      dup2\n      mload\n      dup2\n      lt\n      tag_119\n      jumpi\n      tag_120\n      tag_39\n      jump\t// in\n    tag_120:\n    tag_119:\n      0x20\n      mul\n      0x20\n      add\n      add\n        /* \"contracts/groupcreaiton.sol\":1496:1501  array */\n      dup6\n        /* \"contracts/groupcreaiton.sol\":1502:1503  j */\n      dup5\n        /* \"contracts/groupcreaiton.sol\":1496:1504  array[j] */\n      dup2\n      mload\n      dup2\n      lt\n      tag_121\n      jumpi\n      tag_122\n      tag_39\n      jump\t// in\n    tag_122:\n    tag_121:\n      0x20\n      mul\n      0x20\n      add\n      add\n        /* \"contracts/groupcreaiton.sol\":1485:1528  (array[i], array[j]) = (array[j], array[i]) */\n      dup3\n      0xffffffffffffffffffffffffffffffffffffffff\n      and\n      0xffffffffffffffffffffffffffffffffffffffff\n      and\n      dup2\n      mstore\n      pop\n      dup3\n      0xffffffffffffffffffffffffffffffffffffffff\n      and\n      0xffffffffffffffffffffffffffffffffffffffff\n      and\n      dup2\n      mstore\n      pop\n      pop\n      pop\n        /* \"contracts/groupcreaiton.sol\":1361:1539  {... */\n      pop\n        /* \"contracts/groupcreaiton.sol\":1356:1359  i-- */\n      dup1\n      dup1\n      tag_123\n      swap1\n      tag_124\n      jump\t// in\n    tag_123:\n      swap2\n      pop\n      pop\n        /* \"contracts/groupcreaiton.sol\":1314:1539  for (uint256 i = array.length - 1; i > 0; i--) {... */\n      jump(tag_105)\n    tag_106:\n      pop\n        /* \"contracts/groupcreaiton.sol\":1249:1545  function shuffle(address[] memory array) internal view {... */\n      pop\n      jump\t// out\n        /* \"contracts/groupcreaiton.sol\":1551:1824  function determineRoomSizes(uint256 numParticipants) internal pure returns (uint8[] memory) {... */\n    tag_52:\n        /* \"contracts/groupcreaiton.sol\":1627:1641  uint8[] memory */\n      0x60\n        /* \"contracts/groupcreaiton.sol\":1676:1678  20 */\n      0x14\n        /* \"contracts/groupcreaiton.sol\":1657:1672  numParticipants */\n      dup3\n        /* \"contracts/groupcreaiton.sol\":1657:1678  numParticipants <= 20 */\n      gt\n        /* \"contracts/groupcreaiton.sol\":1653:1818  if (numParticipants <= 20) {... */\n      tag_126\n      jumpi\n        /* \"contracts/groupcreaiton.sol\":1701:1736  hardcodedRoomSizes(numParticipants) */\n      tag_127\n        /* \"contracts/groupcreaiton.sol\":1720:1735  numParticipants */\n      dup3\n        /* \"contracts/groupcreaiton.sol\":1701:1719  hardcodedRoomSizes */\n      tag_128\n        /* \"contracts/groupcreaiton.sol\":1701:1736  hardcodedRoomSizes(numParticipants) */\n      jump\t// in\n    tag_127:\n        /* \"contracts/groupcreaiton.sol\":1694:1736  return hardcodedRoomSizes(numParticipants) */\n      swap1\n      pop\n      jump(tag_125)\n        /* \"contracts/groupcreaiton.sol\":1653:1818  if (numParticipants <= 20) {... */\n    tag_126:\n        /* \"contracts/groupcreaiton.sol\":1774:1807  genericRoomSizes(numParticipants) */\n      tag_130\n        /* \"contracts/groupcreaiton.sol\":1791:1806  numParticipants */\n      dup3\n        /* \"contracts/groupcreaiton.sol\":1774:1790  genericRoomSizes */\n      tag_131\n        /* \"contracts/groupcreaiton.sol\":1774:1807  genericRoomSizes(numParticipants) */\n      jump\t// in\n    tag_130:\n        /* \"contracts/groupcreaiton.sol\":1767:1807  return genericRoomSizes(numParticipants) */\n      swap1\n      pop\n        /* \"contracts/groupcreaiton.sol\":1551:1824  function determineRoomSizes(uint256 numParticipants) internal pure returns (uint8[] memory) {... */\n    tag_125:\n      swap2\n      swap1\n      pop\n      jump\t// out\n        /* \"contracts/groupcreaiton.sol\":1831:4708  function hardcodedRoomSizes(uint256 numParticipants) internal pure returns (uint8[] memory) {... */\n    tag_128:\n        /* \"contracts/groupcreaiton.sol\":1907:1921  uint8[] memory */\n      0x60\n        /* \"contracts/groupcreaiton.sol\":1933:1953  uint8[] memory sizes */\n      dup1\n        /* \"contracts/groupcreaiton.sol\":1986:1987  1 */\n      0x01\n        /* \"contracts/groupcreaiton.sol\":1967:1982  numParticipants */\n      dup4\n        /* \"contracts/groupcreaiton.sol\":1967:1987  numParticipants == 1 */\n      sub\n        /* \"contracts/groupcreaiton.sol\":1963:3219  if (numParticipants == 1) sizes = new uint8[](1);... */\n      tag_133\n      jumpi\n        /* \"contracts/groupcreaiton.sol\":2009:2010  1 */\n      0x01\n        /* \"contracts/groupcreaiton.sol\":1997:2011  new uint8[](1) */\n      0xffffffffffffffff\n      dup2\n      gt\n      iszero\n      tag_134\n      jumpi\n      tag_135\n      tag_60\n      jump\t// in\n    tag_135:\n    tag_134:\n      mload(0x40)\n      swap1\n      dup1\n      dup3\n      mstore\n      dup1\n      0x20\n      mul\n      0x20\n      add\n      dup3\n      add\n      0x40\n      mstore\n      dup1\n      iszero\n      tag_136\n      jumpi\n      dup2\n      0x20\n      add\n      0x20\n      dup3\n      mul\n      dup1\n      calldatasize\n      dup4\n      calldatacopy\n      dup1\n      dup3\n      add\n      swap2\n      pop\n      pop\n      swap1\n      pop\n    tag_136:\n      pop\n        /* \"contracts/groupcreaiton.sol\":1989:2011  sizes = new uint8[](1) */\n      swap1\n      pop\n        /* \"contracts/groupcreaiton.sol\":1963:3219  if (numParticipants == 1) sizes = new uint8[](1);... */\n      jump(tag_137)\n    tag_133:\n        /* \"contracts/groupcreaiton.sol\":2049:2050  2 */\n      0x02\n        /* \"contracts/groupcreaiton.sol\":2030:2045  numParticipants */\n      dup4\n        /* \"contracts/groupcreaiton.sol\":2030:2050  numParticipants == 2 */\n      sub\n        /* \"contracts/groupcreaiton.sol\":2026:3219  if (numParticipants == 2) sizes = new uint8[](1);... */\n      tag_138\n      jumpi\n        /* \"contracts/groupcreaiton.sol\":2072:2073  1 */\n      0x01\n        /* \"contracts/groupcreaiton.sol\":2060:2074  new uint8[](1) */\n      0xffffffffffffffff\n      dup2\n      gt\n      iszero\n      tag_139\n      jumpi\n      tag_140\n      tag_60\n      jump\t// in\n    tag_140:\n    tag_139:\n      mload(0x40)\n      swap1\n      dup1\n      dup3\n      mstore\n      dup1\n      0x20\n      mul\n      0x20\n      add\n      dup3\n      add\n      0x40\n      mstore\n      dup1\n      iszero\n      tag_141\n      jumpi\n      dup2\n      0x20\n      add\n      0x20\n      dup3\n      mul\n      dup1\n      calldatasize\n      dup4\n      calldatacopy\n      dup1\n      dup3\n      add\n      swap2\n      pop\n      pop\n      swap1\n      pop\n    tag_141:\n      pop\n        /* \"contracts/groupcreaiton.sol\":2052:2074  sizes = new uint8[](1) */\n      swap1\n      pop\n        /* \"contracts/groupcreaiton.sol\":2026:3219  if (numParticipants == 2) sizes = new uint8[](1);... */\n      jump(tag_142)\n    tag_138:\n        /* \"contracts/groupcreaiton.sol\":2112:2113  3 */\n      0x03\n        /* \"contracts/groupcreaiton.sol\":2093:2108  numParticipants */\n      dup4\n        /* \"contracts/groupcreaiton.sol\":2093:2113  numParticipants == 3 */\n      sub\n        /* \"contracts/groupcreaiton.sol\":2089:3219  if (numParticipants == 3) sizes = new uint8[](1);... */\n      tag_143\n      jumpi\n        /* \"contracts/groupcreaiton.sol\":2135:2136  1 */\n      0x01\n        /* \"contracts/groupcreaiton.sol\":2123:2137  new uint8[](1) */\n      0xffffffffffffffff\n      dup2\n      gt\n      iszero\n      tag_144\n      jumpi\n      tag_145\n      tag_60\n      jump\t// in\n    tag_145:\n    tag_144:\n      mload(0x40)\n      swap1\n      dup1\n      dup3\n      mstore\n      dup1\n      0x20\n      mul\n      0x20\n      add\n      dup3\n      add\n      0x40\n      mstore\n      dup1\n      iszero\n      tag_146\n      jumpi\n      dup2\n      0x20\n      add\n      0x20\n      dup3\n      mul\n      dup1\n      calldatasize\n      dup4\n      calldatacopy\n      dup1\n      dup3\n      add\n      swap2\n      pop\n      pop\n      swap1\n      pop\n    tag_146:\n      pop\n        /* \"contracts/groupcreaiton.sol\":2115:2137  sizes = new uint8[](1) */\n      swap1\n      pop\n        /* \"contracts/groupcreaiton.sol\":2089:3219  if (numParticipants == 3) sizes = new uint8[](1);... */\n      jump(tag_147)\n    tag_143:\n        /* \"contracts/groupcreaiton.sol\":2175:2176  4 */\n      0x04\n        /* \"contracts/groupcreaiton.sol\":2156:2171  numParticipants */\n      dup4\n        /* \"contracts/groupcreaiton.sol\":2156:2176  numParticipants == 4 */\n      sub\n        /* \"contracts/groupcreaiton.sol\":2152:3219  if (numParticipants == 4) sizes = new uint8[](1);... */\n      tag_148\n      jumpi\n        /* \"contracts/groupcreaiton.sol\":2198:2199  1 */\n      0x01\n        /* \"contracts/groupcreaiton.sol\":2186:2200  new uint8[](1) */\n      0xffffffffffffffff\n      dup2\n      gt\n      iszero\n      tag_149\n      jumpi\n      tag_150\n      tag_60\n      jump\t// in\n    tag_150:\n    tag_149:\n      mload(0x40)\n      swap1\n      dup1\n      dup3\n      mstore\n      dup1\n      0x20\n      mul\n      0x20\n      add\n      dup3\n      add\n      0x40\n      mstore\n      dup1\n      iszero\n      tag_151\n      jumpi\n      dup2\n      0x20\n      add\n      0x20\n      dup3\n      mul\n      dup1\n      calldatasize\n      dup4\n      calldatacopy\n      dup1\n      dup3\n      add\n      swap2\n      pop\n      pop\n      swap1\n      pop\n    tag_151:\n      pop\n        /* \"contracts/groupcreaiton.sol\":2178:2200  sizes = new uint8[](1) */\n      swap1\n      pop\n        /* \"contracts/groupcreaiton.sol\":2152:3219  if (numParticipants == 4) sizes = new uint8[](1);... */\n      jump(tag_152)\n    tag_148:\n        /* \"contracts/groupcreaiton.sol\":2238:2239  5 */\n      0x05\n        /* \"contracts/groupcreaiton.sol\":2219:2234  numParticipants */\n      dup4\n        /* \"contracts/groupcreaiton.sol\":2219:2239  numParticipants == 5 */\n      sub\n        /* \"contracts/groupcreaiton.sol\":2215:3219  if (numParticipants == 5) sizes = new uint8[](1);... */\n      tag_153\n      jumpi\n        /* \"contracts/groupcreaiton.sol\":2261:2262  1 */\n      0x01\n        /* \"contracts/groupcreaiton.sol\":2249:2263  new uint8[](1) */\n      0xffffffffffffffff\n      dup2\n      gt\n      iszero\n      tag_154\n      jumpi\n      tag_155\n      tag_60\n      jump\t// in\n    tag_155:\n    tag_154:\n      mload(0x40)\n      swap1\n      dup1\n      dup3\n      mstore\n      dup1\n      0x20\n      mul\n      0x20\n      add\n      dup3\n      add\n      0x40\n      mstore\n      dup1\n      iszero\n      tag_156\n      jumpi\n      dup2\n      0x20\n      add\n      0x20\n      dup3\n      mul\n      dup1\n      calldatasize\n      dup4\n      calldatacopy\n      dup1\n      dup3\n      add\n      swap2\n      pop\n      pop\n      swap1\n      pop\n    tag_156:\n      pop\n        /* \"contracts/groupcreaiton.sol\":2241:2263  sizes = new uint8[](1) */\n      swap1\n      pop\n        /* \"contracts/groupcreaiton.sol\":2215:3219  if (numParticipants == 5) sizes = new uint8[](1);... */\n      jump(tag_157)\n    tag_153:\n        /* \"contracts/groupcreaiton.sol\":2301:2302  6 */\n      0x06\n        /* \"contracts/groupcreaiton.sol\":2282:2297  numParticipants */\n      dup4\n        /* \"contracts/groupcreaiton.sol\":2282:2302  numParticipants == 6 */\n      sub\n        /* \"contracts/groupcreaiton.sol\":2278:3219  if (numParticipants == 6) sizes = new uint8[](1);... */\n      tag_158\n      jumpi\n        /* \"contracts/groupcreaiton.sol\":2324:2325  1 */\n      0x01\n        /* \"contracts/groupcreaiton.sol\":2312:2326  new uint8[](1) */\n      0xffffffffffffffff\n      dup2\n      gt\n      iszero\n      tag_159\n      jumpi\n      tag_160\n      tag_60\n      jump\t// in\n    tag_160:\n    tag_159:\n      mload(0x40)\n      swap1\n      dup1\n      dup3\n      mstore\n      dup1\n      0x20\n      mul\n      0x20\n      add\n      dup3\n      add\n      0x40\n      mstore\n      dup1\n      iszero\n      tag_161\n      jumpi\n      dup2\n      0x20\n      add\n      0x20\n      dup3\n      mul\n      dup1\n      calldatasize\n      dup4\n      calldatacopy\n      dup1\n      dup3\n      add\n      swap2\n      pop\n      pop\n      swap1\n      pop\n    tag_161:\n      pop\n        /* \"contracts/groupcreaiton.sol\":2304:2326  sizes = new uint8[](1) */\n      swap1\n      pop\n        /* \"contracts/groupcreaiton.sol\":2278:3219  if (numParticipants == 6) sizes = new uint8[](1);... */\n      jump(tag_162)\n    tag_158:\n        /* \"contracts/groupcreaiton.sol\":2364:2365  7 */\n      0x07\n        /* \"contracts/groupcreaiton.sol\":2345:2360  numParticipants */\n      dup4\n        /* \"contracts/groupcreaiton.sol\":2345:2365  numParticipants == 7 */\n      sub\n        /* \"contracts/groupcreaiton.sol\":2341:3219  if (numParticipants == 7) sizes = new uint8[](2);... */\n      tag_163\n      jumpi\n        /* \"contracts/groupcreaiton.sol\":2387:2388  2 */\n      0x02\n        /* \"contracts/groupcreaiton.sol\":2375:2389  new uint8[](2) */\n      0xffffffffffffffff\n      dup2\n      gt\n      iszero\n      tag_164\n      jumpi\n      tag_165\n      tag_60\n      jump\t// in\n    tag_165:\n    tag_164:\n      mload(0x40)\n      swap1\n      dup1\n      dup3\n      mstore\n      dup1\n      0x20\n      mul\n      0x20\n      add\n      dup3\n      add\n      0x40\n      mstore\n      dup1\n      iszero\n      tag_166\n      jumpi\n      dup2\n      0x20\n      add\n      0x20\n      dup3\n      mul\n      dup1\n      calldatasize\n      dup4\n      calldatacopy\n      dup1\n      dup3\n      add\n      swap2\n      pop\n      pop\n      swap1\n      pop\n    tag_166:\n      pop\n        /* \"contracts/groupcreaiton.sol\":2367:2389  sizes = new uint8[](2) */\n      swap1\n      pop\n        /* \"contracts/groupcreaiton.sol\":2341:3219  if (numParticipants == 7) sizes = new uint8[](2);... */\n      jump(tag_167)\n    tag_163:\n        /* \"contracts/groupcreaiton.sol\":2427:2428  8 */\n      0x08\n        /* \"contracts/groupcreaiton.sol\":2408:2423  numParticipants */\n      dup4\n        /* \"contracts/groupcreaiton.sol\":2408:2428  numParticipants == 8 */\n      sub\n        /* \"contracts/groupcreaiton.sol\":2404:3219  if (numParticipants == 8) sizes = new uint8[](2);... */\n      tag_168\n      jumpi\n        /* \"contracts/groupcreaiton.sol\":2450:2451  2 */\n      0x02\n        /* \"contracts/groupcreaiton.sol\":2438:2452  new uint8[](2) */\n      0xffffffffffffffff\n      dup2\n      gt\n      iszero\n      tag_169\n      jumpi\n      tag_170\n      tag_60\n      jump\t// in\n    tag_170:\n    tag_169:\n      mload(0x40)\n      swap1\n      dup1\n      dup3\n      mstore\n      dup1\n      0x20\n      mul\n      0x20\n      add\n      dup3\n      add\n      0x40\n      mstore\n      dup1\n      iszero\n      tag_171\n      jumpi\n      dup2\n      0x20\n      add\n      0x20\n      dup3\n      mul\n      dup1\n      calldatasize\n      dup4\n      calldatacopy\n      dup1\n      dup3\n      add\n      swap2\n      pop\n      pop\n      swap1\n      pop\n    tag_171:\n      pop\n        /* \"contracts/groupcreaiton.sol\":2430:2452  sizes = new uint8[](2) */\n      swap1\n      pop\n        /* \"contracts/groupcreaiton.sol\":2404:3219  if (numParticipants == 8) sizes = new uint8[](2);... */\n      jump(tag_172)\n    tag_168:\n        /* \"contracts/groupcreaiton.sol\":2490:2491  9 */\n      0x09\n        /* \"contracts/groupcreaiton.sol\":2471:2486  numParticipants */\n      dup4\n        /* \"contracts/groupcreaiton.sol\":2471:2491  numParticipants == 9 */\n      sub\n        /* \"contracts/groupcreaiton.sol\":2467:3219  if (numParticipants == 9) sizes = new uint8[](2);... */\n      tag_173\n      jumpi\n        /* \"contracts/groupcreaiton.sol\":2513:2514  2 */\n      0x02\n        /* \"contracts/groupcreaiton.sol\":2501:2515  new uint8[](2) */\n      0xffffffffffffffff\n      dup2\n      gt\n      iszero\n      tag_174\n      jumpi\n      tag_175\n      tag_60\n      jump\t// in\n    tag_175:\n    tag_174:\n      mload(0x40)\n      swap1\n      dup1\n      dup3\n      mstore\n      dup1\n      0x20\n      mul\n      0x20\n      add\n      dup3\n      add\n      0x40\n      mstore\n      dup1\n      iszero\n      tag_176\n      jumpi\n      dup2\n      0x20\n      add\n      0x20\n      dup3\n      mul\n      dup1\n      calldatasize\n      dup4\n      calldatacopy\n      dup1\n      dup3\n      add\n      swap2\n      pop\n      pop\n      swap1\n      pop\n    tag_176:\n      pop\n        /* \"contracts/groupcreaiton.sol\":2493:2515  sizes = new uint8[](2) */\n      swap1\n      pop\n        /* \"contracts/groupcreaiton.sol\":2467:3219  if (numParticipants == 9) sizes = new uint8[](2);... */\n      jump(tag_177)\n    tag_173:\n        /* \"contracts/groupcreaiton.sol\":2553:2555  10 */\n      0x0a\n        /* \"contracts/groupcreaiton.sol\":2534:2549  numParticipants */\n      dup4\n        /* \"contracts/groupcreaiton.sol\":2534:2555  numParticipants == 10 */\n      sub\n        /* \"contracts/groupcreaiton.sol\":2530:3219  if (numParticipants == 10) sizes = new uint8[](2);... */\n      tag_178\n      jumpi\n        /* \"contracts/groupcreaiton.sol\":2577:2578  2 */\n      0x02\n        /* \"contracts/groupcreaiton.sol\":2565:2579  new uint8[](2) */\n      0xffffffffffffffff\n      dup2\n      gt\n      iszero\n      tag_179\n      jumpi\n      tag_180\n      tag_60\n      jump\t// in\n    tag_180:\n    tag_179:\n      mload(0x40)\n      swap1\n      dup1\n      dup3\n      mstore\n      dup1\n      0x20\n      mul\n      0x20\n      add\n      dup3\n      add\n      0x40\n      mstore\n      dup1\n      iszero\n      tag_181\n      jumpi\n      dup2\n      0x20\n      add\n      0x20\n      dup3\n      mul\n      dup1\n      calldatasize\n      dup4\n      calldatacopy\n      dup1\n      dup3\n      add\n      swap2\n      pop\n      pop\n      swap1\n      pop\n    tag_181:\n      pop\n        /* \"contracts/groupcreaiton.sol\":2557:2579  sizes = new uint8[](2) */\n      swap1\n      pop\n        /* \"contracts/groupcreaiton.sol\":2530:3219  if (numParticipants == 10) sizes = new uint8[](2);... */\n      jump(tag_182)\n    tag_178:\n        /* \"contracts/groupcreaiton.sol\":2617:2619  11 */\n      0x0b\n        /* \"contracts/groupcreaiton.sol\":2598:2613  numParticipants */\n      dup4\n        /* \"contracts/groupcreaiton.sol\":2598:2619  numParticipants == 11 */\n      sub\n        /* \"contracts/groupcreaiton.sol\":2594:3219  if (numParticipants == 11) sizes = new uint8[](2);... */\n      tag_183\n      jumpi\n        /* \"contracts/groupcreaiton.sol\":2641:2642  2 */\n      0x02\n        /* \"contracts/groupcreaiton.sol\":2629:2643  new uint8[](2) */\n      0xffffffffffffffff\n      dup2\n      gt\n      iszero\n      tag_184\n      jumpi\n      tag_185\n      tag_60\n      jump\t// in\n    tag_185:\n    tag_184:\n      mload(0x40)\n      swap1\n      dup1\n      dup3\n      mstore\n      dup1\n      0x20\n      mul\n      0x20\n      add\n      dup3\n      add\n      0x40\n      mstore\n      dup1\n      iszero\n      tag_186\n      jumpi\n      dup2\n      0x20\n      add\n      0x20\n      dup3\n      mul\n      dup1\n      calldatasize\n      dup4\n      calldatacopy\n      dup1\n      dup3\n      add\n      swap2\n      pop\n      pop\n      swap1\n      pop\n    tag_186:\n      pop\n        /* \"contracts/groupcreaiton.sol\":2621:2643  sizes = new uint8[](2) */\n      swap1\n      pop\n        /* \"contracts/groupcreaiton.sol\":2594:3219  if (numParticipants == 11) sizes = new uint8[](2);... */\n      jump(tag_187)\n    tag_183:\n        /* \"contracts/groupcreaiton.sol\":2681:2683  12 */\n      0x0c\n        /* \"contracts/groupcreaiton.sol\":2662:2677  numParticipants */\n      dup4\n        /* \"contracts/groupcreaiton.sol\":2662:2683  numParticipants == 12 */\n      sub\n        /* \"contracts/groupcreaiton.sol\":2658:3219  if (numParticipants == 12) sizes = new uint8[](2);... */\n      tag_188\n      jumpi\n        /* \"contracts/groupcreaiton.sol\":2705:2706  2 */\n      0x02\n        /* \"contracts/groupcreaiton.sol\":2693:2707  new uint8[](2) */\n      0xffffffffffffffff\n      dup2\n      gt\n      iszero\n      tag_189\n      jumpi\n      tag_190\n      tag_60\n      jump\t// in\n    tag_190:\n    tag_189:\n      mload(0x40)\n      swap1\n      dup1\n      dup3\n      mstore\n      dup1\n      0x20\n      mul\n      0x20\n      add\n      dup3\n      add\n      0x40\n      mstore\n      dup1\n      iszero\n      tag_191\n      jumpi\n      dup2\n      0x20\n      add\n      0x20\n      dup3\n      mul\n      dup1\n      calldatasize\n      dup4\n      calldatacopy\n      dup1\n      dup3\n      add\n      swap2\n      pop\n      pop\n      swap1\n      pop\n    tag_191:\n      pop\n        /* \"contracts/groupcreaiton.sol\":2685:2707  sizes = new uint8[](2) */\n      swap1\n      pop\n        /* \"contracts/groupcreaiton.sol\":2658:3219  if (numParticipants == 12) sizes = new uint8[](2);... */\n      jump(tag_192)\n    tag_188:\n        /* \"contracts/groupcreaiton.sol\":2745:2747  13 */\n      0x0d\n        /* \"contracts/groupcreaiton.sol\":2726:2741  numParticipants */\n      dup4\n        /* \"contracts/groupcreaiton.sol\":2726:2747  numParticipants == 13 */\n      sub\n        /* \"contracts/groupcreaiton.sol\":2722:3219  if (numParticipants == 13) sizes = new uint8[](3);... */\n      tag_193\n      jumpi\n        /* \"contracts/groupcreaiton.sol\":2769:2770  3 */\n      0x03\n        /* \"contracts/groupcreaiton.sol\":2757:2771  new uint8[](3) */\n      0xffffffffffffffff\n      dup2\n      gt\n      iszero\n      tag_194\n      jumpi\n      tag_195\n      tag_60\n      jump\t// in\n    tag_195:\n    tag_194:\n      mload(0x40)\n      swap1\n      dup1\n      dup3\n      mstore\n      dup1\n      0x20\n      mul\n      0x20\n      add\n      dup3\n      add\n      0x40\n      mstore\n      dup1\n      iszero\n      tag_196\n      jumpi\n      dup2\n      0x20\n      add\n      0x20\n      dup3\n      mul\n      dup1\n      calldatasize\n      dup4\n      calldatacopy\n      dup1\n      dup3\n      add\n      swap2\n      pop\n      pop\n      swap1\n      pop\n    tag_196:\n      pop\n        /* \"contracts/groupcreaiton.sol\":2749:2771  sizes = new uint8[](3) */\n      swap1\n      pop\n        /* \"contracts/groupcreaiton.sol\":2722:3219  if (numParticipants == 13) sizes = new uint8[](3);... */\n      jump(tag_197)\n    tag_193:\n        /* \"contracts/groupcreaiton.sol\":2809:2811  14 */\n      0x0e\n        /* \"contracts/groupcreaiton.sol\":2790:2805  numParticipants */\n      dup4\n        /* \"contracts/groupcreaiton.sol\":2790:2811  numParticipants == 14 */\n      sub\n        /* \"contracts/groupcreaiton.sol\":2786:3219  if (numParticipants == 14) sizes = new uint8[](3);... */\n      tag_198\n      jumpi\n        /* \"contracts/groupcreaiton.sol\":2833:2834  3 */\n      0x03\n        /* \"contracts/groupcreaiton.sol\":2821:2835  new uint8[](3) */\n      0xffffffffffffffff\n      dup2\n      gt\n      iszero\n      tag_199\n      jumpi\n      tag_200\n      tag_60\n      jump\t// in\n    tag_200:\n    tag_199:\n      mload(0x40)\n      swap1\n      dup1\n      dup3\n      mstore\n      dup1\n      0x20\n      mul\n      0x20\n      add\n      dup3\n      add\n      0x40\n      mstore\n      dup1\n      iszero\n      tag_201\n      jumpi\n      dup2\n      0x20\n      add\n      0x20\n      dup3\n      mul\n      dup1\n      calldatasize\n      dup4\n      calldatacopy\n      dup1\n      dup3\n      add\n      swap2\n      pop\n      pop\n      swap1\n      pop\n    tag_201:\n      pop\n        /* \"contracts/groupcreaiton.sol\":2813:2835  sizes = new uint8[](3) */\n      swap1\n      pop\n        /* \"contracts/groupcreaiton.sol\":2786:3219  if (numParticipants == 14) sizes = new uint8[](3);... */\n      jump(tag_202)\n    tag_198:\n        /* \"contracts/groupcreaiton.sol\":2873:2875  15 */\n      0x0f\n        /* \"contracts/groupcreaiton.sol\":2854:2869  numParticipants */\n      dup4\n        /* \"contracts/groupcreaiton.sol\":2854:2875  numParticipants == 15 */\n      sub\n        /* \"contracts/groupcreaiton.sol\":2850:3219  if (numParticipants == 15) sizes = new uint8[](3);... */\n      tag_203\n      jumpi\n        /* \"contracts/groupcreaiton.sol\":2897:2898  3 */\n      0x03\n        /* \"contracts/groupcreaiton.sol\":2885:2899  new uint8[](3) */\n      0xffffffffffffffff\n      dup2\n      gt\n      iszero\n      tag_204\n      jumpi\n      tag_205\n      tag_60\n      jump\t// in\n    tag_205:\n    tag_204:\n      mload(0x40)\n      swap1\n      dup1\n      dup3\n      mstore\n      dup1\n      0x20\n      mul\n      0x20\n      add\n      dup3\n      add\n      0x40\n      mstore\n      dup1\n      iszero\n      tag_206\n      jumpi\n      dup2\n      0x20\n      add\n      0x20\n      dup3\n      mul\n      dup1\n      calldatasize\n      dup4\n      calldatacopy\n      dup1\n      dup3\n      add\n      swap2\n      pop\n      pop\n      swap1\n      pop\n    tag_206:\n      pop\n        /* \"contracts/groupcreaiton.sol\":2877:2899  sizes = new uint8[](3) */\n      swap1\n      pop\n        /* \"contracts/groupcreaiton.sol\":2850:3219  if (numParticipants == 15) sizes = new uint8[](3);... */\n      jump(tag_207)\n    tag_203:\n        /* \"contracts/groupcreaiton.sol\":2937:2939  16 */\n      0x10\n        /* \"contracts/groupcreaiton.sol\":2918:2933  numParticipants */\n      dup4\n        /* \"contracts/groupcreaiton.sol\":2918:2939  numParticipants == 16 */\n      sub\n        /* \"contracts/groupcreaiton.sol\":2914:3219  if (numParticipants == 16) sizes = new uint8[](3);... */\n      tag_208\n      jumpi\n        /* \"contracts/groupcreaiton.sol\":2961:2962  3 */\n      0x03\n        /* \"contracts/groupcreaiton.sol\":2949:2963  new uint8[](3) */\n      0xffffffffffffffff\n      dup2\n      gt\n      iszero\n      tag_209\n      jumpi\n      tag_210\n      tag_60\n      jump\t// in\n    tag_210:\n    tag_209:\n      mload(0x40)\n      swap1\n      dup1\n      dup3\n      mstore\n      dup1\n      0x20\n      mul\n      0x20\n      add\n      dup3\n      add\n      0x40\n      mstore\n      dup1\n      iszero\n      tag_211\n      jumpi\n      dup2\n      0x20\n      add\n      0x20\n      dup3\n      mul\n      dup1\n      calldatasize\n      dup4\n      calldatacopy\n      dup1\n      dup3\n      add\n      swap2\n      pop\n      pop\n      swap1\n      pop\n    tag_211:\n      pop\n        /* \"contracts/groupcreaiton.sol\":2941:2963  sizes = new uint8[](3) */\n      swap1\n      pop\n        /* \"contracts/groupcreaiton.sol\":2914:3219  if (numParticipants == 16) sizes = new uint8[](3);... */\n      jump(tag_212)\n    tag_208:\n        /* \"contracts/groupcreaiton.sol\":3001:3003  17 */\n      0x11\n        /* \"contracts/groupcreaiton.sol\":2982:2997  numParticipants */\n      dup4\n        /* \"contracts/groupcreaiton.sol\":2982:3003  numParticipants == 17 */\n      sub\n        /* \"contracts/groupcreaiton.sol\":2978:3219  if (numParticipants == 17) sizes = new uint8[](3);... */\n      tag_213\n      jumpi\n        /* \"contracts/groupcreaiton.sol\":3025:3026  3 */\n      0x03\n        /* \"contracts/groupcreaiton.sol\":3013:3027  new uint8[](3) */\n      0xffffffffffffffff\n      dup2\n      gt\n      iszero\n      tag_214\n      jumpi\n      tag_215\n      tag_60\n      jump\t// in\n    tag_215:\n    tag_214:\n      mload(0x40)\n      swap1\n      dup1\n      dup3\n      mstore\n      dup1\n      0x20\n      mul\n      0x20\n      add\n      dup3\n      add\n      0x40\n      mstore\n      dup1\n      iszero\n      tag_216\n      jumpi\n      dup2\n      0x20\n      add\n      0x20\n      dup3\n      mul\n      dup1\n      calldatasize\n      dup4\n      calldatacopy\n      dup1\n      dup3\n      add\n      swap2\n      pop\n      pop\n      swap1\n      pop\n    tag_216:\n      pop\n        /* \"contracts/groupcreaiton.sol\":3005:3027  sizes = new uint8[](3) */\n      swap1\n      pop\n        /* \"contracts/groupcreaiton.sol\":2978:3219  if (numParticipants == 17) sizes = new uint8[](3);... */\n      jump(tag_217)\n    tag_213:\n        /* \"contracts/groupcreaiton.sol\":3065:3067  18 */\n      0x12\n        /* \"contracts/groupcreaiton.sol\":3046:3061  numParticipants */\n      dup4\n        /* \"contracts/groupcreaiton.sol\":3046:3067  numParticipants == 18 */\n      sub\n        /* \"contracts/groupcreaiton.sol\":3042:3219  if (numParticipants == 18) sizes = new uint8[](3);... */\n      tag_218\n      jumpi\n        /* \"contracts/groupcreaiton.sol\":3089:3090  3 */\n      0x03\n        /* \"contracts/groupcreaiton.sol\":3077:3091  new uint8[](3) */\n      0xffffffffffffffff\n      dup2\n      gt\n      iszero\n      tag_219\n      jumpi\n      tag_220\n      tag_60\n      jump\t// in\n    tag_220:\n    tag_219:\n      mload(0x40)\n      swap1\n      dup1\n      dup3\n      mstore\n      dup1\n      0x20\n      mul\n      0x20\n      add\n      dup3\n      add\n      0x40\n      mstore\n      dup1\n      iszero\n      tag_221\n      jumpi\n      dup2\n      0x20\n      add\n      0x20\n      dup3\n      mul\n      dup1\n      calldatasize\n      dup4\n      calldatacopy\n      dup1\n      dup3\n      add\n      swap2\n      pop\n      pop\n      swap1\n      pop\n    tag_221:\n      pop\n        /* \"contracts/groupcreaiton.sol\":3069:3091  sizes = new uint8[](3) */\n      swap1\n      pop\n        /* \"contracts/groupcreaiton.sol\":3042:3219  if (numParticipants == 18) sizes = new uint8[](3);... */\n      jump(tag_222)\n    tag_218:\n        /* \"contracts/groupcreaiton.sol\":3129:3131  19 */\n      0x13\n        /* \"contracts/groupcreaiton.sol\":3110:3125  numParticipants */\n      dup4\n        /* \"contracts/groupcreaiton.sol\":3110:3131  numParticipants == 19 */\n      sub\n        /* \"contracts/groupcreaiton.sol\":3106:3219  if (numParticipants == 19) sizes = new uint8[](4);... */\n      tag_223\n      jumpi\n        /* \"contracts/groupcreaiton.sol\":3153:3154  4 */\n      0x04\n        /* \"contracts/groupcreaiton.sol\":3141:3155  new uint8[](4) */\n      0xffffffffffffffff\n      dup2\n      gt\n      iszero\n      tag_224\n      jumpi\n      tag_225\n      tag_60\n      jump\t// in\n    tag_225:\n    tag_224:\n      mload(0x40)\n      swap1\n      dup1\n      dup3\n      mstore\n      dup1\n      0x20\n      mul\n      0x20\n      add\n      dup3\n      add\n      0x40\n      mstore\n      dup1\n      iszero\n      tag_226\n      jumpi\n      dup2\n      0x20\n      add\n      0x20\n      dup3\n      mul\n      dup1\n      calldatasize\n      dup4\n      calldatacopy\n      dup1\n      dup3\n      add\n      swap2\n      pop\n      pop\n      swap1\n      pop\n    tag_226:\n      pop\n        /* \"contracts/groupcreaiton.sol\":3133:3155  sizes = new uint8[](4) */\n      swap1\n      pop\n        /* \"contracts/groupcreaiton.sol\":3106:3219  if (numParticipants == 19) sizes = new uint8[](4);... */\n      jump(tag_227)\n    tag_223:\n        /* \"contracts/groupcreaiton.sol\":3193:3195  20 */\n      0x14\n        /* \"contracts/groupcreaiton.sol\":3174:3189  numParticipants */\n      dup4\n        /* \"contracts/groupcreaiton.sol\":3174:3195  numParticipants == 20 */\n      sub\n        /* \"contracts/groupcreaiton.sol\":3170:3219  if (numParticipants == 20) sizes = new uint8[](4) */\n      tag_228\n      jumpi\n        /* \"contracts/groupcreaiton.sol\":3217:3218  4 */\n      0x04\n        /* \"contracts/groupcreaiton.sol\":3205:3219  new uint8[](4) */\n      0xffffffffffffffff\n      dup2\n      gt\n      iszero\n      tag_229\n      jumpi\n      tag_230\n      tag_60\n      jump\t// in\n    tag_230:\n    tag_229:\n      mload(0x40)\n      swap1\n      dup1\n      dup3\n      mstore\n      dup1\n      0x20\n      mul\n      0x20\n      add\n      dup3\n      add\n      0x40\n      mstore\n      dup1\n      iszero\n      tag_231\n      jumpi\n      dup2\n      0x20\n      add\n      0x20\n      dup3\n      mul\n      dup1\n      calldatasize\n      dup4\n      calldatacopy\n      dup1\n      dup3\n      add\n      swap2\n      pop\n      pop\n      swap1\n      pop\n    tag_231:\n      pop\n        /* \"contracts/groupcreaiton.sol\":3197:3219  sizes = new uint8[](4) */\n      swap1\n      pop\n        /* \"contracts/groupcreaiton.sol\":3170:3219  if (numParticipants == 20) sizes = new uint8[](4) */\n    tag_228:\n        /* \"contracts/groupcreaiton.sol\":3106:3219  if (numParticipants == 19) sizes = new uint8[](4);... */\n    tag_227:\n        /* \"contracts/groupcreaiton.sol\":3042:3219  if (numParticipants == 18) sizes = new uint8[](3);... */\n    tag_222:\n        /* \"contracts/groupcreaiton.sol\":2978:3219  if (numParticipants == 17) sizes = new uint8[](3);... */\n    tag_217:\n        /* \"contracts/groupcreaiton.sol\":2914:3219  if (numParticipants == 16) sizes = new uint8[](3);... */\n    tag_212:\n        /* \"contracts/groupcreaiton.sol\":2850:3219  if (numParticipants == 15) sizes = new uint8[](3);... */\n    tag_207:\n        /* \"contracts/groupcreaiton.sol\":2786:3219  if (numParticipants == 14) sizes = new uint8[](3);... */\n    tag_202:\n        /* \"contracts/groupcreaiton.sol\":2722:3219  if (numParticipants == 13) sizes = new uint8[](3);... */\n    tag_197:\n        /* \"contracts/groupcreaiton.sol\":2658:3219  if (numParticipants == 12) sizes = new uint8[](2);... */\n    tag_192:\n        /* \"contracts/groupcreaiton.sol\":2594:3219  if (numParticipants == 11) sizes = new uint8[](2);... */\n    tag_187:\n        /* \"contracts/groupcreaiton.sol\":2530:3219  if (numParticipants == 10) sizes = new uint8[](2);... */\n    tag_182:\n        /* \"contracts/groupcreaiton.sol\":2467:3219  if (numParticipants == 9) sizes = new uint8[](2);... */\n    tag_177:\n        /* \"contracts/groupcreaiton.sol\":2404:3219  if (numParticipants == 8) sizes = new uint8[](2);... */\n    tag_172:\n        /* \"contracts/groupcreaiton.sol\":2341:3219  if (numParticipants == 7) sizes = new uint8[](2);... */\n    tag_167:\n        /* \"contracts/groupcreaiton.sol\":2278:3219  if (numParticipants == 6) sizes = new uint8[](1);... */\n    tag_162:\n        /* \"contracts/groupcreaiton.sol\":2215:3219  if (numParticipants == 5) sizes = new uint8[](1);... */\n    tag_157:\n        /* \"contracts/groupcreaiton.sol\":2152:3219  if (numParticipants == 4) sizes = new uint8[](1);... */\n    tag_152:\n        /* \"contracts/groupcreaiton.sol\":2089:3219  if (numParticipants == 3) sizes = new uint8[](1);... */\n    tag_147:\n        /* \"contracts/groupcreaiton.sol\":2026:3219  if (numParticipants == 2) sizes = new uint8[](1);... */\n    tag_142:\n        /* \"contracts/groupcreaiton.sol\":1963:3219  if (numParticipants == 1) sizes = new uint8[](1);... */\n    tag_137:\n        /* \"contracts/groupcreaiton.sol\":3253:3254  1 */\n      0x01\n        /* \"contracts/groupcreaiton.sol\":3234:3249  numParticipants */\n      dup4\n        /* \"contracts/groupcreaiton.sol\":3234:3254  numParticipants == 1 */\n      sub\n        /* \"contracts/groupcreaiton.sol\":3230:4679  if (numParticipants == 1) sizes[0] = 1;... */\n      tag_232\n      jumpi\n        /* \"contracts/groupcreaiton.sol\":3267:3268  1 */\n      0x01\n        /* \"contracts/groupcreaiton.sol\":3256:3261  sizes */\n      dup2\n        /* \"contracts/groupcreaiton.sol\":3262:3263  0 */\n      0x00\n        /* \"contracts/groupcreaiton.sol\":3256:3264  sizes[0] */\n      dup2\n      mload\n      dup2\n      lt\n      tag_233\n      jumpi\n      tag_234\n      tag_39\n      jump\t// in\n    tag_234:\n    tag_233:\n      0x20\n      mul\n      0x20\n      add\n      add\n        /* \"contracts/groupcreaiton.sol\":3256:3268  sizes[0] = 1 */\n      swap1\n      0xff\n      and\n      swap1\n      dup2\n      0xff\n      and\n      dup2\n      mstore\n      pop\n      pop\n        /* \"contracts/groupcreaiton.sol\":3230:4679  if (numParticipants == 1) sizes[0] = 1;... */\n      jump(tag_235)\n    tag_232:\n        /* \"contracts/groupcreaiton.sol\":3306:3307  2 */\n      0x02\n        /* \"contracts/groupcreaiton.sol\":3287:3302  numParticipants */\n      dup4\n        /* \"contracts/groupcreaiton.sol\":3287:3307  numParticipants == 2 */\n      sub\n        /* \"contracts/groupcreaiton.sol\":3283:4679  if (numParticipants == 2) sizes[0] = 2;... */\n      tag_236\n      jumpi\n        /* \"contracts/groupcreaiton.sol\":3320:3321  2 */\n      0x02\n        /* \"contracts/groupcreaiton.sol\":3309:3314  sizes */\n      dup2\n        /* \"contracts/groupcreaiton.sol\":3315:3316  0 */\n      0x00\n        /* \"contracts/groupcreaiton.sol\":3309:3317  sizes[0] */\n      dup2\n      mload\n      dup2\n      lt\n      tag_237\n      jumpi\n      tag_238\n      tag_39\n      jump\t// in\n    tag_238:\n    tag_237:\n      0x20\n      mul\n      0x20\n      add\n      add\n        /* \"contracts/groupcreaiton.sol\":3309:3321  sizes[0] = 2 */\n      swap1\n      0xff\n      and\n      swap1\n      dup2\n      0xff\n      and\n      dup2\n      mstore\n      pop\n      pop\n        /* \"contracts/groupcreaiton.sol\":3283:4679  if (numParticipants == 2) sizes[0] = 2;... */\n      jump(tag_239)\n    tag_236:\n        /* \"contracts/groupcreaiton.sol\":3359:3360  3 */\n      0x03\n        /* \"contracts/groupcreaiton.sol\":3340:3355  numParticipants */\n      dup4\n        /* \"contracts/groupcreaiton.sol\":3340:3360  numParticipants == 3 */\n      sub\n        /* \"contracts/groupcreaiton.sol\":3336:4679  if (numParticipants == 3) sizes[0] = 3;... */\n      tag_240\n      jumpi\n        /* \"contracts/groupcreaiton.sol\":3373:3374  3 */\n      0x03\n        /* \"contracts/groupcreaiton.sol\":3362:3367  sizes */\n      dup2\n        /* \"contracts/groupcreaiton.sol\":3368:3369  0 */\n      0x00\n        /* \"contracts/groupcreaiton.sol\":3362:3370  sizes[0] */\n      dup2\n      mload\n      dup2\n      lt\n      tag_241\n      jumpi\n      tag_242\n      tag_39\n      jump\t// in\n    tag_242:\n    tag_241:\n      0x20\n      mul\n      0x20\n      add\n      add\n        /* \"contracts/groupcreaiton.sol\":3362:3374  sizes[0] = 3 */\n      swap1\n      0xff\n      and\n      swap1\n      dup2\n      0xff\n      and\n      dup2\n      mstore\n      pop\n      pop\n        /* \"contracts/groupcreaiton.sol\":3336:4679  if (numParticipants == 3) sizes[0] = 3;... */\n      jump(tag_243)\n    tag_240:\n        /* \"contracts/groupcreaiton.sol\":3412:3413  4 */\n      0x04\n        /* \"contracts/groupcreaiton.sol\":3393:3408  numParticipants */\n      dup4\n        /* \"contracts/groupcreaiton.sol\":3393:3413  numParticipants == 4 */\n      sub\n        /* \"contracts/groupcreaiton.sol\":3389:4679  if (numParticipants == 4) sizes[0] = 4;... */\n      tag_244\n      jumpi\n        /* \"contracts/groupcreaiton.sol\":3426:3427  4 */\n      0x04\n        /* \"contracts/groupcreaiton.sol\":3415:3420  sizes */\n      dup2\n        /* \"contracts/groupcreaiton.sol\":3421:3422  0 */\n      0x00\n        /* \"contracts/groupcreaiton.sol\":3415:3423  sizes[0] */\n      dup2\n      mload\n      dup2\n      lt\n      tag_245\n      jumpi\n      tag_246\n      tag_39\n      jump\t// in\n    tag_246:\n    tag_245:\n      0x20\n      mul\n      0x20\n      add\n      add\n        /* \"contracts/groupcreaiton.sol\":3415:3427  sizes[0] = 4 */\n      swap1\n      0xff\n      and\n      swap1\n      dup2\n      0xff\n      and\n      dup2\n      mstore\n      pop\n      pop\n        /* \"contracts/groupcreaiton.sol\":3389:4679  if (numParticipants == 4) sizes[0] = 4;... */\n      jump(tag_247)\n    tag_244:\n        /* \"contracts/groupcreaiton.sol\":3465:3466  5 */\n      0x05\n        /* \"contracts/groupcreaiton.sol\":3446:3461  numParticipants */\n      dup4\n        /* \"contracts/groupcreaiton.sol\":3446:3466  numParticipants == 5 */\n      sub\n        /* \"contracts/groupcreaiton.sol\":3442:4679  if (numParticipants == 5) sizes[0] = 5;... */\n      tag_248\n      jumpi\n        /* \"contracts/groupcreaiton.sol\":3479:3480  5 */\n      0x05\n        /* \"contracts/groupcreaiton.sol\":3468:3473  sizes */\n      dup2\n        /* \"contracts/groupcreaiton.sol\":3474:3475  0 */\n      0x00\n        /* \"contracts/groupcreaiton.sol\":3468:3476  sizes[0] */\n      dup2\n      mload\n      dup2\n      lt\n      tag_249\n      jumpi\n      tag_250\n      tag_39\n      jump\t// in\n    tag_250:\n    tag_249:\n      0x20\n      mul\n      0x20\n      add\n      add\n        /* \"contracts/groupcreaiton.sol\":3468:3480  sizes[0] = 5 */\n      swap1\n      0xff\n      and\n      swap1\n      dup2\n      0xff\n      and\n      dup2\n      mstore\n      pop\n      pop\n        /* \"contracts/groupcreaiton.sol\":3442:4679  if (numParticipants == 5) sizes[0] = 5;... */\n      jump(tag_251)\n    tag_248:\n        /* \"contracts/groupcreaiton.sol\":3518:3519  6 */\n      0x06\n        /* \"contracts/groupcreaiton.sol\":3499:3514  numParticipants */\n      dup4\n        /* \"contracts/groupcreaiton.sol\":3499:3519  numParticipants == 6 */\n      sub\n        /* \"contracts/groupcreaiton.sol\":3495:4679  if (numParticipants == 6) sizes[0] = 6;... */\n      tag_252\n      jumpi\n        /* \"contracts/groupcreaiton.sol\":3532:3533  6 */\n      0x06\n        /* \"contracts/groupcreaiton.sol\":3521:3526  sizes */\n      dup2\n        /* \"contracts/groupcreaiton.sol\":3527:3528  0 */\n      0x00\n        /* \"contracts/groupcreaiton.sol\":3521:3529  sizes[0] */\n      dup2\n      mload\n      dup2\n      lt\n      tag_253\n      jumpi\n      tag_254\n      tag_39\n      jump\t// in\n    tag_254:\n    tag_253:\n      0x20\n      mul\n      0x20\n      add\n      add\n        /* \"contracts/groupcreaiton.sol\":3521:3533  sizes[0] = 6 */\n      swap1\n      0xff\n      and\n      swap1\n      dup2\n      0xff\n      and\n      dup2\n      mstore\n      pop\n      pop\n        /* \"contracts/groupcreaiton.sol\":3495:4679  if (numParticipants == 6) sizes[0] = 6;... */\n      jump(tag_255)\n    tag_252:\n        /* \"contracts/groupcreaiton.sol\":3571:3572  7 */\n      0x07\n        /* \"contracts/groupcreaiton.sol\":3552:3567  numParticipants */\n      dup4\n        /* \"contracts/groupcreaiton.sol\":3552:3572  numParticipants == 7 */\n      sub\n        /* \"contracts/groupcreaiton.sol\":3548:4679  if (numParticipants == 7) { sizes[0] = 3; sizes[1] = 4; }... */\n      tag_256\n      jumpi\n        /* \"contracts/groupcreaiton.sol\":3587:3588  3 */\n      0x03\n        /* \"contracts/groupcreaiton.sol\":3576:3581  sizes */\n      dup2\n        /* \"contracts/groupcreaiton.sol\":3582:3583  0 */\n      0x00\n        /* \"contracts/groupcreaiton.sol\":3576:3584  sizes[0] */\n      dup2\n      mload\n      dup2\n      lt\n      tag_257\n      jumpi\n      tag_258\n      tag_39\n      jump\t// in\n    tag_258:\n    tag_257:\n      0x20\n      mul\n      0x20\n      add\n      add\n        /* \"contracts/groupcreaiton.sol\":3576:3588  sizes[0] = 3 */\n      swap1\n      0xff\n      and\n      swap1\n      dup2\n      0xff\n      and\n      dup2\n      mstore\n      pop\n      pop\n        /* \"contracts/groupcreaiton.sol\":3601:3602  4 */\n      0x04\n        /* \"contracts/groupcreaiton.sol\":3590:3595  sizes */\n      dup2\n        /* \"contracts/groupcreaiton.sol\":3596:3597  1 */\n      0x01\n        /* \"contracts/groupcreaiton.sol\":3590:3598  sizes[1] */\n      dup2\n      mload\n      dup2\n      lt\n      tag_259\n      jumpi\n      tag_260\n      tag_39\n      jump\t// in\n    tag_260:\n    tag_259:\n      0x20\n      mul\n      0x20\n      add\n      add\n        /* \"contracts/groupcreaiton.sol\":3590:3602  sizes[1] = 4 */\n      swap1\n      0xff\n      and\n      swap1\n      dup2\n      0xff\n      and\n      dup2\n      mstore\n      pop\n      pop\n        /* \"contracts/groupcreaiton.sol\":3548:4679  if (numParticipants == 7) { sizes[0] = 3; sizes[1] = 4; }... */\n      jump(tag_261)\n    tag_256:\n        /* \"contracts/groupcreaiton.sol\":3642:3643  8 */\n      0x08\n        /* \"contracts/groupcreaiton.sol\":3623:3638  numParticipants */\n      dup4\n        /* \"contracts/groupcreaiton.sol\":3623:3643  numParticipants == 8 */\n      sub\n        /* \"contracts/groupcreaiton.sol\":3619:4679  if (numParticipants == 8) { sizes[0] = 4; sizes[1] = 4; }... */\n      tag_262\n      jumpi\n        /* \"contracts/groupcreaiton.sol\":3658:3659  4 */\n      0x04\n        /* \"contracts/groupcreaiton.sol\":3647:3652  sizes */\n      dup2\n        /* \"contracts/groupcreaiton.sol\":3653:3654  0 */\n      0x00\n        /* \"contracts/groupcreaiton.sol\":3647:3655  sizes[0] */\n      dup2\n      mload\n      dup2\n      lt\n      tag_263\n      jumpi\n      tag_264\n      tag_39\n      jump\t// in\n    tag_264:\n    tag_263:\n      0x20\n      mul\n      0x20\n      add\n      add\n        /* \"contracts/groupcreaiton.sol\":3647:3659  sizes[0] = 4 */\n      swap1\n      0xff\n      and\n      swap1\n      dup2\n      0xff\n      and\n      dup2\n      mstore\n      pop\n      pop\n        /* \"contracts/groupcreaiton.sol\":3672:3673  4 */\n      0x04\n        /* \"contracts/groupcreaiton.sol\":3661:3666  sizes */\n      dup2\n        /* \"contracts/groupcreaiton.sol\":3667:3668  1 */\n      0x01\n        /* \"contracts/groupcreaiton.sol\":3661:3669  sizes[1] */\n      dup2\n      mload\n      dup2\n      lt\n      tag_265\n      jumpi\n      tag_266\n      tag_39\n      jump\t// in\n    tag_266:\n    tag_265:\n      0x20\n      mul\n      0x20\n      add\n      add\n        /* \"contracts/groupcreaiton.sol\":3661:3673  sizes[1] = 4 */\n      swap1\n      0xff\n      and\n      swap1\n      dup2\n      0xff\n      and\n      dup2\n      mstore\n      pop\n      pop\n        /* \"contracts/groupcreaiton.sol\":3619:4679  if (numParticipants == 8) { sizes[0] = 4; sizes[1] = 4; }... */\n      jump(tag_267)\n    tag_262:\n        /* \"contracts/groupcreaiton.sol\":3713:3714  9 */\n      0x09\n        /* \"contracts/groupcreaiton.sol\":3694:3709  numParticipants */\n      dup4\n        /* \"contracts/groupcreaiton.sol\":3694:3714  numParticipants == 9 */\n      sub\n        /* \"contracts/groupcreaiton.sol\":3690:4679  if (numParticipants == 9) { sizes[0] = 5; sizes[1] = 4; }... */\n      tag_268\n      jumpi\n        /* \"contracts/groupcreaiton.sol\":3729:3730  5 */\n      0x05\n        /* \"contracts/groupcreaiton.sol\":3718:3723  sizes */\n      dup2\n        /* \"contracts/groupcreaiton.sol\":3724:3725  0 */\n      0x00\n        /* \"contracts/groupcreaiton.sol\":3718:3726  sizes[0] */\n      dup2\n      mload\n      dup2\n      lt\n      tag_269\n      jumpi\n      tag_270\n      tag_39\n      jump\t// in\n    tag_270:\n    tag_269:\n      0x20\n      mul\n      0x20\n      add\n      add\n        /* \"contracts/groupcreaiton.sol\":3718:3730  sizes[0] = 5 */\n      swap1\n      0xff\n      and\n      swap1\n      dup2\n      0xff\n      and\n      dup2\n      mstore\n      pop\n      pop\n        /* \"contracts/groupcreaiton.sol\":3743:3744  4 */\n      0x04\n        /* \"contracts/groupcreaiton.sol\":3732:3737  sizes */\n      dup2\n        /* \"contracts/groupcreaiton.sol\":3738:3739  1 */\n      0x01\n        /* \"contracts/groupcreaiton.sol\":3732:3740  sizes[1] */\n      dup2\n      mload\n      dup2\n      lt\n      tag_271\n      jumpi\n      tag_272\n      tag_39\n      jump\t// in\n    tag_272:\n    tag_271:\n      0x20\n      mul\n      0x20\n      add\n      add\n        /* \"contracts/groupcreaiton.sol\":3732:3744  sizes[1] = 4 */\n      swap1\n      0xff\n      and\n      swap1\n      dup2\n      0xff\n      and\n      dup2\n      mstore\n      pop\n      pop\n        /* \"contracts/groupcreaiton.sol\":3690:4679  if (numParticipants == 9) { sizes[0] = 5; sizes[1] = 4; }... */\n      jump(tag_273)\n    tag_268:\n        /* \"contracts/groupcreaiton.sol\":3784:3786  10 */\n      0x0a\n        /* \"contracts/groupcreaiton.sol\":3765:3780  numParticipants */\n      dup4\n        /* \"contracts/groupcreaiton.sol\":3765:3786  numParticipants == 10 */\n      sub\n        /* \"contracts/groupcreaiton.sol\":3761:4679  if (numParticipants == 10) { sizes[0] = 5; sizes[1] = 5; }... */\n      tag_274\n      jumpi\n        /* \"contracts/groupcreaiton.sol\":3801:3802  5 */\n      0x05\n        /* \"contracts/groupcreaiton.sol\":3790:3795  sizes */\n      dup2\n        /* \"contracts/groupcreaiton.sol\":3796:3797  0 */\n      0x00\n        /* \"contracts/groupcreaiton.sol\":3790:3798  sizes[0] */\n      dup2\n      mload\n      dup2\n      lt\n      tag_275\n      jumpi\n      tag_276\n      tag_39\n      jump\t// in\n    tag_276:\n    tag_275:\n      0x20\n      mul\n      0x20\n      add\n      add\n        /* \"contracts/groupcreaiton.sol\":3790:3802  sizes[0] = 5 */\n      swap1\n      0xff\n      and\n      swap1\n      dup2\n      0xff\n      and\n      dup2\n      mstore\n      pop\n      pop\n        /* \"contracts/groupcreaiton.sol\":3815:3816  5 */\n      0x05\n        /* \"contracts/groupcreaiton.sol\":3804:3809  sizes */\n      dup2\n        /* \"contracts/groupcreaiton.sol\":3810:3811  1 */\n      0x01\n        /* \"contracts/groupcreaiton.sol\":3804:3812  sizes[1] */\n      dup2\n      mload\n      dup2\n      lt\n      tag_277\n      jumpi\n      tag_278\n      tag_39\n      jump\t// in\n    tag_278:\n    tag_277:\n      0x20\n      mul\n      0x20\n      add\n      add\n        /* \"contracts/groupcreaiton.sol\":3804:3816  sizes[1] = 5 */\n      swap1\n      0xff\n      and\n      swap1\n      dup2\n      0xff\n      and\n      dup2\n      mstore\n      pop\n      pop\n        /* \"contracts/groupcreaiton.sol\":3761:4679  if (numParticipants == 10) { sizes[0] = 5; sizes[1] = 5; }... */\n      jump(tag_279)\n    tag_274:\n        /* \"contracts/groupcreaiton.sol\":3856:3858  11 */\n      0x0b\n        /* \"contracts/groupcreaiton.sol\":3837:3852  numParticipants */\n      dup4\n        /* \"contracts/groupcreaiton.sol\":3837:3858  numParticipants == 11 */\n      sub\n        /* \"contracts/groupcreaiton.sol\":3833:4679  if (numParticipants == 11) { sizes[0] = 5; sizes[1] = 6; }... */\n      tag_280\n      jumpi\n        /* \"contracts/groupcreaiton.sol\":3873:3874  5 */\n      0x05\n        /* \"contracts/groupcreaiton.sol\":3862:3867  sizes */\n      dup2\n        /* \"contracts/groupcreaiton.sol\":3868:3869  0 */\n      0x00\n        /* \"contracts/groupcreaiton.sol\":3862:3870  sizes[0] */\n      dup2\n      mload\n      dup2\n      lt\n      tag_281\n      jumpi\n      tag_282\n      tag_39\n      jump\t// in\n    tag_282:\n    tag_281:\n      0x20\n      mul\n      0x20\n      add\n      add\n        /* \"contracts/groupcreaiton.sol\":3862:3874  sizes[0] = 5 */\n      swap1\n      0xff\n      and\n      swap1\n      dup2\n      0xff\n      and\n      dup2\n      mstore\n      pop\n      pop\n        /* \"contracts/groupcreaiton.sol\":3887:3888  6 */\n      0x06\n        /* \"contracts/groupcreaiton.sol\":3876:3881  sizes */\n      dup2\n        /* \"contracts/groupcreaiton.sol\":3882:3883  1 */\n      0x01\n        /* \"contracts/groupcreaiton.sol\":3876:3884  sizes[1] */\n      dup2\n      mload\n      dup2\n      lt\n      tag_283\n      jumpi\n      tag_284\n      tag_39\n      jump\t// in\n    tag_284:\n    tag_283:\n      0x20\n      mul\n      0x20\n      add\n      add\n        /* \"contracts/groupcreaiton.sol\":3876:3888  sizes[1] = 6 */\n      swap1\n      0xff\n      and\n      swap1\n      dup2\n      0xff\n      and\n      dup2\n      mstore\n      pop\n      pop\n        /* \"contracts/groupcreaiton.sol\":3833:4679  if (numParticipants == 11) { sizes[0] = 5; sizes[1] = 6; }... */\n      jump(tag_285)\n    tag_280:\n        /* \"contracts/groupcreaiton.sol\":3928:3930  12 */\n      0x0c\n        /* \"contracts/groupcreaiton.sol\":3909:3924  numParticipants */\n      dup4\n        /* \"contracts/groupcreaiton.sol\":3909:3930  numParticipants == 12 */\n      sub\n        /* \"contracts/groupcreaiton.sol\":3905:4679  if (numParticipants == 12) { sizes[0] = 6; sizes[1] = 6; }... */\n      tag_286\n      jumpi\n        /* \"contracts/groupcreaiton.sol\":3945:3946  6 */\n      0x06\n        /* \"contracts/groupcreaiton.sol\":3934:3939  sizes */\n      dup2\n        /* \"contracts/groupcreaiton.sol\":3940:3941  0 */\n      0x00\n        /* \"contracts/groupcreaiton.sol\":3934:3942  sizes[0] */\n      dup2\n      mload\n      dup2\n      lt\n      tag_287\n      jumpi\n      tag_288\n      tag_39\n      jump\t// in\n    tag_288:\n    tag_287:\n      0x20\n      mul\n      0x20\n      add\n      add\n        /* \"contracts/groupcreaiton.sol\":3934:3946  sizes[0] = 6 */\n      swap1\n      0xff\n      and\n      swap1\n      dup2\n      0xff\n      and\n      dup2\n      mstore\n      pop\n      pop\n        /* \"contracts/groupcreaiton.sol\":3959:3960  6 */\n      0x06\n        /* \"contracts/groupcreaiton.sol\":3948:3953  sizes */\n      dup2\n        /* \"contracts/groupcreaiton.sol\":3954:3955  1 */\n      0x01\n        /* \"contracts/groupcreaiton.sol\":3948:3956  sizes[1] */\n      dup2\n      mload\n      dup2\n      lt\n      tag_289\n      jumpi\n      tag_290\n      tag_39\n      jump\t// in\n    tag_290:\n    tag_289:\n      0x20\n      mul\n      0x20\n      add\n      add\n        /* \"contracts/groupcreaiton.sol\":3948:3960  sizes[1] = 6 */\n      swap1\n      0xff\n      and\n      swap1\n      dup2\n      0xff\n      and\n      dup2\n      mstore\n      pop\n      pop\n        /* \"contracts/groupcreaiton.sol\":3905:4679  if (numParticipants == 12) { sizes[0] = 6; sizes[1] = 6; }... */\n      jump(tag_291)\n    tag_286:\n        /* \"contracts/groupcreaiton.sol\":4000:4002  13 */\n      0x0d\n        /* \"contracts/groupcreaiton.sol\":3981:3996  numParticipants */\n      dup4\n        /* \"contracts/groupcreaiton.sol\":3981:4002  numParticipants == 13 */\n      sub\n        /* \"contracts/groupcreaiton.sol\":3977:4679  if (numParticipants == 13) { sizes[0] = 5; sizes[1] = 4; sizes[2] = 4; }... */\n      tag_292\n      jumpi\n        /* \"contracts/groupcreaiton.sol\":4017:4018  5 */\n      0x05\n        /* \"contracts/groupcreaiton.sol\":4006:4011  sizes */\n      dup2\n        /* \"contracts/groupcreaiton.sol\":4012:4013  0 */\n      0x00\n        /* \"contracts/groupcreaiton.sol\":4006:4014  sizes[0] */\n      dup2\n      mload\n      dup2\n      lt\n      tag_293\n      jumpi\n      tag_294\n      tag_39\n      jump\t// in\n    tag_294:\n    tag_293:\n      0x20\n      mul\n      0x20\n      add\n      add\n        /* \"contracts/groupcreaiton.sol\":4006:4018  sizes[0] = 5 */\n      swap1\n      0xff\n      and\n      swap1\n      dup2\n      0xff\n      and\n      dup2\n      mstore\n      pop\n      pop\n        /* \"contracts/groupcreaiton.sol\":4031:4032  4 */\n      0x04\n        /* \"contracts/groupcreaiton.sol\":4020:4025  sizes */\n      dup2\n        /* \"contracts/groupcreaiton.sol\":4026:4027  1 */\n      0x01\n        /* \"contracts/groupcreaiton.sol\":4020:4028  sizes[1] */\n      dup2\n      mload\n      dup2\n      lt\n      tag_295\n      jumpi\n      tag_296\n      tag_39\n      jump\t// in\n    tag_296:\n    tag_295:\n      0x20\n      mul\n      0x20\n      add\n      add\n        /* \"contracts/groupcreaiton.sol\":4020:4032  sizes[1] = 4 */\n      swap1\n      0xff\n      and\n      swap1\n      dup2\n      0xff\n      and\n      dup2\n      mstore\n      pop\n      pop\n        /* \"contracts/groupcreaiton.sol\":4045:4046  4 */\n      0x04\n        /* \"contracts/groupcreaiton.sol\":4034:4039  sizes */\n      dup2\n        /* \"contracts/groupcreaiton.sol\":4040:4041  2 */\n      0x02\n        /* \"contracts/groupcreaiton.sol\":4034:4042  sizes[2] */\n      dup2\n      mload\n      dup2\n      lt\n      tag_297\n      jumpi\n      tag_298\n      tag_39\n      jump\t// in\n    tag_298:\n    tag_297:\n      0x20\n      mul\n      0x20\n      add\n      add\n        /* \"contracts/groupcreaiton.sol\":4034:4046  sizes[2] = 4 */\n      swap1\n      0xff\n      and\n      swap1\n      dup2\n      0xff\n      and\n      dup2\n      mstore\n      pop\n      pop\n        /* \"contracts/groupcreaiton.sol\":3977:4679  if (numParticipants == 13) { sizes[0] = 5; sizes[1] = 4; sizes[2] = 4; }... */\n      jump(tag_299)\n    tag_292:\n        /* \"contracts/groupcreaiton.sol\":4086:4088  14 */\n      0x0e\n        /* \"contracts/groupcreaiton.sol\":4067:4082  numParticipants */\n      dup4\n        /* \"contracts/groupcreaiton.sol\":4067:4088  numParticipants == 14 */\n      sub\n        /* \"contracts/groupcreaiton.sol\":4063:4679  if (numParticipants == 14) { sizes[0] = 5; sizes[1] = 5; sizes[2] = 4; }... */\n      tag_300\n      jumpi\n        /* \"contracts/groupcreaiton.sol\":4103:4104  5 */\n      0x05\n        /* \"contracts/groupcreaiton.sol\":4092:4097  sizes */\n      dup2\n        /* \"contracts/groupcreaiton.sol\":4098:4099  0 */\n      0x00\n        /* \"contracts/groupcreaiton.sol\":4092:4100  sizes[0] */\n      dup2\n      mload\n      dup2\n      lt\n      tag_301\n      jumpi\n      tag_302\n      tag_39\n      jump\t// in\n    tag_302:\n    tag_301:\n      0x20\n      mul\n      0x20\n      add\n      add\n        /* \"contracts/groupcreaiton.sol\":4092:4104  sizes[0] = 5 */\n      swap1\n      0xff\n      and\n      swap1\n      dup2\n      0xff\n      and\n      dup2\n      mstore\n      pop\n      pop\n        /* \"contracts/groupcreaiton.sol\":4117:4118  5 */\n      0x05\n        /* \"contracts/groupcreaiton.sol\":4106:4111  sizes */\n      dup2\n        /* \"contracts/groupcreaiton.sol\":4112:4113  1 */\n      0x01\n        /* \"contracts/groupcreaiton.sol\":4106:4114  sizes[1] */\n      dup2\n      mload\n      dup2\n      lt\n      tag_303\n      jumpi\n      tag_304\n      tag_39\n      jump\t// in\n    tag_304:\n    tag_303:\n      0x20\n      mul\n      0x20\n      add\n      add\n        /* \"contracts/groupcreaiton.sol\":4106:4118  sizes[1] = 5 */\n      swap1\n      0xff\n      and\n      swap1\n      dup2\n      0xff\n      and\n      dup2\n      mstore\n      pop\n      pop\n        /* \"contracts/groupcreaiton.sol\":4131:4132  4 */\n      0x04\n        /* \"contracts/groupcreaiton.sol\":4120:4125  sizes */\n      dup2\n        /* \"contracts/groupcreaiton.sol\":4126:4127  2 */\n      0x02\n        /* \"contracts/groupcreaiton.sol\":4120:4128  sizes[2] */\n      dup2\n      mload\n      dup2\n      lt\n      tag_305\n      jumpi\n      tag_306\n      tag_39\n      jump\t// in\n    tag_306:\n    tag_305:\n      0x20\n      mul\n      0x20\n      add\n      add\n        /* \"contracts/groupcreaiton.sol\":4120:4132  sizes[2] = 4 */\n      swap1\n      0xff\n      and\n      swap1\n      dup2\n      0xff\n      and\n      dup2\n      mstore\n      pop\n      pop\n        /* \"contracts/groupcreaiton.sol\":4063:4679  if (numParticipants == 14) { sizes[0] = 5; sizes[1] = 5; sizes[2] = 4; }... */\n      jump(tag_307)\n    tag_300:\n        /* \"contracts/groupcreaiton.sol\":4172:4174  15 */\n      0x0f\n        /* \"contracts/groupcreaiton.sol\":4153:4168  numParticipants */\n      dup4\n        /* \"contracts/groupcreaiton.sol\":4153:4174  numParticipants == 15 */\n      sub\n        /* \"contracts/groupcreaiton.sol\":4149:4679  if (numParticipants == 15) { sizes[0] = 5; sizes[1] = 5; sizes[2] = 5; }... */\n      tag_308\n      jumpi\n        /* \"contracts/groupcreaiton.sol\":4189:4190  5 */\n      0x05\n        /* \"contracts/groupcreaiton.sol\":4178:4183  sizes */\n      dup2\n        /* \"contracts/groupcreaiton.sol\":4184:4185  0 */\n      0x00\n        /* \"contracts/groupcreaiton.sol\":4178:4186  sizes[0] */\n      dup2\n      mload\n      dup2\n      lt\n      tag_309\n      jumpi\n      tag_310\n      tag_39\n      jump\t// in\n    tag_310:\n    tag_309:\n      0x20\n      mul\n      0x20\n      add\n      add\n        /* \"contracts/groupcreaiton.sol\":4178:4190  sizes[0] = 5 */\n      swap1\n      0xff\n      and\n      swap1\n      dup2\n      0xff\n      and\n      dup2\n      mstore\n      pop\n      pop\n        /* \"contracts/groupcreaiton.sol\":4203:4204  5 */\n      0x05\n        /* \"contracts/groupcreaiton.sol\":4192:4197  sizes */\n      dup2\n        /* \"contracts/groupcreaiton.sol\":4198:4199  1 */\n      0x01\n        /* \"contracts/groupcreaiton.sol\":4192:4200  sizes[1] */\n      dup2\n      mload\n      dup2\n      lt\n      tag_311\n      jumpi\n      tag_312\n      tag_39\n      jump\t// in\n    tag_312:\n    tag_311:\n      0x20\n      mul\n      0x20\n      add\n      add\n        /* \"contracts/groupcreaiton.sol\":4192:4204  sizes[1] = 5 */\n      swap1\n      0xff\n      and\n      swap1\n      dup2\n      0xff\n      and\n      dup2\n      mstore\n      pop\n      pop\n        /* \"contracts/groupcreaiton.sol\":4217:4218  5 */\n      0x05\n        /* \"contracts/groupcreaiton.sol\":4206:4211  sizes */\n      dup2\n        /* \"contracts/groupcreaiton.sol\":4212:4213  2 */\n      0x02\n        /* \"contracts/groupcreaiton.sol\":4206:4214  sizes[2] */\n      dup2\n      mload\n      dup2\n      lt\n      tag_313\n      jumpi\n      tag_314\n      tag_39\n      jump\t// in\n    tag_314:\n    tag_313:\n      0x20\n      mul\n      0x20\n      add\n      add\n        /* \"contracts/groupcreaiton.sol\":4206:4218  sizes[2] = 5 */\n      swap1\n      0xff\n      and\n      swap1\n      dup2\n      0xff\n      and\n      dup2\n      mstore\n      pop\n      pop\n        /* \"contracts/groupcreaiton.sol\":4149:4679  if (numParticipants == 15) { sizes[0] = 5; sizes[1] = 5; sizes[2] = 5; }... */\n      jump(tag_315)\n    tag_308:\n        /* \"contracts/groupcreaiton.sol\":4258:4260  16 */\n      0x10\n        /* \"contracts/groupcreaiton.sol\":4239:4254  numParticipants */\n      dup4\n        /* \"contracts/groupcreaiton.sol\":4239:4260  numParticipants == 16 */\n      sub\n        /* \"contracts/groupcreaiton.sol\":4235:4679  if (numParticipants == 16) { sizes[0] = 6; sizes[1] = 5; sizes[2] = 5; }... */\n      tag_316\n      jumpi\n        /* \"contracts/groupcreaiton.sol\":4275:4276  6 */\n      0x06\n        /* \"contracts/groupcreaiton.sol\":4264:4269  sizes */\n      dup2\n        /* \"contracts/groupcreaiton.sol\":4270:4271  0 */\n      0x00\n        /* \"contracts/groupcreaiton.sol\":4264:4272  sizes[0] */\n      dup2\n      mload\n      dup2\n      lt\n      tag_317\n      jumpi\n      tag_318\n      tag_39\n      jump\t// in\n    tag_318:\n    tag_317:\n      0x20\n      mul\n      0x20\n      add\n      add\n        /* \"contracts/groupcreaiton.sol\":4264:4276  sizes[0] = 6 */\n      swap1\n      0xff\n      and\n      swap1\n      dup2\n      0xff\n      and\n      dup2\n      mstore\n      pop\n      pop\n        /* \"contracts/groupcreaiton.sol\":4289:4290  5 */\n      0x05\n        /* \"contracts/groupcreaiton.sol\":4278:4283  sizes */\n      dup2\n        /* \"contracts/groupcreaiton.sol\":4284:4285  1 */\n      0x01\n        /* \"contracts/groupcreaiton.sol\":4278:4286  sizes[1] */\n      dup2\n      mload\n      dup2\n      lt\n      tag_319\n      jumpi\n      tag_320\n      tag_39\n      jump\t// in\n    tag_320:\n    tag_319:\n      0x20\n      mul\n      0x20\n      add\n      add\n        /* \"contracts/groupcreaiton.sol\":4278:4290  sizes[1] = 5 */\n      swap1\n      0xff\n      and\n      swap1\n      dup2\n      0xff\n      and\n      dup2\n      mstore\n      pop\n      pop\n        /* \"contracts/groupcreaiton.sol\":4303:4304  5 */\n      0x05\n        /* \"contracts/groupcreaiton.sol\":4292:4297  sizes */\n      dup2\n        /* \"contracts/groupcreaiton.sol\":4298:4299  2 */\n      0x02\n        /* \"contracts/groupcreaiton.sol\":4292:4300  sizes[2] */\n      dup2\n      mload\n      dup2\n      lt\n      tag_321\n      jumpi\n      tag_322\n      tag_39\n      jump\t// in\n    tag_322:\n    tag_321:\n      0x20\n      mul\n      0x20\n      add\n      add\n        /* \"contracts/groupcreaiton.sol\":4292:4304  sizes[2] = 5 */\n      swap1\n      0xff\n      and\n      swap1\n      dup2\n      0xff\n      and\n      dup2\n      mstore\n      pop\n      pop\n        /* \"contracts/groupcreaiton.sol\":4235:4679  if (numParticipants == 16) { sizes[0] = 6; sizes[1] = 5; sizes[2] = 5; }... */\n      jump(tag_323)\n    tag_316:\n        /* \"contracts/groupcreaiton.sol\":4344:4346  17 */\n      0x11\n        /* \"contracts/groupcreaiton.sol\":4325:4340  numParticipants */\n      dup4\n        /* \"contracts/groupcreaiton.sol\":4325:4346  numParticipants == 17 */\n      sub\n        /* \"contracts/groupcreaiton.sol\":4321:4679  if (numParticipants == 17) { sizes[0] = 6; sizes[1] = 6; sizes[2] = 5; }... */\n      tag_324\n      jumpi\n        /* \"contracts/groupcreaiton.sol\":4361:4362  6 */\n      0x06\n        /* \"contracts/groupcreaiton.sol\":4350:4355  sizes */\n      dup2\n        /* \"contracts/groupcreaiton.sol\":4356:4357  0 */\n      0x00\n        /* \"contracts/groupcreaiton.sol\":4350:4358  sizes[0] */\n      dup2\n      mload\n      dup2\n      lt\n      tag_325\n      jumpi\n      tag_326\n      tag_39\n      jump\t// in\n    tag_326:\n    tag_325:\n      0x20\n      mul\n      0x20\n      add\n      add\n        /* \"contracts/groupcreaiton.sol\":4350:4362  sizes[0] = 6 */\n      swap1\n      0xff\n      and\n      swap1\n      dup2\n      0xff\n      and\n      dup2\n      mstore\n      pop\n      pop\n        /* \"contracts/groupcreaiton.sol\":4375:4376  6 */\n      0x06\n        /* \"contracts/groupcreaiton.sol\":4364:4369  sizes */\n      dup2\n        /* \"contracts/groupcreaiton.sol\":4370:4371  1 */\n      0x01\n        /* \"contracts/groupcreaiton.sol\":4364:4372  sizes[1] */\n      dup2\n      mload\n      dup2\n      lt\n      tag_327\n      jumpi\n      tag_328\n      tag_39\n      jump\t// in\n    tag_328:\n    tag_327:\n      0x20\n      mul\n      0x20\n      add\n      add\n        /* \"contracts/groupcreaiton.sol\":4364:4376  sizes[1] = 6 */\n      swap1\n      0xff\n      and\n      swap1\n      dup2\n      0xff\n      and\n      dup2\n      mstore\n      pop\n      pop\n        /* \"contracts/groupcreaiton.sol\":4389:4390  5 */\n      0x05\n        /* \"contracts/groupcreaiton.sol\":4378:4383  sizes */\n      dup2\n        /* \"contracts/groupcreaiton.sol\":4384:4385  2 */\n      0x02\n        /* \"contracts/groupcreaiton.sol\":4378:4386  sizes[2] */\n      dup2\n      mload\n      dup2\n      lt\n      tag_329\n      jumpi\n      tag_330\n      tag_39\n      jump\t// in\n    tag_330:\n    tag_329:\n      0x20\n      mul\n      0x20\n      add\n      add\n        /* \"contracts/groupcreaiton.sol\":4378:4390  sizes[2] = 5 */\n      swap1\n      0xff\n      and\n      swap1\n      dup2\n      0xff\n      and\n      dup2\n      mstore\n      pop\n      pop\n        /* \"contracts/groupcreaiton.sol\":4321:4679  if (numParticipants == 17) { sizes[0] = 6; sizes[1] = 6; sizes[2] = 5; }... */\n      jump(tag_331)\n    tag_324:\n        /* \"contracts/groupcreaiton.sol\":4430:4432  18 */\n      0x12\n        /* \"contracts/groupcreaiton.sol\":4411:4426  numParticipants */\n      dup4\n        /* \"contracts/groupcreaiton.sol\":4411:4432  numParticipants == 18 */\n      sub\n        /* \"contracts/groupcreaiton.sol\":4407:4679  if (numParticipants == 18) { sizes[0] = 6; sizes[1] = 6; sizes[2] = 6; }... */\n      tag_332\n      jumpi\n        /* \"contracts/groupcreaiton.sol\":4447:4448  6 */\n      0x06\n        /* \"contracts/groupcreaiton.sol\":4436:4441  sizes */\n      dup2\n        /* \"contracts/groupcreaiton.sol\":4442:4443  0 */\n      0x00\n        /* \"contracts/groupcreaiton.sol\":4436:4444  sizes[0] */\n      dup2\n      mload\n      dup2\n      lt\n      tag_333\n      jumpi\n      tag_334\n      tag_39\n      jump\t// in\n    tag_334:\n    tag_333:\n      0x20\n      mul\n      0x20\n      add\n      add\n        /* \"contracts/groupcreaiton.sol\":4436:4448  sizes[0] = 6 */\n      swap1\n      0xff\n      and\n      swap1\n      dup2\n      0xff\n      and\n      dup2\n      mstore\n      pop\n      pop\n        /* \"contracts/groupcreaiton.sol\":4461:4462  6 */\n      0x06\n        /* \"contracts/groupcreaiton.sol\":4450:4455  sizes */\n      dup2\n        /* \"contracts/groupcreaiton.sol\":4456:4457  1 */\n      0x01\n        /* \"contracts/groupcreaiton.sol\":4450:4458  sizes[1] */\n      dup2\n      mload\n      dup2\n      lt\n      tag_335\n      jumpi\n      tag_336\n      tag_39\n      jump\t// in\n    tag_336:\n    tag_335:\n      0x20\n      mul\n      0x20\n      add\n      add\n        /* \"contracts/groupcreaiton.sol\":4450:4462  sizes[1] = 6 */\n      swap1\n      0xff\n      and\n      swap1\n      dup2\n      0xff\n      and\n      dup2\n      mstore\n      pop\n      pop\n        /* \"contracts/groupcreaiton.sol\":4475:4476  6 */\n      0x06\n        /* \"contracts/groupcreaiton.sol\":4464:4469  sizes */\n      dup2\n        /* \"contracts/groupcreaiton.sol\":4470:4471  2 */\n      0x02\n        /* \"contracts/groupcreaiton.sol\":4464:4472  sizes[2] */\n      dup2\n      mload\n      dup2\n      lt\n      tag_337\n      jumpi\n      tag_338\n      tag_39\n      jump\t// in\n    tag_338:\n    tag_337:\n      0x20\n      mul\n      0x20\n      add\n      add\n        /* \"contracts/groupcreaiton.sol\":4464:4476  sizes[2] = 6 */\n      swap1\n      0xff\n      and\n      swap1\n      dup2\n      0xff\n      and\n      dup2\n      mstore\n      pop\n      pop\n        /* \"contracts/groupcreaiton.sol\":4407:4679  if (numParticipants == 18) { sizes[0] = 6; sizes[1] = 6; sizes[2] = 6; }... */\n      jump(tag_339)\n    tag_332:\n        /* \"contracts/groupcreaiton.sol\":4516:4518  19 */\n      0x13\n        /* \"contracts/groupcreaiton.sol\":4497:4512  numParticipants */\n      dup4\n        /* \"contracts/groupcreaiton.sol\":4497:4518  numParticipants == 19 */\n      sub\n        /* \"contracts/groupcreaiton.sol\":4493:4679  if (numParticipants == 19) { sizes[0] = 5; sizes[1] = 5; sizes[2] = 5; sizes[3] = 4; }... */\n      tag_340\n      jumpi\n        /* \"contracts/groupcreaiton.sol\":4533:4534  5 */\n      0x05\n        /* \"contracts/groupcreaiton.sol\":4522:4527  sizes */\n      dup2\n        /* \"contracts/groupcreaiton.sol\":4528:4529  0 */\n      0x00\n        /* \"contracts/groupcreaiton.sol\":4522:4530  sizes[0] */\n      dup2\n      mload\n      dup2\n      lt\n      tag_341\n      jumpi\n      tag_342\n      tag_39\n      jump\t// in\n    tag_342:\n    tag_341:\n      0x20\n      mul\n      0x20\n      add\n      add\n        /* \"contracts/groupcreaiton.sol\":4522:4534  sizes[0] = 5 */\n      swap1\n      0xff\n      and\n      swap1\n      dup2\n      0xff\n      and\n      dup2\n      mstore\n      pop\n      pop\n        /* \"contracts/groupcreaiton.sol\":4547:4548  5 */\n      0x05\n        /* \"contracts/groupcreaiton.sol\":4536:4541  sizes */\n      dup2\n        /* \"contracts/groupcreaiton.sol\":4542:4543  1 */\n      0x01\n        /* \"contracts/groupcreaiton.sol\":4536:4544  sizes[1] */\n      dup2\n      mload\n      dup2\n      lt\n      tag_343\n      jumpi\n      tag_344\n      tag_39\n      jump\t// in\n    tag_344:\n    tag_343:\n      0x20\n      mul\n      0x20\n      add\n      add\n        /* \"contracts/groupcreaiton.sol\":4536:4548  sizes[1] = 5 */\n      swap1\n      0xff\n      and\n      swap1\n      dup2\n      0xff\n      and\n      dup2\n      mstore\n      pop\n      pop\n        /* \"contracts/groupcreaiton.sol\":4561:4562  5 */\n      0x05\n        /* \"contracts/groupcreaiton.sol\":4550:4555  sizes */\n      dup2\n        /* \"contracts/groupcreaiton.sol\":4556:4557  2 */\n      0x02\n        /* \"contracts/groupcreaiton.sol\":4550:4558  sizes[2] */\n      dup2\n      mload\n      dup2\n      lt\n      tag_345\n      jumpi\n      tag_346\n      tag_39\n      jump\t// in\n    tag_346:\n    tag_345:\n      0x20\n      mul\n      0x20\n      add\n      add\n        /* \"contracts/groupcreaiton.sol\":4550:4562  sizes[2] = 5 */\n      swap1\n      0xff\n      and\n      swap1\n      dup2\n      0xff\n      and\n      dup2\n      mstore\n      pop\n      pop\n        /* \"contracts/groupcreaiton.sol\":4575:4576  4 */\n      0x04\n        /* \"contracts/groupcreaiton.sol\":4564:4569  sizes */\n      dup2\n        /* \"contracts/groupcreaiton.sol\":4570:4571  3 */\n      0x03\n        /* \"contracts/groupcreaiton.sol\":4564:4572  sizes[3] */\n      dup2\n      mload\n      dup2\n      lt\n      tag_347\n      jumpi\n      tag_348\n      tag_39\n      jump\t// in\n    tag_348:\n    tag_347:\n      0x20\n      mul\n      0x20\n      add\n      add\n        /* \"contracts/groupcreaiton.sol\":4564:4576  sizes[3] = 4 */\n      swap1\n      0xff\n      and\n      swap1\n      dup2\n      0xff\n      and\n      dup2\n      mstore\n      pop\n      pop\n        /* \"contracts/groupcreaiton.sol\":4493:4679  if (numParticipants == 19) { sizes[0] = 5; sizes[1] = 5; sizes[2] = 5; sizes[3] = 4; }... */\n      jump(tag_349)\n    tag_340:\n        /* \"contracts/groupcreaiton.sol\":4616:4618  20 */\n      0x14\n        /* \"contracts/groupcreaiton.sol\":4597:4612  numParticipants */\n      dup4\n        /* \"contracts/groupcreaiton.sol\":4597:4618  numParticipants == 20 */\n      sub\n        /* \"contracts/groupcreaiton.sol\":4593:4679  if (numParticipants == 20) { sizes[0] = 5; sizes[1] = 5; sizes[2] = 5; sizes[3] = 5; } */\n      tag_350\n      jumpi\n        /* \"contracts/groupcreaiton.sol\":4633:4634  5 */\n      0x05\n        /* \"contracts/groupcreaiton.sol\":4622:4627  sizes */\n      dup2\n        /* \"contracts/groupcreaiton.sol\":4628:4629  0 */\n      0x00\n        /* \"contracts/groupcreaiton.sol\":4622:4630  sizes[0] */\n      dup2\n      mload\n      dup2\n      lt\n      tag_351\n      jumpi\n      tag_352\n      tag_39\n      jump\t// in\n    tag_352:\n    tag_351:\n      0x20\n      mul\n      0x20\n      add\n      add\n        /* \"contracts/groupcreaiton.sol\":4622:4634  sizes[0] = 5 */\n      swap1\n      0xff\n      and\n      swap1\n      dup2\n      0xff\n      and\n      dup2\n      mstore\n      pop\n      pop\n        /* \"contracts/groupcreaiton.sol\":4647:4648  5 */\n      0x05\n        /* \"contracts/groupcreaiton.sol\":4636:4641  sizes */\n      dup2\n        /* \"contracts/groupcreaiton.sol\":4642:4643  1 */\n      0x01\n        /* \"contracts/groupcreaiton.sol\":4636:4644  sizes[1] */\n      dup2\n      mload\n      dup2\n      lt\n      tag_353\n      jumpi\n      tag_354\n      tag_39\n      jump\t// in\n    tag_354:\n    tag_353:\n      0x20\n      mul\n      0x20\n      add\n      add\n        /* \"contracts/groupcreaiton.sol\":4636:4648  sizes[1] = 5 */\n      swap1\n      0xff\n      and\n      swap1\n      dup2\n      0xff\n      and\n      dup2\n      mstore\n      pop\n      pop\n        /* \"contracts/groupcreaiton.sol\":4661:4662  5 */\n      0x05\n        /* \"contracts/groupcreaiton.sol\":4650:4655  sizes */\n      dup2\n        /* \"contracts/groupcreaiton.sol\":4656:4657  2 */\n      0x02\n        /* \"contracts/groupcreaiton.sol\":4650:4658  sizes[2] */\n      dup2\n      mload\n      dup2\n      lt\n      tag_355\n      jumpi\n      tag_356\n      tag_39\n      jump\t// in\n    tag_356:\n    tag_355:\n      0x20\n      mul\n      0x20\n      add\n      add\n        /* \"contracts/groupcreaiton.sol\":4650:4662  sizes[2] = 5 */\n      swap1\n      0xff\n      and\n      swap1\n      dup2\n      0xff\n      and\n      dup2\n      mstore\n      pop\n      pop\n        /* \"contracts/groupcreaiton.sol\":4675:4676  5 */\n      0x05\n        /* \"contracts/groupcreaiton.sol\":4664:4669  sizes */\n      dup2\n        /* \"contracts/groupcreaiton.sol\":4670:4671  3 */\n      0x03\n        /* \"contracts/groupcreaiton.sol\":4664:4672  sizes[3] */\n      dup2\n      mload\n      dup2\n      lt\n      tag_357\n      jumpi\n      tag_358\n      tag_39\n      jump\t// in\n    tag_358:\n    tag_357:\n      0x20\n      mul\n      0x20\n      add\n      add\n        /* \"contracts/groupcreaiton.sol\":4664:4676  sizes[3] = 5 */\n      swap1\n      0xff\n      and\n      swap1\n      dup2\n      0xff\n      and\n      dup2\n      mstore\n      pop\n      pop\n        /* \"contracts/groupcreaiton.sol\":4593:4679  if (numParticipants == 20) { sizes[0] = 5; sizes[1] = 5; sizes[2] = 5; sizes[3] = 5; } */\n    tag_350:\n        /* \"contracts/groupcreaiton.sol\":4493:4679  if (numParticipants == 19) { sizes[0] = 5; sizes[1] = 5; sizes[2] = 5; sizes[3] = 4; }... */\n    tag_349:\n        /* \"contracts/groupcreaiton.sol\":4407:4679  if (numParticipants == 18) { sizes[0] = 6; sizes[1] = 6; sizes[2] = 6; }... */\n    tag_339:\n        /* \"contracts/groupcreaiton.sol\":4321:4679  if (numParticipants == 17) { sizes[0] = 6; sizes[1] = 6; sizes[2] = 5; }... */\n    tag_331:\n        /* \"contracts/groupcreaiton.sol\":4235:4679  if (numParticipants == 16) { sizes[0] = 6; sizes[1] = 5; sizes[2] = 5; }... */\n    tag_323:\n        /* \"contracts/groupcreaiton.sol\":4149:4679  if (numParticipants == 15) { sizes[0] = 5; sizes[1] = 5; sizes[2] = 5; }... */\n    tag_315:\n        /* \"contracts/groupcreaiton.sol\":4063:4679  if (numParticipants == 14) { sizes[0] = 5; sizes[1] = 5; sizes[2] = 4; }... */\n    tag_307:\n        /* \"contracts/groupcreaiton.sol\":3977:4679  if (numParticipants == 13) { sizes[0] = 5; sizes[1] = 4; sizes[2] = 4; }... */\n    tag_299:\n        /* \"contracts/groupcreaiton.sol\":3905:4679  if (numParticipants == 12) { sizes[0] = 6; sizes[1] = 6; }... */\n    tag_291:\n        /* \"contracts/groupcreaiton.sol\":3833:4679  if (numParticipants == 11) { sizes[0] = 5; sizes[1] = 6; }... */\n    tag_285:\n        /* \"contracts/groupcreaiton.sol\":3761:4679  if (numParticipants == 10) { sizes[0] = 5; sizes[1] = 5; }... */\n    tag_279:\n        /* \"contracts/groupcreaiton.sol\":3690:4679  if (numParticipants == 9) { sizes[0] = 5; sizes[1] = 4; }... */\n    tag_273:\n        /* \"contracts/groupcreaiton.sol\":3619:4679  if (numParticipants == 8) { sizes[0] = 4; sizes[1] = 4; }... */\n    tag_267:\n        /* \"contracts/groupcreaiton.sol\":3548:4679  if (numParticipants == 7) { sizes[0] = 3; sizes[1] = 4; }... */\n    tag_261:\n        /* \"contracts/groupcreaiton.sol\":3495:4679  if (numParticipants == 6) sizes[0] = 6;... */\n    tag_255:\n        /* \"contracts/groupcreaiton.sol\":3442:4679  if (numParticipants == 5) sizes[0] = 5;... */\n    tag_251:\n        /* \"contracts/groupcreaiton.sol\":3389:4679  if (numParticipants == 4) sizes[0] = 4;... */\n    tag_247:\n        /* \"contracts/groupcreaiton.sol\":3336:4679  if (numParticipants == 3) sizes[0] = 3;... */\n    tag_243:\n        /* \"contracts/groupcreaiton.sol\":3283:4679  if (numParticipants == 2) sizes[0] = 2;... */\n    tag_239:\n        /* \"contracts/groupcreaiton.sol\":3230:4679  if (numParticipants == 1) sizes[0] = 1;... */\n    tag_235:\n        /* \"contracts/groupcreaiton.sol\":4696:4701  sizes */\n      dup1\n        /* \"contracts/groupcreaiton.sol\":4689:4701  return sizes */\n      swap2\n      pop\n      pop\n        /* \"contracts/groupcreaiton.sol\":1831:4708  function hardcodedRoomSizes(uint256 numParticipants) internal pure returns (uint8[] memory) {... */\n      swap2\n      swap1\n      pop\n      jump\t// out\n        /* \"contracts/groupcreaiton.sol\":4714:5506  function genericRoomSizes(uint256 numParticipants) internal pure returns (uint8[] memory) {... */\n    tag_131:\n        /* \"contracts/groupcreaiton.sol\":4788:4802  uint8[] memory */\n      0x60\n        /* \"contracts/groupcreaiton.sol\":4814:4834  uint8[] memory sizes */\n      0x00\n        /* \"contracts/groupcreaiton.sol\":4873:4874  6 */\n      0x06\n        /* \"contracts/groupcreaiton.sol\":4868:4869  5 */\n      0x05\n        /* \"contracts/groupcreaiton.sol\":4850:4865  numParticipants */\n      dup5\n        /* \"contracts/groupcreaiton.sol\":4850:4869  numParticipants + 5 */\n      tag_360\n      swap2\n      swap1\n      tag_110\n      jump\t// in\n    tag_360:\n        /* \"contracts/groupcreaiton.sol\":4849:4874  (numParticipants + 5) / 6 */\n      tag_361\n      swap2\n      swap1\n      tag_362\n      jump\t// in\n    tag_361:\n        /* \"contracts/groupcreaiton.sol\":4837:4875  new uint8[]((numParticipants + 5) / 6) */\n      0xffffffffffffffff\n      dup2\n      gt\n      iszero\n      tag_363\n      jumpi\n      tag_364\n      tag_60\n      jump\t// in\n    tag_364:\n    tag_363:\n      mload(0x40)\n      swap1\n      dup1\n      dup3\n      mstore\n      dup1\n      0x20\n      mul\n      0x20\n      add\n      dup3\n      add\n      0x40\n      mstore\n      dup1\n      iszero\n      tag_365\n      jumpi\n      dup2\n      0x20\n      add\n      0x20\n      dup3\n      mul\n      dup1\n      calldatasize\n      dup4\n      calldatacopy\n      dup1\n      dup3\n      add\n      swap2\n      pop\n      pop\n      swap1\n      pop\n    tag_365:\n      pop\n        /* \"contracts/groupcreaiton.sol\":4814:4875  uint8[] memory sizes = new uint8[]((numParticipants + 5) / 6) */\n      swap1\n      pop\n        /* \"contracts/groupcreaiton.sol\":4908:4925  uint256 roomCount */\n      0x00\n        /* \"contracts/groupcreaiton.sol\":4939:4957  uint8 countOfFives */\n      dup1\n        /* \"contracts/groupcreaiton.sol\":4972:5355  while (numParticipants > 0) {... */\n    tag_366:\n        /* \"contracts/groupcreaiton.sol\":4997:4998  0 */\n      0x00\n        /* \"contracts/groupcreaiton.sol\":4979:4994  numParticipants */\n      dup6\n        /* \"contracts/groupcreaiton.sol\":4979:4998  numParticipants > 0 */\n      gt\n        /* \"contracts/groupcreaiton.sol\":4972:5355  while (numParticipants > 0) {... */\n      iszero\n      tag_367\n      jumpi\n        /* \"contracts/groupcreaiton.sol\":5041:5042  0 */\n      0x00\n        /* \"contracts/groupcreaiton.sol\":5036:5037  6 */\n      0x06\n        /* \"contracts/groupcreaiton.sol\":5018:5033  numParticipants */\n      dup7\n        /* \"contracts/groupcreaiton.sol\":5018:5037  numParticipants % 6 */\n      tag_368\n      swap2\n      swap1\n      tag_114\n      jump\t// in\n    tag_368:\n        /* \"contracts/groupcreaiton.sol\":5018:5042  numParticipants % 6 != 0 */\n      eq\n      iszero\n        /* \"contracts/groupcreaiton.sol\":5018:5062  numParticipants % 6 != 0 && countOfFives < 5 */\n      dup1\n      iszero\n      tag_369\n      jumpi\n      pop\n        /* \"contracts/groupcreaiton.sol\":5061:5062  5 */\n      0x05\n        /* \"contracts/groupcreaiton.sol\":5046:5058  countOfFives */\n      dup2\n        /* \"contracts/groupcreaiton.sol\":5046:5062  countOfFives < 5 */\n      0xff\n      and\n      lt\n        /* \"contracts/groupcreaiton.sol\":5018:5062  numParticipants % 6 != 0 && countOfFives < 5 */\n    tag_369:\n        /* \"contracts/groupcreaiton.sol\":5014:5345  if (numParticipants % 6 != 0 && countOfFives < 5) {... */\n      iszero\n      tag_370\n      jumpi\n        /* \"contracts/groupcreaiton.sol\":5103:5104  5 */\n      0x05\n        /* \"contracts/groupcreaiton.sol\":5082:5087  sizes */\n      dup4\n        /* \"contracts/groupcreaiton.sol\":5088:5099  roomCount++ */\n      dup4\n      dup1\n      tag_371\n      swap1\n      tag_73\n      jump\t// in\n    tag_371:\n      swap5\n      pop\n        /* \"contracts/groupcreaiton.sol\":5082:5100  sizes[roomCount++] */\n      dup2\n      mload\n      dup2\n      lt\n      tag_372\n      jumpi\n      tag_373\n      tag_39\n      jump\t// in\n    tag_373:\n    tag_372:\n      0x20\n      mul\n      0x20\n      add\n      add\n        /* \"contracts/groupcreaiton.sol\":5082:5104  sizes[roomCount++] = 5 */\n      swap1\n      0xff\n      and\n      swap1\n      dup2\n      0xff\n      and\n      dup2\n      mstore\n      pop\n      pop\n        /* \"contracts/groupcreaiton.sol\":5141:5142  5 */\n      0x05\n        /* \"contracts/groupcreaiton.sol\":5122:5142  numParticipants -= 5 */\n      dup6\n      tag_374\n      swap2\n      swap1\n      tag_79\n      jump\t// in\n    tag_374:\n      swap5\n      pop\n        /* \"contracts/groupcreaiton.sol\":5160:5174  countOfFives++ */\n      dup1\n      dup1\n      tag_375\n      swap1\n      tag_376\n      jump\t// in\n    tag_375:\n      swap2\n      pop\n      pop\n        /* \"contracts/groupcreaiton.sol\":5014:5345  if (numParticipants % 6 != 0 && countOfFives < 5) {... */\n      jump(tag_377)\n    tag_370:\n        /* \"contracts/groupcreaiton.sol\":5234:5235  6 */\n      0x06\n        /* \"contracts/groupcreaiton.sol\":5213:5218  sizes */\n      dup4\n        /* \"contracts/groupcreaiton.sol\":5219:5230  roomCount++ */\n      dup4\n      dup1\n      tag_378\n      swap1\n      tag_73\n      jump\t// in\n    tag_378:\n      swap5\n      pop\n        /* \"contracts/groupcreaiton.sol\":5213:5231  sizes[roomCount++] */\n      dup2\n      mload\n      dup2\n      lt\n      tag_379\n      jumpi\n      tag_380\n      tag_39\n      jump\t// in\n    tag_380:\n    tag_379:\n      0x20\n      mul\n      0x20\n      add\n      add\n        /* \"contracts/groupcreaiton.sol\":5213:5235  sizes[roomCount++] = 6 */\n      swap1\n      0xff\n      and\n      swap1\n      dup2\n      0xff\n      and\n      dup2\n      mstore\n      pop\n      pop\n        /* \"contracts/groupcreaiton.sol\":5272:5273  6 */\n      0x06\n        /* \"contracts/groupcreaiton.sol\":5253:5273  numParticipants -= 6 */\n      dup6\n      tag_381\n      swap2\n      swap1\n      tag_79\n      jump\t// in\n    tag_381:\n      swap5\n      pop\n        /* \"contracts/groupcreaiton.sol\":5311:5312  5 */\n      0x05\n        /* \"contracts/groupcreaiton.sol\":5295:5307  countOfFives */\n      dup2\n        /* \"contracts/groupcreaiton.sol\":5295:5312  countOfFives == 5 */\n      0xff\n      and\n      sub\n        /* \"contracts/groupcreaiton.sol\":5291:5330  if (countOfFives == 5) countOfFives = 0 */\n      tag_382\n      jumpi\n        /* \"contracts/groupcreaiton.sol\":5329:5330  0 */\n      0x00\n        /* \"contracts/groupcreaiton.sol\":5314:5330  countOfFives = 0 */\n      swap1\n      pop\n        /* \"contracts/groupcreaiton.sol\":5291:5330  if (countOfFives == 5) countOfFives = 0 */\n    tag_382:\n        /* \"contracts/groupcreaiton.sol\":5014:5345  if (numParticipants % 6 != 0 && countOfFives < 5) {... */\n    tag_377:\n        /* \"contracts/groupcreaiton.sol\":4972:5355  while (numParticipants > 0) {... */\n      jump(tag_366)\n    tag_367:\n        /* \"contracts/groupcreaiton.sol\":5458:5467  roomCount */\n      dup2\n        /* \"contracts/groupcreaiton.sol\":5451:5456  sizes */\n      dup4\n        /* \"contracts/groupcreaiton.sol\":5444:5468  mstore(sizes, roomCount) */\n      mstore\n        /* \"contracts/groupcreaiton.sol\":5494:5499  sizes */\n      dup3\n        /* \"contracts/groupcreaiton.sol\":5487:5499  return sizes */\n      swap4\n      pop\n      pop\n      pop\n      pop\n        /* \"contracts/groupcreaiton.sol\":4714:5506  function genericRoomSizes(uint256 numParticipants) internal pure returns (uint8[] memory) {... */\n      swap2\n      swap1\n      pop\n      jump\t// out\n    tag_48:\n      pop\n      dup1\n      sload\n      0x00\n      dup3\n      sstore\n      swap1\n      0x00\n      mstore\n      keccak256(0x00, 0x20)\n      swap1\n      dup2\n      add\n      swap1\n      tag_384\n      swap2\n      swap1\n      tag_385\n      jump\t// in\n    tag_384:\n      pop\n      jump\t// out\n    tag_77:\n      dup3\n      dup1\n      sload\n      dup3\n      dup3\n      sstore\n      swap1\n      0x00\n      mstore\n      keccak256(0x00, 0x20)\n      swap1\n      dup2\n      add\n      swap3\n      dup3\n      iszero\n      tag_386\n      jumpi\n      swap2\n      0x20\n      mul\n      dup3\n      add\n    tag_387:\n      dup3\n      dup2\n      gt\n      iszero\n      tag_388\n      jumpi\n      dup3\n      mload\n      dup3\n      exp(0x0100, 0x00)\n      dup2\n      sload\n      dup2\n      0xffffffffffffffffffffffffffffffffffffffff\n      mul\n      not\n      and\n      swap1\n      dup4\n      0xffffffffffffffffffffffffffffffffffffffff\n      and\n      mul\n      or\n      swap1\n      sstore\n      pop\n      swap2\n      0x20\n      add\n      swap2\n      swap1\n      0x01\n      add\n      swap1\n      jump(tag_387)\n    tag_388:\n    tag_386:\n      pop\n      swap1\n      pop\n      tag_389\n      swap2\n      swap1\n      tag_390\n      jump\t// in\n    tag_389:\n      pop\n      swap1\n      jump\t// out\n    tag_385:\n    tag_391:\n      dup1\n      dup3\n      gt\n      iszero\n      tag_392\n      jumpi\n      0x00\n      dup1\n      dup3\n      add\n      0x00\n      tag_393\n      swap2\n      swap1\n      tag_394\n      jump\t// in\n    tag_393:\n      pop\n      0x01\n      add\n      jump(tag_391)\n    tag_392:\n      pop\n      swap1\n      jump\t// out\n    tag_390:\n    tag_395:\n      dup1\n      dup3\n      gt\n      iszero\n      tag_396\n      jumpi\n      0x00\n      dup2\n      0x00\n      swap1\n      sstore\n      pop\n      0x01\n      add\n      jump(tag_395)\n    tag_396:\n      pop\n      swap1\n      jump\t// out\n    tag_394:\n      pop\n      dup1\n      sload\n      0x00\n      dup3\n      sstore\n      swap1\n      0x00\n      mstore\n      keccak256(0x00, 0x20)\n      swap1\n      dup2\n      add\n      swap1\n      tag_398\n      swap2\n      swap1\n      tag_390\n      jump\t// in\n    tag_398:\n      pop\n      jump\t// out\n        /* \"#utility.yul\":7:84   */\n    tag_399:\n        /* \"#utility.yul\":44:51   */\n      0x00\n        /* \"#utility.yul\":73:78   */\n      dup2\n        /* \"#utility.yul\":62:78   */\n      swap1\n      pop\n        /* \"#utility.yul\":7:84   */\n      swap2\n      swap1\n      pop\n      jump\t// out\n        /* \"#utility.yul\":90:208   */\n    tag_400:\n        /* \"#utility.yul\":177:201   */\n      tag_441\n        /* \"#utility.yul\":195:200   */\n      dup2\n        /* \"#utility.yul\":177:201   */\n      tag_399\n      jump\t// in\n    tag_441:\n        /* \"#utility.yul\":172:175   */\n      dup3\n        /* \"#utility.yul\":165:202   */\n      mstore\n        /* \"#utility.yul\":90:208   */\n      pop\n      pop\n      jump\t// out\n        /* \"#utility.yul\":214:436   */\n    tag_11:\n        /* \"#utility.yul\":307:311   */\n      0x00\n        /* \"#utility.yul\":345:347   */\n      0x20\n        /* \"#utility.yul\":334:343   */\n      dup3\n        /* \"#utility.yul\":330:348   */\n      add\n        /* \"#utility.yul\":322:348   */\n      swap1\n      pop\n        /* \"#utility.yul\":358:429   */\n      tag_443\n        /* \"#utility.yul\":426:427   */\n      0x00\n        /* \"#utility.yul\":415:424   */\n      dup4\n        /* \"#utility.yul\":411:428   */\n      add\n        /* \"#utility.yul\":402:408   */\n      dup5\n        /* \"#utility.yul\":358:429   */\n      tag_400\n      jump\t// in\n    tag_443:\n        /* \"#utility.yul\":214:436   */\n      swap3\n      swap2\n      pop\n      pop\n      jump\t// out\n        /* \"#utility.yul\":442:517   */\n    tag_401:\n        /* \"#utility.yul\":475:481   */\n      0x00\n        /* \"#utility.yul\":508:510   */\n      0x40\n        /* \"#utility.yul\":502:511   */\n      mload\n        /* \"#utility.yul\":492:511   */\n      swap1\n      pop\n        /* \"#utility.yul\":442:517   */\n      swap1\n      jump\t// out\n        /* \"#utility.yul\":523:640   */\n    tag_402:\n        /* \"#utility.yul\":632:633   */\n      0x00\n        /* \"#utility.yul\":629:630   */\n      dup1\n        /* \"#utility.yul\":622:634   */\n      revert\n        /* \"#utility.yul\":646:763   */\n    tag_403:\n        /* \"#utility.yul\":755:756   */\n      0x00\n        /* \"#utility.yul\":752:753   */\n      dup1\n        /* \"#utility.yul\":745:757   */\n      revert\n        /* \"#utility.yul\":769:891   */\n    tag_404:\n        /* \"#utility.yul\":842:866   */\n      tag_448\n        /* \"#utility.yul\":860:865   */\n      dup2\n        /* \"#utility.yul\":842:866   */\n      tag_399\n      jump\t// in\n    tag_448:\n        /* \"#utility.yul\":835:840   */\n      dup2\n        /* \"#utility.yul\":832:867   */\n      eq\n        /* \"#utility.yul\":822:885   */\n      tag_449\n      jumpi\n        /* \"#utility.yul\":881:882   */\n      0x00\n        /* \"#utility.yul\":878:879   */\n      dup1\n        /* \"#utility.yul\":871:883   */\n      revert\n        /* \"#utility.yul\":822:885   */\n    tag_449:\n        /* \"#utility.yul\":769:891   */\n      pop\n      jump\t// out\n        /* \"#utility.yul\":897:1036   */\n    tag_405:\n        /* \"#utility.yul\":943:948   */\n      0x00\n        /* \"#utility.yul\":981:987   */\n      dup2\n        /* \"#utility.yul\":968:988   */\n      calldataload\n        /* \"#utility.yul\":959:988   */\n      swap1\n      pop\n        /* \"#utility.yul\":997:1030   */\n      tag_451\n        /* \"#utility.yul\":1024:1029   */\n      dup2\n        /* \"#utility.yul\":997:1030   */\n      tag_404\n      jump\t// in\n    tag_451:\n        /* \"#utility.yul\":897:1036   */\n      swap3\n      swap2\n      pop\n      pop\n      jump\t// out\n        /* \"#utility.yul\":1042:1371   */\n    tag_14:\n        /* \"#utility.yul\":1101:1107   */\n      0x00\n        /* \"#utility.yul\":1150:1152   */\n      0x20\n        /* \"#utility.yul\":1138:1147   */\n      dup3\n        /* \"#utility.yul\":1129:1136   */\n      dup5\n        /* \"#utility.yul\":1125:1148   */\n      sub\n        /* \"#utility.yul\":1121:1153   */\n      slt\n        /* \"#utility.yul\":1118:1237   */\n      iszero\n      tag_453\n      jumpi\n        /* \"#utility.yul\":1156:1235   */\n      tag_454\n      tag_402\n      jump\t// in\n    tag_454:\n        /* \"#utility.yul\":1118:1237   */\n    tag_453:\n        /* \"#utility.yul\":1276:1277   */\n      0x00\n        /* \"#utility.yul\":1301:1354   */\n      tag_455\n        /* \"#utility.yul\":1346:1353   */\n      dup5\n        /* \"#utility.yul\":1337:1343   */\n      dup3\n        /* \"#utility.yul\":1326:1335   */\n      dup6\n        /* \"#utility.yul\":1322:1344   */\n      add\n        /* \"#utility.yul\":1301:1354   */\n      tag_405\n      jump\t// in\n    tag_455:\n        /* \"#utility.yul\":1291:1354   */\n      swap2\n      pop\n        /* \"#utility.yul\":1247:1364   */\n      pop\n        /* \"#utility.yul\":1042:1371   */\n      swap3\n      swap2\n      pop\n      pop\n      jump\t// out\n        /* \"#utility.yul\":1377:1491   */\n    tag_406:\n        /* \"#utility.yul\":1444:1450   */\n      0x00\n        /* \"#utility.yul\":1478:1483   */\n      dup2\n        /* \"#utility.yul\":1472:1484   */\n      mload\n        /* \"#utility.yul\":1462:1484   */\n      swap1\n      pop\n        /* \"#utility.yul\":1377:1491   */\n      swap2\n      swap1\n      pop\n      jump\t// out\n        /* \"#utility.yul\":1497:1681   */\n    tag_407:\n        /* \"#utility.yul\":1596:1607   */\n      0x00\n        /* \"#utility.yul\":1630:1636   */\n      dup3\n        /* \"#utility.yul\":1625:1628   */\n      dup3\n        /* \"#utility.yul\":1618:1637   */\n      mstore\n        /* \"#utility.yul\":1670:1674   */\n      0x20\n        /* \"#utility.yul\":1665:1668   */\n      dup3\n        /* \"#utility.yul\":1661:1675   */\n      add\n        /* \"#utility.yul\":1646:1675   */\n      swap1\n      pop\n        /* \"#utility.yul\":1497:1681   */\n      swap3\n      swap2\n      pop\n      pop\n      jump\t// out\n        /* \"#utility.yul\":1687:1819   */\n    tag_408:\n        /* \"#utility.yul\":1754:1758   */\n      0x00\n        /* \"#utility.yul\":1777:1780   */\n      dup2\n        /* \"#utility.yul\":1769:1780   */\n      swap1\n      pop\n        /* \"#utility.yul\":1807:1811   */\n      0x20\n        /* \"#utility.yul\":1802:1805   */\n      dup3\n        /* \"#utility.yul\":1798:1812   */\n      add\n        /* \"#utility.yul\":1790:1812   */\n      swap1\n      pop\n        /* \"#utility.yul\":1687:1819   */\n      swap2\n      swap1\n      pop\n      jump\t// out\n        /* \"#utility.yul\":1825:1951   */\n    tag_409:\n        /* \"#utility.yul\":1862:1869   */\n      0x00\n        /* \"#utility.yul\":1902:1944   */\n      0xffffffffffffffffffffffffffffffffffffffff\n        /* \"#utility.yul\":1895:1900   */\n      dup3\n        /* \"#utility.yul\":1891:1945   */\n      and\n        /* \"#utility.yul\":1880:1945   */\n      swap1\n      pop\n        /* \"#utility.yul\":1825:1951   */\n      swap2\n      swap1\n      pop\n      jump\t// out\n        /* \"#utility.yul\":1957:2053   */\n    tag_410:\n        /* \"#utility.yul\":1994:2001   */\n      0x00\n        /* \"#utility.yul\":2023:2047   */\n      tag_461\n        /* \"#utility.yul\":2041:2046   */\n      dup3\n        /* \"#utility.yul\":2023:2047   */\n      tag_409\n      jump\t// in\n    tag_461:\n        /* \"#utility.yul\":2012:2047   */\n      swap1\n      pop\n        /* \"#utility.yul\":1957:2053   */\n      swap2\n      swap1\n      pop\n      jump\t// out\n        /* \"#utility.yul\":2059:2167   */\n    tag_411:\n        /* \"#utility.yul\":2136:2160   */\n      tag_463\n        /* \"#utility.yul\":2154:2159   */\n      dup2\n        /* \"#utility.yul\":2136:2160   */\n      tag_410\n      jump\t// in\n    tag_463:\n        /* \"#utility.yul\":2131:2134   */\n      dup3\n        /* \"#utility.yul\":2124:2161   */\n      mstore\n        /* \"#utility.yul\":2059:2167   */\n      pop\n      pop\n      jump\t// out\n        /* \"#utility.yul\":2173:2352   */\n    tag_412:\n        /* \"#utility.yul\":2242:2252   */\n      0x00\n        /* \"#utility.yul\":2263:2309   */\n      tag_465\n        /* \"#utility.yul\":2305:2308   */\n      dup4\n        /* \"#utility.yul\":2297:2303   */\n      dup4\n        /* \"#utility.yul\":2263:2309   */\n      tag_411\n      jump\t// in\n    tag_465:\n        /* \"#utility.yul\":2341:2345   */\n      0x20\n        /* \"#utility.yul\":2336:2339   */\n      dup4\n        /* \"#utility.yul\":2332:2346   */\n      add\n        /* \"#utility.yul\":2318:2346   */\n      swap1\n      pop\n        /* \"#utility.yul\":2173:2352   */\n      swap3\n      swap2\n      pop\n      pop\n      jump\t// out\n        /* \"#utility.yul\":2358:2471   */\n    tag_413:\n        /* \"#utility.yul\":2428:2432   */\n      0x00\n        /* \"#utility.yul\":2460:2464   */\n      0x20\n        /* \"#utility.yul\":2455:2458   */\n      dup3\n        /* \"#utility.yul\":2451:2465   */\n      add\n        /* \"#utility.yul\":2443:2465   */\n      swap1\n      pop\n        /* \"#utility.yul\":2358:2471   */\n      swap2\n      swap1\n      pop\n      jump\t// out\n        /* \"#utility.yul\":2507:3239   */\n    tag_414:\n        /* \"#utility.yul\":2626:2629   */\n      0x00\n        /* \"#utility.yul\":2655:2709   */\n      tag_468\n        /* \"#utility.yul\":2703:2708   */\n      dup3\n        /* \"#utility.yul\":2655:2709   */\n      tag_406\n      jump\t// in\n    tag_468:\n        /* \"#utility.yul\":2725:2811   */\n      tag_469\n        /* \"#utility.yul\":2804:2810   */\n      dup2\n        /* \"#utility.yul\":2799:2802   */\n      dup6\n        /* \"#utility.yul\":2725:2811   */\n      tag_407\n      jump\t// in\n    tag_469:\n        /* \"#utility.yul\":2718:2811   */\n      swap4\n      pop\n        /* \"#utility.yul\":2835:2891   */\n      tag_470\n        /* \"#utility.yul\":2885:2890   */\n      dup4\n        /* \"#utility.yul\":2835:2891   */\n      tag_408\n      jump\t// in\n    tag_470:\n        /* \"#utility.yul\":2914:2921   */\n      dup1\n        /* \"#utility.yul\":2945:2946   */\n      0x00\n        /* \"#utility.yul\":2930:3214   */\n    tag_471:\n        /* \"#utility.yul\":2955:2961   */\n      dup4\n        /* \"#utility.yul\":2952:2953   */\n      dup2\n        /* \"#utility.yul\":2949:2962   */\n      lt\n        /* \"#utility.yul\":2930:3214   */\n      iszero\n      tag_473\n      jumpi\n        /* \"#utility.yul\":3031:3037   */\n      dup2\n        /* \"#utility.yul\":3025:3038   */\n      mload\n        /* \"#utility.yul\":3058:3121   */\n      tag_474\n        /* \"#utility.yul\":3117:3120   */\n      dup9\n        /* \"#utility.yul\":3102:3115   */\n      dup3\n        /* \"#utility.yul\":3058:3121   */\n      tag_412\n      jump\t// in\n    tag_474:\n        /* \"#utility.yul\":3051:3121   */\n      swap8\n      pop\n        /* \"#utility.yul\":3144:3204   */\n      tag_475\n        /* \"#utility.yul\":3197:3203   */\n      dup4\n        /* \"#utility.yul\":3144:3204   */\n      tag_413\n      jump\t// in\n    tag_475:\n        /* \"#utility.yul\":3134:3204   */\n      swap3\n      pop\n        /* \"#utility.yul\":2990:3214   */\n      pop\n        /* \"#utility.yul\":2977:2978   */\n      0x01\n        /* \"#utility.yul\":2974:2975   */\n      dup2\n        /* \"#utility.yul\":2970:2979   */\n      add\n        /* \"#utility.yul\":2965:2979   */\n      swap1\n      pop\n        /* \"#utility.yul\":2930:3214   */\n      jump(tag_471)\n    tag_473:\n        /* \"#utility.yul\":2934:2948   */\n      pop\n        /* \"#utility.yul\":3230:3233   */\n      dup6\n        /* \"#utility.yul\":3223:3233   */\n      swap4\n      pop\n        /* \"#utility.yul\":2631:3239   */\n      pop\n      pop\n      pop\n        /* \"#utility.yul\":2507:3239   */\n      swap3\n      swap2\n      pop\n      pop\n      jump\t// out\n        /* \"#utility.yul\":3245:3618   */\n    tag_17:\n        /* \"#utility.yul\":3388:3392   */\n      0x00\n        /* \"#utility.yul\":3426:3428   */\n      0x20\n        /* \"#utility.yul\":3415:3424   */\n      dup3\n        /* \"#utility.yul\":3411:3429   */\n      add\n        /* \"#utility.yul\":3403:3429   */\n      swap1\n      pop\n        /* \"#utility.yul\":3475:3484   */\n      dup2\n        /* \"#utility.yul\":3469:3473   */\n      dup2\n        /* \"#utility.yul\":3465:3485   */\n      sub\n        /* \"#utility.yul\":3461:3462   */\n      0x00\n        /* \"#utility.yul\":3450:3459   */\n      dup4\n        /* \"#utility.yul\":3446:3463   */\n      add\n        /* \"#utility.yul\":3439:3486   */\n      mstore\n        /* \"#utility.yul\":3503:3611   */\n      tag_477\n        /* \"#utility.yul\":3606:3610   */\n      dup2\n        /* \"#utility.yul\":3597:3603   */\n      dup5\n        /* \"#utility.yul\":3503:3611   */\n      tag_414\n      jump\t// in\n    tag_477:\n        /* \"#utility.yul\":3495:3611   */\n      swap1\n      pop\n        /* \"#utility.yul\":3245:3618   */\n      swap3\n      swap2\n      pop\n      pop\n      jump\t// out\n        /* \"#utility.yul\":3624:3741   */\n    tag_415:\n        /* \"#utility.yul\":3733:3734   */\n      0x00\n        /* \"#utility.yul\":3730:3731   */\n      dup1\n        /* \"#utility.yul\":3723:3735   */\n      revert\n        /* \"#utility.yul\":3747:3849   */\n    tag_416:\n        /* \"#utility.yul\":3788:3794   */\n      0x00\n        /* \"#utility.yul\":3839:3841   */\n      0x1f\n        /* \"#utility.yul\":3835:3842   */\n      not\n        /* \"#utility.yul\":3830:3832   */\n      0x1f\n        /* \"#utility.yul\":3823:3828   */\n      dup4\n        /* \"#utility.yul\":3819:3833   */\n      add\n        /* \"#utility.yul\":3815:3843   */\n      and\n        /* \"#utility.yul\":3805:3843   */\n      swap1\n      pop\n        /* \"#utility.yul\":3747:3849   */\n      swap2\n      swap1\n      pop\n      jump\t// out\n        /* \"#utility.yul\":3855:4035   */\n    tag_60:\n        /* \"#utility.yul\":3903:3980   */\n      0x4e487b7100000000000000000000000000000000000000000000000000000000\n        /* \"#utility.yul\":3900:3901   */\n      0x00\n        /* \"#utility.yul\":3893:3981   */\n      mstore\n        /* \"#utility.yul\":4000:4004   */\n      0x41\n        /* \"#utility.yul\":3997:3998   */\n      0x04\n        /* \"#utility.yul\":3990:4005   */\n      mstore\n        /* \"#utility.yul\":4024:4028   */\n      0x24\n        /* \"#utility.yul\":4021:4022   */\n      0x00\n        /* \"#utility.yul\":4014:4029   */\n      revert\n        /* \"#utility.yul\":4041:4322   */\n    tag_417:\n        /* \"#utility.yul\":4124:4151   */\n      tag_482\n        /* \"#utility.yul\":4146:4150   */\n      dup3\n        /* \"#utility.yul\":4124:4151   */\n      tag_416\n      jump\t// in\n    tag_482:\n        /* \"#utility.yul\":4116:4122   */\n      dup2\n        /* \"#utility.yul\":4112:4152   */\n      add\n        /* \"#utility.yul\":4254:4260   */\n      dup2\n        /* \"#utility.yul\":4242:4252   */\n      dup2\n        /* \"#utility.yul\":4239:4261   */\n      lt\n        /* \"#utility.yul\":4218:4236   */\n      0xffffffffffffffff\n        /* \"#utility.yul\":4206:4216   */\n      dup3\n        /* \"#utility.yul\":4203:4237   */\n      gt\n        /* \"#utility.yul\":4200:4262   */\n      or\n        /* \"#utility.yul\":4197:4285   */\n      iszero\n      tag_483\n      jumpi\n        /* \"#utility.yul\":4265:4283   */\n      tag_484\n      tag_60\n      jump\t// in\n    tag_484:\n        /* \"#utility.yul\":4197:4285   */\n    tag_483:\n        /* \"#utility.yul\":4305:4315   */\n      dup1\n        /* \"#utility.yul\":4301:4303   */\n      0x40\n        /* \"#utility.yul\":4294:4316   */\n      mstore\n        /* \"#utility.yul\":4084:4322   */\n      pop\n        /* \"#utility.yul\":4041:4322   */\n      pop\n      pop\n      jump\t// out\n        /* \"#utility.yul\":4328:4457   */\n    tag_418:\n        /* \"#utility.yul\":4362:4368   */\n      0x00\n        /* \"#utility.yul\":4389:4409   */\n      tag_486\n      tag_401\n      jump\t// in\n    tag_486:\n        /* \"#utility.yul\":4379:4409   */\n      swap1\n      pop\n        /* \"#utility.yul\":4418:4451   */\n      tag_487\n        /* \"#utility.yul\":4446:4450   */\n      dup3\n        /* \"#utility.yul\":4438:4444   */\n      dup3\n        /* \"#utility.yul\":4418:4451   */\n      tag_417\n      jump\t// in\n    tag_487:\n        /* \"#utility.yul\":4328:4457   */\n      swap2\n      swap1\n      pop\n      jump\t// out\n        /* \"#utility.yul\":4463:4774   */\n    tag_419:\n        /* \"#utility.yul\":4540:4544   */\n      0x00\n        /* \"#utility.yul\":4630:4648   */\n      0xffffffffffffffff\n        /* \"#utility.yul\":4622:4628   */\n      dup3\n        /* \"#utility.yul\":4619:4649   */\n      gt\n        /* \"#utility.yul\":4616:4672   */\n      iszero\n      tag_489\n      jumpi\n        /* \"#utility.yul\":4652:4670   */\n      tag_490\n      tag_60\n      jump\t// in\n    tag_490:\n        /* \"#utility.yul\":4616:4672   */\n    tag_489:\n        /* \"#utility.yul\":4702:4706   */\n      0x20\n        /* \"#utility.yul\":4694:4700   */\n      dup3\n        /* \"#utility.yul\":4690:4707   */\n      mul\n        /* \"#utility.yul\":4682:4707   */\n      swap1\n      pop\n        /* \"#utility.yul\":4762:4766   */\n      0x20\n        /* \"#utility.yul\":4756:4760   */\n      dup2\n        /* \"#utility.yul\":4752:4767   */\n      add\n        /* \"#utility.yul\":4744:4767   */\n      swap1\n      pop\n        /* \"#utility.yul\":4463:4774   */\n      swap2\n      swap1\n      pop\n      jump\t// out\n        /* \"#utility.yul\":4780:4897   */\n    tag_420:\n        /* \"#utility.yul\":4889:4890   */\n      0x00\n        /* \"#utility.yul\":4886:4887   */\n      dup1\n        /* \"#utility.yul\":4879:4891   */\n      revert\n        /* \"#utility.yul\":4903:5025   */\n    tag_421:\n        /* \"#utility.yul\":4976:5000   */\n      tag_493\n        /* \"#utility.yul\":4994:4999   */\n      dup2\n        /* \"#utility.yul\":4976:5000   */\n      tag_410\n      jump\t// in\n    tag_493:\n        /* \"#utility.yul\":4969:4974   */\n      dup2\n        /* \"#utility.yul\":4966:5001   */\n      eq\n        /* \"#utility.yul\":4956:5019   */\n      tag_494\n      jumpi\n        /* \"#utility.yul\":5015:5016   */\n      0x00\n        /* \"#utility.yul\":5012:5013   */\n      dup1\n        /* \"#utility.yul\":5005:5017   */\n      revert\n        /* \"#utility.yul\":4956:5019   */\n    tag_494:\n        /* \"#utility.yul\":4903:5025   */\n      pop\n      jump\t// out\n        /* \"#utility.yul\":5031:5170   */\n    tag_422:\n        /* \"#utility.yul\":5077:5082   */\n      0x00\n        /* \"#utility.yul\":5115:5121   */\n      dup2\n        /* \"#utility.yul\":5102:5122   */\n      calldataload\n        /* \"#utility.yul\":5093:5122   */\n      swap1\n      pop\n        /* \"#utility.yul\":5131:5164   */\n      tag_496\n        /* \"#utility.yul\":5158:5163   */\n      dup2\n        /* \"#utility.yul\":5131:5164   */\n      tag_421\n      jump\t// in\n    tag_496:\n        /* \"#utility.yul\":5031:5170   */\n      swap3\n      swap2\n      pop\n      pop\n      jump\t// out\n        /* \"#utility.yul\":5193:5903   */\n    tag_423:\n        /* \"#utility.yul\":5289:5294   */\n      0x00\n        /* \"#utility.yul\":5314:5395   */\n      tag_498\n        /* \"#utility.yul\":5330:5394   */\n      tag_499\n        /* \"#utility.yul\":5387:5393   */\n      dup5\n        /* \"#utility.yul\":5330:5394   */\n      tag_419\n      jump\t// in\n    tag_499:\n        /* \"#utility.yul\":5314:5395   */\n      tag_418\n      jump\t// in\n    tag_498:\n        /* \"#utility.yul\":5305:5395   */\n      swap1\n      pop\n        /* \"#utility.yul\":5415:5420   */\n      dup1\n        /* \"#utility.yul\":5444:5450   */\n      dup4\n        /* \"#utility.yul\":5437:5442   */\n      dup3\n        /* \"#utility.yul\":5430:5451   */\n      mstore\n        /* \"#utility.yul\":5478:5482   */\n      0x20\n        /* \"#utility.yul\":5471:5476   */\n      dup3\n        /* \"#utility.yul\":5467:5483   */\n      add\n        /* \"#utility.yul\":5460:5483   */\n      swap1\n      pop\n        /* \"#utility.yul\":5531:5535   */\n      0x20\n        /* \"#utility.yul\":5523:5529   */\n      dup5\n        /* \"#utility.yul\":5519:5536   */\n      mul\n        /* \"#utility.yul\":5511:5517   */\n      dup4\n        /* \"#utility.yul\":5507:5537   */\n      add\n        /* \"#utility.yul\":5560:5563   */\n      dup6\n        /* \"#utility.yul\":5552:5558   */\n      dup2\n        /* \"#utility.yul\":5549:5564   */\n      gt\n        /* \"#utility.yul\":5546:5668   */\n      iszero\n      tag_500\n      jumpi\n        /* \"#utility.yul\":5579:5658   */\n      tag_501\n      tag_420\n      jump\t// in\n    tag_501:\n        /* \"#utility.yul\":5546:5668   */\n    tag_500:\n        /* \"#utility.yul\":5694:5700   */\n      dup4\n        /* \"#utility.yul\":5677:5897   */\n    tag_502:\n        /* \"#utility.yul\":5711:5717   */\n      dup2\n        /* \"#utility.yul\":5706:5709   */\n      dup2\n        /* \"#utility.yul\":5703:5718   */\n      lt\n        /* \"#utility.yul\":5677:5897   */\n      iszero\n      tag_504\n      jumpi\n        /* \"#utility.yul\":5786:5789   */\n      dup1\n        /* \"#utility.yul\":5815:5852   */\n      tag_505\n        /* \"#utility.yul\":5848:5851   */\n      dup9\n        /* \"#utility.yul\":5836:5846   */\n      dup3\n        /* \"#utility.yul\":5815:5852   */\n      tag_422\n      jump\t// in\n    tag_505:\n        /* \"#utility.yul\":5810:5813   */\n      dup5\n        /* \"#utility.yul\":5803:5853   */\n      mstore\n        /* \"#utility.yul\":5882:5886   */\n      0x20\n        /* \"#utility.yul\":5877:5880   */\n      dup5\n        /* \"#utility.yul\":5873:5887   */\n      add\n        /* \"#utility.yul\":5866:5887   */\n      swap4\n      pop\n        /* \"#utility.yul\":5753:5897   */\n      pop\n        /* \"#utility.yul\":5737:5741   */\n      0x20\n        /* \"#utility.yul\":5732:5735   */\n      dup2\n        /* \"#utility.yul\":5728:5742   */\n      add\n        /* \"#utility.yul\":5721:5742   */\n      swap1\n      pop\n        /* \"#utility.yul\":5677:5897   */\n      jump(tag_502)\n    tag_504:\n        /* \"#utility.yul\":5681:5702   */\n      pop\n        /* \"#utility.yul\":5295:5903   */\n      pop\n      pop\n        /* \"#utility.yul\":5193:5903   */\n      swap4\n      swap3\n      pop\n      pop\n      pop\n      jump\t// out\n        /* \"#utility.yul\":5926:6296   */\n    tag_424:\n        /* \"#utility.yul\":5997:6002   */\n      0x00\n        /* \"#utility.yul\":6046:6049   */\n      dup3\n        /* \"#utility.yul\":6039:6043   */\n      0x1f\n        /* \"#utility.yul\":6031:6037   */\n      dup4\n        /* \"#utility.yul\":6027:6044   */\n      add\n        /* \"#utility.yul\":6023:6050   */\n      slt\n        /* \"#utility.yul\":6013:6135   */\n      tag_507\n      jumpi\n        /* \"#utility.yul\":6054:6133   */\n      tag_508\n      tag_415\n      jump\t// in\n    tag_508:\n        /* \"#utility.yul\":6013:6135   */\n    tag_507:\n        /* \"#utility.yul\":6171:6177   */\n      dup2\n        /* \"#utility.yul\":6158:6178   */\n      calldataload\n        /* \"#utility.yul\":6196:6290   */\n      tag_509\n        /* \"#utility.yul\":6286:6289   */\n      dup5\n        /* \"#utility.yul\":6278:6284   */\n      dup3\n        /* \"#utility.yul\":6271:6275   */\n      0x20\n        /* \"#utility.yul\":6263:6269   */\n      dup7\n        /* \"#utility.yul\":6259:6276   */\n      add\n        /* \"#utility.yul\":6196:6290   */\n      tag_423\n      jump\t// in\n    tag_509:\n        /* \"#utility.yul\":6187:6290   */\n      swap2\n      pop\n        /* \"#utility.yul\":6003:6296   */\n      pop\n        /* \"#utility.yul\":5926:6296   */\n      swap3\n      swap2\n      pop\n      pop\n      jump\t// out\n        /* \"#utility.yul\":6302:6841   */\n    tag_20:\n        /* \"#utility.yul\":6386:6392   */\n      0x00\n        /* \"#utility.yul\":6435:6437   */\n      0x20\n        /* \"#utility.yul\":6423:6432   */\n      dup3\n        /* \"#utility.yul\":6414:6421   */\n      dup5\n        /* \"#utility.yul\":6410:6433   */\n      sub\n        /* \"#utility.yul\":6406:6438   */\n      slt\n        /* \"#utility.yul\":6403:6522   */\n      iszero\n      tag_511\n      jumpi\n        /* \"#utility.yul\":6441:6520   */\n      tag_512\n      tag_402\n      jump\t// in\n    tag_512:\n        /* \"#utility.yul\":6403:6522   */\n    tag_511:\n        /* \"#utility.yul\":6589:6590   */\n      0x00\n        /* \"#utility.yul\":6578:6587   */\n      dup3\n        /* \"#utility.yul\":6574:6591   */\n      add\n        /* \"#utility.yul\":6561:6592   */\n      calldataload\n        /* \"#utility.yul\":6619:6637   */\n      0xffffffffffffffff\n        /* \"#utility.yul\":6611:6617   */\n      dup2\n        /* \"#utility.yul\":6608:6638   */\n      gt\n        /* \"#utility.yul\":6605:6722   */\n      iszero\n      tag_513\n      jumpi\n        /* \"#utility.yul\":6641:6720   */\n      tag_514\n      tag_403\n      jump\t// in\n    tag_514:\n        /* \"#utility.yul\":6605:6722   */\n    tag_513:\n        /* \"#utility.yul\":6746:6824   */\n      tag_515\n        /* \"#utility.yul\":6816:6823   */\n      dup5\n        /* \"#utility.yul\":6807:6813   */\n      dup3\n        /* \"#utility.yul\":6796:6805   */\n      dup6\n        /* \"#utility.yul\":6792:6814   */\n      add\n        /* \"#utility.yul\":6746:6824   */\n      tag_424\n      jump\t// in\n    tag_515:\n        /* \"#utility.yul\":6736:6824   */\n      swap2\n      pop\n        /* \"#utility.yul\":6532:6834   */\n      pop\n        /* \"#utility.yul\":6302:6841   */\n      swap3\n      swap2\n      pop\n      pop\n      jump\t// out\n        /* \"#utility.yul\":6847:7321   */\n    tag_24:\n        /* \"#utility.yul\":6915:6921   */\n      0x00\n        /* \"#utility.yul\":6923:6929   */\n      dup1\n        /* \"#utility.yul\":6972:6974   */\n      0x40\n        /* \"#utility.yul\":6960:6969   */\n      dup4\n        /* \"#utility.yul\":6951:6958   */\n      dup6\n        /* \"#utility.yul\":6947:6970   */\n      sub\n        /* \"#utility.yul\":6943:6975   */\n      slt\n        /* \"#utility.yul\":6940:7059   */\n      iszero\n      tag_517\n      jumpi\n        /* \"#utility.yul\":6978:7057   */\n      tag_518\n      tag_402\n      jump\t// in\n    tag_518:\n        /* \"#utility.yul\":6940:7059   */\n    tag_517:\n        /* \"#utility.yul\":7098:7099   */\n      0x00\n        /* \"#utility.yul\":7123:7176   */\n      tag_519\n        /* \"#utility.yul\":7168:7175   */\n      dup6\n        /* \"#utility.yul\":7159:7165   */\n      dup3\n        /* \"#utility.yul\":7148:7157   */\n      dup7\n        /* \"#utility.yul\":7144:7166   */\n      add\n        /* \"#utility.yul\":7123:7176   */\n      tag_405\n      jump\t// in\n    tag_519:\n        /* \"#utility.yul\":7113:7176   */\n      swap3\n      pop\n        /* \"#utility.yul\":7069:7186   */\n      pop\n        /* \"#utility.yul\":7225:7227   */\n      0x20\n        /* \"#utility.yul\":7251:7304   */\n      tag_520\n        /* \"#utility.yul\":7296:7303   */\n      dup6\n        /* \"#utility.yul\":7287:7293   */\n      dup3\n        /* \"#utility.yul\":7276:7285   */\n      dup7\n        /* \"#utility.yul\":7272:7294   */\n      add\n        /* \"#utility.yul\":7251:7304   */\n      tag_405\n      jump\t// in\n    tag_520:\n        /* \"#utility.yul\":7241:7304   */\n      swap2\n      pop\n        /* \"#utility.yul\":7196:7314   */\n      pop\n        /* \"#utility.yul\":6847:7321   */\n      swap3\n      pop\n      swap3\n      swap1\n      pop\n      jump\t// out\n        /* \"#utility.yul\":7327:7445   */\n    tag_425:\n        /* \"#utility.yul\":7414:7438   */\n      tag_522\n        /* \"#utility.yul\":7432:7437   */\n      dup2\n        /* \"#utility.yul\":7414:7438   */\n      tag_410\n      jump\t// in\n    tag_522:\n        /* \"#utility.yul\":7409:7412   */\n      dup3\n        /* \"#utility.yul\":7402:7439   */\n      mstore\n        /* \"#utility.yul\":7327:7445   */\n      pop\n      pop\n      jump\t// out\n        /* \"#utility.yul\":7451:7673   */\n    tag_27:\n        /* \"#utility.yul\":7544:7548   */\n      0x00\n        /* \"#utility.yul\":7582:7584   */\n      0x20\n        /* \"#utility.yul\":7571:7580   */\n      dup3\n        /* \"#utility.yul\":7567:7585   */\n      add\n        /* \"#utility.yul\":7559:7585   */\n      swap1\n      pop\n        /* \"#utility.yul\":7595:7666   */\n      tag_524\n        /* \"#utility.yul\":7663:7664   */\n      0x00\n        /* \"#utility.yul\":7652:7661   */\n      dup4\n        /* \"#utility.yul\":7648:7665   */\n      add\n        /* \"#utility.yul\":7639:7645   */\n      dup5\n        /* \"#utility.yul\":7595:7666   */\n      tag_425\n      jump\t// in\n    tag_524:\n        /* \"#utility.yul\":7451:7673   */\n      swap3\n      swap2\n      pop\n      pop\n      jump\t// out\n        /* \"#utility.yul\":7679:7848   */\n    tag_426:\n        /* \"#utility.yul\":7763:7774   */\n      0x00\n        /* \"#utility.yul\":7797:7803   */\n      dup3\n        /* \"#utility.yul\":7792:7795   */\n      dup3\n        /* \"#utility.yul\":7785:7804   */\n      mstore\n        /* \"#utility.yul\":7837:7841   */\n      0x20\n        /* \"#utility.yul\":7832:7835   */\n      dup3\n        /* \"#utility.yul\":7828:7842   */\n      add\n        /* \"#utility.yul\":7813:7842   */\n      swap1\n      pop\n        /* \"#utility.yul\":7679:7848   */\n      swap3\n      swap2\n      pop\n      pop\n      jump\t// out\n        /* \"#utility.yul\":7854:8029   */\n    tag_427:\n        /* \"#utility.yul\":7994:8021   */\n      0x47726f757020696e646578206f7574206f6620626f756e647300000000000000\n        /* \"#utility.yul\":7990:7991   */\n      0x00\n        /* \"#utility.yul\":7982:7988   */\n      dup3\n        /* \"#utility.yul\":7978:7992   */\n      add\n        /* \"#utility.yul\":7971:8022   */\n      mstore\n        /* \"#utility.yul\":7854:8029   */\n      pop\n      jump\t// out\n        /* \"#utility.yul\":8035:8401   */\n    tag_428:\n        /* \"#utility.yul\":8177:8180   */\n      0x00\n        /* \"#utility.yul\":8198:8265   */\n      tag_528\n        /* \"#utility.yul\":8262:8264   */\n      0x19\n        /* \"#utility.yul\":8257:8260   */\n      dup4\n        /* \"#utility.yul\":8198:8265   */\n      tag_426\n      jump\t// in\n    tag_528:\n        /* \"#utility.yul\":8191:8265   */\n      swap2\n      pop\n        /* \"#utility.yul\":8274:8367   */\n      tag_529\n        /* \"#utility.yul\":8363:8366   */\n      dup3\n        /* \"#utility.yul\":8274:8367   */\n      tag_427\n      jump\t// in\n    tag_529:\n        /* \"#utility.yul\":8392:8394   */\n      0x20\n        /* \"#utility.yul\":8387:8390   */\n      dup3\n        /* \"#utility.yul\":8383:8395   */\n      add\n        /* \"#utility.yul\":8376:8395   */\n      swap1\n      pop\n        /* \"#utility.yul\":8035:8401   */\n      swap2\n      swap1\n      pop\n      jump\t// out\n        /* \"#utility.yul\":8407:8826   */\n    tag_36:\n        /* \"#utility.yul\":8573:8577   */\n      0x00\n        /* \"#utility.yul\":8611:8613   */\n      0x20\n        /* \"#utility.yul\":8600:8609   */\n      dup3\n        /* \"#utility.yul\":8596:8614   */\n      add\n        /* \"#utility.yul\":8588:8614   */\n      swap1\n      pop\n        /* \"#utility.yul\":8660:8669   */\n      dup2\n        /* \"#utility.yul\":8654:8658   */\n      dup2\n        /* \"#utility.yul\":8650:8670   */\n      sub\n        /* \"#utility.yul\":8646:8647   */\n      0x00\n        /* \"#utility.yul\":8635:8644   */\n      dup4\n        /* \"#utility.yul\":8631:8648   */\n      add\n        /* \"#utility.yul\":8624:8671   */\n      mstore\n        /* \"#utility.yul\":8688:8819   */\n      tag_531\n        /* \"#utility.yul\":8814:8818   */\n      dup2\n        /* \"#utility.yul\":8688:8819   */\n      tag_428\n      jump\t// in\n    tag_531:\n        /* \"#utility.yul\":8680:8819   */\n      swap1\n      pop\n        /* \"#utility.yul\":8407:8826   */\n      swap2\n      swap1\n      pop\n      jump\t// out\n        /* \"#utility.yul\":8832:9012   */\n    tag_39:\n        /* \"#utility.yul\":8880:8957   */\n      0x4e487b7100000000000000000000000000000000000000000000000000000000\n        /* \"#utility.yul\":8877:8878   */\n      0x00\n        /* \"#utility.yul\":8870:8958   */\n      mstore\n        /* \"#utility.yul\":8977:8981   */\n      0x32\n        /* \"#utility.yul\":8974:8975   */\n      0x04\n        /* \"#utility.yul\":8967:8982   */\n      mstore\n        /* \"#utility.yul\":9001:9005   */\n      0x24\n        /* \"#utility.yul\":8998:8999   */\n      0x00\n        /* \"#utility.yul\":8991:9006   */\n      revert\n        /* \"#utility.yul\":9018:9183   */\n    tag_429:\n        /* \"#utility.yul\":9158:9175   */\n      0x4e6f207061727469636970616e74730000000000000000000000000000000000\n        /* \"#utility.yul\":9154:9155   */\n      0x00\n        /* \"#utility.yul\":9146:9152   */\n      dup3\n        /* \"#utility.yul\":9142:9156   */\n      add\n        /* \"#utility.yul\":9135:9176   */\n      mstore\n        /* \"#utility.yul\":9018:9183   */\n      pop\n      jump\t// out\n        /* \"#utility.yul\":9189:9555   */\n    tag_430:\n        /* \"#utility.yul\":9331:9334   */\n      0x00\n        /* \"#utility.yul\":9352:9419   */\n      tag_535\n        /* \"#utility.yul\":9416:9418   */\n      0x0f\n        /* \"#utility.yul\":9411:9414   */\n      dup4\n        /* \"#utility.yul\":9352:9419   */\n      tag_426\n      jump\t// in\n    tag_535:\n        /* \"#utility.yul\":9345:9419   */\n      swap2\n      pop\n        /* \"#utility.yul\":9428:9521   */\n      tag_536\n        /* \"#utility.yul\":9517:9520   */\n      dup3\n        /* \"#utility.yul\":9428:9521   */\n      tag_429\n      jump\t// in\n    tag_536:\n        /* \"#utility.yul\":9546:9548   */\n      0x20\n        /* \"#utility.yul\":9541:9544   */\n      dup3\n        /* \"#utility.yul\":9537:9549   */\n      add\n        /* \"#utility.yul\":9530:9549   */\n      swap1\n      pop\n        /* \"#utility.yul\":9189:9555   */\n      swap2\n      swap1\n      pop\n      jump\t// out\n        /* \"#utility.yul\":9561:9980   */\n    tag_46:\n        /* \"#utility.yul\":9727:9731   */\n      0x00\n        /* \"#utility.yul\":9765:9767   */\n      0x20\n        /* \"#utility.yul\":9754:9763   */\n      dup3\n        /* \"#utility.yul\":9750:9768   */\n      add\n        /* \"#utility.yul\":9742:9768   */\n      swap1\n      pop\n        /* \"#utility.yul\":9814:9823   */\n      dup2\n        /* \"#utility.yul\":9808:9812   */\n      dup2\n        /* \"#utility.yul\":9804:9824   */\n      sub\n        /* \"#utility.yul\":9800:9801   */\n      0x00\n        /* \"#utility.yul\":9789:9798   */\n      dup4\n        /* \"#utility.yul\":9785:9802   */\n      add\n        /* \"#utility.yul\":9778:9825   */\n      mstore\n        /* \"#utility.yul\":9842:9973   */\n      tag_538\n        /* \"#utility.yul\":9968:9972   */\n      dup2\n        /* \"#utility.yul\":9842:9973   */\n      tag_430\n      jump\t// in\n    tag_538:\n        /* \"#utility.yul\":9834:9973   */\n      swap1\n      pop\n        /* \"#utility.yul\":9561:9980   */\n      swap2\n      swap1\n      pop\n      jump\t// out\n        /* \"#utility.yul\":9986:10166   */\n    tag_431:\n        /* \"#utility.yul\":10034:10111   */\n      0x4e487b7100000000000000000000000000000000000000000000000000000000\n        /* \"#utility.yul\":10031:10032   */\n      0x00\n        /* \"#utility.yul\":10024:10112   */\n      mstore\n        /* \"#utility.yul\":10131:10135   */\n      0x11\n        /* \"#utility.yul\":10128:10129   */\n      0x04\n        /* \"#utility.yul\":10121:10136   */\n      mstore\n        /* \"#utility.yul\":10155:10159   */\n      0x24\n        /* \"#utility.yul\":10152:10153   */\n      0x00\n        /* \"#utility.yul\":10145:10160   */\n      revert\n        /* \"#utility.yul\":10172:10405   */\n    tag_73:\n        /* \"#utility.yul\":10211:10214   */\n      0x00\n        /* \"#utility.yul\":10234:10258   */\n      tag_541\n        /* \"#utility.yul\":10252:10257   */\n      dup3\n        /* \"#utility.yul\":10234:10258   */\n      tag_399\n      jump\t// in\n    tag_541:\n        /* \"#utility.yul\":10225:10258   */\n      swap2\n      pop\n        /* \"#utility.yul\":10280:10346   */\n      0xffffffffffffffffffffffffffffffffffffffffffffffffffffffffffffffff\n        /* \"#utility.yul\":10273:10278   */\n      dup3\n        /* \"#utility.yul\":10270:10347   */\n      sub\n        /* \"#utility.yul\":10267:10370   */\n      tag_542\n      jumpi\n        /* \"#utility.yul\":10350:10368   */\n      tag_543\n      tag_431\n      jump\t// in\n    tag_543:\n        /* \"#utility.yul\":10267:10370   */\n    tag_542:\n        /* \"#utility.yul\":10397:10398   */\n      0x01\n        /* \"#utility.yul\":10390:10395   */\n      dup3\n        /* \"#utility.yul\":10386:10399   */\n      add\n        /* \"#utility.yul\":10379:10399   */\n      swap1\n      pop\n        /* \"#utility.yul\":10172:10405   */\n      swap2\n      swap1\n      pop\n      jump\t// out\n        /* \"#utility.yul\":10411:10605   */\n    tag_79:\n        /* \"#utility.yul\":10451:10455   */\n      0x00\n        /* \"#utility.yul\":10471:10491   */\n      tag_545\n        /* \"#utility.yul\":10489:10490   */\n      dup3\n        /* \"#utility.yul\":10471:10491   */\n      tag_399\n      jump\t// in\n    tag_545:\n        /* \"#utility.yul\":10466:10491   */\n      swap2\n      pop\n        /* \"#utility.yul\":10505:10525   */\n      tag_546\n        /* \"#utility.yul\":10523:10524   */\n      dup4\n        /* \"#utility.yul\":10505:10525   */\n      tag_399\n      jump\t// in\n    tag_546:\n        /* \"#utility.yul\":10500:10525   */\n      swap3\n      pop\n        /* \"#utility.yul\":10549:10550   */\n      dup3\n        /* \"#utility.yul\":10546:10547   */\n      dup3\n        /* \"#utility.yul\":10542:10551   */\n      sub\n        /* \"#utility.yul\":10534:10551   */\n      swap1\n      pop\n        /* \"#utility.yul\":10573:10574   */\n      dup2\n        /* \"#utility.yul\":10567:10571   */\n      dup2\n        /* \"#utility.yul\":10564:10575   */\n      gt\n        /* \"#utility.yul\":10561:10598   */\n      iszero\n      tag_547\n      jumpi\n        /* \"#utility.yul\":10578:10596   */\n      tag_548\n      tag_431\n      jump\t// in\n    tag_548:\n        /* \"#utility.yul\":10561:10598   */\n    tag_547:\n        /* \"#utility.yul\":10411:10605   */\n      swap3\n      swap2\n      pop\n      pop\n      jump\t// out\n        /* \"#utility.yul\":10611:10943   */\n    tag_81:\n        /* \"#utility.yul\":10732:10736   */\n      0x00\n        /* \"#utility.yul\":10770:10772   */\n      0x40\n        /* \"#utility.yul\":10759:10768   */\n      dup3\n        /* \"#utility.yul\":10755:10773   */\n      add\n        /* \"#utility.yul\":10747:10773   */\n      swap1\n      pop\n        /* \"#utility.yul\":10783:10854   */\n      tag_550\n        /* \"#utility.yul\":10851:10852   */\n      0x00\n        /* \"#utility.yul\":10840:10849   */\n      dup4\n        /* \"#utility.yul\":10836:10853   */\n      add\n        /* \"#utility.yul\":10827:10833   */\n      dup6\n        /* \"#utility.yul\":10783:10854   */\n      tag_400\n      jump\t// in\n    tag_550:\n        /* \"#utility.yul\":10864:10936   */\n      tag_551\n        /* \"#utility.yul\":10932:10934   */\n      0x20\n        /* \"#utility.yul\":10921:10930   */\n      dup4\n        /* \"#utility.yul\":10917:10935   */\n      add\n        /* \"#utility.yul\":10908:10914   */\n      dup5\n        /* \"#utility.yul\":10864:10936   */\n      tag_400\n      jump\t// in\n    tag_551:\n        /* \"#utility.yul\":10611:10943   */\n      swap4\n      swap3\n      pop\n      pop\n      pop\n      jump\t// out\n        /* \"#utility.yul\":10949:11125   */\n    tag_432:\n        /* \"#utility.yul\":11089:11117   */\n      0x4d656d62657220696e646578206f7574206f6620626f756e6473000000000000\n        /* \"#utility.yul\":11085:11086   */\n      0x00\n        /* \"#utility.yul\":11077:11083   */\n      dup3\n        /* \"#utility.yul\":11073:11087   */\n      add\n        /* \"#utility.yul\":11066:11118   */\n      mstore\n        /* \"#utility.yul\":10949:11125   */\n      pop\n      jump\t// out\n        /* \"#utility.yul\":11131:11497   */\n    tag_433:\n        /* \"#utility.yul\":11273:11276   */\n      0x00\n        /* \"#utility.yul\":11294:11361   */\n      tag_554\n        /* \"#utility.yul\":11358:11360   */\n      0x1a\n        /* \"#utility.yul\":11353:11356   */\n      dup4\n        /* \"#utility.yul\":11294:11361   */\n      tag_426\n      jump\t// in\n    tag_554:\n        /* \"#utility.yul\":11287:11361   */\n      swap2\n      pop\n        /* \"#utility.yul\":11370:11463   */\n      tag_555\n        /* \"#utility.yul\":11459:11462   */\n      dup3\n        /* \"#utility.yul\":11370:11463   */\n      tag_432\n      jump\t// in\n    tag_555:\n        /* \"#utility.yul\":11488:11490   */\n      0x20\n        /* \"#utility.yul\":11483:11486   */\n      dup3\n        /* \"#utility.yul\":11479:11491   */\n      add\n        /* \"#utility.yul\":11472:11491   */\n      swap1\n      pop\n        /* \"#utility.yul\":11131:11497   */\n      swap2\n      swap1\n      pop\n      jump\t// out\n        /* \"#utility.yul\":11503:11922   */\n    tag_91:\n        /* \"#utility.yul\":11669:11673   */\n      0x00\n        /* \"#utility.yul\":11707:11709   */\n      0x20\n        /* \"#utility.yul\":11696:11705   */\n      dup3\n        /* \"#utility.yul\":11692:11710   */\n      add\n        /* \"#utility.yul\":11684:11710   */\n      swap1\n      pop\n        /* \"#utility.yul\":11756:11765   */\n      dup2\n        /* \"#utility.yul\":11750:11754   */\n      dup2\n        /* \"#utility.yul\":11746:11766   */\n      sub\n        /* \"#utility.yul\":11742:11743   */\n      0x00\n        /* \"#utility.yul\":11731:11740   */\n      dup4\n        /* \"#utility.yul\":11727:11744   */\n      add\n        /* \"#utility.yul\":11720:11767   */\n      mstore\n        /* \"#utility.yul\":11784:11915   */\n      tag_557\n        /* \"#utility.yul\":11910:11914   */\n      dup2\n        /* \"#utility.yul\":11784:11915   */\n      tag_433\n      jump\t// in\n    tag_557:\n        /* \"#utility.yul\":11776:11915   */\n      swap1\n      pop\n        /* \"#utility.yul\":11503:11922   */\n      swap2\n      swap1\n      pop\n      jump\t// out\n        /* \"#utility.yul\":11928:12119   */\n    tag_110:\n        /* \"#utility.yul\":11968:11971   */\n      0x00\n        /* \"#utility.yul\":11987:12007   */\n      tag_559\n        /* \"#utility.yul\":12005:12006   */\n      dup3\n        /* \"#utility.yul\":11987:12007   */\n      tag_399\n      jump\t// in\n    tag_559:\n        /* \"#utility.yul\":11982:12007   */\n      swap2\n      pop\n        /* \"#utility.yul\":12021:12041   */\n      tag_560\n        /* \"#utility.yul\":12039:12040   */\n      dup4\n        /* \"#utility.yul\":12021:12041   */\n      tag_399\n      jump\t// in\n    tag_560:\n        /* \"#utility.yul\":12016:12041   */\n      swap3\n      pop\n        /* \"#utility.yul\":12064:12065   */\n      dup3\n        /* \"#utility.yul\":12061:12062   */\n      dup3\n        /* \"#utility.yul\":12057:12066   */\n      add\n        /* \"#utility.yul\":12050:12066   */\n      swap1\n      pop\n        /* \"#utility.yul\":12085:12088   */\n      dup1\n        /* \"#utility.yul\":12082:12083   */\n      dup3\n        /* \"#utility.yul\":12079:12089   */\n      gt\n        /* \"#utility.yul\":12076:12112   */\n      iszero\n      tag_561\n      jumpi\n        /* \"#utility.yul\":12092:12110   */\n      tag_562\n      tag_431\n      jump\t// in\n    tag_562:\n        /* \"#utility.yul\":12076:12112   */\n    tag_561:\n        /* \"#utility.yul\":11928:12119   */\n      swap3\n      swap2\n      pop\n      pop\n      jump\t// out\n        /* \"#utility.yul\":12125:12204   */\n    tag_434:\n        /* \"#utility.yul\":12164:12171   */\n      0x00\n        /* \"#utility.yul\":12193:12198   */\n      dup2\n        /* \"#utility.yul\":12182:12198   */\n      swap1\n      pop\n        /* \"#utility.yul\":12125:12204   */\n      swap2\n      swap1\n      pop\n      jump\t// out\n        /* \"#utility.yul\":12210:12367   */\n    tag_435:\n        /* \"#utility.yul\":12315:12360   */\n      tag_565\n        /* \"#utility.yul\":12335:12359   */\n      tag_566\n        /* \"#utility.yul\":12353:12358   */\n      dup3\n        /* \"#utility.yul\":12335:12359   */\n      tag_399\n      jump\t// in\n    tag_566:\n        /* \"#utility.yul\":12315:12360   */\n      tag_434\n      jump\t// in\n    tag_565:\n        /* \"#utility.yul\":12310:12313   */\n      dup3\n        /* \"#utility.yul\":12303:12361   */\n      mstore\n        /* \"#utility.yul\":12210:12367   */\n      pop\n      pop\n      jump\t// out\n        /* \"#utility.yul\":12373:12911   */\n    tag_112:\n        /* \"#utility.yul\":12541:12544   */\n      0x00\n        /* \"#utility.yul\":12556:12631   */\n      tag_568\n        /* \"#utility.yul\":12627:12630   */\n      dup3\n        /* \"#utility.yul\":12618:12624   */\n      dup7\n        /* \"#utility.yul\":12556:12631   */\n      tag_435\n      jump\t// in\n    tag_568:\n        /* \"#utility.yul\":12656:12658   */\n      0x20\n        /* \"#utility.yul\":12651:12654   */\n      dup3\n        /* \"#utility.yul\":12647:12659   */\n      add\n        /* \"#utility.yul\":12640:12659   */\n      swap2\n      pop\n        /* \"#utility.yul\":12669:12744   */\n      tag_569\n        /* \"#utility.yul\":12740:12743   */\n      dup3\n        /* \"#utility.yul\":12731:12737   */\n      dup6\n        /* \"#utility.yul\":12669:12744   */\n      tag_435\n      jump\t// in\n    tag_569:\n        /* \"#utility.yul\":12769:12771   */\n      0x20\n        /* \"#utility.yul\":12764:12767   */\n      dup3\n        /* \"#utility.yul\":12760:12772   */\n      add\n        /* \"#utility.yul\":12753:12772   */\n      swap2\n      pop\n        /* \"#utility.yul\":12782:12857   */\n      tag_570\n        /* \"#utility.yul\":12853:12856   */\n      dup3\n        /* \"#utility.yul\":12844:12850   */\n      dup5\n        /* \"#utility.yul\":12782:12857   */\n      tag_435\n      jump\t// in\n    tag_570:\n        /* \"#utility.yul\":12882:12884   */\n      0x20\n        /* \"#utility.yul\":12877:12880   */\n      dup3\n        /* \"#utility.yul\":12873:12885   */\n      add\n        /* \"#utility.yul\":12866:12885   */\n      swap2\n      pop\n        /* \"#utility.yul\":12902:12905   */\n      dup2\n        /* \"#utility.yul\":12895:12905   */\n      swap1\n      pop\n        /* \"#utility.yul\":12373:12911   */\n      swap5\n      swap4\n      pop\n      pop\n      pop\n      pop\n      jump\t// out\n        /* \"#utility.yul\":12917:13097   */\n    tag_436:\n        /* \"#utility.yul\":12965:13042   */\n      0x4e487b7100000000000000000000000000000000000000000000000000000000\n        /* \"#utility.yul\":12962:12963   */\n      0x00\n        /* \"#utility.yul\":12955:13043   */\n      mstore\n        /* \"#utility.yul\":13062:13066   */\n      0x12\n        /* \"#utility.yul\":13059:13060   */\n      0x04\n        /* \"#utility.yul\":13052:13067   */\n      mstore\n        /* \"#utility.yul\":13086:13090   */\n      0x24\n        /* \"#utility.yul\":13083:13084   */\n      0x00\n        /* \"#utility.yul\":13076:13091   */\n      revert\n        /* \"#utility.yul\":13103:13279   */\n    tag_114:\n        /* \"#utility.yul\":13135:13136   */\n      0x00\n        /* \"#utility.yul\":13152:13172   */\n      tag_573\n        /* \"#utility.yul\":13170:13171   */\n      dup3\n        /* \"#utility.yul\":13152:13172   */\n      tag_399\n      jump\t// in\n    tag_573:\n        /* \"#utility.yul\":13147:13172   */\n      swap2\n      pop\n        /* \"#utility.yul\":13186:13206   */\n      tag_574\n        /* \"#utility.yul\":13204:13205   */\n      dup4\n        /* \"#utility.yul\":13186:13206   */\n      tag_399\n      jump\t// in\n    tag_574:\n        /* \"#utility.yul\":13181:13206   */\n      swap3\n      pop\n        /* \"#utility.yul\":13225:13226   */\n      dup3\n        /* \"#utility.yul\":13215:13250   */\n      tag_575\n      jumpi\n        /* \"#utility.yul\":13230:13248   */\n      tag_576\n      tag_436\n      jump\t// in\n    tag_576:\n        /* \"#utility.yul\":13215:13250   */\n    tag_575:\n        /* \"#utility.yul\":13271:13272   */\n      dup3\n        /* \"#utility.yul\":13268:13269   */\n      dup3\n        /* \"#utility.yul\":13264:13273   */\n      mod\n        /* \"#utility.yul\":13259:13273   */\n      swap1\n      pop\n        /* \"#utility.yul\":13103:13279   */\n      swap3\n      swap2\n      pop\n      pop\n      jump\t// out\n        /* \"#utility.yul\":13285:13456   */\n    tag_124:\n        /* \"#utility.yul\":13324:13327   */\n      0x00\n        /* \"#utility.yul\":13347:13371   */\n      tag_578\n        /* \"#utility.yul\":13365:13370   */\n      dup3\n        /* \"#utility.yul\":13347:13371   */\n      tag_399\n      jump\t// in\n    tag_578:\n        /* \"#utility.yul\":13338:13371   */\n      swap2\n      pop\n        /* \"#utility.yul\":13393:13397   */\n      0x00\n        /* \"#utility.yul\":13386:13391   */\n      dup3\n        /* \"#utility.yul\":13383:13398   */\n      sub\n        /* \"#utility.yul\":13380:13421   */\n      tag_579\n      jumpi\n        /* \"#utility.yul\":13401:13419   */\n      tag_580\n      tag_431\n      jump\t// in\n    tag_580:\n        /* \"#utility.yul\":13380:13421   */\n    tag_579:\n        /* \"#utility.yul\":13448:13449   */\n      0x01\n        /* \"#utility.yul\":13441:13446   */\n      dup3\n        /* \"#utility.yul\":13437:13450   */\n      sub\n        /* \"#utility.yul\":13430:13450   */\n      swap1\n      pop\n        /* \"#utility.yul\":13285:13456   */\n      swap2\n      swap1\n      pop\n      jump\t// out\n        /* \"#utility.yul\":13462:13647   */\n    tag_362:\n        /* \"#utility.yul\":13502:13503   */\n      0x00\n        /* \"#utility.yul\":13519:13539   */\n      tag_582\n        /* \"#utility.yul\":13537:13538   */\n      dup3\n        /* \"#utility.yul\":13519:13539   */\n      tag_399\n      jump\t// in\n    tag_582:\n        /* \"#utility.yul\":13514:13539   */\n      swap2\n      pop\n        /* \"#utility.yul\":13553:13573   */\n      tag_583\n        /* \"#utility.yul\":13571:13572   */\n      dup4\n        /* \"#utility.yul\":13553:13573   */\n      tag_399\n      jump\t// in\n    tag_583:\n        /* \"#utility.yul\":13548:13573   */\n      swap3\n      pop\n        /* \"#utility.yul\":13592:13593   */\n      dup3\n        /* \"#utility.yul\":13582:13617   */\n      tag_584\n      jumpi\n        /* \"#utility.yul\":13597:13615   */\n      tag_585\n      tag_436\n      jump\t// in\n    tag_585:\n        /* \"#utility.yul\":13582:13617   */\n    tag_584:\n        /* \"#utility.yul\":13639:13640   */\n      dup3\n        /* \"#utility.yul\":13636:13637   */\n      dup3\n        /* \"#utility.yul\":13632:13641   */\n      div\n        /* \"#utility.yul\":13627:13641   */\n      swap1\n      pop\n        /* \"#utility.yul\":13462:13647   */\n      swap3\n      swap2\n      pop\n      pop\n      jump\t// out\n        /* \"#utility.yul\":13653:13739   */\n    tag_437:\n        /* \"#utility.yul\":13688:13695   */\n      0x00\n        /* \"#utility.yul\":13728:13732   */\n      0xff\n        /* \"#utility.yul\":13721:13726   */\n      dup3\n        /* \"#utility.yul\":13717:13733   */\n      and\n        /* \"#utility.yul\":13706:13733   */\n      swap1\n      pop\n        /* \"#utility.yul\":13653:13739   */\n      swap2\n      swap1\n      pop\n      jump\t// out\n        /* \"#utility.yul\":13745:13912   */\n    tag_376:\n        /* \"#utility.yul\":13782:13785   */\n      0x00\n        /* \"#utility.yul\":13805:13827   */\n      tag_588\n        /* \"#utility.yul\":13821:13826   */\n      dup3\n        /* \"#utility.yul\":13805:13827   */\n      tag_437\n      jump\t// in\n    tag_588:\n        /* \"#utility.yul\":13796:13827   */\n      swap2\n      pop\n        /* \"#utility.yul\":13849:13853   */\n      0xff\n        /* \"#utility.yul\":13842:13847   */\n      dup3\n        /* \"#utility.yul\":13839:13854   */\n      sub\n        /* \"#utility.yul\":13836:13877   */\n      tag_589\n      jumpi\n        /* \"#utility.yul\":13857:13875   */\n      tag_590\n      tag_431\n      jump\t// in\n    tag_590:\n        /* \"#utility.yul\":13836:13877   */\n    tag_589:\n        /* \"#utility.yul\":13904:13905   */\n      0x01\n        /* \"#utility.yul\":13897:13902   */\n      dup3\n        /* \"#utility.yul\":13893:13906   */\n      add\n        /* \"#utility.yul\":13886:13906   */\n      swap1\n      pop\n        /* \"#utility.yul\":13745:13912   */\n      swap2\n      swap1\n      pop\n      jump\t// out\n\n    auxdata: 0xa26469706673582212209988ea24803707a3a3eaa6853a4e5ea4a52445758c20288b32dd940b5ffb7ccf64736f6c634300081a0033\n}\n",
				"bytecode": {
					"linkReferences": {},
					"object": "6080604052348015600e575f80fd5b506120d38061001c5f395ff3fe608060405234801561000f575f80fd5b5060043610610055575f3560e01c806306545a931461005957806336cc8130146100775780633a40fea8146100a757806371b44fc7146100c35780639119ba1b146100f3575b5f80fd5b610061610123565b60405161006e9190611936565b60405180910390f35b610091600480360381019061008c919061198a565b61012e565b60405161009e9190611a9c565b60405180910390f35b6100c160048036038101906100bc9190611c36565b61021c565b005b6100dd60048036038101906100d89190611c7d565b61049b565b6040516100ea9190611cca565b60405180910390f35b61010d6004803603810190610108919061198a565b6105a3565b60405161011a9190611936565b60405180910390f35b5f8080549050905090565b60605f805490508210610176576040517f08c379a000000000000000000000000000000000000000000000000000000000815260040161016d90611d3d565b60405180910390fd5b5f828154811061018957610188611d5b565b5b905f5260205f20015f0180548060200260200160405190810160405280929190818152602001828054801561021057602002820191905f5260205f20905b815f9054906101000a900473ffffffffffffffffffffffffffffffffffffffff1673ffffffffffffffffffffffffffffffffffffffff16815260200190600101908083116101c7575b50505050509050919050565b5f81511161025f576040517f08c379a000000000000000000000000000000000000000000000000000000000815260040161025690611dd2565b60405180910390fd5b5f8061026b919061181b565b61027481610612565b5f61027f8251610757565b90505f805b825181101561045a575f8382815181106102a1576102a0611d5b565b5b602002602001015160ff1667ffffffffffffffff8111156102c5576102c4611ad0565b5b6040519080825280602002602001820160405280156102f35781602001602082028036833780820191505090505b5090505f5b84838151811061030b5761030a611d5b565b5b602002602001015160ff16811080156103245750855184105b156103b25785848151811061033c5761033b611d5b565b5b602002602001015182828151811061035757610356611d5b565b5b602002602001019073ffffffffffffffffffffffffffffffffffffffff16908173ffffffffffffffffffffffffffffffffffffffff1681525050838061039c90611e1d565b94505080806103aa90611e1d565b9150506102f8565b505f604051806020016040528083815250908060018154018082558091505060019003905f5260205f20015f909190919091505f820151815f0190805190602001906103ff929190611839565b5050507f767a851128f909c41fca6f6228026b9236f48b30fbea453b216bb7bb5fd5191a60015f805490506104349190611e64565b8251604051610444929190611e97565b60405180910390a1508080600101915050610284565b507fa190acb00932f4b8695e401d761368489be3aee79a894990162d47abf4148daa5f8054905060405161048e9190611936565b60405180910390a1505050565b5f808054905083106104e2576040517f08c379a00000000000000000000000000000000000000000000000000000000081526004016104d990611d3d565b60405180910390fd5b5f83815481106104f5576104f4611d5b565b5b905f5260205f20015f01805490508210610544576040517f08c379a000000000000000000000000000000000000000000000000000000000815260040161053b90611f08565b60405180910390fd5b5f838154811061055757610556611d5b565b5b905f5260205f20015f01828154811061057357610572611d5b565b5b905f5260205f20015f9054906101000a900473ffffffffffffffffffffffffffffffffffffffff16905092915050565b5f808054905082106105ea576040517f08c379a00000000000000000000000000000000000000000000000000000000081526004016105e190611d3d565b60405180910390fd5b5f82815481106105fd576105fc611d5b565b5b905f5260205f20015f01805490509050919050565b5f600182516106219190611e64565b90505b5f811115610753575f60018261063a9190611f26565b42448460405160200161064f93929190611f79565b604051602081830303815290604052805190602001205f1c6106719190611fe2565b905082818151811061068657610685611d5b565b5b60200260200101518383815181106106a1576106a0611d5b565b5b60200260200101518484815181106106bc576106bb611d5b565b5b602002602001018584815181106106d6576106d5611d5b565b5b602002602001018273ffffffffffffffffffffffffffffffffffffffff1673ffffffffffffffffffffffffffffffffffffffff168152508273ffffffffffffffffffffffffffffffffffffffff1673ffffffffffffffffffffffffffffffffffffffff16815250505050808061074b90612012565b915050610624565b5050565b6060601482116107715761076a82610782565b905061077d565b61077a826116c8565b90505b919050565b606080600183036107de57600167ffffffffffffffff8111156107a8576107a7611ad0565b5b6040519080825280602002602001820160405280156107d65781602001602082028036833780820191505090505b509050610e88565b6002830361083757600167ffffffffffffffff81111561080157610800611ad0565b5b60405190808252806020026020018201604052801561082f5781602001602082028036833780820191505090505b509050610e87565b6003830361089057600167ffffffffffffffff81111561085a57610859611ad0565b5b6040519080825280602002602001820160405280156108885781602001602082028036833780820191505090505b509050610e86565b600483036108e957600167ffffffffffffffff8111156108b3576108b2611ad0565b5b6040519080825280602002602001820160405280156108e15781602001602082028036833780820191505090505b509050610e85565b6005830361094257600167ffffffffffffffff81111561090c5761090b611ad0565b5b60405190808252806020026020018201604052801561093a5781602001602082028036833780820191505090505b509050610e84565b6006830361099b57600167ffffffffffffffff81111561096557610964611ad0565b5b6040519080825280602002602001820160405280156109935781602001602082028036833780820191505090505b509050610e83565b600783036109f457600267ffffffffffffffff8111156109be576109bd611ad0565b5b6040519080825280602002602001820160405280156109ec5781602001602082028036833780820191505090505b509050610e82565b60088303610a4d57600267ffffffffffffffff811115610a1757610a16611ad0565b5b604051908082528060200260200182016040528015610a455781602001602082028036833780820191505090505b509050610e81565b60098303610aa657600267ffffffffffffffff811115610a7057610a6f611ad0565b5b604051908082528060200260200182016040528015610a9e5781602001602082028036833780820191505090505b509050610e80565b600a8303610aff57600267ffffffffffffffff811115610ac957610ac8611ad0565b5b604051908082528060200260200182016040528015610af75781602001602082028036833780820191505090505b509050610e7f565b600b8303610b5857600267ffffffffffffffff811115610b2257610b21611ad0565b5b604051908082528060200260200182016040528015610b505781602001602082028036833780820191505090505b509050610e7e565b600c8303610bb157600267ffffffffffffffff811115610b7b57610b7a611ad0565b5b604051908082528060200260200182016040528015610ba95781602001602082028036833780820191505090505b509050610e7d565b600d8303610c0a57600367ffffffffffffffff811115610bd457610bd3611ad0565b5b604051908082528060200260200182016040528015610c025781602001602082028036833780820191505090505b509050610e7c565b600e8303610c6357600367ffffffffffffffff811115610c2d57610c2c611ad0565b5b604051908082528060200260200182016040528015610c5b5781602001602082028036833780820191505090505b509050610e7b565b600f8303610cbc57600367ffffffffffffffff811115610c8657610c85611ad0565b5b604051908082528060200260200182016040528015610cb45781602001602082028036833780820191505090505b509050610e7a565b60108303610d1557600367ffffffffffffffff811115610cdf57610cde611ad0565b5b604051908082528060200260200182016040528015610d0d5781602001602082028036833780820191505090505b509050610e79565b60118303610d6e57600367ffffffffffffffff811115610d3857610d37611ad0565b5b604051908082528060200260200182016040528015610d665781602001602082028036833780820191505090505b509050610e78565b60128303610dc757600367ffffffffffffffff811115610d9157610d90611ad0565b5b604051908082528060200260200182016040528015610dbf5781602001602082028036833780820191505090505b509050610e77565b60138303610e2057600467ffffffffffffffff811115610dea57610de9611ad0565b5b604051908082528060200260200182016040528015610e185781602001602082028036833780820191505090505b509050610e76565b60148303610e7557600467ffffffffffffffff811115610e4357610e42611ad0565b5b604051908082528060200260200182016040528015610e715781602001602082028036833780820191505090505b5090505b5b5b5b5b5b5b5b5b5b5b5b5b5b5b5b5b5b5b5b60018303610ebe576001815f81518110610ea557610ea4611d5b565b5b602002602001019060ff16908160ff16815250506116bf565b60028303610ef4576002815f81518110610edb57610eda611d5b565b5b602002602001019060ff16908160ff16815250506116be565b60038303610f2a576003815f81518110610f1157610f10611d5b565b5b602002602001019060ff16908160ff16815250506116bd565b60048303610f60576004815f81518110610f4757610f46611d5b565b5b602002602001019060ff16908160ff16815250506116bc565b60058303610f96576005815f81518110610f7d57610f7c611d5b565b5b602002602001019060ff16908160ff16815250506116bb565b60068303610fcc576006815f81518110610fb357610fb2611d5b565b5b602002602001019060ff16908160ff16815250506116ba565b6007830361102c576003815f81518110610fe957610fe8611d5b565b5b602002602001019060ff16908160ff168152505060048160018151811061101357611012611d5b565b5b602002602001019060ff16908160ff16815250506116b9565b6008830361108c576004815f8151811061104957611048611d5b565b5b602002602001019060ff16908160ff168152505060048160018151811061107357611072611d5b565b5b602002602001019060ff16908160ff16815250506116b8565b600983036110ec576005815f815181106110a9576110a8611d5b565b5b602002602001019060ff16908160ff16815250506004816001815181106110d3576110d2611d5b565b5b602002602001019060ff16908160ff16815250506116b7565b600a830361114c576005815f8151811061110957611108611d5b565b5b602002602001019060ff16908160ff168152505060058160018151811061113357611132611d5b565b5b602002602001019060ff16908160ff16815250506116b6565b600b83036111ac576005815f8151811061116957611168611d5b565b5b602002602001019060ff16908160ff168152505060068160018151811061119357611192611d5b565b5b602002602001019060ff16908160ff16815250506116b5565b600c830361120c576006815f815181106111c9576111c8611d5b565b5b602002602001019060ff16908160ff16815250506006816001815181106111f3576111f2611d5b565b5b602002602001019060ff16908160ff16815250506116b4565b600d8303611296576005815f8151811061122957611228611d5b565b5b602002602001019060ff16908160ff168152505060048160018151811061125357611252611d5b565b5b602002602001019060ff16908160ff168152505060048160028151811061127d5761127c611d5b565b5b602002602001019060ff16908160ff16815250506116b3565b600e8303611320576005815f815181106112b3576112b2611d5b565b5b602002602001019060ff16908160ff16815250506005816001815181106112dd576112dc611d5b565b5b602002602001019060ff16908160ff168152505060048160028151811061130757611306611d5b565b5b602002602001019060ff16908160ff16815250506116b2565b600f83036113aa576005815f8151811061133d5761133c611d5b565b5b602002602001019060ff16908160ff168152505060058160018151811061136757611366611d5b565b5b602002602001019060ff16908160ff168152505060058160028151811061139157611390611d5b565b5b602002602001019060ff16908160ff16815250506116b1565b60108303611434576006815f815181106113c7576113c6611d5b565b5b602002602001019060ff16908160ff16815250506005816001815181106113f1576113f0611d5b565b5b602002602001019060ff16908160ff168152505060058160028151811061141b5761141a611d5b565b5b602002602001019060ff16908160ff16815250506116b0565b601183036114be576006815f8151811061145157611450611d5b565b5b602002602001019060ff16908160ff168152505060068160018151811061147b5761147a611d5b565b5b602002602001019060ff16908160ff16815250506005816002815181106114a5576114a4611d5b565b5b602002602001019060ff16908160ff16815250506116af565b60128303611548576006815f815181106114db576114da611d5b565b5b602002602001019060ff16908160ff168152505060068160018151811061150557611504611d5b565b5b602002602001019060ff16908160ff168152505060068160028151811061152f5761152e611d5b565b5b602002602001019060ff16908160ff16815250506116ae565b601383036115fc576005815f8151811061156557611564611d5b565b5b602002602001019060ff16908160ff168152505060058160018151811061158f5761158e611d5b565b5b602002602001019060ff16908160ff16815250506005816002815181106115b9576115b8611d5b565b5b602002602001019060ff16908160ff16815250506004816003815181106115e3576115e2611d5b565b5b602002602001019060ff16908160ff16815250506116ad565b601483036116ac576005815f8151811061161957611618611d5b565b5b602002602001019060ff16908160ff168152505060058160018151811061164357611642611d5b565b5b602002602001019060ff16908160ff168152505060058160028151811061166d5761166c611d5b565b5b602002602001019060ff16908160ff168152505060058160038151811061169757611696611d5b565b5b602002602001019060ff16908160ff16815250505b5b5b5b5b5b5b5b5b5b5b5b5b5b5b5b5b5b5b5b80915050919050565b60605f60066005846116da9190611f26565b6116e49190612039565b67ffffffffffffffff8111156116fd576116fc611ad0565b5b60405190808252806020026020018201604052801561172b5781602001602082028036833780820191505090505b5090505f805b5f85111561180d575f6006866117479190611fe2565b14158015611758575060058160ff16105b156117b457600583838061176b90611e1d565b94508151811061177e5761177d611d5b565b5b602002602001019060ff16908160ff168152505060058561179f9190611e64565b945080806117ac90612075565b915050611808565b60068383806117c290611e1d565b9450815181106117d5576117d4611d5b565b5b602002602001019060ff16908160ff16815250506006856117f69190611e64565b945060058160ff1603611807575f90505b5b611731565b818352829350505050919050565b5080545f8255905f5260205f209081019061183691906118c0565b50565b828054828255905f5260205f209081019282156118af579160200282015b828111156118ae578251825f6101000a81548173ffffffffffffffffffffffffffffffffffffffff021916908373ffffffffffffffffffffffffffffffffffffffff16021790555091602001919060010190611857565b5b5090506118bc91906118e5565b5090565b5b808211156118e1575f8082015f6118d89190611900565b506001016118c1565b5090565b5b808211156118fc575f815f9055506001016118e6565b5090565b5080545f8255905f5260205f209081019061191b91906118e5565b50565b5f819050919050565b6119308161191e565b82525050565b5f6020820190506119495f830184611927565b92915050565b5f604051905090565b5f80fd5b5f80fd5b6119698161191e565b8114611973575f80fd5b50565b5f8135905061198481611960565b92915050565b5f6020828403121561199f5761199e611958565b5b5f6119ac84828501611976565b91505092915050565b5f81519050919050565b5f82825260208201905092915050565b5f819050602082019050919050565b5f73ffffffffffffffffffffffffffffffffffffffff82169050919050565b5f611a07826119de565b9050919050565b611a17816119fd565b82525050565b5f611a288383611a0e565b60208301905092915050565b5f602082019050919050565b5f611a4a826119b5565b611a5481856119bf565b9350611a5f836119cf565b805f5b83811015611a8f578151611a768882611a1d565b9750611a8183611a34565b925050600181019050611a62565b5085935050505092915050565b5f6020820190508181035f830152611ab48184611a40565b905092915050565b5f80fd5b5f601f19601f8301169050919050565b7f4e487b71000000000000000000000000000000000000000000000000000000005f52604160045260245ffd5b611b0682611ac0565b810181811067ffffffffffffffff82111715611b2557611b24611ad0565b5b80604052505050565b5f611b3761194f565b9050611b438282611afd565b919050565b5f67ffffffffffffffff821115611b6257611b61611ad0565b5b602082029050602081019050919050565b5f80fd5b611b80816119fd565b8114611b8a575f80fd5b50565b5f81359050611b9b81611b77565b92915050565b5f611bb3611bae84611b48565b611b2e565b90508083825260208201905060208402830185811115611bd657611bd5611b73565b5b835b81811015611bff5780611beb8882611b8d565b845260208401935050602081019050611bd8565b5050509392505050565b5f82601f830112611c1d57611c1c611abc565b5b8135611c2d848260208601611ba1565b91505092915050565b5f60208284031215611c4b57611c4a611958565b5b5f82013567ffffffffffffffff811115611c6857611c6761195c565b5b611c7484828501611c09565b91505092915050565b5f8060408385031215611c9357611c92611958565b5b5f611ca085828601611976565b9250506020611cb185828601611976565b9150509250929050565b611cc4816119fd565b82525050565b5f602082019050611cdd5f830184611cbb565b92915050565b5f82825260208201905092915050565b7f47726f757020696e646578206f7574206f6620626f756e6473000000000000005f82015250565b5f611d27601983611ce3565b9150611d3282611cf3565b602082019050919050565b5f6020820190508181035f830152611d5481611d1b565b9050919050565b7f4e487b71000000000000000000000000000000000000000000000000000000005f52603260045260245ffd5b7f4e6f207061727469636970616e747300000000000000000000000000000000005f82015250565b5f611dbc600f83611ce3565b9150611dc782611d88565b602082019050919050565b5f6020820190508181035f830152611de981611db0565b9050919050565b7f4e487b71000000000000000000000000000000000000000000000000000000005f52601160045260245ffd5b5f611e278261191e565b91507fffffffffffffffffffffffffffffffffffffffffffffffffffffffffffffffff8203611e5957611e58611df0565b5b600182019050919050565b5f611e6e8261191e565b9150611e798361191e565b9250828203905081811115611e9157611e90611df0565b5b92915050565b5f604082019050611eaa5f830185611927565b611eb76020830184611927565b9392505050565b7f4d656d62657220696e646578206f7574206f6620626f756e64730000000000005f82015250565b5f611ef2601a83611ce3565b9150611efd82611ebe565b602082019050919050565b5f6020820190508181035f830152611f1f81611ee6565b9050919050565b5f611f308261191e565b9150611f3b8361191e565b9250828201905080821115611f5357611f52611df0565b5b92915050565b5f819050919050565b611f73611f6e8261191e565b611f59565b82525050565b5f611f848286611f62565b602082019150611f948285611f62565b602082019150611fa48284611f62565b602082019150819050949350505050565b7f4e487b71000000000000000000000000000000000000000000000000000000005f52601260045260245ffd5b5f611fec8261191e565b9150611ff78361191e565b92508261200757612006611fb5565b5b828206905092915050565b5f61201c8261191e565b91505f820361202e5761202d611df0565b5b600182039050919050565b5f6120438261191e565b915061204e8361191e565b92508261205e5761205d611fb5565b5b828204905092915050565b5f60ff82169050919050565b5f61207f82612069565b915060ff820361209257612091611df0565b5b60018201905091905056fea26469706673582212209988ea24803707a3a3eaa6853a4e5ea4a52445758c20288b32dd940b5ffb7ccf64736f6c634300081a0033",
					"opcodes": "PUSH1 0x80 PUSH1 0x40 MSTORE CALLVALUE DUP1 ISZERO PUSH1 0xE JUMPI PUSH0 DUP1 REVERT JUMPDEST POP PUSH2 0x20D3 DUP1 PUSH2 0x1C PUSH0 CODECOPY PUSH0 RETURN INVALID PUSH1 0x80 PUSH1 0x40 MSTORE CALLVALUE DUP1 ISZERO PUSH2 0xF JUMPI PUSH0 DUP1 REVERT JUMPDEST POP PUSH1 0x4 CALLDATASIZE LT PUSH2 0x55 JUMPI PUSH0 CALLDATALOAD PUSH1 0xE0 SHR DUP1 PUSH4 0x6545A93 EQ PUSH2 0x59 JUMPI DUP1 PUSH4 0x36CC8130 EQ PUSH2 0x77 JUMPI DUP1 PUSH4 0x3A40FEA8 EQ PUSH2 0xA7 JUMPI DUP1 PUSH4 0x71B44FC7 EQ PUSH2 0xC3 JUMPI DUP1 PUSH4 0x9119BA1B EQ PUSH2 0xF3 JUMPI JUMPDEST PUSH0 DUP1 REVERT JUMPDEST PUSH2 0x61 PUSH2 0x123 JUMP JUMPDEST PUSH1 0x40 MLOAD PUSH2 0x6E SWAP2 SWAP1 PUSH2 0x1936 JUMP JUMPDEST PUSH1 0x40 MLOAD DUP1 SWAP2 SUB SWAP1 RETURN JUMPDEST PUSH2 0x91 PUSH1 0x4 DUP1 CALLDATASIZE SUB DUP2 ADD SWAP1 PUSH2 0x8C SWAP2 SWAP1 PUSH2 0x198A JUMP JUMPDEST PUSH2 0x12E JUMP JUMPDEST PUSH1 0x40 MLOAD PUSH2 0x9E SWAP2 SWAP1 PUSH2 0x1A9C JUMP JUMPDEST PUSH1 0x40 MLOAD DUP1 SWAP2 SUB SWAP1 RETURN JUMPDEST PUSH2 0xC1 PUSH1 0x4 DUP1 CALLDATASIZE SUB DUP2 ADD SWAP1 PUSH2 0xBC SWAP2 SWAP1 PUSH2 0x1C36 JUMP JUMPDEST PUSH2 0x21C JUMP JUMPDEST STOP JUMPDEST PUSH2 0xDD PUSH1 0x4 DUP1 CALLDATASIZE SUB DUP2 ADD SWAP1 PUSH2 0xD8 SWAP2 SWAP1 PUSH2 0x1C7D JUMP JUMPDEST PUSH2 0x49B JUMP JUMPDEST PUSH1 0x40 MLOAD PUSH2 0xEA SWAP2 SWAP1 PUSH2 0x1CCA JUMP JUMPDEST PUSH1 0x40 MLOAD DUP1 SWAP2 SUB SWAP1 RETURN JUMPDEST PUSH2 0x10D PUSH1 0x4 DUP1 CALLDATASIZE SUB DUP2 ADD SWAP1 PUSH2 0x108 SWAP2 SWAP1 PUSH2 0x198A JUMP JUMPDEST PUSH2 0x5A3 JUMP JUMPDEST PUSH1 0x40 MLOAD PUSH2 0x11A SWAP2 SWAP1 PUSH2 0x1936 JUMP JUMPDEST PUSH1 0x40 MLOAD DUP1 SWAP2 SUB SWAP1 RETURN JUMPDEST PUSH0 DUP1 DUP1 SLOAD SWAP1 POP SWAP1 POP SWAP1 JUMP JUMPDEST PUSH1 0x60 PUSH0 DUP1 SLOAD SWAP1 POP DUP3 LT PUSH2 0x176 JUMPI PUSH1 0x40 MLOAD PUSH32 0x8C379A000000000000000000000000000000000000000000000000000000000 DUP2 MSTORE PUSH1 0x4 ADD PUSH2 0x16D SWAP1 PUSH2 0x1D3D JUMP JUMPDEST PUSH1 0x40 MLOAD DUP1 SWAP2 SUB SWAP1 REVERT JUMPDEST PUSH0 DUP3 DUP2 SLOAD DUP2 LT PUSH2 0x189 JUMPI PUSH2 0x188 PUSH2 0x1D5B JUMP JUMPDEST JUMPDEST SWAP1 PUSH0 MSTORE PUSH1 0x20 PUSH0 KECCAK256 ADD PUSH0 ADD DUP1 SLOAD DUP1 PUSH1 0x20 MUL PUSH1 0x20 ADD PUSH1 0x40 MLOAD SWAP1 DUP2 ADD PUSH1 0x40 MSTORE DUP1 SWAP3 SWAP2 SWAP1 DUP2 DUP2 MSTORE PUSH1 0x20 ADD DUP3 DUP1 SLOAD DUP1 ISZERO PUSH2 0x210 JUMPI PUSH1 0x20 MUL DUP3 ADD SWAP2 SWAP1 PUSH0 MSTORE PUSH1 0x20 PUSH0 KECCAK256 SWAP1 JUMPDEST DUP2 PUSH0 SWAP1 SLOAD SWAP1 PUSH2 0x100 EXP SWAP1 DIV PUSH20 0xFFFFFFFFFFFFFFFFFFFFFFFFFFFFFFFFFFFFFFFF AND PUSH20 0xFFFFFFFFFFFFFFFFFFFFFFFFFFFFFFFFFFFFFFFF AND DUP2 MSTORE PUSH1 0x20 ADD SWAP1 PUSH1 0x1 ADD SWAP1 DUP1 DUP4 GT PUSH2 0x1C7 JUMPI JUMPDEST POP POP POP POP POP SWAP1 POP SWAP2 SWAP1 POP JUMP JUMPDEST PUSH0 DUP2 MLOAD GT PUSH2 0x25F JUMPI PUSH1 0x40 MLOAD PUSH32 0x8C379A000000000000000000000000000000000000000000000000000000000 DUP2 MSTORE PUSH1 0x4 ADD PUSH2 0x256 SWAP1 PUSH2 0x1DD2 JUMP JUMPDEST PUSH1 0x40 MLOAD DUP1 SWAP2 SUB SWAP1 REVERT JUMPDEST PUSH0 DUP1 PUSH2 0x26B SWAP2 SWAP1 PUSH2 0x181B JUMP JUMPDEST PUSH2 0x274 DUP2 PUSH2 0x612 JUMP JUMPDEST PUSH0 PUSH2 0x27F DUP3 MLOAD PUSH2 0x757 JUMP JUMPDEST SWAP1 POP PUSH0 DUP1 JUMPDEST DUP3 MLOAD DUP2 LT ISZERO PUSH2 0x45A JUMPI PUSH0 DUP4 DUP3 DUP2 MLOAD DUP2 LT PUSH2 0x2A1 JUMPI PUSH2 0x2A0 PUSH2 0x1D5B JUMP JUMPDEST JUMPDEST PUSH1 0x20 MUL PUSH1 0x20 ADD ADD MLOAD PUSH1 0xFF AND PUSH8 0xFFFFFFFFFFFFFFFF DUP2 GT ISZERO PUSH2 0x2C5 JUMPI PUSH2 0x2C4 PUSH2 0x1AD0 JUMP JUMPDEST JUMPDEST PUSH1 0x40 MLOAD SWAP1 DUP1 DUP3 MSTORE DUP1 PUSH1 0x20 MUL PUSH1 0x20 ADD DUP3 ADD PUSH1 0x40 MSTORE DUP1 ISZERO PUSH2 0x2F3 JUMPI DUP2 PUSH1 0x20 ADD PUSH1 0x20 DUP3 MUL DUP1 CALLDATASIZE DUP4 CALLDATACOPY DUP1 DUP3 ADD SWAP2 POP POP SWAP1 POP JUMPDEST POP SWAP1 POP PUSH0 JUMPDEST DUP5 DUP4 DUP2 MLOAD DUP2 LT PUSH2 0x30B JUMPI PUSH2 0x30A PUSH2 0x1D5B JUMP JUMPDEST JUMPDEST PUSH1 0x20 MUL PUSH1 0x20 ADD ADD MLOAD PUSH1 0xFF AND DUP2 LT DUP1 ISZERO PUSH2 0x324 JUMPI POP DUP6 MLOAD DUP5 LT JUMPDEST ISZERO PUSH2 0x3B2 JUMPI DUP6 DUP5 DUP2 MLOAD DUP2 LT PUSH2 0x33C JUMPI PUSH2 0x33B PUSH2 0x1D5B JUMP JUMPDEST JUMPDEST PUSH1 0x20 MUL PUSH1 0x20 ADD ADD MLOAD DUP3 DUP3 DUP2 MLOAD DUP2 LT PUSH2 0x357 JUMPI PUSH2 0x356 PUSH2 0x1D5B JUMP JUMPDEST JUMPDEST PUSH1 0x20 MUL PUSH1 0x20 ADD ADD SWAP1 PUSH20 0xFFFFFFFFFFFFFFFFFFFFFFFFFFFFFFFFFFFFFFFF AND SWAP1 DUP2 PUSH20 0xFFFFFFFFFFFFFFFFFFFFFFFFFFFFFFFFFFFFFFFF AND DUP2 MSTORE POP POP DUP4 DUP1 PUSH2 0x39C SWAP1 PUSH2 0x1E1D JUMP JUMPDEST SWAP5 POP POP DUP1 DUP1 PUSH2 0x3AA SWAP1 PUSH2 0x1E1D JUMP JUMPDEST SWAP2 POP POP PUSH2 0x2F8 JUMP JUMPDEST POP PUSH0 PUSH1 0x40 MLOAD DUP1 PUSH1 0x20 ADD PUSH1 0x40 MSTORE DUP1 DUP4 DUP2 MSTORE POP SWAP1 DUP1 PUSH1 0x1 DUP2 SLOAD ADD DUP1 DUP3 SSTORE DUP1 SWAP2 POP POP PUSH1 0x1 SWAP1 SUB SWAP1 PUSH0 MSTORE PUSH1 0x20 PUSH0 KECCAK256 ADD PUSH0 SWAP1 SWAP2 SWAP1 SWAP2 SWAP1 SWAP2 POP PUSH0 DUP3 ADD MLOAD DUP2 PUSH0 ADD SWAP1 DUP1 MLOAD SWAP1 PUSH1 0x20 ADD SWAP1 PUSH2 0x3FF SWAP3 SWAP2 SWAP1 PUSH2 0x1839 JUMP JUMPDEST POP POP POP PUSH32 0x767A851128F909C41FCA6F6228026B9236F48B30FBEA453B216BB7BB5FD5191A PUSH1 0x1 PUSH0 DUP1 SLOAD SWAP1 POP PUSH2 0x434 SWAP2 SWAP1 PUSH2 0x1E64 JUMP JUMPDEST DUP3 MLOAD PUSH1 0x40 MLOAD PUSH2 0x444 SWAP3 SWAP2 SWAP1 PUSH2 0x1E97 JUMP JUMPDEST PUSH1 0x40 MLOAD DUP1 SWAP2 SUB SWAP1 LOG1 POP DUP1 DUP1 PUSH1 0x1 ADD SWAP2 POP POP PUSH2 0x284 JUMP JUMPDEST POP PUSH32 0xA190ACB00932F4B8695E401D761368489BE3AEE79A894990162D47ABF4148DAA PUSH0 DUP1 SLOAD SWAP1 POP PUSH1 0x40 MLOAD PUSH2 0x48E SWAP2 SWAP1 PUSH2 0x1936 JUMP JUMPDEST PUSH1 0x40 MLOAD DUP1 SWAP2 SUB SWAP1 LOG1 POP POP POP JUMP JUMPDEST PUSH0 DUP1 DUP1 SLOAD SWAP1 POP DUP4 LT PUSH2 0x4E2 JUMPI PUSH1 0x40 MLOAD PUSH32 0x8C379A000000000000000000000000000000000000000000000000000000000 DUP2 MSTORE PUSH1 0x4 ADD PUSH2 0x4D9 SWAP1 PUSH2 0x1D3D JUMP JUMPDEST PUSH1 0x40 MLOAD DUP1 SWAP2 SUB SWAP1 REVERT JUMPDEST PUSH0 DUP4 DUP2 SLOAD DUP2 LT PUSH2 0x4F5 JUMPI PUSH2 0x4F4 PUSH2 0x1D5B JUMP JUMPDEST JUMPDEST SWAP1 PUSH0 MSTORE PUSH1 0x20 PUSH0 KECCAK256 ADD PUSH0 ADD DUP1 SLOAD SWAP1 POP DUP3 LT PUSH2 0x544 JUMPI PUSH1 0x40 MLOAD PUSH32 0x8C379A000000000000000000000000000000000000000000000000000000000 DUP2 MSTORE PUSH1 0x4 ADD PUSH2 0x53B SWAP1 PUSH2 0x1F08 JUMP JUMPDEST PUSH1 0x40 MLOAD DUP1 SWAP2 SUB SWAP1 REVERT JUMPDEST PUSH0 DUP4 DUP2 SLOAD DUP2 LT PUSH2 0x557 JUMPI PUSH2 0x556 PUSH2 0x1D5B JUMP JUMPDEST JUMPDEST SWAP1 PUSH0 MSTORE PUSH1 0x20 PUSH0 KECCAK256 ADD PUSH0 ADD DUP3 DUP2 SLOAD DUP2 LT PUSH2 0x573 JUMPI PUSH2 0x572 PUSH2 0x1D5B JUMP JUMPDEST JUMPDEST SWAP1 PUSH0 MSTORE PUSH1 0x20 PUSH0 KECCAK256 ADD PUSH0 SWAP1 SLOAD SWAP1 PUSH2 0x100 EXP SWAP1 DIV PUSH20 0xFFFFFFFFFFFFFFFFFFFFFFFFFFFFFFFFFFFFFFFF AND SWAP1 POP SWAP3 SWAP2 POP POP JUMP JUMPDEST PUSH0 DUP1 DUP1 SLOAD SWAP1 POP DUP3 LT PUSH2 0x5EA JUMPI PUSH1 0x40 MLOAD PUSH32 0x8C379A000000000000000000000000000000000000000000000000000000000 DUP2 MSTORE PUSH1 0x4 ADD PUSH2 0x5E1 SWAP1 PUSH2 0x1D3D JUMP JUMPDEST PUSH1 0x40 MLOAD DUP1 SWAP2 SUB SWAP1 REVERT JUMPDEST PUSH0 DUP3 DUP2 SLOAD DUP2 LT PUSH2 0x5FD JUMPI PUSH2 0x5FC PUSH2 0x1D5B JUMP JUMPDEST JUMPDEST SWAP1 PUSH0 MSTORE PUSH1 0x20 PUSH0 KECCAK256 ADD PUSH0 ADD DUP1 SLOAD SWAP1 POP SWAP1 POP SWAP2 SWAP1 POP JUMP JUMPDEST PUSH0 PUSH1 0x1 DUP3 MLOAD PUSH2 0x621 SWAP2 SWAP1 PUSH2 0x1E64 JUMP JUMPDEST SWAP1 POP JUMPDEST PUSH0 DUP2 GT ISZERO PUSH2 0x753 JUMPI PUSH0 PUSH1 0x1 DUP3 PUSH2 0x63A SWAP2 SWAP1 PUSH2 0x1F26 JUMP JUMPDEST TIMESTAMP PREVRANDAO DUP5 PUSH1 0x40 MLOAD PUSH1 0x20 ADD PUSH2 0x64F SWAP4 SWAP3 SWAP2 SWAP1 PUSH2 0x1F79 JUMP JUMPDEST PUSH1 0x40 MLOAD PUSH1 0x20 DUP2 DUP4 SUB SUB DUP2 MSTORE SWAP1 PUSH1 0x40 MSTORE DUP1 MLOAD SWAP1 PUSH1 0x20 ADD KECCAK256 PUSH0 SHR PUSH2 0x671 SWAP2 SWAP1 PUSH2 0x1FE2 JUMP JUMPDEST SWAP1 POP DUP3 DUP2 DUP2 MLOAD DUP2 LT PUSH2 0x686 JUMPI PUSH2 0x685 PUSH2 0x1D5B JUMP JUMPDEST JUMPDEST PUSH1 0x20 MUL PUSH1 0x20 ADD ADD MLOAD DUP4 DUP4 DUP2 MLOAD DUP2 LT PUSH2 0x6A1 JUMPI PUSH2 0x6A0 PUSH2 0x1D5B JUMP JUMPDEST JUMPDEST PUSH1 0x20 MUL PUSH1 0x20 ADD ADD MLOAD DUP5 DUP5 DUP2 MLOAD DUP2 LT PUSH2 0x6BC JUMPI PUSH2 0x6BB PUSH2 0x1D5B JUMP JUMPDEST JUMPDEST PUSH1 0x20 MUL PUSH1 0x20 ADD ADD DUP6 DUP5 DUP2 MLOAD DUP2 LT PUSH2 0x6D6 JUMPI PUSH2 0x6D5 PUSH2 0x1D5B JUMP JUMPDEST JUMPDEST PUSH1 0x20 MUL PUSH1 0x20 ADD ADD DUP3 PUSH20 0xFFFFFFFFFFFFFFFFFFFFFFFFFFFFFFFFFFFFFFFF AND PUSH20 0xFFFFFFFFFFFFFFFFFFFFFFFFFFFFFFFFFFFFFFFF AND DUP2 MSTORE POP DUP3 PUSH20 0xFFFFFFFFFFFFFFFFFFFFFFFFFFFFFFFFFFFFFFFF AND PUSH20 0xFFFFFFFFFFFFFFFFFFFFFFFFFFFFFFFFFFFFFFFF AND DUP2 MSTORE POP POP POP POP DUP1 DUP1 PUSH2 0x74B SWAP1 PUSH2 0x2012 JUMP JUMPDEST SWAP2 POP POP PUSH2 0x624 JUMP JUMPDEST POP POP JUMP JUMPDEST PUSH1 0x60 PUSH1 0x14 DUP3 GT PUSH2 0x771 JUMPI PUSH2 0x76A DUP3 PUSH2 0x782 JUMP JUMPDEST SWAP1 POP PUSH2 0x77D JUMP JUMPDEST PUSH2 0x77A DUP3 PUSH2 0x16C8 JUMP JUMPDEST SWAP1 POP JUMPDEST SWAP2 SWAP1 POP JUMP JUMPDEST PUSH1 0x60 DUP1 PUSH1 0x1 DUP4 SUB PUSH2 0x7DE JUMPI PUSH1 0x1 PUSH8 0xFFFFFFFFFFFFFFFF DUP2 GT ISZERO PUSH2 0x7A8 JUMPI PUSH2 0x7A7 PUSH2 0x1AD0 JUMP JUMPDEST JUMPDEST PUSH1 0x40 MLOAD SWAP1 DUP1 DUP3 MSTORE DUP1 PUSH1 0x20 MUL PUSH1 0x20 ADD DUP3 ADD PUSH1 0x40 MSTORE DUP1 ISZERO PUSH2 0x7D6 JUMPI DUP2 PUSH1 0x20 ADD PUSH1 0x20 DUP3 MUL DUP1 CALLDATASIZE DUP4 CALLDATACOPY DUP1 DUP3 ADD SWAP2 POP POP SWAP1 POP JUMPDEST POP SWAP1 POP PUSH2 0xE88 JUMP JUMPDEST PUSH1 0x2 DUP4 SUB PUSH2 0x837 JUMPI PUSH1 0x1 PUSH8 0xFFFFFFFFFFFFFFFF DUP2 GT ISZERO PUSH2 0x801 JUMPI PUSH2 0x800 PUSH2 0x1AD0 JUMP JUMPDEST JUMPDEST PUSH1 0x40 MLOAD SWAP1 DUP1 DUP3 MSTORE DUP1 PUSH1 0x20 MUL PUSH1 0x20 ADD DUP3 ADD PUSH1 0x40 MSTORE DUP1 ISZERO PUSH2 0x82F JUMPI DUP2 PUSH1 0x20 ADD PUSH1 0x20 DUP3 MUL DUP1 CALLDATASIZE DUP4 CALLDATACOPY DUP1 DUP3 ADD SWAP2 POP POP SWAP1 POP JUMPDEST POP SWAP1 POP PUSH2 0xE87 JUMP JUMPDEST PUSH1 0x3 DUP4 SUB PUSH2 0x890 JUMPI PUSH1 0x1 PUSH8 0xFFFFFFFFFFFFFFFF DUP2 GT ISZERO PUSH2 0x85A JUMPI PUSH2 0x859 PUSH2 0x1AD0 JUMP JUMPDEST JUMPDEST PUSH1 0x40 MLOAD SWAP1 DUP1 DUP3 MSTORE DUP1 PUSH1 0x20 MUL PUSH1 0x20 ADD DUP3 ADD PUSH1 0x40 MSTORE DUP1 ISZERO PUSH2 0x888 JUMPI DUP2 PUSH1 0x20 ADD PUSH1 0x20 DUP3 MUL DUP1 CALLDATASIZE DUP4 CALLDATACOPY DUP1 DUP3 ADD SWAP2 POP POP SWAP1 POP JUMPDEST POP SWAP1 POP PUSH2 0xE86 JUMP JUMPDEST PUSH1 0x4 DUP4 SUB PUSH2 0x8E9 JUMPI PUSH1 0x1 PUSH8 0xFFFFFFFFFFFFFFFF DUP2 GT ISZERO PUSH2 0x8B3 JUMPI PUSH2 0x8B2 PUSH2 0x1AD0 JUMP JUMPDEST JUMPDEST PUSH1 0x40 MLOAD SWAP1 DUP1 DUP3 MSTORE DUP1 PUSH1 0x20 MUL PUSH1 0x20 ADD DUP3 ADD PUSH1 0x40 MSTORE DUP1 ISZERO PUSH2 0x8E1 JUMPI DUP2 PUSH1 0x20 ADD PUSH1 0x20 DUP3 MUL DUP1 CALLDATASIZE DUP4 CALLDATACOPY DUP1 DUP3 ADD SWAP2 POP POP SWAP1 POP JUMPDEST POP SWAP1 POP PUSH2 0xE85 JUMP JUMPDEST PUSH1 0x5 DUP4 SUB PUSH2 0x942 JUMPI PUSH1 0x1 PUSH8 0xFFFFFFFFFFFFFFFF DUP2 GT ISZERO PUSH2 0x90C JUMPI PUSH2 0x90B PUSH2 0x1AD0 JUMP JUMPDEST JUMPDEST PUSH1 0x40 MLOAD SWAP1 DUP1 DUP3 MSTORE DUP1 PUSH1 0x20 MUL PUSH1 0x20 ADD DUP3 ADD PUSH1 0x40 MSTORE DUP1 ISZERO PUSH2 0x93A JUMPI DUP2 PUSH1 0x20 ADD PUSH1 0x20 DUP3 MUL DUP1 CALLDATASIZE DUP4 CALLDATACOPY DUP1 DUP3 ADD SWAP2 POP POP SWAP1 POP JUMPDEST POP SWAP1 POP PUSH2 0xE84 JUMP JUMPDEST PUSH1 0x6 DUP4 SUB PUSH2 0x99B JUMPI PUSH1 0x1 PUSH8 0xFFFFFFFFFFFFFFFF DUP2 GT ISZERO PUSH2 0x965 JUMPI PUSH2 0x964 PUSH2 0x1AD0 JUMP JUMPDEST JUMPDEST PUSH1 0x40 MLOAD SWAP1 DUP1 DUP3 MSTORE DUP1 PUSH1 0x20 MUL PUSH1 0x20 ADD DUP3 ADD PUSH1 0x40 MSTORE DUP1 ISZERO PUSH2 0x993 JUMPI DUP2 PUSH1 0x20 ADD PUSH1 0x20 DUP3 MUL DUP1 CALLDATASIZE DUP4 CALLDATACOPY DUP1 DUP3 ADD SWAP2 POP POP SWAP1 POP JUMPDEST POP SWAP1 POP PUSH2 0xE83 JUMP JUMPDEST PUSH1 0x7 DUP4 SUB PUSH2 0x9F4 JUMPI PUSH1 0x2 PUSH8 0xFFFFFFFFFFFFFFFF DUP2 GT ISZERO PUSH2 0x9BE JUMPI PUSH2 0x9BD PUSH2 0x1AD0 JUMP JUMPDEST JUMPDEST PUSH1 0x40 MLOAD SWAP1 DUP1 DUP3 MSTORE DUP1 PUSH1 0x20 MUL PUSH1 0x20 ADD DUP3 ADD PUSH1 0x40 MSTORE DUP1 ISZERO PUSH2 0x9EC JUMPI DUP2 PUSH1 0x20 ADD PUSH1 0x20 DUP3 MUL DUP1 CALLDATASIZE DUP4 CALLDATACOPY DUP1 DUP3 ADD SWAP2 POP POP SWAP1 POP JUMPDEST POP SWAP1 POP PUSH2 0xE82 JUMP JUMPDEST PUSH1 0x8 DUP4 SUB PUSH2 0xA4D JUMPI PUSH1 0x2 PUSH8 0xFFFFFFFFFFFFFFFF DUP2 GT ISZERO PUSH2 0xA17 JUMPI PUSH2 0xA16 PUSH2 0x1AD0 JUMP JUMPDEST JUMPDEST PUSH1 0x40 MLOAD SWAP1 DUP1 DUP3 MSTORE DUP1 PUSH1 0x20 MUL PUSH1 0x20 ADD DUP3 ADD PUSH1 0x40 MSTORE DUP1 ISZERO PUSH2 0xA45 JUMPI DUP2 PUSH1 0x20 ADD PUSH1 0x20 DUP3 MUL DUP1 CALLDATASIZE DUP4 CALLDATACOPY DUP1 DUP3 ADD SWAP2 POP POP SWAP1 POP JUMPDEST POP SWAP1 POP PUSH2 0xE81 JUMP JUMPDEST PUSH1 0x9 DUP4 SUB PUSH2 0xAA6 JUMPI PUSH1 0x2 PUSH8 0xFFFFFFFFFFFFFFFF DUP2 GT ISZERO PUSH2 0xA70 JUMPI PUSH2 0xA6F PUSH2 0x1AD0 JUMP JUMPDEST JUMPDEST PUSH1 0x40 MLOAD SWAP1 DUP1 DUP3 MSTORE DUP1 PUSH1 0x20 MUL PUSH1 0x20 ADD DUP3 ADD PUSH1 0x40 MSTORE DUP1 ISZERO PUSH2 0xA9E JUMPI DUP2 PUSH1 0x20 ADD PUSH1 0x20 DUP3 MUL DUP1 CALLDATASIZE DUP4 CALLDATACOPY DUP1 DUP3 ADD SWAP2 POP POP SWAP1 POP JUMPDEST POP SWAP1 POP PUSH2 0xE80 JUMP JUMPDEST PUSH1 0xA DUP4 SUB PUSH2 0xAFF JUMPI PUSH1 0x2 PUSH8 0xFFFFFFFFFFFFFFFF DUP2 GT ISZERO PUSH2 0xAC9 JUMPI PUSH2 0xAC8 PUSH2 0x1AD0 JUMP JUMPDEST JUMPDEST PUSH1 0x40 MLOAD SWAP1 DUP1 DUP3 MSTORE DUP1 PUSH1 0x20 MUL PUSH1 0x20 ADD DUP3 ADD PUSH1 0x40 MSTORE DUP1 ISZERO PUSH2 0xAF7 JUMPI DUP2 PUSH1 0x20 ADD PUSH1 0x20 DUP3 MUL DUP1 CALLDATASIZE DUP4 CALLDATACOPY DUP1 DUP3 ADD SWAP2 POP POP SWAP1 POP JUMPDEST POP SWAP1 POP PUSH2 0xE7F JUMP JUMPDEST PUSH1 0xB DUP4 SUB PUSH2 0xB58 JUMPI PUSH1 0x2 PUSH8 0xFFFFFFFFFFFFFFFF DUP2 GT ISZERO PUSH2 0xB22 JUMPI PUSH2 0xB21 PUSH2 0x1AD0 JUMP JUMPDEST JUMPDEST PUSH1 0x40 MLOAD SWAP1 DUP1 DUP3 MSTORE DUP1 PUSH1 0x20 MUL PUSH1 0x20 ADD DUP3 ADD PUSH1 0x40 MSTORE DUP1 ISZERO PUSH2 0xB50 JUMPI DUP2 PUSH1 0x20 ADD PUSH1 0x20 DUP3 MUL DUP1 CALLDATASIZE DUP4 CALLDATACOPY DUP1 DUP3 ADD SWAP2 POP POP SWAP1 POP JUMPDEST POP SWAP1 POP PUSH2 0xE7E JUMP JUMPDEST PUSH1 0xC DUP4 SUB PUSH2 0xBB1 JUMPI PUSH1 0x2 PUSH8 0xFFFFFFFFFFFFFFFF DUP2 GT ISZERO PUSH2 0xB7B JUMPI PUSH2 0xB7A PUSH2 0x1AD0 JUMP JUMPDEST JUMPDEST PUSH1 0x40 MLOAD SWAP1 DUP1 DUP3 MSTORE DUP1 PUSH1 0x20 MUL PUSH1 0x20 ADD DUP3 ADD PUSH1 0x40 MSTORE DUP1 ISZERO PUSH2 0xBA9 JUMPI DUP2 PUSH1 0x20 ADD PUSH1 0x20 DUP3 MUL DUP1 CALLDATASIZE DUP4 CALLDATACOPY DUP1 DUP3 ADD SWAP2 POP POP SWAP1 POP JUMPDEST POP SWAP1 POP PUSH2 0xE7D JUMP JUMPDEST PUSH1 0xD DUP4 SUB PUSH2 0xC0A JUMPI PUSH1 0x3 PUSH8 0xFFFFFFFFFFFFFFFF DUP2 GT ISZERO PUSH2 0xBD4 JUMPI PUSH2 0xBD3 PUSH2 0x1AD0 JUMP JUMPDEST JUMPDEST PUSH1 0x40 MLOAD SWAP1 DUP1 DUP3 MSTORE DUP1 PUSH1 0x20 MUL PUSH1 0x20 ADD DUP3 ADD PUSH1 0x40 MSTORE DUP1 ISZERO PUSH2 0xC02 JUMPI DUP2 PUSH1 0x20 ADD PUSH1 0x20 DUP3 MUL DUP1 CALLDATASIZE DUP4 CALLDATACOPY DUP1 DUP3 ADD SWAP2 POP POP SWAP1 POP JUMPDEST POP SWAP1 POP PUSH2 0xE7C JUMP JUMPDEST PUSH1 0xE DUP4 SUB PUSH2 0xC63 JUMPI PUSH1 0x3 PUSH8 0xFFFFFFFFFFFFFFFF DUP2 GT ISZERO PUSH2 0xC2D JUMPI PUSH2 0xC2C PUSH2 0x1AD0 JUMP JUMPDEST JUMPDEST PUSH1 0x40 MLOAD SWAP1 DUP1 DUP3 MSTORE DUP1 PUSH1 0x20 MUL PUSH1 0x20 ADD DUP3 ADD PUSH1 0x40 MSTORE DUP1 ISZERO PUSH2 0xC5B JUMPI DUP2 PUSH1 0x20 ADD PUSH1 0x20 DUP3 MUL DUP1 CALLDATASIZE DUP4 CALLDATACOPY DUP1 DUP3 ADD SWAP2 POP POP SWAP1 POP JUMPDEST POP SWAP1 POP PUSH2 0xE7B JUMP JUMPDEST PUSH1 0xF DUP4 SUB PUSH2 0xCBC JUMPI PUSH1 0x3 PUSH8 0xFFFFFFFFFFFFFFFF DUP2 GT ISZERO PUSH2 0xC86 JUMPI PUSH2 0xC85 PUSH2 0x1AD0 JUMP JUMPDEST JUMPDEST PUSH1 0x40 MLOAD SWAP1 DUP1 DUP3 MSTORE DUP1 PUSH1 0x20 MUL PUSH1 0x20 ADD DUP3 ADD PUSH1 0x40 MSTORE DUP1 ISZERO PUSH2 0xCB4 JUMPI DUP2 PUSH1 0x20 ADD PUSH1 0x20 DUP3 MUL DUP1 CALLDATASIZE DUP4 CALLDATACOPY DUP1 DUP3 ADD SWAP2 POP POP SWAP1 POP JUMPDEST POP SWAP1 POP PUSH2 0xE7A JUMP JUMPDEST PUSH1 0x10 DUP4 SUB PUSH2 0xD15 JUMPI PUSH1 0x3 PUSH8 0xFFFFFFFFFFFFFFFF DUP2 GT ISZERO PUSH2 0xCDF JUMPI PUSH2 0xCDE PUSH2 0x1AD0 JUMP JUMPDEST JUMPDEST PUSH1 0x40 MLOAD SWAP1 DUP1 DUP3 MSTORE DUP1 PUSH1 0x20 MUL PUSH1 0x20 ADD DUP3 ADD PUSH1 0x40 MSTORE DUP1 ISZERO PUSH2 0xD0D JUMPI DUP2 PUSH1 0x20 ADD PUSH1 0x20 DUP3 MUL DUP1 CALLDATASIZE DUP4 CALLDATACOPY DUP1 DUP3 ADD SWAP2 POP POP SWAP1 POP JUMPDEST POP SWAP1 POP PUSH2 0xE79 JUMP JUMPDEST PUSH1 0x11 DUP4 SUB PUSH2 0xD6E JUMPI PUSH1 0x3 PUSH8 0xFFFFFFFFFFFFFFFF DUP2 GT ISZERO PUSH2 0xD38 JUMPI PUSH2 0xD37 PUSH2 0x1AD0 JUMP JUMPDEST JUMPDEST PUSH1 0x40 MLOAD SWAP1 DUP1 DUP3 MSTORE DUP1 PUSH1 0x20 MUL PUSH1 0x20 ADD DUP3 ADD PUSH1 0x40 MSTORE DUP1 ISZERO PUSH2 0xD66 JUMPI DUP2 PUSH1 0x20 ADD PUSH1 0x20 DUP3 MUL DUP1 CALLDATASIZE DUP4 CALLDATACOPY DUP1 DUP3 ADD SWAP2 POP POP SWAP1 POP JUMPDEST POP SWAP1 POP PUSH2 0xE78 JUMP JUMPDEST PUSH1 0x12 DUP4 SUB PUSH2 0xDC7 JUMPI PUSH1 0x3 PUSH8 0xFFFFFFFFFFFFFFFF DUP2 GT ISZERO PUSH2 0xD91 JUMPI PUSH2 0xD90 PUSH2 0x1AD0 JUMP JUMPDEST JUMPDEST PUSH1 0x40 MLOAD SWAP1 DUP1 DUP3 MSTORE DUP1 PUSH1 0x20 MUL PUSH1 0x20 ADD DUP3 ADD PUSH1 0x40 MSTORE DUP1 ISZERO PUSH2 0xDBF JUMPI DUP2 PUSH1 0x20 ADD PUSH1 0x20 DUP3 MUL DUP1 CALLDATASIZE DUP4 CALLDATACOPY DUP1 DUP3 ADD SWAP2 POP POP SWAP1 POP JUMPDEST POP SWAP1 POP PUSH2 0xE77 JUMP JUMPDEST PUSH1 0x13 DUP4 SUB PUSH2 0xE20 JUMPI PUSH1 0x4 PUSH8 0xFFFFFFFFFFFFFFFF DUP2 GT ISZERO PUSH2 0xDEA JUMPI PUSH2 0xDE9 PUSH2 0x1AD0 JUMP JUMPDEST JUMPDEST PUSH1 0x40 MLOAD SWAP1 DUP1 DUP3 MSTORE DUP1 PUSH1 0x20 MUL PUSH1 0x20 ADD DUP3 ADD PUSH1 0x40 MSTORE DUP1 ISZERO PUSH2 0xE18 JUMPI DUP2 PUSH1 0x20 ADD PUSH1 0x20 DUP3 MUL DUP1 CALLDATASIZE DUP4 CALLDATACOPY DUP1 DUP3 ADD SWAP2 POP POP SWAP1 POP JUMPDEST POP SWAP1 POP PUSH2 0xE76 JUMP JUMPDEST PUSH1 0x14 DUP4 SUB PUSH2 0xE75 JUMPI PUSH1 0x4 PUSH8 0xFFFFFFFFFFFFFFFF DUP2 GT ISZERO PUSH2 0xE43 JUMPI PUSH2 0xE42 PUSH2 0x1AD0 JUMP JUMPDEST JUMPDEST PUSH1 0x40 MLOAD SWAP1 DUP1 DUP3 MSTORE DUP1 PUSH1 0x20 MUL PUSH1 0x20 ADD DUP3 ADD PUSH1 0x40 MSTORE DUP1 ISZERO PUSH2 0xE71 JUMPI DUP2 PUSH1 0x20 ADD PUSH1 0x20 DUP3 MUL DUP1 CALLDATASIZE DUP4 CALLDATACOPY DUP1 DUP3 ADD SWAP2 POP POP SWAP1 POP JUMPDEST POP SWAP1 POP JUMPDEST JUMPDEST JUMPDEST JUMPDEST JUMPDEST JUMPDEST JUMPDEST JUMPDEST JUMPDEST JUMPDEST JUMPDEST JUMPDEST JUMPDEST JUMPDEST JUMPDEST JUMPDEST JUMPDEST JUMPDEST JUMPDEST JUMPDEST PUSH1 0x1 DUP4 SUB PUSH2 0xEBE JUMPI PUSH1 0x1 DUP2 PUSH0 DUP2 MLOAD DUP2 LT PUSH2 0xEA5 JUMPI PUSH2 0xEA4 PUSH2 0x1D5B JUMP JUMPDEST JUMPDEST PUSH1 0x20 MUL PUSH1 0x20 ADD ADD SWAP1 PUSH1 0xFF AND SWAP1 DUP2 PUSH1 0xFF AND DUP2 MSTORE POP POP PUSH2 0x16BF JUMP JUMPDEST PUSH1 0x2 DUP4 SUB PUSH2 0xEF4 JUMPI PUSH1 0x2 DUP2 PUSH0 DUP2 MLOAD DUP2 LT PUSH2 0xEDB JUMPI PUSH2 0xEDA PUSH2 0x1D5B JUMP JUMPDEST JUMPDEST PUSH1 0x20 MUL PUSH1 0x20 ADD ADD SWAP1 PUSH1 0xFF AND SWAP1 DUP2 PUSH1 0xFF AND DUP2 MSTORE POP POP PUSH2 0x16BE JUMP JUMPDEST PUSH1 0x3 DUP4 SUB PUSH2 0xF2A JUMPI PUSH1 0x3 DUP2 PUSH0 DUP2 MLOAD DUP2 LT PUSH2 0xF11 JUMPI PUSH2 0xF10 PUSH2 0x1D5B JUMP JUMPDEST JUMPDEST PUSH1 0x20 MUL PUSH1 0x20 ADD ADD SWAP1 PUSH1 0xFF AND SWAP1 DUP2 PUSH1 0xFF AND DUP2 MSTORE POP POP PUSH2 0x16BD JUMP JUMPDEST PUSH1 0x4 DUP4 SUB PUSH2 0xF60 JUMPI PUSH1 0x4 DUP2 PUSH0 DUP2 MLOAD DUP2 LT PUSH2 0xF47 JUMPI PUSH2 0xF46 PUSH2 0x1D5B JUMP JUMPDEST JUMPDEST PUSH1 0x20 MUL PUSH1 0x20 ADD ADD SWAP1 PUSH1 0xFF AND SWAP1 DUP2 PUSH1 0xFF AND DUP2 MSTORE POP POP PUSH2 0x16BC JUMP JUMPDEST PUSH1 0x5 DUP4 SUB PUSH2 0xF96 JUMPI PUSH1 0x5 DUP2 PUSH0 DUP2 MLOAD DUP2 LT PUSH2 0xF7D JUMPI PUSH2 0xF7C PUSH2 0x1D5B JUMP JUMPDEST JUMPDEST PUSH1 0x20 MUL PUSH1 0x20 ADD ADD SWAP1 PUSH1 0xFF AND SWAP1 DUP2 PUSH1 0xFF AND DUP2 MSTORE POP POP PUSH2 0x16BB JUMP JUMPDEST PUSH1 0x6 DUP4 SUB PUSH2 0xFCC JUMPI PUSH1 0x6 DUP2 PUSH0 DUP2 MLOAD DUP2 LT PUSH2 0xFB3 JUMPI PUSH2 0xFB2 PUSH2 0x1D5B JUMP JUMPDEST JUMPDEST PUSH1 0x20 MUL PUSH1 0x20 ADD ADD SWAP1 PUSH1 0xFF AND SWAP1 DUP2 PUSH1 0xFF AND DUP2 MSTORE POP POP PUSH2 0x16BA JUMP JUMPDEST PUSH1 0x7 DUP4 SUB PUSH2 0x102C JUMPI PUSH1 0x3 DUP2 PUSH0 DUP2 MLOAD DUP2 LT PUSH2 0xFE9 JUMPI PUSH2 0xFE8 PUSH2 0x1D5B JUMP JUMPDEST JUMPDEST PUSH1 0x20 MUL PUSH1 0x20 ADD ADD SWAP1 PUSH1 0xFF AND SWAP1 DUP2 PUSH1 0xFF AND DUP2 MSTORE POP POP PUSH1 0x4 DUP2 PUSH1 0x1 DUP2 MLOAD DUP2 LT PUSH2 0x1013 JUMPI PUSH2 0x1012 PUSH2 0x1D5B JUMP JUMPDEST JUMPDEST PUSH1 0x20 MUL PUSH1 0x20 ADD ADD SWAP1 PUSH1 0xFF AND SWAP1 DUP2 PUSH1 0xFF AND DUP2 MSTORE POP POP PUSH2 0x16B9 JUMP JUMPDEST PUSH1 0x8 DUP4 SUB PUSH2 0x108C JUMPI PUSH1 0x4 DUP2 PUSH0 DUP2 MLOAD DUP2 LT PUSH2 0x1049 JUMPI PUSH2 0x1048 PUSH2 0x1D5B JUMP JUMPDEST JUMPDEST PUSH1 0x20 MUL PUSH1 0x20 ADD ADD SWAP1 PUSH1 0xFF AND SWAP1 DUP2 PUSH1 0xFF AND DUP2 MSTORE POP POP PUSH1 0x4 DUP2 PUSH1 0x1 DUP2 MLOAD DUP2 LT PUSH2 0x1073 JUMPI PUSH2 0x1072 PUSH2 0x1D5B JUMP JUMPDEST JUMPDEST PUSH1 0x20 MUL PUSH1 0x20 ADD ADD SWAP1 PUSH1 0xFF AND SWAP1 DUP2 PUSH1 0xFF AND DUP2 MSTORE POP POP PUSH2 0x16B8 JUMP JUMPDEST PUSH1 0x9 DUP4 SUB PUSH2 0x10EC JUMPI PUSH1 0x5 DUP2 PUSH0 DUP2 MLOAD DUP2 LT PUSH2 0x10A9 JUMPI PUSH2 0x10A8 PUSH2 0x1D5B JUMP JUMPDEST JUMPDEST PUSH1 0x20 MUL PUSH1 0x20 ADD ADD SWAP1 PUSH1 0xFF AND SWAP1 DUP2 PUSH1 0xFF AND DUP2 MSTORE POP POP PUSH1 0x4 DUP2 PUSH1 0x1 DUP2 MLOAD DUP2 LT PUSH2 0x10D3 JUMPI PUSH2 0x10D2 PUSH2 0x1D5B JUMP JUMPDEST JUMPDEST PUSH1 0x20 MUL PUSH1 0x20 ADD ADD SWAP1 PUSH1 0xFF AND SWAP1 DUP2 PUSH1 0xFF AND DUP2 MSTORE POP POP PUSH2 0x16B7 JUMP JUMPDEST PUSH1 0xA DUP4 SUB PUSH2 0x114C JUMPI PUSH1 0x5 DUP2 PUSH0 DUP2 MLOAD DUP2 LT PUSH2 0x1109 JUMPI PUSH2 0x1108 PUSH2 0x1D5B JUMP JUMPDEST JUMPDEST PUSH1 0x20 MUL PUSH1 0x20 ADD ADD SWAP1 PUSH1 0xFF AND SWAP1 DUP2 PUSH1 0xFF AND DUP2 MSTORE POP POP PUSH1 0x5 DUP2 PUSH1 0x1 DUP2 MLOAD DUP2 LT PUSH2 0x1133 JUMPI PUSH2 0x1132 PUSH2 0x1D5B JUMP JUMPDEST JUMPDEST PUSH1 0x20 MUL PUSH1 0x20 ADD ADD SWAP1 PUSH1 0xFF AND SWAP1 DUP2 PUSH1 0xFF AND DUP2 MSTORE POP POP PUSH2 0x16B6 JUMP JUMPDEST PUSH1 0xB DUP4 SUB PUSH2 0x11AC JUMPI PUSH1 0x5 DUP2 PUSH0 DUP2 MLOAD DUP2 LT PUSH2 0x1169 JUMPI PUSH2 0x1168 PUSH2 0x1D5B JUMP JUMPDEST JUMPDEST PUSH1 0x20 MUL PUSH1 0x20 ADD ADD SWAP1 PUSH1 0xFF AND SWAP1 DUP2 PUSH1 0xFF AND DUP2 MSTORE POP POP PUSH1 0x6 DUP2 PUSH1 0x1 DUP2 MLOAD DUP2 LT PUSH2 0x1193 JUMPI PUSH2 0x1192 PUSH2 0x1D5B JUMP JUMPDEST JUMPDEST PUSH1 0x20 MUL PUSH1 0x20 ADD ADD SWAP1 PUSH1 0xFF AND SWAP1 DUP2 PUSH1 0xFF AND DUP2 MSTORE POP POP PUSH2 0x16B5 JUMP JUMPDEST PUSH1 0xC DUP4 SUB PUSH2 0x120C JUMPI PUSH1 0x6 DUP2 PUSH0 DUP2 MLOAD DUP2 LT PUSH2 0x11C9 JUMPI PUSH2 0x11C8 PUSH2 0x1D5B JUMP JUMPDEST JUMPDEST PUSH1 0x20 MUL PUSH1 0x20 ADD ADD SWAP1 PUSH1 0xFF AND SWAP1 DUP2 PUSH1 0xFF AND DUP2 MSTORE POP POP PUSH1 0x6 DUP2 PUSH1 0x1 DUP2 MLOAD DUP2 LT PUSH2 0x11F3 JUMPI PUSH2 0x11F2 PUSH2 0x1D5B JUMP JUMPDEST JUMPDEST PUSH1 0x20 MUL PUSH1 0x20 ADD ADD SWAP1 PUSH1 0xFF AND SWAP1 DUP2 PUSH1 0xFF AND DUP2 MSTORE POP POP PUSH2 0x16B4 JUMP JUMPDEST PUSH1 0xD DUP4 SUB PUSH2 0x1296 JUMPI PUSH1 0x5 DUP2 PUSH0 DUP2 MLOAD DUP2 LT PUSH2 0x1229 JUMPI PUSH2 0x1228 PUSH2 0x1D5B JUMP JUMPDEST JUMPDEST PUSH1 0x20 MUL PUSH1 0x20 ADD ADD SWAP1 PUSH1 0xFF AND SWAP1 DUP2 PUSH1 0xFF AND DUP2 MSTORE POP POP PUSH1 0x4 DUP2 PUSH1 0x1 DUP2 MLOAD DUP2 LT PUSH2 0x1253 JUMPI PUSH2 0x1252 PUSH2 0x1D5B JUMP JUMPDEST JUMPDEST PUSH1 0x20 MUL PUSH1 0x20 ADD ADD SWAP1 PUSH1 0xFF AND SWAP1 DUP2 PUSH1 0xFF AND DUP2 MSTORE POP POP PUSH1 0x4 DUP2 PUSH1 0x2 DUP2 MLOAD DUP2 LT PUSH2 0x127D JUMPI PUSH2 0x127C PUSH2 0x1D5B JUMP JUMPDEST JUMPDEST PUSH1 0x20 MUL PUSH1 0x20 ADD ADD SWAP1 PUSH1 0xFF AND SWAP1 DUP2 PUSH1 0xFF AND DUP2 MSTORE POP POP PUSH2 0x16B3 JUMP JUMPDEST PUSH1 0xE DUP4 SUB PUSH2 0x1320 JUMPI PUSH1 0x5 DUP2 PUSH0 DUP2 MLOAD DUP2 LT PUSH2 0x12B3 JUMPI PUSH2 0x12B2 PUSH2 0x1D5B JUMP JUMPDEST JUMPDEST PUSH1 0x20 MUL PUSH1 0x20 ADD ADD SWAP1 PUSH1 0xFF AND SWAP1 DUP2 PUSH1 0xFF AND DUP2 MSTORE POP POP PUSH1 0x5 DUP2 PUSH1 0x1 DUP2 MLOAD DUP2 LT PUSH2 0x12DD JUMPI PUSH2 0x12DC PUSH2 0x1D5B JUMP JUMPDEST JUMPDEST PUSH1 0x20 MUL PUSH1 0x20 ADD ADD SWAP1 PUSH1 0xFF AND SWAP1 DUP2 PUSH1 0xFF AND DUP2 MSTORE POP POP PUSH1 0x4 DUP2 PUSH1 0x2 DUP2 MLOAD DUP2 LT PUSH2 0x1307 JUMPI PUSH2 0x1306 PUSH2 0x1D5B JUMP JUMPDEST JUMPDEST PUSH1 0x20 MUL PUSH1 0x20 ADD ADD SWAP1 PUSH1 0xFF AND SWAP1 DUP2 PUSH1 0xFF AND DUP2 MSTORE POP POP PUSH2 0x16B2 JUMP JUMPDEST PUSH1 0xF DUP4 SUB PUSH2 0x13AA JUMPI PUSH1 0x5 DUP2 PUSH0 DUP2 MLOAD DUP2 LT PUSH2 0x133D JUMPI PUSH2 0x133C PUSH2 0x1D5B JUMP JUMPDEST JUMPDEST PUSH1 0x20 MUL PUSH1 0x20 ADD ADD SWAP1 PUSH1 0xFF AND SWAP1 DUP2 PUSH1 0xFF AND DUP2 MSTORE POP POP PUSH1 0x5 DUP2 PUSH1 0x1 DUP2 MLOAD DUP2 LT PUSH2 0x1367 JUMPI PUSH2 0x1366 PUSH2 0x1D5B JUMP JUMPDEST JUMPDEST PUSH1 0x20 MUL PUSH1 0x20 ADD ADD SWAP1 PUSH1 0xFF AND SWAP1 DUP2 PUSH1 0xFF AND DUP2 MSTORE POP POP PUSH1 0x5 DUP2 PUSH1 0x2 DUP2 MLOAD DUP2 LT PUSH2 0x1391 JUMPI PUSH2 0x1390 PUSH2 0x1D5B JUMP JUMPDEST JUMPDEST PUSH1 0x20 MUL PUSH1 0x20 ADD ADD SWAP1 PUSH1 0xFF AND SWAP1 DUP2 PUSH1 0xFF AND DUP2 MSTORE POP POP PUSH2 0x16B1 JUMP JUMPDEST PUSH1 0x10 DUP4 SUB PUSH2 0x1434 JUMPI PUSH1 0x6 DUP2 PUSH0 DUP2 MLOAD DUP2 LT PUSH2 0x13C7 JUMPI PUSH2 0x13C6 PUSH2 0x1D5B JUMP JUMPDEST JUMPDEST PUSH1 0x20 MUL PUSH1 0x20 ADD ADD SWAP1 PUSH1 0xFF AND SWAP1 DUP2 PUSH1 0xFF AND DUP2 MSTORE POP POP PUSH1 0x5 DUP2 PUSH1 0x1 DUP2 MLOAD DUP2 LT PUSH2 0x13F1 JUMPI PUSH2 0x13F0 PUSH2 0x1D5B JUMP JUMPDEST JUMPDEST PUSH1 0x20 MUL PUSH1 0x20 ADD ADD SWAP1 PUSH1 0xFF AND SWAP1 DUP2 PUSH1 0xFF AND DUP2 MSTORE POP POP PUSH1 0x5 DUP2 PUSH1 0x2 DUP2 MLOAD DUP2 LT PUSH2 0x141B JUMPI PUSH2 0x141A PUSH2 0x1D5B JUMP JUMPDEST JUMPDEST PUSH1 0x20 MUL PUSH1 0x20 ADD ADD SWAP1 PUSH1 0xFF AND SWAP1 DUP2 PUSH1 0xFF AND DUP2 MSTORE POP POP PUSH2 0x16B0 JUMP JUMPDEST PUSH1 0x11 DUP4 SUB PUSH2 0x14BE JUMPI PUSH1 0x6 DUP2 PUSH0 DUP2 MLOAD DUP2 LT PUSH2 0x1451 JUMPI PUSH2 0x1450 PUSH2 0x1D5B JUMP JUMPDEST JUMPDEST PUSH1 0x20 MUL PUSH1 0x20 ADD ADD SWAP1 PUSH1 0xFF AND SWAP1 DUP2 PUSH1 0xFF AND DUP2 MSTORE POP POP PUSH1 0x6 DUP2 PUSH1 0x1 DUP2 MLOAD DUP2 LT PUSH2 0x147B JUMPI PUSH2 0x147A PUSH2 0x1D5B JUMP JUMPDEST JUMPDEST PUSH1 0x20 MUL PUSH1 0x20 ADD ADD SWAP1 PUSH1 0xFF AND SWAP1 DUP2 PUSH1 0xFF AND DUP2 MSTORE POP POP PUSH1 0x5 DUP2 PUSH1 0x2 DUP2 MLOAD DUP2 LT PUSH2 0x14A5 JUMPI PUSH2 0x14A4 PUSH2 0x1D5B JUMP JUMPDEST JUMPDEST PUSH1 0x20 MUL PUSH1 0x20 ADD ADD SWAP1 PUSH1 0xFF AND SWAP1 DUP2 PUSH1 0xFF AND DUP2 MSTORE POP POP PUSH2 0x16AF JUMP JUMPDEST PUSH1 0x12 DUP4 SUB PUSH2 0x1548 JUMPI PUSH1 0x6 DUP2 PUSH0 DUP2 MLOAD DUP2 LT PUSH2 0x14DB JUMPI PUSH2 0x14DA PUSH2 0x1D5B JUMP JUMPDEST JUMPDEST PUSH1 0x20 MUL PUSH1 0x20 ADD ADD SWAP1 PUSH1 0xFF AND SWAP1 DUP2 PUSH1 0xFF AND DUP2 MSTORE POP POP PUSH1 0x6 DUP2 PUSH1 0x1 DUP2 MLOAD DUP2 LT PUSH2 0x1505 JUMPI PUSH2 0x1504 PUSH2 0x1D5B JUMP JUMPDEST JUMPDEST PUSH1 0x20 MUL PUSH1 0x20 ADD ADD SWAP1 PUSH1 0xFF AND SWAP1 DUP2 PUSH1 0xFF AND DUP2 MSTORE POP POP PUSH1 0x6 DUP2 PUSH1 0x2 DUP2 MLOAD DUP2 LT PUSH2 0x152F JUMPI PUSH2 0x152E PUSH2 0x1D5B JUMP JUMPDEST JUMPDEST PUSH1 0x20 MUL PUSH1 0x20 ADD ADD SWAP1 PUSH1 0xFF AND SWAP1 DUP2 PUSH1 0xFF AND DUP2 MSTORE POP POP PUSH2 0x16AE JUMP JUMPDEST PUSH1 0x13 DUP4 SUB PUSH2 0x15FC JUMPI PUSH1 0x5 DUP2 PUSH0 DUP2 MLOAD DUP2 LT PUSH2 0x1565 JUMPI PUSH2 0x1564 PUSH2 0x1D5B JUMP JUMPDEST JUMPDEST PUSH1 0x20 MUL PUSH1 0x20 ADD ADD SWAP1 PUSH1 0xFF AND SWAP1 DUP2 PUSH1 0xFF AND DUP2 MSTORE POP POP PUSH1 0x5 DUP2 PUSH1 0x1 DUP2 MLOAD DUP2 LT PUSH2 0x158F JUMPI PUSH2 0x158E PUSH2 0x1D5B JUMP JUMPDEST JUMPDEST PUSH1 0x20 MUL PUSH1 0x20 ADD ADD SWAP1 PUSH1 0xFF AND SWAP1 DUP2 PUSH1 0xFF AND DUP2 MSTORE POP POP PUSH1 0x5 DUP2 PUSH1 0x2 DUP2 MLOAD DUP2 LT PUSH2 0x15B9 JUMPI PUSH2 0x15B8 PUSH2 0x1D5B JUMP JUMPDEST JUMPDEST PUSH1 0x20 MUL PUSH1 0x20 ADD ADD SWAP1 PUSH1 0xFF AND SWAP1 DUP2 PUSH1 0xFF AND DUP2 MSTORE POP POP PUSH1 0x4 DUP2 PUSH1 0x3 DUP2 MLOAD DUP2 LT PUSH2 0x15E3 JUMPI PUSH2 0x15E2 PUSH2 0x1D5B JUMP JUMPDEST JUMPDEST PUSH1 0x20 MUL PUSH1 0x20 ADD ADD SWAP1 PUSH1 0xFF AND SWAP1 DUP2 PUSH1 0xFF AND DUP2 MSTORE POP POP PUSH2 0x16AD JUMP JUMPDEST PUSH1 0x14 DUP4 SUB PUSH2 0x16AC JUMPI PUSH1 0x5 DUP2 PUSH0 DUP2 MLOAD DUP2 LT PUSH2 0x1619 JUMPI PUSH2 0x1618 PUSH2 0x1D5B JUMP JUMPDEST JUMPDEST PUSH1 0x20 MUL PUSH1 0x20 ADD ADD SWAP1 PUSH1 0xFF AND SWAP1 DUP2 PUSH1 0xFF AND DUP2 MSTORE POP POP PUSH1 0x5 DUP2 PUSH1 0x1 DUP2 MLOAD DUP2 LT PUSH2 0x1643 JUMPI PUSH2 0x1642 PUSH2 0x1D5B JUMP JUMPDEST JUMPDEST PUSH1 0x20 MUL PUSH1 0x20 ADD ADD SWAP1 PUSH1 0xFF AND SWAP1 DUP2 PUSH1 0xFF AND DUP2 MSTORE POP POP PUSH1 0x5 DUP2 PUSH1 0x2 DUP2 MLOAD DUP2 LT PUSH2 0x166D JUMPI PUSH2 0x166C PUSH2 0x1D5B JUMP JUMPDEST JUMPDEST PUSH1 0x20 MUL PUSH1 0x20 ADD ADD SWAP1 PUSH1 0xFF AND SWAP1 DUP2 PUSH1 0xFF AND DUP2 MSTORE POP POP PUSH1 0x5 DUP2 PUSH1 0x3 DUP2 MLOAD DUP2 LT PUSH2 0x1697 JUMPI PUSH2 0x1696 PUSH2 0x1D5B JUMP JUMPDEST JUMPDEST PUSH1 0x20 MUL PUSH1 0x20 ADD ADD SWAP1 PUSH1 0xFF AND SWAP1 DUP2 PUSH1 0xFF AND DUP2 MSTORE POP POP JUMPDEST JUMPDEST JUMPDEST JUMPDEST JUMPDEST JUMPDEST JUMPDEST JUMPDEST JUMPDEST JUMPDEST JUMPDEST JUMPDEST JUMPDEST JUMPDEST JUMPDEST JUMPDEST JUMPDEST JUMPDEST JUMPDEST JUMPDEST DUP1 SWAP2 POP POP SWAP2 SWAP1 POP JUMP JUMPDEST PUSH1 0x60 PUSH0 PUSH1 0x6 PUSH1 0x5 DUP5 PUSH2 0x16DA SWAP2 SWAP1 PUSH2 0x1F26 JUMP JUMPDEST PUSH2 0x16E4 SWAP2 SWAP1 PUSH2 0x2039 JUMP JUMPDEST PUSH8 0xFFFFFFFFFFFFFFFF DUP2 GT ISZERO PUSH2 0x16FD JUMPI PUSH2 0x16FC PUSH2 0x1AD0 JUMP JUMPDEST JUMPDEST PUSH1 0x40 MLOAD SWAP1 DUP1 DUP3 MSTORE DUP1 PUSH1 0x20 MUL PUSH1 0x20 ADD DUP3 ADD PUSH1 0x40 MSTORE DUP1 ISZERO PUSH2 0x172B JUMPI DUP2 PUSH1 0x20 ADD PUSH1 0x20 DUP3 MUL DUP1 CALLDATASIZE DUP4 CALLDATACOPY DUP1 DUP3 ADD SWAP2 POP POP SWAP1 POP JUMPDEST POP SWAP1 POP PUSH0 DUP1 JUMPDEST PUSH0 DUP6 GT ISZERO PUSH2 0x180D JUMPI PUSH0 PUSH1 0x6 DUP7 PUSH2 0x1747 SWAP2 SWAP1 PUSH2 0x1FE2 JUMP JUMPDEST EQ ISZERO DUP1 ISZERO PUSH2 0x1758 JUMPI POP PUSH1 0x5 DUP2 PUSH1 0xFF AND LT JUMPDEST ISZERO PUSH2 0x17B4 JUMPI PUSH1 0x5 DUP4 DUP4 DUP1 PUSH2 0x176B SWAP1 PUSH2 0x1E1D JUMP JUMPDEST SWAP5 POP DUP2 MLOAD DUP2 LT PUSH2 0x177E JUMPI PUSH2 0x177D PUSH2 0x1D5B JUMP JUMPDEST JUMPDEST PUSH1 0x20 MUL PUSH1 0x20 ADD ADD SWAP1 PUSH1 0xFF AND SWAP1 DUP2 PUSH1 0xFF AND DUP2 MSTORE POP POP PUSH1 0x5 DUP6 PUSH2 0x179F SWAP2 SWAP1 PUSH2 0x1E64 JUMP JUMPDEST SWAP5 POP DUP1 DUP1 PUSH2 0x17AC SWAP1 PUSH2 0x2075 JUMP JUMPDEST SWAP2 POP POP PUSH2 0x1808 JUMP JUMPDEST PUSH1 0x6 DUP4 DUP4 DUP1 PUSH2 0x17C2 SWAP1 PUSH2 0x1E1D JUMP JUMPDEST SWAP5 POP DUP2 MLOAD DUP2 LT PUSH2 0x17D5 JUMPI PUSH2 0x17D4 PUSH2 0x1D5B JUMP JUMPDEST JUMPDEST PUSH1 0x20 MUL PUSH1 0x20 ADD ADD SWAP1 PUSH1 0xFF AND SWAP1 DUP2 PUSH1 0xFF AND DUP2 MSTORE POP POP PUSH1 0x6 DUP6 PUSH2 0x17F6 SWAP2 SWAP1 PUSH2 0x1E64 JUMP JUMPDEST SWAP5 POP PUSH1 0x5 DUP2 PUSH1 0xFF AND SUB PUSH2 0x1807 JUMPI PUSH0 SWAP1 POP JUMPDEST JUMPDEST PUSH2 0x1731 JUMP JUMPDEST DUP2 DUP4 MSTORE DUP3 SWAP4 POP POP POP POP SWAP2 SWAP1 POP JUMP JUMPDEST POP DUP1 SLOAD PUSH0 DUP3 SSTORE SWAP1 PUSH0 MSTORE PUSH1 0x20 PUSH0 KECCAK256 SWAP1 DUP2 ADD SWAP1 PUSH2 0x1836 SWAP2 SWAP1 PUSH2 0x18C0 JUMP JUMPDEST POP JUMP JUMPDEST DUP3 DUP1 SLOAD DUP3 DUP3 SSTORE SWAP1 PUSH0 MSTORE PUSH1 0x20 PUSH0 KECCAK256 SWAP1 DUP2 ADD SWAP3 DUP3 ISZERO PUSH2 0x18AF JUMPI SWAP2 PUSH1 0x20 MUL DUP3 ADD JUMPDEST DUP3 DUP2 GT ISZERO PUSH2 0x18AE JUMPI DUP3 MLOAD DUP3 PUSH0 PUSH2 0x100 EXP DUP2 SLOAD DUP2 PUSH20 0xFFFFFFFFFFFFFFFFFFFFFFFFFFFFFFFFFFFFFFFF MUL NOT AND SWAP1 DUP4 PUSH20 0xFFFFFFFFFFFFFFFFFFFFFFFFFFFFFFFFFFFFFFFF AND MUL OR SWAP1 SSTORE POP SWAP2 PUSH1 0x20 ADD SWAP2 SWAP1 PUSH1 0x1 ADD SWAP1 PUSH2 0x1857 JUMP JUMPDEST JUMPDEST POP SWAP1 POP PUSH2 0x18BC SWAP2 SWAP1 PUSH2 0x18E5 JUMP JUMPDEST POP SWAP1 JUMP JUMPDEST JUMPDEST DUP1 DUP3 GT ISZERO PUSH2 0x18E1 JUMPI PUSH0 DUP1 DUP3 ADD PUSH0 PUSH2 0x18D8 SWAP2 SWAP1 PUSH2 0x1900 JUMP JUMPDEST POP PUSH1 0x1 ADD PUSH2 0x18C1 JUMP JUMPDEST POP SWAP1 JUMP JUMPDEST JUMPDEST DUP1 DUP3 GT ISZERO PUSH2 0x18FC JUMPI PUSH0 DUP2 PUSH0 SWAP1 SSTORE POP PUSH1 0x1 ADD PUSH2 0x18E6 JUMP JUMPDEST POP SWAP1 JUMP JUMPDEST POP DUP1 SLOAD PUSH0 DUP3 SSTORE SWAP1 PUSH0 MSTORE PUSH1 0x20 PUSH0 KECCAK256 SWAP1 DUP2 ADD SWAP1 PUSH2 0x191B SWAP2 SWAP1 PUSH2 0x18E5 JUMP JUMPDEST POP JUMP JUMPDEST PUSH0 DUP2 SWAP1 POP SWAP2 SWAP1 POP JUMP JUMPDEST PUSH2 0x1930 DUP2 PUSH2 0x191E JUMP JUMPDEST DUP3 MSTORE POP POP JUMP JUMPDEST PUSH0 PUSH1 0x20 DUP3 ADD SWAP1 POP PUSH2 0x1949 PUSH0 DUP4 ADD DUP5 PUSH2 0x1927 JUMP JUMPDEST SWAP3 SWAP2 POP POP JUMP JUMPDEST PUSH0 PUSH1 0x40 MLOAD SWAP1 POP SWAP1 JUMP JUMPDEST PUSH0 DUP1 REVERT JUMPDEST PUSH0 DUP1 REVERT JUMPDEST PUSH2 0x1969 DUP2 PUSH2 0x191E JUMP JUMPDEST DUP2 EQ PUSH2 0x1973 JUMPI PUSH0 DUP1 REVERT JUMPDEST POP JUMP JUMPDEST PUSH0 DUP2 CALLDATALOAD SWAP1 POP PUSH2 0x1984 DUP2 PUSH2 0x1960 JUMP JUMPDEST SWAP3 SWAP2 POP POP JUMP JUMPDEST PUSH0 PUSH1 0x20 DUP3 DUP5 SUB SLT ISZERO PUSH2 0x199F JUMPI PUSH2 0x199E PUSH2 0x1958 JUMP JUMPDEST JUMPDEST PUSH0 PUSH2 0x19AC DUP5 DUP3 DUP6 ADD PUSH2 0x1976 JUMP JUMPDEST SWAP2 POP POP SWAP3 SWAP2 POP POP JUMP JUMPDEST PUSH0 DUP2 MLOAD SWAP1 POP SWAP2 SWAP1 POP JUMP JUMPDEST PUSH0 DUP3 DUP3 MSTORE PUSH1 0x20 DUP3 ADD SWAP1 POP SWAP3 SWAP2 POP POP JUMP JUMPDEST PUSH0 DUP2 SWAP1 POP PUSH1 0x20 DUP3 ADD SWAP1 POP SWAP2 SWAP1 POP JUMP JUMPDEST PUSH0 PUSH20 0xFFFFFFFFFFFFFFFFFFFFFFFFFFFFFFFFFFFFFFFF DUP3 AND SWAP1 POP SWAP2 SWAP1 POP JUMP JUMPDEST PUSH0 PUSH2 0x1A07 DUP3 PUSH2 0x19DE JUMP JUMPDEST SWAP1 POP SWAP2 SWAP1 POP JUMP JUMPDEST PUSH2 0x1A17 DUP2 PUSH2 0x19FD JUMP JUMPDEST DUP3 MSTORE POP POP JUMP JUMPDEST PUSH0 PUSH2 0x1A28 DUP4 DUP4 PUSH2 0x1A0E JUMP JUMPDEST PUSH1 0x20 DUP4 ADD SWAP1 POP SWAP3 SWAP2 POP POP JUMP JUMPDEST PUSH0 PUSH1 0x20 DUP3 ADD SWAP1 POP SWAP2 SWAP1 POP JUMP JUMPDEST PUSH0 PUSH2 0x1A4A DUP3 PUSH2 0x19B5 JUMP JUMPDEST PUSH2 0x1A54 DUP2 DUP6 PUSH2 0x19BF JUMP JUMPDEST SWAP4 POP PUSH2 0x1A5F DUP4 PUSH2 0x19CF JUMP JUMPDEST DUP1 PUSH0 JUMPDEST DUP4 DUP2 LT ISZERO PUSH2 0x1A8F JUMPI DUP2 MLOAD PUSH2 0x1A76 DUP9 DUP3 PUSH2 0x1A1D JUMP JUMPDEST SWAP8 POP PUSH2 0x1A81 DUP4 PUSH2 0x1A34 JUMP JUMPDEST SWAP3 POP POP PUSH1 0x1 DUP2 ADD SWAP1 POP PUSH2 0x1A62 JUMP JUMPDEST POP DUP6 SWAP4 POP POP POP POP SWAP3 SWAP2 POP POP JUMP JUMPDEST PUSH0 PUSH1 0x20 DUP3 ADD SWAP1 POP DUP2 DUP2 SUB PUSH0 DUP4 ADD MSTORE PUSH2 0x1AB4 DUP2 DUP5 PUSH2 0x1A40 JUMP JUMPDEST SWAP1 POP SWAP3 SWAP2 POP POP JUMP JUMPDEST PUSH0 DUP1 REVERT JUMPDEST PUSH0 PUSH1 0x1F NOT PUSH1 0x1F DUP4 ADD AND SWAP1 POP SWAP2 SWAP1 POP JUMP JUMPDEST PUSH32 0x4E487B7100000000000000000000000000000000000000000000000000000000 PUSH0 MSTORE PUSH1 0x41 PUSH1 0x4 MSTORE PUSH1 0x24 PUSH0 REVERT JUMPDEST PUSH2 0x1B06 DUP3 PUSH2 0x1AC0 JUMP JUMPDEST DUP2 ADD DUP2 DUP2 LT PUSH8 0xFFFFFFFFFFFFFFFF DUP3 GT OR ISZERO PUSH2 0x1B25 JUMPI PUSH2 0x1B24 PUSH2 0x1AD0 JUMP JUMPDEST JUMPDEST DUP1 PUSH1 0x40 MSTORE POP POP POP JUMP JUMPDEST PUSH0 PUSH2 0x1B37 PUSH2 0x194F JUMP JUMPDEST SWAP1 POP PUSH2 0x1B43 DUP3 DUP3 PUSH2 0x1AFD JUMP JUMPDEST SWAP2 SWAP1 POP JUMP JUMPDEST PUSH0 PUSH8 0xFFFFFFFFFFFFFFFF DUP3 GT ISZERO PUSH2 0x1B62 JUMPI PUSH2 0x1B61 PUSH2 0x1AD0 JUMP JUMPDEST JUMPDEST PUSH1 0x20 DUP3 MUL SWAP1 POP PUSH1 0x20 DUP2 ADD SWAP1 POP SWAP2 SWAP1 POP JUMP JUMPDEST PUSH0 DUP1 REVERT JUMPDEST PUSH2 0x1B80 DUP2 PUSH2 0x19FD JUMP JUMPDEST DUP2 EQ PUSH2 0x1B8A JUMPI PUSH0 DUP1 REVERT JUMPDEST POP JUMP JUMPDEST PUSH0 DUP2 CALLDATALOAD SWAP1 POP PUSH2 0x1B9B DUP2 PUSH2 0x1B77 JUMP JUMPDEST SWAP3 SWAP2 POP POP JUMP JUMPDEST PUSH0 PUSH2 0x1BB3 PUSH2 0x1BAE DUP5 PUSH2 0x1B48 JUMP JUMPDEST PUSH2 0x1B2E JUMP JUMPDEST SWAP1 POP DUP1 DUP4 DUP3 MSTORE PUSH1 0x20 DUP3 ADD SWAP1 POP PUSH1 0x20 DUP5 MUL DUP4 ADD DUP6 DUP2 GT ISZERO PUSH2 0x1BD6 JUMPI PUSH2 0x1BD5 PUSH2 0x1B73 JUMP JUMPDEST JUMPDEST DUP4 JUMPDEST DUP2 DUP2 LT ISZERO PUSH2 0x1BFF JUMPI DUP1 PUSH2 0x1BEB DUP9 DUP3 PUSH2 0x1B8D JUMP JUMPDEST DUP5 MSTORE PUSH1 0x20 DUP5 ADD SWAP4 POP POP PUSH1 0x20 DUP2 ADD SWAP1 POP PUSH2 0x1BD8 JUMP JUMPDEST POP POP POP SWAP4 SWAP3 POP POP POP JUMP JUMPDEST PUSH0 DUP3 PUSH1 0x1F DUP4 ADD SLT PUSH2 0x1C1D JUMPI PUSH2 0x1C1C PUSH2 0x1ABC JUMP JUMPDEST JUMPDEST DUP2 CALLDATALOAD PUSH2 0x1C2D DUP5 DUP3 PUSH1 0x20 DUP7 ADD PUSH2 0x1BA1 JUMP JUMPDEST SWAP2 POP POP SWAP3 SWAP2 POP POP JUMP JUMPDEST PUSH0 PUSH1 0x20 DUP3 DUP5 SUB SLT ISZERO PUSH2 0x1C4B JUMPI PUSH2 0x1C4A PUSH2 0x1958 JUMP JUMPDEST JUMPDEST PUSH0 DUP3 ADD CALLDATALOAD PUSH8 0xFFFFFFFFFFFFFFFF DUP2 GT ISZERO PUSH2 0x1C68 JUMPI PUSH2 0x1C67 PUSH2 0x195C JUMP JUMPDEST JUMPDEST PUSH2 0x1C74 DUP5 DUP3 DUP6 ADD PUSH2 0x1C09 JUMP JUMPDEST SWAP2 POP POP SWAP3 SWAP2 POP POP JUMP JUMPDEST PUSH0 DUP1 PUSH1 0x40 DUP4 DUP6 SUB SLT ISZERO PUSH2 0x1C93 JUMPI PUSH2 0x1C92 PUSH2 0x1958 JUMP JUMPDEST JUMPDEST PUSH0 PUSH2 0x1CA0 DUP6 DUP3 DUP7 ADD PUSH2 0x1976 JUMP JUMPDEST SWAP3 POP POP PUSH1 0x20 PUSH2 0x1CB1 DUP6 DUP3 DUP7 ADD PUSH2 0x1976 JUMP JUMPDEST SWAP2 POP POP SWAP3 POP SWAP3 SWAP1 POP JUMP JUMPDEST PUSH2 0x1CC4 DUP2 PUSH2 0x19FD JUMP JUMPDEST DUP3 MSTORE POP POP JUMP JUMPDEST PUSH0 PUSH1 0x20 DUP3 ADD SWAP1 POP PUSH2 0x1CDD PUSH0 DUP4 ADD DUP5 PUSH2 0x1CBB JUMP JUMPDEST SWAP3 SWAP2 POP POP JUMP JUMPDEST PUSH0 DUP3 DUP3 MSTORE PUSH1 0x20 DUP3 ADD SWAP1 POP SWAP3 SWAP2 POP POP JUMP JUMPDEST PUSH32 0x47726F757020696E646578206F7574206F6620626F756E647300000000000000 PUSH0 DUP3 ADD MSTORE POP JUMP JUMPDEST PUSH0 PUSH2 0x1D27 PUSH1 0x19 DUP4 PUSH2 0x1CE3 JUMP JUMPDEST SWAP2 POP PUSH2 0x1D32 DUP3 PUSH2 0x1CF3 JUMP JUMPDEST PUSH1 0x20 DUP3 ADD SWAP1 POP SWAP2 SWAP1 POP JUMP JUMPDEST PUSH0 PUSH1 0x20 DUP3 ADD SWAP1 POP DUP2 DUP2 SUB PUSH0 DUP4 ADD MSTORE PUSH2 0x1D54 DUP2 PUSH2 0x1D1B JUMP JUMPDEST SWAP1 POP SWAP2 SWAP1 POP JUMP JUMPDEST PUSH32 0x4E487B7100000000000000000000000000000000000000000000000000000000 PUSH0 MSTORE PUSH1 0x32 PUSH1 0x4 MSTORE PUSH1 0x24 PUSH0 REVERT JUMPDEST PUSH32 0x4E6F207061727469636970616E74730000000000000000000000000000000000 PUSH0 DUP3 ADD MSTORE POP JUMP JUMPDEST PUSH0 PUSH2 0x1DBC PUSH1 0xF DUP4 PUSH2 0x1CE3 JUMP JUMPDEST SWAP2 POP PUSH2 0x1DC7 DUP3 PUSH2 0x1D88 JUMP JUMPDEST PUSH1 0x20 DUP3 ADD SWAP1 POP SWAP2 SWAP1 POP JUMP JUMPDEST PUSH0 PUSH1 0x20 DUP3 ADD SWAP1 POP DUP2 DUP2 SUB PUSH0 DUP4 ADD MSTORE PUSH2 0x1DE9 DUP2 PUSH2 0x1DB0 JUMP JUMPDEST SWAP1 POP SWAP2 SWAP1 POP JUMP JUMPDEST PUSH32 0x4E487B7100000000000000000000000000000000000000000000000000000000 PUSH0 MSTORE PUSH1 0x11 PUSH1 0x4 MSTORE PUSH1 0x24 PUSH0 REVERT JUMPDEST PUSH0 PUSH2 0x1E27 DUP3 PUSH2 0x191E JUMP JUMPDEST SWAP2 POP PUSH32 0xFFFFFFFFFFFFFFFFFFFFFFFFFFFFFFFFFFFFFFFFFFFFFFFFFFFFFFFFFFFFFFFF DUP3 SUB PUSH2 0x1E59 JUMPI PUSH2 0x1E58 PUSH2 0x1DF0 JUMP JUMPDEST JUMPDEST PUSH1 0x1 DUP3 ADD SWAP1 POP SWAP2 SWAP1 POP JUMP JUMPDEST PUSH0 PUSH2 0x1E6E DUP3 PUSH2 0x191E JUMP JUMPDEST SWAP2 POP PUSH2 0x1E79 DUP4 PUSH2 0x191E JUMP JUMPDEST SWAP3 POP DUP3 DUP3 SUB SWAP1 POP DUP2 DUP2 GT ISZERO PUSH2 0x1E91 JUMPI PUSH2 0x1E90 PUSH2 0x1DF0 JUMP JUMPDEST JUMPDEST SWAP3 SWAP2 POP POP JUMP JUMPDEST PUSH0 PUSH1 0x40 DUP3 ADD SWAP1 POP PUSH2 0x1EAA PUSH0 DUP4 ADD DUP6 PUSH2 0x1927 JUMP JUMPDEST PUSH2 0x1EB7 PUSH1 0x20 DUP4 ADD DUP5 PUSH2 0x1927 JUMP JUMPDEST SWAP4 SWAP3 POP POP POP JUMP JUMPDEST PUSH32 0x4D656D62657220696E646578206F7574206F6620626F756E6473000000000000 PUSH0 DUP3 ADD MSTORE POP JUMP JUMPDEST PUSH0 PUSH2 0x1EF2 PUSH1 0x1A DUP4 PUSH2 0x1CE3 JUMP JUMPDEST SWAP2 POP PUSH2 0x1EFD DUP3 PUSH2 0x1EBE JUMP JUMPDEST PUSH1 0x20 DUP3 ADD SWAP1 POP SWAP2 SWAP1 POP JUMP JUMPDEST PUSH0 PUSH1 0x20 DUP3 ADD SWAP1 POP DUP2 DUP2 SUB PUSH0 DUP4 ADD MSTORE PUSH2 0x1F1F DUP2 PUSH2 0x1EE6 JUMP JUMPDEST SWAP1 POP SWAP2 SWAP1 POP JUMP JUMPDEST PUSH0 PUSH2 0x1F30 DUP3 PUSH2 0x191E JUMP JUMPDEST SWAP2 POP PUSH2 0x1F3B DUP4 PUSH2 0x191E JUMP JUMPDEST SWAP3 POP DUP3 DUP3 ADD SWAP1 POP DUP1 DUP3 GT ISZERO PUSH2 0x1F53 JUMPI PUSH2 0x1F52 PUSH2 0x1DF0 JUMP JUMPDEST JUMPDEST SWAP3 SWAP2 POP POP JUMP JUMPDEST PUSH0 DUP2 SWAP1 POP SWAP2 SWAP1 POP JUMP JUMPDEST PUSH2 0x1F73 PUSH2 0x1F6E DUP3 PUSH2 0x191E JUMP JUMPDEST PUSH2 0x1F59 JUMP JUMPDEST DUP3 MSTORE POP POP JUMP JUMPDEST PUSH0 PUSH2 0x1F84 DUP3 DUP7 PUSH2 0x1F62 JUMP JUMPDEST PUSH1 0x20 DUP3 ADD SWAP2 POP PUSH2 0x1F94 DUP3 DUP6 PUSH2 0x1F62 JUMP JUMPDEST PUSH1 0x20 DUP3 ADD SWAP2 POP PUSH2 0x1FA4 DUP3 DUP5 PUSH2 0x1F62 JUMP JUMPDEST PUSH1 0x20 DUP3 ADD SWAP2 POP DUP2 SWAP1 POP SWAP5 SWAP4 POP POP POP POP JUMP JUMPDEST PUSH32 0x4E487B7100000000000000000000000000000000000000000000000000000000 PUSH0 MSTORE PUSH1 0x12 PUSH1 0x4 MSTORE PUSH1 0x24 PUSH0 REVERT JUMPDEST PUSH0 PUSH2 0x1FEC DUP3 PUSH2 0x191E JUMP JUMPDEST SWAP2 POP PUSH2 0x1FF7 DUP4 PUSH2 0x191E JUMP JUMPDEST SWAP3 POP DUP3 PUSH2 0x2007 JUMPI PUSH2 0x2006 PUSH2 0x1FB5 JUMP JUMPDEST JUMPDEST DUP3 DUP3 MOD SWAP1 POP SWAP3 SWAP2 POP POP JUMP JUMPDEST PUSH0 PUSH2 0x201C DUP3 PUSH2 0x191E JUMP JUMPDEST SWAP2 POP PUSH0 DUP3 SUB PUSH2 0x202E JUMPI PUSH2 0x202D PUSH2 0x1DF0 JUMP JUMPDEST JUMPDEST PUSH1 0x1 DUP3 SUB SWAP1 POP SWAP2 SWAP1 POP JUMP JUMPDEST PUSH0 PUSH2 0x2043 DUP3 PUSH2 0x191E JUMP JUMPDEST SWAP2 POP PUSH2 0x204E DUP4 PUSH2 0x191E JUMP JUMPDEST SWAP3 POP DUP3 PUSH2 0x205E JUMPI PUSH2 0x205D PUSH2 0x1FB5 JUMP JUMPDEST JUMPDEST DUP3 DUP3 DIV SWAP1 POP SWAP3 SWAP2 POP POP JUMP JUMPDEST PUSH0 PUSH1 0xFF DUP3 AND SWAP1 POP SWAP2 SWAP1 POP JUMP JUMPDEST PUSH0 PUSH2 0x207F DUP3 PUSH2 0x2069 JUMP JUMPDEST SWAP2 POP PUSH1 0xFF DUP3 SUB PUSH2 0x2092 JUMPI PUSH2 0x2091 PUSH2 0x1DF0 JUMP JUMPDEST JUMPDEST PUSH1 0x1 DUP3 ADD SWAP1 POP SWAP2 SWAP1 POP JUMP INVALID LOG2 PUSH5 0x6970667358 0x22 SLT KECCAK256 SWAP10 DUP9 0xEA 0x24 DUP1 CALLDATACOPY SMOD LOG3 LOG3 0xEA 0xA6 DUP6 GASPRICE 0x4E MCOPY LOG4 0xA5 0x24 GASLIMIT PUSH22 0x8C20288B32DD940B5FFB7CCF64736F6C634300081A00 CALLER "
				},
				"gasEstimates": {
					"creation": {
						"codeDepositCost": "1680600",
						"executionCost": "1762",
						"totalCost": "1682362"
					},
					"external": {
						"createGroups(address[])": "infinite",
						"getGroupCount()": "2418",
						"getGroupMember(uint256,uint256)": "infinite",
						"getGroupMembers(uint256)": "infinite",
						"getGroupSize(uint256)": "infinite"
					},
					"internal": {
						"determineRoomSizes(uint256)": "infinite",
						"genericRoomSizes(uint256)": "infinite",
						"hardcodedRoomSizes(uint256)": "infinite",
						"shuffle(address[] memory)": "infinite"
					}
				},
				"methodIdentifiers": {
					"createGroups(address[])": "3a40fea8",
					"getGroupCount()": "06545a93",
					"getGroupMember(uint256,uint256)": "71b44fc7",
					"getGroupMembers(uint256)": "36cc8130",
					"getGroupSize(uint256)": "9119ba1b"
				}
			},
			"storageLayout": {
				"storage": [
					{
						"astId": 10,
						"contract": "contracts/groupcreaiton.sol:GroupCreationTest",
						"label": "groups",
						"offset": 0,
						"slot": "0",
						"type": "t_array(t_struct(Group)6_storage)dyn_storage"
					}
				],
				"types": {
					"t_address": {
						"encoding": "inplace",
						"label": "address",
						"numberOfBytes": "20"
					},
					"t_array(t_address)dyn_storage": {
						"base": "t_address",
						"encoding": "dynamic_array",
						"label": "address[]",
						"numberOfBytes": "32"
					},
					"t_array(t_struct(Group)6_storage)dyn_storage": {
						"base": "t_struct(Group)6_storage",
						"encoding": "dynamic_array",
						"label": "struct GroupCreationTest.Group[]",
						"numberOfBytes": "32"
					},
					"t_struct(Group)6_storage": {
						"encoding": "inplace",
						"label": "struct GroupCreationTest.Group",
						"members": [
							{
								"astId": 5,
								"contract": "contracts/groupcreaiton.sol:GroupCreationTest",
								"label": "members",
								"offset": 0,
								"slot": "0",
								"type": "t_array(t_address)dyn_storage"
							}
						],
						"numberOfBytes": "32"
					}
				}
			},
			"userdoc": {
				"kind": "user",
				"methods": {},
				"version": 1
			}
		}
	}
}