{
	"data": {
		"bytecode": {
			"linkReferences": {},
			"object": "608060405234801561000f575f80fd5b506040516146b13803806146b1833981810160405281019061003191906100d4565b805f806101000a81548173ffffffffffffffffffffffffffffffffffffffff021916908373ffffffffffffffffffffffffffffffffffffffff160217905550506100ff565b5f80fd5b5f73ffffffffffffffffffffffffffffffffffffffff82169050919050565b5f6100a38261007a565b9050919050565b6100b381610099565b81146100bd575f80fd5b50565b5f815190506100ce816100aa565b92915050565b5f602082840312156100e9576100e8610076565b5b5f6100f6848285016100c0565b91505092915050565b6145a58061010c5f395ff3fe608060405234801561000f575f80fd5b50600436106100b2575f3560e01c80634fe038a21161006f5780634fe038a21461018d578063667f0e63146101bd578063690ec8d1146101ef5780637331fa951461020b578063771197d81461023b5780638ec2c82b14610259576100b2565b806306428f02146100b657806306545a93146100d4578063205b1946146100f257806332a41f3e1461012257806336cc8130146101415780633722a0e814610171575b5f80fd5b6100be610289565b6040516100cb9190612cd9565b60405180910390f35b6100dc6102ac565b6040516100e99190612d0a565b60405180910390f35b61010c60048036038101906101079190612d6f565b6102b8565b6040516101199190612db4565b60405180910390f35b61012a6102d5565b604051610138929190612e84565b60405180910390f35b61015b60048036038101906101569190612ee3565b610404565b6040516101689190612fc5565b60405180910390f35b61018b6004803603810190610186919061339e565b6104f4565b005b6101a760048036038101906101a291906133f8565b610ada565b6040516101b49190613436565b60405180910390f35b6101d760048036038101906101d29190613456565b610c10565b6040516101e6939291906136ff565b60405180910390f35b61020960048036038101906102049190612ee3565b61111b565b005b610225600480360381019061022091906133f8565b6112f7565b6040516102329190612d0a565b60405180910390f35b61024361131c565b604051610250919061380c565b60405180910390f35b610273600480360381019061026e919061382c565b611396565b6040516102809190612fc5565b60405180910390f35b5f8054906101000a900473ffffffffffffffffffffffffffffffffffffffff1681565b5f600280549050905090565b6004602052805f5260405f205f915054906101000a900460ff1681565b6060805f60028054905067ffffffffffffffff8111156102f8576102f7612ff9565b5b6040519080825280602002602001820160405280156103265781602001602082028036833780820191505090505b5090505f60028054905067ffffffffffffffff81111561034957610348612ff9565b5b6040519080825280602002602001820160405280156103775781602001602082028036833780820191505090505b5090505f5b6002805490508110156103f7578083828151811061039d5761039c61386a565b5b602002602001018181525050600281815481106103bd576103bc61386a565b5b905f5260205f20015f01805490508282815181106103de576103dd61386a565b5b602002602001018181525050808060010191505061037c565b5081819350935050509091565b6060600280549050821061044d576040517f08c379a0000000000000000000000000000000000000000000000000000000008152600401610444906138f1565b60405180910390fd5b600282815481106104615761046061386a565b5b905f5260205f20015f018054806020026020016040519081016040528092919081815260200182805480156104e857602002820191905f5260205f20905b815f9054906101000a900473ffffffffffffffffffffffffffffffffffffffff1673ffffffffffffffffffffffffffffffffffffffff168152602001906001019080831161049f575b50505050509050919050565b5f805f9054906101000a900473ffffffffffffffffffffffffffffffffffffffff1673ffffffffffffffffffffffffffffffffffffffff1663987ee156336040518263ffffffff1660e01b815260040161054e919061391e565b5f60405180830381865afa158015610568573d5f803e3d5ffd5b505050506040513d5f823e3d601f19601f8201168201806040525081019061059091906139a5565b505090505f8151116105d7576040517f08c379a00000000000000000000000000000000000000000000000000000000081526004016105ce90613ab9565b60405180910390fd5b5f805f8054906101000a900473ffffffffffffffffffffffffffffffffffffffff1673ffffffffffffffffffffffffffffffffffffffff16630b26ed7b33876040518363ffffffff1660e01b8152600401610633929190613ad7565b5f60405180830381865afa15801561064d573d5f803e3d5ffd5b505050506040513d5f823e3d601f19601f820116820180604052508101906106759190613c10565b509350505091505f82036106be576040517f08c379a00000000000000000000000000000000000000000000000000000000081526004016106b590613ced565b60405180910390fd5b806106fe576040517f08c379a00000000000000000000000000000000000000000000000000000000081526004016106f590613d7b565b60405180910390fd5b5f845111610741576040517f08c379a000000000000000000000000000000000000000000000000000000000815260040161073890613e09565b60405180910390fd5b5f805f9054906101000a900473ffffffffffffffffffffffffffffffffffffffff1673ffffffffffffffffffffffffffffffffffffffff166399664245876040518263ffffffff1660e01b815260040161079b9190612d0a565b5f60405180830381865afa1580156107b5573d5f803e3d5ffd5b505050506040513d5f823e3d601f19601f820116820180604052508101906107dd9190613e27565b9450505050505f8190505f60055f3373ffffffffffffffffffffffffffffffffffffffff1673ffffffffffffffffffffffffffffffffffffffff1681526020019081526020015f205f8981526020019081526020015f2090505f815f0154036108495787815f01819055505b5f816001015f8481526020019081526020015f209050806001015f61086e9190612981565b82815f01819055505f826002018054905014806108bc575082826002016001846002018054905061089f9190613f1f565b815481106108b0576108af61386a565b5b905f5260205f20015414155b156108ea578160020183908060018154018082558091505060019003905f5260205f20015f90919091909150555b5f5b88518110156109ee575f60405180606001604052808b84815181106109145761091361386a565b5b60200260200101515f015181526020018b84815181106109375761093661386a565b5b60200260200101516020015181526020018b848151811061095b5761095a61386a565b5b60200260200101516040015181525090508260010181908060018154018082558091505060019003905f5260205f2090600302015f909190919091505f820151815f0190816109aa9190614143565b5060208201518160010190816109c09190614143565b5060408201518160020190805190602001906109dd9291906129a2565b5050505080806001019150506108ec565b506109fa898433611442565b610a7d5760065f8a81526020019081526020015f205f8481526020019081526020015f2033908060018154018082558091505060019003905f5260205f20015f9091909190916101000a81548173ffffffffffffffffffffffffffffffffffffffff021916908373ffffffffffffffffffffffffffffffffffffffff1602179055505b883373ffffffffffffffffffffffffffffffffffffffff167f320425f199b1900c87ab751cb74680df52e35b0caffe1ca604850a02fdda470b858b51604051610ac7929190614212565b60405180910390a3505050505050505050565b60605f60055f8573ffffffffffffffffffffffffffffffffffffffff1673ffffffffffffffffffffffffffffffffffffffff1681526020019081526020015f205f8481526020019081526020015f205f015403610b6c576040517f08c379a0000000000000000000000000000000000000000000000000000000008152600401610b63906142a9565b60405180910390fd5b60055f8473ffffffffffffffffffffffffffffffffffffffff1673ffffffffffffffffffffffffffffffffffffffff1681526020019081526020015f205f8381526020019081526020015f20600201805480602002602001604051908101604052809291908181526020018280548015610c0357602002820191905f5260205f20905b815481526020019060010190808311610bef575b5050505050905092915050565b60608060605f60055f8873ffffffffffffffffffffffffffffffffffffffff1673ffffffffffffffffffffffffffffffffffffffff1681526020019081526020015f205f8781526020019081526020015f205f015403610ca5576040517f08c379a0000000000000000000000000000000000000000000000000000000008152600401610c9c906142a9565b60405180910390fd5b5f60055f8873ffffffffffffffffffffffffffffffffffffffff1673ffffffffffffffffffffffffffffffffffffffff1681526020019081526020015f205f8781526020019081526020015f206001015f8681526020019081526020015f20600101805480602002602001604051908101604052809291908181526020015f905b82821015610f49578382905f5260205f2090600302016040518060600160405290815f82018054610d5690613f7f565b80601f0160208091040260200160405190810160405280929190818152602001828054610d8290613f7f565b8015610dcd5780601f10610da457610100808354040283529160200191610dcd565b820191905f5260205f20905b815481529060010190602001808311610db057829003601f168201915b50505050508152602001600182018054610de690613f7f565b80601f0160208091040260200160405190810160405280929190818152602001828054610e1290613f7f565b8015610e5d5780601f10610e3457610100808354040283529160200191610e5d565b820191905f5260205f20905b815481529060010190602001808311610e4057829003601f168201915b5050505050815260200160028201805480602002602001604051908101604052809291908181526020015f905b82821015610f32578382905f5260205f20018054610ea790613f7f565b80601f0160208091040260200160405190810160405280929190818152602001828054610ed390613f7f565b8015610f1e5780601f10610ef557610100808354040283529160200191610f1e565b820191905f5260205f20905b815481529060010190602001808311610f0157829003601f168201915b505050505081526020019060010190610e8a565b505050508152505081526020019060010190610d26565b505050509050805167ffffffffffffffff811115610f6a57610f69612ff9565b5b604051908082528060200260200182016040528015610f9d57816020015b6060815260200190600190039081610f885790505b509350805167ffffffffffffffff811115610fbb57610fba612ff9565b5b604051908082528060200260200182016040528015610fee57816020015b6060815260200190600190039081610fd95790505b509250805167ffffffffffffffff81111561100c5761100b612ff9565b5b60405190808252806020026020018201604052801561103f57816020015b606081526020019060019003908161102a5790505b5091505f5b8151811015611110578181815181106110605761105f61386a565b5b60200260200101515f015185828151811061107e5761107d61386a565b5b602002602001018190525081818151811061109c5761109b61386a565b5b6020026020010151602001518482815181106110bb576110ba61386a565b5b60200260200101819052508181815181106110d9576110d861386a565b5b6020026020010151604001518382815181106110f8576110f761386a565b5b60200260200101819052508080600101915050611044565b505093509350939050565b5f805f9054906101000a900473ffffffffffffffffffffffffffffffffffffffff1673ffffffffffffffffffffffffffffffffffffffff166399664245836040518263ffffffff1660e01b81526004016111759190612d0a565b5f60405180830381865afa15801561118f573d5f803e3d5ffd5b505050506040513d5f823e3d601f19601f820116820180604052508101906111b79190613e27565b9450505050505f8190505f60065f8581526020019081526020015f205f8381526020019081526020015f2080548060200260200160405190810160405280929190818152602001828054801561125f57602002820191905f5260205f20905b815f9054906101000a900473ffffffffffffffffffffffffffffffffffffffff1673ffffffffffffffffffffffffffffffffffffffff1681526020019060010190808311611216575b505050505090505f8151116112a9576040517f08c379a00000000000000000000000000000000000000000000000000000000081526004016112a090614337565b60405180910390fd5b6112b281611565565b837f23a1c99c38932e128bfcf925232d21eed654965240c06433650755d2b5879d98836002805490506040516112e9929190614212565b60405180910390a250505050565b6005602052815f5260405f20602052805f5260405f205f9150915050805f0154905081565b6060600180548060200260200160405190810160405280929190818152602001828054801561138c57602002820191905f5260205f20905f905b82829054906101000a900460ff1660ff16815260200190600101906020825f010492830192600103820291508084116113565790505b5050505050905090565b606060065f8481526020019081526020015f205f8381526020019081526020015f2080548060200260200160405190810160405280929190818152602001828054801561143557602002820191905f5260205f20905b815f9054906101000a900473ffffffffffffffffffffffffffffffffffffffff1673ffffffffffffffffffffffffffffffffffffffff16815260200190600101908083116113ec575b5050505050905092915050565b5f8060065f8681526020019081526020015f205f8581526020019081526020015f208054806020026020016040519081016040528092919081815260200182805480156114e157602002820191905f5260205f20905b815f9054906101000a900473ffffffffffffffffffffffffffffffffffffffff1673ffffffffffffffffffffffffffffffffffffffff1681526020019060010190808311611498575b505050505090505f5b8151811015611558578373ffffffffffffffffffffffffffffffffffffffff1682828151811061151d5761151c61386a565b5b602002602001015173ffffffffffffffffffffffffffffffffffffffff160361154b5760019250505061155e565b80806001019150506114ea565b505f9150505b9392505050565b5f8151116115a8576040517f08c379a000000000000000000000000000000000000000000000000000000000815260040161159f9061439f565b60405180910390fd5b60025f6115b591906129f9565b6115be81611778565b5f6115c982516118bd565b90505f805b825181101561175b575f8382815181106115eb576115ea61386a565b5b602002602001015160ff1667ffffffffffffffff81111561160f5761160e612ff9565b5b60405190808252806020026020018201604052801561163d5781602001602082028036833780820191505090505b5090505f5b8483815181106116555761165461386a565b5b602002602001015160ff168110801561166e5750855184105b156116fc578584815181106116865761168561386a565b5b60200260200101518282815181106116a1576116a061386a565b5b602002602001019073ffffffffffffffffffffffffffffffffffffffff16908173ffffffffffffffffffffffffffffffffffffffff168152505083806116e6906143bd565b94505080806116f4906143bd565b915050611642565b506002604051806020016040528083815250908060018154018082558091505060019003905f5260205f20015f909190919091505f820151815f01908051906020019061174a929190612a17565b5050505080806001019150506115ce565b508160019080519060200190611772929190612a9e565b50505050565b5f600182516117879190613f1f565b90505b5f8111156118b9575f6001826117a09190614404565b4244846040516020016117b593929190614457565b604051602081830303815290604052805190602001205f1c6117d791906144c0565b90508281815181106117ec576117eb61386a565b5b60200260200101518383815181106118075761180661386a565b5b60200260200101518484815181106118225761182161386a565b5b6020026020010185848151811061183c5761183b61386a565b5b602002602001018273ffffffffffffffffffffffffffffffffffffffff1673ffffffffffffffffffffffffffffffffffffffff168152508273ffffffffffffffffffffffffffffffffffffffff1673ffffffffffffffffffffffffffffffffffffffff1681525050505080806118b1906144f0565b91505061178a565b5050565b6060601482116118d7576118d0826118e8565b90506118e3565b6118e08261282e565b90505b919050565b6060806001830361194457600167ffffffffffffffff81111561190e5761190d612ff9565b5b60405190808252806020026020018201604052801561193c5781602001602082028036833780820191505090505b509050611fee565b6002830361199d57600167ffffffffffffffff81111561196757611966612ff9565b5b6040519080825280602002602001820160405280156119955781602001602082028036833780820191505090505b509050611fed565b600383036119f657600167ffffffffffffffff8111156119c0576119bf612ff9565b5b6040519080825280602002602001820160405280156119ee5781602001602082028036833780820191505090505b509050611fec565b60048303611a4f57600167ffffffffffffffff811115611a1957611a18612ff9565b5b604051908082528060200260200182016040528015611a475781602001602082028036833780820191505090505b509050611feb565b60058303611aa857600167ffffffffffffffff811115611a7257611a71612ff9565b5b604051908082528060200260200182016040528015611aa05781602001602082028036833780820191505090505b509050611fea565b60068303611b0157600167ffffffffffffffff811115611acb57611aca612ff9565b5b604051908082528060200260200182016040528015611af95781602001602082028036833780820191505090505b509050611fe9565b60078303611b5a57600267ffffffffffffffff811115611b2457611b23612ff9565b5b604051908082528060200260200182016040528015611b525781602001602082028036833780820191505090505b509050611fe8565b60088303611bb357600267ffffffffffffffff811115611b7d57611b7c612ff9565b5b604051908082528060200260200182016040528015611bab5781602001602082028036833780820191505090505b509050611fe7565b60098303611c0c57600267ffffffffffffffff811115611bd657611bd5612ff9565b5b604051908082528060200260200182016040528015611c045781602001602082028036833780820191505090505b509050611fe6565b600a8303611c6557600267ffffffffffffffff811115611c2f57611c2e612ff9565b5b604051908082528060200260200182016040528015611c5d5781602001602082028036833780820191505090505b509050611fe5565b600b8303611cbe57600267ffffffffffffffff811115611c8857611c87612ff9565b5b604051908082528060200260200182016040528015611cb65781602001602082028036833780820191505090505b509050611fe4565b600c8303611d1757600267ffffffffffffffff811115611ce157611ce0612ff9565b5b604051908082528060200260200182016040528015611d0f5781602001602082028036833780820191505090505b509050611fe3565b600d8303611d7057600367ffffffffffffffff811115611d3a57611d39612ff9565b5b604051908082528060200260200182016040528015611d685781602001602082028036833780820191505090505b509050611fe2565b600e8303611dc957600367ffffffffffffffff811115611d9357611d92612ff9565b5b604051908082528060200260200182016040528015611dc15781602001602082028036833780820191505090505b509050611fe1565b600f8303611e2257600367ffffffffffffffff811115611dec57611deb612ff9565b5b604051908082528060200260200182016040528015611e1a5781602001602082028036833780820191505090505b509050611fe0565b60108303611e7b57600367ffffffffffffffff811115611e4557611e44612ff9565b5b604051908082528060200260200182016040528015611e735781602001602082028036833780820191505090505b509050611fdf565b60118303611ed457600367ffffffffffffffff811115611e9e57611e9d612ff9565b5b604051908082528060200260200182016040528015611ecc5781602001602082028036833780820191505090505b509050611fde565b60128303611f2d57600367ffffffffffffffff811115611ef757611ef6612ff9565b5b604051908082528060200260200182016040528015611f255781602001602082028036833780820191505090505b509050611fdd565b60138303611f8657600467ffffffffffffffff811115611f5057611f4f612ff9565b5b604051908082528060200260200182016040528015611f7e5781602001602082028036833780820191505090505b509050611fdc565b60148303611fdb57600467ffffffffffffffff811115611fa957611fa8612ff9565b5b604051908082528060200260200182016040528015611fd75781602001602082028036833780820191505090505b5090505b5b5b5b5b5b5b5b5b5b5b5b5b5b5b5b5b5b5b5b60018303612024576001815f8151811061200b5761200a61386a565b5b602002602001019060ff16908160ff1681525050612825565b6002830361205a576002815f815181106120415761204061386a565b5b602002602001019060ff16908160ff1681525050612824565b60038303612090576003815f815181106120775761207661386a565b5b602002602001019060ff16908160ff1681525050612823565b600483036120c6576004815f815181106120ad576120ac61386a565b5b602002602001019060ff16908160ff1681525050612822565b600583036120fc576005815f815181106120e3576120e261386a565b5b602002602001019060ff16908160ff1681525050612821565b60068303612132576006815f815181106121195761211861386a565b5b602002602001019060ff16908160ff1681525050612820565b60078303612192576003815f8151811061214f5761214e61386a565b5b602002602001019060ff16908160ff16815250506004816001815181106121795761217861386a565b5b602002602001019060ff16908160ff168152505061281f565b600883036121f2576004815f815181106121af576121ae61386a565b5b602002602001019060ff16908160ff16815250506004816001815181106121d9576121d861386a565b5b602002602001019060ff16908160ff168152505061281e565b60098303612252576005815f8151811061220f5761220e61386a565b5b602002602001019060ff16908160ff16815250506004816001815181106122395761223861386a565b5b602002602001019060ff16908160ff168152505061281d565b600a83036122b2576005815f8151811061226f5761226e61386a565b5b602002602001019060ff16908160ff16815250506005816001815181106122995761229861386a565b5b602002602001019060ff16908160ff168152505061281c565b600b8303612312576005815f815181106122cf576122ce61386a565b5b602002602001019060ff16908160ff16815250506006816001815181106122f9576122f861386a565b5b602002602001019060ff16908160ff168152505061281b565b600c8303612372576006815f8151811061232f5761232e61386a565b5b602002602001019060ff16908160ff16815250506006816001815181106123595761235861386a565b5b602002602001019060ff16908160ff168152505061281a565b600d83036123fc576005815f8151811061238f5761238e61386a565b5b602002602001019060ff16908160ff16815250506004816001815181106123b9576123b861386a565b5b602002602001019060ff16908160ff16815250506004816002815181106123e3576123e261386a565b5b602002602001019060ff16908160ff1681525050612819565b600e8303612486576005815f815181106124195761241861386a565b5b602002602001019060ff16908160ff16815250506005816001815181106124435761244261386a565b5b602002602001019060ff16908160ff168152505060048160028151811061246d5761246c61386a565b5b602002602001019060ff16908160ff1681525050612818565b600f8303612510576005815f815181106124a3576124a261386a565b5b602002602001019060ff16908160ff16815250506005816001815181106124cd576124cc61386a565b5b602002602001019060ff16908160ff16815250506005816002815181106124f7576124f661386a565b5b602002602001019060ff16908160ff1681525050612817565b6010830361259a576006815f8151811061252d5761252c61386a565b5b602002602001019060ff16908160ff16815250506005816001815181106125575761255661386a565b5b602002602001019060ff16908160ff16815250506005816002815181106125815761258061386a565b5b602002602001019060ff16908160ff1681525050612816565b60118303612624576006815f815181106125b7576125b661386a565b5b602002602001019060ff16908160ff16815250506006816001815181106125e1576125e061386a565b5b602002602001019060ff16908160ff168152505060058160028151811061260b5761260a61386a565b5b602002602001019060ff16908160ff1681525050612815565b601283036126ae576006815f815181106126415761264061386a565b5b602002602001019060ff16908160ff168152505060068160018151811061266b5761266a61386a565b5b602002602001019060ff16908160ff16815250506006816002815181106126955761269461386a565b5b602002602001019060ff16908160ff1681525050612814565b60138303612762576005815f815181106126cb576126ca61386a565b5b602002602001019060ff16908160ff16815250506005816001815181106126f5576126f461386a565b5b602002602001019060ff16908160ff168152505060058160028151811061271f5761271e61386a565b5b602002602001019060ff16908160ff16815250506004816003815181106127495761274861386a565b5b602002602001019060ff16908160ff1681525050612813565b60148303612812576005815f8151811061277f5761277e61386a565b5b602002602001019060ff16908160ff16815250506005816001815181106127a9576127a861386a565b5b602002602001019060ff16908160ff16815250506005816002815181106127d3576127d261386a565b5b602002602001019060ff16908160ff16815250506005816003815181106127fd576127fc61386a565b5b602002602001019060ff16908160ff16815250505b5b5b5b5b5b5b5b5b5b5b5b5b5b5b5b5b5b5b5b80915050919050565b60605f60066005846128409190614404565b61284a9190614517565b67ffffffffffffffff81111561286357612862612ff9565b5b6040519080825280602002602001820160405280156128915781602001602082028036833780820191505090505b5090505f805b5f851115612973575f6006866128ad91906144c0565b141580156128be575060058160ff16105b1561291a5760058383806128d1906143bd565b9450815181106128e4576128e361386a565b5b602002602001019060ff16908160ff16815250506005856129059190613f1f565b9450808061291290614547565b91505061296e565b6006838380612928906143bd565b94508151811061293b5761293a61386a565b5b602002602001019060ff16908160ff168152505060068561295c9190613f1f565b945060058160ff160361296d575f90505b5b612897565b818352829350505050919050565b5080545f8255600302905f5260205f209081019061299f9190612b40565b50565b828054828255905f5260205f209081019282156129e8579160200282015b828111156129e75782518290816129d79190614143565b50916020019190600101906129c0565b5b5090506129f59190612b83565b5090565b5080545f8255905f5260205f2090810190612a149190612ba6565b50565b828054828255905f5260205f20908101928215612a8d579160200282015b82811115612a8c578251825f6101000a81548173ffffffffffffffffffffffffffffffffffffffff021916908373ffffffffffffffffffffffffffffffffffffffff16021790555091602001919060010190612a35565b5b509050612a9a9190612bcb565b5090565b828054828255905f5260205f2090601f01602090048101928215612b2f579160200282015f5b83821115612b0157835183826101000a81548160ff021916908360ff16021790555092602001926001016020815f01049283019260010302612ac4565b8015612b2d5782816101000a81549060ff02191690556001016020815f01049283019260010302612b01565b505b509050612b3c9190612bcb565b5090565b5b80821115612b7f575f8082015f612b589190612be6565b600182015f612b679190612be6565b600282015f612b769190612c23565b50600301612b41565b5090565b5b80821115612ba2575f8181612b999190612be6565b50600101612b84565b5090565b5b80821115612bc7575f8082015f612bbe9190612c41565b50600101612ba7565b5090565b5b80821115612be2575f815f905550600101612bcc565b5090565b508054612bf290613f7f565b5f825580601f10612c035750612c20565b601f0160209004905f5260205f2090810190612c1f9190612bcb565b5b50565b5080545f8255905f5260205f2090810190612c3e9190612b83565b50565b5080545f8255905f5260205f2090810190612c5c9190612bcb565b50565b5f73ffffffffffffffffffffffffffffffffffffffff82169050919050565b5f819050919050565b5f612ca1612c9c612c9784612c5f565b612c7e565b612c5f565b9050919050565b5f612cb282612c87565b9050919050565b5f612cc382612ca8565b9050919050565b612cd381612cb9565b82525050565b5f602082019050612cec5f830184612cca565b92915050565b5f819050919050565b612d0481612cf2565b82525050565b5f602082019050612d1d5f830184612cfb565b92915050565b5f604051905090565b5f80fd5b5f80fd5b5f612d3e82612c5f565b9050919050565b612d4e81612d34565b8114612d58575f80fd5b50565b5f81359050612d6981612d45565b92915050565b5f60208284031215612d8457612d83612d2c565b5b5f612d9184828501612d5b565b91505092915050565b5f8115159050919050565b612dae81612d9a565b82525050565b5f602082019050612dc75f830184612da5565b92915050565b5f81519050919050565b5f82825260208201905092915050565b5f819050602082019050919050565b612dff81612cf2565b82525050565b5f612e108383612df6565b60208301905092915050565b5f602082019050919050565b5f612e3282612dcd565b612e3c8185612dd7565b9350612e4783612de7565b805f5b83811015612e77578151612e5e8882612e05565b9750612e6983612e1c565b925050600181019050612e4a565b5085935050505092915050565b5f6040820190508181035f830152612e9c8185612e28565b90508181036020830152612eb08184612e28565b90509392505050565b612ec281612cf2565b8114612ecc575f80fd5b50565b5f81359050612edd81612eb9565b92915050565b5f60208284031215612ef857612ef7612d2c565b5b5f612f0584828501612ecf565b91505092915050565b5f81519050919050565b5f82825260208201905092915050565b5f819050602082019050919050565b612f4081612d34565b82525050565b5f612f518383612f37565b60208301905092915050565b5f602082019050919050565b5f612f7382612f0e565b612f7d8185612f18565b9350612f8883612f28565b805f5b83811015612fb8578151612f9f8882612f46565b9750612faa83612f5d565b925050600181019050612f8b565b5085935050505092915050565b5f6020820190508181035f830152612fdd8184612f69565b905092915050565b5f80fd5b5f601f19601f8301169050919050565b7f4e487b71000000000000000000000000000000000000000000000000000000005f52604160045260245ffd5b61302f82612fe9565b810181811067ffffffffffffffff8211171561304e5761304d612ff9565b5b80604052505050565b5f613060612d23565b905061306c8282613026565b919050565b5f67ffffffffffffffff82111561308b5761308a612ff9565b5b602082029050602081019050919050565b5f80fd5b5f80fd5b5f80fd5b5f80fd5b5f67ffffffffffffffff8211156130c6576130c5612ff9565b5b6130cf82612fe9565b9050602081019050919050565b828183375f83830152505050565b5f6130fc6130f7846130ac565b613057565b905082815260208101848484011115613118576131176130a8565b5b6131238482856130dc565b509392505050565b5f82601f83011261313f5761313e612fe5565b5b813561314f8482602086016130ea565b91505092915050565b5f67ffffffffffffffff82111561317257613171612ff9565b5b602082029050602081019050919050565b5f61319561319084613158565b613057565b905080838252602082019050602084028301858111156131b8576131b761309c565b5b835b818110156131ff57803567ffffffffffffffff8111156131dd576131dc612fe5565b5b8086016131ea898261312b565b855260208501945050506020810190506131ba565b5050509392505050565b5f82601f83011261321d5761321c612fe5565b5b813561322d848260208601613183565b91505092915050565b5f6060828403121561324b5761324a6130a0565b5b6132556060613057565b90505f82013567ffffffffffffffff811115613274576132736130a4565b5b6132808482850161312b565b5f83015250602082013567ffffffffffffffff8111156132a3576132a26130a4565b5b6132af8482850161312b565b602083015250604082013567ffffffffffffffff8111156132d3576132d26130a4565b5b6132df84828501613209565b60408301525092915050565b5f6132fd6132f884613071565b613057565b905080838252602082019050602084028301858111156133205761331f61309c565b5b835b8181101561336757803567ffffffffffffffff81111561334557613344612fe5565b5b8086016133528982613236565b85526020850194505050602081019050613322565b5050509392505050565b5f82601f83011261338557613384612fe5565b5b81356133958482602086016132eb565b91505092915050565b5f80604083850312156133b4576133b3612d2c565b5b5f6133c185828601612ecf565b925050602083013567ffffffffffffffff8111156133e2576133e1612d30565b5b6133ee85828601613371565b9150509250929050565b5f806040838503121561340e5761340d612d2c565b5b5f61341b85828601612d5b565b925050602061342c85828601612ecf565b9150509250929050565b5f6020820190508181035f83015261344e8184612e28565b905092915050565b5f805f6060848603121561346d5761346c612d2c565b5b5f61347a86828701612d5b565b935050602061348b86828701612ecf565b925050604061349c86828701612ecf565b9150509250925092565b5f81519050919050565b5f82825260208201905092915050565b5f819050602082019050919050565b5f81519050919050565b5f82825260208201905092915050565b8281835e5f83830152505050565b5f613501826134cf565b61350b81856134d9565b935061351b8185602086016134e9565b61352481612fe9565b840191505092915050565b5f61353a83836134f7565b905092915050565b5f602082019050919050565b5f613558826134a6565b61356281856134b0565b935083602082028501613574856134c0565b805f5b858110156135af5784840389528151613590858261352f565b945061359b83613542565b925060208a01995050600181019050613577565b50829750879550505050505092915050565b5f81519050919050565b5f82825260208201905092915050565b5f819050602082019050919050565b5f82825260208201905092915050565b5f613604826134a6565b61360e81856135ea565b935083602082028501613620856134c0565b805f5b8581101561365b578484038952815161363c858261352f565b945061364783613542565b925060208a01995050600181019050613623565b50829750879550505050505092915050565b5f61367883836135fa565b905092915050565b5f602082019050919050565b5f613696826135c1565b6136a081856135cb565b9350836020820285016136b2856135db565b805f5b858110156136ed57848403895281516136ce858261366d565b94506136d983613680565b925060208a019950506001810190506136b5565b50829750879550505050505092915050565b5f6060820190508181035f830152613717818661354e565b9050818103602083015261372b818561354e565b9050818103604083015261373f818461368c565b9050949350505050565b5f81519050919050565b5f82825260208201905092915050565b5f819050602082019050919050565b5f60ff82169050919050565b61378781613772565b82525050565b5f613798838361377e565b60208301905092915050565b5f602082019050919050565b5f6137ba82613749565b6137c48185613753565b93506137cf83613763565b805f5b838110156137ff5781516137e6888261378d565b97506137f1836137a4565b9250506001810190506137d2565b5085935050505092915050565b5f6020820190508181035f83015261382481846137b0565b905092915050565b5f806040838503121561384257613841612d2c565b5b5f61384f85828601612ecf565b925050602061386085828601612ecf565b9150509250929050565b7f4e487b71000000000000000000000000000000000000000000000000000000005f52603260045260245ffd5b5f82825260208201905092915050565b7f496e76616c69642067726f7570204944000000000000000000000000000000005f82015250565b5f6138db601083613897565b91506138e6826138a7565b602082019050919050565b5f6020820190508181035f830152613908816138cf565b9050919050565b61391881612d34565b82525050565b5f6020820190506139315f83018461390f565b92915050565b5f613949613944846130ac565b613057565b905082815260208101848484011115613965576139646130a8565b5b6139708482856134e9565b509392505050565b5f82601f83011261398c5761398b612fe5565b5b815161399c848260208601613937565b91505092915050565b5f805f606084860312156139bc576139bb612d2c565b5b5f84015167ffffffffffffffff8111156139d9576139d8612d30565b5b6139e586828701613978565b935050602084015167ffffffffffffffff811115613a0657613a05612d30565b5b613a1286828701613978565b925050604084015167ffffffffffffffff811115613a3357613a32612d30565b5b613a3f86828701613978565b9150509250925092565b7f50726f66696c65206d75737420657869737420746f207375626d697420636f6e5f8201527f747269627574696f6e7300000000000000000000000000000000000000000000602082015250565b5f613aa3602a83613897565b9150613aae82613a49565b604082019050919050565b5f6020820190508181035f830152613ad081613a97565b9050919050565b5f604082019050613aea5f83018561390f565b613af76020830184612cfb565b9392505050565b5f81519050613b0c81612eb9565b92915050565b613b1b81612d9a565b8114613b25575f80fd5b50565b5f81519050613b3681613b12565b92915050565b5f67ffffffffffffffff821115613b5657613b55612ff9565b5b602082029050602081019050919050565b5f81519050613b7581612d45565b92915050565b5f613b8d613b8884613b3c565b613057565b90508083825260208201905060208402830185811115613bb057613baf61309c565b5b835b81811015613bd95780613bc58882613b67565b845260208401935050602081019050613bb2565b5050509392505050565b5f82601f830112613bf757613bf6612fe5565b5b8151613c07848260208601613b7b565b91505092915050565b5f805f805f60a08688031215613c2957613c28612d2c565b5b5f613c3688828901613afe565b9550506020613c4788828901613afe565b9450506040613c5888828901613afe565b9350506060613c6988828901613b28565b925050608086015167ffffffffffffffff811115613c8a57613c89612d30565b5b613c9688828901613be3565b9150509295509295909350565b7f55736572206e6f742070617274206f66207468697320636f6d6d756e697479005f82015250565b5f613cd7601f83613897565b9150613ce282613ca3565b602082019050919050565b5f6020820190508181035f830152613d0481613ccb565b9050919050565b7f55736572206e6f7420617070726f76656420696e207468697320636f6d6d756e5f8201527f6974790000000000000000000000000000000000000000000000000000000000602082015250565b5f613d65602383613897565b9150613d7082613d0b565b604082019050919050565b5f6020820190508181035f830152613d9281613d59565b9050919050565b7f4d757374207375626d6974206174206c65617374206f6e6520636f6e747269625f8201527f7574696f6e000000000000000000000000000000000000000000000000000000602082015250565b5f613df3602583613897565b9150613dfe82613d99565b604082019050919050565b5f6020820190508181035f830152613e2081613de7565b9050919050565b5f805f805f60a08688031215613e4057613e3f612d2c565b5b5f86015167ffffffffffffffff811115613e5d57613e5c612d30565b5b613e6988828901613978565b955050602086015167ffffffffffffffff811115613e8a57613e89612d30565b5b613e9688828901613978565b945050604086015167ffffffffffffffff811115613eb757613eb6612d30565b5b613ec388828901613978565b9350506060613ed488828901613b67565b9250506080613ee588828901613afe565b9150509295509295909350565b7f4e487b71000000000000000000000000000000000000000000000000000000005f52601160045260245ffd5b5f613f2982612cf2565b9150613f3483612cf2565b9250828203905081811115613f4c57613f4b613ef2565b5b92915050565b7f4e487b71000000000000000000000000000000000000000000000000000000005f52602260045260245ffd5b5f6002820490506001821680613f9657607f821691505b602082108103613fa957613fa8613f52565b5b50919050565b5f819050815f5260205f209050919050565b5f6020601f8301049050919050565b5f82821b905092915050565b5f6008830261400b7fffffffffffffffffffffffffffffffffffffffffffffffffffffffffffffffff82613fd0565b6140158683613fd0565b95508019841693508086168417925050509392505050565b5f61404761404261403d84612cf2565b612c7e565b612cf2565b9050919050565b5f819050919050565b6140608361402d565b61407461406c8261404e565b848454613fdc565b825550505050565b5f90565b61408861407c565b614093818484614057565b505050565b5b818110156140b6576140ab5f82614080565b600181019050614099565b5050565b601f8211156140fb576140cc81613faf565b6140d584613fc1565b810160208510156140e4578190505b6140f86140f085613fc1565b830182614098565b50505b505050565b5f82821c905092915050565b5f61411b5f1984600802614100565b1980831691505092915050565b5f614133838361410c565b9150826002028217905092915050565b61414c826134cf565b67ffffffffffffffff81111561416557614164612ff9565b5b61416f8254613f7f565b61417a8282856140ba565b5f60209050601f8311600181146141ab575f8415614199578287015190505b6141a38582614128565b86555061420a565b601f1984166141b986613faf565b5f5b828110156141e0578489015182556001820191506020850194506020810190506141bb565b868310156141fd57848901516141f9601f89168261410c565b8355505b6001600288020188555050505b505050505050565b5f6040820190506142255f830185612cfb565b6142326020830184612cfb565b9392505050565b7f4e6f20636f6e747269627574696f6e7320666f756e6420666f722074686973205f8201527f7573657220696e207468697320636f6d6d756e69747900000000000000000000602082015250565b5f614293603683613897565b915061429e82614239565b604082019050919050565b5f6020820190508181035f8301526142c081614287565b9050919050565b7f4e6f20636f6e7472696275746f727320666f72207468652063757272656e74205f8201527f7765656b00000000000000000000000000000000000000000000000000000000602082015250565b5f614321602483613897565b915061432c826142c7565b604082019050919050565b5f6020820190508181035f83015261434e81614315565b9050919050565b7f4e6f207061727469636970616e747300000000000000000000000000000000005f82015250565b5f614389600f83613897565b915061439482614355565b602082019050919050565b5f6020820190508181035f8301526143b68161437d565b9050919050565b5f6143c782612cf2565b91507fffffffffffffffffffffffffffffffffffffffffffffffffffffffffffffffff82036143f9576143f8613ef2565b5b600182019050919050565b5f61440e82612cf2565b915061441983612cf2565b925082820190508082111561443157614430613ef2565b5b92915050565b5f819050919050565b61445161444c82612cf2565b614437565b82525050565b5f6144628286614440565b6020820191506144728285614440565b6020820191506144828284614440565b602082019150819050949350505050565b7f4e487b71000000000000000000000000000000000000000000000000000000005f52601260045260245ffd5b5f6144ca82612cf2565b91506144d583612cf2565b9250826144e5576144e4614493565b5b828206905092915050565b5f6144fa82612cf2565b91505f820361450c5761450b613ef2565b5b600182039050919050565b5f61452182612cf2565b915061452c83612cf2565b92508261453c5761453b614493565b5b828204905092915050565b5f61455182613772565b915060ff820361456457614563613ef2565b5b60018201905091905056fea2646970667358221220564dd9a8ffe5b56e660e7dd733d47326d01df09dcb61e9bd37367b248bab129f64736f6c634300081a0033",
			"opcodes": "PUSH1 0x80 PUSH1 0x40 MSTORE CALLVALUE DUP1 ISZERO PUSH2 0xF JUMPI PUSH0 DUP1 REVERT JUMPDEST POP PUSH1 0x40 MLOAD PUSH2 0x46B1 CODESIZE SUB DUP1 PUSH2 0x46B1 DUP4 CODECOPY DUP2 DUP2 ADD PUSH1 0x40 MSTORE DUP2 ADD SWAP1 PUSH2 0x31 SWAP2 SWAP1 PUSH2 0xD4 JUMP JUMPDEST DUP1 PUSH0 DUP1 PUSH2 0x100 EXP DUP2 SLOAD DUP2 PUSH20 0xFFFFFFFFFFFFFFFFFFFFFFFFFFFFFFFFFFFFFFFF MUL NOT AND SWAP1 DUP4 PUSH20 0xFFFFFFFFFFFFFFFFFFFFFFFFFFFFFFFFFFFFFFFF AND MUL OR SWAP1 SSTORE POP POP PUSH2 0xFF JUMP JUMPDEST PUSH0 DUP1 REVERT JUMPDEST PUSH0 PUSH20 0xFFFFFFFFFFFFFFFFFFFFFFFFFFFFFFFFFFFFFFFF DUP3 AND SWAP1 POP SWAP2 SWAP1 POP JUMP JUMPDEST PUSH0 PUSH2 0xA3 DUP3 PUSH2 0x7A JUMP JUMPDEST SWAP1 POP SWAP2 SWAP1 POP JUMP JUMPDEST PUSH2 0xB3 DUP2 PUSH2 0x99 JUMP JUMPDEST DUP2 EQ PUSH2 0xBD JUMPI PUSH0 DUP1 REVERT JUMPDEST POP JUMP JUMPDEST PUSH0 DUP2 MLOAD SWAP1 POP PUSH2 0xCE DUP2 PUSH2 0xAA JUMP JUMPDEST SWAP3 SWAP2 POP POP JUMP JUMPDEST PUSH0 PUSH1 0x20 DUP3 DUP5 SUB SLT ISZERO PUSH2 0xE9 JUMPI PUSH2 0xE8 PUSH2 0x76 JUMP JUMPDEST JUMPDEST PUSH0 PUSH2 0xF6 DUP5 DUP3 DUP6 ADD PUSH2 0xC0 JUMP JUMPDEST SWAP2 POP POP SWAP3 SWAP2 POP POP JUMP JUMPDEST PUSH2 0x45A5 DUP1 PUSH2 0x10C PUSH0 CODECOPY PUSH0 RETURN INVALID PUSH1 0x80 PUSH1 0x40 MSTORE CALLVALUE DUP1 ISZERO PUSH2 0xF JUMPI PUSH0 DUP1 REVERT JUMPDEST POP PUSH1 0x4 CALLDATASIZE LT PUSH2 0xB2 JUMPI PUSH0 CALLDATALOAD PUSH1 0xE0 SHR DUP1 PUSH4 0x4FE038A2 GT PUSH2 0x6F JUMPI DUP1 PUSH4 0x4FE038A2 EQ PUSH2 0x18D JUMPI DUP1 PUSH4 0x667F0E63 EQ PUSH2 0x1BD JUMPI DUP1 PUSH4 0x690EC8D1 EQ PUSH2 0x1EF JUMPI DUP1 PUSH4 0x7331FA95 EQ PUSH2 0x20B JUMPI DUP1 PUSH4 0x771197D8 EQ PUSH2 0x23B JUMPI DUP1 PUSH4 0x8EC2C82B EQ PUSH2 0x259 JUMPI PUSH2 0xB2 JUMP JUMPDEST DUP1 PUSH4 0x6428F02 EQ PUSH2 0xB6 JUMPI DUP1 PUSH4 0x6545A93 EQ PUSH2 0xD4 JUMPI DUP1 PUSH4 0x205B1946 EQ PUSH2 0xF2 JUMPI DUP1 PUSH4 0x32A41F3E EQ PUSH2 0x122 JUMPI DUP1 PUSH4 0x36CC8130 EQ PUSH2 0x141 JUMPI DUP1 PUSH4 0x3722A0E8 EQ PUSH2 0x171 JUMPI JUMPDEST PUSH0 DUP1 REVERT JUMPDEST PUSH2 0xBE PUSH2 0x289 JUMP JUMPDEST PUSH1 0x40 MLOAD PUSH2 0xCB SWAP2 SWAP1 PUSH2 0x2CD9 JUMP JUMPDEST PUSH1 0x40 MLOAD DUP1 SWAP2 SUB SWAP1 RETURN JUMPDEST PUSH2 0xDC PUSH2 0x2AC JUMP JUMPDEST PUSH1 0x40 MLOAD PUSH2 0xE9 SWAP2 SWAP1 PUSH2 0x2D0A JUMP JUMPDEST PUSH1 0x40 MLOAD DUP1 SWAP2 SUB SWAP1 RETURN JUMPDEST PUSH2 0x10C PUSH1 0x4 DUP1 CALLDATASIZE SUB DUP2 ADD SWAP1 PUSH2 0x107 SWAP2 SWAP1 PUSH2 0x2D6F JUMP JUMPDEST PUSH2 0x2B8 JUMP JUMPDEST PUSH1 0x40 MLOAD PUSH2 0x119 SWAP2 SWAP1 PUSH2 0x2DB4 JUMP JUMPDEST PUSH1 0x40 MLOAD DUP1 SWAP2 SUB SWAP1 RETURN JUMPDEST PUSH2 0x12A PUSH2 0x2D5 JUMP JUMPDEST PUSH1 0x40 MLOAD PUSH2 0x138 SWAP3 SWAP2 SWAP1 PUSH2 0x2E84 JUMP JUMPDEST PUSH1 0x40 MLOAD DUP1 SWAP2 SUB SWAP1 RETURN JUMPDEST PUSH2 0x15B PUSH1 0x4 DUP1 CALLDATASIZE SUB DUP2 ADD SWAP1 PUSH2 0x156 SWAP2 SWAP1 PUSH2 0x2EE3 JUMP JUMPDEST PUSH2 0x404 JUMP JUMPDEST PUSH1 0x40 MLOAD PUSH2 0x168 SWAP2 SWAP1 PUSH2 0x2FC5 JUMP JUMPDEST PUSH1 0x40 MLOAD DUP1 SWAP2 SUB SWAP1 RETURN JUMPDEST PUSH2 0x18B PUSH1 0x4 DUP1 CALLDATASIZE SUB DUP2 ADD SWAP1 PUSH2 0x186 SWAP2 SWAP1 PUSH2 0x339E JUMP JUMPDEST PUSH2 0x4F4 JUMP JUMPDEST STOP JUMPDEST PUSH2 0x1A7 PUSH1 0x4 DUP1 CALLDATASIZE SUB DUP2 ADD SWAP1 PUSH2 0x1A2 SWAP2 SWAP1 PUSH2 0x33F8 JUMP JUMPDEST PUSH2 0xADA JUMP JUMPDEST PUSH1 0x40 MLOAD PUSH2 0x1B4 SWAP2 SWAP1 PUSH2 0x3436 JUMP JUMPDEST PUSH1 0x40 MLOAD DUP1 SWAP2 SUB SWAP1 RETURN JUMPDEST PUSH2 0x1D7 PUSH1 0x4 DUP1 CALLDATASIZE SUB DUP2 ADD SWAP1 PUSH2 0x1D2 SWAP2 SWAP1 PUSH2 0x3456 JUMP JUMPDEST PUSH2 0xC10 JUMP JUMPDEST PUSH1 0x40 MLOAD PUSH2 0x1E6 SWAP4 SWAP3 SWAP2 SWAP1 PUSH2 0x36FF JUMP JUMPDEST PUSH1 0x40 MLOAD DUP1 SWAP2 SUB SWAP1 RETURN JUMPDEST PUSH2 0x209 PUSH1 0x4 DUP1 CALLDATASIZE SUB DUP2 ADD SWAP1 PUSH2 0x204 SWAP2 SWAP1 PUSH2 0x2EE3 JUMP JUMPDEST PUSH2 0x111B JUMP JUMPDEST STOP JUMPDEST PUSH2 0x225 PUSH1 0x4 DUP1 CALLDATASIZE SUB DUP2 ADD SWAP1 PUSH2 0x220 SWAP2 SWAP1 PUSH2 0x33F8 JUMP JUMPDEST PUSH2 0x12F7 JUMP JUMPDEST PUSH1 0x40 MLOAD PUSH2 0x232 SWAP2 SWAP1 PUSH2 0x2D0A JUMP JUMPDEST PUSH1 0x40 MLOAD DUP1 SWAP2 SUB SWAP1 RETURN JUMPDEST PUSH2 0x243 PUSH2 0x131C JUMP JUMPDEST PUSH1 0x40 MLOAD PUSH2 0x250 SWAP2 SWAP1 PUSH2 0x380C JUMP JUMPDEST PUSH1 0x40 MLOAD DUP1 SWAP2 SUB SWAP1 RETURN JUMPDEST PUSH2 0x273 PUSH1 0x4 DUP1 CALLDATASIZE SUB DUP2 ADD SWAP1 PUSH2 0x26E SWAP2 SWAP1 PUSH2 0x382C JUMP JUMPDEST PUSH2 0x1396 JUMP JUMPDEST PUSH1 0x40 MLOAD PUSH2 0x280 SWAP2 SWAP1 PUSH2 0x2FC5 JUMP JUMPDEST PUSH1 0x40 MLOAD DUP1 SWAP2 SUB SWAP1 RETURN JUMPDEST PUSH0 DUP1 SLOAD SWAP1 PUSH2 0x100 EXP SWAP1 DIV PUSH20 0xFFFFFFFFFFFFFFFFFFFFFFFFFFFFFFFFFFFFFFFF AND DUP2 JUMP JUMPDEST PUSH0 PUSH1 0x2 DUP1 SLOAD SWAP1 POP SWAP1 POP SWAP1 JUMP JUMPDEST PUSH1 0x4 PUSH1 0x20 MSTORE DUP1 PUSH0 MSTORE PUSH1 0x40 PUSH0 KECCAK256 PUSH0 SWAP2 POP SLOAD SWAP1 PUSH2 0x100 EXP SWAP1 DIV PUSH1 0xFF AND DUP2 JUMP JUMPDEST PUSH1 0x60 DUP1 PUSH0 PUSH1 0x2 DUP1 SLOAD SWAP1 POP PUSH8 0xFFFFFFFFFFFFFFFF DUP2 GT ISZERO PUSH2 0x2F8 JUMPI PUSH2 0x2F7 PUSH2 0x2FF9 JUMP JUMPDEST JUMPDEST PUSH1 0x40 MLOAD SWAP1 DUP1 DUP3 MSTORE DUP1 PUSH1 0x20 MUL PUSH1 0x20 ADD DUP3 ADD PUSH1 0x40 MSTORE DUP1 ISZERO PUSH2 0x326 JUMPI DUP2 PUSH1 0x20 ADD PUSH1 0x20 DUP3 MUL DUP1 CALLDATASIZE DUP4 CALLDATACOPY DUP1 DUP3 ADD SWAP2 POP POP SWAP1 POP JUMPDEST POP SWAP1 POP PUSH0 PUSH1 0x2 DUP1 SLOAD SWAP1 POP PUSH8 0xFFFFFFFFFFFFFFFF DUP2 GT ISZERO PUSH2 0x349 JUMPI PUSH2 0x348 PUSH2 0x2FF9 JUMP JUMPDEST JUMPDEST PUSH1 0x40 MLOAD SWAP1 DUP1 DUP3 MSTORE DUP1 PUSH1 0x20 MUL PUSH1 0x20 ADD DUP3 ADD PUSH1 0x40 MSTORE DUP1 ISZERO PUSH2 0x377 JUMPI DUP2 PUSH1 0x20 ADD PUSH1 0x20 DUP3 MUL DUP1 CALLDATASIZE DUP4 CALLDATACOPY DUP1 DUP3 ADD SWAP2 POP POP SWAP1 POP JUMPDEST POP SWAP1 POP PUSH0 JUMPDEST PUSH1 0x2 DUP1 SLOAD SWAP1 POP DUP2 LT ISZERO PUSH2 0x3F7 JUMPI DUP1 DUP4 DUP3 DUP2 MLOAD DUP2 LT PUSH2 0x39D JUMPI PUSH2 0x39C PUSH2 0x386A JUMP JUMPDEST JUMPDEST PUSH1 0x20 MUL PUSH1 0x20 ADD ADD DUP2 DUP2 MSTORE POP POP PUSH1 0x2 DUP2 DUP2 SLOAD DUP2 LT PUSH2 0x3BD JUMPI PUSH2 0x3BC PUSH2 0x386A JUMP JUMPDEST JUMPDEST SWAP1 PUSH0 MSTORE PUSH1 0x20 PUSH0 KECCAK256 ADD PUSH0 ADD DUP1 SLOAD SWAP1 POP DUP3 DUP3 DUP2 MLOAD DUP2 LT PUSH2 0x3DE JUMPI PUSH2 0x3DD PUSH2 0x386A JUMP JUMPDEST JUMPDEST PUSH1 0x20 MUL PUSH1 0x20 ADD ADD DUP2 DUP2 MSTORE POP POP DUP1 DUP1 PUSH1 0x1 ADD SWAP2 POP POP PUSH2 0x37C JUMP JUMPDEST POP DUP2 DUP2 SWAP4 POP SWAP4 POP POP POP SWAP1 SWAP2 JUMP JUMPDEST PUSH1 0x60 PUSH1 0x2 DUP1 SLOAD SWAP1 POP DUP3 LT PUSH2 0x44D JUMPI PUSH1 0x40 MLOAD PUSH32 0x8C379A000000000000000000000000000000000000000000000000000000000 DUP2 MSTORE PUSH1 0x4 ADD PUSH2 0x444 SWAP1 PUSH2 0x38F1 JUMP JUMPDEST PUSH1 0x40 MLOAD DUP1 SWAP2 SUB SWAP1 REVERT JUMPDEST PUSH1 0x2 DUP3 DUP2 SLOAD DUP2 LT PUSH2 0x461 JUMPI PUSH2 0x460 PUSH2 0x386A JUMP JUMPDEST JUMPDEST SWAP1 PUSH0 MSTORE PUSH1 0x20 PUSH0 KECCAK256 ADD PUSH0 ADD DUP1 SLOAD DUP1 PUSH1 0x20 MUL PUSH1 0x20 ADD PUSH1 0x40 MLOAD SWAP1 DUP2 ADD PUSH1 0x40 MSTORE DUP1 SWAP3 SWAP2 SWAP1 DUP2 DUP2 MSTORE PUSH1 0x20 ADD DUP3 DUP1 SLOAD DUP1 ISZERO PUSH2 0x4E8 JUMPI PUSH1 0x20 MUL DUP3 ADD SWAP2 SWAP1 PUSH0 MSTORE PUSH1 0x20 PUSH0 KECCAK256 SWAP1 JUMPDEST DUP2 PUSH0 SWAP1 SLOAD SWAP1 PUSH2 0x100 EXP SWAP1 DIV PUSH20 0xFFFFFFFFFFFFFFFFFFFFFFFFFFFFFFFFFFFFFFFF AND PUSH20 0xFFFFFFFFFFFFFFFFFFFFFFFFFFFFFFFFFFFFFFFF AND DUP2 MSTORE PUSH1 0x20 ADD SWAP1 PUSH1 0x1 ADD SWAP1 DUP1 DUP4 GT PUSH2 0x49F JUMPI JUMPDEST POP POP POP POP POP SWAP1 POP SWAP2 SWAP1 POP JUMP JUMPDEST PUSH0 DUP1 PUSH0 SWAP1 SLOAD SWAP1 PUSH2 0x100 EXP SWAP1 DIV PUSH20 0xFFFFFFFFFFFFFFFFFFFFFFFFFFFFFFFFFFFFFFFF AND PUSH20 0xFFFFFFFFFFFFFFFFFFFFFFFFFFFFFFFFFFFFFFFF AND PUSH4 0x987EE156 CALLER PUSH1 0x40 MLOAD DUP3 PUSH4 0xFFFFFFFF AND PUSH1 0xE0 SHL DUP2 MSTORE PUSH1 0x4 ADD PUSH2 0x54E SWAP2 SWAP1 PUSH2 0x391E JUMP JUMPDEST PUSH0 PUSH1 0x40 MLOAD DUP1 DUP4 SUB DUP2 DUP7 GAS STATICCALL ISZERO DUP1 ISZERO PUSH2 0x568 JUMPI RETURNDATASIZE PUSH0 DUP1 RETURNDATACOPY RETURNDATASIZE PUSH0 REVERT JUMPDEST POP POP POP POP PUSH1 0x40 MLOAD RETURNDATASIZE PUSH0 DUP3 RETURNDATACOPY RETURNDATASIZE PUSH1 0x1F NOT PUSH1 0x1F DUP3 ADD AND DUP3 ADD DUP1 PUSH1 0x40 MSTORE POP DUP2 ADD SWAP1 PUSH2 0x590 SWAP2 SWAP1 PUSH2 0x39A5 JUMP JUMPDEST POP POP SWAP1 POP PUSH0 DUP2 MLOAD GT PUSH2 0x5D7 JUMPI PUSH1 0x40 MLOAD PUSH32 0x8C379A000000000000000000000000000000000000000000000000000000000 DUP2 MSTORE PUSH1 0x4 ADD PUSH2 0x5CE SWAP1 PUSH2 0x3AB9 JUMP JUMPDEST PUSH1 0x40 MLOAD DUP1 SWAP2 SUB SWAP1 REVERT JUMPDEST PUSH0 DUP1 PUSH0 DUP1 SLOAD SWAP1 PUSH2 0x100 EXP SWAP1 DIV PUSH20 0xFFFFFFFFFFFFFFFFFFFFFFFFFFFFFFFFFFFFFFFF AND PUSH20 0xFFFFFFFFFFFFFFFFFFFFFFFFFFFFFFFFFFFFFFFF AND PUSH4 0xB26ED7B CALLER DUP8 PUSH1 0x40 MLOAD DUP4 PUSH4 0xFFFFFFFF AND PUSH1 0xE0 SHL DUP2 MSTORE PUSH1 0x4 ADD PUSH2 0x633 SWAP3 SWAP2 SWAP1 PUSH2 0x3AD7 JUMP JUMPDEST PUSH0 PUSH1 0x40 MLOAD DUP1 DUP4 SUB DUP2 DUP7 GAS STATICCALL ISZERO DUP1 ISZERO PUSH2 0x64D JUMPI RETURNDATASIZE PUSH0 DUP1 RETURNDATACOPY RETURNDATASIZE PUSH0 REVERT JUMPDEST POP POP POP POP PUSH1 0x40 MLOAD RETURNDATASIZE PUSH0 DUP3 RETURNDATACOPY RETURNDATASIZE PUSH1 0x1F NOT PUSH1 0x1F DUP3 ADD AND DUP3 ADD DUP1 PUSH1 0x40 MSTORE POP DUP2 ADD SWAP1 PUSH2 0x675 SWAP2 SWAP1 PUSH2 0x3C10 JUMP JUMPDEST POP SWAP4 POP POP POP SWAP2 POP PUSH0 DUP3 SUB PUSH2 0x6BE JUMPI PUSH1 0x40 MLOAD PUSH32 0x8C379A000000000000000000000000000000000000000000000000000000000 DUP2 MSTORE PUSH1 0x4 ADD PUSH2 0x6B5 SWAP1 PUSH2 0x3CED JUMP JUMPDEST PUSH1 0x40 MLOAD DUP1 SWAP2 SUB SWAP1 REVERT JUMPDEST DUP1 PUSH2 0x6FE JUMPI PUSH1 0x40 MLOAD PUSH32 0x8C379A000000000000000000000000000000000000000000000000000000000 DUP2 MSTORE PUSH1 0x4 ADD PUSH2 0x6F5 SWAP1 PUSH2 0x3D7B JUMP JUMPDEST PUSH1 0x40 MLOAD DUP1 SWAP2 SUB SWAP1 REVERT JUMPDEST PUSH0 DUP5 MLOAD GT PUSH2 0x741 JUMPI PUSH1 0x40 MLOAD PUSH32 0x8C379A000000000000000000000000000000000000000000000000000000000 DUP2 MSTORE PUSH1 0x4 ADD PUSH2 0x738 SWAP1 PUSH2 0x3E09 JUMP JUMPDEST PUSH1 0x40 MLOAD DUP1 SWAP2 SUB SWAP1 REVERT JUMPDEST PUSH0 DUP1 PUSH0 SWAP1 SLOAD SWAP1 PUSH2 0x100 EXP SWAP1 DIV PUSH20 0xFFFFFFFFFFFFFFFFFFFFFFFFFFFFFFFFFFFFFFFF AND PUSH20 0xFFFFFFFFFFFFFFFFFFFFFFFFFFFFFFFFFFFFFFFF AND PUSH4 0x99664245 DUP8 PUSH1 0x40 MLOAD DUP3 PUSH4 0xFFFFFFFF AND PUSH1 0xE0 SHL DUP2 MSTORE PUSH1 0x4 ADD PUSH2 0x79B SWAP2 SWAP1 PUSH2 0x2D0A JUMP JUMPDEST PUSH0 PUSH1 0x40 MLOAD DUP1 DUP4 SUB DUP2 DUP7 GAS STATICCALL ISZERO DUP1 ISZERO PUSH2 0x7B5 JUMPI RETURNDATASIZE PUSH0 DUP1 RETURNDATACOPY RETURNDATASIZE PUSH0 REVERT JUMPDEST POP POP POP POP PUSH1 0x40 MLOAD RETURNDATASIZE PUSH0 DUP3 RETURNDATACOPY RETURNDATASIZE PUSH1 0x1F NOT PUSH1 0x1F DUP3 ADD AND DUP3 ADD DUP1 PUSH1 0x40 MSTORE POP DUP2 ADD SWAP1 PUSH2 0x7DD SWAP2 SWAP1 PUSH2 0x3E27 JUMP JUMPDEST SWAP5 POP POP POP POP POP PUSH0 DUP2 SWAP1 POP PUSH0 PUSH1 0x5 PUSH0 CALLER PUSH20 0xFFFFFFFFFFFFFFFFFFFFFFFFFFFFFFFFFFFFFFFF AND PUSH20 0xFFFFFFFFFFFFFFFFFFFFFFFFFFFFFFFFFFFFFFFF AND DUP2 MSTORE PUSH1 0x20 ADD SWAP1 DUP2 MSTORE PUSH1 0x20 ADD PUSH0 KECCAK256 PUSH0 DUP10 DUP2 MSTORE PUSH1 0x20 ADD SWAP1 DUP2 MSTORE PUSH1 0x20 ADD PUSH0 KECCAK256 SWAP1 POP PUSH0 DUP2 PUSH0 ADD SLOAD SUB PUSH2 0x849 JUMPI DUP8 DUP2 PUSH0 ADD DUP2 SWAP1 SSTORE POP JUMPDEST PUSH0 DUP2 PUSH1 0x1 ADD PUSH0 DUP5 DUP2 MSTORE PUSH1 0x20 ADD SWAP1 DUP2 MSTORE PUSH1 0x20 ADD PUSH0 KECCAK256 SWAP1 POP DUP1 PUSH1 0x1 ADD PUSH0 PUSH2 0x86E SWAP2 SWAP1 PUSH2 0x2981 JUMP JUMPDEST DUP3 DUP2 PUSH0 ADD DUP2 SWAP1 SSTORE POP PUSH0 DUP3 PUSH1 0x2 ADD DUP1 SLOAD SWAP1 POP EQ DUP1 PUSH2 0x8BC JUMPI POP DUP3 DUP3 PUSH1 0x2 ADD PUSH1 0x1 DUP5 PUSH1 0x2 ADD DUP1 SLOAD SWAP1 POP PUSH2 0x89F SWAP2 SWAP1 PUSH2 0x3F1F JUMP JUMPDEST DUP2 SLOAD DUP2 LT PUSH2 0x8B0 JUMPI PUSH2 0x8AF PUSH2 0x386A JUMP JUMPDEST JUMPDEST SWAP1 PUSH0 MSTORE PUSH1 0x20 PUSH0 KECCAK256 ADD SLOAD EQ ISZERO JUMPDEST ISZERO PUSH2 0x8EA JUMPI DUP2 PUSH1 0x2 ADD DUP4 SWAP1 DUP1 PUSH1 0x1 DUP2 SLOAD ADD DUP1 DUP3 SSTORE DUP1 SWAP2 POP POP PUSH1 0x1 SWAP1 SUB SWAP1 PUSH0 MSTORE PUSH1 0x20 PUSH0 KECCAK256 ADD PUSH0 SWAP1 SWAP2 SWAP1 SWAP2 SWAP1 SWAP2 POP SSTORE JUMPDEST PUSH0 JUMPDEST DUP9 MLOAD DUP2 LT ISZERO PUSH2 0x9EE JUMPI PUSH0 PUSH1 0x40 MLOAD DUP1 PUSH1 0x60 ADD PUSH1 0x40 MSTORE DUP1 DUP12 DUP5 DUP2 MLOAD DUP2 LT PUSH2 0x914 JUMPI PUSH2 0x913 PUSH2 0x386A JUMP JUMPDEST JUMPDEST PUSH1 0x20 MUL PUSH1 0x20 ADD ADD MLOAD PUSH0 ADD MLOAD DUP2 MSTORE PUSH1 0x20 ADD DUP12 DUP5 DUP2 MLOAD DUP2 LT PUSH2 0x937 JUMPI PUSH2 0x936 PUSH2 0x386A JUMP JUMPDEST JUMPDEST PUSH1 0x20 MUL PUSH1 0x20 ADD ADD MLOAD PUSH1 0x20 ADD MLOAD DUP2 MSTORE PUSH1 0x20 ADD DUP12 DUP5 DUP2 MLOAD DUP2 LT PUSH2 0x95B JUMPI PUSH2 0x95A PUSH2 0x386A JUMP JUMPDEST JUMPDEST PUSH1 0x20 MUL PUSH1 0x20 ADD ADD MLOAD PUSH1 0x40 ADD MLOAD DUP2 MSTORE POP SWAP1 POP DUP3 PUSH1 0x1 ADD DUP2 SWAP1 DUP1 PUSH1 0x1 DUP2 SLOAD ADD DUP1 DUP3 SSTORE DUP1 SWAP2 POP POP PUSH1 0x1 SWAP1 SUB SWAP1 PUSH0 MSTORE PUSH1 0x20 PUSH0 KECCAK256 SWAP1 PUSH1 0x3 MUL ADD PUSH0 SWAP1 SWAP2 SWAP1 SWAP2 SWAP1 SWAP2 POP PUSH0 DUP3 ADD MLOAD DUP2 PUSH0 ADD SWAP1 DUP2 PUSH2 0x9AA SWAP2 SWAP1 PUSH2 0x4143 JUMP JUMPDEST POP PUSH1 0x20 DUP3 ADD MLOAD DUP2 PUSH1 0x1 ADD SWAP1 DUP2 PUSH2 0x9C0 SWAP2 SWAP1 PUSH2 0x4143 JUMP JUMPDEST POP PUSH1 0x40 DUP3 ADD MLOAD DUP2 PUSH1 0x2 ADD SWAP1 DUP1 MLOAD SWAP1 PUSH1 0x20 ADD SWAP1 PUSH2 0x9DD SWAP3 SWAP2 SWAP1 PUSH2 0x29A2 JUMP JUMPDEST POP POP POP POP DUP1 DUP1 PUSH1 0x1 ADD SWAP2 POP POP PUSH2 0x8EC JUMP JUMPDEST POP PUSH2 0x9FA DUP10 DUP5 CALLER PUSH2 0x1442 JUMP JUMPDEST PUSH2 0xA7D JUMPI PUSH1 0x6 PUSH0 DUP11 DUP2 MSTORE PUSH1 0x20 ADD SWAP1 DUP2 MSTORE PUSH1 0x20 ADD PUSH0 KECCAK256 PUSH0 DUP5 DUP2 MSTORE PUSH1 0x20 ADD SWAP1 DUP2 MSTORE PUSH1 0x20 ADD PUSH0 KECCAK256 CALLER SWAP1 DUP1 PUSH1 0x1 DUP2 SLOAD ADD DUP1 DUP3 SSTORE DUP1 SWAP2 POP POP PUSH1 0x1 SWAP1 SUB SWAP1 PUSH0 MSTORE PUSH1 0x20 PUSH0 KECCAK256 ADD PUSH0 SWAP1 SWAP2 SWAP1 SWAP2 SWAP1 SWAP2 PUSH2 0x100 EXP DUP2 SLOAD DUP2 PUSH20 0xFFFFFFFFFFFFFFFFFFFFFFFFFFFFFFFFFFFFFFFF MUL NOT AND SWAP1 DUP4 PUSH20 0xFFFFFFFFFFFFFFFFFFFFFFFFFFFFFFFFFFFFFFFF AND MUL OR SWAP1 SSTORE POP JUMPDEST DUP9 CALLER PUSH20 0xFFFFFFFFFFFFFFFFFFFFFFFFFFFFFFFFFFFFFFFF AND PUSH32 0x320425F199B1900C87AB751CB74680DF52E35B0CAFFE1CA604850A02FDDA470B DUP6 DUP12 MLOAD PUSH1 0x40 MLOAD PUSH2 0xAC7 SWAP3 SWAP2 SWAP1 PUSH2 0x4212 JUMP JUMPDEST PUSH1 0x40 MLOAD DUP1 SWAP2 SUB SWAP1 LOG3 POP POP POP POP POP POP POP POP POP JUMP JUMPDEST PUSH1 0x60 PUSH0 PUSH1 0x5 PUSH0 DUP6 PUSH20 0xFFFFFFFFFFFFFFFFFFFFFFFFFFFFFFFFFFFFFFFF AND PUSH20 0xFFFFFFFFFFFFFFFFFFFFFFFFFFFFFFFFFFFFFFFF AND DUP2 MSTORE PUSH1 0x20 ADD SWAP1 DUP2 MSTORE PUSH1 0x20 ADD PUSH0 KECCAK256 PUSH0 DUP5 DUP2 MSTORE PUSH1 0x20 ADD SWAP1 DUP2 MSTORE PUSH1 0x20 ADD PUSH0 KECCAK256 PUSH0 ADD SLOAD SUB PUSH2 0xB6C JUMPI PUSH1 0x40 MLOAD PUSH32 0x8C379A000000000000000000000000000000000000000000000000000000000 DUP2 MSTORE PUSH1 0x4 ADD PUSH2 0xB63 SWAP1 PUSH2 0x42A9 JUMP JUMPDEST PUSH1 0x40 MLOAD DUP1 SWAP2 SUB SWAP1 REVERT JUMPDEST PUSH1 0x5 PUSH0 DUP5 PUSH20 0xFFFFFFFFFFFFFFFFFFFFFFFFFFFFFFFFFFFFFFFF AND PUSH20 0xFFFFFFFFFFFFFFFFFFFFFFFFFFFFFFFFFFFFFFFF AND DUP2 MSTORE PUSH1 0x20 ADD SWAP1 DUP2 MSTORE PUSH1 0x20 ADD PUSH0 KECCAK256 PUSH0 DUP4 DUP2 MSTORE PUSH1 0x20 ADD SWAP1 DUP2 MSTORE PUSH1 0x20 ADD PUSH0 KECCAK256 PUSH1 0x2 ADD DUP1 SLOAD DUP1 PUSH1 0x20 MUL PUSH1 0x20 ADD PUSH1 0x40 MLOAD SWAP1 DUP2 ADD PUSH1 0x40 MSTORE DUP1 SWAP3 SWAP2 SWAP1 DUP2 DUP2 MSTORE PUSH1 0x20 ADD DUP3 DUP1 SLOAD DUP1 ISZERO PUSH2 0xC03 JUMPI PUSH1 0x20 MUL DUP3 ADD SWAP2 SWAP1 PUSH0 MSTORE PUSH1 0x20 PUSH0 KECCAK256 SWAP1 JUMPDEST DUP2 SLOAD DUP2 MSTORE PUSH1 0x20 ADD SWAP1 PUSH1 0x1 ADD SWAP1 DUP1 DUP4 GT PUSH2 0xBEF JUMPI JUMPDEST POP POP POP POP POP SWAP1 POP SWAP3 SWAP2 POP POP JUMP JUMPDEST PUSH1 0x60 DUP1 PUSH1 0x60 PUSH0 PUSH1 0x5 PUSH0 DUP9 PUSH20 0xFFFFFFFFFFFFFFFFFFFFFFFFFFFFFFFFFFFFFFFF AND PUSH20 0xFFFFFFFFFFFFFFFFFFFFFFFFFFFFFFFFFFFFFFFF AND DUP2 MSTORE PUSH1 0x20 ADD SWAP1 DUP2 MSTORE PUSH1 0x20 ADD PUSH0 KECCAK256 PUSH0 DUP8 DUP2 MSTORE PUSH1 0x20 ADD SWAP1 DUP2 MSTORE PUSH1 0x20 ADD PUSH0 KECCAK256 PUSH0 ADD SLOAD SUB PUSH2 0xCA5 JUMPI PUSH1 0x40 MLOAD PUSH32 0x8C379A000000000000000000000000000000000000000000000000000000000 DUP2 MSTORE PUSH1 0x4 ADD PUSH2 0xC9C SWAP1 PUSH2 0x42A9 JUMP JUMPDEST PUSH1 0x40 MLOAD DUP1 SWAP2 SUB SWAP1 REVERT JUMPDEST PUSH0 PUSH1 0x5 PUSH0 DUP9 PUSH20 0xFFFFFFFFFFFFFFFFFFFFFFFFFFFFFFFFFFFFFFFF AND PUSH20 0xFFFFFFFFFFFFFFFFFFFFFFFFFFFFFFFFFFFFFFFF AND DUP2 MSTORE PUSH1 0x20 ADD SWAP1 DUP2 MSTORE PUSH1 0x20 ADD PUSH0 KECCAK256 PUSH0 DUP8 DUP2 MSTORE PUSH1 0x20 ADD SWAP1 DUP2 MSTORE PUSH1 0x20 ADD PUSH0 KECCAK256 PUSH1 0x1 ADD PUSH0 DUP7 DUP2 MSTORE PUSH1 0x20 ADD SWAP1 DUP2 MSTORE PUSH1 0x20 ADD PUSH0 KECCAK256 PUSH1 0x1 ADD DUP1 SLOAD DUP1 PUSH1 0x20 MUL PUSH1 0x20 ADD PUSH1 0x40 MLOAD SWAP1 DUP2 ADD PUSH1 0x40 MSTORE DUP1 SWAP3 SWAP2 SWAP1 DUP2 DUP2 MSTORE PUSH1 0x20 ADD PUSH0 SWAP1 JUMPDEST DUP3 DUP3 LT ISZERO PUSH2 0xF49 JUMPI DUP4 DUP3 SWAP1 PUSH0 MSTORE PUSH1 0x20 PUSH0 KECCAK256 SWAP1 PUSH1 0x3 MUL ADD PUSH1 0x40 MLOAD DUP1 PUSH1 0x60 ADD PUSH1 0x40 MSTORE SWAP1 DUP2 PUSH0 DUP3 ADD DUP1 SLOAD PUSH2 0xD56 SWAP1 PUSH2 0x3F7F JUMP JUMPDEST DUP1 PUSH1 0x1F ADD PUSH1 0x20 DUP1 SWAP2 DIV MUL PUSH1 0x20 ADD PUSH1 0x40 MLOAD SWAP1 DUP2 ADD PUSH1 0x40 MSTORE DUP1 SWAP3 SWAP2 SWAP1 DUP2 DUP2 MSTORE PUSH1 0x20 ADD DUP3 DUP1 SLOAD PUSH2 0xD82 SWAP1 PUSH2 0x3F7F JUMP JUMPDEST DUP1 ISZERO PUSH2 0xDCD JUMPI DUP1 PUSH1 0x1F LT PUSH2 0xDA4 JUMPI PUSH2 0x100 DUP1 DUP4 SLOAD DIV MUL DUP4 MSTORE SWAP2 PUSH1 0x20 ADD SWAP2 PUSH2 0xDCD JUMP JUMPDEST DUP3 ADD SWAP2 SWAP1 PUSH0 MSTORE PUSH1 0x20 PUSH0 KECCAK256 SWAP1 JUMPDEST DUP2 SLOAD DUP2 MSTORE SWAP1 PUSH1 0x1 ADD SWAP1 PUSH1 0x20 ADD DUP1 DUP4 GT PUSH2 0xDB0 JUMPI DUP3 SWAP1 SUB PUSH1 0x1F AND DUP3 ADD SWAP2 JUMPDEST POP POP POP POP POP DUP2 MSTORE PUSH1 0x20 ADD PUSH1 0x1 DUP3 ADD DUP1 SLOAD PUSH2 0xDE6 SWAP1 PUSH2 0x3F7F JUMP JUMPDEST DUP1 PUSH1 0x1F ADD PUSH1 0x20 DUP1 SWAP2 DIV MUL PUSH1 0x20 ADD PUSH1 0x40 MLOAD SWAP1 DUP2 ADD PUSH1 0x40 MSTORE DUP1 SWAP3 SWAP2 SWAP1 DUP2 DUP2 MSTORE PUSH1 0x20 ADD DUP3 DUP1 SLOAD PUSH2 0xE12 SWAP1 PUSH2 0x3F7F JUMP JUMPDEST DUP1 ISZERO PUSH2 0xE5D JUMPI DUP1 PUSH1 0x1F LT PUSH2 0xE34 JUMPI PUSH2 0x100 DUP1 DUP4 SLOAD DIV MUL DUP4 MSTORE SWAP2 PUSH1 0x20 ADD SWAP2 PUSH2 0xE5D JUMP JUMPDEST DUP3 ADD SWAP2 SWAP1 PUSH0 MSTORE PUSH1 0x20 PUSH0 KECCAK256 SWAP1 JUMPDEST DUP2 SLOAD DUP2 MSTORE SWAP1 PUSH1 0x1 ADD SWAP1 PUSH1 0x20 ADD DUP1 DUP4 GT PUSH2 0xE40 JUMPI DUP3 SWAP1 SUB PUSH1 0x1F AND DUP3 ADD SWAP2 JUMPDEST POP POP POP POP POP DUP2 MSTORE PUSH1 0x20 ADD PUSH1 0x2 DUP3 ADD DUP1 SLOAD DUP1 PUSH1 0x20 MUL PUSH1 0x20 ADD PUSH1 0x40 MLOAD SWAP1 DUP2 ADD PUSH1 0x40 MSTORE DUP1 SWAP3 SWAP2 SWAP1 DUP2 DUP2 MSTORE PUSH1 0x20 ADD PUSH0 SWAP1 JUMPDEST DUP3 DUP3 LT ISZERO PUSH2 0xF32 JUMPI DUP4 DUP3 SWAP1 PUSH0 MSTORE PUSH1 0x20 PUSH0 KECCAK256 ADD DUP1 SLOAD PUSH2 0xEA7 SWAP1 PUSH2 0x3F7F JUMP JUMPDEST DUP1 PUSH1 0x1F ADD PUSH1 0x20 DUP1 SWAP2 DIV MUL PUSH1 0x20 ADD PUSH1 0x40 MLOAD SWAP1 DUP2 ADD PUSH1 0x40 MSTORE DUP1 SWAP3 SWAP2 SWAP1 DUP2 DUP2 MSTORE PUSH1 0x20 ADD DUP3 DUP1 SLOAD PUSH2 0xED3 SWAP1 PUSH2 0x3F7F JUMP JUMPDEST DUP1 ISZERO PUSH2 0xF1E JUMPI DUP1 PUSH1 0x1F LT PUSH2 0xEF5 JUMPI PUSH2 0x100 DUP1 DUP4 SLOAD DIV MUL DUP4 MSTORE SWAP2 PUSH1 0x20 ADD SWAP2 PUSH2 0xF1E JUMP JUMPDEST DUP3 ADD SWAP2 SWAP1 PUSH0 MSTORE PUSH1 0x20 PUSH0 KECCAK256 SWAP1 JUMPDEST DUP2 SLOAD DUP2 MSTORE SWAP1 PUSH1 0x1 ADD SWAP1 PUSH1 0x20 ADD DUP1 DUP4 GT PUSH2 0xF01 JUMPI DUP3 SWAP1 SUB PUSH1 0x1F AND DUP3 ADD SWAP2 JUMPDEST POP POP POP POP POP DUP2 MSTORE PUSH1 0x20 ADD SWAP1 PUSH1 0x1 ADD SWAP1 PUSH2 0xE8A JUMP JUMPDEST POP POP POP POP DUP2 MSTORE POP POP DUP2 MSTORE PUSH1 0x20 ADD SWAP1 PUSH1 0x1 ADD SWAP1 PUSH2 0xD26 JUMP JUMPDEST POP POP POP POP SWAP1 POP DUP1 MLOAD PUSH8 0xFFFFFFFFFFFFFFFF DUP2 GT ISZERO PUSH2 0xF6A JUMPI PUSH2 0xF69 PUSH2 0x2FF9 JUMP JUMPDEST JUMPDEST PUSH1 0x40 MLOAD SWAP1 DUP1 DUP3 MSTORE DUP1 PUSH1 0x20 MUL PUSH1 0x20 ADD DUP3 ADD PUSH1 0x40 MSTORE DUP1 ISZERO PUSH2 0xF9D JUMPI DUP2 PUSH1 0x20 ADD JUMPDEST PUSH1 0x60 DUP2 MSTORE PUSH1 0x20 ADD SWAP1 PUSH1 0x1 SWAP1 SUB SWAP1 DUP2 PUSH2 0xF88 JUMPI SWAP1 POP JUMPDEST POP SWAP4 POP DUP1 MLOAD PUSH8 0xFFFFFFFFFFFFFFFF DUP2 GT ISZERO PUSH2 0xFBB JUMPI PUSH2 0xFBA PUSH2 0x2FF9 JUMP JUMPDEST JUMPDEST PUSH1 0x40 MLOAD SWAP1 DUP1 DUP3 MSTORE DUP1 PUSH1 0x20 MUL PUSH1 0x20 ADD DUP3 ADD PUSH1 0x40 MSTORE DUP1 ISZERO PUSH2 0xFEE JUMPI DUP2 PUSH1 0x20 ADD JUMPDEST PUSH1 0x60 DUP2 MSTORE PUSH1 0x20 ADD SWAP1 PUSH1 0x1 SWAP1 SUB SWAP1 DUP2 PUSH2 0xFD9 JUMPI SWAP1 POP JUMPDEST POP SWAP3 POP DUP1 MLOAD PUSH8 0xFFFFFFFFFFFFFFFF DUP2 GT ISZERO PUSH2 0x100C JUMPI PUSH2 0x100B PUSH2 0x2FF9 JUMP JUMPDEST JUMPDEST PUSH1 0x40 MLOAD SWAP1 DUP1 DUP3 MSTORE DUP1 PUSH1 0x20 MUL PUSH1 0x20 ADD DUP3 ADD PUSH1 0x40 MSTORE DUP1 ISZERO PUSH2 0x103F JUMPI DUP2 PUSH1 0x20 ADD JUMPDEST PUSH1 0x60 DUP2 MSTORE PUSH1 0x20 ADD SWAP1 PUSH1 0x1 SWAP1 SUB SWAP1 DUP2 PUSH2 0x102A JUMPI SWAP1 POP JUMPDEST POP SWAP2 POP PUSH0 JUMPDEST DUP2 MLOAD DUP2 LT ISZERO PUSH2 0x1110 JUMPI DUP2 DUP2 DUP2 MLOAD DUP2 LT PUSH2 0x1060 JUMPI PUSH2 0x105F PUSH2 0x386A JUMP JUMPDEST JUMPDEST PUSH1 0x20 MUL PUSH1 0x20 ADD ADD MLOAD PUSH0 ADD MLOAD DUP6 DUP3 DUP2 MLOAD DUP2 LT PUSH2 0x107E JUMPI PUSH2 0x107D PUSH2 0x386A JUMP JUMPDEST JUMPDEST PUSH1 0x20 MUL PUSH1 0x20 ADD ADD DUP2 SWAP1 MSTORE POP DUP2 DUP2 DUP2 MLOAD DUP2 LT PUSH2 0x109C JUMPI PUSH2 0x109B PUSH2 0x386A JUMP JUMPDEST JUMPDEST PUSH1 0x20 MUL PUSH1 0x20 ADD ADD MLOAD PUSH1 0x20 ADD MLOAD DUP5 DUP3 DUP2 MLOAD DUP2 LT PUSH2 0x10BB JUMPI PUSH2 0x10BA PUSH2 0x386A JUMP JUMPDEST JUMPDEST PUSH1 0x20 MUL PUSH1 0x20 ADD ADD DUP2 SWAP1 MSTORE POP DUP2 DUP2 DUP2 MLOAD DUP2 LT PUSH2 0x10D9 JUMPI PUSH2 0x10D8 PUSH2 0x386A JUMP JUMPDEST JUMPDEST PUSH1 0x20 MUL PUSH1 0x20 ADD ADD MLOAD PUSH1 0x40 ADD MLOAD DUP4 DUP3 DUP2 MLOAD DUP2 LT PUSH2 0x10F8 JUMPI PUSH2 0x10F7 PUSH2 0x386A JUMP JUMPDEST JUMPDEST PUSH1 0x20 MUL PUSH1 0x20 ADD ADD DUP2 SWAP1 MSTORE POP DUP1 DUP1 PUSH1 0x1 ADD SWAP2 POP POP PUSH2 0x1044 JUMP JUMPDEST POP POP SWAP4 POP SWAP4 POP SWAP4 SWAP1 POP JUMP JUMPDEST PUSH0 DUP1 PUSH0 SWAP1 SLOAD SWAP1 PUSH2 0x100 EXP SWAP1 DIV PUSH20 0xFFFFFFFFFFFFFFFFFFFFFFFFFFFFFFFFFFFFFFFF AND PUSH20 0xFFFFFFFFFFFFFFFFFFFFFFFFFFFFFFFFFFFFFFFF AND PUSH4 0x99664245 DUP4 PUSH1 0x40 MLOAD DUP3 PUSH4 0xFFFFFFFF AND PUSH1 0xE0 SHL DUP2 MSTORE PUSH1 0x4 ADD PUSH2 0x1175 SWAP2 SWAP1 PUSH2 0x2D0A JUMP JUMPDEST PUSH0 PUSH1 0x40 MLOAD DUP1 DUP4 SUB DUP2 DUP7 GAS STATICCALL ISZERO DUP1 ISZERO PUSH2 0x118F JUMPI RETURNDATASIZE PUSH0 DUP1 RETURNDATACOPY RETURNDATASIZE PUSH0 REVERT JUMPDEST POP POP POP POP PUSH1 0x40 MLOAD RETURNDATASIZE PUSH0 DUP3 RETURNDATACOPY RETURNDATASIZE PUSH1 0x1F NOT PUSH1 0x1F DUP3 ADD AND DUP3 ADD DUP1 PUSH1 0x40 MSTORE POP DUP2 ADD SWAP1 PUSH2 0x11B7 SWAP2 SWAP1 PUSH2 0x3E27 JUMP JUMPDEST SWAP5 POP POP POP POP POP PUSH0 DUP2 SWAP1 POP PUSH0 PUSH1 0x6 PUSH0 DUP6 DUP2 MSTORE PUSH1 0x20 ADD SWAP1 DUP2 MSTORE PUSH1 0x20 ADD PUSH0 KECCAK256 PUSH0 DUP4 DUP2 MSTORE PUSH1 0x20 ADD SWAP1 DUP2 MSTORE PUSH1 0x20 ADD PUSH0 KECCAK256 DUP1 SLOAD DUP1 PUSH1 0x20 MUL PUSH1 0x20 ADD PUSH1 0x40 MLOAD SWAP1 DUP2 ADD PUSH1 0x40 MSTORE DUP1 SWAP3 SWAP2 SWAP1 DUP2 DUP2 MSTORE PUSH1 0x20 ADD DUP3 DUP1 SLOAD DUP1 ISZERO PUSH2 0x125F JUMPI PUSH1 0x20 MUL DUP3 ADD SWAP2 SWAP1 PUSH0 MSTORE PUSH1 0x20 PUSH0 KECCAK256 SWAP1 JUMPDEST DUP2 PUSH0 SWAP1 SLOAD SWAP1 PUSH2 0x100 EXP SWAP1 DIV PUSH20 0xFFFFFFFFFFFFFFFFFFFFFFFFFFFFFFFFFFFFFFFF AND PUSH20 0xFFFFFFFFFFFFFFFFFFFFFFFFFFFFFFFFFFFFFFFF AND DUP2 MSTORE PUSH1 0x20 ADD SWAP1 PUSH1 0x1 ADD SWAP1 DUP1 DUP4 GT PUSH2 0x1216 JUMPI JUMPDEST POP POP POP POP POP SWAP1 POP PUSH0 DUP2 MLOAD GT PUSH2 0x12A9 JUMPI PUSH1 0x40 MLOAD PUSH32 0x8C379A000000000000000000000000000000000000000000000000000000000 DUP2 MSTORE PUSH1 0x4 ADD PUSH2 0x12A0 SWAP1 PUSH2 0x4337 JUMP JUMPDEST PUSH1 0x40 MLOAD DUP1 SWAP2 SUB SWAP1 REVERT JUMPDEST PUSH2 0x12B2 DUP2 PUSH2 0x1565 JUMP JUMPDEST DUP4 PUSH32 0x23A1C99C38932E128BFCF925232D21EED654965240C06433650755D2B5879D98 DUP4 PUSH1 0x2 DUP1 SLOAD SWAP1 POP PUSH1 0x40 MLOAD PUSH2 0x12E9 SWAP3 SWAP2 SWAP1 PUSH2 0x4212 JUMP JUMPDEST PUSH1 0x40 MLOAD DUP1 SWAP2 SUB SWAP1 LOG2 POP POP POP POP JUMP JUMPDEST PUSH1 0x5 PUSH1 0x20 MSTORE DUP2 PUSH0 MSTORE PUSH1 0x40 PUSH0 KECCAK256 PUSH1 0x20 MSTORE DUP1 PUSH0 MSTORE PUSH1 0x40 PUSH0 KECCAK256 PUSH0 SWAP2 POP SWAP2 POP POP DUP1 PUSH0 ADD SLOAD SWAP1 POP DUP2 JUMP JUMPDEST PUSH1 0x60 PUSH1 0x1 DUP1 SLOAD DUP1 PUSH1 0x20 MUL PUSH1 0x20 ADD PUSH1 0x40 MLOAD SWAP1 DUP2 ADD PUSH1 0x40 MSTORE DUP1 SWAP3 SWAP2 SWAP1 DUP2 DUP2 MSTORE PUSH1 0x20 ADD DUP3 DUP1 SLOAD DUP1 ISZERO PUSH2 0x138C JUMPI PUSH1 0x20 MUL DUP3 ADD SWAP2 SWAP1 PUSH0 MSTORE PUSH1 0x20 PUSH0 KECCAK256 SWAP1 PUSH0 SWAP1 JUMPDEST DUP3 DUP3 SWAP1 SLOAD SWAP1 PUSH2 0x100 EXP SWAP1 DIV PUSH1 0xFF AND PUSH1 0xFF AND DUP2 MSTORE PUSH1 0x20 ADD SWAP1 PUSH1 0x1 ADD SWAP1 PUSH1 0x20 DUP3 PUSH0 ADD DIV SWAP3 DUP4 ADD SWAP3 PUSH1 0x1 SUB DUP3 MUL SWAP2 POP DUP1 DUP5 GT PUSH2 0x1356 JUMPI SWAP1 POP JUMPDEST POP POP POP POP POP SWAP1 POP SWAP1 JUMP JUMPDEST PUSH1 0x60 PUSH1 0x6 PUSH0 DUP5 DUP2 MSTORE PUSH1 0x20 ADD SWAP1 DUP2 MSTORE PUSH1 0x20 ADD PUSH0 KECCAK256 PUSH0 DUP4 DUP2 MSTORE PUSH1 0x20 ADD SWAP1 DUP2 MSTORE PUSH1 0x20 ADD PUSH0 KECCAK256 DUP1 SLOAD DUP1 PUSH1 0x20 MUL PUSH1 0x20 ADD PUSH1 0x40 MLOAD SWAP1 DUP2 ADD PUSH1 0x40 MSTORE DUP1 SWAP3 SWAP2 SWAP1 DUP2 DUP2 MSTORE PUSH1 0x20 ADD DUP3 DUP1 SLOAD DUP1 ISZERO PUSH2 0x1435 JUMPI PUSH1 0x20 MUL DUP3 ADD SWAP2 SWAP1 PUSH0 MSTORE PUSH1 0x20 PUSH0 KECCAK256 SWAP1 JUMPDEST DUP2 PUSH0 SWAP1 SLOAD SWAP1 PUSH2 0x100 EXP SWAP1 DIV PUSH20 0xFFFFFFFFFFFFFFFFFFFFFFFFFFFFFFFFFFFFFFFF AND PUSH20 0xFFFFFFFFFFFFFFFFFFFFFFFFFFFFFFFFFFFFFFFF AND DUP2 MSTORE PUSH1 0x20 ADD SWAP1 PUSH1 0x1 ADD SWAP1 DUP1 DUP4 GT PUSH2 0x13EC JUMPI JUMPDEST POP POP POP POP POP SWAP1 POP SWAP3 SWAP2 POP POP JUMP JUMPDEST PUSH0 DUP1 PUSH1 0x6 PUSH0 DUP7 DUP2 MSTORE PUSH1 0x20 ADD SWAP1 DUP2 MSTORE PUSH1 0x20 ADD PUSH0 KECCAK256 PUSH0 DUP6 DUP2 MSTORE PUSH1 0x20 ADD SWAP1 DUP2 MSTORE PUSH1 0x20 ADD PUSH0 KECCAK256 DUP1 SLOAD DUP1 PUSH1 0x20 MUL PUSH1 0x20 ADD PUSH1 0x40 MLOAD SWAP1 DUP2 ADD PUSH1 0x40 MSTORE DUP1 SWAP3 SWAP2 SWAP1 DUP2 DUP2 MSTORE PUSH1 0x20 ADD DUP3 DUP1 SLOAD DUP1 ISZERO PUSH2 0x14E1 JUMPI PUSH1 0x20 MUL DUP3 ADD SWAP2 SWAP1 PUSH0 MSTORE PUSH1 0x20 PUSH0 KECCAK256 SWAP1 JUMPDEST DUP2 PUSH0 SWAP1 SLOAD SWAP1 PUSH2 0x100 EXP SWAP1 DIV PUSH20 0xFFFFFFFFFFFFFFFFFFFFFFFFFFFFFFFFFFFFFFFF AND PUSH20 0xFFFFFFFFFFFFFFFFFFFFFFFFFFFFFFFFFFFFFFFF AND DUP2 MSTORE PUSH1 0x20 ADD SWAP1 PUSH1 0x1 ADD SWAP1 DUP1 DUP4 GT PUSH2 0x1498 JUMPI JUMPDEST POP POP POP POP POP SWAP1 POP PUSH0 JUMPDEST DUP2 MLOAD DUP2 LT ISZERO PUSH2 0x1558 JUMPI DUP4 PUSH20 0xFFFFFFFFFFFFFFFFFFFFFFFFFFFFFFFFFFFFFFFF AND DUP3 DUP3 DUP2 MLOAD DUP2 LT PUSH2 0x151D JUMPI PUSH2 0x151C PUSH2 0x386A JUMP JUMPDEST JUMPDEST PUSH1 0x20 MUL PUSH1 0x20 ADD ADD MLOAD PUSH20 0xFFFFFFFFFFFFFFFFFFFFFFFFFFFFFFFFFFFFFFFF AND SUB PUSH2 0x154B JUMPI PUSH1 0x1 SWAP3 POP POP POP PUSH2 0x155E JUMP JUMPDEST DUP1 DUP1 PUSH1 0x1 ADD SWAP2 POP POP PUSH2 0x14EA JUMP JUMPDEST POP PUSH0 SWAP2 POP POP JUMPDEST SWAP4 SWAP3 POP POP POP JUMP JUMPDEST PUSH0 DUP2 MLOAD GT PUSH2 0x15A8 JUMPI PUSH1 0x40 MLOAD PUSH32 0x8C379A000000000000000000000000000000000000000000000000000000000 DUP2 MSTORE PUSH1 0x4 ADD PUSH2 0x159F SWAP1 PUSH2 0x439F JUMP JUMPDEST PUSH1 0x40 MLOAD DUP1 SWAP2 SUB SWAP1 REVERT JUMPDEST PUSH1 0x2 PUSH0 PUSH2 0x15B5 SWAP2 SWAP1 PUSH2 0x29F9 JUMP JUMPDEST PUSH2 0x15BE DUP2 PUSH2 0x1778 JUMP JUMPDEST PUSH0 PUSH2 0x15C9 DUP3 MLOAD PUSH2 0x18BD JUMP JUMPDEST SWAP1 POP PUSH0 DUP1 JUMPDEST DUP3 MLOAD DUP2 LT ISZERO PUSH2 0x175B JUMPI PUSH0 DUP4 DUP3 DUP2 MLOAD DUP2 LT PUSH2 0x15EB JUMPI PUSH2 0x15EA PUSH2 0x386A JUMP JUMPDEST JUMPDEST PUSH1 0x20 MUL PUSH1 0x20 ADD ADD MLOAD PUSH1 0xFF AND PUSH8 0xFFFFFFFFFFFFFFFF DUP2 GT ISZERO PUSH2 0x160F JUMPI PUSH2 0x160E PUSH2 0x2FF9 JUMP JUMPDEST JUMPDEST PUSH1 0x40 MLOAD SWAP1 DUP1 DUP3 MSTORE DUP1 PUSH1 0x20 MUL PUSH1 0x20 ADD DUP3 ADD PUSH1 0x40 MSTORE DUP1 ISZERO PUSH2 0x163D JUMPI DUP2 PUSH1 0x20 ADD PUSH1 0x20 DUP3 MUL DUP1 CALLDATASIZE DUP4 CALLDATACOPY DUP1 DUP3 ADD SWAP2 POP POP SWAP1 POP JUMPDEST POP SWAP1 POP PUSH0 JUMPDEST DUP5 DUP4 DUP2 MLOAD DUP2 LT PUSH2 0x1655 JUMPI PUSH2 0x1654 PUSH2 0x386A JUMP JUMPDEST JUMPDEST PUSH1 0x20 MUL PUSH1 0x20 ADD ADD MLOAD PUSH1 0xFF AND DUP2 LT DUP1 ISZERO PUSH2 0x166E JUMPI POP DUP6 MLOAD DUP5 LT JUMPDEST ISZERO PUSH2 0x16FC JUMPI DUP6 DUP5 DUP2 MLOAD DUP2 LT PUSH2 0x1686 JUMPI PUSH2 0x1685 PUSH2 0x386A JUMP JUMPDEST JUMPDEST PUSH1 0x20 MUL PUSH1 0x20 ADD ADD MLOAD DUP3 DUP3 DUP2 MLOAD DUP2 LT PUSH2 0x16A1 JUMPI PUSH2 0x16A0 PUSH2 0x386A JUMP JUMPDEST JUMPDEST PUSH1 0x20 MUL PUSH1 0x20 ADD ADD SWAP1 PUSH20 0xFFFFFFFFFFFFFFFFFFFFFFFFFFFFFFFFFFFFFFFF AND SWAP1 DUP2 PUSH20 0xFFFFFFFFFFFFFFFFFFFFFFFFFFFFFFFFFFFFFFFF AND DUP2 MSTORE POP POP DUP4 DUP1 PUSH2 0x16E6 SWAP1 PUSH2 0x43BD JUMP JUMPDEST SWAP5 POP POP DUP1 DUP1 PUSH2 0x16F4 SWAP1 PUSH2 0x43BD JUMP JUMPDEST SWAP2 POP POP PUSH2 0x1642 JUMP JUMPDEST POP PUSH1 0x2 PUSH1 0x40 MLOAD DUP1 PUSH1 0x20 ADD PUSH1 0x40 MSTORE DUP1 DUP4 DUP2 MSTORE POP SWAP1 DUP1 PUSH1 0x1 DUP2 SLOAD ADD DUP1 DUP3 SSTORE DUP1 SWAP2 POP POP PUSH1 0x1 SWAP1 SUB SWAP1 PUSH0 MSTORE PUSH1 0x20 PUSH0 KECCAK256 ADD PUSH0 SWAP1 SWAP2 SWAP1 SWAP2 SWAP1 SWAP2 POP PUSH0 DUP3 ADD MLOAD DUP2 PUSH0 ADD SWAP1 DUP1 MLOAD SWAP1 PUSH1 0x20 ADD SWAP1 PUSH2 0x174A SWAP3 SWAP2 SWAP1 PUSH2 0x2A17 JUMP JUMPDEST POP POP POP POP DUP1 DUP1 PUSH1 0x1 ADD SWAP2 POP POP PUSH2 0x15CE JUMP JUMPDEST POP DUP2 PUSH1 0x1 SWAP1 DUP1 MLOAD SWAP1 PUSH1 0x20 ADD SWAP1 PUSH2 0x1772 SWAP3 SWAP2 SWAP1 PUSH2 0x2A9E JUMP JUMPDEST POP POP POP POP JUMP JUMPDEST PUSH0 PUSH1 0x1 DUP3 MLOAD PUSH2 0x1787 SWAP2 SWAP1 PUSH2 0x3F1F JUMP JUMPDEST SWAP1 POP JUMPDEST PUSH0 DUP2 GT ISZERO PUSH2 0x18B9 JUMPI PUSH0 PUSH1 0x1 DUP3 PUSH2 0x17A0 SWAP2 SWAP1 PUSH2 0x4404 JUMP JUMPDEST TIMESTAMP PREVRANDAO DUP5 PUSH1 0x40 MLOAD PUSH1 0x20 ADD PUSH2 0x17B5 SWAP4 SWAP3 SWAP2 SWAP1 PUSH2 0x4457 JUMP JUMPDEST PUSH1 0x40 MLOAD PUSH1 0x20 DUP2 DUP4 SUB SUB DUP2 MSTORE SWAP1 PUSH1 0x40 MSTORE DUP1 MLOAD SWAP1 PUSH1 0x20 ADD KECCAK256 PUSH0 SHR PUSH2 0x17D7 SWAP2 SWAP1 PUSH2 0x44C0 JUMP JUMPDEST SWAP1 POP DUP3 DUP2 DUP2 MLOAD DUP2 LT PUSH2 0x17EC JUMPI PUSH2 0x17EB PUSH2 0x386A JUMP JUMPDEST JUMPDEST PUSH1 0x20 MUL PUSH1 0x20 ADD ADD MLOAD DUP4 DUP4 DUP2 MLOAD DUP2 LT PUSH2 0x1807 JUMPI PUSH2 0x1806 PUSH2 0x386A JUMP JUMPDEST JUMPDEST PUSH1 0x20 MUL PUSH1 0x20 ADD ADD MLOAD DUP5 DUP5 DUP2 MLOAD DUP2 LT PUSH2 0x1822 JUMPI PUSH2 0x1821 PUSH2 0x386A JUMP JUMPDEST JUMPDEST PUSH1 0x20 MUL PUSH1 0x20 ADD ADD DUP6 DUP5 DUP2 MLOAD DUP2 LT PUSH2 0x183C JUMPI PUSH2 0x183B PUSH2 0x386A JUMP JUMPDEST JUMPDEST PUSH1 0x20 MUL PUSH1 0x20 ADD ADD DUP3 PUSH20 0xFFFFFFFFFFFFFFFFFFFFFFFFFFFFFFFFFFFFFFFF AND PUSH20 0xFFFFFFFFFFFFFFFFFFFFFFFFFFFFFFFFFFFFFFFF AND DUP2 MSTORE POP DUP3 PUSH20 0xFFFFFFFFFFFFFFFFFFFFFFFFFFFFFFFFFFFFFFFF AND PUSH20 0xFFFFFFFFFFFFFFFFFFFFFFFFFFFFFFFFFFFFFFFF AND DUP2 MSTORE POP POP POP POP DUP1 DUP1 PUSH2 0x18B1 SWAP1 PUSH2 0x44F0 JUMP JUMPDEST SWAP2 POP POP PUSH2 0x178A JUMP JUMPDEST POP POP JUMP JUMPDEST PUSH1 0x60 PUSH1 0x14 DUP3 GT PUSH2 0x18D7 JUMPI PUSH2 0x18D0 DUP3 PUSH2 0x18E8 JUMP JUMPDEST SWAP1 POP PUSH2 0x18E3 JUMP JUMPDEST PUSH2 0x18E0 DUP3 PUSH2 0x282E JUMP JUMPDEST SWAP1 POP JUMPDEST SWAP2 SWAP1 POP JUMP JUMPDEST PUSH1 0x60 DUP1 PUSH1 0x1 DUP4 SUB PUSH2 0x1944 JUMPI PUSH1 0x1 PUSH8 0xFFFFFFFFFFFFFFFF DUP2 GT ISZERO PUSH2 0x190E JUMPI PUSH2 0x190D PUSH2 0x2FF9 JUMP JUMPDEST JUMPDEST PUSH1 0x40 MLOAD SWAP1 DUP1 DUP3 MSTORE DUP1 PUSH1 0x20 MUL PUSH1 0x20 ADD DUP3 ADD PUSH1 0x40 MSTORE DUP1 ISZERO PUSH2 0x193C JUMPI DUP2 PUSH1 0x20 ADD PUSH1 0x20 DUP3 MUL DUP1 CALLDATASIZE DUP4 CALLDATACOPY DUP1 DUP3 ADD SWAP2 POP POP SWAP1 POP JUMPDEST POP SWAP1 POP PUSH2 0x1FEE JUMP JUMPDEST PUSH1 0x2 DUP4 SUB PUSH2 0x199D JUMPI PUSH1 0x1 PUSH8 0xFFFFFFFFFFFFFFFF DUP2 GT ISZERO PUSH2 0x1967 JUMPI PUSH2 0x1966 PUSH2 0x2FF9 JUMP JUMPDEST JUMPDEST PUSH1 0x40 MLOAD SWAP1 DUP1 DUP3 MSTORE DUP1 PUSH1 0x20 MUL PUSH1 0x20 ADD DUP3 ADD PUSH1 0x40 MSTORE DUP1 ISZERO PUSH2 0x1995 JUMPI DUP2 PUSH1 0x20 ADD PUSH1 0x20 DUP3 MUL DUP1 CALLDATASIZE DUP4 CALLDATACOPY DUP1 DUP3 ADD SWAP2 POP POP SWAP1 POP JUMPDEST POP SWAP1 POP PUSH2 0x1FED JUMP JUMPDEST PUSH1 0x3 DUP4 SUB PUSH2 0x19F6 JUMPI PUSH1 0x1 PUSH8 0xFFFFFFFFFFFFFFFF DUP2 GT ISZERO PUSH2 0x19C0 JUMPI PUSH2 0x19BF PUSH2 0x2FF9 JUMP JUMPDEST JUMPDEST PUSH1 0x40 MLOAD SWAP1 DUP1 DUP3 MSTORE DUP1 PUSH1 0x20 MUL PUSH1 0x20 ADD DUP3 ADD PUSH1 0x40 MSTORE DUP1 ISZERO PUSH2 0x19EE JUMPI DUP2 PUSH1 0x20 ADD PUSH1 0x20 DUP3 MUL DUP1 CALLDATASIZE DUP4 CALLDATACOPY DUP1 DUP3 ADD SWAP2 POP POP SWAP1 POP JUMPDEST POP SWAP1 POP PUSH2 0x1FEC JUMP JUMPDEST PUSH1 0x4 DUP4 SUB PUSH2 0x1A4F JUMPI PUSH1 0x1 PUSH8 0xFFFFFFFFFFFFFFFF DUP2 GT ISZERO PUSH2 0x1A19 JUMPI PUSH2 0x1A18 PUSH2 0x2FF9 JUMP JUMPDEST JUMPDEST PUSH1 0x40 MLOAD SWAP1 DUP1 DUP3 MSTORE DUP1 PUSH1 0x20 MUL PUSH1 0x20 ADD DUP3 ADD PUSH1 0x40 MSTORE DUP1 ISZERO PUSH2 0x1A47 JUMPI DUP2 PUSH1 0x20 ADD PUSH1 0x20 DUP3 MUL DUP1 CALLDATASIZE DUP4 CALLDATACOPY DUP1 DUP3 ADD SWAP2 POP POP SWAP1 POP JUMPDEST POP SWAP1 POP PUSH2 0x1FEB JUMP JUMPDEST PUSH1 0x5 DUP4 SUB PUSH2 0x1AA8 JUMPI PUSH1 0x1 PUSH8 0xFFFFFFFFFFFFFFFF DUP2 GT ISZERO PUSH2 0x1A72 JUMPI PUSH2 0x1A71 PUSH2 0x2FF9 JUMP JUMPDEST JUMPDEST PUSH1 0x40 MLOAD SWAP1 DUP1 DUP3 MSTORE DUP1 PUSH1 0x20 MUL PUSH1 0x20 ADD DUP3 ADD PUSH1 0x40 MSTORE DUP1 ISZERO PUSH2 0x1AA0 JUMPI DUP2 PUSH1 0x20 ADD PUSH1 0x20 DUP3 MUL DUP1 CALLDATASIZE DUP4 CALLDATACOPY DUP1 DUP3 ADD SWAP2 POP POP SWAP1 POP JUMPDEST POP SWAP1 POP PUSH2 0x1FEA JUMP JUMPDEST PUSH1 0x6 DUP4 SUB PUSH2 0x1B01 JUMPI PUSH1 0x1 PUSH8 0xFFFFFFFFFFFFFFFF DUP2 GT ISZERO PUSH2 0x1ACB JUMPI PUSH2 0x1ACA PUSH2 0x2FF9 JUMP JUMPDEST JUMPDEST PUSH1 0x40 MLOAD SWAP1 DUP1 DUP3 MSTORE DUP1 PUSH1 0x20 MUL PUSH1 0x20 ADD DUP3 ADD PUSH1 0x40 MSTORE DUP1 ISZERO PUSH2 0x1AF9 JUMPI DUP2 PUSH1 0x20 ADD PUSH1 0x20 DUP3 MUL DUP1 CALLDATASIZE DUP4 CALLDATACOPY DUP1 DUP3 ADD SWAP2 POP POP SWAP1 POP JUMPDEST POP SWAP1 POP PUSH2 0x1FE9 JUMP JUMPDEST PUSH1 0x7 DUP4 SUB PUSH2 0x1B5A JUMPI PUSH1 0x2 PUSH8 0xFFFFFFFFFFFFFFFF DUP2 GT ISZERO PUSH2 0x1B24 JUMPI PUSH2 0x1B23 PUSH2 0x2FF9 JUMP JUMPDEST JUMPDEST PUSH1 0x40 MLOAD SWAP1 DUP1 DUP3 MSTORE DUP1 PUSH1 0x20 MUL PUSH1 0x20 ADD DUP3 ADD PUSH1 0x40 MSTORE DUP1 ISZERO PUSH2 0x1B52 JUMPI DUP2 PUSH1 0x20 ADD PUSH1 0x20 DUP3 MUL DUP1 CALLDATASIZE DUP4 CALLDATACOPY DUP1 DUP3 ADD SWAP2 POP POP SWAP1 POP JUMPDEST POP SWAP1 POP PUSH2 0x1FE8 JUMP JUMPDEST PUSH1 0x8 DUP4 SUB PUSH2 0x1BB3 JUMPI PUSH1 0x2 PUSH8 0xFFFFFFFFFFFFFFFF DUP2 GT ISZERO PUSH2 0x1B7D JUMPI PUSH2 0x1B7C PUSH2 0x2FF9 JUMP JUMPDEST JUMPDEST PUSH1 0x40 MLOAD SWAP1 DUP1 DUP3 MSTORE DUP1 PUSH1 0x20 MUL PUSH1 0x20 ADD DUP3 ADD PUSH1 0x40 MSTORE DUP1 ISZERO PUSH2 0x1BAB JUMPI DUP2 PUSH1 0x20 ADD PUSH1 0x20 DUP3 MUL DUP1 CALLDATASIZE DUP4 CALLDATACOPY DUP1 DUP3 ADD SWAP2 POP POP SWAP1 POP JUMPDEST POP SWAP1 POP PUSH2 0x1FE7 JUMP JUMPDEST PUSH1 0x9 DUP4 SUB PUSH2 0x1C0C JUMPI PUSH1 0x2 PUSH8 0xFFFFFFFFFFFFFFFF DUP2 GT ISZERO PUSH2 0x1BD6 JUMPI PUSH2 0x1BD5 PUSH2 0x2FF9 JUMP JUMPDEST JUMPDEST PUSH1 0x40 MLOAD SWAP1 DUP1 DUP3 MSTORE DUP1 PUSH1 0x20 MUL PUSH1 0x20 ADD DUP3 ADD PUSH1 0x40 MSTORE DUP1 ISZERO PUSH2 0x1C04 JUMPI DUP2 PUSH1 0x20 ADD PUSH1 0x20 DUP3 MUL DUP1 CALLDATASIZE DUP4 CALLDATACOPY DUP1 DUP3 ADD SWAP2 POP POP SWAP1 POP JUMPDEST POP SWAP1 POP PUSH2 0x1FE6 JUMP JUMPDEST PUSH1 0xA DUP4 SUB PUSH2 0x1C65 JUMPI PUSH1 0x2 PUSH8 0xFFFFFFFFFFFFFFFF DUP2 GT ISZERO PUSH2 0x1C2F JUMPI PUSH2 0x1C2E PUSH2 0x2FF9 JUMP JUMPDEST JUMPDEST PUSH1 0x40 MLOAD SWAP1 DUP1 DUP3 MSTORE DUP1 PUSH1 0x20 MUL PUSH1 0x20 ADD DUP3 ADD PUSH1 0x40 MSTORE DUP1 ISZERO PUSH2 0x1C5D JUMPI DUP2 PUSH1 0x20 ADD PUSH1 0x20 DUP3 MUL DUP1 CALLDATASIZE DUP4 CALLDATACOPY DUP1 DUP3 ADD SWAP2 POP POP SWAP1 POP JUMPDEST POP SWAP1 POP PUSH2 0x1FE5 JUMP JUMPDEST PUSH1 0xB DUP4 SUB PUSH2 0x1CBE JUMPI PUSH1 0x2 PUSH8 0xFFFFFFFFFFFFFFFF DUP2 GT ISZERO PUSH2 0x1C88 JUMPI PUSH2 0x1C87 PUSH2 0x2FF9 JUMP JUMPDEST JUMPDEST PUSH1 0x40 MLOAD SWAP1 DUP1 DUP3 MSTORE DUP1 PUSH1 0x20 MUL PUSH1 0x20 ADD DUP3 ADD PUSH1 0x40 MSTORE DUP1 ISZERO PUSH2 0x1CB6 JUMPI DUP2 PUSH1 0x20 ADD PUSH1 0x20 DUP3 MUL DUP1 CALLDATASIZE DUP4 CALLDATACOPY DUP1 DUP3 ADD SWAP2 POP POP SWAP1 POP JUMPDEST POP SWAP1 POP PUSH2 0x1FE4 JUMP JUMPDEST PUSH1 0xC DUP4 SUB PUSH2 0x1D17 JUMPI PUSH1 0x2 PUSH8 0xFFFFFFFFFFFFFFFF DUP2 GT ISZERO PUSH2 0x1CE1 JUMPI PUSH2 0x1CE0 PUSH2 0x2FF9 JUMP JUMPDEST JUMPDEST PUSH1 0x40 MLOAD SWAP1 DUP1 DUP3 MSTORE DUP1 PUSH1 0x20 MUL PUSH1 0x20 ADD DUP3 ADD PUSH1 0x40 MSTORE DUP1 ISZERO PUSH2 0x1D0F JUMPI DUP2 PUSH1 0x20 ADD PUSH1 0x20 DUP3 MUL DUP1 CALLDATASIZE DUP4 CALLDATACOPY DUP1 DUP3 ADD SWAP2 POP POP SWAP1 POP JUMPDEST POP SWAP1 POP PUSH2 0x1FE3 JUMP JUMPDEST PUSH1 0xD DUP4 SUB PUSH2 0x1D70 JUMPI PUSH1 0x3 PUSH8 0xFFFFFFFFFFFFFFFF DUP2 GT ISZERO PUSH2 0x1D3A JUMPI PUSH2 0x1D39 PUSH2 0x2FF9 JUMP JUMPDEST JUMPDEST PUSH1 0x40 MLOAD SWAP1 DUP1 DUP3 MSTORE DUP1 PUSH1 0x20 MUL PUSH1 0x20 ADD DUP3 ADD PUSH1 0x40 MSTORE DUP1 ISZERO PUSH2 0x1D68 JUMPI DUP2 PUSH1 0x20 ADD PUSH1 0x20 DUP3 MUL DUP1 CALLDATASIZE DUP4 CALLDATACOPY DUP1 DUP3 ADD SWAP2 POP POP SWAP1 POP JUMPDEST POP SWAP1 POP PUSH2 0x1FE2 JUMP JUMPDEST PUSH1 0xE DUP4 SUB PUSH2 0x1DC9 JUMPI PUSH1 0x3 PUSH8 0xFFFFFFFFFFFFFFFF DUP2 GT ISZERO PUSH2 0x1D93 JUMPI PUSH2 0x1D92 PUSH2 0x2FF9 JUMP JUMPDEST JUMPDEST PUSH1 0x40 MLOAD SWAP1 DUP1 DUP3 MSTORE DUP1 PUSH1 0x20 MUL PUSH1 0x20 ADD DUP3 ADD PUSH1 0x40 MSTORE DUP1 ISZERO PUSH2 0x1DC1 JUMPI DUP2 PUSH1 0x20 ADD PUSH1 0x20 DUP3 MUL DUP1 CALLDATASIZE DUP4 CALLDATACOPY DUP1 DUP3 ADD SWAP2 POP POP SWAP1 POP JUMPDEST POP SWAP1 POP PUSH2 0x1FE1 JUMP JUMPDEST PUSH1 0xF DUP4 SUB PUSH2 0x1E22 JUMPI PUSH1 0x3 PUSH8 0xFFFFFFFFFFFFFFFF DUP2 GT ISZERO PUSH2 0x1DEC JUMPI PUSH2 0x1DEB PUSH2 0x2FF9 JUMP JUMPDEST JUMPDEST PUSH1 0x40 MLOAD SWAP1 DUP1 DUP3 MSTORE DUP1 PUSH1 0x20 MUL PUSH1 0x20 ADD DUP3 ADD PUSH1 0x40 MSTORE DUP1 ISZERO PUSH2 0x1E1A JUMPI DUP2 PUSH1 0x20 ADD PUSH1 0x20 DUP3 MUL DUP1 CALLDATASIZE DUP4 CALLDATACOPY DUP1 DUP3 ADD SWAP2 POP POP SWAP1 POP JUMPDEST POP SWAP1 POP PUSH2 0x1FE0 JUMP JUMPDEST PUSH1 0x10 DUP4 SUB PUSH2 0x1E7B JUMPI PUSH1 0x3 PUSH8 0xFFFFFFFFFFFFFFFF DUP2 GT ISZERO PUSH2 0x1E45 JUMPI PUSH2 0x1E44 PUSH2 0x2FF9 JUMP JUMPDEST JUMPDEST PUSH1 0x40 MLOAD SWAP1 DUP1 DUP3 MSTORE DUP1 PUSH1 0x20 MUL PUSH1 0x20 ADD DUP3 ADD PUSH1 0x40 MSTORE DUP1 ISZERO PUSH2 0x1E73 JUMPI DUP2 PUSH1 0x20 ADD PUSH1 0x20 DUP3 MUL DUP1 CALLDATASIZE DUP4 CALLDATACOPY DUP1 DUP3 ADD SWAP2 POP POP SWAP1 POP JUMPDEST POP SWAP1 POP PUSH2 0x1FDF JUMP JUMPDEST PUSH1 0x11 DUP4 SUB PUSH2 0x1ED4 JUMPI PUSH1 0x3 PUSH8 0xFFFFFFFFFFFFFFFF DUP2 GT ISZERO PUSH2 0x1E9E JUMPI PUSH2 0x1E9D PUSH2 0x2FF9 JUMP JUMPDEST JUMPDEST PUSH1 0x40 MLOAD SWAP1 DUP1 DUP3 MSTORE DUP1 PUSH1 0x20 MUL PUSH1 0x20 ADD DUP3 ADD PUSH1 0x40 MSTORE DUP1 ISZERO PUSH2 0x1ECC JUMPI DUP2 PUSH1 0x20 ADD PUSH1 0x20 DUP3 MUL DUP1 CALLDATASIZE DUP4 CALLDATACOPY DUP1 DUP3 ADD SWAP2 POP POP SWAP1 POP JUMPDEST POP SWAP1 POP PUSH2 0x1FDE JUMP JUMPDEST PUSH1 0x12 DUP4 SUB PUSH2 0x1F2D JUMPI PUSH1 0x3 PUSH8 0xFFFFFFFFFFFFFFFF DUP2 GT ISZERO PUSH2 0x1EF7 JUMPI PUSH2 0x1EF6 PUSH2 0x2FF9 JUMP JUMPDEST JUMPDEST PUSH1 0x40 MLOAD SWAP1 DUP1 DUP3 MSTORE DUP1 PUSH1 0x20 MUL PUSH1 0x20 ADD DUP3 ADD PUSH1 0x40 MSTORE DUP1 ISZERO PUSH2 0x1F25 JUMPI DUP2 PUSH1 0x20 ADD PUSH1 0x20 DUP3 MUL DUP1 CALLDATASIZE DUP4 CALLDATACOPY DUP1 DUP3 ADD SWAP2 POP POP SWAP1 POP JUMPDEST POP SWAP1 POP PUSH2 0x1FDD JUMP JUMPDEST PUSH1 0x13 DUP4 SUB PUSH2 0x1F86 JUMPI PUSH1 0x4 PUSH8 0xFFFFFFFFFFFFFFFF DUP2 GT ISZERO PUSH2 0x1F50 JUMPI PUSH2 0x1F4F PUSH2 0x2FF9 JUMP JUMPDEST JUMPDEST PUSH1 0x40 MLOAD SWAP1 DUP1 DUP3 MSTORE DUP1 PUSH1 0x20 MUL PUSH1 0x20 ADD DUP3 ADD PUSH1 0x40 MSTORE DUP1 ISZERO PUSH2 0x1F7E JUMPI DUP2 PUSH1 0x20 ADD PUSH1 0x20 DUP3 MUL DUP1 CALLDATASIZE DUP4 CALLDATACOPY DUP1 DUP3 ADD SWAP2 POP POP SWAP1 POP JUMPDEST POP SWAP1 POP PUSH2 0x1FDC JUMP JUMPDEST PUSH1 0x14 DUP4 SUB PUSH2 0x1FDB JUMPI PUSH1 0x4 PUSH8 0xFFFFFFFFFFFFFFFF DUP2 GT ISZERO PUSH2 0x1FA9 JUMPI PUSH2 0x1FA8 PUSH2 0x2FF9 JUMP JUMPDEST JUMPDEST PUSH1 0x40 MLOAD SWAP1 DUP1 DUP3 MSTORE DUP1 PUSH1 0x20 MUL PUSH1 0x20 ADD DUP3 ADD PUSH1 0x40 MSTORE DUP1 ISZERO PUSH2 0x1FD7 JUMPI DUP2 PUSH1 0x20 ADD PUSH1 0x20 DUP3 MUL DUP1 CALLDATASIZE DUP4 CALLDATACOPY DUP1 DUP3 ADD SWAP2 POP POP SWAP1 POP JUMPDEST POP SWAP1 POP JUMPDEST JUMPDEST JUMPDEST JUMPDEST JUMPDEST JUMPDEST JUMPDEST JUMPDEST JUMPDEST JUMPDEST JUMPDEST JUMPDEST JUMPDEST JUMPDEST JUMPDEST JUMPDEST JUMPDEST JUMPDEST JUMPDEST JUMPDEST PUSH1 0x1 DUP4 SUB PUSH2 0x2024 JUMPI PUSH1 0x1 DUP2 PUSH0 DUP2 MLOAD DUP2 LT PUSH2 0x200B JUMPI PUSH2 0x200A PUSH2 0x386A JUMP JUMPDEST JUMPDEST PUSH1 0x20 MUL PUSH1 0x20 ADD ADD SWAP1 PUSH1 0xFF AND SWAP1 DUP2 PUSH1 0xFF AND DUP2 MSTORE POP POP PUSH2 0x2825 JUMP JUMPDEST PUSH1 0x2 DUP4 SUB PUSH2 0x205A JUMPI PUSH1 0x2 DUP2 PUSH0 DUP2 MLOAD DUP2 LT PUSH2 0x2041 JUMPI PUSH2 0x2040 PUSH2 0x386A JUMP JUMPDEST JUMPDEST PUSH1 0x20 MUL PUSH1 0x20 ADD ADD SWAP1 PUSH1 0xFF AND SWAP1 DUP2 PUSH1 0xFF AND DUP2 MSTORE POP POP PUSH2 0x2824 JUMP JUMPDEST PUSH1 0x3 DUP4 SUB PUSH2 0x2090 JUMPI PUSH1 0x3 DUP2 PUSH0 DUP2 MLOAD DUP2 LT PUSH2 0x2077 JUMPI PUSH2 0x2076 PUSH2 0x386A JUMP JUMPDEST JUMPDEST PUSH1 0x20 MUL PUSH1 0x20 ADD ADD SWAP1 PUSH1 0xFF AND SWAP1 DUP2 PUSH1 0xFF AND DUP2 MSTORE POP POP PUSH2 0x2823 JUMP JUMPDEST PUSH1 0x4 DUP4 SUB PUSH2 0x20C6 JUMPI PUSH1 0x4 DUP2 PUSH0 DUP2 MLOAD DUP2 LT PUSH2 0x20AD JUMPI PUSH2 0x20AC PUSH2 0x386A JUMP JUMPDEST JUMPDEST PUSH1 0x20 MUL PUSH1 0x20 ADD ADD SWAP1 PUSH1 0xFF AND SWAP1 DUP2 PUSH1 0xFF AND DUP2 MSTORE POP POP PUSH2 0x2822 JUMP JUMPDEST PUSH1 0x5 DUP4 SUB PUSH2 0x20FC JUMPI PUSH1 0x5 DUP2 PUSH0 DUP2 MLOAD DUP2 LT PUSH2 0x20E3 JUMPI PUSH2 0x20E2 PUSH2 0x386A JUMP JUMPDEST JUMPDEST PUSH1 0x20 MUL PUSH1 0x20 ADD ADD SWAP1 PUSH1 0xFF AND SWAP1 DUP2 PUSH1 0xFF AND DUP2 MSTORE POP POP PUSH2 0x2821 JUMP JUMPDEST PUSH1 0x6 DUP4 SUB PUSH2 0x2132 JUMPI PUSH1 0x6 DUP2 PUSH0 DUP2 MLOAD DUP2 LT PUSH2 0x2119 JUMPI PUSH2 0x2118 PUSH2 0x386A JUMP JUMPDEST JUMPDEST PUSH1 0x20 MUL PUSH1 0x20 ADD ADD SWAP1 PUSH1 0xFF AND SWAP1 DUP2 PUSH1 0xFF AND DUP2 MSTORE POP POP PUSH2 0x2820 JUMP JUMPDEST PUSH1 0x7 DUP4 SUB PUSH2 0x2192 JUMPI PUSH1 0x3 DUP2 PUSH0 DUP2 MLOAD DUP2 LT PUSH2 0x214F JUMPI PUSH2 0x214E PUSH2 0x386A JUMP JUMPDEST JUMPDEST PUSH1 0x20 MUL PUSH1 0x20 ADD ADD SWAP1 PUSH1 0xFF AND SWAP1 DUP2 PUSH1 0xFF AND DUP2 MSTORE POP POP PUSH1 0x4 DUP2 PUSH1 0x1 DUP2 MLOAD DUP2 LT PUSH2 0x2179 JUMPI PUSH2 0x2178 PUSH2 0x386A JUMP JUMPDEST JUMPDEST PUSH1 0x20 MUL PUSH1 0x20 ADD ADD SWAP1 PUSH1 0xFF AND SWAP1 DUP2 PUSH1 0xFF AND DUP2 MSTORE POP POP PUSH2 0x281F JUMP JUMPDEST PUSH1 0x8 DUP4 SUB PUSH2 0x21F2 JUMPI PUSH1 0x4 DUP2 PUSH0 DUP2 MLOAD DUP2 LT PUSH2 0x21AF JUMPI PUSH2 0x21AE PUSH2 0x386A JUMP JUMPDEST JUMPDEST PUSH1 0x20 MUL PUSH1 0x20 ADD ADD SWAP1 PUSH1 0xFF AND SWAP1 DUP2 PUSH1 0xFF AND DUP2 MSTORE POP POP PUSH1 0x4 DUP2 PUSH1 0x1 DUP2 MLOAD DUP2 LT PUSH2 0x21D9 JUMPI PUSH2 0x21D8 PUSH2 0x386A JUMP JUMPDEST JUMPDEST PUSH1 0x20 MUL PUSH1 0x20 ADD ADD SWAP1 PUSH1 0xFF AND SWAP1 DUP2 PUSH1 0xFF AND DUP2 MSTORE POP POP PUSH2 0x281E JUMP JUMPDEST PUSH1 0x9 DUP4 SUB PUSH2 0x2252 JUMPI PUSH1 0x5 DUP2 PUSH0 DUP2 MLOAD DUP2 LT PUSH2 0x220F JUMPI PUSH2 0x220E PUSH2 0x386A JUMP JUMPDEST JUMPDEST PUSH1 0x20 MUL PUSH1 0x20 ADD ADD SWAP1 PUSH1 0xFF AND SWAP1 DUP2 PUSH1 0xFF AND DUP2 MSTORE POP POP PUSH1 0x4 DUP2 PUSH1 0x1 DUP2 MLOAD DUP2 LT PUSH2 0x2239 JUMPI PUSH2 0x2238 PUSH2 0x386A JUMP JUMPDEST JUMPDEST PUSH1 0x20 MUL PUSH1 0x20 ADD ADD SWAP1 PUSH1 0xFF AND SWAP1 DUP2 PUSH1 0xFF AND DUP2 MSTORE POP POP PUSH2 0x281D JUMP JUMPDEST PUSH1 0xA DUP4 SUB PUSH2 0x22B2 JUMPI PUSH1 0x5 DUP2 PUSH0 DUP2 MLOAD DUP2 LT PUSH2 0x226F JUMPI PUSH2 0x226E PUSH2 0x386A JUMP JUMPDEST JUMPDEST PUSH1 0x20 MUL PUSH1 0x20 ADD ADD SWAP1 PUSH1 0xFF AND SWAP1 DUP2 PUSH1 0xFF AND DUP2 MSTORE POP POP PUSH1 0x5 DUP2 PUSH1 0x1 DUP2 MLOAD DUP2 LT PUSH2 0x2299 JUMPI PUSH2 0x2298 PUSH2 0x386A JUMP JUMPDEST JUMPDEST PUSH1 0x20 MUL PUSH1 0x20 ADD ADD SWAP1 PUSH1 0xFF AND SWAP1 DUP2 PUSH1 0xFF AND DUP2 MSTORE POP POP PUSH2 0x281C JUMP JUMPDEST PUSH1 0xB DUP4 SUB PUSH2 0x2312 JUMPI PUSH1 0x5 DUP2 PUSH0 DUP2 MLOAD DUP2 LT PUSH2 0x22CF JUMPI PUSH2 0x22CE PUSH2 0x386A JUMP JUMPDEST JUMPDEST PUSH1 0x20 MUL PUSH1 0x20 ADD ADD SWAP1 PUSH1 0xFF AND SWAP1 DUP2 PUSH1 0xFF AND DUP2 MSTORE POP POP PUSH1 0x6 DUP2 PUSH1 0x1 DUP2 MLOAD DUP2 LT PUSH2 0x22F9 JUMPI PUSH2 0x22F8 PUSH2 0x386A JUMP JUMPDEST JUMPDEST PUSH1 0x20 MUL PUSH1 0x20 ADD ADD SWAP1 PUSH1 0xFF AND SWAP1 DUP2 PUSH1 0xFF AND DUP2 MSTORE POP POP PUSH2 0x281B JUMP JUMPDEST PUSH1 0xC DUP4 SUB PUSH2 0x2372 JUMPI PUSH1 0x6 DUP2 PUSH0 DUP2 MLOAD DUP2 LT PUSH2 0x232F JUMPI PUSH2 0x232E PUSH2 0x386A JUMP JUMPDEST JUMPDEST PUSH1 0x20 MUL PUSH1 0x20 ADD ADD SWAP1 PUSH1 0xFF AND SWAP1 DUP2 PUSH1 0xFF AND DUP2 MSTORE POP POP PUSH1 0x6 DUP2 PUSH1 0x1 DUP2 MLOAD DUP2 LT PUSH2 0x2359 JUMPI PUSH2 0x2358 PUSH2 0x386A JUMP JUMPDEST JUMPDEST PUSH1 0x20 MUL PUSH1 0x20 ADD ADD SWAP1 PUSH1 0xFF AND SWAP1 DUP2 PUSH1 0xFF AND DUP2 MSTORE POP POP PUSH2 0x281A JUMP JUMPDEST PUSH1 0xD DUP4 SUB PUSH2 0x23FC JUMPI PUSH1 0x5 DUP2 PUSH0 DUP2 MLOAD DUP2 LT PUSH2 0x238F JUMPI PUSH2 0x238E PUSH2 0x386A JUMP JUMPDEST JUMPDEST PUSH1 0x20 MUL PUSH1 0x20 ADD ADD SWAP1 PUSH1 0xFF AND SWAP1 DUP2 PUSH1 0xFF AND DUP2 MSTORE POP POP PUSH1 0x4 DUP2 PUSH1 0x1 DUP2 MLOAD DUP2 LT PUSH2 0x23B9 JUMPI PUSH2 0x23B8 PUSH2 0x386A JUMP JUMPDEST JUMPDEST PUSH1 0x20 MUL PUSH1 0x20 ADD ADD SWAP1 PUSH1 0xFF AND SWAP1 DUP2 PUSH1 0xFF AND DUP2 MSTORE POP POP PUSH1 0x4 DUP2 PUSH1 0x2 DUP2 MLOAD DUP2 LT PUSH2 0x23E3 JUMPI PUSH2 0x23E2 PUSH2 0x386A JUMP JUMPDEST JUMPDEST PUSH1 0x20 MUL PUSH1 0x20 ADD ADD SWAP1 PUSH1 0xFF AND SWAP1 DUP2 PUSH1 0xFF AND DUP2 MSTORE POP POP PUSH2 0x2819 JUMP JUMPDEST PUSH1 0xE DUP4 SUB PUSH2 0x2486 JUMPI PUSH1 0x5 DUP2 PUSH0 DUP2 MLOAD DUP2 LT PUSH2 0x2419 JUMPI PUSH2 0x2418 PUSH2 0x386A JUMP JUMPDEST JUMPDEST PUSH1 0x20 MUL PUSH1 0x20 ADD ADD SWAP1 PUSH1 0xFF AND SWAP1 DUP2 PUSH1 0xFF AND DUP2 MSTORE POP POP PUSH1 0x5 DUP2 PUSH1 0x1 DUP2 MLOAD DUP2 LT PUSH2 0x2443 JUMPI PUSH2 0x2442 PUSH2 0x386A JUMP JUMPDEST JUMPDEST PUSH1 0x20 MUL PUSH1 0x20 ADD ADD SWAP1 PUSH1 0xFF AND SWAP1 DUP2 PUSH1 0xFF AND DUP2 MSTORE POP POP PUSH1 0x4 DUP2 PUSH1 0x2 DUP2 MLOAD DUP2 LT PUSH2 0x246D JUMPI PUSH2 0x246C PUSH2 0x386A JUMP JUMPDEST JUMPDEST PUSH1 0x20 MUL PUSH1 0x20 ADD ADD SWAP1 PUSH1 0xFF AND SWAP1 DUP2 PUSH1 0xFF AND DUP2 MSTORE POP POP PUSH2 0x2818 JUMP JUMPDEST PUSH1 0xF DUP4 SUB PUSH2 0x2510 JUMPI PUSH1 0x5 DUP2 PUSH0 DUP2 MLOAD DUP2 LT PUSH2 0x24A3 JUMPI PUSH2 0x24A2 PUSH2 0x386A JUMP JUMPDEST JUMPDEST PUSH1 0x20 MUL PUSH1 0x20 ADD ADD SWAP1 PUSH1 0xFF AND SWAP1 DUP2 PUSH1 0xFF AND DUP2 MSTORE POP POP PUSH1 0x5 DUP2 PUSH1 0x1 DUP2 MLOAD DUP2 LT PUSH2 0x24CD JUMPI PUSH2 0x24CC PUSH2 0x386A JUMP JUMPDEST JUMPDEST PUSH1 0x20 MUL PUSH1 0x20 ADD ADD SWAP1 PUSH1 0xFF AND SWAP1 DUP2 PUSH1 0xFF AND DUP2 MSTORE POP POP PUSH1 0x5 DUP2 PUSH1 0x2 DUP2 MLOAD DUP2 LT PUSH2 0x24F7 JUMPI PUSH2 0x24F6 PUSH2 0x386A JUMP JUMPDEST JUMPDEST PUSH1 0x20 MUL PUSH1 0x20 ADD ADD SWAP1 PUSH1 0xFF AND SWAP1 DUP2 PUSH1 0xFF AND DUP2 MSTORE POP POP PUSH2 0x2817 JUMP JUMPDEST PUSH1 0x10 DUP4 SUB PUSH2 0x259A JUMPI PUSH1 0x6 DUP2 PUSH0 DUP2 MLOAD DUP2 LT PUSH2 0x252D JUMPI PUSH2 0x252C PUSH2 0x386A JUMP JUMPDEST JUMPDEST PUSH1 0x20 MUL PUSH1 0x20 ADD ADD SWAP1 PUSH1 0xFF AND SWAP1 DUP2 PUSH1 0xFF AND DUP2 MSTORE POP POP PUSH1 0x5 DUP2 PUSH1 0x1 DUP2 MLOAD DUP2 LT PUSH2 0x2557 JUMPI PUSH2 0x2556 PUSH2 0x386A JUMP JUMPDEST JUMPDEST PUSH1 0x20 MUL PUSH1 0x20 ADD ADD SWAP1 PUSH1 0xFF AND SWAP1 DUP2 PUSH1 0xFF AND DUP2 MSTORE POP POP PUSH1 0x5 DUP2 PUSH1 0x2 DUP2 MLOAD DUP2 LT PUSH2 0x2581 JUMPI PUSH2 0x2580 PUSH2 0x386A JUMP JUMPDEST JUMPDEST PUSH1 0x20 MUL PUSH1 0x20 ADD ADD SWAP1 PUSH1 0xFF AND SWAP1 DUP2 PUSH1 0xFF AND DUP2 MSTORE POP POP PUSH2 0x2816 JUMP JUMPDEST PUSH1 0x11 DUP4 SUB PUSH2 0x2624 JUMPI PUSH1 0x6 DUP2 PUSH0 DUP2 MLOAD DUP2 LT PUSH2 0x25B7 JUMPI PUSH2 0x25B6 PUSH2 0x386A JUMP JUMPDEST JUMPDEST PUSH1 0x20 MUL PUSH1 0x20 ADD ADD SWAP1 PUSH1 0xFF AND SWAP1 DUP2 PUSH1 0xFF AND DUP2 MSTORE POP POP PUSH1 0x6 DUP2 PUSH1 0x1 DUP2 MLOAD DUP2 LT PUSH2 0x25E1 JUMPI PUSH2 0x25E0 PUSH2 0x386A JUMP JUMPDEST JUMPDEST PUSH1 0x20 MUL PUSH1 0x20 ADD ADD SWAP1 PUSH1 0xFF AND SWAP1 DUP2 PUSH1 0xFF AND DUP2 MSTORE POP POP PUSH1 0x5 DUP2 PUSH1 0x2 DUP2 MLOAD DUP2 LT PUSH2 0x260B JUMPI PUSH2 0x260A PUSH2 0x386A JUMP JUMPDEST JUMPDEST PUSH1 0x20 MUL PUSH1 0x20 ADD ADD SWAP1 PUSH1 0xFF AND SWAP1 DUP2 PUSH1 0xFF AND DUP2 MSTORE POP POP PUSH2 0x2815 JUMP JUMPDEST PUSH1 0x12 DUP4 SUB PUSH2 0x26AE JUMPI PUSH1 0x6 DUP2 PUSH0 DUP2 MLOAD DUP2 LT PUSH2 0x2641 JUMPI PUSH2 0x2640 PUSH2 0x386A JUMP JUMPDEST JUMPDEST PUSH1 0x20 MUL PUSH1 0x20 ADD ADD SWAP1 PUSH1 0xFF AND SWAP1 DUP2 PUSH1 0xFF AND DUP2 MSTORE POP POP PUSH1 0x6 DUP2 PUSH1 0x1 DUP2 MLOAD DUP2 LT PUSH2 0x266B JUMPI PUSH2 0x266A PUSH2 0x386A JUMP JUMPDEST JUMPDEST PUSH1 0x20 MUL PUSH1 0x20 ADD ADD SWAP1 PUSH1 0xFF AND SWAP1 DUP2 PUSH1 0xFF AND DUP2 MSTORE POP POP PUSH1 0x6 DUP2 PUSH1 0x2 DUP2 MLOAD DUP2 LT PUSH2 0x2695 JUMPI PUSH2 0x2694 PUSH2 0x386A JUMP JUMPDEST JUMPDEST PUSH1 0x20 MUL PUSH1 0x20 ADD ADD SWAP1 PUSH1 0xFF AND SWAP1 DUP2 PUSH1 0xFF AND DUP2 MSTORE POP POP PUSH2 0x2814 JUMP JUMPDEST PUSH1 0x13 DUP4 SUB PUSH2 0x2762 JUMPI PUSH1 0x5 DUP2 PUSH0 DUP2 MLOAD DUP2 LT PUSH2 0x26CB JUMPI PUSH2 0x26CA PUSH2 0x386A JUMP JUMPDEST JUMPDEST PUSH1 0x20 MUL PUSH1 0x20 ADD ADD SWAP1 PUSH1 0xFF AND SWAP1 DUP2 PUSH1 0xFF AND DUP2 MSTORE POP POP PUSH1 0x5 DUP2 PUSH1 0x1 DUP2 MLOAD DUP2 LT PUSH2 0x26F5 JUMPI PUSH2 0x26F4 PUSH2 0x386A JUMP JUMPDEST JUMPDEST PUSH1 0x20 MUL PUSH1 0x20 ADD ADD SWAP1 PUSH1 0xFF AND SWAP1 DUP2 PUSH1 0xFF AND DUP2 MSTORE POP POP PUSH1 0x5 DUP2 PUSH1 0x2 DUP2 MLOAD DUP2 LT PUSH2 0x271F JUMPI PUSH2 0x271E PUSH2 0x386A JUMP JUMPDEST JUMPDEST PUSH1 0x20 MUL PUSH1 0x20 ADD ADD SWAP1 PUSH1 0xFF AND SWAP1 DUP2 PUSH1 0xFF AND DUP2 MSTORE POP POP PUSH1 0x4 DUP2 PUSH1 0x3 DUP2 MLOAD DUP2 LT PUSH2 0x2749 JUMPI PUSH2 0x2748 PUSH2 0x386A JUMP JUMPDEST JUMPDEST PUSH1 0x20 MUL PUSH1 0x20 ADD ADD SWAP1 PUSH1 0xFF AND SWAP1 DUP2 PUSH1 0xFF AND DUP2 MSTORE POP POP PUSH2 0x2813 JUMP JUMPDEST PUSH1 0x14 DUP4 SUB PUSH2 0x2812 JUMPI PUSH1 0x5 DUP2 PUSH0 DUP2 MLOAD DUP2 LT PUSH2 0x277F JUMPI PUSH2 0x277E PUSH2 0x386A JUMP JUMPDEST JUMPDEST PUSH1 0x20 MUL PUSH1 0x20 ADD ADD SWAP1 PUSH1 0xFF AND SWAP1 DUP2 PUSH1 0xFF AND DUP2 MSTORE POP POP PUSH1 0x5 DUP2 PUSH1 0x1 DUP2 MLOAD DUP2 LT PUSH2 0x27A9 JUMPI PUSH2 0x27A8 PUSH2 0x386A JUMP JUMPDEST JUMPDEST PUSH1 0x20 MUL PUSH1 0x20 ADD ADD SWAP1 PUSH1 0xFF AND SWAP1 DUP2 PUSH1 0xFF AND DUP2 MSTORE POP POP PUSH1 0x5 DUP2 PUSH1 0x2 DUP2 MLOAD DUP2 LT PUSH2 0x27D3 JUMPI PUSH2 0x27D2 PUSH2 0x386A JUMP JUMPDEST JUMPDEST PUSH1 0x20 MUL PUSH1 0x20 ADD ADD SWAP1 PUSH1 0xFF AND SWAP1 DUP2 PUSH1 0xFF AND DUP2 MSTORE POP POP PUSH1 0x5 DUP2 PUSH1 0x3 DUP2 MLOAD DUP2 LT PUSH2 0x27FD JUMPI PUSH2 0x27FC PUSH2 0x386A JUMP JUMPDEST JUMPDEST PUSH1 0x20 MUL PUSH1 0x20 ADD ADD SWAP1 PUSH1 0xFF AND SWAP1 DUP2 PUSH1 0xFF AND DUP2 MSTORE POP POP JUMPDEST JUMPDEST JUMPDEST JUMPDEST JUMPDEST JUMPDEST JUMPDEST JUMPDEST JUMPDEST JUMPDEST JUMPDEST JUMPDEST JUMPDEST JUMPDEST JUMPDEST JUMPDEST JUMPDEST JUMPDEST JUMPDEST JUMPDEST DUP1 SWAP2 POP POP SWAP2 SWAP1 POP JUMP JUMPDEST PUSH1 0x60 PUSH0 PUSH1 0x6 PUSH1 0x5 DUP5 PUSH2 0x2840 SWAP2 SWAP1 PUSH2 0x4404 JUMP JUMPDEST PUSH2 0x284A SWAP2 SWAP1 PUSH2 0x4517 JUMP JUMPDEST PUSH8 0xFFFFFFFFFFFFFFFF DUP2 GT ISZERO PUSH2 0x2863 JUMPI PUSH2 0x2862 PUSH2 0x2FF9 JUMP JUMPDEST JUMPDEST PUSH1 0x40 MLOAD SWAP1 DUP1 DUP3 MSTORE DUP1 PUSH1 0x20 MUL PUSH1 0x20 ADD DUP3 ADD PUSH1 0x40 MSTORE DUP1 ISZERO PUSH2 0x2891 JUMPI DUP2 PUSH1 0x20 ADD PUSH1 0x20 DUP3 MUL DUP1 CALLDATASIZE DUP4 CALLDATACOPY DUP1 DUP3 ADD SWAP2 POP POP SWAP1 POP JUMPDEST POP SWAP1 POP PUSH0 DUP1 JUMPDEST PUSH0 DUP6 GT ISZERO PUSH2 0x2973 JUMPI PUSH0 PUSH1 0x6 DUP7 PUSH2 0x28AD SWAP2 SWAP1 PUSH2 0x44C0 JUMP JUMPDEST EQ ISZERO DUP1 ISZERO PUSH2 0x28BE JUMPI POP PUSH1 0x5 DUP2 PUSH1 0xFF AND LT JUMPDEST ISZERO PUSH2 0x291A JUMPI PUSH1 0x5 DUP4 DUP4 DUP1 PUSH2 0x28D1 SWAP1 PUSH2 0x43BD JUMP JUMPDEST SWAP5 POP DUP2 MLOAD DUP2 LT PUSH2 0x28E4 JUMPI PUSH2 0x28E3 PUSH2 0x386A JUMP JUMPDEST JUMPDEST PUSH1 0x20 MUL PUSH1 0x20 ADD ADD SWAP1 PUSH1 0xFF AND SWAP1 DUP2 PUSH1 0xFF AND DUP2 MSTORE POP POP PUSH1 0x5 DUP6 PUSH2 0x2905 SWAP2 SWAP1 PUSH2 0x3F1F JUMP JUMPDEST SWAP5 POP DUP1 DUP1 PUSH2 0x2912 SWAP1 PUSH2 0x4547 JUMP JUMPDEST SWAP2 POP POP PUSH2 0x296E JUMP JUMPDEST PUSH1 0x6 DUP4 DUP4 DUP1 PUSH2 0x2928 SWAP1 PUSH2 0x43BD JUMP JUMPDEST SWAP5 POP DUP2 MLOAD DUP2 LT PUSH2 0x293B JUMPI PUSH2 0x293A PUSH2 0x386A JUMP JUMPDEST JUMPDEST PUSH1 0x20 MUL PUSH1 0x20 ADD ADD SWAP1 PUSH1 0xFF AND SWAP1 DUP2 PUSH1 0xFF AND DUP2 MSTORE POP POP PUSH1 0x6 DUP6 PUSH2 0x295C SWAP2 SWAP1 PUSH2 0x3F1F JUMP JUMPDEST SWAP5 POP PUSH1 0x5 DUP2 PUSH1 0xFF AND SUB PUSH2 0x296D JUMPI PUSH0 SWAP1 POP JUMPDEST JUMPDEST PUSH2 0x2897 JUMP JUMPDEST DUP2 DUP4 MSTORE DUP3 SWAP4 POP POP POP POP SWAP2 SWAP1 POP JUMP JUMPDEST POP DUP1 SLOAD PUSH0 DUP3 SSTORE PUSH1 0x3 MUL SWAP1 PUSH0 MSTORE PUSH1 0x20 PUSH0 KECCAK256 SWAP1 DUP2 ADD SWAP1 PUSH2 0x299F SWAP2 SWAP1 PUSH2 0x2B40 JUMP JUMPDEST POP JUMP JUMPDEST DUP3 DUP1 SLOAD DUP3 DUP3 SSTORE SWAP1 PUSH0 MSTORE PUSH1 0x20 PUSH0 KECCAK256 SWAP1 DUP2 ADD SWAP3 DUP3 ISZERO PUSH2 0x29E8 JUMPI SWAP2 PUSH1 0x20 MUL DUP3 ADD JUMPDEST DUP3 DUP2 GT ISZERO PUSH2 0x29E7 JUMPI DUP3 MLOAD DUP3 SWAP1 DUP2 PUSH2 0x29D7 SWAP2 SWAP1 PUSH2 0x4143 JUMP JUMPDEST POP SWAP2 PUSH1 0x20 ADD SWAP2 SWAP1 PUSH1 0x1 ADD SWAP1 PUSH2 0x29C0 JUMP JUMPDEST JUMPDEST POP SWAP1 POP PUSH2 0x29F5 SWAP2 SWAP1 PUSH2 0x2B83 JUMP JUMPDEST POP SWAP1 JUMP JUMPDEST POP DUP1 SLOAD PUSH0 DUP3 SSTORE SWAP1 PUSH0 MSTORE PUSH1 0x20 PUSH0 KECCAK256 SWAP1 DUP2 ADD SWAP1 PUSH2 0x2A14 SWAP2 SWAP1 PUSH2 0x2BA6 JUMP JUMPDEST POP JUMP JUMPDEST DUP3 DUP1 SLOAD DUP3 DUP3 SSTORE SWAP1 PUSH0 MSTORE PUSH1 0x20 PUSH0 KECCAK256 SWAP1 DUP2 ADD SWAP3 DUP3 ISZERO PUSH2 0x2A8D JUMPI SWAP2 PUSH1 0x20 MUL DUP3 ADD JUMPDEST DUP3 DUP2 GT ISZERO PUSH2 0x2A8C JUMPI DUP3 MLOAD DUP3 PUSH0 PUSH2 0x100 EXP DUP2 SLOAD DUP2 PUSH20 0xFFFFFFFFFFFFFFFFFFFFFFFFFFFFFFFFFFFFFFFF MUL NOT AND SWAP1 DUP4 PUSH20 0xFFFFFFFFFFFFFFFFFFFFFFFFFFFFFFFFFFFFFFFF AND MUL OR SWAP1 SSTORE POP SWAP2 PUSH1 0x20 ADD SWAP2 SWAP1 PUSH1 0x1 ADD SWAP1 PUSH2 0x2A35 JUMP JUMPDEST JUMPDEST POP SWAP1 POP PUSH2 0x2A9A SWAP2 SWAP1 PUSH2 0x2BCB JUMP JUMPDEST POP SWAP1 JUMP JUMPDEST DUP3 DUP1 SLOAD DUP3 DUP3 SSTORE SWAP1 PUSH0 MSTORE PUSH1 0x20 PUSH0 KECCAK256 SWAP1 PUSH1 0x1F ADD PUSH1 0x20 SWAP1 DIV DUP2 ADD SWAP3 DUP3 ISZERO PUSH2 0x2B2F JUMPI SWAP2 PUSH1 0x20 MUL DUP3 ADD PUSH0 JUMPDEST DUP4 DUP3 GT ISZERO PUSH2 0x2B01 JUMPI DUP4 MLOAD DUP4 DUP3 PUSH2 0x100 EXP DUP2 SLOAD DUP2 PUSH1 0xFF MUL NOT AND SWAP1 DUP4 PUSH1 0xFF AND MUL OR SWAP1 SSTORE POP SWAP3 PUSH1 0x20 ADD SWAP3 PUSH1 0x1 ADD PUSH1 0x20 DUP2 PUSH0 ADD DIV SWAP3 DUP4 ADD SWAP3 PUSH1 0x1 SUB MUL PUSH2 0x2AC4 JUMP JUMPDEST DUP1 ISZERO PUSH2 0x2B2D JUMPI DUP3 DUP2 PUSH2 0x100 EXP DUP2 SLOAD SWAP1 PUSH1 0xFF MUL NOT AND SWAP1 SSTORE PUSH1 0x1 ADD PUSH1 0x20 DUP2 PUSH0 ADD DIV SWAP3 DUP4 ADD SWAP3 PUSH1 0x1 SUB MUL PUSH2 0x2B01 JUMP JUMPDEST POP JUMPDEST POP SWAP1 POP PUSH2 0x2B3C SWAP2 SWAP1 PUSH2 0x2BCB JUMP JUMPDEST POP SWAP1 JUMP JUMPDEST JUMPDEST DUP1 DUP3 GT ISZERO PUSH2 0x2B7F JUMPI PUSH0 DUP1 DUP3 ADD PUSH0 PUSH2 0x2B58 SWAP2 SWAP1 PUSH2 0x2BE6 JUMP JUMPDEST PUSH1 0x1 DUP3 ADD PUSH0 PUSH2 0x2B67 SWAP2 SWAP1 PUSH2 0x2BE6 JUMP JUMPDEST PUSH1 0x2 DUP3 ADD PUSH0 PUSH2 0x2B76 SWAP2 SWAP1 PUSH2 0x2C23 JUMP JUMPDEST POP PUSH1 0x3 ADD PUSH2 0x2B41 JUMP JUMPDEST POP SWAP1 JUMP JUMPDEST JUMPDEST DUP1 DUP3 GT ISZERO PUSH2 0x2BA2 JUMPI PUSH0 DUP2 DUP2 PUSH2 0x2B99 SWAP2 SWAP1 PUSH2 0x2BE6 JUMP JUMPDEST POP PUSH1 0x1 ADD PUSH2 0x2B84 JUMP JUMPDEST POP SWAP1 JUMP JUMPDEST JUMPDEST DUP1 DUP3 GT ISZERO PUSH2 0x2BC7 JUMPI PUSH0 DUP1 DUP3 ADD PUSH0 PUSH2 0x2BBE SWAP2 SWAP1 PUSH2 0x2C41 JUMP JUMPDEST POP PUSH1 0x1 ADD PUSH2 0x2BA7 JUMP JUMPDEST POP SWAP1 JUMP JUMPDEST JUMPDEST DUP1 DUP3 GT ISZERO PUSH2 0x2BE2 JUMPI PUSH0 DUP2 PUSH0 SWAP1 SSTORE POP PUSH1 0x1 ADD PUSH2 0x2BCC JUMP JUMPDEST POP SWAP1 JUMP JUMPDEST POP DUP1 SLOAD PUSH2 0x2BF2 SWAP1 PUSH2 0x3F7F JUMP JUMPDEST PUSH0 DUP3 SSTORE DUP1 PUSH1 0x1F LT PUSH2 0x2C03 JUMPI POP PUSH2 0x2C20 JUMP JUMPDEST PUSH1 0x1F ADD PUSH1 0x20 SWAP1 DIV SWAP1 PUSH0 MSTORE PUSH1 0x20 PUSH0 KECCAK256 SWAP1 DUP2 ADD SWAP1 PUSH2 0x2C1F SWAP2 SWAP1 PUSH2 0x2BCB JUMP JUMPDEST JUMPDEST POP JUMP JUMPDEST POP DUP1 SLOAD PUSH0 DUP3 SSTORE SWAP1 PUSH0 MSTORE PUSH1 0x20 PUSH0 KECCAK256 SWAP1 DUP2 ADD SWAP1 PUSH2 0x2C3E SWAP2 SWAP1 PUSH2 0x2B83 JUMP JUMPDEST POP JUMP JUMPDEST POP DUP1 SLOAD PUSH0 DUP3 SSTORE SWAP1 PUSH0 MSTORE PUSH1 0x20 PUSH0 KECCAK256 SWAP1 DUP2 ADD SWAP1 PUSH2 0x2C5C SWAP2 SWAP1 PUSH2 0x2BCB JUMP JUMPDEST POP JUMP JUMPDEST PUSH0 PUSH20 0xFFFFFFFFFFFFFFFFFFFFFFFFFFFFFFFFFFFFFFFF DUP3 AND SWAP1 POP SWAP2 SWAP1 POP JUMP JUMPDEST PUSH0 DUP2 SWAP1 POP SWAP2 SWAP1 POP JUMP JUMPDEST PUSH0 PUSH2 0x2CA1 PUSH2 0x2C9C PUSH2 0x2C97 DUP5 PUSH2 0x2C5F JUMP JUMPDEST PUSH2 0x2C7E JUMP JUMPDEST PUSH2 0x2C5F JUMP JUMPDEST SWAP1 POP SWAP2 SWAP1 POP JUMP JUMPDEST PUSH0 PUSH2 0x2CB2 DUP3 PUSH2 0x2C87 JUMP JUMPDEST SWAP1 POP SWAP2 SWAP1 POP JUMP JUMPDEST PUSH0 PUSH2 0x2CC3 DUP3 PUSH2 0x2CA8 JUMP JUMPDEST SWAP1 POP SWAP2 SWAP1 POP JUMP JUMPDEST PUSH2 0x2CD3 DUP2 PUSH2 0x2CB9 JUMP JUMPDEST DUP3 MSTORE POP POP JUMP JUMPDEST PUSH0 PUSH1 0x20 DUP3 ADD SWAP1 POP PUSH2 0x2CEC PUSH0 DUP4 ADD DUP5 PUSH2 0x2CCA JUMP JUMPDEST SWAP3 SWAP2 POP POP JUMP JUMPDEST PUSH0 DUP2 SWAP1 POP SWAP2 SWAP1 POP JUMP JUMPDEST PUSH2 0x2D04 DUP2 PUSH2 0x2CF2 JUMP JUMPDEST DUP3 MSTORE POP POP JUMP JUMPDEST PUSH0 PUSH1 0x20 DUP3 ADD SWAP1 POP PUSH2 0x2D1D PUSH0 DUP4 ADD DUP5 PUSH2 0x2CFB JUMP JUMPDEST SWAP3 SWAP2 POP POP JUMP JUMPDEST PUSH0 PUSH1 0x40 MLOAD SWAP1 POP SWAP1 JUMP JUMPDEST PUSH0 DUP1 REVERT JUMPDEST PUSH0 DUP1 REVERT JUMPDEST PUSH0 PUSH2 0x2D3E DUP3 PUSH2 0x2C5F JUMP JUMPDEST SWAP1 POP SWAP2 SWAP1 POP JUMP JUMPDEST PUSH2 0x2D4E DUP2 PUSH2 0x2D34 JUMP JUMPDEST DUP2 EQ PUSH2 0x2D58 JUMPI PUSH0 DUP1 REVERT JUMPDEST POP JUMP JUMPDEST PUSH0 DUP2 CALLDATALOAD SWAP1 POP PUSH2 0x2D69 DUP2 PUSH2 0x2D45 JUMP JUMPDEST SWAP3 SWAP2 POP POP JUMP JUMPDEST PUSH0 PUSH1 0x20 DUP3 DUP5 SUB SLT ISZERO PUSH2 0x2D84 JUMPI PUSH2 0x2D83 PUSH2 0x2D2C JUMP JUMPDEST JUMPDEST PUSH0 PUSH2 0x2D91 DUP5 DUP3 DUP6 ADD PUSH2 0x2D5B JUMP JUMPDEST SWAP2 POP POP SWAP3 SWAP2 POP POP JUMP JUMPDEST PUSH0 DUP2 ISZERO ISZERO SWAP1 POP SWAP2 SWAP1 POP JUMP JUMPDEST PUSH2 0x2DAE DUP2 PUSH2 0x2D9A JUMP JUMPDEST DUP3 MSTORE POP POP JUMP JUMPDEST PUSH0 PUSH1 0x20 DUP3 ADD SWAP1 POP PUSH2 0x2DC7 PUSH0 DUP4 ADD DUP5 PUSH2 0x2DA5 JUMP JUMPDEST SWAP3 SWAP2 POP POP JUMP JUMPDEST PUSH0 DUP2 MLOAD SWAP1 POP SWAP2 SWAP1 POP JUMP JUMPDEST PUSH0 DUP3 DUP3 MSTORE PUSH1 0x20 DUP3 ADD SWAP1 POP SWAP3 SWAP2 POP POP JUMP JUMPDEST PUSH0 DUP2 SWAP1 POP PUSH1 0x20 DUP3 ADD SWAP1 POP SWAP2 SWAP1 POP JUMP JUMPDEST PUSH2 0x2DFF DUP2 PUSH2 0x2CF2 JUMP JUMPDEST DUP3 MSTORE POP POP JUMP JUMPDEST PUSH0 PUSH2 0x2E10 DUP4 DUP4 PUSH2 0x2DF6 JUMP JUMPDEST PUSH1 0x20 DUP4 ADD SWAP1 POP SWAP3 SWAP2 POP POP JUMP JUMPDEST PUSH0 PUSH1 0x20 DUP3 ADD SWAP1 POP SWAP2 SWAP1 POP JUMP JUMPDEST PUSH0 PUSH2 0x2E32 DUP3 PUSH2 0x2DCD JUMP JUMPDEST PUSH2 0x2E3C DUP2 DUP6 PUSH2 0x2DD7 JUMP JUMPDEST SWAP4 POP PUSH2 0x2E47 DUP4 PUSH2 0x2DE7 JUMP JUMPDEST DUP1 PUSH0 JUMPDEST DUP4 DUP2 LT ISZERO PUSH2 0x2E77 JUMPI DUP2 MLOAD PUSH2 0x2E5E DUP9 DUP3 PUSH2 0x2E05 JUMP JUMPDEST SWAP8 POP PUSH2 0x2E69 DUP4 PUSH2 0x2E1C JUMP JUMPDEST SWAP3 POP POP PUSH1 0x1 DUP2 ADD SWAP1 POP PUSH2 0x2E4A JUMP JUMPDEST POP DUP6 SWAP4 POP POP POP POP SWAP3 SWAP2 POP POP JUMP JUMPDEST PUSH0 PUSH1 0x40 DUP3 ADD SWAP1 POP DUP2 DUP2 SUB PUSH0 DUP4 ADD MSTORE PUSH2 0x2E9C DUP2 DUP6 PUSH2 0x2E28 JUMP JUMPDEST SWAP1 POP DUP2 DUP2 SUB PUSH1 0x20 DUP4 ADD MSTORE PUSH2 0x2EB0 DUP2 DUP5 PUSH2 0x2E28 JUMP JUMPDEST SWAP1 POP SWAP4 SWAP3 POP POP POP JUMP JUMPDEST PUSH2 0x2EC2 DUP2 PUSH2 0x2CF2 JUMP JUMPDEST DUP2 EQ PUSH2 0x2ECC JUMPI PUSH0 DUP1 REVERT JUMPDEST POP JUMP JUMPDEST PUSH0 DUP2 CALLDATALOAD SWAP1 POP PUSH2 0x2EDD DUP2 PUSH2 0x2EB9 JUMP JUMPDEST SWAP3 SWAP2 POP POP JUMP JUMPDEST PUSH0 PUSH1 0x20 DUP3 DUP5 SUB SLT ISZERO PUSH2 0x2EF8 JUMPI PUSH2 0x2EF7 PUSH2 0x2D2C JUMP JUMPDEST JUMPDEST PUSH0 PUSH2 0x2F05 DUP5 DUP3 DUP6 ADD PUSH2 0x2ECF JUMP JUMPDEST SWAP2 POP POP SWAP3 SWAP2 POP POP JUMP JUMPDEST PUSH0 DUP2 MLOAD SWAP1 POP SWAP2 SWAP1 POP JUMP JUMPDEST PUSH0 DUP3 DUP3 MSTORE PUSH1 0x20 DUP3 ADD SWAP1 POP SWAP3 SWAP2 POP POP JUMP JUMPDEST PUSH0 DUP2 SWAP1 POP PUSH1 0x20 DUP3 ADD SWAP1 POP SWAP2 SWAP1 POP JUMP JUMPDEST PUSH2 0x2F40 DUP2 PUSH2 0x2D34 JUMP JUMPDEST DUP3 MSTORE POP POP JUMP JUMPDEST PUSH0 PUSH2 0x2F51 DUP4 DUP4 PUSH2 0x2F37 JUMP JUMPDEST PUSH1 0x20 DUP4 ADD SWAP1 POP SWAP3 SWAP2 POP POP JUMP JUMPDEST PUSH0 PUSH1 0x20 DUP3 ADD SWAP1 POP SWAP2 SWAP1 POP JUMP JUMPDEST PUSH0 PUSH2 0x2F73 DUP3 PUSH2 0x2F0E JUMP JUMPDEST PUSH2 0x2F7D DUP2 DUP6 PUSH2 0x2F18 JUMP JUMPDEST SWAP4 POP PUSH2 0x2F88 DUP4 PUSH2 0x2F28 JUMP JUMPDEST DUP1 PUSH0 JUMPDEST DUP4 DUP2 LT ISZERO PUSH2 0x2FB8 JUMPI DUP2 MLOAD PUSH2 0x2F9F DUP9 DUP3 PUSH2 0x2F46 JUMP JUMPDEST SWAP8 POP PUSH2 0x2FAA DUP4 PUSH2 0x2F5D JUMP JUMPDEST SWAP3 POP POP PUSH1 0x1 DUP2 ADD SWAP1 POP PUSH2 0x2F8B JUMP JUMPDEST POP DUP6 SWAP4 POP POP POP POP SWAP3 SWAP2 POP POP JUMP JUMPDEST PUSH0 PUSH1 0x20 DUP3 ADD SWAP1 POP DUP2 DUP2 SUB PUSH0 DUP4 ADD MSTORE PUSH2 0x2FDD DUP2 DUP5 PUSH2 0x2F69 JUMP JUMPDEST SWAP1 POP SWAP3 SWAP2 POP POP JUMP JUMPDEST PUSH0 DUP1 REVERT JUMPDEST PUSH0 PUSH1 0x1F NOT PUSH1 0x1F DUP4 ADD AND SWAP1 POP SWAP2 SWAP1 POP JUMP JUMPDEST PUSH32 0x4E487B7100000000000000000000000000000000000000000000000000000000 PUSH0 MSTORE PUSH1 0x41 PUSH1 0x4 MSTORE PUSH1 0x24 PUSH0 REVERT JUMPDEST PUSH2 0x302F DUP3 PUSH2 0x2FE9 JUMP JUMPDEST DUP2 ADD DUP2 DUP2 LT PUSH8 0xFFFFFFFFFFFFFFFF DUP3 GT OR ISZERO PUSH2 0x304E JUMPI PUSH2 0x304D PUSH2 0x2FF9 JUMP JUMPDEST JUMPDEST DUP1 PUSH1 0x40 MSTORE POP POP POP JUMP JUMPDEST PUSH0 PUSH2 0x3060 PUSH2 0x2D23 JUMP JUMPDEST SWAP1 POP PUSH2 0x306C DUP3 DUP3 PUSH2 0x3026 JUMP JUMPDEST SWAP2 SWAP1 POP JUMP JUMPDEST PUSH0 PUSH8 0xFFFFFFFFFFFFFFFF DUP3 GT ISZERO PUSH2 0x308B JUMPI PUSH2 0x308A PUSH2 0x2FF9 JUMP JUMPDEST JUMPDEST PUSH1 0x20 DUP3 MUL SWAP1 POP PUSH1 0x20 DUP2 ADD SWAP1 POP SWAP2 SWAP1 POP JUMP JUMPDEST PUSH0 DUP1 REVERT JUMPDEST PUSH0 DUP1 REVERT JUMPDEST PUSH0 DUP1 REVERT JUMPDEST PUSH0 DUP1 REVERT JUMPDEST PUSH0 PUSH8 0xFFFFFFFFFFFFFFFF DUP3 GT ISZERO PUSH2 0x30C6 JUMPI PUSH2 0x30C5 PUSH2 0x2FF9 JUMP JUMPDEST JUMPDEST PUSH2 0x30CF DUP3 PUSH2 0x2FE9 JUMP JUMPDEST SWAP1 POP PUSH1 0x20 DUP2 ADD SWAP1 POP SWAP2 SWAP1 POP JUMP JUMPDEST DUP3 DUP2 DUP4 CALLDATACOPY PUSH0 DUP4 DUP4 ADD MSTORE POP POP POP JUMP JUMPDEST PUSH0 PUSH2 0x30FC PUSH2 0x30F7 DUP5 PUSH2 0x30AC JUMP JUMPDEST PUSH2 0x3057 JUMP JUMPDEST SWAP1 POP DUP3 DUP2 MSTORE PUSH1 0x20 DUP2 ADD DUP5 DUP5 DUP5 ADD GT ISZERO PUSH2 0x3118 JUMPI PUSH2 0x3117 PUSH2 0x30A8 JUMP JUMPDEST JUMPDEST PUSH2 0x3123 DUP5 DUP3 DUP6 PUSH2 0x30DC JUMP JUMPDEST POP SWAP4 SWAP3 POP POP POP JUMP JUMPDEST PUSH0 DUP3 PUSH1 0x1F DUP4 ADD SLT PUSH2 0x313F JUMPI PUSH2 0x313E PUSH2 0x2FE5 JUMP JUMPDEST JUMPDEST DUP2 CALLDATALOAD PUSH2 0x314F DUP5 DUP3 PUSH1 0x20 DUP7 ADD PUSH2 0x30EA JUMP JUMPDEST SWAP2 POP POP SWAP3 SWAP2 POP POP JUMP JUMPDEST PUSH0 PUSH8 0xFFFFFFFFFFFFFFFF DUP3 GT ISZERO PUSH2 0x3172 JUMPI PUSH2 0x3171 PUSH2 0x2FF9 JUMP JUMPDEST JUMPDEST PUSH1 0x20 DUP3 MUL SWAP1 POP PUSH1 0x20 DUP2 ADD SWAP1 POP SWAP2 SWAP1 POP JUMP JUMPDEST PUSH0 PUSH2 0x3195 PUSH2 0x3190 DUP5 PUSH2 0x3158 JUMP JUMPDEST PUSH2 0x3057 JUMP JUMPDEST SWAP1 POP DUP1 DUP4 DUP3 MSTORE PUSH1 0x20 DUP3 ADD SWAP1 POP PUSH1 0x20 DUP5 MUL DUP4 ADD DUP6 DUP2 GT ISZERO PUSH2 0x31B8 JUMPI PUSH2 0x31B7 PUSH2 0x309C JUMP JUMPDEST JUMPDEST DUP4 JUMPDEST DUP2 DUP2 LT ISZERO PUSH2 0x31FF JUMPI DUP1 CALLDATALOAD PUSH8 0xFFFFFFFFFFFFFFFF DUP2 GT ISZERO PUSH2 0x31DD JUMPI PUSH2 0x31DC PUSH2 0x2FE5 JUMP JUMPDEST JUMPDEST DUP1 DUP7 ADD PUSH2 0x31EA DUP10 DUP3 PUSH2 0x312B JUMP JUMPDEST DUP6 MSTORE PUSH1 0x20 DUP6 ADD SWAP5 POP POP POP PUSH1 0x20 DUP2 ADD SWAP1 POP PUSH2 0x31BA JUMP JUMPDEST POP POP POP SWAP4 SWAP3 POP POP POP JUMP JUMPDEST PUSH0 DUP3 PUSH1 0x1F DUP4 ADD SLT PUSH2 0x321D JUMPI PUSH2 0x321C PUSH2 0x2FE5 JUMP JUMPDEST JUMPDEST DUP2 CALLDATALOAD PUSH2 0x322D DUP5 DUP3 PUSH1 0x20 DUP7 ADD PUSH2 0x3183 JUMP JUMPDEST SWAP2 POP POP SWAP3 SWAP2 POP POP JUMP JUMPDEST PUSH0 PUSH1 0x60 DUP3 DUP5 SUB SLT ISZERO PUSH2 0x324B JUMPI PUSH2 0x324A PUSH2 0x30A0 JUMP JUMPDEST JUMPDEST PUSH2 0x3255 PUSH1 0x60 PUSH2 0x3057 JUMP JUMPDEST SWAP1 POP PUSH0 DUP3 ADD CALLDATALOAD PUSH8 0xFFFFFFFFFFFFFFFF DUP2 GT ISZERO PUSH2 0x3274 JUMPI PUSH2 0x3273 PUSH2 0x30A4 JUMP JUMPDEST JUMPDEST PUSH2 0x3280 DUP5 DUP3 DUP6 ADD PUSH2 0x312B JUMP JUMPDEST PUSH0 DUP4 ADD MSTORE POP PUSH1 0x20 DUP3 ADD CALLDATALOAD PUSH8 0xFFFFFFFFFFFFFFFF DUP2 GT ISZERO PUSH2 0x32A3 JUMPI PUSH2 0x32A2 PUSH2 0x30A4 JUMP JUMPDEST JUMPDEST PUSH2 0x32AF DUP5 DUP3 DUP6 ADD PUSH2 0x312B JUMP JUMPDEST PUSH1 0x20 DUP4 ADD MSTORE POP PUSH1 0x40 DUP3 ADD CALLDATALOAD PUSH8 0xFFFFFFFFFFFFFFFF DUP2 GT ISZERO PUSH2 0x32D3 JUMPI PUSH2 0x32D2 PUSH2 0x30A4 JUMP JUMPDEST JUMPDEST PUSH2 0x32DF DUP5 DUP3 DUP6 ADD PUSH2 0x3209 JUMP JUMPDEST PUSH1 0x40 DUP4 ADD MSTORE POP SWAP3 SWAP2 POP POP JUMP JUMPDEST PUSH0 PUSH2 0x32FD PUSH2 0x32F8 DUP5 PUSH2 0x3071 JUMP JUMPDEST PUSH2 0x3057 JUMP JUMPDEST SWAP1 POP DUP1 DUP4 DUP3 MSTORE PUSH1 0x20 DUP3 ADD SWAP1 POP PUSH1 0x20 DUP5 MUL DUP4 ADD DUP6 DUP2 GT ISZERO PUSH2 0x3320 JUMPI PUSH2 0x331F PUSH2 0x309C JUMP JUMPDEST JUMPDEST DUP4 JUMPDEST DUP2 DUP2 LT ISZERO PUSH2 0x3367 JUMPI DUP1 CALLDATALOAD PUSH8 0xFFFFFFFFFFFFFFFF DUP2 GT ISZERO PUSH2 0x3345 JUMPI PUSH2 0x3344 PUSH2 0x2FE5 JUMP JUMPDEST JUMPDEST DUP1 DUP7 ADD PUSH2 0x3352 DUP10 DUP3 PUSH2 0x3236 JUMP JUMPDEST DUP6 MSTORE PUSH1 0x20 DUP6 ADD SWAP5 POP POP POP PUSH1 0x20 DUP2 ADD SWAP1 POP PUSH2 0x3322 JUMP JUMPDEST POP POP POP SWAP4 SWAP3 POP POP POP JUMP JUMPDEST PUSH0 DUP3 PUSH1 0x1F DUP4 ADD SLT PUSH2 0x3385 JUMPI PUSH2 0x3384 PUSH2 0x2FE5 JUMP JUMPDEST JUMPDEST DUP2 CALLDATALOAD PUSH2 0x3395 DUP5 DUP3 PUSH1 0x20 DUP7 ADD PUSH2 0x32EB JUMP JUMPDEST SWAP2 POP POP SWAP3 SWAP2 POP POP JUMP JUMPDEST PUSH0 DUP1 PUSH1 0x40 DUP4 DUP6 SUB SLT ISZERO PUSH2 0x33B4 JUMPI PUSH2 0x33B3 PUSH2 0x2D2C JUMP JUMPDEST JUMPDEST PUSH0 PUSH2 0x33C1 DUP6 DUP3 DUP7 ADD PUSH2 0x2ECF JUMP JUMPDEST SWAP3 POP POP PUSH1 0x20 DUP4 ADD CALLDATALOAD PUSH8 0xFFFFFFFFFFFFFFFF DUP2 GT ISZERO PUSH2 0x33E2 JUMPI PUSH2 0x33E1 PUSH2 0x2D30 JUMP JUMPDEST JUMPDEST PUSH2 0x33EE DUP6 DUP3 DUP7 ADD PUSH2 0x3371 JUMP JUMPDEST SWAP2 POP POP SWAP3 POP SWAP3 SWAP1 POP JUMP JUMPDEST PUSH0 DUP1 PUSH1 0x40 DUP4 DUP6 SUB SLT ISZERO PUSH2 0x340E JUMPI PUSH2 0x340D PUSH2 0x2D2C JUMP JUMPDEST JUMPDEST PUSH0 PUSH2 0x341B DUP6 DUP3 DUP7 ADD PUSH2 0x2D5B JUMP JUMPDEST SWAP3 POP POP PUSH1 0x20 PUSH2 0x342C DUP6 DUP3 DUP7 ADD PUSH2 0x2ECF JUMP JUMPDEST SWAP2 POP POP SWAP3 POP SWAP3 SWAP1 POP JUMP JUMPDEST PUSH0 PUSH1 0x20 DUP3 ADD SWAP1 POP DUP2 DUP2 SUB PUSH0 DUP4 ADD MSTORE PUSH2 0x344E DUP2 DUP5 PUSH2 0x2E28 JUMP JUMPDEST SWAP1 POP SWAP3 SWAP2 POP POP JUMP JUMPDEST PUSH0 DUP1 PUSH0 PUSH1 0x60 DUP5 DUP7 SUB SLT ISZERO PUSH2 0x346D JUMPI PUSH2 0x346C PUSH2 0x2D2C JUMP JUMPDEST JUMPDEST PUSH0 PUSH2 0x347A DUP7 DUP3 DUP8 ADD PUSH2 0x2D5B JUMP JUMPDEST SWAP4 POP POP PUSH1 0x20 PUSH2 0x348B DUP7 DUP3 DUP8 ADD PUSH2 0x2ECF JUMP JUMPDEST SWAP3 POP POP PUSH1 0x40 PUSH2 0x349C DUP7 DUP3 DUP8 ADD PUSH2 0x2ECF JUMP JUMPDEST SWAP2 POP POP SWAP3 POP SWAP3 POP SWAP3 JUMP JUMPDEST PUSH0 DUP2 MLOAD SWAP1 POP SWAP2 SWAP1 POP JUMP JUMPDEST PUSH0 DUP3 DUP3 MSTORE PUSH1 0x20 DUP3 ADD SWAP1 POP SWAP3 SWAP2 POP POP JUMP JUMPDEST PUSH0 DUP2 SWAP1 POP PUSH1 0x20 DUP3 ADD SWAP1 POP SWAP2 SWAP1 POP JUMP JUMPDEST PUSH0 DUP2 MLOAD SWAP1 POP SWAP2 SWAP1 POP JUMP JUMPDEST PUSH0 DUP3 DUP3 MSTORE PUSH1 0x20 DUP3 ADD SWAP1 POP SWAP3 SWAP2 POP POP JUMP JUMPDEST DUP3 DUP2 DUP4 MCOPY PUSH0 DUP4 DUP4 ADD MSTORE POP POP POP JUMP JUMPDEST PUSH0 PUSH2 0x3501 DUP3 PUSH2 0x34CF JUMP JUMPDEST PUSH2 0x350B DUP2 DUP6 PUSH2 0x34D9 JUMP JUMPDEST SWAP4 POP PUSH2 0x351B DUP2 DUP6 PUSH1 0x20 DUP7 ADD PUSH2 0x34E9 JUMP JUMPDEST PUSH2 0x3524 DUP2 PUSH2 0x2FE9 JUMP JUMPDEST DUP5 ADD SWAP2 POP POP SWAP3 SWAP2 POP POP JUMP JUMPDEST PUSH0 PUSH2 0x353A DUP4 DUP4 PUSH2 0x34F7 JUMP JUMPDEST SWAP1 POP SWAP3 SWAP2 POP POP JUMP JUMPDEST PUSH0 PUSH1 0x20 DUP3 ADD SWAP1 POP SWAP2 SWAP1 POP JUMP JUMPDEST PUSH0 PUSH2 0x3558 DUP3 PUSH2 0x34A6 JUMP JUMPDEST PUSH2 0x3562 DUP2 DUP6 PUSH2 0x34B0 JUMP JUMPDEST SWAP4 POP DUP4 PUSH1 0x20 DUP3 MUL DUP6 ADD PUSH2 0x3574 DUP6 PUSH2 0x34C0 JUMP JUMPDEST DUP1 PUSH0 JUMPDEST DUP6 DUP2 LT ISZERO PUSH2 0x35AF JUMPI DUP5 DUP5 SUB DUP10 MSTORE DUP2 MLOAD PUSH2 0x3590 DUP6 DUP3 PUSH2 0x352F JUMP JUMPDEST SWAP5 POP PUSH2 0x359B DUP4 PUSH2 0x3542 JUMP JUMPDEST SWAP3 POP PUSH1 0x20 DUP11 ADD SWAP10 POP POP PUSH1 0x1 DUP2 ADD SWAP1 POP PUSH2 0x3577 JUMP JUMPDEST POP DUP3 SWAP8 POP DUP8 SWAP6 POP POP POP POP POP POP SWAP3 SWAP2 POP POP JUMP JUMPDEST PUSH0 DUP2 MLOAD SWAP1 POP SWAP2 SWAP1 POP JUMP JUMPDEST PUSH0 DUP3 DUP3 MSTORE PUSH1 0x20 DUP3 ADD SWAP1 POP SWAP3 SWAP2 POP POP JUMP JUMPDEST PUSH0 DUP2 SWAP1 POP PUSH1 0x20 DUP3 ADD SWAP1 POP SWAP2 SWAP1 POP JUMP JUMPDEST PUSH0 DUP3 DUP3 MSTORE PUSH1 0x20 DUP3 ADD SWAP1 POP SWAP3 SWAP2 POP POP JUMP JUMPDEST PUSH0 PUSH2 0x3604 DUP3 PUSH2 0x34A6 JUMP JUMPDEST PUSH2 0x360E DUP2 DUP6 PUSH2 0x35EA JUMP JUMPDEST SWAP4 POP DUP4 PUSH1 0x20 DUP3 MUL DUP6 ADD PUSH2 0x3620 DUP6 PUSH2 0x34C0 JUMP JUMPDEST DUP1 PUSH0 JUMPDEST DUP6 DUP2 LT ISZERO PUSH2 0x365B JUMPI DUP5 DUP5 SUB DUP10 MSTORE DUP2 MLOAD PUSH2 0x363C DUP6 DUP3 PUSH2 0x352F JUMP JUMPDEST SWAP5 POP PUSH2 0x3647 DUP4 PUSH2 0x3542 JUMP JUMPDEST SWAP3 POP PUSH1 0x20 DUP11 ADD SWAP10 POP POP PUSH1 0x1 DUP2 ADD SWAP1 POP PUSH2 0x3623 JUMP JUMPDEST POP DUP3 SWAP8 POP DUP8 SWAP6 POP POP POP POP POP POP SWAP3 SWAP2 POP POP JUMP JUMPDEST PUSH0 PUSH2 0x3678 DUP4 DUP4 PUSH2 0x35FA JUMP JUMPDEST SWAP1 POP SWAP3 SWAP2 POP POP JUMP JUMPDEST PUSH0 PUSH1 0x20 DUP3 ADD SWAP1 POP SWAP2 SWAP1 POP JUMP JUMPDEST PUSH0 PUSH2 0x3696 DUP3 PUSH2 0x35C1 JUMP JUMPDEST PUSH2 0x36A0 DUP2 DUP6 PUSH2 0x35CB JUMP JUMPDEST SWAP4 POP DUP4 PUSH1 0x20 DUP3 MUL DUP6 ADD PUSH2 0x36B2 DUP6 PUSH2 0x35DB JUMP JUMPDEST DUP1 PUSH0 JUMPDEST DUP6 DUP2 LT ISZERO PUSH2 0x36ED JUMPI DUP5 DUP5 SUB DUP10 MSTORE DUP2 MLOAD PUSH2 0x36CE DUP6 DUP3 PUSH2 0x366D JUMP JUMPDEST SWAP5 POP PUSH2 0x36D9 DUP4 PUSH2 0x3680 JUMP JUMPDEST SWAP3 POP PUSH1 0x20 DUP11 ADD SWAP10 POP POP PUSH1 0x1 DUP2 ADD SWAP1 POP PUSH2 0x36B5 JUMP JUMPDEST POP DUP3 SWAP8 POP DUP8 SWAP6 POP POP POP POP POP POP SWAP3 SWAP2 POP POP JUMP JUMPDEST PUSH0 PUSH1 0x60 DUP3 ADD SWAP1 POP DUP2 DUP2 SUB PUSH0 DUP4 ADD MSTORE PUSH2 0x3717 DUP2 DUP7 PUSH2 0x354E JUMP JUMPDEST SWAP1 POP DUP2 DUP2 SUB PUSH1 0x20 DUP4 ADD MSTORE PUSH2 0x372B DUP2 DUP6 PUSH2 0x354E JUMP JUMPDEST SWAP1 POP DUP2 DUP2 SUB PUSH1 0x40 DUP4 ADD MSTORE PUSH2 0x373F DUP2 DUP5 PUSH2 0x368C JUMP JUMPDEST SWAP1 POP SWAP5 SWAP4 POP POP POP POP JUMP JUMPDEST PUSH0 DUP2 MLOAD SWAP1 POP SWAP2 SWAP1 POP JUMP JUMPDEST PUSH0 DUP3 DUP3 MSTORE PUSH1 0x20 DUP3 ADD SWAP1 POP SWAP3 SWAP2 POP POP JUMP JUMPDEST PUSH0 DUP2 SWAP1 POP PUSH1 0x20 DUP3 ADD SWAP1 POP SWAP2 SWAP1 POP JUMP JUMPDEST PUSH0 PUSH1 0xFF DUP3 AND SWAP1 POP SWAP2 SWAP1 POP JUMP JUMPDEST PUSH2 0x3787 DUP2 PUSH2 0x3772 JUMP JUMPDEST DUP3 MSTORE POP POP JUMP JUMPDEST PUSH0 PUSH2 0x3798 DUP4 DUP4 PUSH2 0x377E JUMP JUMPDEST PUSH1 0x20 DUP4 ADD SWAP1 POP SWAP3 SWAP2 POP POP JUMP JUMPDEST PUSH0 PUSH1 0x20 DUP3 ADD SWAP1 POP SWAP2 SWAP1 POP JUMP JUMPDEST PUSH0 PUSH2 0x37BA DUP3 PUSH2 0x3749 JUMP JUMPDEST PUSH2 0x37C4 DUP2 DUP6 PUSH2 0x3753 JUMP JUMPDEST SWAP4 POP PUSH2 0x37CF DUP4 PUSH2 0x3763 JUMP JUMPDEST DUP1 PUSH0 JUMPDEST DUP4 DUP2 LT ISZERO PUSH2 0x37FF JUMPI DUP2 MLOAD PUSH2 0x37E6 DUP9 DUP3 PUSH2 0x378D JUMP JUMPDEST SWAP8 POP PUSH2 0x37F1 DUP4 PUSH2 0x37A4 JUMP JUMPDEST SWAP3 POP POP PUSH1 0x1 DUP2 ADD SWAP1 POP PUSH2 0x37D2 JUMP JUMPDEST POP DUP6 SWAP4 POP POP POP POP SWAP3 SWAP2 POP POP JUMP JUMPDEST PUSH0 PUSH1 0x20 DUP3 ADD SWAP1 POP DUP2 DUP2 SUB PUSH0 DUP4 ADD MSTORE PUSH2 0x3824 DUP2 DUP5 PUSH2 0x37B0 JUMP JUMPDEST SWAP1 POP SWAP3 SWAP2 POP POP JUMP JUMPDEST PUSH0 DUP1 PUSH1 0x40 DUP4 DUP6 SUB SLT ISZERO PUSH2 0x3842 JUMPI PUSH2 0x3841 PUSH2 0x2D2C JUMP JUMPDEST JUMPDEST PUSH0 PUSH2 0x384F DUP6 DUP3 DUP7 ADD PUSH2 0x2ECF JUMP JUMPDEST SWAP3 POP POP PUSH1 0x20 PUSH2 0x3860 DUP6 DUP3 DUP7 ADD PUSH2 0x2ECF JUMP JUMPDEST SWAP2 POP POP SWAP3 POP SWAP3 SWAP1 POP JUMP JUMPDEST PUSH32 0x4E487B7100000000000000000000000000000000000000000000000000000000 PUSH0 MSTORE PUSH1 0x32 PUSH1 0x4 MSTORE PUSH1 0x24 PUSH0 REVERT JUMPDEST PUSH0 DUP3 DUP3 MSTORE PUSH1 0x20 DUP3 ADD SWAP1 POP SWAP3 SWAP2 POP POP JUMP JUMPDEST PUSH32 0x496E76616C69642067726F757020494400000000000000000000000000000000 PUSH0 DUP3 ADD MSTORE POP JUMP JUMPDEST PUSH0 PUSH2 0x38DB PUSH1 0x10 DUP4 PUSH2 0x3897 JUMP JUMPDEST SWAP2 POP PUSH2 0x38E6 DUP3 PUSH2 0x38A7 JUMP JUMPDEST PUSH1 0x20 DUP3 ADD SWAP1 POP SWAP2 SWAP1 POP JUMP JUMPDEST PUSH0 PUSH1 0x20 DUP3 ADD SWAP1 POP DUP2 DUP2 SUB PUSH0 DUP4 ADD MSTORE PUSH2 0x3908 DUP2 PUSH2 0x38CF JUMP JUMPDEST SWAP1 POP SWAP2 SWAP1 POP JUMP JUMPDEST PUSH2 0x3918 DUP2 PUSH2 0x2D34 JUMP JUMPDEST DUP3 MSTORE POP POP JUMP JUMPDEST PUSH0 PUSH1 0x20 DUP3 ADD SWAP1 POP PUSH2 0x3931 PUSH0 DUP4 ADD DUP5 PUSH2 0x390F JUMP JUMPDEST SWAP3 SWAP2 POP POP JUMP JUMPDEST PUSH0 PUSH2 0x3949 PUSH2 0x3944 DUP5 PUSH2 0x30AC JUMP JUMPDEST PUSH2 0x3057 JUMP JUMPDEST SWAP1 POP DUP3 DUP2 MSTORE PUSH1 0x20 DUP2 ADD DUP5 DUP5 DUP5 ADD GT ISZERO PUSH2 0x3965 JUMPI PUSH2 0x3964 PUSH2 0x30A8 JUMP JUMPDEST JUMPDEST PUSH2 0x3970 DUP5 DUP3 DUP6 PUSH2 0x34E9 JUMP JUMPDEST POP SWAP4 SWAP3 POP POP POP JUMP JUMPDEST PUSH0 DUP3 PUSH1 0x1F DUP4 ADD SLT PUSH2 0x398C JUMPI PUSH2 0x398B PUSH2 0x2FE5 JUMP JUMPDEST JUMPDEST DUP2 MLOAD PUSH2 0x399C DUP5 DUP3 PUSH1 0x20 DUP7 ADD PUSH2 0x3937 JUMP JUMPDEST SWAP2 POP POP SWAP3 SWAP2 POP POP JUMP JUMPDEST PUSH0 DUP1 PUSH0 PUSH1 0x60 DUP5 DUP7 SUB SLT ISZERO PUSH2 0x39BC JUMPI PUSH2 0x39BB PUSH2 0x2D2C JUMP JUMPDEST JUMPDEST PUSH0 DUP5 ADD MLOAD PUSH8 0xFFFFFFFFFFFFFFFF DUP2 GT ISZERO PUSH2 0x39D9 JUMPI PUSH2 0x39D8 PUSH2 0x2D30 JUMP JUMPDEST JUMPDEST PUSH2 0x39E5 DUP7 DUP3 DUP8 ADD PUSH2 0x3978 JUMP JUMPDEST SWAP4 POP POP PUSH1 0x20 DUP5 ADD MLOAD PUSH8 0xFFFFFFFFFFFFFFFF DUP2 GT ISZERO PUSH2 0x3A06 JUMPI PUSH2 0x3A05 PUSH2 0x2D30 JUMP JUMPDEST JUMPDEST PUSH2 0x3A12 DUP7 DUP3 DUP8 ADD PUSH2 0x3978 JUMP JUMPDEST SWAP3 POP POP PUSH1 0x40 DUP5 ADD MLOAD PUSH8 0xFFFFFFFFFFFFFFFF DUP2 GT ISZERO PUSH2 0x3A33 JUMPI PUSH2 0x3A32 PUSH2 0x2D30 JUMP JUMPDEST JUMPDEST PUSH2 0x3A3F DUP7 DUP3 DUP8 ADD PUSH2 0x3978 JUMP JUMPDEST SWAP2 POP POP SWAP3 POP SWAP3 POP SWAP3 JUMP JUMPDEST PUSH32 0x50726F66696C65206D75737420657869737420746F207375626D697420636F6E PUSH0 DUP3 ADD MSTORE PUSH32 0x747269627574696F6E7300000000000000000000000000000000000000000000 PUSH1 0x20 DUP3 ADD MSTORE POP JUMP JUMPDEST PUSH0 PUSH2 0x3AA3 PUSH1 0x2A DUP4 PUSH2 0x3897 JUMP JUMPDEST SWAP2 POP PUSH2 0x3AAE DUP3 PUSH2 0x3A49 JUMP JUMPDEST PUSH1 0x40 DUP3 ADD SWAP1 POP SWAP2 SWAP1 POP JUMP JUMPDEST PUSH0 PUSH1 0x20 DUP3 ADD SWAP1 POP DUP2 DUP2 SUB PUSH0 DUP4 ADD MSTORE PUSH2 0x3AD0 DUP2 PUSH2 0x3A97 JUMP JUMPDEST SWAP1 POP SWAP2 SWAP1 POP JUMP JUMPDEST PUSH0 PUSH1 0x40 DUP3 ADD SWAP1 POP PUSH2 0x3AEA PUSH0 DUP4 ADD DUP6 PUSH2 0x390F JUMP JUMPDEST PUSH2 0x3AF7 PUSH1 0x20 DUP4 ADD DUP5 PUSH2 0x2CFB JUMP JUMPDEST SWAP4 SWAP3 POP POP POP JUMP JUMPDEST PUSH0 DUP2 MLOAD SWAP1 POP PUSH2 0x3B0C DUP2 PUSH2 0x2EB9 JUMP JUMPDEST SWAP3 SWAP2 POP POP JUMP JUMPDEST PUSH2 0x3B1B DUP2 PUSH2 0x2D9A JUMP JUMPDEST DUP2 EQ PUSH2 0x3B25 JUMPI PUSH0 DUP1 REVERT JUMPDEST POP JUMP JUMPDEST PUSH0 DUP2 MLOAD SWAP1 POP PUSH2 0x3B36 DUP2 PUSH2 0x3B12 JUMP JUMPDEST SWAP3 SWAP2 POP POP JUMP JUMPDEST PUSH0 PUSH8 0xFFFFFFFFFFFFFFFF DUP3 GT ISZERO PUSH2 0x3B56 JUMPI PUSH2 0x3B55 PUSH2 0x2FF9 JUMP JUMPDEST JUMPDEST PUSH1 0x20 DUP3 MUL SWAP1 POP PUSH1 0x20 DUP2 ADD SWAP1 POP SWAP2 SWAP1 POP JUMP JUMPDEST PUSH0 DUP2 MLOAD SWAP1 POP PUSH2 0x3B75 DUP2 PUSH2 0x2D45 JUMP JUMPDEST SWAP3 SWAP2 POP POP JUMP JUMPDEST PUSH0 PUSH2 0x3B8D PUSH2 0x3B88 DUP5 PUSH2 0x3B3C JUMP JUMPDEST PUSH2 0x3057 JUMP JUMPDEST SWAP1 POP DUP1 DUP4 DUP3 MSTORE PUSH1 0x20 DUP3 ADD SWAP1 POP PUSH1 0x20 DUP5 MUL DUP4 ADD DUP6 DUP2 GT ISZERO PUSH2 0x3BB0 JUMPI PUSH2 0x3BAF PUSH2 0x309C JUMP JUMPDEST JUMPDEST DUP4 JUMPDEST DUP2 DUP2 LT ISZERO PUSH2 0x3BD9 JUMPI DUP1 PUSH2 0x3BC5 DUP9 DUP3 PUSH2 0x3B67 JUMP JUMPDEST DUP5 MSTORE PUSH1 0x20 DUP5 ADD SWAP4 POP POP PUSH1 0x20 DUP2 ADD SWAP1 POP PUSH2 0x3BB2 JUMP JUMPDEST POP POP POP SWAP4 SWAP3 POP POP POP JUMP JUMPDEST PUSH0 DUP3 PUSH1 0x1F DUP4 ADD SLT PUSH2 0x3BF7 JUMPI PUSH2 0x3BF6 PUSH2 0x2FE5 JUMP JUMPDEST JUMPDEST DUP2 MLOAD PUSH2 0x3C07 DUP5 DUP3 PUSH1 0x20 DUP7 ADD PUSH2 0x3B7B JUMP JUMPDEST SWAP2 POP POP SWAP3 SWAP2 POP POP JUMP JUMPDEST PUSH0 DUP1 PUSH0 DUP1 PUSH0 PUSH1 0xA0 DUP7 DUP9 SUB SLT ISZERO PUSH2 0x3C29 JUMPI PUSH2 0x3C28 PUSH2 0x2D2C JUMP JUMPDEST JUMPDEST PUSH0 PUSH2 0x3C36 DUP9 DUP3 DUP10 ADD PUSH2 0x3AFE JUMP JUMPDEST SWAP6 POP POP PUSH1 0x20 PUSH2 0x3C47 DUP9 DUP3 DUP10 ADD PUSH2 0x3AFE JUMP JUMPDEST SWAP5 POP POP PUSH1 0x40 PUSH2 0x3C58 DUP9 DUP3 DUP10 ADD PUSH2 0x3AFE JUMP JUMPDEST SWAP4 POP POP PUSH1 0x60 PUSH2 0x3C69 DUP9 DUP3 DUP10 ADD PUSH2 0x3B28 JUMP JUMPDEST SWAP3 POP POP PUSH1 0x80 DUP7 ADD MLOAD PUSH8 0xFFFFFFFFFFFFFFFF DUP2 GT ISZERO PUSH2 0x3C8A JUMPI PUSH2 0x3C89 PUSH2 0x2D30 JUMP JUMPDEST JUMPDEST PUSH2 0x3C96 DUP9 DUP3 DUP10 ADD PUSH2 0x3BE3 JUMP JUMPDEST SWAP2 POP POP SWAP3 SWAP6 POP SWAP3 SWAP6 SWAP1 SWAP4 POP JUMP JUMPDEST PUSH32 0x55736572206E6F742070617274206F66207468697320636F6D6D756E69747900 PUSH0 DUP3 ADD MSTORE POP JUMP JUMPDEST PUSH0 PUSH2 0x3CD7 PUSH1 0x1F DUP4 PUSH2 0x3897 JUMP JUMPDEST SWAP2 POP PUSH2 0x3CE2 DUP3 PUSH2 0x3CA3 JUMP JUMPDEST PUSH1 0x20 DUP3 ADD SWAP1 POP SWAP2 SWAP1 POP JUMP JUMPDEST PUSH0 PUSH1 0x20 DUP3 ADD SWAP1 POP DUP2 DUP2 SUB PUSH0 DUP4 ADD MSTORE PUSH2 0x3D04 DUP2 PUSH2 0x3CCB JUMP JUMPDEST SWAP1 POP SWAP2 SWAP1 POP JUMP JUMPDEST PUSH32 0x55736572206E6F7420617070726F76656420696E207468697320636F6D6D756E PUSH0 DUP3 ADD MSTORE PUSH32 0x6974790000000000000000000000000000000000000000000000000000000000 PUSH1 0x20 DUP3 ADD MSTORE POP JUMP JUMPDEST PUSH0 PUSH2 0x3D65 PUSH1 0x23 DUP4 PUSH2 0x3897 JUMP JUMPDEST SWAP2 POP PUSH2 0x3D70 DUP3 PUSH2 0x3D0B JUMP JUMPDEST PUSH1 0x40 DUP3 ADD SWAP1 POP SWAP2 SWAP1 POP JUMP JUMPDEST PUSH0 PUSH1 0x20 DUP3 ADD SWAP1 POP DUP2 DUP2 SUB PUSH0 DUP4 ADD MSTORE PUSH2 0x3D92 DUP2 PUSH2 0x3D59 JUMP JUMPDEST SWAP1 POP SWAP2 SWAP1 POP JUMP JUMPDEST PUSH32 0x4D757374207375626D6974206174206C65617374206F6E6520636F6E74726962 PUSH0 DUP3 ADD MSTORE PUSH32 0x7574696F6E000000000000000000000000000000000000000000000000000000 PUSH1 0x20 DUP3 ADD MSTORE POP JUMP JUMPDEST PUSH0 PUSH2 0x3DF3 PUSH1 0x25 DUP4 PUSH2 0x3897 JUMP JUMPDEST SWAP2 POP PUSH2 0x3DFE DUP3 PUSH2 0x3D99 JUMP JUMPDEST PUSH1 0x40 DUP3 ADD SWAP1 POP SWAP2 SWAP1 POP JUMP JUMPDEST PUSH0 PUSH1 0x20 DUP3 ADD SWAP1 POP DUP2 DUP2 SUB PUSH0 DUP4 ADD MSTORE PUSH2 0x3E20 DUP2 PUSH2 0x3DE7 JUMP JUMPDEST SWAP1 POP SWAP2 SWAP1 POP JUMP JUMPDEST PUSH0 DUP1 PUSH0 DUP1 PUSH0 PUSH1 0xA0 DUP7 DUP9 SUB SLT ISZERO PUSH2 0x3E40 JUMPI PUSH2 0x3E3F PUSH2 0x2D2C JUMP JUMPDEST JUMPDEST PUSH0 DUP7 ADD MLOAD PUSH8 0xFFFFFFFFFFFFFFFF DUP2 GT ISZERO PUSH2 0x3E5D JUMPI PUSH2 0x3E5C PUSH2 0x2D30 JUMP JUMPDEST JUMPDEST PUSH2 0x3E69 DUP9 DUP3 DUP10 ADD PUSH2 0x3978 JUMP JUMPDEST SWAP6 POP POP PUSH1 0x20 DUP7 ADD MLOAD PUSH8 0xFFFFFFFFFFFFFFFF DUP2 GT ISZERO PUSH2 0x3E8A JUMPI PUSH2 0x3E89 PUSH2 0x2D30 JUMP JUMPDEST JUMPDEST PUSH2 0x3E96 DUP9 DUP3 DUP10 ADD PUSH2 0x3978 JUMP JUMPDEST SWAP5 POP POP PUSH1 0x40 DUP7 ADD MLOAD PUSH8 0xFFFFFFFFFFFFFFFF DUP2 GT ISZERO PUSH2 0x3EB7 JUMPI PUSH2 0x3EB6 PUSH2 0x2D30 JUMP JUMPDEST JUMPDEST PUSH2 0x3EC3 DUP9 DUP3 DUP10 ADD PUSH2 0x3978 JUMP JUMPDEST SWAP4 POP POP PUSH1 0x60 PUSH2 0x3ED4 DUP9 DUP3 DUP10 ADD PUSH2 0x3B67 JUMP JUMPDEST SWAP3 POP POP PUSH1 0x80 PUSH2 0x3EE5 DUP9 DUP3 DUP10 ADD PUSH2 0x3AFE JUMP JUMPDEST SWAP2 POP POP SWAP3 SWAP6 POP SWAP3 SWAP6 SWAP1 SWAP4 POP JUMP JUMPDEST PUSH32 0x4E487B7100000000000000000000000000000000000000000000000000000000 PUSH0 MSTORE PUSH1 0x11 PUSH1 0x4 MSTORE PUSH1 0x24 PUSH0 REVERT JUMPDEST PUSH0 PUSH2 0x3F29 DUP3 PUSH2 0x2CF2 JUMP JUMPDEST SWAP2 POP PUSH2 0x3F34 DUP4 PUSH2 0x2CF2 JUMP JUMPDEST SWAP3 POP DUP3 DUP3 SUB SWAP1 POP DUP2 DUP2 GT ISZERO PUSH2 0x3F4C JUMPI PUSH2 0x3F4B PUSH2 0x3EF2 JUMP JUMPDEST JUMPDEST SWAP3 SWAP2 POP POP JUMP JUMPDEST PUSH32 0x4E487B7100000000000000000000000000000000000000000000000000000000 PUSH0 MSTORE PUSH1 0x22 PUSH1 0x4 MSTORE PUSH1 0x24 PUSH0 REVERT JUMPDEST PUSH0 PUSH1 0x2 DUP3 DIV SWAP1 POP PUSH1 0x1 DUP3 AND DUP1 PUSH2 0x3F96 JUMPI PUSH1 0x7F DUP3 AND SWAP2 POP JUMPDEST PUSH1 0x20 DUP3 LT DUP2 SUB PUSH2 0x3FA9 JUMPI PUSH2 0x3FA8 PUSH2 0x3F52 JUMP JUMPDEST JUMPDEST POP SWAP2 SWAP1 POP JUMP JUMPDEST PUSH0 DUP2 SWAP1 POP DUP2 PUSH0 MSTORE PUSH1 0x20 PUSH0 KECCAK256 SWAP1 POP SWAP2 SWAP1 POP JUMP JUMPDEST PUSH0 PUSH1 0x20 PUSH1 0x1F DUP4 ADD DIV SWAP1 POP SWAP2 SWAP1 POP JUMP JUMPDEST PUSH0 DUP3 DUP3 SHL SWAP1 POP SWAP3 SWAP2 POP POP JUMP JUMPDEST PUSH0 PUSH1 0x8 DUP4 MUL PUSH2 0x400B PUSH32 0xFFFFFFFFFFFFFFFFFFFFFFFFFFFFFFFFFFFFFFFFFFFFFFFFFFFFFFFFFFFFFFFF DUP3 PUSH2 0x3FD0 JUMP JUMPDEST PUSH2 0x4015 DUP7 DUP4 PUSH2 0x3FD0 JUMP JUMPDEST SWAP6 POP DUP1 NOT DUP5 AND SWAP4 POP DUP1 DUP7 AND DUP5 OR SWAP3 POP POP POP SWAP4 SWAP3 POP POP POP JUMP JUMPDEST PUSH0 PUSH2 0x4047 PUSH2 0x4042 PUSH2 0x403D DUP5 PUSH2 0x2CF2 JUMP JUMPDEST PUSH2 0x2C7E JUMP JUMPDEST PUSH2 0x2CF2 JUMP JUMPDEST SWAP1 POP SWAP2 SWAP1 POP JUMP JUMPDEST PUSH0 DUP2 SWAP1 POP SWAP2 SWAP1 POP JUMP JUMPDEST PUSH2 0x4060 DUP4 PUSH2 0x402D JUMP JUMPDEST PUSH2 0x4074 PUSH2 0x406C DUP3 PUSH2 0x404E JUMP JUMPDEST DUP5 DUP5 SLOAD PUSH2 0x3FDC JUMP JUMPDEST DUP3 SSTORE POP POP POP POP JUMP JUMPDEST PUSH0 SWAP1 JUMP JUMPDEST PUSH2 0x4088 PUSH2 0x407C JUMP JUMPDEST PUSH2 0x4093 DUP2 DUP5 DUP5 PUSH2 0x4057 JUMP JUMPDEST POP POP POP JUMP JUMPDEST JUMPDEST DUP2 DUP2 LT ISZERO PUSH2 0x40B6 JUMPI PUSH2 0x40AB PUSH0 DUP3 PUSH2 0x4080 JUMP JUMPDEST PUSH1 0x1 DUP2 ADD SWAP1 POP PUSH2 0x4099 JUMP JUMPDEST POP POP JUMP JUMPDEST PUSH1 0x1F DUP3 GT ISZERO PUSH2 0x40FB JUMPI PUSH2 0x40CC DUP2 PUSH2 0x3FAF JUMP JUMPDEST PUSH2 0x40D5 DUP5 PUSH2 0x3FC1 JUMP JUMPDEST DUP2 ADD PUSH1 0x20 DUP6 LT ISZERO PUSH2 0x40E4 JUMPI DUP2 SWAP1 POP JUMPDEST PUSH2 0x40F8 PUSH2 0x40F0 DUP6 PUSH2 0x3FC1 JUMP JUMPDEST DUP4 ADD DUP3 PUSH2 0x4098 JUMP JUMPDEST POP POP JUMPDEST POP POP POP JUMP JUMPDEST PUSH0 DUP3 DUP3 SHR SWAP1 POP SWAP3 SWAP2 POP POP JUMP JUMPDEST PUSH0 PUSH2 0x411B PUSH0 NOT DUP5 PUSH1 0x8 MUL PUSH2 0x4100 JUMP JUMPDEST NOT DUP1 DUP4 AND SWAP2 POP POP SWAP3 SWAP2 POP POP JUMP JUMPDEST PUSH0 PUSH2 0x4133 DUP4 DUP4 PUSH2 0x410C JUMP JUMPDEST SWAP2 POP DUP3 PUSH1 0x2 MUL DUP3 OR SWAP1 POP SWAP3 SWAP2 POP POP JUMP JUMPDEST PUSH2 0x414C DUP3 PUSH2 0x34CF JUMP JUMPDEST PUSH8 0xFFFFFFFFFFFFFFFF DUP2 GT ISZERO PUSH2 0x4165 JUMPI PUSH2 0x4164 PUSH2 0x2FF9 JUMP JUMPDEST JUMPDEST PUSH2 0x416F DUP3 SLOAD PUSH2 0x3F7F JUMP JUMPDEST PUSH2 0x417A DUP3 DUP3 DUP6 PUSH2 0x40BA JUMP JUMPDEST PUSH0 PUSH1 0x20 SWAP1 POP PUSH1 0x1F DUP4 GT PUSH1 0x1 DUP2 EQ PUSH2 0x41AB JUMPI PUSH0 DUP5 ISZERO PUSH2 0x4199 JUMPI DUP3 DUP8 ADD MLOAD SWAP1 POP JUMPDEST PUSH2 0x41A3 DUP6 DUP3 PUSH2 0x4128 JUMP JUMPDEST DUP7 SSTORE POP PUSH2 0x420A JUMP JUMPDEST PUSH1 0x1F NOT DUP5 AND PUSH2 0x41B9 DUP7 PUSH2 0x3FAF JUMP JUMPDEST PUSH0 JUMPDEST DUP3 DUP2 LT ISZERO PUSH2 0x41E0 JUMPI DUP5 DUP10 ADD MLOAD DUP3 SSTORE PUSH1 0x1 DUP3 ADD SWAP2 POP PUSH1 0x20 DUP6 ADD SWAP5 POP PUSH1 0x20 DUP2 ADD SWAP1 POP PUSH2 0x41BB JUMP JUMPDEST DUP7 DUP4 LT ISZERO PUSH2 0x41FD JUMPI DUP5 DUP10 ADD MLOAD PUSH2 0x41F9 PUSH1 0x1F DUP10 AND DUP3 PUSH2 0x410C JUMP JUMPDEST DUP4 SSTORE POP JUMPDEST PUSH1 0x1 PUSH1 0x2 DUP9 MUL ADD DUP9 SSTORE POP POP POP JUMPDEST POP POP POP POP POP POP JUMP JUMPDEST PUSH0 PUSH1 0x40 DUP3 ADD SWAP1 POP PUSH2 0x4225 PUSH0 DUP4 ADD DUP6 PUSH2 0x2CFB JUMP JUMPDEST PUSH2 0x4232 PUSH1 0x20 DUP4 ADD DUP5 PUSH2 0x2CFB JUMP JUMPDEST SWAP4 SWAP3 POP POP POP JUMP JUMPDEST PUSH32 0x4E6F20636F6E747269627574696F6E7320666F756E6420666F72207468697320 PUSH0 DUP3 ADD MSTORE PUSH32 0x7573657220696E207468697320636F6D6D756E69747900000000000000000000 PUSH1 0x20 DUP3 ADD MSTORE POP JUMP JUMPDEST PUSH0 PUSH2 0x4293 PUSH1 0x36 DUP4 PUSH2 0x3897 JUMP JUMPDEST SWAP2 POP PUSH2 0x429E DUP3 PUSH2 0x4239 JUMP JUMPDEST PUSH1 0x40 DUP3 ADD SWAP1 POP SWAP2 SWAP1 POP JUMP JUMPDEST PUSH0 PUSH1 0x20 DUP3 ADD SWAP1 POP DUP2 DUP2 SUB PUSH0 DUP4 ADD MSTORE PUSH2 0x42C0 DUP2 PUSH2 0x4287 JUMP JUMPDEST SWAP1 POP SWAP2 SWAP1 POP JUMP JUMPDEST PUSH32 0x4E6F20636F6E7472696275746F727320666F72207468652063757272656E7420 PUSH0 DUP3 ADD MSTORE PUSH32 0x7765656B00000000000000000000000000000000000000000000000000000000 PUSH1 0x20 DUP3 ADD MSTORE POP JUMP JUMPDEST PUSH0 PUSH2 0x4321 PUSH1 0x24 DUP4 PUSH2 0x3897 JUMP JUMPDEST SWAP2 POP PUSH2 0x432C DUP3 PUSH2 0x42C7 JUMP JUMPDEST PUSH1 0x40 DUP3 ADD SWAP1 POP SWAP2 SWAP1 POP JUMP JUMPDEST PUSH0 PUSH1 0x20 DUP3 ADD SWAP1 POP DUP2 DUP2 SUB PUSH0 DUP4 ADD MSTORE PUSH2 0x434E DUP2 PUSH2 0x4315 JUMP JUMPDEST SWAP1 POP SWAP2 SWAP1 POP JUMP JUMPDEST PUSH32 0x4E6F207061727469636970616E74730000000000000000000000000000000000 PUSH0 DUP3 ADD MSTORE POP JUMP JUMPDEST PUSH0 PUSH2 0x4389 PUSH1 0xF DUP4 PUSH2 0x3897 JUMP JUMPDEST SWAP2 POP PUSH2 0x4394 DUP3 PUSH2 0x4355 JUMP JUMPDEST PUSH1 0x20 DUP3 ADD SWAP1 POP SWAP2 SWAP1 POP JUMP JUMPDEST PUSH0 PUSH1 0x20 DUP3 ADD SWAP1 POP DUP2 DUP2 SUB PUSH0 DUP4 ADD MSTORE PUSH2 0x43B6 DUP2 PUSH2 0x437D JUMP JUMPDEST SWAP1 POP SWAP2 SWAP1 POP JUMP JUMPDEST PUSH0 PUSH2 0x43C7 DUP3 PUSH2 0x2CF2 JUMP JUMPDEST SWAP2 POP PUSH32 0xFFFFFFFFFFFFFFFFFFFFFFFFFFFFFFFFFFFFFFFFFFFFFFFFFFFFFFFFFFFFFFFF DUP3 SUB PUSH2 0x43F9 JUMPI PUSH2 0x43F8 PUSH2 0x3EF2 JUMP JUMPDEST JUMPDEST PUSH1 0x1 DUP3 ADD SWAP1 POP SWAP2 SWAP1 POP JUMP JUMPDEST PUSH0 PUSH2 0x440E DUP3 PUSH2 0x2CF2 JUMP JUMPDEST SWAP2 POP PUSH2 0x4419 DUP4 PUSH2 0x2CF2 JUMP JUMPDEST SWAP3 POP DUP3 DUP3 ADD SWAP1 POP DUP1 DUP3 GT ISZERO PUSH2 0x4431 JUMPI PUSH2 0x4430 PUSH2 0x3EF2 JUMP JUMPDEST JUMPDEST SWAP3 SWAP2 POP POP JUMP JUMPDEST PUSH0 DUP2 SWAP1 POP SWAP2 SWAP1 POP JUMP JUMPDEST PUSH2 0x4451 PUSH2 0x444C DUP3 PUSH2 0x2CF2 JUMP JUMPDEST PUSH2 0x4437 JUMP JUMPDEST DUP3 MSTORE POP POP JUMP JUMPDEST PUSH0 PUSH2 0x4462 DUP3 DUP7 PUSH2 0x4440 JUMP JUMPDEST PUSH1 0x20 DUP3 ADD SWAP2 POP PUSH2 0x4472 DUP3 DUP6 PUSH2 0x4440 JUMP JUMPDEST PUSH1 0x20 DUP3 ADD SWAP2 POP PUSH2 0x4482 DUP3 DUP5 PUSH2 0x4440 JUMP JUMPDEST PUSH1 0x20 DUP3 ADD SWAP2 POP DUP2 SWAP1 POP SWAP5 SWAP4 POP POP POP POP JUMP JUMPDEST PUSH32 0x4E487B7100000000000000000000000000000000000000000000000000000000 PUSH0 MSTORE PUSH1 0x12 PUSH1 0x4 MSTORE PUSH1 0x24 PUSH0 REVERT JUMPDEST PUSH0 PUSH2 0x44CA DUP3 PUSH2 0x2CF2 JUMP JUMPDEST SWAP2 POP PUSH2 0x44D5 DUP4 PUSH2 0x2CF2 JUMP JUMPDEST SWAP3 POP DUP3 PUSH2 0x44E5 JUMPI PUSH2 0x44E4 PUSH2 0x4493 JUMP JUMPDEST JUMPDEST DUP3 DUP3 MOD SWAP1 POP SWAP3 SWAP2 POP POP JUMP JUMPDEST PUSH0 PUSH2 0x44FA DUP3 PUSH2 0x2CF2 JUMP JUMPDEST SWAP2 POP PUSH0 DUP3 SUB PUSH2 0x450C JUMPI PUSH2 0x450B PUSH2 0x3EF2 JUMP JUMPDEST JUMPDEST PUSH1 0x1 DUP3 SUB SWAP1 POP SWAP2 SWAP1 POP JUMP JUMPDEST PUSH0 PUSH2 0x4521 DUP3 PUSH2 0x2CF2 JUMP JUMPDEST SWAP2 POP PUSH2 0x452C DUP4 PUSH2 0x2CF2 JUMP JUMPDEST SWAP3 POP DUP3 PUSH2 0x453C JUMPI PUSH2 0x453B PUSH2 0x4493 JUMP JUMPDEST JUMPDEST DUP3 DUP3 DIV SWAP1 POP SWAP3 SWAP2 POP POP JUMP JUMPDEST PUSH0 PUSH2 0x4551 DUP3 PUSH2 0x3772 JUMP JUMPDEST SWAP2 POP PUSH1 0xFF DUP3 SUB PUSH2 0x4564 JUMPI PUSH2 0x4563 PUSH2 0x3EF2 JUMP JUMPDEST JUMPDEST PUSH1 0x1 DUP3 ADD SWAP1 POP SWAP2 SWAP1 POP JUMP INVALID LOG2 PUSH5 0x6970667358 0x22 SLT KECCAK256 JUMP 0x4D 0xD9 0xA8 SELFDESTRUCT 0xE5 0xB5 PUSH15 0x660E7DD733D47326D01DF09DCB61E9 0xBD CALLDATACOPY CALLDATASIZE PUSH28 0x248BAB129F64736F6C634300081A0033000000000000000000000000 "
		},
		"gasEstimates": {
			"creation": {
				"codeDepositCost": "3565800",
				"executionCost": "infinite",
				"totalCost": "infinite"
			},
			"external": {
				"createGroupsForCurrentWeek(uint256)": "infinite",
				"getContributions(address,uint256,uint256)": "infinite",
				"getDetailedGroupInfo()": "infinite",
				"getGroupCount()": "2463",
				"getGroupMembers(uint256)": "infinite",
				"getLastRoomSizes()": "infinite",
				"getUserContributedWeeks(address,uint256)": "infinite",
				"getWeeklyContributors(uint256,uint256)": "infinite",
				"hasContributed(address)": "2878",
				"profilesContract()": "infinite",
				"submitContributions(uint256,(string,string,string[])[])": "infinite",
				"userContributions(address,uint256)": "infinite"
			},
			"internal": {
				"createGroups(address[] memory)": "infinite",
				"determineRoomSizes(uint256)": "infinite",
				"genericRoomSizes(uint256)": "infinite",
				"hardcodedRoomSizes(uint256)": "infinite",
				"isContributor(uint256,uint256,address)": "infinite",
				"shuffle(address[] memory)": "infinite"
			}
		},
		"methodIdentifiers": {
			"createGroupsForCurrentWeek(uint256)": "690ec8d1",
			"getContributions(address,uint256,uint256)": "667f0e63",
			"getDetailedGroupInfo()": "32a41f3e",
			"getGroupCount()": "06545a93",
			"getGroupMembers(uint256)": "36cc8130",
			"getLastRoomSizes()": "771197d8",
			"getUserContributedWeeks(address,uint256)": "4fe038a2",
			"getWeeklyContributors(uint256,uint256)": "8ec2c82b",
			"hasContributed(address)": "205b1946",
			"profilesContract()": "06428f02",
			"submitContributions(uint256,(string,string,string[])[])": "3722a0e8",
			"userContributions(address,uint256)": "7331fa95"
		}
	},
	"abi": [
		{
			"inputs": [
				{
					"internalType": "address",
					"name": "_profilesContractAddress",
					"type": "address"
				}
			],
			"stateMutability": "nonpayable",
			"type": "constructor"
		},
		{
			"anonymous": false,
			"inputs": [
				{
					"indexed": true,
					"internalType": "address",
					"name": "user",
					"type": "address"
				},
				{
					"indexed": true,
					"internalType": "uint256",
					"name": "communityId",
					"type": "uint256"
				},
				{
					"indexed": false,
					"internalType": "uint256",
					"name": "weekNumber",
					"type": "uint256"
				},
				{
					"indexed": false,
					"internalType": "uint256",
					"name": "contributionIndex",
					"type": "uint256"
				}
			],
			"name": "ContributionSubmitted",
			"type": "event"
		},
		{
			"anonymous": false,
			"inputs": [
				{
					"indexed": true,
					"internalType": "uint256",
					"name": "communityId",
					"type": "uint256"
				},
				{
					"indexed": false,
					"internalType": "uint256",
					"name": "weekNumber",
					"type": "uint256"
				},
				{
					"indexed": false,
					"internalType": "uint256",
					"name": "groupCount",
					"type": "uint256"
				}
			],
			"name": "GroupsCreated",
			"type": "event"
		},
		{
			"inputs": [
				{
					"internalType": "uint256",
					"name": "_communityId",
					"type": "uint256"
				}
			],
			"name": "createGroupsForCurrentWeek",
			"outputs": [],
			"stateMutability": "nonpayable",
			"type": "function"
		},
		{
			"inputs": [
				{
					"internalType": "address",
					"name": "_user",
					"type": "address"
				},
				{
					"internalType": "uint256",
					"name": "_communityId",
					"type": "uint256"
				},
				{
					"internalType": "uint256",
					"name": "_weekNumber",
					"type": "uint256"
				}
			],
			"name": "getContributions",
			"outputs": [
				{
					"internalType": "string[]",
					"name": "names",
					"type": "string[]"
				},
				{
					"internalType": "string[]",
					"name": "descriptions",
					"type": "string[]"
				},
				{
					"internalType": "string[][]",
					"name": "links",
					"type": "string[][]"
				}
			],
			"stateMutability": "view",
			"type": "function"
		},
		{
			"inputs": [],
			"name": "getDetailedGroupInfo",
			"outputs": [
				{
					"internalType": "uint256[]",
					"name": "",
					"type": "uint256[]"
				},
				{
					"internalType": "uint256[]",
					"name": "",
					"type": "uint256[]"
				}
			],
			"stateMutability": "view",
			"type": "function"
		},
		{
			"inputs": [],
			"name": "getGroupCount",
			"outputs": [
				{
					"internalType": "uint256",
					"name": "",
					"type": "uint256"
				}
			],
			"stateMutability": "view",
			"type": "function"
		},
		{
			"inputs": [
				{
					"internalType": "uint256",
					"name": "groupId",
					"type": "uint256"
				}
			],
			"name": "getGroupMembers",
			"outputs": [
				{
					"internalType": "address[]",
					"name": "",
					"type": "address[]"
				}
			],
			"stateMutability": "view",
			"type": "function"
		},
		{
			"inputs": [],
			"name": "getLastRoomSizes",
			"outputs": [
				{
					"internalType": "uint8[]",
					"name": "",
					"type": "uint8[]"
				}
			],
			"stateMutability": "view",
			"type": "function"
		},
		{
			"inputs": [
				{
					"internalType": "address",
					"name": "_user",
					"type": "address"
				},
				{
					"internalType": "uint256",
					"name": "_communityId",
					"type": "uint256"
				}
			],
			"name": "getUserContributedWeeks",
			"outputs": [
				{
					"internalType": "uint256[]",
					"name": "",
					"type": "uint256[]"
				}
			],
			"stateMutability": "view",
			"type": "function"
		},
		{
			"inputs": [
				{
					"internalType": "uint256",
					"name": "_communityId",
					"type": "uint256"
				},
				{
					"internalType": "uint256",
					"name": "_week",
					"type": "uint256"
				}
			],
			"name": "getWeeklyContributors",
			"outputs": [
				{
					"internalType": "address[]",
					"name": "",
					"type": "address[]"
				}
			],
			"stateMutability": "view",
			"type": "function"
		},
		{
			"inputs": [
				{
					"internalType": "address",
					"name": "",
					"type": "address"
				}
			],
			"name": "hasContributed",
			"outputs": [
				{
					"internalType": "bool",
					"name": "",
					"type": "bool"
				}
			],
			"stateMutability": "view",
			"type": "function"
		},
		{
			"inputs": [],
			"name": "profilesContract",
			"outputs": [
				{
					"internalType": "contract ICommunityGovernanceProfiles",
					"name": "",
					"type": "address"
				}
			],
			"stateMutability": "view",
			"type": "function"
		},
		{
			"inputs": [
				{
					"internalType": "uint256",
					"name": "_communityId",
					"type": "uint256"
				},
				{
					"components": [
						{
							"internalType": "string",
							"name": "name",
							"type": "string"
						},
						{
							"internalType": "string",
							"name": "description",
							"type": "string"
						},
						{
							"internalType": "string[]",
							"name": "links",
							"type": "string[]"
						}
					],
					"internalType": "struct CommunityGovernanceContributions.ContributionInput[]",
					"name": "_contributions",
					"type": "tuple[]"
				}
			],
			"name": "submitContributions",
			"outputs": [],
			"stateMutability": "nonpayable",
			"type": "function"
		},
		{
			"inputs": [
				{
					"internalType": "address",
					"name": "",
					"type": "address"
				},
				{
					"internalType": "uint256",
					"name": "",
					"type": "uint256"
				}
			],
			"name": "userContributions",
			"outputs": [
				{
					"internalType": "uint256",
					"name": "communityId",
					"type": "uint256"
				}
			],
			"stateMutability": "view",
			"type": "function"
		}
	]
}