{
	"data": {
		"bytecode": {
			"linkReferences": {},
			"object": "608060405234801561000f575f80fd5b50604051615025380380615025833981810160405281019061003191906100d4565b805f806101000a81548173ffffffffffffffffffffffffffffffffffffffff021916908373ffffffffffffffffffffffffffffffffffffffff160217905550506100ff565b5f80fd5b5f73ffffffffffffffffffffffffffffffffffffffff82169050919050565b5f6100a38261007a565b9050919050565b6100b381610099565b81146100bd575f80fd5b50565b5f815190506100ce816100aa565b92915050565b5f602082840312156100e9576100e8610076565b5b5f6100f6848285016100c0565b91505092915050565b614f198061010c5f395ff3fe608060405234801561000f575f80fd5b50600436106100fe575f3560e01c80633722a0e811610095578063690ec8d111610064578063690ec8d1146102d55780637331fa95146102f1578063771197d8146103215780638ec2c82b1461033f576100fe565b80633722a0e814610226578063415b5d7d146102425780634fe038a214610273578063667f0e63146102a3576100fe565b80632b3dffeb116100d15780632b3dffeb1461017657806332a41f3e146101a657806332a7adb0146101c557806336cc8130146101f6576100fe565b806306428f021461010257806306545a931461012057806317dd9e731461013e5780632a00bbf21461015a575b5f80fd5b61010a61036f565b604051610117919061319a565b60405180910390f35b610128610392565b60405161013591906131cb565b60405180910390f35b6101586004803603810190610153919061321f565b61039e565b005b610174600480360381019061016f91906133fa565b610807565b005b610190600480360381019061018b919061347a565b610b50565b60405161019d9190613595565b60405180910390f35b6101ae610cab565b6040516101bc92919061366c565b60405180910390f35b6101df60048036038101906101da919061321f565b610dd0565b6040516101ed9291906136a1565b60405180910390f35b610210600480360381019061020b91906136d6565b610fac565b60405161021d9190613595565b60405180910390f35b610240600480360381019061023b9190613a2a565b61109c565b005b61025c6004803603810190610257919061321f565b6115e9565b60405161026a929190613a84565b60405180910390f35b61028d60048036038101906102889190613ab2565b6116b8565b60405161029a9190613af0565b60405180910390f35b6102bd60048036038101906102b89190613b10565b6117ee565b6040516102cc93929190613db9565b60405180910390f35b6102ef60048036038101906102ea91906136d6565b611cf9565b005b61030b60048036038101906103069190613ab2565b612092565b60405161031891906131cb565b60405180910390f35b6103296120b7565b6040516103369190613ec6565b60405180910390f35b61035960048036038101906103549190613ee6565b612131565b6040516103669190613595565b60405180910390f35b5f8054906101000a900473ffffffffffffffffffffffffffffffffffffffff1681565b5f600280549050905090565b5f600282815481106103b3576103b2613f24565b5b905f5260205f200190505f815f018054905011610405576040517f08c379a00000000000000000000000000000000000000000000000000000000081526004016103fc90613fab565b60405180910390fd5b5f815f018054905090505f8167ffffffffffffffff81111561042a57610429613283565b5b6040519080825280602002602001820160405280156104585781602001602082028036833780820191505090505b5090505f8267ffffffffffffffff81111561047657610475613283565b5b6040519080825280602002602001820160405280156104a45781602001602082028036833780820191505090505b5090505f5b8381101561058d57845f0181815481106104c6576104c5613f24565b5b905f5260205f20015f9054906101000a900473ffffffffffffffffffffffffffffffffffffffff1683828151811061050157610500613f24565b5b602002602001019073ffffffffffffffffffffffffffffffffffffffff16908173ffffffffffffffffffffffffffffffffffffffff168152505061056188888886858151811061055457610553613f24565b5b60200260200101516121dd565b82828151811061057457610573613f24565b5b60200260200101818152505080806001019150506104a9565b505f5b60018461059d9190613ff6565b811015610755575f6001826105b29190614029565b90505b84811015610747578281815181106105d0576105cf613f24565b5b60200260200101518383815181106105eb576105ea613f24565b5b6020026020010151101561073a5782818151811061060c5761060b613f24565b5b602002602001015183838151811061062757610626613f24565b5b602002602001015184848151811061064257610641613f24565b5b6020026020010185848151811061065c5761065b613f24565b5b60200260200101828152508281525050508381815181106106805761067f613f24565b5b602002602001015184838151811061069b5761069a613f24565b5b60200260200101518584815181106106b6576106b5613f24565b5b602002602001018684815181106106d0576106cf613f24565b5b602002602001018273ffffffffffffffffffffffffffffffffffffffff1673ffffffffffffffffffffffffffffffffffffffff168152508273ffffffffffffffffffffffffffffffffffffffff1673ffffffffffffffffffffffffffffffffffffffff1681525050505b80806001019150506105b5565b508080600101915050610590565b5060405180604001604052808381526020014281525060065f8981526020019081526020015f205f8881526020019081526020015f205f8781526020019081526020015f205f820151815f0190805190602001906107b4929190612e42565b5060208201518160010155905050867fc1d9bcc1034946367c8e06a2d57e877f927adbc73aa85e18d5b52296401852ae8787856040516107f69392919061405c565b60405180910390a250505050505050565b5f815111801561081957506006815111155b610858576040517f08c379a000000000000000000000000000000000000000000000000000000000815260040161084f906140e2565b60405180910390fd5b6108628233612506565b6108a1576040517f08c379a00000000000000000000000000000000000000000000000000000000081526004016108989061414a565b60405180910390fd5b5f60055f8681526020019081526020015f205f8581526020019081526020015f205f8481526020019081526020015f205f3373ffffffffffffffffffffffffffffffffffffffff1673ffffffffffffffffffffffffffffffffffffffff1681526020019081526020015f205f018054905014610952576040517f08c379a0000000000000000000000000000000000000000000000000000000008152600401610949906141b2565b60405180910390fd5b5f805b8251811015610a20576109828484838151811061097557610974613f24565b5b6020026020010151612506565b6109c1576040517f08c379a00000000000000000000000000000000000000000000000000000000081526004016109b89061421a565b60405180910390fd5b3373ffffffffffffffffffffffffffffffffffffffff168382815181106109eb576109ea613f24565b5b602002602001015173ffffffffffffffffffffffffffffffffffffffff1603610a1357600191505b8080600101915050610955565b5080610a61576040517f08c379a0000000000000000000000000000000000000000000000000000000008152600401610a58906142a8565b60405180910390fd5b60405180602001604052808381525060055f8781526020019081526020015f205f8681526020019081526020015f205f8581526020019081526020015f205f3373ffffffffffffffffffffffffffffffffffffffff1673ffffffffffffffffffffffffffffffffffffffff1681526020019081526020015f205f820151815f019080519060200190610af4929190612e42565b509050503373ffffffffffffffffffffffffffffffffffffffff16857fe2d0f4a25c2b0cc7ccda020bcd4293dceffb51708b88b9c58ef71a0ab96b5e168686604051610b419291906142c6565b60405180910390a35050505050565b60605f60055f8781526020019081526020015f205f8681526020019081526020015f205f8581526020019081526020015f205f8473ffffffffffffffffffffffffffffffffffffffff1673ffffffffffffffffffffffffffffffffffffffff1681526020019081526020015f2090505f815f018054905011610c1a575f67ffffffffffffffff811115610be657610be5613283565b5b604051908082528060200260200182016040528015610c145781602001602082028036833780820191505090505b50610ca0565b805f01805480602002602001604051908101604052809291908181526020018280548015610c9a57602002820191905f5260205f20905b815f9054906101000a900473ffffffffffffffffffffffffffffffffffffffff1673ffffffffffffffffffffffffffffffffffffffff1681526020019060010190808311610c51575b50505050505b915050949350505050565b60608060028054905067ffffffffffffffff811115610ccd57610ccc613283565b5b604051908082528060200260200182016040528015610cfb5781602001602082028036833780820191505090505b50915060028054905067ffffffffffffffff811115610d1d57610d1c613283565b5b604051908082528060200260200182016040528015610d4b5781602001602082028036833780820191505090505b5090505f5b600280549050811015610dcb5780838281518110610d7157610d70613f24565b5b60200260200101818152505060028181548110610d9157610d90613f24565b5b905f5260205f20015f0180549050828281518110610db257610db1613f24565b5b6020026020010181815250508080600101915050610d50565b509091565b6060805f60028481548110610de857610de7613f24565b5b905f5260205f20019050805f018054905067ffffffffffffffff811115610e1257610e11613283565b5b604051908082528060200260200182016040528015610e405781602001602082028036833780820191505090505b509250805f018054905067ffffffffffffffff811115610e6357610e62613283565b5b604051908082528060200260200182016040528015610e915781602001602082028036833780820191505090505b5091505f5b815f0180549050811015610fa257815f018181548110610eb957610eb8613f24565b5b905f5260205f20015f9054906101000a900473ffffffffffffffffffffffffffffffffffffffff16848281518110610ef457610ef3613f24565b5b602002602001019073ffffffffffffffffffffffffffffffffffffffff16908173ffffffffffffffffffffffffffffffffffffffff1681525050610f76878787855f018581548110610f4957610f48613f24565b5b905f5260205f20015f9054906101000a900473ffffffffffffffffffffffffffffffffffffffff166121dd565b838281518110610f8957610f88613f24565b5b6020026020010181815250508080600101915050610e96565b5050935093915050565b60606002805490508210610ff5576040517f08c379a0000000000000000000000000000000000000000000000000000000008152600401610fec90614337565b60405180910390fd5b6002828154811061100957611008613f24565b5b905f5260205f20015f0180548060200260200160405190810160405280929190818152602001828054801561109057602002820191905f5260205f20905b815f9054906101000a900473ffffffffffffffffffffffffffffffffffffffff1673ffffffffffffffffffffffffffffffffffffffff1681526020019060010190808311611047575b50505050509050919050565b5f805f9054906101000a900473ffffffffffffffffffffffffffffffffffffffff1673ffffffffffffffffffffffffffffffffffffffff1663987ee156336040518263ffffffff1660e01b81526004016110f69190614364565b5f60405180830381865afa158015611110573d5f803e3d5ffd5b505050506040513d5f823e3d601f19601f8201168201806040525081019061113891906143eb565b505090505f81511161117f576040517f08c379a0000000000000000000000000000000000000000000000000000000008152600401611176906144ff565b60405180910390fd5b5f805f8054906101000a900473ffffffffffffffffffffffffffffffffffffffff1673ffffffffffffffffffffffffffffffffffffffff16630b26ed7b33876040518363ffffffff1660e01b81526004016111db92919061451d565b5f60405180830381865afa1580156111f5573d5f803e3d5ffd5b505050506040513d5f823e3d601f19601f8201168201806040525081019061121d9190614636565b509350505091505f82141580156112315750805b611270576040517f08c379a000000000000000000000000000000000000000000000000000000000815260040161126790614739565b60405180910390fd5b5f8451116112b3576040517f08c379a00000000000000000000000000000000000000000000000000000000081526004016112aa906147c7565b60405180910390fd5b5f805f9054906101000a900473ffffffffffffffffffffffffffffffffffffffff1673ffffffffffffffffffffffffffffffffffffffff166399664245876040518263ffffffff1660e01b815260040161130d91906131cb565b5f60405180830381865afa158015611327573d5f803e3d5ffd5b505050506040513d5f823e3d601f19601f8201168201806040525081019061134f91906147e5565b9450505050505f60035f3373ffffffffffffffffffffffffffffffffffffffff1673ffffffffffffffffffffffffffffffffffffffff1681526020019081526020015f205f8881526020019081526020015f2090505f815f0154036113b75786815f01819055505b5f816001015f8481526020019081526020015f20905082815f0181905550806001015f6113e49190612ec9565b5f5b875181101561148a578160010188828151811061140657611405613f24565b5b6020026020010151908060018154018082558091505060019003905f5260205f2090600302015f909190919091505f820151815f0190816114479190614aa1565b50602082015181600101908161145d9190614aa1565b50604082015181600201908051906020019061147a929190612eea565b50505080806001019150506113e6565b505f826002018054905014806114d157508282600201600184600201805490506114b49190613ff6565b815481106114c5576114c4613f24565b5b905f5260205f20015414155b156114ff578160020183908060018154018082558091505060019003905f5260205f20015f90919091909150555b61150a8884336125c9565b61158d5760045f8981526020019081526020015f205f8481526020019081526020015f2033908060018154018082558091505060019003905f5260205f20015f9091909190916101000a81548173ffffffffffffffffffffffffffffffffffffffff021916908373ffffffffffffffffffffffffffffffffffffffff1602179055505b873373ffffffffffffffffffffffffffffffffffffffff167f320425f199b1900c87ab751cb74680df52e35b0caffe1ca604850a02fdda470b858a516040516115d79291906142c6565b60405180910390a35050505050505050565b60605f8060065f8781526020019081526020015f205f8681526020019081526020015f205f8581526020019081526020015f209050805f018160010154818054806020026020016040519081016040528092919081815260200182805480156116a457602002820191905f5260205f20905b815f9054906101000a900473ffffffffffffffffffffffffffffffffffffffff1673ffffffffffffffffffffffffffffffffffffffff168152602001906001019080831161165b575b505050505091509250925050935093915050565b60605f60035f8573ffffffffffffffffffffffffffffffffffffffff1673ffffffffffffffffffffffffffffffffffffffff1681526020019081526020015f205f8481526020019081526020015f205f01540361174a576040517f08c379a000000000000000000000000000000000000000000000000000000000815260040161174190614be0565b60405180910390fd5b60035f8473ffffffffffffffffffffffffffffffffffffffff1673ffffffffffffffffffffffffffffffffffffffff1681526020019081526020015f205f8381526020019081526020015f206002018054806020026020016040519081016040528092919081815260200182805480156117e157602002820191905f5260205f20905b8154815260200190600101908083116117cd575b5050505050905092915050565b60608060605f60035f8873ffffffffffffffffffffffffffffffffffffffff1673ffffffffffffffffffffffffffffffffffffffff1681526020019081526020015f205f8781526020019081526020015f205f015403611883576040517f08c379a000000000000000000000000000000000000000000000000000000000815260040161187a90614be0565b60405180910390fd5b5f60035f8873ffffffffffffffffffffffffffffffffffffffff1673ffffffffffffffffffffffffffffffffffffffff1681526020019081526020015f205f8781526020019081526020015f206001015f8681526020019081526020015f20600101805480602002602001604051908101604052809291908181526020015f905b82821015611b27578382905f5260205f2090600302016040518060600160405290815f82018054611934906148dd565b80601f0160208091040260200160405190810160405280929190818152602001828054611960906148dd565b80156119ab5780601f10611982576101008083540402835291602001916119ab565b820191905f5260205f20905b81548152906001019060200180831161198e57829003601f168201915b505050505081526020016001820180546119c4906148dd565b80601f01602080910402602001604051908101604052809291908181526020018280546119f0906148dd565b8015611a3b5780601f10611a1257610100808354040283529160200191611a3b565b820191905f5260205f20905b815481529060010190602001808311611a1e57829003601f168201915b5050505050815260200160028201805480602002602001604051908101604052809291908181526020015f905b82821015611b10578382905f5260205f20018054611a85906148dd565b80601f0160208091040260200160405190810160405280929190818152602001828054611ab1906148dd565b8015611afc5780601f10611ad357610100808354040283529160200191611afc565b820191905f5260205f20905b815481529060010190602001808311611adf57829003601f168201915b505050505081526020019060010190611a68565b505050508152505081526020019060010190611904565b505050509050805167ffffffffffffffff811115611b4857611b47613283565b5b604051908082528060200260200182016040528015611b7b57816020015b6060815260200190600190039081611b665790505b509350805167ffffffffffffffff811115611b9957611b98613283565b5b604051908082528060200260200182016040528015611bcc57816020015b6060815260200190600190039081611bb75790505b509250805167ffffffffffffffff811115611bea57611be9613283565b5b604051908082528060200260200182016040528015611c1d57816020015b6060815260200190600190039081611c085790505b5091505f5b8151811015611cee57818181518110611c3e57611c3d613f24565b5b60200260200101515f0151858281518110611c5c57611c5b613f24565b5b6020026020010181905250818181518110611c7a57611c79613f24565b5b602002602001015160200151848281518110611c9957611c98613f24565b5b6020026020010181905250818181518110611cb757611cb6613f24565b5b602002602001015160400151838281518110611cd657611cd5613f24565b5b60200260200101819052508080600101915050611c22565b505093509350939050565b5f805f9054906101000a900473ffffffffffffffffffffffffffffffffffffffff1673ffffffffffffffffffffffffffffffffffffffff166399664245836040518263ffffffff1660e01b8152600401611d5391906131cb565b5f60405180830381865afa158015611d6d573d5f803e3d5ffd5b505050506040513d5f823e3d601f19601f82011682018060405250810190611d9591906147e5565b9450505050505f60045f8481526020019081526020015f205f8381526020019081526020015f20805480602002602001604051908101604052809291908181526020018280548015611e3957602002820191905f5260205f20905b815f9054906101000a900473ffffffffffffffffffffffffffffffffffffffff1673ffffffffffffffffffffffffffffffffffffffff1681526020019060010190808311611df0575b505050505090505f815111611e83576040517f08c379a0000000000000000000000000000000000000000000000000000000008152600401611e7a90614c6e565b60405180910390fd5b60025f611e909190612f41565b611e99816126ec565b5f611ea48251612831565b90505f805b8251811015612034575f838281518110611ec657611ec5613f24565b5b602002602001015160ff1667ffffffffffffffff811115611eea57611ee9613283565b5b604051908082528060200260200182016040528015611f185781602001602082028036833780820191505090505b5090505f5b848381518110611f3057611f2f613f24565b5b602002602001015160ff1681108015611f495750855184105b15611fd557858480611f5a90614c8c565b955081518110611f6d57611f6c613f24565b5b6020026020010151828281518110611f8857611f87613f24565b5b602002602001019073ffffffffffffffffffffffffffffffffffffffff16908173ffffffffffffffffffffffffffffffffffffffff16815250508080611fcd90614c8c565b915050611f1d565b506002604051806020016040528083815250908060018154018082558091505060019003905f5260205f20015f909190919091505f820151815f019080519060200190612023929190612e42565b505050508080600101915050611ea9565b50816001908051906020019061204b929190612f5f565b50847f23a1c99c38932e128bfcf925232d21eed654965240c06433650755d2b5879d98856002805490506040516120839291906142c6565b60405180910390a25050505050565b6003602052815f5260405f20602052805f5260405f205f9150915050805f0154905081565b6060600180548060200260200160405190810160405280929190818152602001828054801561212757602002820191905f5260205f20905f905b82829054906101000a900460ff1660ff16815260200190600101906020825f010492830192600103820291508084116120f15790505b5050505050905090565b606060045f8481526020019081526020015f205f8381526020019081526020015f208054806020026020016040519081016040528092919081815260200182805480156121d057602002820191905f5260205f20905b815f9054906101000a900473ffffffffffffffffffffffffffffffffffffffff1673ffffffffffffffffffffffffffffffffffffffff1681526020019060010190808311612187575b5050505050905092915050565b5f80600284815481106121f3576121f2613f24565b5b905f5260205f20015f018054905090505f8167ffffffffffffffff81111561221e5761221d613283565b5b60405190808252806020026020018201604052801561224c5781602001602082028036833780820191505090505b5090505f805b8381101561240a575f6002888154811061226f5761226e613f24565b5b905f5260205f20015f01828154811061228b5761228a613f24565b5b905f5260205f20015f9054906101000a900473ffffffffffffffffffffffffffffffffffffffff1690505f60055f8c81526020019081526020015f205f8b81526020019081526020015f205f8a81526020019081526020015f205f8373ffffffffffffffffffffffffffffffffffffffff1673ffffffffffffffffffffffffffffffffffffffff1681526020019081526020015f2090505f815f018054905011156123fb575f5b815f01805490508110156123f9578873ffffffffffffffffffffffffffffffffffffffff16825f01828154811061236c5761236b613f24565b5b905f5260205f20015f9054906101000a900473ffffffffffffffffffffffffffffffffffffffff1673ffffffffffffffffffffffffffffffffffffffff16036123ec576001816123bc9190614029565b8686806123c890614c8c565b9750815181106123db576123da613f24565b5b6020026020010181815250506123f9565b8080600101915050612332565b505b50508080600101915050612252565b505f810361241d575f93505050506124fe565b5f805b8281101561245d5783818151811061243b5761243a613f24565b5b60200260200101518261244e9190614029565b91508080600101915050612420565b50818161246a9190614d00565b90505f61247884838561285b565b90505f612484866128eb565b90505f81670de0b6b3a76400008461249c9190614d30565b6124a69190614d00565b670de0b6b3a76400006124b99190613ff6565b9050670de0b6b3a76400006103e8826124d29190614d30565b6124dc9190614d00565b6103e8856124ea9190614d30565b6124f49190614029565b9750505050505050505b949350505050565b5f806002848154811061251c5761251b613f24565b5b905f5260205f200190505f5b815f01805490508110156125bd578373ffffffffffffffffffffffffffffffffffffffff16825f01828154811061256257612561613f24565b5b905f5260205f20015f9054906101000a900473ffffffffffffffffffffffffffffffffffffffff1673ffffffffffffffffffffffffffffffffffffffff16036125b0576001925050506125c3565b8080600101915050612528565b505f9150505b92915050565b5f8060045f8681526020019081526020015f205f8581526020019081526020015f2080548060200260200160405190810160405280929190818152602001828054801561266857602002820191905f5260205f20905b815f9054906101000a900473ffffffffffffffffffffffffffffffffffffffff1673ffffffffffffffffffffffffffffffffffffffff168152602001906001019080831161261f575b505050505090505f5b81518110156126df578373ffffffffffffffffffffffffffffffffffffffff168282815181106126a4576126a3613f24565b5b602002602001015173ffffffffffffffffffffffffffffffffffffffff16036126d2576001925050506126e5565b8080600101915050612671565b505f9150505b9392505050565b5f600182516126fb9190613ff6565b90505b5f81111561282d575f6001826127149190614029565b42448460405160200161272993929190614d91565b604051602081830303815290604052805190602001205f1c61274b9190614dcd565b90508281815181106127605761275f613f24565b5b602002602001015183838151811061277b5761277a613f24565b5b602002602001015184848151811061279657612795613f24565b5b602002602001018584815181106127b0576127af613f24565b5b602002602001018273ffffffffffffffffffffffffffffffffffffffff1673ffffffffffffffffffffffffffffffffffffffff168152508273ffffffffffffffffffffffffffffffffffffffff1673ffffffffffffffffffffffffffffffffffffffff16815250505050808061282590614dfd565b9150506126fe565b5050565b6060601482111561284a5761284582612968565b612854565b61285382612a79565b5b9050919050565b5f6001821161286c575f90506128e4565b5f805b838110156128c7575f8587838151811061288c5761288b613f24565b5b602002602001015161289e9190614e2d565b905080816128ac9190614e6d565b836128b79190614029565b925050808060010191505061286f565b506001836128d59190613ff6565b816128e09190614d00565b9150505b9392505050565b5f805f90505f600190505b8381101561293c57600260018261290d9190614029565b826129189190614d30565b6129229190614d00565b8261292d9190614029565b915080806001019150506128f6565b5060018361294a9190613ff6565b81846129569190614d30565b6129609190614d00565b915050919050565b60605f600660058461297a9190614029565b6129849190614d00565b67ffffffffffffffff81111561299d5761299c613283565b5b6040519080825280602002602001820160405280156129cb5781602001602082028036833780820191505090505b5090505f8390505f5b5f821115612a6b576006821115612a2e5760068382806129f390614c8c565b935081518110612a0657612a05613f24565b5b602002602001019060ff16908160ff1681525050600682612a279190613ff6565b9150612a66565b81838280612a3b90614c8c565b935081518110612a4e57612a4d613f24565b5b602002602001019060ff16908160ff16815250505f91505b6129d4565b808352829350505050919050565b60608060068311612afd57600167ffffffffffffffff811115612a9f57612a9e613283565b5b604051908082528060200260200182016040528015612acd5781602001602082028036833780820191505090505b50905082815f81518110612ae457612ae3613f24565b5b602002602001019060ff16908160ff1681525050612e39565b600c8311612be057600267ffffffffffffffff811115612b2057612b1f613283565b5b604051908082528060200260200182016040528015612b4e5781602001602082028036833780820191505090505b509050600a8311612b60576005612b63565b60065b815f81518110612b7657612b75613f24565b5b602002602001019060ff16908160ff1681525050805f81518110612b9d57612b9c613f24565b5b602002602001015160ff1683612bb39190613ff6565b81600181518110612bc757612bc6613f24565b5b602002602001019060ff16908160ff1681525050612e38565b60128311612d3857600367ffffffffffffffff811115612c0357612c02613283565b5b604051908082528060200260200182016040528015612c315781602001602082028036833780820191505090505b5090506006815f81518110612c4957612c48613f24565b5b602002602001019060ff16908160ff168152505060068084612c6b9190613ff6565b11612c8e576002600684612c7f9190613ff6565b612c899190614d00565b612c91565b60065b81600181518110612ca557612ca4613f24565b5b602002602001019060ff16908160ff168152505080600181518110612ccd57612ccc613f24565b5b602002602001015160ff16815f81518110612ceb57612cea613f24565b5b602002602001015160ff1684612d019190613ff6565b612d0b9190613ff6565b81600281518110612d1f57612d1e613f24565b5b602002602001019060ff16908160ff1681525050612e37565b600467ffffffffffffffff811115612d5357612d52613283565b5b604051908082528060200260200182016040528015612d815781602001602082028036833780820191505090505b5090506005815f81518110612d9957612d98613f24565b5b602002602001019060ff16908160ff1681525050600581600181518110612dc357612dc2613f24565b5b602002602001019060ff16908160ff1681525050600581600281518110612ded57612dec613f24565b5b602002602001019060ff16908160ff1681525050600f83612e0e9190613ff6565b81600381518110612e2257612e21613f24565b5b602002602001019060ff16908160ff16815250505b5b5b80915050919050565b828054828255905f5260205f20908101928215612eb8579160200282015b82811115612eb7578251825f6101000a81548173ffffffffffffffffffffffffffffffffffffffff021916908373ffffffffffffffffffffffffffffffffffffffff16021790555091602001919060010190612e60565b5b509050612ec59190613001565b5090565b5080545f8255600302905f5260205f2090810190612ee7919061301c565b50565b828054828255905f5260205f20908101928215612f30579160200282015b82811115612f2f578251829081612f1f9190614aa1565b5091602001919060010190612f08565b5b509050612f3d919061305f565b5090565b5080545f8255905f5260205f2090810190612f5c9190613082565b50565b828054828255905f5260205f2090601f01602090048101928215612ff0579160200282015f5b83821115612fc257835183826101000a81548160ff021916908360ff16021790555092602001926001016020815f01049283019260010302612f85565b8015612fee5782816101000a81549060ff02191690556001016020815f01049283019260010302612fc2565b505b509050612ffd9190613001565b5090565b5b80821115613018575f815f905550600101613002565b5090565b5b8082111561305b575f8082015f61303491906130a7565b600182015f61304391906130a7565b600282015f61305291906130e4565b5060030161301d565b5090565b5b8082111561307e575f818161307591906130a7565b50600101613060565b5090565b5b808211156130a3575f8082015f61309a9190613102565b50600101613083565b5090565b5080546130b3906148dd565b5f825580601f106130c457506130e1565b601f0160209004905f5260205f20908101906130e09190613001565b5b50565b5080545f8255905f5260205f20908101906130ff919061305f565b50565b5080545f8255905f5260205f209081019061311d9190613001565b50565b5f73ffffffffffffffffffffffffffffffffffffffff82169050919050565b5f819050919050565b5f61316261315d61315884613120565b61313f565b613120565b9050919050565b5f61317382613148565b9050919050565b5f61318482613169565b9050919050565b6131948161317a565b82525050565b5f6020820190506131ad5f83018461318b565b92915050565b5f819050919050565b6131c5816131b3565b82525050565b5f6020820190506131de5f8301846131bc565b92915050565b5f604051905090565b5f80fd5b5f80fd5b6131fe816131b3565b8114613208575f80fd5b50565b5f81359050613219816131f5565b92915050565b5f805f60608486031215613236576132356131ed565b5b5f6132438682870161320b565b93505060206132548682870161320b565b92505060406132658682870161320b565b9150509250925092565b5f80fd5b5f601f19601f8301169050919050565b7f4e487b71000000000000000000000000000000000000000000000000000000005f52604160045260245ffd5b6132b982613273565b810181811067ffffffffffffffff821117156132d8576132d7613283565b5b80604052505050565b5f6132ea6131e4565b90506132f682826132b0565b919050565b5f67ffffffffffffffff82111561331557613314613283565b5b602082029050602081019050919050565b5f80fd5b5f61333482613120565b9050919050565b6133448161332a565b811461334e575f80fd5b50565b5f8135905061335f8161333b565b92915050565b5f613377613372846132fb565b6132e1565b9050808382526020820190506020840283018581111561339a57613399613326565b5b835b818110156133c357806133af8882613351565b84526020840193505060208101905061339c565b5050509392505050565b5f82601f8301126133e1576133e061326f565b5b81356133f1848260208601613365565b91505092915050565b5f805f8060808587031215613412576134116131ed565b5b5f61341f8782880161320b565b94505060206134308782880161320b565b93505060406134418782880161320b565b925050606085013567ffffffffffffffff811115613462576134616131f1565b5b61346e878288016133cd565b91505092959194509250565b5f805f8060808587031215613492576134916131ed565b5b5f61349f8782880161320b565b94505060206134b08782880161320b565b93505060406134c18782880161320b565b92505060606134d287828801613351565b91505092959194509250565b5f81519050919050565b5f82825260208201905092915050565b5f819050602082019050919050565b6135108161332a565b82525050565b5f6135218383613507565b60208301905092915050565b5f602082019050919050565b5f613543826134de565b61354d81856134e8565b9350613558836134f8565b805f5b8381101561358857815161356f8882613516565b975061357a8361352d565b92505060018101905061355b565b5085935050505092915050565b5f6020820190508181035f8301526135ad8184613539565b905092915050565b5f81519050919050565b5f82825260208201905092915050565b5f819050602082019050919050565b6135e7816131b3565b82525050565b5f6135f883836135de565b60208301905092915050565b5f602082019050919050565b5f61361a826135b5565b61362481856135bf565b935061362f836135cf565b805f5b8381101561365f57815161364688826135ed565b975061365183613604565b925050600181019050613632565b5085935050505092915050565b5f6040820190508181035f8301526136848185613610565b905081810360208301526136988184613610565b90509392505050565b5f6040820190508181035f8301526136b98185613539565b905081810360208301526136cd8184613610565b90509392505050565b5f602082840312156136eb576136ea6131ed565b5b5f6136f88482850161320b565b91505092915050565b5f67ffffffffffffffff82111561371b5761371a613283565b5b602082029050602081019050919050565b5f80fd5b5f80fd5b5f80fd5b5f67ffffffffffffffff82111561375257613751613283565b5b61375b82613273565b9050602081019050919050565b828183375f83830152505050565b5f61378861378384613738565b6132e1565b9050828152602081018484840111156137a4576137a3613734565b5b6137af848285613768565b509392505050565b5f82601f8301126137cb576137ca61326f565b5b81356137db848260208601613776565b91505092915050565b5f67ffffffffffffffff8211156137fe576137fd613283565b5b602082029050602081019050919050565b5f61382161381c846137e4565b6132e1565b9050808382526020820190506020840283018581111561384457613843613326565b5b835b8181101561388b57803567ffffffffffffffff8111156138695761386861326f565b5b80860161387689826137b7565b85526020850194505050602081019050613846565b5050509392505050565b5f82601f8301126138a9576138a861326f565b5b81356138b984826020860161380f565b91505092915050565b5f606082840312156138d7576138d661372c565b5b6138e160606132e1565b90505f82013567ffffffffffffffff811115613900576138ff613730565b5b61390c848285016137b7565b5f83015250602082013567ffffffffffffffff81111561392f5761392e613730565b5b61393b848285016137b7565b602083015250604082013567ffffffffffffffff81111561395f5761395e613730565b5b61396b84828501613895565b60408301525092915050565b5f61398961398484613701565b6132e1565b905080838252602082019050602084028301858111156139ac576139ab613326565b5b835b818110156139f357803567ffffffffffffffff8111156139d1576139d061326f565b5b8086016139de89826138c2565b855260208501945050506020810190506139ae565b5050509392505050565b5f82601f830112613a1157613a1061326f565b5b8135613a21848260208601613977565b91505092915050565b5f8060408385031215613a4057613a3f6131ed565b5b5f613a4d8582860161320b565b925050602083013567ffffffffffffffff811115613a6e57613a6d6131f1565b5b613a7a858286016139fd565b9150509250929050565b5f6040820190508181035f830152613a9c8185613539565b9050613aab60208301846131bc565b9392505050565b5f8060408385031215613ac857613ac76131ed565b5b5f613ad585828601613351565b9250506020613ae68582860161320b565b9150509250929050565b5f6020820190508181035f830152613b088184613610565b905092915050565b5f805f60608486031215613b2757613b266131ed565b5b5f613b3486828701613351565b9350506020613b458682870161320b565b9250506040613b568682870161320b565b9150509250925092565b5f81519050919050565b5f82825260208201905092915050565b5f819050602082019050919050565b5f81519050919050565b5f82825260208201905092915050565b8281835e5f83830152505050565b5f613bbb82613b89565b613bc58185613b93565b9350613bd5818560208601613ba3565b613bde81613273565b840191505092915050565b5f613bf48383613bb1565b905092915050565b5f602082019050919050565b5f613c1282613b60565b613c1c8185613b6a565b935083602082028501613c2e85613b7a565b805f5b85811015613c695784840389528151613c4a8582613be9565b9450613c5583613bfc565b925060208a01995050600181019050613c31565b50829750879550505050505092915050565b5f81519050919050565b5f82825260208201905092915050565b5f819050602082019050919050565b5f82825260208201905092915050565b5f613cbe82613b60565b613cc88185613ca4565b935083602082028501613cda85613b7a565b805f5b85811015613d155784840389528151613cf68582613be9565b9450613d0183613bfc565b925060208a01995050600181019050613cdd565b50829750879550505050505092915050565b5f613d328383613cb4565b905092915050565b5f602082019050919050565b5f613d5082613c7b565b613d5a8185613c85565b935083602082028501613d6c85613c95565b805f5b85811015613da75784840389528151613d888582613d27565b9450613d9383613d3a565b925060208a01995050600181019050613d6f565b50829750879550505050505092915050565b5f6060820190508181035f830152613dd18186613c08565b90508181036020830152613de58185613c08565b90508181036040830152613df98184613d46565b9050949350505050565b5f81519050919050565b5f82825260208201905092915050565b5f819050602082019050919050565b5f60ff82169050919050565b613e4181613e2c565b82525050565b5f613e528383613e38565b60208301905092915050565b5f602082019050919050565b5f613e7482613e03565b613e7e8185613e0d565b9350613e8983613e1d565b805f5b83811015613eb9578151613ea08882613e47565b9750613eab83613e5e565b925050600181019050613e8c565b5085935050505092915050565b5f6020820190508181035f830152613ede8184613e6a565b905092915050565b5f8060408385031215613efc57613efb6131ed565b5b5f613f098582860161320b565b9250506020613f1a8582860161320b565b9150509250929050565b7f4e487b71000000000000000000000000000000000000000000000000000000005f52603260045260245ffd5b5f82825260208201905092915050565b7f47726f757020646f6573206e6f742065786973740000000000000000000000005f82015250565b5f613f95601483613f51565b9150613fa082613f61565b602082019050919050565b5f6020820190508181035f830152613fc281613f89565b9050919050565b7f4e487b71000000000000000000000000000000000000000000000000000000005f52601160045260245ffd5b5f614000826131b3565b915061400b836131b3565b925082820390508181111561402357614022613fc9565b5b92915050565b5f614033826131b3565b915061403e836131b3565b925082820190508082111561405657614055613fc9565b5b92915050565b5f60608201905061406f5f8301866131bc565b61407c60208301856131bc565b818103604083015261408e8184613539565b9050949350505050565b7f52616e6b696e67206d7573742068617665203120746f2036206d656d626572735f82015250565b5f6140cc602083613f51565b91506140d782614098565b602082019050919050565b5f6020820190508181035f8301526140f9816140c0565b9050919050565b7f53656e646572206e6f742070617274206f66207468652067726f7570000000005f82015250565b5f614134601c83613f51565b915061413f82614100565b602082019050919050565b5f6020820190508181035f83015261416181614128565b9050919050565b7f52616e6b696e6720616c7265616479207375626d6974746564000000000000005f82015250565b5f61419c601983613f51565b91506141a782614168565b602082019050919050565b5f6020820190508181035f8301526141c981614190565b9050919050565b7f496e76616c6964206164647265737320696e2072616e6b696e670000000000005f82015250565b5f614204601a83613f51565b915061420f826141d0565b602082019050919050565b5f6020820190508181035f830152614231816141f8565b9050919050565b7f53656e646572206d75737420626520696e636c7564656420696e2074686520725f8201527f616e6b696e670000000000000000000000000000000000000000000000000000602082015250565b5f614292602683613f51565b915061429d82614238565b604082019050919050565b5f6020820190508181035f8301526142bf81614286565b9050919050565b5f6040820190506142d95f8301856131bc565b6142e660208301846131bc565b9392505050565b7f496e76616c69642067726f7570204944000000000000000000000000000000005f82015250565b5f614321601083613f51565b915061432c826142ed565b602082019050919050565b5f6020820190508181035f83015261434e81614315565b9050919050565b61435e8161332a565b82525050565b5f6020820190506143775f830184614355565b92915050565b5f61438f61438a84613738565b6132e1565b9050828152602081018484840111156143ab576143aa613734565b5b6143b6848285613ba3565b509392505050565b5f82601f8301126143d2576143d161326f565b5b81516143e284826020860161437d565b91505092915050565b5f805f60608486031215614402576144016131ed565b5b5f84015167ffffffffffffffff81111561441f5761441e6131f1565b5b61442b868287016143be565b935050602084015167ffffffffffffffff81111561444c5761444b6131f1565b5b614458868287016143be565b925050604084015167ffffffffffffffff811115614479576144786131f1565b5b614485868287016143be565b9150509250925092565b7f50726f66696c65206d75737420657869737420746f207375626d697420636f6e5f8201527f747269627574696f6e7300000000000000000000000000000000000000000000602082015250565b5f6144e9602a83613f51565b91506144f48261448f565b604082019050919050565b5f6020820190508181035f830152614516816144dd565b9050919050565b5f6040820190506145305f830185614355565b61453d60208301846131bc565b9392505050565b5f81519050614552816131f5565b92915050565b5f8115159050919050565b61456c81614558565b8114614576575f80fd5b50565b5f8151905061458781614563565b92915050565b5f8151905061459b8161333b565b92915050565b5f6145b36145ae846132fb565b6132e1565b905080838252602082019050602084028301858111156145d6576145d5613326565b5b835b818110156145ff57806145eb888261458d565b8452602084019350506020810190506145d8565b5050509392505050565b5f82601f83011261461d5761461c61326f565b5b815161462d8482602086016145a1565b91505092915050565b5f805f805f60a0868803121561464f5761464e6131ed565b5b5f61465c88828901614544565b955050602061466d88828901614544565b945050604061467e88828901614544565b935050606061468f88828901614579565b925050608086015167ffffffffffffffff8111156146b0576146af6131f1565b5b6146bc88828901614609565b9150509295509295909350565b7f55736572206e6f7420617070726f76656420696e207468697320636f6d6d756e5f8201527f6974790000000000000000000000000000000000000000000000000000000000602082015250565b5f614723602383613f51565b915061472e826146c9565b604082019050919050565b5f6020820190508181035f83015261475081614717565b9050919050565b7f4d757374207375626d6974206174206c65617374206f6e6520636f6e747269625f8201527f7574696f6e000000000000000000000000000000000000000000000000000000602082015250565b5f6147b1602583613f51565b91506147bc82614757565b604082019050919050565b5f6020820190508181035f8301526147de816147a5565b9050919050565b5f805f805f60a086880312156147fe576147fd6131ed565b5b5f86015167ffffffffffffffff81111561481b5761481a6131f1565b5b614827888289016143be565b955050602086015167ffffffffffffffff811115614848576148476131f1565b5b614854888289016143be565b945050604086015167ffffffffffffffff811115614875576148746131f1565b5b614881888289016143be565b93505060606148928882890161458d565b92505060806148a388828901614544565b9150509295509295909350565b7f4e487b71000000000000000000000000000000000000000000000000000000005f52602260045260245ffd5b5f60028204905060018216806148f457607f821691505b602082108103614907576149066148b0565b5b50919050565b5f819050815f5260205f209050919050565b5f6020601f8301049050919050565b5f82821b905092915050565b5f600883026149697fffffffffffffffffffffffffffffffffffffffffffffffffffffffffffffffff8261492e565b614973868361492e565b95508019841693508086168417925050509392505050565b5f6149a56149a061499b846131b3565b61313f565b6131b3565b9050919050565b5f819050919050565b6149be8361498b565b6149d26149ca826149ac565b84845461493a565b825550505050565b5f90565b6149e66149da565b6149f18184846149b5565b505050565b5b81811015614a1457614a095f826149de565b6001810190506149f7565b5050565b601f821115614a5957614a2a8161490d565b614a338461491f565b81016020851015614a42578190505b614a56614a4e8561491f565b8301826149f6565b50505b505050565b5f82821c905092915050565b5f614a795f1984600802614a5e565b1980831691505092915050565b5f614a918383614a6a565b9150826002028217905092915050565b614aaa82613b89565b67ffffffffffffffff811115614ac357614ac2613283565b5b614acd82546148dd565b614ad8828285614a18565b5f60209050601f831160018114614b09575f8415614af7578287015190505b614b018582614a86565b865550614b68565b601f198416614b178661490d565b5f5b82811015614b3e57848901518255600182019150602085019450602081019050614b19565b86831015614b5b5784890151614b57601f891682614a6a565b8355505b6001600288020188555050505b505050505050565b7f4e6f20636f6e747269627574696f6e7320666f756e6420666f722074686973205f8201527f7573657220696e207468697320636f6d6d756e69747900000000000000000000602082015250565b5f614bca603683613f51565b9150614bd582614b70565b604082019050919050565b5f6020820190508181035f830152614bf781614bbe565b9050919050565b7f4e6f20636f6e7472696275746f727320666f72207468652063757272656e74205f8201527f7765656b00000000000000000000000000000000000000000000000000000000602082015250565b5f614c58602483613f51565b9150614c6382614bfe565b604082019050919050565b5f6020820190508181035f830152614c8581614c4c565b9050919050565b5f614c96826131b3565b91507fffffffffffffffffffffffffffffffffffffffffffffffffffffffffffffffff8203614cc857614cc7613fc9565b5b600182019050919050565b7f4e487b71000000000000000000000000000000000000000000000000000000005f52601260045260245ffd5b5f614d0a826131b3565b9150614d15836131b3565b925082614d2557614d24614cd3565b5b828204905092915050565b5f614d3a826131b3565b9150614d45836131b3565b9250828202614d53816131b3565b91508282048414831517614d6a57614d69613fc9565b5b5092915050565b5f819050919050565b614d8b614d86826131b3565b614d71565b82525050565b5f614d9c8286614d7a565b602082019150614dac8285614d7a565b602082019150614dbc8284614d7a565b602082019150819050949350505050565b5f614dd7826131b3565b9150614de2836131b3565b925082614df257614df1614cd3565b5b828206905092915050565b5f614e07826131b3565b91505f8203614e1957614e18613fc9565b5b600182039050919050565b5f819050919050565b5f614e3782614e24565b9150614e4283614e24565b925082820390508181125f8412168282135f851215161715614e6757614e66613fc9565b5b92915050565b5f614e7782614e24565b9150614e8283614e24565b9250828202614e9081614e24565b91507f800000000000000000000000000000000000000000000000000000000000000084145f84121615614ec757614ec6613fc9565b5b8282058414831517614edc57614edb613fc9565b5b509291505056fea2646970667358221220fc896053d845285406e3ebb274b0de20b7c1b6e2d310a707831b3d469cfd04a964736f6c634300081a0033",
			"opcodes": "PUSH1 0x80 PUSH1 0x40 MSTORE CALLVALUE DUP1 ISZERO PUSH2 0xF JUMPI PUSH0 DUP1 REVERT JUMPDEST POP PUSH1 0x40 MLOAD PUSH2 0x5025 CODESIZE SUB DUP1 PUSH2 0x5025 DUP4 CODECOPY DUP2 DUP2 ADD PUSH1 0x40 MSTORE DUP2 ADD SWAP1 PUSH2 0x31 SWAP2 SWAP1 PUSH2 0xD4 JUMP JUMPDEST DUP1 PUSH0 DUP1 PUSH2 0x100 EXP DUP2 SLOAD DUP2 PUSH20 0xFFFFFFFFFFFFFFFFFFFFFFFFFFFFFFFFFFFFFFFF MUL NOT AND SWAP1 DUP4 PUSH20 0xFFFFFFFFFFFFFFFFFFFFFFFFFFFFFFFFFFFFFFFF AND MUL OR SWAP1 SSTORE POP POP PUSH2 0xFF JUMP JUMPDEST PUSH0 DUP1 REVERT JUMPDEST PUSH0 PUSH20 0xFFFFFFFFFFFFFFFFFFFFFFFFFFFFFFFFFFFFFFFF DUP3 AND SWAP1 POP SWAP2 SWAP1 POP JUMP JUMPDEST PUSH0 PUSH2 0xA3 DUP3 PUSH2 0x7A JUMP JUMPDEST SWAP1 POP SWAP2 SWAP1 POP JUMP JUMPDEST PUSH2 0xB3 DUP2 PUSH2 0x99 JUMP JUMPDEST DUP2 EQ PUSH2 0xBD JUMPI PUSH0 DUP1 REVERT JUMPDEST POP JUMP JUMPDEST PUSH0 DUP2 MLOAD SWAP1 POP PUSH2 0xCE DUP2 PUSH2 0xAA JUMP JUMPDEST SWAP3 SWAP2 POP POP JUMP JUMPDEST PUSH0 PUSH1 0x20 DUP3 DUP5 SUB SLT ISZERO PUSH2 0xE9 JUMPI PUSH2 0xE8 PUSH2 0x76 JUMP JUMPDEST JUMPDEST PUSH0 PUSH2 0xF6 DUP5 DUP3 DUP6 ADD PUSH2 0xC0 JUMP JUMPDEST SWAP2 POP POP SWAP3 SWAP2 POP POP JUMP JUMPDEST PUSH2 0x4F19 DUP1 PUSH2 0x10C PUSH0 CODECOPY PUSH0 RETURN INVALID PUSH1 0x80 PUSH1 0x40 MSTORE CALLVALUE DUP1 ISZERO PUSH2 0xF JUMPI PUSH0 DUP1 REVERT JUMPDEST POP PUSH1 0x4 CALLDATASIZE LT PUSH2 0xFE JUMPI PUSH0 CALLDATALOAD PUSH1 0xE0 SHR DUP1 PUSH4 0x3722A0E8 GT PUSH2 0x95 JUMPI DUP1 PUSH4 0x690EC8D1 GT PUSH2 0x64 JUMPI DUP1 PUSH4 0x690EC8D1 EQ PUSH2 0x2D5 JUMPI DUP1 PUSH4 0x7331FA95 EQ PUSH2 0x2F1 JUMPI DUP1 PUSH4 0x771197D8 EQ PUSH2 0x321 JUMPI DUP1 PUSH4 0x8EC2C82B EQ PUSH2 0x33F JUMPI PUSH2 0xFE JUMP JUMPDEST DUP1 PUSH4 0x3722A0E8 EQ PUSH2 0x226 JUMPI DUP1 PUSH4 0x415B5D7D EQ PUSH2 0x242 JUMPI DUP1 PUSH4 0x4FE038A2 EQ PUSH2 0x273 JUMPI DUP1 PUSH4 0x667F0E63 EQ PUSH2 0x2A3 JUMPI PUSH2 0xFE JUMP JUMPDEST DUP1 PUSH4 0x2B3DFFEB GT PUSH2 0xD1 JUMPI DUP1 PUSH4 0x2B3DFFEB EQ PUSH2 0x176 JUMPI DUP1 PUSH4 0x32A41F3E EQ PUSH2 0x1A6 JUMPI DUP1 PUSH4 0x32A7ADB0 EQ PUSH2 0x1C5 JUMPI DUP1 PUSH4 0x36CC8130 EQ PUSH2 0x1F6 JUMPI PUSH2 0xFE JUMP JUMPDEST DUP1 PUSH4 0x6428F02 EQ PUSH2 0x102 JUMPI DUP1 PUSH4 0x6545A93 EQ PUSH2 0x120 JUMPI DUP1 PUSH4 0x17DD9E73 EQ PUSH2 0x13E JUMPI DUP1 PUSH4 0x2A00BBF2 EQ PUSH2 0x15A JUMPI JUMPDEST PUSH0 DUP1 REVERT JUMPDEST PUSH2 0x10A PUSH2 0x36F JUMP JUMPDEST PUSH1 0x40 MLOAD PUSH2 0x117 SWAP2 SWAP1 PUSH2 0x319A JUMP JUMPDEST PUSH1 0x40 MLOAD DUP1 SWAP2 SUB SWAP1 RETURN JUMPDEST PUSH2 0x128 PUSH2 0x392 JUMP JUMPDEST PUSH1 0x40 MLOAD PUSH2 0x135 SWAP2 SWAP1 PUSH2 0x31CB JUMP JUMPDEST PUSH1 0x40 MLOAD DUP1 SWAP2 SUB SWAP1 RETURN JUMPDEST PUSH2 0x158 PUSH1 0x4 DUP1 CALLDATASIZE SUB DUP2 ADD SWAP1 PUSH2 0x153 SWAP2 SWAP1 PUSH2 0x321F JUMP JUMPDEST PUSH2 0x39E JUMP JUMPDEST STOP JUMPDEST PUSH2 0x174 PUSH1 0x4 DUP1 CALLDATASIZE SUB DUP2 ADD SWAP1 PUSH2 0x16F SWAP2 SWAP1 PUSH2 0x33FA JUMP JUMPDEST PUSH2 0x807 JUMP JUMPDEST STOP JUMPDEST PUSH2 0x190 PUSH1 0x4 DUP1 CALLDATASIZE SUB DUP2 ADD SWAP1 PUSH2 0x18B SWAP2 SWAP1 PUSH2 0x347A JUMP JUMPDEST PUSH2 0xB50 JUMP JUMPDEST PUSH1 0x40 MLOAD PUSH2 0x19D SWAP2 SWAP1 PUSH2 0x3595 JUMP JUMPDEST PUSH1 0x40 MLOAD DUP1 SWAP2 SUB SWAP1 RETURN JUMPDEST PUSH2 0x1AE PUSH2 0xCAB JUMP JUMPDEST PUSH1 0x40 MLOAD PUSH2 0x1BC SWAP3 SWAP2 SWAP1 PUSH2 0x366C JUMP JUMPDEST PUSH1 0x40 MLOAD DUP1 SWAP2 SUB SWAP1 RETURN JUMPDEST PUSH2 0x1DF PUSH1 0x4 DUP1 CALLDATASIZE SUB DUP2 ADD SWAP1 PUSH2 0x1DA SWAP2 SWAP1 PUSH2 0x321F JUMP JUMPDEST PUSH2 0xDD0 JUMP JUMPDEST PUSH1 0x40 MLOAD PUSH2 0x1ED SWAP3 SWAP2 SWAP1 PUSH2 0x36A1 JUMP JUMPDEST PUSH1 0x40 MLOAD DUP1 SWAP2 SUB SWAP1 RETURN JUMPDEST PUSH2 0x210 PUSH1 0x4 DUP1 CALLDATASIZE SUB DUP2 ADD SWAP1 PUSH2 0x20B SWAP2 SWAP1 PUSH2 0x36D6 JUMP JUMPDEST PUSH2 0xFAC JUMP JUMPDEST PUSH1 0x40 MLOAD PUSH2 0x21D SWAP2 SWAP1 PUSH2 0x3595 JUMP JUMPDEST PUSH1 0x40 MLOAD DUP1 SWAP2 SUB SWAP1 RETURN JUMPDEST PUSH2 0x240 PUSH1 0x4 DUP1 CALLDATASIZE SUB DUP2 ADD SWAP1 PUSH2 0x23B SWAP2 SWAP1 PUSH2 0x3A2A JUMP JUMPDEST PUSH2 0x109C JUMP JUMPDEST STOP JUMPDEST PUSH2 0x25C PUSH1 0x4 DUP1 CALLDATASIZE SUB DUP2 ADD SWAP1 PUSH2 0x257 SWAP2 SWAP1 PUSH2 0x321F JUMP JUMPDEST PUSH2 0x15E9 JUMP JUMPDEST PUSH1 0x40 MLOAD PUSH2 0x26A SWAP3 SWAP2 SWAP1 PUSH2 0x3A84 JUMP JUMPDEST PUSH1 0x40 MLOAD DUP1 SWAP2 SUB SWAP1 RETURN JUMPDEST PUSH2 0x28D PUSH1 0x4 DUP1 CALLDATASIZE SUB DUP2 ADD SWAP1 PUSH2 0x288 SWAP2 SWAP1 PUSH2 0x3AB2 JUMP JUMPDEST PUSH2 0x16B8 JUMP JUMPDEST PUSH1 0x40 MLOAD PUSH2 0x29A SWAP2 SWAP1 PUSH2 0x3AF0 JUMP JUMPDEST PUSH1 0x40 MLOAD DUP1 SWAP2 SUB SWAP1 RETURN JUMPDEST PUSH2 0x2BD PUSH1 0x4 DUP1 CALLDATASIZE SUB DUP2 ADD SWAP1 PUSH2 0x2B8 SWAP2 SWAP1 PUSH2 0x3B10 JUMP JUMPDEST PUSH2 0x17EE JUMP JUMPDEST PUSH1 0x40 MLOAD PUSH2 0x2CC SWAP4 SWAP3 SWAP2 SWAP1 PUSH2 0x3DB9 JUMP JUMPDEST PUSH1 0x40 MLOAD DUP1 SWAP2 SUB SWAP1 RETURN JUMPDEST PUSH2 0x2EF PUSH1 0x4 DUP1 CALLDATASIZE SUB DUP2 ADD SWAP1 PUSH2 0x2EA SWAP2 SWAP1 PUSH2 0x36D6 JUMP JUMPDEST PUSH2 0x1CF9 JUMP JUMPDEST STOP JUMPDEST PUSH2 0x30B PUSH1 0x4 DUP1 CALLDATASIZE SUB DUP2 ADD SWAP1 PUSH2 0x306 SWAP2 SWAP1 PUSH2 0x3AB2 JUMP JUMPDEST PUSH2 0x2092 JUMP JUMPDEST PUSH1 0x40 MLOAD PUSH2 0x318 SWAP2 SWAP1 PUSH2 0x31CB JUMP JUMPDEST PUSH1 0x40 MLOAD DUP1 SWAP2 SUB SWAP1 RETURN JUMPDEST PUSH2 0x329 PUSH2 0x20B7 JUMP JUMPDEST PUSH1 0x40 MLOAD PUSH2 0x336 SWAP2 SWAP1 PUSH2 0x3EC6 JUMP JUMPDEST PUSH1 0x40 MLOAD DUP1 SWAP2 SUB SWAP1 RETURN JUMPDEST PUSH2 0x359 PUSH1 0x4 DUP1 CALLDATASIZE SUB DUP2 ADD SWAP1 PUSH2 0x354 SWAP2 SWAP1 PUSH2 0x3EE6 JUMP JUMPDEST PUSH2 0x2131 JUMP JUMPDEST PUSH1 0x40 MLOAD PUSH2 0x366 SWAP2 SWAP1 PUSH2 0x3595 JUMP JUMPDEST PUSH1 0x40 MLOAD DUP1 SWAP2 SUB SWAP1 RETURN JUMPDEST PUSH0 DUP1 SLOAD SWAP1 PUSH2 0x100 EXP SWAP1 DIV PUSH20 0xFFFFFFFFFFFFFFFFFFFFFFFFFFFFFFFFFFFFFFFF AND DUP2 JUMP JUMPDEST PUSH0 PUSH1 0x2 DUP1 SLOAD SWAP1 POP SWAP1 POP SWAP1 JUMP JUMPDEST PUSH0 PUSH1 0x2 DUP3 DUP2 SLOAD DUP2 LT PUSH2 0x3B3 JUMPI PUSH2 0x3B2 PUSH2 0x3F24 JUMP JUMPDEST JUMPDEST SWAP1 PUSH0 MSTORE PUSH1 0x20 PUSH0 KECCAK256 ADD SWAP1 POP PUSH0 DUP2 PUSH0 ADD DUP1 SLOAD SWAP1 POP GT PUSH2 0x405 JUMPI PUSH1 0x40 MLOAD PUSH32 0x8C379A000000000000000000000000000000000000000000000000000000000 DUP2 MSTORE PUSH1 0x4 ADD PUSH2 0x3FC SWAP1 PUSH2 0x3FAB JUMP JUMPDEST PUSH1 0x40 MLOAD DUP1 SWAP2 SUB SWAP1 REVERT JUMPDEST PUSH0 DUP2 PUSH0 ADD DUP1 SLOAD SWAP1 POP SWAP1 POP PUSH0 DUP2 PUSH8 0xFFFFFFFFFFFFFFFF DUP2 GT ISZERO PUSH2 0x42A JUMPI PUSH2 0x429 PUSH2 0x3283 JUMP JUMPDEST JUMPDEST PUSH1 0x40 MLOAD SWAP1 DUP1 DUP3 MSTORE DUP1 PUSH1 0x20 MUL PUSH1 0x20 ADD DUP3 ADD PUSH1 0x40 MSTORE DUP1 ISZERO PUSH2 0x458 JUMPI DUP2 PUSH1 0x20 ADD PUSH1 0x20 DUP3 MUL DUP1 CALLDATASIZE DUP4 CALLDATACOPY DUP1 DUP3 ADD SWAP2 POP POP SWAP1 POP JUMPDEST POP SWAP1 POP PUSH0 DUP3 PUSH8 0xFFFFFFFFFFFFFFFF DUP2 GT ISZERO PUSH2 0x476 JUMPI PUSH2 0x475 PUSH2 0x3283 JUMP JUMPDEST JUMPDEST PUSH1 0x40 MLOAD SWAP1 DUP1 DUP3 MSTORE DUP1 PUSH1 0x20 MUL PUSH1 0x20 ADD DUP3 ADD PUSH1 0x40 MSTORE DUP1 ISZERO PUSH2 0x4A4 JUMPI DUP2 PUSH1 0x20 ADD PUSH1 0x20 DUP3 MUL DUP1 CALLDATASIZE DUP4 CALLDATACOPY DUP1 DUP3 ADD SWAP2 POP POP SWAP1 POP JUMPDEST POP SWAP1 POP PUSH0 JUMPDEST DUP4 DUP2 LT ISZERO PUSH2 0x58D JUMPI DUP5 PUSH0 ADD DUP2 DUP2 SLOAD DUP2 LT PUSH2 0x4C6 JUMPI PUSH2 0x4C5 PUSH2 0x3F24 JUMP JUMPDEST JUMPDEST SWAP1 PUSH0 MSTORE PUSH1 0x20 PUSH0 KECCAK256 ADD PUSH0 SWAP1 SLOAD SWAP1 PUSH2 0x100 EXP SWAP1 DIV PUSH20 0xFFFFFFFFFFFFFFFFFFFFFFFFFFFFFFFFFFFFFFFF AND DUP4 DUP3 DUP2 MLOAD DUP2 LT PUSH2 0x501 JUMPI PUSH2 0x500 PUSH2 0x3F24 JUMP JUMPDEST JUMPDEST PUSH1 0x20 MUL PUSH1 0x20 ADD ADD SWAP1 PUSH20 0xFFFFFFFFFFFFFFFFFFFFFFFFFFFFFFFFFFFFFFFF AND SWAP1 DUP2 PUSH20 0xFFFFFFFFFFFFFFFFFFFFFFFFFFFFFFFFFFFFFFFF AND DUP2 MSTORE POP POP PUSH2 0x561 DUP9 DUP9 DUP9 DUP7 DUP6 DUP2 MLOAD DUP2 LT PUSH2 0x554 JUMPI PUSH2 0x553 PUSH2 0x3F24 JUMP JUMPDEST JUMPDEST PUSH1 0x20 MUL PUSH1 0x20 ADD ADD MLOAD PUSH2 0x21DD JUMP JUMPDEST DUP3 DUP3 DUP2 MLOAD DUP2 LT PUSH2 0x574 JUMPI PUSH2 0x573 PUSH2 0x3F24 JUMP JUMPDEST JUMPDEST PUSH1 0x20 MUL PUSH1 0x20 ADD ADD DUP2 DUP2 MSTORE POP POP DUP1 DUP1 PUSH1 0x1 ADD SWAP2 POP POP PUSH2 0x4A9 JUMP JUMPDEST POP PUSH0 JUMPDEST PUSH1 0x1 DUP5 PUSH2 0x59D SWAP2 SWAP1 PUSH2 0x3FF6 JUMP JUMPDEST DUP2 LT ISZERO PUSH2 0x755 JUMPI PUSH0 PUSH1 0x1 DUP3 PUSH2 0x5B2 SWAP2 SWAP1 PUSH2 0x4029 JUMP JUMPDEST SWAP1 POP JUMPDEST DUP5 DUP2 LT ISZERO PUSH2 0x747 JUMPI DUP3 DUP2 DUP2 MLOAD DUP2 LT PUSH2 0x5D0 JUMPI PUSH2 0x5CF PUSH2 0x3F24 JUMP JUMPDEST JUMPDEST PUSH1 0x20 MUL PUSH1 0x20 ADD ADD MLOAD DUP4 DUP4 DUP2 MLOAD DUP2 LT PUSH2 0x5EB JUMPI PUSH2 0x5EA PUSH2 0x3F24 JUMP JUMPDEST JUMPDEST PUSH1 0x20 MUL PUSH1 0x20 ADD ADD MLOAD LT ISZERO PUSH2 0x73A JUMPI DUP3 DUP2 DUP2 MLOAD DUP2 LT PUSH2 0x60C JUMPI PUSH2 0x60B PUSH2 0x3F24 JUMP JUMPDEST JUMPDEST PUSH1 0x20 MUL PUSH1 0x20 ADD ADD MLOAD DUP4 DUP4 DUP2 MLOAD DUP2 LT PUSH2 0x627 JUMPI PUSH2 0x626 PUSH2 0x3F24 JUMP JUMPDEST JUMPDEST PUSH1 0x20 MUL PUSH1 0x20 ADD ADD MLOAD DUP5 DUP5 DUP2 MLOAD DUP2 LT PUSH2 0x642 JUMPI PUSH2 0x641 PUSH2 0x3F24 JUMP JUMPDEST JUMPDEST PUSH1 0x20 MUL PUSH1 0x20 ADD ADD DUP6 DUP5 DUP2 MLOAD DUP2 LT PUSH2 0x65C JUMPI PUSH2 0x65B PUSH2 0x3F24 JUMP JUMPDEST JUMPDEST PUSH1 0x20 MUL PUSH1 0x20 ADD ADD DUP3 DUP2 MSTORE POP DUP3 DUP2 MSTORE POP POP POP DUP4 DUP2 DUP2 MLOAD DUP2 LT PUSH2 0x680 JUMPI PUSH2 0x67F PUSH2 0x3F24 JUMP JUMPDEST JUMPDEST PUSH1 0x20 MUL PUSH1 0x20 ADD ADD MLOAD DUP5 DUP4 DUP2 MLOAD DUP2 LT PUSH2 0x69B JUMPI PUSH2 0x69A PUSH2 0x3F24 JUMP JUMPDEST JUMPDEST PUSH1 0x20 MUL PUSH1 0x20 ADD ADD MLOAD DUP6 DUP5 DUP2 MLOAD DUP2 LT PUSH2 0x6B6 JUMPI PUSH2 0x6B5 PUSH2 0x3F24 JUMP JUMPDEST JUMPDEST PUSH1 0x20 MUL PUSH1 0x20 ADD ADD DUP7 DUP5 DUP2 MLOAD DUP2 LT PUSH2 0x6D0 JUMPI PUSH2 0x6CF PUSH2 0x3F24 JUMP JUMPDEST JUMPDEST PUSH1 0x20 MUL PUSH1 0x20 ADD ADD DUP3 PUSH20 0xFFFFFFFFFFFFFFFFFFFFFFFFFFFFFFFFFFFFFFFF AND PUSH20 0xFFFFFFFFFFFFFFFFFFFFFFFFFFFFFFFFFFFFFFFF AND DUP2 MSTORE POP DUP3 PUSH20 0xFFFFFFFFFFFFFFFFFFFFFFFFFFFFFFFFFFFFFFFF AND PUSH20 0xFFFFFFFFFFFFFFFFFFFFFFFFFFFFFFFFFFFFFFFF AND DUP2 MSTORE POP POP POP JUMPDEST DUP1 DUP1 PUSH1 0x1 ADD SWAP2 POP POP PUSH2 0x5B5 JUMP JUMPDEST POP DUP1 DUP1 PUSH1 0x1 ADD SWAP2 POP POP PUSH2 0x590 JUMP JUMPDEST POP PUSH1 0x40 MLOAD DUP1 PUSH1 0x40 ADD PUSH1 0x40 MSTORE DUP1 DUP4 DUP2 MSTORE PUSH1 0x20 ADD TIMESTAMP DUP2 MSTORE POP PUSH1 0x6 PUSH0 DUP10 DUP2 MSTORE PUSH1 0x20 ADD SWAP1 DUP2 MSTORE PUSH1 0x20 ADD PUSH0 KECCAK256 PUSH0 DUP9 DUP2 MSTORE PUSH1 0x20 ADD SWAP1 DUP2 MSTORE PUSH1 0x20 ADD PUSH0 KECCAK256 PUSH0 DUP8 DUP2 MSTORE PUSH1 0x20 ADD SWAP1 DUP2 MSTORE PUSH1 0x20 ADD PUSH0 KECCAK256 PUSH0 DUP3 ADD MLOAD DUP2 PUSH0 ADD SWAP1 DUP1 MLOAD SWAP1 PUSH1 0x20 ADD SWAP1 PUSH2 0x7B4 SWAP3 SWAP2 SWAP1 PUSH2 0x2E42 JUMP JUMPDEST POP PUSH1 0x20 DUP3 ADD MLOAD DUP2 PUSH1 0x1 ADD SSTORE SWAP1 POP POP DUP7 PUSH32 0xC1D9BCC1034946367C8E06A2D57E877F927ADBC73AA85E18D5B52296401852AE DUP8 DUP8 DUP6 PUSH1 0x40 MLOAD PUSH2 0x7F6 SWAP4 SWAP3 SWAP2 SWAP1 PUSH2 0x405C JUMP JUMPDEST PUSH1 0x40 MLOAD DUP1 SWAP2 SUB SWAP1 LOG2 POP POP POP POP POP POP POP JUMP JUMPDEST PUSH0 DUP2 MLOAD GT DUP1 ISZERO PUSH2 0x819 JUMPI POP PUSH1 0x6 DUP2 MLOAD GT ISZERO JUMPDEST PUSH2 0x858 JUMPI PUSH1 0x40 MLOAD PUSH32 0x8C379A000000000000000000000000000000000000000000000000000000000 DUP2 MSTORE PUSH1 0x4 ADD PUSH2 0x84F SWAP1 PUSH2 0x40E2 JUMP JUMPDEST PUSH1 0x40 MLOAD DUP1 SWAP2 SUB SWAP1 REVERT JUMPDEST PUSH2 0x862 DUP3 CALLER PUSH2 0x2506 JUMP JUMPDEST PUSH2 0x8A1 JUMPI PUSH1 0x40 MLOAD PUSH32 0x8C379A000000000000000000000000000000000000000000000000000000000 DUP2 MSTORE PUSH1 0x4 ADD PUSH2 0x898 SWAP1 PUSH2 0x414A JUMP JUMPDEST PUSH1 0x40 MLOAD DUP1 SWAP2 SUB SWAP1 REVERT JUMPDEST PUSH0 PUSH1 0x5 PUSH0 DUP7 DUP2 MSTORE PUSH1 0x20 ADD SWAP1 DUP2 MSTORE PUSH1 0x20 ADD PUSH0 KECCAK256 PUSH0 DUP6 DUP2 MSTORE PUSH1 0x20 ADD SWAP1 DUP2 MSTORE PUSH1 0x20 ADD PUSH0 KECCAK256 PUSH0 DUP5 DUP2 MSTORE PUSH1 0x20 ADD SWAP1 DUP2 MSTORE PUSH1 0x20 ADD PUSH0 KECCAK256 PUSH0 CALLER PUSH20 0xFFFFFFFFFFFFFFFFFFFFFFFFFFFFFFFFFFFFFFFF AND PUSH20 0xFFFFFFFFFFFFFFFFFFFFFFFFFFFFFFFFFFFFFFFF AND DUP2 MSTORE PUSH1 0x20 ADD SWAP1 DUP2 MSTORE PUSH1 0x20 ADD PUSH0 KECCAK256 PUSH0 ADD DUP1 SLOAD SWAP1 POP EQ PUSH2 0x952 JUMPI PUSH1 0x40 MLOAD PUSH32 0x8C379A000000000000000000000000000000000000000000000000000000000 DUP2 MSTORE PUSH1 0x4 ADD PUSH2 0x949 SWAP1 PUSH2 0x41B2 JUMP JUMPDEST PUSH1 0x40 MLOAD DUP1 SWAP2 SUB SWAP1 REVERT JUMPDEST PUSH0 DUP1 JUMPDEST DUP3 MLOAD DUP2 LT ISZERO PUSH2 0xA20 JUMPI PUSH2 0x982 DUP5 DUP5 DUP4 DUP2 MLOAD DUP2 LT PUSH2 0x975 JUMPI PUSH2 0x974 PUSH2 0x3F24 JUMP JUMPDEST JUMPDEST PUSH1 0x20 MUL PUSH1 0x20 ADD ADD MLOAD PUSH2 0x2506 JUMP JUMPDEST PUSH2 0x9C1 JUMPI PUSH1 0x40 MLOAD PUSH32 0x8C379A000000000000000000000000000000000000000000000000000000000 DUP2 MSTORE PUSH1 0x4 ADD PUSH2 0x9B8 SWAP1 PUSH2 0x421A JUMP JUMPDEST PUSH1 0x40 MLOAD DUP1 SWAP2 SUB SWAP1 REVERT JUMPDEST CALLER PUSH20 0xFFFFFFFFFFFFFFFFFFFFFFFFFFFFFFFFFFFFFFFF AND DUP4 DUP3 DUP2 MLOAD DUP2 LT PUSH2 0x9EB JUMPI PUSH2 0x9EA PUSH2 0x3F24 JUMP JUMPDEST JUMPDEST PUSH1 0x20 MUL PUSH1 0x20 ADD ADD MLOAD PUSH20 0xFFFFFFFFFFFFFFFFFFFFFFFFFFFFFFFFFFFFFFFF AND SUB PUSH2 0xA13 JUMPI PUSH1 0x1 SWAP2 POP JUMPDEST DUP1 DUP1 PUSH1 0x1 ADD SWAP2 POP POP PUSH2 0x955 JUMP JUMPDEST POP DUP1 PUSH2 0xA61 JUMPI PUSH1 0x40 MLOAD PUSH32 0x8C379A000000000000000000000000000000000000000000000000000000000 DUP2 MSTORE PUSH1 0x4 ADD PUSH2 0xA58 SWAP1 PUSH2 0x42A8 JUMP JUMPDEST PUSH1 0x40 MLOAD DUP1 SWAP2 SUB SWAP1 REVERT JUMPDEST PUSH1 0x40 MLOAD DUP1 PUSH1 0x20 ADD PUSH1 0x40 MSTORE DUP1 DUP4 DUP2 MSTORE POP PUSH1 0x5 PUSH0 DUP8 DUP2 MSTORE PUSH1 0x20 ADD SWAP1 DUP2 MSTORE PUSH1 0x20 ADD PUSH0 KECCAK256 PUSH0 DUP7 DUP2 MSTORE PUSH1 0x20 ADD SWAP1 DUP2 MSTORE PUSH1 0x20 ADD PUSH0 KECCAK256 PUSH0 DUP6 DUP2 MSTORE PUSH1 0x20 ADD SWAP1 DUP2 MSTORE PUSH1 0x20 ADD PUSH0 KECCAK256 PUSH0 CALLER PUSH20 0xFFFFFFFFFFFFFFFFFFFFFFFFFFFFFFFFFFFFFFFF AND PUSH20 0xFFFFFFFFFFFFFFFFFFFFFFFFFFFFFFFFFFFFFFFF AND DUP2 MSTORE PUSH1 0x20 ADD SWAP1 DUP2 MSTORE PUSH1 0x20 ADD PUSH0 KECCAK256 PUSH0 DUP3 ADD MLOAD DUP2 PUSH0 ADD SWAP1 DUP1 MLOAD SWAP1 PUSH1 0x20 ADD SWAP1 PUSH2 0xAF4 SWAP3 SWAP2 SWAP1 PUSH2 0x2E42 JUMP JUMPDEST POP SWAP1 POP POP CALLER PUSH20 0xFFFFFFFFFFFFFFFFFFFFFFFFFFFFFFFFFFFFFFFF AND DUP6 PUSH32 0xE2D0F4A25C2B0CC7CCDA020BCD4293DCEFFB51708B88B9C58EF71A0AB96B5E16 DUP7 DUP7 PUSH1 0x40 MLOAD PUSH2 0xB41 SWAP3 SWAP2 SWAP1 PUSH2 0x42C6 JUMP JUMPDEST PUSH1 0x40 MLOAD DUP1 SWAP2 SUB SWAP1 LOG3 POP POP POP POP POP JUMP JUMPDEST PUSH1 0x60 PUSH0 PUSH1 0x5 PUSH0 DUP8 DUP2 MSTORE PUSH1 0x20 ADD SWAP1 DUP2 MSTORE PUSH1 0x20 ADD PUSH0 KECCAK256 PUSH0 DUP7 DUP2 MSTORE PUSH1 0x20 ADD SWAP1 DUP2 MSTORE PUSH1 0x20 ADD PUSH0 KECCAK256 PUSH0 DUP6 DUP2 MSTORE PUSH1 0x20 ADD SWAP1 DUP2 MSTORE PUSH1 0x20 ADD PUSH0 KECCAK256 PUSH0 DUP5 PUSH20 0xFFFFFFFFFFFFFFFFFFFFFFFFFFFFFFFFFFFFFFFF AND PUSH20 0xFFFFFFFFFFFFFFFFFFFFFFFFFFFFFFFFFFFFFFFF AND DUP2 MSTORE PUSH1 0x20 ADD SWAP1 DUP2 MSTORE PUSH1 0x20 ADD PUSH0 KECCAK256 SWAP1 POP PUSH0 DUP2 PUSH0 ADD DUP1 SLOAD SWAP1 POP GT PUSH2 0xC1A JUMPI PUSH0 PUSH8 0xFFFFFFFFFFFFFFFF DUP2 GT ISZERO PUSH2 0xBE6 JUMPI PUSH2 0xBE5 PUSH2 0x3283 JUMP JUMPDEST JUMPDEST PUSH1 0x40 MLOAD SWAP1 DUP1 DUP3 MSTORE DUP1 PUSH1 0x20 MUL PUSH1 0x20 ADD DUP3 ADD PUSH1 0x40 MSTORE DUP1 ISZERO PUSH2 0xC14 JUMPI DUP2 PUSH1 0x20 ADD PUSH1 0x20 DUP3 MUL DUP1 CALLDATASIZE DUP4 CALLDATACOPY DUP1 DUP3 ADD SWAP2 POP POP SWAP1 POP JUMPDEST POP PUSH2 0xCA0 JUMP JUMPDEST DUP1 PUSH0 ADD DUP1 SLOAD DUP1 PUSH1 0x20 MUL PUSH1 0x20 ADD PUSH1 0x40 MLOAD SWAP1 DUP2 ADD PUSH1 0x40 MSTORE DUP1 SWAP3 SWAP2 SWAP1 DUP2 DUP2 MSTORE PUSH1 0x20 ADD DUP3 DUP1 SLOAD DUP1 ISZERO PUSH2 0xC9A JUMPI PUSH1 0x20 MUL DUP3 ADD SWAP2 SWAP1 PUSH0 MSTORE PUSH1 0x20 PUSH0 KECCAK256 SWAP1 JUMPDEST DUP2 PUSH0 SWAP1 SLOAD SWAP1 PUSH2 0x100 EXP SWAP1 DIV PUSH20 0xFFFFFFFFFFFFFFFFFFFFFFFFFFFFFFFFFFFFFFFF AND PUSH20 0xFFFFFFFFFFFFFFFFFFFFFFFFFFFFFFFFFFFFFFFF AND DUP2 MSTORE PUSH1 0x20 ADD SWAP1 PUSH1 0x1 ADD SWAP1 DUP1 DUP4 GT PUSH2 0xC51 JUMPI JUMPDEST POP POP POP POP POP JUMPDEST SWAP2 POP POP SWAP5 SWAP4 POP POP POP POP JUMP JUMPDEST PUSH1 0x60 DUP1 PUSH1 0x2 DUP1 SLOAD SWAP1 POP PUSH8 0xFFFFFFFFFFFFFFFF DUP2 GT ISZERO PUSH2 0xCCD JUMPI PUSH2 0xCCC PUSH2 0x3283 JUMP JUMPDEST JUMPDEST PUSH1 0x40 MLOAD SWAP1 DUP1 DUP3 MSTORE DUP1 PUSH1 0x20 MUL PUSH1 0x20 ADD DUP3 ADD PUSH1 0x40 MSTORE DUP1 ISZERO PUSH2 0xCFB JUMPI DUP2 PUSH1 0x20 ADD PUSH1 0x20 DUP3 MUL DUP1 CALLDATASIZE DUP4 CALLDATACOPY DUP1 DUP3 ADD SWAP2 POP POP SWAP1 POP JUMPDEST POP SWAP2 POP PUSH1 0x2 DUP1 SLOAD SWAP1 POP PUSH8 0xFFFFFFFFFFFFFFFF DUP2 GT ISZERO PUSH2 0xD1D JUMPI PUSH2 0xD1C PUSH2 0x3283 JUMP JUMPDEST JUMPDEST PUSH1 0x40 MLOAD SWAP1 DUP1 DUP3 MSTORE DUP1 PUSH1 0x20 MUL PUSH1 0x20 ADD DUP3 ADD PUSH1 0x40 MSTORE DUP1 ISZERO PUSH2 0xD4B JUMPI DUP2 PUSH1 0x20 ADD PUSH1 0x20 DUP3 MUL DUP1 CALLDATASIZE DUP4 CALLDATACOPY DUP1 DUP3 ADD SWAP2 POP POP SWAP1 POP JUMPDEST POP SWAP1 POP PUSH0 JUMPDEST PUSH1 0x2 DUP1 SLOAD SWAP1 POP DUP2 LT ISZERO PUSH2 0xDCB JUMPI DUP1 DUP4 DUP3 DUP2 MLOAD DUP2 LT PUSH2 0xD71 JUMPI PUSH2 0xD70 PUSH2 0x3F24 JUMP JUMPDEST JUMPDEST PUSH1 0x20 MUL PUSH1 0x20 ADD ADD DUP2 DUP2 MSTORE POP POP PUSH1 0x2 DUP2 DUP2 SLOAD DUP2 LT PUSH2 0xD91 JUMPI PUSH2 0xD90 PUSH2 0x3F24 JUMP JUMPDEST JUMPDEST SWAP1 PUSH0 MSTORE PUSH1 0x20 PUSH0 KECCAK256 ADD PUSH0 ADD DUP1 SLOAD SWAP1 POP DUP3 DUP3 DUP2 MLOAD DUP2 LT PUSH2 0xDB2 JUMPI PUSH2 0xDB1 PUSH2 0x3F24 JUMP JUMPDEST JUMPDEST PUSH1 0x20 MUL PUSH1 0x20 ADD ADD DUP2 DUP2 MSTORE POP POP DUP1 DUP1 PUSH1 0x1 ADD SWAP2 POP POP PUSH2 0xD50 JUMP JUMPDEST POP SWAP1 SWAP2 JUMP JUMPDEST PUSH1 0x60 DUP1 PUSH0 PUSH1 0x2 DUP5 DUP2 SLOAD DUP2 LT PUSH2 0xDE8 JUMPI PUSH2 0xDE7 PUSH2 0x3F24 JUMP JUMPDEST JUMPDEST SWAP1 PUSH0 MSTORE PUSH1 0x20 PUSH0 KECCAK256 ADD SWAP1 POP DUP1 PUSH0 ADD DUP1 SLOAD SWAP1 POP PUSH8 0xFFFFFFFFFFFFFFFF DUP2 GT ISZERO PUSH2 0xE12 JUMPI PUSH2 0xE11 PUSH2 0x3283 JUMP JUMPDEST JUMPDEST PUSH1 0x40 MLOAD SWAP1 DUP1 DUP3 MSTORE DUP1 PUSH1 0x20 MUL PUSH1 0x20 ADD DUP3 ADD PUSH1 0x40 MSTORE DUP1 ISZERO PUSH2 0xE40 JUMPI DUP2 PUSH1 0x20 ADD PUSH1 0x20 DUP3 MUL DUP1 CALLDATASIZE DUP4 CALLDATACOPY DUP1 DUP3 ADD SWAP2 POP POP SWAP1 POP JUMPDEST POP SWAP3 POP DUP1 PUSH0 ADD DUP1 SLOAD SWAP1 POP PUSH8 0xFFFFFFFFFFFFFFFF DUP2 GT ISZERO PUSH2 0xE63 JUMPI PUSH2 0xE62 PUSH2 0x3283 JUMP JUMPDEST JUMPDEST PUSH1 0x40 MLOAD SWAP1 DUP1 DUP3 MSTORE DUP1 PUSH1 0x20 MUL PUSH1 0x20 ADD DUP3 ADD PUSH1 0x40 MSTORE DUP1 ISZERO PUSH2 0xE91 JUMPI DUP2 PUSH1 0x20 ADD PUSH1 0x20 DUP3 MUL DUP1 CALLDATASIZE DUP4 CALLDATACOPY DUP1 DUP3 ADD SWAP2 POP POP SWAP1 POP JUMPDEST POP SWAP2 POP PUSH0 JUMPDEST DUP2 PUSH0 ADD DUP1 SLOAD SWAP1 POP DUP2 LT ISZERO PUSH2 0xFA2 JUMPI DUP2 PUSH0 ADD DUP2 DUP2 SLOAD DUP2 LT PUSH2 0xEB9 JUMPI PUSH2 0xEB8 PUSH2 0x3F24 JUMP JUMPDEST JUMPDEST SWAP1 PUSH0 MSTORE PUSH1 0x20 PUSH0 KECCAK256 ADD PUSH0 SWAP1 SLOAD SWAP1 PUSH2 0x100 EXP SWAP1 DIV PUSH20 0xFFFFFFFFFFFFFFFFFFFFFFFFFFFFFFFFFFFFFFFF AND DUP5 DUP3 DUP2 MLOAD DUP2 LT PUSH2 0xEF4 JUMPI PUSH2 0xEF3 PUSH2 0x3F24 JUMP JUMPDEST JUMPDEST PUSH1 0x20 MUL PUSH1 0x20 ADD ADD SWAP1 PUSH20 0xFFFFFFFFFFFFFFFFFFFFFFFFFFFFFFFFFFFFFFFF AND SWAP1 DUP2 PUSH20 0xFFFFFFFFFFFFFFFFFFFFFFFFFFFFFFFFFFFFFFFF AND DUP2 MSTORE POP POP PUSH2 0xF76 DUP8 DUP8 DUP8 DUP6 PUSH0 ADD DUP6 DUP2 SLOAD DUP2 LT PUSH2 0xF49 JUMPI PUSH2 0xF48 PUSH2 0x3F24 JUMP JUMPDEST JUMPDEST SWAP1 PUSH0 MSTORE PUSH1 0x20 PUSH0 KECCAK256 ADD PUSH0 SWAP1 SLOAD SWAP1 PUSH2 0x100 EXP SWAP1 DIV PUSH20 0xFFFFFFFFFFFFFFFFFFFFFFFFFFFFFFFFFFFFFFFF AND PUSH2 0x21DD JUMP JUMPDEST DUP4 DUP3 DUP2 MLOAD DUP2 LT PUSH2 0xF89 JUMPI PUSH2 0xF88 PUSH2 0x3F24 JUMP JUMPDEST JUMPDEST PUSH1 0x20 MUL PUSH1 0x20 ADD ADD DUP2 DUP2 MSTORE POP POP DUP1 DUP1 PUSH1 0x1 ADD SWAP2 POP POP PUSH2 0xE96 JUMP JUMPDEST POP POP SWAP4 POP SWAP4 SWAP2 POP POP JUMP JUMPDEST PUSH1 0x60 PUSH1 0x2 DUP1 SLOAD SWAP1 POP DUP3 LT PUSH2 0xFF5 JUMPI PUSH1 0x40 MLOAD PUSH32 0x8C379A000000000000000000000000000000000000000000000000000000000 DUP2 MSTORE PUSH1 0x4 ADD PUSH2 0xFEC SWAP1 PUSH2 0x4337 JUMP JUMPDEST PUSH1 0x40 MLOAD DUP1 SWAP2 SUB SWAP1 REVERT JUMPDEST PUSH1 0x2 DUP3 DUP2 SLOAD DUP2 LT PUSH2 0x1009 JUMPI PUSH2 0x1008 PUSH2 0x3F24 JUMP JUMPDEST JUMPDEST SWAP1 PUSH0 MSTORE PUSH1 0x20 PUSH0 KECCAK256 ADD PUSH0 ADD DUP1 SLOAD DUP1 PUSH1 0x20 MUL PUSH1 0x20 ADD PUSH1 0x40 MLOAD SWAP1 DUP2 ADD PUSH1 0x40 MSTORE DUP1 SWAP3 SWAP2 SWAP1 DUP2 DUP2 MSTORE PUSH1 0x20 ADD DUP3 DUP1 SLOAD DUP1 ISZERO PUSH2 0x1090 JUMPI PUSH1 0x20 MUL DUP3 ADD SWAP2 SWAP1 PUSH0 MSTORE PUSH1 0x20 PUSH0 KECCAK256 SWAP1 JUMPDEST DUP2 PUSH0 SWAP1 SLOAD SWAP1 PUSH2 0x100 EXP SWAP1 DIV PUSH20 0xFFFFFFFFFFFFFFFFFFFFFFFFFFFFFFFFFFFFFFFF AND PUSH20 0xFFFFFFFFFFFFFFFFFFFFFFFFFFFFFFFFFFFFFFFF AND DUP2 MSTORE PUSH1 0x20 ADD SWAP1 PUSH1 0x1 ADD SWAP1 DUP1 DUP4 GT PUSH2 0x1047 JUMPI JUMPDEST POP POP POP POP POP SWAP1 POP SWAP2 SWAP1 POP JUMP JUMPDEST PUSH0 DUP1 PUSH0 SWAP1 SLOAD SWAP1 PUSH2 0x100 EXP SWAP1 DIV PUSH20 0xFFFFFFFFFFFFFFFFFFFFFFFFFFFFFFFFFFFFFFFF AND PUSH20 0xFFFFFFFFFFFFFFFFFFFFFFFFFFFFFFFFFFFFFFFF AND PUSH4 0x987EE156 CALLER PUSH1 0x40 MLOAD DUP3 PUSH4 0xFFFFFFFF AND PUSH1 0xE0 SHL DUP2 MSTORE PUSH1 0x4 ADD PUSH2 0x10F6 SWAP2 SWAP1 PUSH2 0x4364 JUMP JUMPDEST PUSH0 PUSH1 0x40 MLOAD DUP1 DUP4 SUB DUP2 DUP7 GAS STATICCALL ISZERO DUP1 ISZERO PUSH2 0x1110 JUMPI RETURNDATASIZE PUSH0 DUP1 RETURNDATACOPY RETURNDATASIZE PUSH0 REVERT JUMPDEST POP POP POP POP PUSH1 0x40 MLOAD RETURNDATASIZE PUSH0 DUP3 RETURNDATACOPY RETURNDATASIZE PUSH1 0x1F NOT PUSH1 0x1F DUP3 ADD AND DUP3 ADD DUP1 PUSH1 0x40 MSTORE POP DUP2 ADD SWAP1 PUSH2 0x1138 SWAP2 SWAP1 PUSH2 0x43EB JUMP JUMPDEST POP POP SWAP1 POP PUSH0 DUP2 MLOAD GT PUSH2 0x117F JUMPI PUSH1 0x40 MLOAD PUSH32 0x8C379A000000000000000000000000000000000000000000000000000000000 DUP2 MSTORE PUSH1 0x4 ADD PUSH2 0x1176 SWAP1 PUSH2 0x44FF JUMP JUMPDEST PUSH1 0x40 MLOAD DUP1 SWAP2 SUB SWAP1 REVERT JUMPDEST PUSH0 DUP1 PUSH0 DUP1 SLOAD SWAP1 PUSH2 0x100 EXP SWAP1 DIV PUSH20 0xFFFFFFFFFFFFFFFFFFFFFFFFFFFFFFFFFFFFFFFF AND PUSH20 0xFFFFFFFFFFFFFFFFFFFFFFFFFFFFFFFFFFFFFFFF AND PUSH4 0xB26ED7B CALLER DUP8 PUSH1 0x40 MLOAD DUP4 PUSH4 0xFFFFFFFF AND PUSH1 0xE0 SHL DUP2 MSTORE PUSH1 0x4 ADD PUSH2 0x11DB SWAP3 SWAP2 SWAP1 PUSH2 0x451D JUMP JUMPDEST PUSH0 PUSH1 0x40 MLOAD DUP1 DUP4 SUB DUP2 DUP7 GAS STATICCALL ISZERO DUP1 ISZERO PUSH2 0x11F5 JUMPI RETURNDATASIZE PUSH0 DUP1 RETURNDATACOPY RETURNDATASIZE PUSH0 REVERT JUMPDEST POP POP POP POP PUSH1 0x40 MLOAD RETURNDATASIZE PUSH0 DUP3 RETURNDATACOPY RETURNDATASIZE PUSH1 0x1F NOT PUSH1 0x1F DUP3 ADD AND DUP3 ADD DUP1 PUSH1 0x40 MSTORE POP DUP2 ADD SWAP1 PUSH2 0x121D SWAP2 SWAP1 PUSH2 0x4636 JUMP JUMPDEST POP SWAP4 POP POP POP SWAP2 POP PUSH0 DUP3 EQ ISZERO DUP1 ISZERO PUSH2 0x1231 JUMPI POP DUP1 JUMPDEST PUSH2 0x1270 JUMPI PUSH1 0x40 MLOAD PUSH32 0x8C379A000000000000000000000000000000000000000000000000000000000 DUP2 MSTORE PUSH1 0x4 ADD PUSH2 0x1267 SWAP1 PUSH2 0x4739 JUMP JUMPDEST PUSH1 0x40 MLOAD DUP1 SWAP2 SUB SWAP1 REVERT JUMPDEST PUSH0 DUP5 MLOAD GT PUSH2 0x12B3 JUMPI PUSH1 0x40 MLOAD PUSH32 0x8C379A000000000000000000000000000000000000000000000000000000000 DUP2 MSTORE PUSH1 0x4 ADD PUSH2 0x12AA SWAP1 PUSH2 0x47C7 JUMP JUMPDEST PUSH1 0x40 MLOAD DUP1 SWAP2 SUB SWAP1 REVERT JUMPDEST PUSH0 DUP1 PUSH0 SWAP1 SLOAD SWAP1 PUSH2 0x100 EXP SWAP1 DIV PUSH20 0xFFFFFFFFFFFFFFFFFFFFFFFFFFFFFFFFFFFFFFFF AND PUSH20 0xFFFFFFFFFFFFFFFFFFFFFFFFFFFFFFFFFFFFFFFF AND PUSH4 0x99664245 DUP8 PUSH1 0x40 MLOAD DUP3 PUSH4 0xFFFFFFFF AND PUSH1 0xE0 SHL DUP2 MSTORE PUSH1 0x4 ADD PUSH2 0x130D SWAP2 SWAP1 PUSH2 0x31CB JUMP JUMPDEST PUSH0 PUSH1 0x40 MLOAD DUP1 DUP4 SUB DUP2 DUP7 GAS STATICCALL ISZERO DUP1 ISZERO PUSH2 0x1327 JUMPI RETURNDATASIZE PUSH0 DUP1 RETURNDATACOPY RETURNDATASIZE PUSH0 REVERT JUMPDEST POP POP POP POP PUSH1 0x40 MLOAD RETURNDATASIZE PUSH0 DUP3 RETURNDATACOPY RETURNDATASIZE PUSH1 0x1F NOT PUSH1 0x1F DUP3 ADD AND DUP3 ADD DUP1 PUSH1 0x40 MSTORE POP DUP2 ADD SWAP1 PUSH2 0x134F SWAP2 SWAP1 PUSH2 0x47E5 JUMP JUMPDEST SWAP5 POP POP POP POP POP PUSH0 PUSH1 0x3 PUSH0 CALLER PUSH20 0xFFFFFFFFFFFFFFFFFFFFFFFFFFFFFFFFFFFFFFFF AND PUSH20 0xFFFFFFFFFFFFFFFFFFFFFFFFFFFFFFFFFFFFFFFF AND DUP2 MSTORE PUSH1 0x20 ADD SWAP1 DUP2 MSTORE PUSH1 0x20 ADD PUSH0 KECCAK256 PUSH0 DUP9 DUP2 MSTORE PUSH1 0x20 ADD SWAP1 DUP2 MSTORE PUSH1 0x20 ADD PUSH0 KECCAK256 SWAP1 POP PUSH0 DUP2 PUSH0 ADD SLOAD SUB PUSH2 0x13B7 JUMPI DUP7 DUP2 PUSH0 ADD DUP2 SWAP1 SSTORE POP JUMPDEST PUSH0 DUP2 PUSH1 0x1 ADD PUSH0 DUP5 DUP2 MSTORE PUSH1 0x20 ADD SWAP1 DUP2 MSTORE PUSH1 0x20 ADD PUSH0 KECCAK256 SWAP1 POP DUP3 DUP2 PUSH0 ADD DUP2 SWAP1 SSTORE POP DUP1 PUSH1 0x1 ADD PUSH0 PUSH2 0x13E4 SWAP2 SWAP1 PUSH2 0x2EC9 JUMP JUMPDEST PUSH0 JUMPDEST DUP8 MLOAD DUP2 LT ISZERO PUSH2 0x148A JUMPI DUP2 PUSH1 0x1 ADD DUP9 DUP3 DUP2 MLOAD DUP2 LT PUSH2 0x1406 JUMPI PUSH2 0x1405 PUSH2 0x3F24 JUMP JUMPDEST JUMPDEST PUSH1 0x20 MUL PUSH1 0x20 ADD ADD MLOAD SWAP1 DUP1 PUSH1 0x1 DUP2 SLOAD ADD DUP1 DUP3 SSTORE DUP1 SWAP2 POP POP PUSH1 0x1 SWAP1 SUB SWAP1 PUSH0 MSTORE PUSH1 0x20 PUSH0 KECCAK256 SWAP1 PUSH1 0x3 MUL ADD PUSH0 SWAP1 SWAP2 SWAP1 SWAP2 SWAP1 SWAP2 POP PUSH0 DUP3 ADD MLOAD DUP2 PUSH0 ADD SWAP1 DUP2 PUSH2 0x1447 SWAP2 SWAP1 PUSH2 0x4AA1 JUMP JUMPDEST POP PUSH1 0x20 DUP3 ADD MLOAD DUP2 PUSH1 0x1 ADD SWAP1 DUP2 PUSH2 0x145D SWAP2 SWAP1 PUSH2 0x4AA1 JUMP JUMPDEST POP PUSH1 0x40 DUP3 ADD MLOAD DUP2 PUSH1 0x2 ADD SWAP1 DUP1 MLOAD SWAP1 PUSH1 0x20 ADD SWAP1 PUSH2 0x147A SWAP3 SWAP2 SWAP1 PUSH2 0x2EEA JUMP JUMPDEST POP POP POP DUP1 DUP1 PUSH1 0x1 ADD SWAP2 POP POP PUSH2 0x13E6 JUMP JUMPDEST POP PUSH0 DUP3 PUSH1 0x2 ADD DUP1 SLOAD SWAP1 POP EQ DUP1 PUSH2 0x14D1 JUMPI POP DUP3 DUP3 PUSH1 0x2 ADD PUSH1 0x1 DUP5 PUSH1 0x2 ADD DUP1 SLOAD SWAP1 POP PUSH2 0x14B4 SWAP2 SWAP1 PUSH2 0x3FF6 JUMP JUMPDEST DUP2 SLOAD DUP2 LT PUSH2 0x14C5 JUMPI PUSH2 0x14C4 PUSH2 0x3F24 JUMP JUMPDEST JUMPDEST SWAP1 PUSH0 MSTORE PUSH1 0x20 PUSH0 KECCAK256 ADD SLOAD EQ ISZERO JUMPDEST ISZERO PUSH2 0x14FF JUMPI DUP2 PUSH1 0x2 ADD DUP4 SWAP1 DUP1 PUSH1 0x1 DUP2 SLOAD ADD DUP1 DUP3 SSTORE DUP1 SWAP2 POP POP PUSH1 0x1 SWAP1 SUB SWAP1 PUSH0 MSTORE PUSH1 0x20 PUSH0 KECCAK256 ADD PUSH0 SWAP1 SWAP2 SWAP1 SWAP2 SWAP1 SWAP2 POP SSTORE JUMPDEST PUSH2 0x150A DUP9 DUP5 CALLER PUSH2 0x25C9 JUMP JUMPDEST PUSH2 0x158D JUMPI PUSH1 0x4 PUSH0 DUP10 DUP2 MSTORE PUSH1 0x20 ADD SWAP1 DUP2 MSTORE PUSH1 0x20 ADD PUSH0 KECCAK256 PUSH0 DUP5 DUP2 MSTORE PUSH1 0x20 ADD SWAP1 DUP2 MSTORE PUSH1 0x20 ADD PUSH0 KECCAK256 CALLER SWAP1 DUP1 PUSH1 0x1 DUP2 SLOAD ADD DUP1 DUP3 SSTORE DUP1 SWAP2 POP POP PUSH1 0x1 SWAP1 SUB SWAP1 PUSH0 MSTORE PUSH1 0x20 PUSH0 KECCAK256 ADD PUSH0 SWAP1 SWAP2 SWAP1 SWAP2 SWAP1 SWAP2 PUSH2 0x100 EXP DUP2 SLOAD DUP2 PUSH20 0xFFFFFFFFFFFFFFFFFFFFFFFFFFFFFFFFFFFFFFFF MUL NOT AND SWAP1 DUP4 PUSH20 0xFFFFFFFFFFFFFFFFFFFFFFFFFFFFFFFFFFFFFFFF AND MUL OR SWAP1 SSTORE POP JUMPDEST DUP8 CALLER PUSH20 0xFFFFFFFFFFFFFFFFFFFFFFFFFFFFFFFFFFFFFFFF AND PUSH32 0x320425F199B1900C87AB751CB74680DF52E35B0CAFFE1CA604850A02FDDA470B DUP6 DUP11 MLOAD PUSH1 0x40 MLOAD PUSH2 0x15D7 SWAP3 SWAP2 SWAP1 PUSH2 0x42C6 JUMP JUMPDEST PUSH1 0x40 MLOAD DUP1 SWAP2 SUB SWAP1 LOG3 POP POP POP POP POP POP POP POP JUMP JUMPDEST PUSH1 0x60 PUSH0 DUP1 PUSH1 0x6 PUSH0 DUP8 DUP2 MSTORE PUSH1 0x20 ADD SWAP1 DUP2 MSTORE PUSH1 0x20 ADD PUSH0 KECCAK256 PUSH0 DUP7 DUP2 MSTORE PUSH1 0x20 ADD SWAP1 DUP2 MSTORE PUSH1 0x20 ADD PUSH0 KECCAK256 PUSH0 DUP6 DUP2 MSTORE PUSH1 0x20 ADD SWAP1 DUP2 MSTORE PUSH1 0x20 ADD PUSH0 KECCAK256 SWAP1 POP DUP1 PUSH0 ADD DUP2 PUSH1 0x1 ADD SLOAD DUP2 DUP1 SLOAD DUP1 PUSH1 0x20 MUL PUSH1 0x20 ADD PUSH1 0x40 MLOAD SWAP1 DUP2 ADD PUSH1 0x40 MSTORE DUP1 SWAP3 SWAP2 SWAP1 DUP2 DUP2 MSTORE PUSH1 0x20 ADD DUP3 DUP1 SLOAD DUP1 ISZERO PUSH2 0x16A4 JUMPI PUSH1 0x20 MUL DUP3 ADD SWAP2 SWAP1 PUSH0 MSTORE PUSH1 0x20 PUSH0 KECCAK256 SWAP1 JUMPDEST DUP2 PUSH0 SWAP1 SLOAD SWAP1 PUSH2 0x100 EXP SWAP1 DIV PUSH20 0xFFFFFFFFFFFFFFFFFFFFFFFFFFFFFFFFFFFFFFFF AND PUSH20 0xFFFFFFFFFFFFFFFFFFFFFFFFFFFFFFFFFFFFFFFF AND DUP2 MSTORE PUSH1 0x20 ADD SWAP1 PUSH1 0x1 ADD SWAP1 DUP1 DUP4 GT PUSH2 0x165B JUMPI JUMPDEST POP POP POP POP POP SWAP2 POP SWAP3 POP SWAP3 POP POP SWAP4 POP SWAP4 SWAP2 POP POP JUMP JUMPDEST PUSH1 0x60 PUSH0 PUSH1 0x3 PUSH0 DUP6 PUSH20 0xFFFFFFFFFFFFFFFFFFFFFFFFFFFFFFFFFFFFFFFF AND PUSH20 0xFFFFFFFFFFFFFFFFFFFFFFFFFFFFFFFFFFFFFFFF AND DUP2 MSTORE PUSH1 0x20 ADD SWAP1 DUP2 MSTORE PUSH1 0x20 ADD PUSH0 KECCAK256 PUSH0 DUP5 DUP2 MSTORE PUSH1 0x20 ADD SWAP1 DUP2 MSTORE PUSH1 0x20 ADD PUSH0 KECCAK256 PUSH0 ADD SLOAD SUB PUSH2 0x174A JUMPI PUSH1 0x40 MLOAD PUSH32 0x8C379A000000000000000000000000000000000000000000000000000000000 DUP2 MSTORE PUSH1 0x4 ADD PUSH2 0x1741 SWAP1 PUSH2 0x4BE0 JUMP JUMPDEST PUSH1 0x40 MLOAD DUP1 SWAP2 SUB SWAP1 REVERT JUMPDEST PUSH1 0x3 PUSH0 DUP5 PUSH20 0xFFFFFFFFFFFFFFFFFFFFFFFFFFFFFFFFFFFFFFFF AND PUSH20 0xFFFFFFFFFFFFFFFFFFFFFFFFFFFFFFFFFFFFFFFF AND DUP2 MSTORE PUSH1 0x20 ADD SWAP1 DUP2 MSTORE PUSH1 0x20 ADD PUSH0 KECCAK256 PUSH0 DUP4 DUP2 MSTORE PUSH1 0x20 ADD SWAP1 DUP2 MSTORE PUSH1 0x20 ADD PUSH0 KECCAK256 PUSH1 0x2 ADD DUP1 SLOAD DUP1 PUSH1 0x20 MUL PUSH1 0x20 ADD PUSH1 0x40 MLOAD SWAP1 DUP2 ADD PUSH1 0x40 MSTORE DUP1 SWAP3 SWAP2 SWAP1 DUP2 DUP2 MSTORE PUSH1 0x20 ADD DUP3 DUP1 SLOAD DUP1 ISZERO PUSH2 0x17E1 JUMPI PUSH1 0x20 MUL DUP3 ADD SWAP2 SWAP1 PUSH0 MSTORE PUSH1 0x20 PUSH0 KECCAK256 SWAP1 JUMPDEST DUP2 SLOAD DUP2 MSTORE PUSH1 0x20 ADD SWAP1 PUSH1 0x1 ADD SWAP1 DUP1 DUP4 GT PUSH2 0x17CD JUMPI JUMPDEST POP POP POP POP POP SWAP1 POP SWAP3 SWAP2 POP POP JUMP JUMPDEST PUSH1 0x60 DUP1 PUSH1 0x60 PUSH0 PUSH1 0x3 PUSH0 DUP9 PUSH20 0xFFFFFFFFFFFFFFFFFFFFFFFFFFFFFFFFFFFFFFFF AND PUSH20 0xFFFFFFFFFFFFFFFFFFFFFFFFFFFFFFFFFFFFFFFF AND DUP2 MSTORE PUSH1 0x20 ADD SWAP1 DUP2 MSTORE PUSH1 0x20 ADD PUSH0 KECCAK256 PUSH0 DUP8 DUP2 MSTORE PUSH1 0x20 ADD SWAP1 DUP2 MSTORE PUSH1 0x20 ADD PUSH0 KECCAK256 PUSH0 ADD SLOAD SUB PUSH2 0x1883 JUMPI PUSH1 0x40 MLOAD PUSH32 0x8C379A000000000000000000000000000000000000000000000000000000000 DUP2 MSTORE PUSH1 0x4 ADD PUSH2 0x187A SWAP1 PUSH2 0x4BE0 JUMP JUMPDEST PUSH1 0x40 MLOAD DUP1 SWAP2 SUB SWAP1 REVERT JUMPDEST PUSH0 PUSH1 0x3 PUSH0 DUP9 PUSH20 0xFFFFFFFFFFFFFFFFFFFFFFFFFFFFFFFFFFFFFFFF AND PUSH20 0xFFFFFFFFFFFFFFFFFFFFFFFFFFFFFFFFFFFFFFFF AND DUP2 MSTORE PUSH1 0x20 ADD SWAP1 DUP2 MSTORE PUSH1 0x20 ADD PUSH0 KECCAK256 PUSH0 DUP8 DUP2 MSTORE PUSH1 0x20 ADD SWAP1 DUP2 MSTORE PUSH1 0x20 ADD PUSH0 KECCAK256 PUSH1 0x1 ADD PUSH0 DUP7 DUP2 MSTORE PUSH1 0x20 ADD SWAP1 DUP2 MSTORE PUSH1 0x20 ADD PUSH0 KECCAK256 PUSH1 0x1 ADD DUP1 SLOAD DUP1 PUSH1 0x20 MUL PUSH1 0x20 ADD PUSH1 0x40 MLOAD SWAP1 DUP2 ADD PUSH1 0x40 MSTORE DUP1 SWAP3 SWAP2 SWAP1 DUP2 DUP2 MSTORE PUSH1 0x20 ADD PUSH0 SWAP1 JUMPDEST DUP3 DUP3 LT ISZERO PUSH2 0x1B27 JUMPI DUP4 DUP3 SWAP1 PUSH0 MSTORE PUSH1 0x20 PUSH0 KECCAK256 SWAP1 PUSH1 0x3 MUL ADD PUSH1 0x40 MLOAD DUP1 PUSH1 0x60 ADD PUSH1 0x40 MSTORE SWAP1 DUP2 PUSH0 DUP3 ADD DUP1 SLOAD PUSH2 0x1934 SWAP1 PUSH2 0x48DD JUMP JUMPDEST DUP1 PUSH1 0x1F ADD PUSH1 0x20 DUP1 SWAP2 DIV MUL PUSH1 0x20 ADD PUSH1 0x40 MLOAD SWAP1 DUP2 ADD PUSH1 0x40 MSTORE DUP1 SWAP3 SWAP2 SWAP1 DUP2 DUP2 MSTORE PUSH1 0x20 ADD DUP3 DUP1 SLOAD PUSH2 0x1960 SWAP1 PUSH2 0x48DD JUMP JUMPDEST DUP1 ISZERO PUSH2 0x19AB JUMPI DUP1 PUSH1 0x1F LT PUSH2 0x1982 JUMPI PUSH2 0x100 DUP1 DUP4 SLOAD DIV MUL DUP4 MSTORE SWAP2 PUSH1 0x20 ADD SWAP2 PUSH2 0x19AB JUMP JUMPDEST DUP3 ADD SWAP2 SWAP1 PUSH0 MSTORE PUSH1 0x20 PUSH0 KECCAK256 SWAP1 JUMPDEST DUP2 SLOAD DUP2 MSTORE SWAP1 PUSH1 0x1 ADD SWAP1 PUSH1 0x20 ADD DUP1 DUP4 GT PUSH2 0x198E JUMPI DUP3 SWAP1 SUB PUSH1 0x1F AND DUP3 ADD SWAP2 JUMPDEST POP POP POP POP POP DUP2 MSTORE PUSH1 0x20 ADD PUSH1 0x1 DUP3 ADD DUP1 SLOAD PUSH2 0x19C4 SWAP1 PUSH2 0x48DD JUMP JUMPDEST DUP1 PUSH1 0x1F ADD PUSH1 0x20 DUP1 SWAP2 DIV MUL PUSH1 0x20 ADD PUSH1 0x40 MLOAD SWAP1 DUP2 ADD PUSH1 0x40 MSTORE DUP1 SWAP3 SWAP2 SWAP1 DUP2 DUP2 MSTORE PUSH1 0x20 ADD DUP3 DUP1 SLOAD PUSH2 0x19F0 SWAP1 PUSH2 0x48DD JUMP JUMPDEST DUP1 ISZERO PUSH2 0x1A3B JUMPI DUP1 PUSH1 0x1F LT PUSH2 0x1A12 JUMPI PUSH2 0x100 DUP1 DUP4 SLOAD DIV MUL DUP4 MSTORE SWAP2 PUSH1 0x20 ADD SWAP2 PUSH2 0x1A3B JUMP JUMPDEST DUP3 ADD SWAP2 SWAP1 PUSH0 MSTORE PUSH1 0x20 PUSH0 KECCAK256 SWAP1 JUMPDEST DUP2 SLOAD DUP2 MSTORE SWAP1 PUSH1 0x1 ADD SWAP1 PUSH1 0x20 ADD DUP1 DUP4 GT PUSH2 0x1A1E JUMPI DUP3 SWAP1 SUB PUSH1 0x1F AND DUP3 ADD SWAP2 JUMPDEST POP POP POP POP POP DUP2 MSTORE PUSH1 0x20 ADD PUSH1 0x2 DUP3 ADD DUP1 SLOAD DUP1 PUSH1 0x20 MUL PUSH1 0x20 ADD PUSH1 0x40 MLOAD SWAP1 DUP2 ADD PUSH1 0x40 MSTORE DUP1 SWAP3 SWAP2 SWAP1 DUP2 DUP2 MSTORE PUSH1 0x20 ADD PUSH0 SWAP1 JUMPDEST DUP3 DUP3 LT ISZERO PUSH2 0x1B10 JUMPI DUP4 DUP3 SWAP1 PUSH0 MSTORE PUSH1 0x20 PUSH0 KECCAK256 ADD DUP1 SLOAD PUSH2 0x1A85 SWAP1 PUSH2 0x48DD JUMP JUMPDEST DUP1 PUSH1 0x1F ADD PUSH1 0x20 DUP1 SWAP2 DIV MUL PUSH1 0x20 ADD PUSH1 0x40 MLOAD SWAP1 DUP2 ADD PUSH1 0x40 MSTORE DUP1 SWAP3 SWAP2 SWAP1 DUP2 DUP2 MSTORE PUSH1 0x20 ADD DUP3 DUP1 SLOAD PUSH2 0x1AB1 SWAP1 PUSH2 0x48DD JUMP JUMPDEST DUP1 ISZERO PUSH2 0x1AFC JUMPI DUP1 PUSH1 0x1F LT PUSH2 0x1AD3 JUMPI PUSH2 0x100 DUP1 DUP4 SLOAD DIV MUL DUP4 MSTORE SWAP2 PUSH1 0x20 ADD SWAP2 PUSH2 0x1AFC JUMP JUMPDEST DUP3 ADD SWAP2 SWAP1 PUSH0 MSTORE PUSH1 0x20 PUSH0 KECCAK256 SWAP1 JUMPDEST DUP2 SLOAD DUP2 MSTORE SWAP1 PUSH1 0x1 ADD SWAP1 PUSH1 0x20 ADD DUP1 DUP4 GT PUSH2 0x1ADF JUMPI DUP3 SWAP1 SUB PUSH1 0x1F AND DUP3 ADD SWAP2 JUMPDEST POP POP POP POP POP DUP2 MSTORE PUSH1 0x20 ADD SWAP1 PUSH1 0x1 ADD SWAP1 PUSH2 0x1A68 JUMP JUMPDEST POP POP POP POP DUP2 MSTORE POP POP DUP2 MSTORE PUSH1 0x20 ADD SWAP1 PUSH1 0x1 ADD SWAP1 PUSH2 0x1904 JUMP JUMPDEST POP POP POP POP SWAP1 POP DUP1 MLOAD PUSH8 0xFFFFFFFFFFFFFFFF DUP2 GT ISZERO PUSH2 0x1B48 JUMPI PUSH2 0x1B47 PUSH2 0x3283 JUMP JUMPDEST JUMPDEST PUSH1 0x40 MLOAD SWAP1 DUP1 DUP3 MSTORE DUP1 PUSH1 0x20 MUL PUSH1 0x20 ADD DUP3 ADD PUSH1 0x40 MSTORE DUP1 ISZERO PUSH2 0x1B7B JUMPI DUP2 PUSH1 0x20 ADD JUMPDEST PUSH1 0x60 DUP2 MSTORE PUSH1 0x20 ADD SWAP1 PUSH1 0x1 SWAP1 SUB SWAP1 DUP2 PUSH2 0x1B66 JUMPI SWAP1 POP JUMPDEST POP SWAP4 POP DUP1 MLOAD PUSH8 0xFFFFFFFFFFFFFFFF DUP2 GT ISZERO PUSH2 0x1B99 JUMPI PUSH2 0x1B98 PUSH2 0x3283 JUMP JUMPDEST JUMPDEST PUSH1 0x40 MLOAD SWAP1 DUP1 DUP3 MSTORE DUP1 PUSH1 0x20 MUL PUSH1 0x20 ADD DUP3 ADD PUSH1 0x40 MSTORE DUP1 ISZERO PUSH2 0x1BCC JUMPI DUP2 PUSH1 0x20 ADD JUMPDEST PUSH1 0x60 DUP2 MSTORE PUSH1 0x20 ADD SWAP1 PUSH1 0x1 SWAP1 SUB SWAP1 DUP2 PUSH2 0x1BB7 JUMPI SWAP1 POP JUMPDEST POP SWAP3 POP DUP1 MLOAD PUSH8 0xFFFFFFFFFFFFFFFF DUP2 GT ISZERO PUSH2 0x1BEA JUMPI PUSH2 0x1BE9 PUSH2 0x3283 JUMP JUMPDEST JUMPDEST PUSH1 0x40 MLOAD SWAP1 DUP1 DUP3 MSTORE DUP1 PUSH1 0x20 MUL PUSH1 0x20 ADD DUP3 ADD PUSH1 0x40 MSTORE DUP1 ISZERO PUSH2 0x1C1D JUMPI DUP2 PUSH1 0x20 ADD JUMPDEST PUSH1 0x60 DUP2 MSTORE PUSH1 0x20 ADD SWAP1 PUSH1 0x1 SWAP1 SUB SWAP1 DUP2 PUSH2 0x1C08 JUMPI SWAP1 POP JUMPDEST POP SWAP2 POP PUSH0 JUMPDEST DUP2 MLOAD DUP2 LT ISZERO PUSH2 0x1CEE JUMPI DUP2 DUP2 DUP2 MLOAD DUP2 LT PUSH2 0x1C3E JUMPI PUSH2 0x1C3D PUSH2 0x3F24 JUMP JUMPDEST JUMPDEST PUSH1 0x20 MUL PUSH1 0x20 ADD ADD MLOAD PUSH0 ADD MLOAD DUP6 DUP3 DUP2 MLOAD DUP2 LT PUSH2 0x1C5C JUMPI PUSH2 0x1C5B PUSH2 0x3F24 JUMP JUMPDEST JUMPDEST PUSH1 0x20 MUL PUSH1 0x20 ADD ADD DUP2 SWAP1 MSTORE POP DUP2 DUP2 DUP2 MLOAD DUP2 LT PUSH2 0x1C7A JUMPI PUSH2 0x1C79 PUSH2 0x3F24 JUMP JUMPDEST JUMPDEST PUSH1 0x20 MUL PUSH1 0x20 ADD ADD MLOAD PUSH1 0x20 ADD MLOAD DUP5 DUP3 DUP2 MLOAD DUP2 LT PUSH2 0x1C99 JUMPI PUSH2 0x1C98 PUSH2 0x3F24 JUMP JUMPDEST JUMPDEST PUSH1 0x20 MUL PUSH1 0x20 ADD ADD DUP2 SWAP1 MSTORE POP DUP2 DUP2 DUP2 MLOAD DUP2 LT PUSH2 0x1CB7 JUMPI PUSH2 0x1CB6 PUSH2 0x3F24 JUMP JUMPDEST JUMPDEST PUSH1 0x20 MUL PUSH1 0x20 ADD ADD MLOAD PUSH1 0x40 ADD MLOAD DUP4 DUP3 DUP2 MLOAD DUP2 LT PUSH2 0x1CD6 JUMPI PUSH2 0x1CD5 PUSH2 0x3F24 JUMP JUMPDEST JUMPDEST PUSH1 0x20 MUL PUSH1 0x20 ADD ADD DUP2 SWAP1 MSTORE POP DUP1 DUP1 PUSH1 0x1 ADD SWAP2 POP POP PUSH2 0x1C22 JUMP JUMPDEST POP POP SWAP4 POP SWAP4 POP SWAP4 SWAP1 POP JUMP JUMPDEST PUSH0 DUP1 PUSH0 SWAP1 SLOAD SWAP1 PUSH2 0x100 EXP SWAP1 DIV PUSH20 0xFFFFFFFFFFFFFFFFFFFFFFFFFFFFFFFFFFFFFFFF AND PUSH20 0xFFFFFFFFFFFFFFFFFFFFFFFFFFFFFFFFFFFFFFFF AND PUSH4 0x99664245 DUP4 PUSH1 0x40 MLOAD DUP3 PUSH4 0xFFFFFFFF AND PUSH1 0xE0 SHL DUP2 MSTORE PUSH1 0x4 ADD PUSH2 0x1D53 SWAP2 SWAP1 PUSH2 0x31CB JUMP JUMPDEST PUSH0 PUSH1 0x40 MLOAD DUP1 DUP4 SUB DUP2 DUP7 GAS STATICCALL ISZERO DUP1 ISZERO PUSH2 0x1D6D JUMPI RETURNDATASIZE PUSH0 DUP1 RETURNDATACOPY RETURNDATASIZE PUSH0 REVERT JUMPDEST POP POP POP POP PUSH1 0x40 MLOAD RETURNDATASIZE PUSH0 DUP3 RETURNDATACOPY RETURNDATASIZE PUSH1 0x1F NOT PUSH1 0x1F DUP3 ADD AND DUP3 ADD DUP1 PUSH1 0x40 MSTORE POP DUP2 ADD SWAP1 PUSH2 0x1D95 SWAP2 SWAP1 PUSH2 0x47E5 JUMP JUMPDEST SWAP5 POP POP POP POP POP PUSH0 PUSH1 0x4 PUSH0 DUP5 DUP2 MSTORE PUSH1 0x20 ADD SWAP1 DUP2 MSTORE PUSH1 0x20 ADD PUSH0 KECCAK256 PUSH0 DUP4 DUP2 MSTORE PUSH1 0x20 ADD SWAP1 DUP2 MSTORE PUSH1 0x20 ADD PUSH0 KECCAK256 DUP1 SLOAD DUP1 PUSH1 0x20 MUL PUSH1 0x20 ADD PUSH1 0x40 MLOAD SWAP1 DUP2 ADD PUSH1 0x40 MSTORE DUP1 SWAP3 SWAP2 SWAP1 DUP2 DUP2 MSTORE PUSH1 0x20 ADD DUP3 DUP1 SLOAD DUP1 ISZERO PUSH2 0x1E39 JUMPI PUSH1 0x20 MUL DUP3 ADD SWAP2 SWAP1 PUSH0 MSTORE PUSH1 0x20 PUSH0 KECCAK256 SWAP1 JUMPDEST DUP2 PUSH0 SWAP1 SLOAD SWAP1 PUSH2 0x100 EXP SWAP1 DIV PUSH20 0xFFFFFFFFFFFFFFFFFFFFFFFFFFFFFFFFFFFFFFFF AND PUSH20 0xFFFFFFFFFFFFFFFFFFFFFFFFFFFFFFFFFFFFFFFF AND DUP2 MSTORE PUSH1 0x20 ADD SWAP1 PUSH1 0x1 ADD SWAP1 DUP1 DUP4 GT PUSH2 0x1DF0 JUMPI JUMPDEST POP POP POP POP POP SWAP1 POP PUSH0 DUP2 MLOAD GT PUSH2 0x1E83 JUMPI PUSH1 0x40 MLOAD PUSH32 0x8C379A000000000000000000000000000000000000000000000000000000000 DUP2 MSTORE PUSH1 0x4 ADD PUSH2 0x1E7A SWAP1 PUSH2 0x4C6E JUMP JUMPDEST PUSH1 0x40 MLOAD DUP1 SWAP2 SUB SWAP1 REVERT JUMPDEST PUSH1 0x2 PUSH0 PUSH2 0x1E90 SWAP2 SWAP1 PUSH2 0x2F41 JUMP JUMPDEST PUSH2 0x1E99 DUP2 PUSH2 0x26EC JUMP JUMPDEST PUSH0 PUSH2 0x1EA4 DUP3 MLOAD PUSH2 0x2831 JUMP JUMPDEST SWAP1 POP PUSH0 DUP1 JUMPDEST DUP3 MLOAD DUP2 LT ISZERO PUSH2 0x2034 JUMPI PUSH0 DUP4 DUP3 DUP2 MLOAD DUP2 LT PUSH2 0x1EC6 JUMPI PUSH2 0x1EC5 PUSH2 0x3F24 JUMP JUMPDEST JUMPDEST PUSH1 0x20 MUL PUSH1 0x20 ADD ADD MLOAD PUSH1 0xFF AND PUSH8 0xFFFFFFFFFFFFFFFF DUP2 GT ISZERO PUSH2 0x1EEA JUMPI PUSH2 0x1EE9 PUSH2 0x3283 JUMP JUMPDEST JUMPDEST PUSH1 0x40 MLOAD SWAP1 DUP1 DUP3 MSTORE DUP1 PUSH1 0x20 MUL PUSH1 0x20 ADD DUP3 ADD PUSH1 0x40 MSTORE DUP1 ISZERO PUSH2 0x1F18 JUMPI DUP2 PUSH1 0x20 ADD PUSH1 0x20 DUP3 MUL DUP1 CALLDATASIZE DUP4 CALLDATACOPY DUP1 DUP3 ADD SWAP2 POP POP SWAP1 POP JUMPDEST POP SWAP1 POP PUSH0 JUMPDEST DUP5 DUP4 DUP2 MLOAD DUP2 LT PUSH2 0x1F30 JUMPI PUSH2 0x1F2F PUSH2 0x3F24 JUMP JUMPDEST JUMPDEST PUSH1 0x20 MUL PUSH1 0x20 ADD ADD MLOAD PUSH1 0xFF AND DUP2 LT DUP1 ISZERO PUSH2 0x1F49 JUMPI POP DUP6 MLOAD DUP5 LT JUMPDEST ISZERO PUSH2 0x1FD5 JUMPI DUP6 DUP5 DUP1 PUSH2 0x1F5A SWAP1 PUSH2 0x4C8C JUMP JUMPDEST SWAP6 POP DUP2 MLOAD DUP2 LT PUSH2 0x1F6D JUMPI PUSH2 0x1F6C PUSH2 0x3F24 JUMP JUMPDEST JUMPDEST PUSH1 0x20 MUL PUSH1 0x20 ADD ADD MLOAD DUP3 DUP3 DUP2 MLOAD DUP2 LT PUSH2 0x1F88 JUMPI PUSH2 0x1F87 PUSH2 0x3F24 JUMP JUMPDEST JUMPDEST PUSH1 0x20 MUL PUSH1 0x20 ADD ADD SWAP1 PUSH20 0xFFFFFFFFFFFFFFFFFFFFFFFFFFFFFFFFFFFFFFFF AND SWAP1 DUP2 PUSH20 0xFFFFFFFFFFFFFFFFFFFFFFFFFFFFFFFFFFFFFFFF AND DUP2 MSTORE POP POP DUP1 DUP1 PUSH2 0x1FCD SWAP1 PUSH2 0x4C8C JUMP JUMPDEST SWAP2 POP POP PUSH2 0x1F1D JUMP JUMPDEST POP PUSH1 0x2 PUSH1 0x40 MLOAD DUP1 PUSH1 0x20 ADD PUSH1 0x40 MSTORE DUP1 DUP4 DUP2 MSTORE POP SWAP1 DUP1 PUSH1 0x1 DUP2 SLOAD ADD DUP1 DUP3 SSTORE DUP1 SWAP2 POP POP PUSH1 0x1 SWAP1 SUB SWAP1 PUSH0 MSTORE PUSH1 0x20 PUSH0 KECCAK256 ADD PUSH0 SWAP1 SWAP2 SWAP1 SWAP2 SWAP1 SWAP2 POP PUSH0 DUP3 ADD MLOAD DUP2 PUSH0 ADD SWAP1 DUP1 MLOAD SWAP1 PUSH1 0x20 ADD SWAP1 PUSH2 0x2023 SWAP3 SWAP2 SWAP1 PUSH2 0x2E42 JUMP JUMPDEST POP POP POP POP DUP1 DUP1 PUSH1 0x1 ADD SWAP2 POP POP PUSH2 0x1EA9 JUMP JUMPDEST POP DUP2 PUSH1 0x1 SWAP1 DUP1 MLOAD SWAP1 PUSH1 0x20 ADD SWAP1 PUSH2 0x204B SWAP3 SWAP2 SWAP1 PUSH2 0x2F5F JUMP JUMPDEST POP DUP5 PUSH32 0x23A1C99C38932E128BFCF925232D21EED654965240C06433650755D2B5879D98 DUP6 PUSH1 0x2 DUP1 SLOAD SWAP1 POP PUSH1 0x40 MLOAD PUSH2 0x2083 SWAP3 SWAP2 SWAP1 PUSH2 0x42C6 JUMP JUMPDEST PUSH1 0x40 MLOAD DUP1 SWAP2 SUB SWAP1 LOG2 POP POP POP POP POP JUMP JUMPDEST PUSH1 0x3 PUSH1 0x20 MSTORE DUP2 PUSH0 MSTORE PUSH1 0x40 PUSH0 KECCAK256 PUSH1 0x20 MSTORE DUP1 PUSH0 MSTORE PUSH1 0x40 PUSH0 KECCAK256 PUSH0 SWAP2 POP SWAP2 POP POP DUP1 PUSH0 ADD SLOAD SWAP1 POP DUP2 JUMP JUMPDEST PUSH1 0x60 PUSH1 0x1 DUP1 SLOAD DUP1 PUSH1 0x20 MUL PUSH1 0x20 ADD PUSH1 0x40 MLOAD SWAP1 DUP2 ADD PUSH1 0x40 MSTORE DUP1 SWAP3 SWAP2 SWAP1 DUP2 DUP2 MSTORE PUSH1 0x20 ADD DUP3 DUP1 SLOAD DUP1 ISZERO PUSH2 0x2127 JUMPI PUSH1 0x20 MUL DUP3 ADD SWAP2 SWAP1 PUSH0 MSTORE PUSH1 0x20 PUSH0 KECCAK256 SWAP1 PUSH0 SWAP1 JUMPDEST DUP3 DUP3 SWAP1 SLOAD SWAP1 PUSH2 0x100 EXP SWAP1 DIV PUSH1 0xFF AND PUSH1 0xFF AND DUP2 MSTORE PUSH1 0x20 ADD SWAP1 PUSH1 0x1 ADD SWAP1 PUSH1 0x20 DUP3 PUSH0 ADD DIV SWAP3 DUP4 ADD SWAP3 PUSH1 0x1 SUB DUP3 MUL SWAP2 POP DUP1 DUP5 GT PUSH2 0x20F1 JUMPI SWAP1 POP JUMPDEST POP POP POP POP POP SWAP1 POP SWAP1 JUMP JUMPDEST PUSH1 0x60 PUSH1 0x4 PUSH0 DUP5 DUP2 MSTORE PUSH1 0x20 ADD SWAP1 DUP2 MSTORE PUSH1 0x20 ADD PUSH0 KECCAK256 PUSH0 DUP4 DUP2 MSTORE PUSH1 0x20 ADD SWAP1 DUP2 MSTORE PUSH1 0x20 ADD PUSH0 KECCAK256 DUP1 SLOAD DUP1 PUSH1 0x20 MUL PUSH1 0x20 ADD PUSH1 0x40 MLOAD SWAP1 DUP2 ADD PUSH1 0x40 MSTORE DUP1 SWAP3 SWAP2 SWAP1 DUP2 DUP2 MSTORE PUSH1 0x20 ADD DUP3 DUP1 SLOAD DUP1 ISZERO PUSH2 0x21D0 JUMPI PUSH1 0x20 MUL DUP3 ADD SWAP2 SWAP1 PUSH0 MSTORE PUSH1 0x20 PUSH0 KECCAK256 SWAP1 JUMPDEST DUP2 PUSH0 SWAP1 SLOAD SWAP1 PUSH2 0x100 EXP SWAP1 DIV PUSH20 0xFFFFFFFFFFFFFFFFFFFFFFFFFFFFFFFFFFFFFFFF AND PUSH20 0xFFFFFFFFFFFFFFFFFFFFFFFFFFFFFFFFFFFFFFFF AND DUP2 MSTORE PUSH1 0x20 ADD SWAP1 PUSH1 0x1 ADD SWAP1 DUP1 DUP4 GT PUSH2 0x2187 JUMPI JUMPDEST POP POP POP POP POP SWAP1 POP SWAP3 SWAP2 POP POP JUMP JUMPDEST PUSH0 DUP1 PUSH1 0x2 DUP5 DUP2 SLOAD DUP2 LT PUSH2 0x21F3 JUMPI PUSH2 0x21F2 PUSH2 0x3F24 JUMP JUMPDEST JUMPDEST SWAP1 PUSH0 MSTORE PUSH1 0x20 PUSH0 KECCAK256 ADD PUSH0 ADD DUP1 SLOAD SWAP1 POP SWAP1 POP PUSH0 DUP2 PUSH8 0xFFFFFFFFFFFFFFFF DUP2 GT ISZERO PUSH2 0x221E JUMPI PUSH2 0x221D PUSH2 0x3283 JUMP JUMPDEST JUMPDEST PUSH1 0x40 MLOAD SWAP1 DUP1 DUP3 MSTORE DUP1 PUSH1 0x20 MUL PUSH1 0x20 ADD DUP3 ADD PUSH1 0x40 MSTORE DUP1 ISZERO PUSH2 0x224C JUMPI DUP2 PUSH1 0x20 ADD PUSH1 0x20 DUP3 MUL DUP1 CALLDATASIZE DUP4 CALLDATACOPY DUP1 DUP3 ADD SWAP2 POP POP SWAP1 POP JUMPDEST POP SWAP1 POP PUSH0 DUP1 JUMPDEST DUP4 DUP2 LT ISZERO PUSH2 0x240A JUMPI PUSH0 PUSH1 0x2 DUP9 DUP2 SLOAD DUP2 LT PUSH2 0x226F JUMPI PUSH2 0x226E PUSH2 0x3F24 JUMP JUMPDEST JUMPDEST SWAP1 PUSH0 MSTORE PUSH1 0x20 PUSH0 KECCAK256 ADD PUSH0 ADD DUP3 DUP2 SLOAD DUP2 LT PUSH2 0x228B JUMPI PUSH2 0x228A PUSH2 0x3F24 JUMP JUMPDEST JUMPDEST SWAP1 PUSH0 MSTORE PUSH1 0x20 PUSH0 KECCAK256 ADD PUSH0 SWAP1 SLOAD SWAP1 PUSH2 0x100 EXP SWAP1 DIV PUSH20 0xFFFFFFFFFFFFFFFFFFFFFFFFFFFFFFFFFFFFFFFF AND SWAP1 POP PUSH0 PUSH1 0x5 PUSH0 DUP13 DUP2 MSTORE PUSH1 0x20 ADD SWAP1 DUP2 MSTORE PUSH1 0x20 ADD PUSH0 KECCAK256 PUSH0 DUP12 DUP2 MSTORE PUSH1 0x20 ADD SWAP1 DUP2 MSTORE PUSH1 0x20 ADD PUSH0 KECCAK256 PUSH0 DUP11 DUP2 MSTORE PUSH1 0x20 ADD SWAP1 DUP2 MSTORE PUSH1 0x20 ADD PUSH0 KECCAK256 PUSH0 DUP4 PUSH20 0xFFFFFFFFFFFFFFFFFFFFFFFFFFFFFFFFFFFFFFFF AND PUSH20 0xFFFFFFFFFFFFFFFFFFFFFFFFFFFFFFFFFFFFFFFF AND DUP2 MSTORE PUSH1 0x20 ADD SWAP1 DUP2 MSTORE PUSH1 0x20 ADD PUSH0 KECCAK256 SWAP1 POP PUSH0 DUP2 PUSH0 ADD DUP1 SLOAD SWAP1 POP GT ISZERO PUSH2 0x23FB JUMPI PUSH0 JUMPDEST DUP2 PUSH0 ADD DUP1 SLOAD SWAP1 POP DUP2 LT ISZERO PUSH2 0x23F9 JUMPI DUP9 PUSH20 0xFFFFFFFFFFFFFFFFFFFFFFFFFFFFFFFFFFFFFFFF AND DUP3 PUSH0 ADD DUP3 DUP2 SLOAD DUP2 LT PUSH2 0x236C JUMPI PUSH2 0x236B PUSH2 0x3F24 JUMP JUMPDEST JUMPDEST SWAP1 PUSH0 MSTORE PUSH1 0x20 PUSH0 KECCAK256 ADD PUSH0 SWAP1 SLOAD SWAP1 PUSH2 0x100 EXP SWAP1 DIV PUSH20 0xFFFFFFFFFFFFFFFFFFFFFFFFFFFFFFFFFFFFFFFF AND PUSH20 0xFFFFFFFFFFFFFFFFFFFFFFFFFFFFFFFFFFFFFFFF AND SUB PUSH2 0x23EC JUMPI PUSH1 0x1 DUP2 PUSH2 0x23BC SWAP2 SWAP1 PUSH2 0x4029 JUMP JUMPDEST DUP7 DUP7 DUP1 PUSH2 0x23C8 SWAP1 PUSH2 0x4C8C JUMP JUMPDEST SWAP8 POP DUP2 MLOAD DUP2 LT PUSH2 0x23DB JUMPI PUSH2 0x23DA PUSH2 0x3F24 JUMP JUMPDEST JUMPDEST PUSH1 0x20 MUL PUSH1 0x20 ADD ADD DUP2 DUP2 MSTORE POP POP PUSH2 0x23F9 JUMP JUMPDEST DUP1 DUP1 PUSH1 0x1 ADD SWAP2 POP POP PUSH2 0x2332 JUMP JUMPDEST POP JUMPDEST POP POP DUP1 DUP1 PUSH1 0x1 ADD SWAP2 POP POP PUSH2 0x2252 JUMP JUMPDEST POP PUSH0 DUP2 SUB PUSH2 0x241D JUMPI PUSH0 SWAP4 POP POP POP POP PUSH2 0x24FE JUMP JUMPDEST PUSH0 DUP1 JUMPDEST DUP3 DUP2 LT ISZERO PUSH2 0x245D JUMPI DUP4 DUP2 DUP2 MLOAD DUP2 LT PUSH2 0x243B JUMPI PUSH2 0x243A PUSH2 0x3F24 JUMP JUMPDEST JUMPDEST PUSH1 0x20 MUL PUSH1 0x20 ADD ADD MLOAD DUP3 PUSH2 0x244E SWAP2 SWAP1 PUSH2 0x4029 JUMP JUMPDEST SWAP2 POP DUP1 DUP1 PUSH1 0x1 ADD SWAP2 POP POP PUSH2 0x2420 JUMP JUMPDEST POP DUP2 DUP2 PUSH2 0x246A SWAP2 SWAP1 PUSH2 0x4D00 JUMP JUMPDEST SWAP1 POP PUSH0 PUSH2 0x2478 DUP5 DUP4 DUP6 PUSH2 0x285B JUMP JUMPDEST SWAP1 POP PUSH0 PUSH2 0x2484 DUP7 PUSH2 0x28EB JUMP JUMPDEST SWAP1 POP PUSH0 DUP2 PUSH8 0xDE0B6B3A7640000 DUP5 PUSH2 0x249C SWAP2 SWAP1 PUSH2 0x4D30 JUMP JUMPDEST PUSH2 0x24A6 SWAP2 SWAP1 PUSH2 0x4D00 JUMP JUMPDEST PUSH8 0xDE0B6B3A7640000 PUSH2 0x24B9 SWAP2 SWAP1 PUSH2 0x3FF6 JUMP JUMPDEST SWAP1 POP PUSH8 0xDE0B6B3A7640000 PUSH2 0x3E8 DUP3 PUSH2 0x24D2 SWAP2 SWAP1 PUSH2 0x4D30 JUMP JUMPDEST PUSH2 0x24DC SWAP2 SWAP1 PUSH2 0x4D00 JUMP JUMPDEST PUSH2 0x3E8 DUP6 PUSH2 0x24EA SWAP2 SWAP1 PUSH2 0x4D30 JUMP JUMPDEST PUSH2 0x24F4 SWAP2 SWAP1 PUSH2 0x4029 JUMP JUMPDEST SWAP8 POP POP POP POP POP POP POP POP JUMPDEST SWAP5 SWAP4 POP POP POP POP JUMP JUMPDEST PUSH0 DUP1 PUSH1 0x2 DUP5 DUP2 SLOAD DUP2 LT PUSH2 0x251C JUMPI PUSH2 0x251B PUSH2 0x3F24 JUMP JUMPDEST JUMPDEST SWAP1 PUSH0 MSTORE PUSH1 0x20 PUSH0 KECCAK256 ADD SWAP1 POP PUSH0 JUMPDEST DUP2 PUSH0 ADD DUP1 SLOAD SWAP1 POP DUP2 LT ISZERO PUSH2 0x25BD JUMPI DUP4 PUSH20 0xFFFFFFFFFFFFFFFFFFFFFFFFFFFFFFFFFFFFFFFF AND DUP3 PUSH0 ADD DUP3 DUP2 SLOAD DUP2 LT PUSH2 0x2562 JUMPI PUSH2 0x2561 PUSH2 0x3F24 JUMP JUMPDEST JUMPDEST SWAP1 PUSH0 MSTORE PUSH1 0x20 PUSH0 KECCAK256 ADD PUSH0 SWAP1 SLOAD SWAP1 PUSH2 0x100 EXP SWAP1 DIV PUSH20 0xFFFFFFFFFFFFFFFFFFFFFFFFFFFFFFFFFFFFFFFF AND PUSH20 0xFFFFFFFFFFFFFFFFFFFFFFFFFFFFFFFFFFFFFFFF AND SUB PUSH2 0x25B0 JUMPI PUSH1 0x1 SWAP3 POP POP POP PUSH2 0x25C3 JUMP JUMPDEST DUP1 DUP1 PUSH1 0x1 ADD SWAP2 POP POP PUSH2 0x2528 JUMP JUMPDEST POP PUSH0 SWAP2 POP POP JUMPDEST SWAP3 SWAP2 POP POP JUMP JUMPDEST PUSH0 DUP1 PUSH1 0x4 PUSH0 DUP7 DUP2 MSTORE PUSH1 0x20 ADD SWAP1 DUP2 MSTORE PUSH1 0x20 ADD PUSH0 KECCAK256 PUSH0 DUP6 DUP2 MSTORE PUSH1 0x20 ADD SWAP1 DUP2 MSTORE PUSH1 0x20 ADD PUSH0 KECCAK256 DUP1 SLOAD DUP1 PUSH1 0x20 MUL PUSH1 0x20 ADD PUSH1 0x40 MLOAD SWAP1 DUP2 ADD PUSH1 0x40 MSTORE DUP1 SWAP3 SWAP2 SWAP1 DUP2 DUP2 MSTORE PUSH1 0x20 ADD DUP3 DUP1 SLOAD DUP1 ISZERO PUSH2 0x2668 JUMPI PUSH1 0x20 MUL DUP3 ADD SWAP2 SWAP1 PUSH0 MSTORE PUSH1 0x20 PUSH0 KECCAK256 SWAP1 JUMPDEST DUP2 PUSH0 SWAP1 SLOAD SWAP1 PUSH2 0x100 EXP SWAP1 DIV PUSH20 0xFFFFFFFFFFFFFFFFFFFFFFFFFFFFFFFFFFFFFFFF AND PUSH20 0xFFFFFFFFFFFFFFFFFFFFFFFFFFFFFFFFFFFFFFFF AND DUP2 MSTORE PUSH1 0x20 ADD SWAP1 PUSH1 0x1 ADD SWAP1 DUP1 DUP4 GT PUSH2 0x261F JUMPI JUMPDEST POP POP POP POP POP SWAP1 POP PUSH0 JUMPDEST DUP2 MLOAD DUP2 LT ISZERO PUSH2 0x26DF JUMPI DUP4 PUSH20 0xFFFFFFFFFFFFFFFFFFFFFFFFFFFFFFFFFFFFFFFF AND DUP3 DUP3 DUP2 MLOAD DUP2 LT PUSH2 0x26A4 JUMPI PUSH2 0x26A3 PUSH2 0x3F24 JUMP JUMPDEST JUMPDEST PUSH1 0x20 MUL PUSH1 0x20 ADD ADD MLOAD PUSH20 0xFFFFFFFFFFFFFFFFFFFFFFFFFFFFFFFFFFFFFFFF AND SUB PUSH2 0x26D2 JUMPI PUSH1 0x1 SWAP3 POP POP POP PUSH2 0x26E5 JUMP JUMPDEST DUP1 DUP1 PUSH1 0x1 ADD SWAP2 POP POP PUSH2 0x2671 JUMP JUMPDEST POP PUSH0 SWAP2 POP POP JUMPDEST SWAP4 SWAP3 POP POP POP JUMP JUMPDEST PUSH0 PUSH1 0x1 DUP3 MLOAD PUSH2 0x26FB SWAP2 SWAP1 PUSH2 0x3FF6 JUMP JUMPDEST SWAP1 POP JUMPDEST PUSH0 DUP2 GT ISZERO PUSH2 0x282D JUMPI PUSH0 PUSH1 0x1 DUP3 PUSH2 0x2714 SWAP2 SWAP1 PUSH2 0x4029 JUMP JUMPDEST TIMESTAMP PREVRANDAO DUP5 PUSH1 0x40 MLOAD PUSH1 0x20 ADD PUSH2 0x2729 SWAP4 SWAP3 SWAP2 SWAP1 PUSH2 0x4D91 JUMP JUMPDEST PUSH1 0x40 MLOAD PUSH1 0x20 DUP2 DUP4 SUB SUB DUP2 MSTORE SWAP1 PUSH1 0x40 MSTORE DUP1 MLOAD SWAP1 PUSH1 0x20 ADD KECCAK256 PUSH0 SHR PUSH2 0x274B SWAP2 SWAP1 PUSH2 0x4DCD JUMP JUMPDEST SWAP1 POP DUP3 DUP2 DUP2 MLOAD DUP2 LT PUSH2 0x2760 JUMPI PUSH2 0x275F PUSH2 0x3F24 JUMP JUMPDEST JUMPDEST PUSH1 0x20 MUL PUSH1 0x20 ADD ADD MLOAD DUP4 DUP4 DUP2 MLOAD DUP2 LT PUSH2 0x277B JUMPI PUSH2 0x277A PUSH2 0x3F24 JUMP JUMPDEST JUMPDEST PUSH1 0x20 MUL PUSH1 0x20 ADD ADD MLOAD DUP5 DUP5 DUP2 MLOAD DUP2 LT PUSH2 0x2796 JUMPI PUSH2 0x2795 PUSH2 0x3F24 JUMP JUMPDEST JUMPDEST PUSH1 0x20 MUL PUSH1 0x20 ADD ADD DUP6 DUP5 DUP2 MLOAD DUP2 LT PUSH2 0x27B0 JUMPI PUSH2 0x27AF PUSH2 0x3F24 JUMP JUMPDEST JUMPDEST PUSH1 0x20 MUL PUSH1 0x20 ADD ADD DUP3 PUSH20 0xFFFFFFFFFFFFFFFFFFFFFFFFFFFFFFFFFFFFFFFF AND PUSH20 0xFFFFFFFFFFFFFFFFFFFFFFFFFFFFFFFFFFFFFFFF AND DUP2 MSTORE POP DUP3 PUSH20 0xFFFFFFFFFFFFFFFFFFFFFFFFFFFFFFFFFFFFFFFF AND PUSH20 0xFFFFFFFFFFFFFFFFFFFFFFFFFFFFFFFFFFFFFFFF AND DUP2 MSTORE POP POP POP POP DUP1 DUP1 PUSH2 0x2825 SWAP1 PUSH2 0x4DFD JUMP JUMPDEST SWAP2 POP POP PUSH2 0x26FE JUMP JUMPDEST POP POP JUMP JUMPDEST PUSH1 0x60 PUSH1 0x14 DUP3 GT ISZERO PUSH2 0x284A JUMPI PUSH2 0x2845 DUP3 PUSH2 0x2968 JUMP JUMPDEST PUSH2 0x2854 JUMP JUMPDEST PUSH2 0x2853 DUP3 PUSH2 0x2A79 JUMP JUMPDEST JUMPDEST SWAP1 POP SWAP2 SWAP1 POP JUMP JUMPDEST PUSH0 PUSH1 0x1 DUP3 GT PUSH2 0x286C JUMPI PUSH0 SWAP1 POP PUSH2 0x28E4 JUMP JUMPDEST PUSH0 DUP1 JUMPDEST DUP4 DUP2 LT ISZERO PUSH2 0x28C7 JUMPI PUSH0 DUP6 DUP8 DUP4 DUP2 MLOAD DUP2 LT PUSH2 0x288C JUMPI PUSH2 0x288B PUSH2 0x3F24 JUMP JUMPDEST JUMPDEST PUSH1 0x20 MUL PUSH1 0x20 ADD ADD MLOAD PUSH2 0x289E SWAP2 SWAP1 PUSH2 0x4E2D JUMP JUMPDEST SWAP1 POP DUP1 DUP2 PUSH2 0x28AC SWAP2 SWAP1 PUSH2 0x4E6D JUMP JUMPDEST DUP4 PUSH2 0x28B7 SWAP2 SWAP1 PUSH2 0x4029 JUMP JUMPDEST SWAP3 POP POP DUP1 DUP1 PUSH1 0x1 ADD SWAP2 POP POP PUSH2 0x286F JUMP JUMPDEST POP PUSH1 0x1 DUP4 PUSH2 0x28D5 SWAP2 SWAP1 PUSH2 0x3FF6 JUMP JUMPDEST DUP2 PUSH2 0x28E0 SWAP2 SWAP1 PUSH2 0x4D00 JUMP JUMPDEST SWAP2 POP POP JUMPDEST SWAP4 SWAP3 POP POP POP JUMP JUMPDEST PUSH0 DUP1 PUSH0 SWAP1 POP PUSH0 PUSH1 0x1 SWAP1 POP JUMPDEST DUP4 DUP2 LT ISZERO PUSH2 0x293C JUMPI PUSH1 0x2 PUSH1 0x1 DUP3 PUSH2 0x290D SWAP2 SWAP1 PUSH2 0x4029 JUMP JUMPDEST DUP3 PUSH2 0x2918 SWAP2 SWAP1 PUSH2 0x4D30 JUMP JUMPDEST PUSH2 0x2922 SWAP2 SWAP1 PUSH2 0x4D00 JUMP JUMPDEST DUP3 PUSH2 0x292D SWAP2 SWAP1 PUSH2 0x4029 JUMP JUMPDEST SWAP2 POP DUP1 DUP1 PUSH1 0x1 ADD SWAP2 POP POP PUSH2 0x28F6 JUMP JUMPDEST POP PUSH1 0x1 DUP4 PUSH2 0x294A SWAP2 SWAP1 PUSH2 0x3FF6 JUMP JUMPDEST DUP2 DUP5 PUSH2 0x2956 SWAP2 SWAP1 PUSH2 0x4D30 JUMP JUMPDEST PUSH2 0x2960 SWAP2 SWAP1 PUSH2 0x4D00 JUMP JUMPDEST SWAP2 POP POP SWAP2 SWAP1 POP JUMP JUMPDEST PUSH1 0x60 PUSH0 PUSH1 0x6 PUSH1 0x5 DUP5 PUSH2 0x297A SWAP2 SWAP1 PUSH2 0x4029 JUMP JUMPDEST PUSH2 0x2984 SWAP2 SWAP1 PUSH2 0x4D00 JUMP JUMPDEST PUSH8 0xFFFFFFFFFFFFFFFF DUP2 GT ISZERO PUSH2 0x299D JUMPI PUSH2 0x299C PUSH2 0x3283 JUMP JUMPDEST JUMPDEST PUSH1 0x40 MLOAD SWAP1 DUP1 DUP3 MSTORE DUP1 PUSH1 0x20 MUL PUSH1 0x20 ADD DUP3 ADD PUSH1 0x40 MSTORE DUP1 ISZERO PUSH2 0x29CB JUMPI DUP2 PUSH1 0x20 ADD PUSH1 0x20 DUP3 MUL DUP1 CALLDATASIZE DUP4 CALLDATACOPY DUP1 DUP3 ADD SWAP2 POP POP SWAP1 POP JUMPDEST POP SWAP1 POP PUSH0 DUP4 SWAP1 POP PUSH0 JUMPDEST PUSH0 DUP3 GT ISZERO PUSH2 0x2A6B JUMPI PUSH1 0x6 DUP3 GT ISZERO PUSH2 0x2A2E JUMPI PUSH1 0x6 DUP4 DUP3 DUP1 PUSH2 0x29F3 SWAP1 PUSH2 0x4C8C JUMP JUMPDEST SWAP4 POP DUP2 MLOAD DUP2 LT PUSH2 0x2A06 JUMPI PUSH2 0x2A05 PUSH2 0x3F24 JUMP JUMPDEST JUMPDEST PUSH1 0x20 MUL PUSH1 0x20 ADD ADD SWAP1 PUSH1 0xFF AND SWAP1 DUP2 PUSH1 0xFF AND DUP2 MSTORE POP POP PUSH1 0x6 DUP3 PUSH2 0x2A27 SWAP2 SWAP1 PUSH2 0x3FF6 JUMP JUMPDEST SWAP2 POP PUSH2 0x2A66 JUMP JUMPDEST DUP2 DUP4 DUP3 DUP1 PUSH2 0x2A3B SWAP1 PUSH2 0x4C8C JUMP JUMPDEST SWAP4 POP DUP2 MLOAD DUP2 LT PUSH2 0x2A4E JUMPI PUSH2 0x2A4D PUSH2 0x3F24 JUMP JUMPDEST JUMPDEST PUSH1 0x20 MUL PUSH1 0x20 ADD ADD SWAP1 PUSH1 0xFF AND SWAP1 DUP2 PUSH1 0xFF AND DUP2 MSTORE POP POP PUSH0 SWAP2 POP JUMPDEST PUSH2 0x29D4 JUMP JUMPDEST DUP1 DUP4 MSTORE DUP3 SWAP4 POP POP POP POP SWAP2 SWAP1 POP JUMP JUMPDEST PUSH1 0x60 DUP1 PUSH1 0x6 DUP4 GT PUSH2 0x2AFD JUMPI PUSH1 0x1 PUSH8 0xFFFFFFFFFFFFFFFF DUP2 GT ISZERO PUSH2 0x2A9F JUMPI PUSH2 0x2A9E PUSH2 0x3283 JUMP JUMPDEST JUMPDEST PUSH1 0x40 MLOAD SWAP1 DUP1 DUP3 MSTORE DUP1 PUSH1 0x20 MUL PUSH1 0x20 ADD DUP3 ADD PUSH1 0x40 MSTORE DUP1 ISZERO PUSH2 0x2ACD JUMPI DUP2 PUSH1 0x20 ADD PUSH1 0x20 DUP3 MUL DUP1 CALLDATASIZE DUP4 CALLDATACOPY DUP1 DUP3 ADD SWAP2 POP POP SWAP1 POP JUMPDEST POP SWAP1 POP DUP3 DUP2 PUSH0 DUP2 MLOAD DUP2 LT PUSH2 0x2AE4 JUMPI PUSH2 0x2AE3 PUSH2 0x3F24 JUMP JUMPDEST JUMPDEST PUSH1 0x20 MUL PUSH1 0x20 ADD ADD SWAP1 PUSH1 0xFF AND SWAP1 DUP2 PUSH1 0xFF AND DUP2 MSTORE POP POP PUSH2 0x2E39 JUMP JUMPDEST PUSH1 0xC DUP4 GT PUSH2 0x2BE0 JUMPI PUSH1 0x2 PUSH8 0xFFFFFFFFFFFFFFFF DUP2 GT ISZERO PUSH2 0x2B20 JUMPI PUSH2 0x2B1F PUSH2 0x3283 JUMP JUMPDEST JUMPDEST PUSH1 0x40 MLOAD SWAP1 DUP1 DUP3 MSTORE DUP1 PUSH1 0x20 MUL PUSH1 0x20 ADD DUP3 ADD PUSH1 0x40 MSTORE DUP1 ISZERO PUSH2 0x2B4E JUMPI DUP2 PUSH1 0x20 ADD PUSH1 0x20 DUP3 MUL DUP1 CALLDATASIZE DUP4 CALLDATACOPY DUP1 DUP3 ADD SWAP2 POP POP SWAP1 POP JUMPDEST POP SWAP1 POP PUSH1 0xA DUP4 GT PUSH2 0x2B60 JUMPI PUSH1 0x5 PUSH2 0x2B63 JUMP JUMPDEST PUSH1 0x6 JUMPDEST DUP2 PUSH0 DUP2 MLOAD DUP2 LT PUSH2 0x2B76 JUMPI PUSH2 0x2B75 PUSH2 0x3F24 JUMP JUMPDEST JUMPDEST PUSH1 0x20 MUL PUSH1 0x20 ADD ADD SWAP1 PUSH1 0xFF AND SWAP1 DUP2 PUSH1 0xFF AND DUP2 MSTORE POP POP DUP1 PUSH0 DUP2 MLOAD DUP2 LT PUSH2 0x2B9D JUMPI PUSH2 0x2B9C PUSH2 0x3F24 JUMP JUMPDEST JUMPDEST PUSH1 0x20 MUL PUSH1 0x20 ADD ADD MLOAD PUSH1 0xFF AND DUP4 PUSH2 0x2BB3 SWAP2 SWAP1 PUSH2 0x3FF6 JUMP JUMPDEST DUP2 PUSH1 0x1 DUP2 MLOAD DUP2 LT PUSH2 0x2BC7 JUMPI PUSH2 0x2BC6 PUSH2 0x3F24 JUMP JUMPDEST JUMPDEST PUSH1 0x20 MUL PUSH1 0x20 ADD ADD SWAP1 PUSH1 0xFF AND SWAP1 DUP2 PUSH1 0xFF AND DUP2 MSTORE POP POP PUSH2 0x2E38 JUMP JUMPDEST PUSH1 0x12 DUP4 GT PUSH2 0x2D38 JUMPI PUSH1 0x3 PUSH8 0xFFFFFFFFFFFFFFFF DUP2 GT ISZERO PUSH2 0x2C03 JUMPI PUSH2 0x2C02 PUSH2 0x3283 JUMP JUMPDEST JUMPDEST PUSH1 0x40 MLOAD SWAP1 DUP1 DUP3 MSTORE DUP1 PUSH1 0x20 MUL PUSH1 0x20 ADD DUP3 ADD PUSH1 0x40 MSTORE DUP1 ISZERO PUSH2 0x2C31 JUMPI DUP2 PUSH1 0x20 ADD PUSH1 0x20 DUP3 MUL DUP1 CALLDATASIZE DUP4 CALLDATACOPY DUP1 DUP3 ADD SWAP2 POP POP SWAP1 POP JUMPDEST POP SWAP1 POP PUSH1 0x6 DUP2 PUSH0 DUP2 MLOAD DUP2 LT PUSH2 0x2C49 JUMPI PUSH2 0x2C48 PUSH2 0x3F24 JUMP JUMPDEST JUMPDEST PUSH1 0x20 MUL PUSH1 0x20 ADD ADD SWAP1 PUSH1 0xFF AND SWAP1 DUP2 PUSH1 0xFF AND DUP2 MSTORE POP POP PUSH1 0x6 DUP1 DUP5 PUSH2 0x2C6B SWAP2 SWAP1 PUSH2 0x3FF6 JUMP JUMPDEST GT PUSH2 0x2C8E JUMPI PUSH1 0x2 PUSH1 0x6 DUP5 PUSH2 0x2C7F SWAP2 SWAP1 PUSH2 0x3FF6 JUMP JUMPDEST PUSH2 0x2C89 SWAP2 SWAP1 PUSH2 0x4D00 JUMP JUMPDEST PUSH2 0x2C91 JUMP JUMPDEST PUSH1 0x6 JUMPDEST DUP2 PUSH1 0x1 DUP2 MLOAD DUP2 LT PUSH2 0x2CA5 JUMPI PUSH2 0x2CA4 PUSH2 0x3F24 JUMP JUMPDEST JUMPDEST PUSH1 0x20 MUL PUSH1 0x20 ADD ADD SWAP1 PUSH1 0xFF AND SWAP1 DUP2 PUSH1 0xFF AND DUP2 MSTORE POP POP DUP1 PUSH1 0x1 DUP2 MLOAD DUP2 LT PUSH2 0x2CCD JUMPI PUSH2 0x2CCC PUSH2 0x3F24 JUMP JUMPDEST JUMPDEST PUSH1 0x20 MUL PUSH1 0x20 ADD ADD MLOAD PUSH1 0xFF AND DUP2 PUSH0 DUP2 MLOAD DUP2 LT PUSH2 0x2CEB JUMPI PUSH2 0x2CEA PUSH2 0x3F24 JUMP JUMPDEST JUMPDEST PUSH1 0x20 MUL PUSH1 0x20 ADD ADD MLOAD PUSH1 0xFF AND DUP5 PUSH2 0x2D01 SWAP2 SWAP1 PUSH2 0x3FF6 JUMP JUMPDEST PUSH2 0x2D0B SWAP2 SWAP1 PUSH2 0x3FF6 JUMP JUMPDEST DUP2 PUSH1 0x2 DUP2 MLOAD DUP2 LT PUSH2 0x2D1F JUMPI PUSH2 0x2D1E PUSH2 0x3F24 JUMP JUMPDEST JUMPDEST PUSH1 0x20 MUL PUSH1 0x20 ADD ADD SWAP1 PUSH1 0xFF AND SWAP1 DUP2 PUSH1 0xFF AND DUP2 MSTORE POP POP PUSH2 0x2E37 JUMP JUMPDEST PUSH1 0x4 PUSH8 0xFFFFFFFFFFFFFFFF DUP2 GT ISZERO PUSH2 0x2D53 JUMPI PUSH2 0x2D52 PUSH2 0x3283 JUMP JUMPDEST JUMPDEST PUSH1 0x40 MLOAD SWAP1 DUP1 DUP3 MSTORE DUP1 PUSH1 0x20 MUL PUSH1 0x20 ADD DUP3 ADD PUSH1 0x40 MSTORE DUP1 ISZERO PUSH2 0x2D81 JUMPI DUP2 PUSH1 0x20 ADD PUSH1 0x20 DUP3 MUL DUP1 CALLDATASIZE DUP4 CALLDATACOPY DUP1 DUP3 ADD SWAP2 POP POP SWAP1 POP JUMPDEST POP SWAP1 POP PUSH1 0x5 DUP2 PUSH0 DUP2 MLOAD DUP2 LT PUSH2 0x2D99 JUMPI PUSH2 0x2D98 PUSH2 0x3F24 JUMP JUMPDEST JUMPDEST PUSH1 0x20 MUL PUSH1 0x20 ADD ADD SWAP1 PUSH1 0xFF AND SWAP1 DUP2 PUSH1 0xFF AND DUP2 MSTORE POP POP PUSH1 0x5 DUP2 PUSH1 0x1 DUP2 MLOAD DUP2 LT PUSH2 0x2DC3 JUMPI PUSH2 0x2DC2 PUSH2 0x3F24 JUMP JUMPDEST JUMPDEST PUSH1 0x20 MUL PUSH1 0x20 ADD ADD SWAP1 PUSH1 0xFF AND SWAP1 DUP2 PUSH1 0xFF AND DUP2 MSTORE POP POP PUSH1 0x5 DUP2 PUSH1 0x2 DUP2 MLOAD DUP2 LT PUSH2 0x2DED JUMPI PUSH2 0x2DEC PUSH2 0x3F24 JUMP JUMPDEST JUMPDEST PUSH1 0x20 MUL PUSH1 0x20 ADD ADD SWAP1 PUSH1 0xFF AND SWAP1 DUP2 PUSH1 0xFF AND DUP2 MSTORE POP POP PUSH1 0xF DUP4 PUSH2 0x2E0E SWAP2 SWAP1 PUSH2 0x3FF6 JUMP JUMPDEST DUP2 PUSH1 0x3 DUP2 MLOAD DUP2 LT PUSH2 0x2E22 JUMPI PUSH2 0x2E21 PUSH2 0x3F24 JUMP JUMPDEST JUMPDEST PUSH1 0x20 MUL PUSH1 0x20 ADD ADD SWAP1 PUSH1 0xFF AND SWAP1 DUP2 PUSH1 0xFF AND DUP2 MSTORE POP POP JUMPDEST JUMPDEST JUMPDEST DUP1 SWAP2 POP POP SWAP2 SWAP1 POP JUMP JUMPDEST DUP3 DUP1 SLOAD DUP3 DUP3 SSTORE SWAP1 PUSH0 MSTORE PUSH1 0x20 PUSH0 KECCAK256 SWAP1 DUP2 ADD SWAP3 DUP3 ISZERO PUSH2 0x2EB8 JUMPI SWAP2 PUSH1 0x20 MUL DUP3 ADD JUMPDEST DUP3 DUP2 GT ISZERO PUSH2 0x2EB7 JUMPI DUP3 MLOAD DUP3 PUSH0 PUSH2 0x100 EXP DUP2 SLOAD DUP2 PUSH20 0xFFFFFFFFFFFFFFFFFFFFFFFFFFFFFFFFFFFFFFFF MUL NOT AND SWAP1 DUP4 PUSH20 0xFFFFFFFFFFFFFFFFFFFFFFFFFFFFFFFFFFFFFFFF AND MUL OR SWAP1 SSTORE POP SWAP2 PUSH1 0x20 ADD SWAP2 SWAP1 PUSH1 0x1 ADD SWAP1 PUSH2 0x2E60 JUMP JUMPDEST JUMPDEST POP SWAP1 POP PUSH2 0x2EC5 SWAP2 SWAP1 PUSH2 0x3001 JUMP JUMPDEST POP SWAP1 JUMP JUMPDEST POP DUP1 SLOAD PUSH0 DUP3 SSTORE PUSH1 0x3 MUL SWAP1 PUSH0 MSTORE PUSH1 0x20 PUSH0 KECCAK256 SWAP1 DUP2 ADD SWAP1 PUSH2 0x2EE7 SWAP2 SWAP1 PUSH2 0x301C JUMP JUMPDEST POP JUMP JUMPDEST DUP3 DUP1 SLOAD DUP3 DUP3 SSTORE SWAP1 PUSH0 MSTORE PUSH1 0x20 PUSH0 KECCAK256 SWAP1 DUP2 ADD SWAP3 DUP3 ISZERO PUSH2 0x2F30 JUMPI SWAP2 PUSH1 0x20 MUL DUP3 ADD JUMPDEST DUP3 DUP2 GT ISZERO PUSH2 0x2F2F JUMPI DUP3 MLOAD DUP3 SWAP1 DUP2 PUSH2 0x2F1F SWAP2 SWAP1 PUSH2 0x4AA1 JUMP JUMPDEST POP SWAP2 PUSH1 0x20 ADD SWAP2 SWAP1 PUSH1 0x1 ADD SWAP1 PUSH2 0x2F08 JUMP JUMPDEST JUMPDEST POP SWAP1 POP PUSH2 0x2F3D SWAP2 SWAP1 PUSH2 0x305F JUMP JUMPDEST POP SWAP1 JUMP JUMPDEST POP DUP1 SLOAD PUSH0 DUP3 SSTORE SWAP1 PUSH0 MSTORE PUSH1 0x20 PUSH0 KECCAK256 SWAP1 DUP2 ADD SWAP1 PUSH2 0x2F5C SWAP2 SWAP1 PUSH2 0x3082 JUMP JUMPDEST POP JUMP JUMPDEST DUP3 DUP1 SLOAD DUP3 DUP3 SSTORE SWAP1 PUSH0 MSTORE PUSH1 0x20 PUSH0 KECCAK256 SWAP1 PUSH1 0x1F ADD PUSH1 0x20 SWAP1 DIV DUP2 ADD SWAP3 DUP3 ISZERO PUSH2 0x2FF0 JUMPI SWAP2 PUSH1 0x20 MUL DUP3 ADD PUSH0 JUMPDEST DUP4 DUP3 GT ISZERO PUSH2 0x2FC2 JUMPI DUP4 MLOAD DUP4 DUP3 PUSH2 0x100 EXP DUP2 SLOAD DUP2 PUSH1 0xFF MUL NOT AND SWAP1 DUP4 PUSH1 0xFF AND MUL OR SWAP1 SSTORE POP SWAP3 PUSH1 0x20 ADD SWAP3 PUSH1 0x1 ADD PUSH1 0x20 DUP2 PUSH0 ADD DIV SWAP3 DUP4 ADD SWAP3 PUSH1 0x1 SUB MUL PUSH2 0x2F85 JUMP JUMPDEST DUP1 ISZERO PUSH2 0x2FEE JUMPI DUP3 DUP2 PUSH2 0x100 EXP DUP2 SLOAD SWAP1 PUSH1 0xFF MUL NOT AND SWAP1 SSTORE PUSH1 0x1 ADD PUSH1 0x20 DUP2 PUSH0 ADD DIV SWAP3 DUP4 ADD SWAP3 PUSH1 0x1 SUB MUL PUSH2 0x2FC2 JUMP JUMPDEST POP JUMPDEST POP SWAP1 POP PUSH2 0x2FFD SWAP2 SWAP1 PUSH2 0x3001 JUMP JUMPDEST POP SWAP1 JUMP JUMPDEST JUMPDEST DUP1 DUP3 GT ISZERO PUSH2 0x3018 JUMPI PUSH0 DUP2 PUSH0 SWAP1 SSTORE POP PUSH1 0x1 ADD PUSH2 0x3002 JUMP JUMPDEST POP SWAP1 JUMP JUMPDEST JUMPDEST DUP1 DUP3 GT ISZERO PUSH2 0x305B JUMPI PUSH0 DUP1 DUP3 ADD PUSH0 PUSH2 0x3034 SWAP2 SWAP1 PUSH2 0x30A7 JUMP JUMPDEST PUSH1 0x1 DUP3 ADD PUSH0 PUSH2 0x3043 SWAP2 SWAP1 PUSH2 0x30A7 JUMP JUMPDEST PUSH1 0x2 DUP3 ADD PUSH0 PUSH2 0x3052 SWAP2 SWAP1 PUSH2 0x30E4 JUMP JUMPDEST POP PUSH1 0x3 ADD PUSH2 0x301D JUMP JUMPDEST POP SWAP1 JUMP JUMPDEST JUMPDEST DUP1 DUP3 GT ISZERO PUSH2 0x307E JUMPI PUSH0 DUP2 DUP2 PUSH2 0x3075 SWAP2 SWAP1 PUSH2 0x30A7 JUMP JUMPDEST POP PUSH1 0x1 ADD PUSH2 0x3060 JUMP JUMPDEST POP SWAP1 JUMP JUMPDEST JUMPDEST DUP1 DUP3 GT ISZERO PUSH2 0x30A3 JUMPI PUSH0 DUP1 DUP3 ADD PUSH0 PUSH2 0x309A SWAP2 SWAP1 PUSH2 0x3102 JUMP JUMPDEST POP PUSH1 0x1 ADD PUSH2 0x3083 JUMP JUMPDEST POP SWAP1 JUMP JUMPDEST POP DUP1 SLOAD PUSH2 0x30B3 SWAP1 PUSH2 0x48DD JUMP JUMPDEST PUSH0 DUP3 SSTORE DUP1 PUSH1 0x1F LT PUSH2 0x30C4 JUMPI POP PUSH2 0x30E1 JUMP JUMPDEST PUSH1 0x1F ADD PUSH1 0x20 SWAP1 DIV SWAP1 PUSH0 MSTORE PUSH1 0x20 PUSH0 KECCAK256 SWAP1 DUP2 ADD SWAP1 PUSH2 0x30E0 SWAP2 SWAP1 PUSH2 0x3001 JUMP JUMPDEST JUMPDEST POP JUMP JUMPDEST POP DUP1 SLOAD PUSH0 DUP3 SSTORE SWAP1 PUSH0 MSTORE PUSH1 0x20 PUSH0 KECCAK256 SWAP1 DUP2 ADD SWAP1 PUSH2 0x30FF SWAP2 SWAP1 PUSH2 0x305F JUMP JUMPDEST POP JUMP JUMPDEST POP DUP1 SLOAD PUSH0 DUP3 SSTORE SWAP1 PUSH0 MSTORE PUSH1 0x20 PUSH0 KECCAK256 SWAP1 DUP2 ADD SWAP1 PUSH2 0x311D SWAP2 SWAP1 PUSH2 0x3001 JUMP JUMPDEST POP JUMP JUMPDEST PUSH0 PUSH20 0xFFFFFFFFFFFFFFFFFFFFFFFFFFFFFFFFFFFFFFFF DUP3 AND SWAP1 POP SWAP2 SWAP1 POP JUMP JUMPDEST PUSH0 DUP2 SWAP1 POP SWAP2 SWAP1 POP JUMP JUMPDEST PUSH0 PUSH2 0x3162 PUSH2 0x315D PUSH2 0x3158 DUP5 PUSH2 0x3120 JUMP JUMPDEST PUSH2 0x313F JUMP JUMPDEST PUSH2 0x3120 JUMP JUMPDEST SWAP1 POP SWAP2 SWAP1 POP JUMP JUMPDEST PUSH0 PUSH2 0x3173 DUP3 PUSH2 0x3148 JUMP JUMPDEST SWAP1 POP SWAP2 SWAP1 POP JUMP JUMPDEST PUSH0 PUSH2 0x3184 DUP3 PUSH2 0x3169 JUMP JUMPDEST SWAP1 POP SWAP2 SWAP1 POP JUMP JUMPDEST PUSH2 0x3194 DUP2 PUSH2 0x317A JUMP JUMPDEST DUP3 MSTORE POP POP JUMP JUMPDEST PUSH0 PUSH1 0x20 DUP3 ADD SWAP1 POP PUSH2 0x31AD PUSH0 DUP4 ADD DUP5 PUSH2 0x318B JUMP JUMPDEST SWAP3 SWAP2 POP POP JUMP JUMPDEST PUSH0 DUP2 SWAP1 POP SWAP2 SWAP1 POP JUMP JUMPDEST PUSH2 0x31C5 DUP2 PUSH2 0x31B3 JUMP JUMPDEST DUP3 MSTORE POP POP JUMP JUMPDEST PUSH0 PUSH1 0x20 DUP3 ADD SWAP1 POP PUSH2 0x31DE PUSH0 DUP4 ADD DUP5 PUSH2 0x31BC JUMP JUMPDEST SWAP3 SWAP2 POP POP JUMP JUMPDEST PUSH0 PUSH1 0x40 MLOAD SWAP1 POP SWAP1 JUMP JUMPDEST PUSH0 DUP1 REVERT JUMPDEST PUSH0 DUP1 REVERT JUMPDEST PUSH2 0x31FE DUP2 PUSH2 0x31B3 JUMP JUMPDEST DUP2 EQ PUSH2 0x3208 JUMPI PUSH0 DUP1 REVERT JUMPDEST POP JUMP JUMPDEST PUSH0 DUP2 CALLDATALOAD SWAP1 POP PUSH2 0x3219 DUP2 PUSH2 0x31F5 JUMP JUMPDEST SWAP3 SWAP2 POP POP JUMP JUMPDEST PUSH0 DUP1 PUSH0 PUSH1 0x60 DUP5 DUP7 SUB SLT ISZERO PUSH2 0x3236 JUMPI PUSH2 0x3235 PUSH2 0x31ED JUMP JUMPDEST JUMPDEST PUSH0 PUSH2 0x3243 DUP7 DUP3 DUP8 ADD PUSH2 0x320B JUMP JUMPDEST SWAP4 POP POP PUSH1 0x20 PUSH2 0x3254 DUP7 DUP3 DUP8 ADD PUSH2 0x320B JUMP JUMPDEST SWAP3 POP POP PUSH1 0x40 PUSH2 0x3265 DUP7 DUP3 DUP8 ADD PUSH2 0x320B JUMP JUMPDEST SWAP2 POP POP SWAP3 POP SWAP3 POP SWAP3 JUMP JUMPDEST PUSH0 DUP1 REVERT JUMPDEST PUSH0 PUSH1 0x1F NOT PUSH1 0x1F DUP4 ADD AND SWAP1 POP SWAP2 SWAP1 POP JUMP JUMPDEST PUSH32 0x4E487B7100000000000000000000000000000000000000000000000000000000 PUSH0 MSTORE PUSH1 0x41 PUSH1 0x4 MSTORE PUSH1 0x24 PUSH0 REVERT JUMPDEST PUSH2 0x32B9 DUP3 PUSH2 0x3273 JUMP JUMPDEST DUP2 ADD DUP2 DUP2 LT PUSH8 0xFFFFFFFFFFFFFFFF DUP3 GT OR ISZERO PUSH2 0x32D8 JUMPI PUSH2 0x32D7 PUSH2 0x3283 JUMP JUMPDEST JUMPDEST DUP1 PUSH1 0x40 MSTORE POP POP POP JUMP JUMPDEST PUSH0 PUSH2 0x32EA PUSH2 0x31E4 JUMP JUMPDEST SWAP1 POP PUSH2 0x32F6 DUP3 DUP3 PUSH2 0x32B0 JUMP JUMPDEST SWAP2 SWAP1 POP JUMP JUMPDEST PUSH0 PUSH8 0xFFFFFFFFFFFFFFFF DUP3 GT ISZERO PUSH2 0x3315 JUMPI PUSH2 0x3314 PUSH2 0x3283 JUMP JUMPDEST JUMPDEST PUSH1 0x20 DUP3 MUL SWAP1 POP PUSH1 0x20 DUP2 ADD SWAP1 POP SWAP2 SWAP1 POP JUMP JUMPDEST PUSH0 DUP1 REVERT JUMPDEST PUSH0 PUSH2 0x3334 DUP3 PUSH2 0x3120 JUMP JUMPDEST SWAP1 POP SWAP2 SWAP1 POP JUMP JUMPDEST PUSH2 0x3344 DUP2 PUSH2 0x332A JUMP JUMPDEST DUP2 EQ PUSH2 0x334E JUMPI PUSH0 DUP1 REVERT JUMPDEST POP JUMP JUMPDEST PUSH0 DUP2 CALLDATALOAD SWAP1 POP PUSH2 0x335F DUP2 PUSH2 0x333B JUMP JUMPDEST SWAP3 SWAP2 POP POP JUMP JUMPDEST PUSH0 PUSH2 0x3377 PUSH2 0x3372 DUP5 PUSH2 0x32FB JUMP JUMPDEST PUSH2 0x32E1 JUMP JUMPDEST SWAP1 POP DUP1 DUP4 DUP3 MSTORE PUSH1 0x20 DUP3 ADD SWAP1 POP PUSH1 0x20 DUP5 MUL DUP4 ADD DUP6 DUP2 GT ISZERO PUSH2 0x339A JUMPI PUSH2 0x3399 PUSH2 0x3326 JUMP JUMPDEST JUMPDEST DUP4 JUMPDEST DUP2 DUP2 LT ISZERO PUSH2 0x33C3 JUMPI DUP1 PUSH2 0x33AF DUP9 DUP3 PUSH2 0x3351 JUMP JUMPDEST DUP5 MSTORE PUSH1 0x20 DUP5 ADD SWAP4 POP POP PUSH1 0x20 DUP2 ADD SWAP1 POP PUSH2 0x339C JUMP JUMPDEST POP POP POP SWAP4 SWAP3 POP POP POP JUMP JUMPDEST PUSH0 DUP3 PUSH1 0x1F DUP4 ADD SLT PUSH2 0x33E1 JUMPI PUSH2 0x33E0 PUSH2 0x326F JUMP JUMPDEST JUMPDEST DUP2 CALLDATALOAD PUSH2 0x33F1 DUP5 DUP3 PUSH1 0x20 DUP7 ADD PUSH2 0x3365 JUMP JUMPDEST SWAP2 POP POP SWAP3 SWAP2 POP POP JUMP JUMPDEST PUSH0 DUP1 PUSH0 DUP1 PUSH1 0x80 DUP6 DUP8 SUB SLT ISZERO PUSH2 0x3412 JUMPI PUSH2 0x3411 PUSH2 0x31ED JUMP JUMPDEST JUMPDEST PUSH0 PUSH2 0x341F DUP8 DUP3 DUP9 ADD PUSH2 0x320B JUMP JUMPDEST SWAP5 POP POP PUSH1 0x20 PUSH2 0x3430 DUP8 DUP3 DUP9 ADD PUSH2 0x320B JUMP JUMPDEST SWAP4 POP POP PUSH1 0x40 PUSH2 0x3441 DUP8 DUP3 DUP9 ADD PUSH2 0x320B JUMP JUMPDEST SWAP3 POP POP PUSH1 0x60 DUP6 ADD CALLDATALOAD PUSH8 0xFFFFFFFFFFFFFFFF DUP2 GT ISZERO PUSH2 0x3462 JUMPI PUSH2 0x3461 PUSH2 0x31F1 JUMP JUMPDEST JUMPDEST PUSH2 0x346E DUP8 DUP3 DUP9 ADD PUSH2 0x33CD JUMP JUMPDEST SWAP2 POP POP SWAP3 SWAP6 SWAP2 SWAP5 POP SWAP3 POP JUMP JUMPDEST PUSH0 DUP1 PUSH0 DUP1 PUSH1 0x80 DUP6 DUP8 SUB SLT ISZERO PUSH2 0x3492 JUMPI PUSH2 0x3491 PUSH2 0x31ED JUMP JUMPDEST JUMPDEST PUSH0 PUSH2 0x349F DUP8 DUP3 DUP9 ADD PUSH2 0x320B JUMP JUMPDEST SWAP5 POP POP PUSH1 0x20 PUSH2 0x34B0 DUP8 DUP3 DUP9 ADD PUSH2 0x320B JUMP JUMPDEST SWAP4 POP POP PUSH1 0x40 PUSH2 0x34C1 DUP8 DUP3 DUP9 ADD PUSH2 0x320B JUMP JUMPDEST SWAP3 POP POP PUSH1 0x60 PUSH2 0x34D2 DUP8 DUP3 DUP9 ADD PUSH2 0x3351 JUMP JUMPDEST SWAP2 POP POP SWAP3 SWAP6 SWAP2 SWAP5 POP SWAP3 POP JUMP JUMPDEST PUSH0 DUP2 MLOAD SWAP1 POP SWAP2 SWAP1 POP JUMP JUMPDEST PUSH0 DUP3 DUP3 MSTORE PUSH1 0x20 DUP3 ADD SWAP1 POP SWAP3 SWAP2 POP POP JUMP JUMPDEST PUSH0 DUP2 SWAP1 POP PUSH1 0x20 DUP3 ADD SWAP1 POP SWAP2 SWAP1 POP JUMP JUMPDEST PUSH2 0x3510 DUP2 PUSH2 0x332A JUMP JUMPDEST DUP3 MSTORE POP POP JUMP JUMPDEST PUSH0 PUSH2 0x3521 DUP4 DUP4 PUSH2 0x3507 JUMP JUMPDEST PUSH1 0x20 DUP4 ADD SWAP1 POP SWAP3 SWAP2 POP POP JUMP JUMPDEST PUSH0 PUSH1 0x20 DUP3 ADD SWAP1 POP SWAP2 SWAP1 POP JUMP JUMPDEST PUSH0 PUSH2 0x3543 DUP3 PUSH2 0x34DE JUMP JUMPDEST PUSH2 0x354D DUP2 DUP6 PUSH2 0x34E8 JUMP JUMPDEST SWAP4 POP PUSH2 0x3558 DUP4 PUSH2 0x34F8 JUMP JUMPDEST DUP1 PUSH0 JUMPDEST DUP4 DUP2 LT ISZERO PUSH2 0x3588 JUMPI DUP2 MLOAD PUSH2 0x356F DUP9 DUP3 PUSH2 0x3516 JUMP JUMPDEST SWAP8 POP PUSH2 0x357A DUP4 PUSH2 0x352D JUMP JUMPDEST SWAP3 POP POP PUSH1 0x1 DUP2 ADD SWAP1 POP PUSH2 0x355B JUMP JUMPDEST POP DUP6 SWAP4 POP POP POP POP SWAP3 SWAP2 POP POP JUMP JUMPDEST PUSH0 PUSH1 0x20 DUP3 ADD SWAP1 POP DUP2 DUP2 SUB PUSH0 DUP4 ADD MSTORE PUSH2 0x35AD DUP2 DUP5 PUSH2 0x3539 JUMP JUMPDEST SWAP1 POP SWAP3 SWAP2 POP POP JUMP JUMPDEST PUSH0 DUP2 MLOAD SWAP1 POP SWAP2 SWAP1 POP JUMP JUMPDEST PUSH0 DUP3 DUP3 MSTORE PUSH1 0x20 DUP3 ADD SWAP1 POP SWAP3 SWAP2 POP POP JUMP JUMPDEST PUSH0 DUP2 SWAP1 POP PUSH1 0x20 DUP3 ADD SWAP1 POP SWAP2 SWAP1 POP JUMP JUMPDEST PUSH2 0x35E7 DUP2 PUSH2 0x31B3 JUMP JUMPDEST DUP3 MSTORE POP POP JUMP JUMPDEST PUSH0 PUSH2 0x35F8 DUP4 DUP4 PUSH2 0x35DE JUMP JUMPDEST PUSH1 0x20 DUP4 ADD SWAP1 POP SWAP3 SWAP2 POP POP JUMP JUMPDEST PUSH0 PUSH1 0x20 DUP3 ADD SWAP1 POP SWAP2 SWAP1 POP JUMP JUMPDEST PUSH0 PUSH2 0x361A DUP3 PUSH2 0x35B5 JUMP JUMPDEST PUSH2 0x3624 DUP2 DUP6 PUSH2 0x35BF JUMP JUMPDEST SWAP4 POP PUSH2 0x362F DUP4 PUSH2 0x35CF JUMP JUMPDEST DUP1 PUSH0 JUMPDEST DUP4 DUP2 LT ISZERO PUSH2 0x365F JUMPI DUP2 MLOAD PUSH2 0x3646 DUP9 DUP3 PUSH2 0x35ED JUMP JUMPDEST SWAP8 POP PUSH2 0x3651 DUP4 PUSH2 0x3604 JUMP JUMPDEST SWAP3 POP POP PUSH1 0x1 DUP2 ADD SWAP1 POP PUSH2 0x3632 JUMP JUMPDEST POP DUP6 SWAP4 POP POP POP POP SWAP3 SWAP2 POP POP JUMP JUMPDEST PUSH0 PUSH1 0x40 DUP3 ADD SWAP1 POP DUP2 DUP2 SUB PUSH0 DUP4 ADD MSTORE PUSH2 0x3684 DUP2 DUP6 PUSH2 0x3610 JUMP JUMPDEST SWAP1 POP DUP2 DUP2 SUB PUSH1 0x20 DUP4 ADD MSTORE PUSH2 0x3698 DUP2 DUP5 PUSH2 0x3610 JUMP JUMPDEST SWAP1 POP SWAP4 SWAP3 POP POP POP JUMP JUMPDEST PUSH0 PUSH1 0x40 DUP3 ADD SWAP1 POP DUP2 DUP2 SUB PUSH0 DUP4 ADD MSTORE PUSH2 0x36B9 DUP2 DUP6 PUSH2 0x3539 JUMP JUMPDEST SWAP1 POP DUP2 DUP2 SUB PUSH1 0x20 DUP4 ADD MSTORE PUSH2 0x36CD DUP2 DUP5 PUSH2 0x3610 JUMP JUMPDEST SWAP1 POP SWAP4 SWAP3 POP POP POP JUMP JUMPDEST PUSH0 PUSH1 0x20 DUP3 DUP5 SUB SLT ISZERO PUSH2 0x36EB JUMPI PUSH2 0x36EA PUSH2 0x31ED JUMP JUMPDEST JUMPDEST PUSH0 PUSH2 0x36F8 DUP5 DUP3 DUP6 ADD PUSH2 0x320B JUMP JUMPDEST SWAP2 POP POP SWAP3 SWAP2 POP POP JUMP JUMPDEST PUSH0 PUSH8 0xFFFFFFFFFFFFFFFF DUP3 GT ISZERO PUSH2 0x371B JUMPI PUSH2 0x371A PUSH2 0x3283 JUMP JUMPDEST JUMPDEST PUSH1 0x20 DUP3 MUL SWAP1 POP PUSH1 0x20 DUP2 ADD SWAP1 POP SWAP2 SWAP1 POP JUMP JUMPDEST PUSH0 DUP1 REVERT JUMPDEST PUSH0 DUP1 REVERT JUMPDEST PUSH0 DUP1 REVERT JUMPDEST PUSH0 PUSH8 0xFFFFFFFFFFFFFFFF DUP3 GT ISZERO PUSH2 0x3752 JUMPI PUSH2 0x3751 PUSH2 0x3283 JUMP JUMPDEST JUMPDEST PUSH2 0x375B DUP3 PUSH2 0x3273 JUMP JUMPDEST SWAP1 POP PUSH1 0x20 DUP2 ADD SWAP1 POP SWAP2 SWAP1 POP JUMP JUMPDEST DUP3 DUP2 DUP4 CALLDATACOPY PUSH0 DUP4 DUP4 ADD MSTORE POP POP POP JUMP JUMPDEST PUSH0 PUSH2 0x3788 PUSH2 0x3783 DUP5 PUSH2 0x3738 JUMP JUMPDEST PUSH2 0x32E1 JUMP JUMPDEST SWAP1 POP DUP3 DUP2 MSTORE PUSH1 0x20 DUP2 ADD DUP5 DUP5 DUP5 ADD GT ISZERO PUSH2 0x37A4 JUMPI PUSH2 0x37A3 PUSH2 0x3734 JUMP JUMPDEST JUMPDEST PUSH2 0x37AF DUP5 DUP3 DUP6 PUSH2 0x3768 JUMP JUMPDEST POP SWAP4 SWAP3 POP POP POP JUMP JUMPDEST PUSH0 DUP3 PUSH1 0x1F DUP4 ADD SLT PUSH2 0x37CB JUMPI PUSH2 0x37CA PUSH2 0x326F JUMP JUMPDEST JUMPDEST DUP2 CALLDATALOAD PUSH2 0x37DB DUP5 DUP3 PUSH1 0x20 DUP7 ADD PUSH2 0x3776 JUMP JUMPDEST SWAP2 POP POP SWAP3 SWAP2 POP POP JUMP JUMPDEST PUSH0 PUSH8 0xFFFFFFFFFFFFFFFF DUP3 GT ISZERO PUSH2 0x37FE JUMPI PUSH2 0x37FD PUSH2 0x3283 JUMP JUMPDEST JUMPDEST PUSH1 0x20 DUP3 MUL SWAP1 POP PUSH1 0x20 DUP2 ADD SWAP1 POP SWAP2 SWAP1 POP JUMP JUMPDEST PUSH0 PUSH2 0x3821 PUSH2 0x381C DUP5 PUSH2 0x37E4 JUMP JUMPDEST PUSH2 0x32E1 JUMP JUMPDEST SWAP1 POP DUP1 DUP4 DUP3 MSTORE PUSH1 0x20 DUP3 ADD SWAP1 POP PUSH1 0x20 DUP5 MUL DUP4 ADD DUP6 DUP2 GT ISZERO PUSH2 0x3844 JUMPI PUSH2 0x3843 PUSH2 0x3326 JUMP JUMPDEST JUMPDEST DUP4 JUMPDEST DUP2 DUP2 LT ISZERO PUSH2 0x388B JUMPI DUP1 CALLDATALOAD PUSH8 0xFFFFFFFFFFFFFFFF DUP2 GT ISZERO PUSH2 0x3869 JUMPI PUSH2 0x3868 PUSH2 0x326F JUMP JUMPDEST JUMPDEST DUP1 DUP7 ADD PUSH2 0x3876 DUP10 DUP3 PUSH2 0x37B7 JUMP JUMPDEST DUP6 MSTORE PUSH1 0x20 DUP6 ADD SWAP5 POP POP POP PUSH1 0x20 DUP2 ADD SWAP1 POP PUSH2 0x3846 JUMP JUMPDEST POP POP POP SWAP4 SWAP3 POP POP POP JUMP JUMPDEST PUSH0 DUP3 PUSH1 0x1F DUP4 ADD SLT PUSH2 0x38A9 JUMPI PUSH2 0x38A8 PUSH2 0x326F JUMP JUMPDEST JUMPDEST DUP2 CALLDATALOAD PUSH2 0x38B9 DUP5 DUP3 PUSH1 0x20 DUP7 ADD PUSH2 0x380F JUMP JUMPDEST SWAP2 POP POP SWAP3 SWAP2 POP POP JUMP JUMPDEST PUSH0 PUSH1 0x60 DUP3 DUP5 SUB SLT ISZERO PUSH2 0x38D7 JUMPI PUSH2 0x38D6 PUSH2 0x372C JUMP JUMPDEST JUMPDEST PUSH2 0x38E1 PUSH1 0x60 PUSH2 0x32E1 JUMP JUMPDEST SWAP1 POP PUSH0 DUP3 ADD CALLDATALOAD PUSH8 0xFFFFFFFFFFFFFFFF DUP2 GT ISZERO PUSH2 0x3900 JUMPI PUSH2 0x38FF PUSH2 0x3730 JUMP JUMPDEST JUMPDEST PUSH2 0x390C DUP5 DUP3 DUP6 ADD PUSH2 0x37B7 JUMP JUMPDEST PUSH0 DUP4 ADD MSTORE POP PUSH1 0x20 DUP3 ADD CALLDATALOAD PUSH8 0xFFFFFFFFFFFFFFFF DUP2 GT ISZERO PUSH2 0x392F JUMPI PUSH2 0x392E PUSH2 0x3730 JUMP JUMPDEST JUMPDEST PUSH2 0x393B DUP5 DUP3 DUP6 ADD PUSH2 0x37B7 JUMP JUMPDEST PUSH1 0x20 DUP4 ADD MSTORE POP PUSH1 0x40 DUP3 ADD CALLDATALOAD PUSH8 0xFFFFFFFFFFFFFFFF DUP2 GT ISZERO PUSH2 0x395F JUMPI PUSH2 0x395E PUSH2 0x3730 JUMP JUMPDEST JUMPDEST PUSH2 0x396B DUP5 DUP3 DUP6 ADD PUSH2 0x3895 JUMP JUMPDEST PUSH1 0x40 DUP4 ADD MSTORE POP SWAP3 SWAP2 POP POP JUMP JUMPDEST PUSH0 PUSH2 0x3989 PUSH2 0x3984 DUP5 PUSH2 0x3701 JUMP JUMPDEST PUSH2 0x32E1 JUMP JUMPDEST SWAP1 POP DUP1 DUP4 DUP3 MSTORE PUSH1 0x20 DUP3 ADD SWAP1 POP PUSH1 0x20 DUP5 MUL DUP4 ADD DUP6 DUP2 GT ISZERO PUSH2 0x39AC JUMPI PUSH2 0x39AB PUSH2 0x3326 JUMP JUMPDEST JUMPDEST DUP4 JUMPDEST DUP2 DUP2 LT ISZERO PUSH2 0x39F3 JUMPI DUP1 CALLDATALOAD PUSH8 0xFFFFFFFFFFFFFFFF DUP2 GT ISZERO PUSH2 0x39D1 JUMPI PUSH2 0x39D0 PUSH2 0x326F JUMP JUMPDEST JUMPDEST DUP1 DUP7 ADD PUSH2 0x39DE DUP10 DUP3 PUSH2 0x38C2 JUMP JUMPDEST DUP6 MSTORE PUSH1 0x20 DUP6 ADD SWAP5 POP POP POP PUSH1 0x20 DUP2 ADD SWAP1 POP PUSH2 0x39AE JUMP JUMPDEST POP POP POP SWAP4 SWAP3 POP POP POP JUMP JUMPDEST PUSH0 DUP3 PUSH1 0x1F DUP4 ADD SLT PUSH2 0x3A11 JUMPI PUSH2 0x3A10 PUSH2 0x326F JUMP JUMPDEST JUMPDEST DUP2 CALLDATALOAD PUSH2 0x3A21 DUP5 DUP3 PUSH1 0x20 DUP7 ADD PUSH2 0x3977 JUMP JUMPDEST SWAP2 POP POP SWAP3 SWAP2 POP POP JUMP JUMPDEST PUSH0 DUP1 PUSH1 0x40 DUP4 DUP6 SUB SLT ISZERO PUSH2 0x3A40 JUMPI PUSH2 0x3A3F PUSH2 0x31ED JUMP JUMPDEST JUMPDEST PUSH0 PUSH2 0x3A4D DUP6 DUP3 DUP7 ADD PUSH2 0x320B JUMP JUMPDEST SWAP3 POP POP PUSH1 0x20 DUP4 ADD CALLDATALOAD PUSH8 0xFFFFFFFFFFFFFFFF DUP2 GT ISZERO PUSH2 0x3A6E JUMPI PUSH2 0x3A6D PUSH2 0x31F1 JUMP JUMPDEST JUMPDEST PUSH2 0x3A7A DUP6 DUP3 DUP7 ADD PUSH2 0x39FD JUMP JUMPDEST SWAP2 POP POP SWAP3 POP SWAP3 SWAP1 POP JUMP JUMPDEST PUSH0 PUSH1 0x40 DUP3 ADD SWAP1 POP DUP2 DUP2 SUB PUSH0 DUP4 ADD MSTORE PUSH2 0x3A9C DUP2 DUP6 PUSH2 0x3539 JUMP JUMPDEST SWAP1 POP PUSH2 0x3AAB PUSH1 0x20 DUP4 ADD DUP5 PUSH2 0x31BC JUMP JUMPDEST SWAP4 SWAP3 POP POP POP JUMP JUMPDEST PUSH0 DUP1 PUSH1 0x40 DUP4 DUP6 SUB SLT ISZERO PUSH2 0x3AC8 JUMPI PUSH2 0x3AC7 PUSH2 0x31ED JUMP JUMPDEST JUMPDEST PUSH0 PUSH2 0x3AD5 DUP6 DUP3 DUP7 ADD PUSH2 0x3351 JUMP JUMPDEST SWAP3 POP POP PUSH1 0x20 PUSH2 0x3AE6 DUP6 DUP3 DUP7 ADD PUSH2 0x320B JUMP JUMPDEST SWAP2 POP POP SWAP3 POP SWAP3 SWAP1 POP JUMP JUMPDEST PUSH0 PUSH1 0x20 DUP3 ADD SWAP1 POP DUP2 DUP2 SUB PUSH0 DUP4 ADD MSTORE PUSH2 0x3B08 DUP2 DUP5 PUSH2 0x3610 JUMP JUMPDEST SWAP1 POP SWAP3 SWAP2 POP POP JUMP JUMPDEST PUSH0 DUP1 PUSH0 PUSH1 0x60 DUP5 DUP7 SUB SLT ISZERO PUSH2 0x3B27 JUMPI PUSH2 0x3B26 PUSH2 0x31ED JUMP JUMPDEST JUMPDEST PUSH0 PUSH2 0x3B34 DUP7 DUP3 DUP8 ADD PUSH2 0x3351 JUMP JUMPDEST SWAP4 POP POP PUSH1 0x20 PUSH2 0x3B45 DUP7 DUP3 DUP8 ADD PUSH2 0x320B JUMP JUMPDEST SWAP3 POP POP PUSH1 0x40 PUSH2 0x3B56 DUP7 DUP3 DUP8 ADD PUSH2 0x320B JUMP JUMPDEST SWAP2 POP POP SWAP3 POP SWAP3 POP SWAP3 JUMP JUMPDEST PUSH0 DUP2 MLOAD SWAP1 POP SWAP2 SWAP1 POP JUMP JUMPDEST PUSH0 DUP3 DUP3 MSTORE PUSH1 0x20 DUP3 ADD SWAP1 POP SWAP3 SWAP2 POP POP JUMP JUMPDEST PUSH0 DUP2 SWAP1 POP PUSH1 0x20 DUP3 ADD SWAP1 POP SWAP2 SWAP1 POP JUMP JUMPDEST PUSH0 DUP2 MLOAD SWAP1 POP SWAP2 SWAP1 POP JUMP JUMPDEST PUSH0 DUP3 DUP3 MSTORE PUSH1 0x20 DUP3 ADD SWAP1 POP SWAP3 SWAP2 POP POP JUMP JUMPDEST DUP3 DUP2 DUP4 MCOPY PUSH0 DUP4 DUP4 ADD MSTORE POP POP POP JUMP JUMPDEST PUSH0 PUSH2 0x3BBB DUP3 PUSH2 0x3B89 JUMP JUMPDEST PUSH2 0x3BC5 DUP2 DUP6 PUSH2 0x3B93 JUMP JUMPDEST SWAP4 POP PUSH2 0x3BD5 DUP2 DUP6 PUSH1 0x20 DUP7 ADD PUSH2 0x3BA3 JUMP JUMPDEST PUSH2 0x3BDE DUP2 PUSH2 0x3273 JUMP JUMPDEST DUP5 ADD SWAP2 POP POP SWAP3 SWAP2 POP POP JUMP JUMPDEST PUSH0 PUSH2 0x3BF4 DUP4 DUP4 PUSH2 0x3BB1 JUMP JUMPDEST SWAP1 POP SWAP3 SWAP2 POP POP JUMP JUMPDEST PUSH0 PUSH1 0x20 DUP3 ADD SWAP1 POP SWAP2 SWAP1 POP JUMP JUMPDEST PUSH0 PUSH2 0x3C12 DUP3 PUSH2 0x3B60 JUMP JUMPDEST PUSH2 0x3C1C DUP2 DUP6 PUSH2 0x3B6A JUMP JUMPDEST SWAP4 POP DUP4 PUSH1 0x20 DUP3 MUL DUP6 ADD PUSH2 0x3C2E DUP6 PUSH2 0x3B7A JUMP JUMPDEST DUP1 PUSH0 JUMPDEST DUP6 DUP2 LT ISZERO PUSH2 0x3C69 JUMPI DUP5 DUP5 SUB DUP10 MSTORE DUP2 MLOAD PUSH2 0x3C4A DUP6 DUP3 PUSH2 0x3BE9 JUMP JUMPDEST SWAP5 POP PUSH2 0x3C55 DUP4 PUSH2 0x3BFC JUMP JUMPDEST SWAP3 POP PUSH1 0x20 DUP11 ADD SWAP10 POP POP PUSH1 0x1 DUP2 ADD SWAP1 POP PUSH2 0x3C31 JUMP JUMPDEST POP DUP3 SWAP8 POP DUP8 SWAP6 POP POP POP POP POP POP SWAP3 SWAP2 POP POP JUMP JUMPDEST PUSH0 DUP2 MLOAD SWAP1 POP SWAP2 SWAP1 POP JUMP JUMPDEST PUSH0 DUP3 DUP3 MSTORE PUSH1 0x20 DUP3 ADD SWAP1 POP SWAP3 SWAP2 POP POP JUMP JUMPDEST PUSH0 DUP2 SWAP1 POP PUSH1 0x20 DUP3 ADD SWAP1 POP SWAP2 SWAP1 POP JUMP JUMPDEST PUSH0 DUP3 DUP3 MSTORE PUSH1 0x20 DUP3 ADD SWAP1 POP SWAP3 SWAP2 POP POP JUMP JUMPDEST PUSH0 PUSH2 0x3CBE DUP3 PUSH2 0x3B60 JUMP JUMPDEST PUSH2 0x3CC8 DUP2 DUP6 PUSH2 0x3CA4 JUMP JUMPDEST SWAP4 POP DUP4 PUSH1 0x20 DUP3 MUL DUP6 ADD PUSH2 0x3CDA DUP6 PUSH2 0x3B7A JUMP JUMPDEST DUP1 PUSH0 JUMPDEST DUP6 DUP2 LT ISZERO PUSH2 0x3D15 JUMPI DUP5 DUP5 SUB DUP10 MSTORE DUP2 MLOAD PUSH2 0x3CF6 DUP6 DUP3 PUSH2 0x3BE9 JUMP JUMPDEST SWAP5 POP PUSH2 0x3D01 DUP4 PUSH2 0x3BFC JUMP JUMPDEST SWAP3 POP PUSH1 0x20 DUP11 ADD SWAP10 POP POP PUSH1 0x1 DUP2 ADD SWAP1 POP PUSH2 0x3CDD JUMP JUMPDEST POP DUP3 SWAP8 POP DUP8 SWAP6 POP POP POP POP POP POP SWAP3 SWAP2 POP POP JUMP JUMPDEST PUSH0 PUSH2 0x3D32 DUP4 DUP4 PUSH2 0x3CB4 JUMP JUMPDEST SWAP1 POP SWAP3 SWAP2 POP POP JUMP JUMPDEST PUSH0 PUSH1 0x20 DUP3 ADD SWAP1 POP SWAP2 SWAP1 POP JUMP JUMPDEST PUSH0 PUSH2 0x3D50 DUP3 PUSH2 0x3C7B JUMP JUMPDEST PUSH2 0x3D5A DUP2 DUP6 PUSH2 0x3C85 JUMP JUMPDEST SWAP4 POP DUP4 PUSH1 0x20 DUP3 MUL DUP6 ADD PUSH2 0x3D6C DUP6 PUSH2 0x3C95 JUMP JUMPDEST DUP1 PUSH0 JUMPDEST DUP6 DUP2 LT ISZERO PUSH2 0x3DA7 JUMPI DUP5 DUP5 SUB DUP10 MSTORE DUP2 MLOAD PUSH2 0x3D88 DUP6 DUP3 PUSH2 0x3D27 JUMP JUMPDEST SWAP5 POP PUSH2 0x3D93 DUP4 PUSH2 0x3D3A JUMP JUMPDEST SWAP3 POP PUSH1 0x20 DUP11 ADD SWAP10 POP POP PUSH1 0x1 DUP2 ADD SWAP1 POP PUSH2 0x3D6F JUMP JUMPDEST POP DUP3 SWAP8 POP DUP8 SWAP6 POP POP POP POP POP POP SWAP3 SWAP2 POP POP JUMP JUMPDEST PUSH0 PUSH1 0x60 DUP3 ADD SWAP1 POP DUP2 DUP2 SUB PUSH0 DUP4 ADD MSTORE PUSH2 0x3DD1 DUP2 DUP7 PUSH2 0x3C08 JUMP JUMPDEST SWAP1 POP DUP2 DUP2 SUB PUSH1 0x20 DUP4 ADD MSTORE PUSH2 0x3DE5 DUP2 DUP6 PUSH2 0x3C08 JUMP JUMPDEST SWAP1 POP DUP2 DUP2 SUB PUSH1 0x40 DUP4 ADD MSTORE PUSH2 0x3DF9 DUP2 DUP5 PUSH2 0x3D46 JUMP JUMPDEST SWAP1 POP SWAP5 SWAP4 POP POP POP POP JUMP JUMPDEST PUSH0 DUP2 MLOAD SWAP1 POP SWAP2 SWAP1 POP JUMP JUMPDEST PUSH0 DUP3 DUP3 MSTORE PUSH1 0x20 DUP3 ADD SWAP1 POP SWAP3 SWAP2 POP POP JUMP JUMPDEST PUSH0 DUP2 SWAP1 POP PUSH1 0x20 DUP3 ADD SWAP1 POP SWAP2 SWAP1 POP JUMP JUMPDEST PUSH0 PUSH1 0xFF DUP3 AND SWAP1 POP SWAP2 SWAP1 POP JUMP JUMPDEST PUSH2 0x3E41 DUP2 PUSH2 0x3E2C JUMP JUMPDEST DUP3 MSTORE POP POP JUMP JUMPDEST PUSH0 PUSH2 0x3E52 DUP4 DUP4 PUSH2 0x3E38 JUMP JUMPDEST PUSH1 0x20 DUP4 ADD SWAP1 POP SWAP3 SWAP2 POP POP JUMP JUMPDEST PUSH0 PUSH1 0x20 DUP3 ADD SWAP1 POP SWAP2 SWAP1 POP JUMP JUMPDEST PUSH0 PUSH2 0x3E74 DUP3 PUSH2 0x3E03 JUMP JUMPDEST PUSH2 0x3E7E DUP2 DUP6 PUSH2 0x3E0D JUMP JUMPDEST SWAP4 POP PUSH2 0x3E89 DUP4 PUSH2 0x3E1D JUMP JUMPDEST DUP1 PUSH0 JUMPDEST DUP4 DUP2 LT ISZERO PUSH2 0x3EB9 JUMPI DUP2 MLOAD PUSH2 0x3EA0 DUP9 DUP3 PUSH2 0x3E47 JUMP JUMPDEST SWAP8 POP PUSH2 0x3EAB DUP4 PUSH2 0x3E5E JUMP JUMPDEST SWAP3 POP POP PUSH1 0x1 DUP2 ADD SWAP1 POP PUSH2 0x3E8C JUMP JUMPDEST POP DUP6 SWAP4 POP POP POP POP SWAP3 SWAP2 POP POP JUMP JUMPDEST PUSH0 PUSH1 0x20 DUP3 ADD SWAP1 POP DUP2 DUP2 SUB PUSH0 DUP4 ADD MSTORE PUSH2 0x3EDE DUP2 DUP5 PUSH2 0x3E6A JUMP JUMPDEST SWAP1 POP SWAP3 SWAP2 POP POP JUMP JUMPDEST PUSH0 DUP1 PUSH1 0x40 DUP4 DUP6 SUB SLT ISZERO PUSH2 0x3EFC JUMPI PUSH2 0x3EFB PUSH2 0x31ED JUMP JUMPDEST JUMPDEST PUSH0 PUSH2 0x3F09 DUP6 DUP3 DUP7 ADD PUSH2 0x320B JUMP JUMPDEST SWAP3 POP POP PUSH1 0x20 PUSH2 0x3F1A DUP6 DUP3 DUP7 ADD PUSH2 0x320B JUMP JUMPDEST SWAP2 POP POP SWAP3 POP SWAP3 SWAP1 POP JUMP JUMPDEST PUSH32 0x4E487B7100000000000000000000000000000000000000000000000000000000 PUSH0 MSTORE PUSH1 0x32 PUSH1 0x4 MSTORE PUSH1 0x24 PUSH0 REVERT JUMPDEST PUSH0 DUP3 DUP3 MSTORE PUSH1 0x20 DUP3 ADD SWAP1 POP SWAP3 SWAP2 POP POP JUMP JUMPDEST PUSH32 0x47726F757020646F6573206E6F74206578697374000000000000000000000000 PUSH0 DUP3 ADD MSTORE POP JUMP JUMPDEST PUSH0 PUSH2 0x3F95 PUSH1 0x14 DUP4 PUSH2 0x3F51 JUMP JUMPDEST SWAP2 POP PUSH2 0x3FA0 DUP3 PUSH2 0x3F61 JUMP JUMPDEST PUSH1 0x20 DUP3 ADD SWAP1 POP SWAP2 SWAP1 POP JUMP JUMPDEST PUSH0 PUSH1 0x20 DUP3 ADD SWAP1 POP DUP2 DUP2 SUB PUSH0 DUP4 ADD MSTORE PUSH2 0x3FC2 DUP2 PUSH2 0x3F89 JUMP JUMPDEST SWAP1 POP SWAP2 SWAP1 POP JUMP JUMPDEST PUSH32 0x4E487B7100000000000000000000000000000000000000000000000000000000 PUSH0 MSTORE PUSH1 0x11 PUSH1 0x4 MSTORE PUSH1 0x24 PUSH0 REVERT JUMPDEST PUSH0 PUSH2 0x4000 DUP3 PUSH2 0x31B3 JUMP JUMPDEST SWAP2 POP PUSH2 0x400B DUP4 PUSH2 0x31B3 JUMP JUMPDEST SWAP3 POP DUP3 DUP3 SUB SWAP1 POP DUP2 DUP2 GT ISZERO PUSH2 0x4023 JUMPI PUSH2 0x4022 PUSH2 0x3FC9 JUMP JUMPDEST JUMPDEST SWAP3 SWAP2 POP POP JUMP JUMPDEST PUSH0 PUSH2 0x4033 DUP3 PUSH2 0x31B3 JUMP JUMPDEST SWAP2 POP PUSH2 0x403E DUP4 PUSH2 0x31B3 JUMP JUMPDEST SWAP3 POP DUP3 DUP3 ADD SWAP1 POP DUP1 DUP3 GT ISZERO PUSH2 0x4056 JUMPI PUSH2 0x4055 PUSH2 0x3FC9 JUMP JUMPDEST JUMPDEST SWAP3 SWAP2 POP POP JUMP JUMPDEST PUSH0 PUSH1 0x60 DUP3 ADD SWAP1 POP PUSH2 0x406F PUSH0 DUP4 ADD DUP7 PUSH2 0x31BC JUMP JUMPDEST PUSH2 0x407C PUSH1 0x20 DUP4 ADD DUP6 PUSH2 0x31BC JUMP JUMPDEST DUP2 DUP2 SUB PUSH1 0x40 DUP4 ADD MSTORE PUSH2 0x408E DUP2 DUP5 PUSH2 0x3539 JUMP JUMPDEST SWAP1 POP SWAP5 SWAP4 POP POP POP POP JUMP JUMPDEST PUSH32 0x52616E6B696E67206D7573742068617665203120746F2036206D656D62657273 PUSH0 DUP3 ADD MSTORE POP JUMP JUMPDEST PUSH0 PUSH2 0x40CC PUSH1 0x20 DUP4 PUSH2 0x3F51 JUMP JUMPDEST SWAP2 POP PUSH2 0x40D7 DUP3 PUSH2 0x4098 JUMP JUMPDEST PUSH1 0x20 DUP3 ADD SWAP1 POP SWAP2 SWAP1 POP JUMP JUMPDEST PUSH0 PUSH1 0x20 DUP3 ADD SWAP1 POP DUP2 DUP2 SUB PUSH0 DUP4 ADD MSTORE PUSH2 0x40F9 DUP2 PUSH2 0x40C0 JUMP JUMPDEST SWAP1 POP SWAP2 SWAP1 POP JUMP JUMPDEST PUSH32 0x53656E646572206E6F742070617274206F66207468652067726F757000000000 PUSH0 DUP3 ADD MSTORE POP JUMP JUMPDEST PUSH0 PUSH2 0x4134 PUSH1 0x1C DUP4 PUSH2 0x3F51 JUMP JUMPDEST SWAP2 POP PUSH2 0x413F DUP3 PUSH2 0x4100 JUMP JUMPDEST PUSH1 0x20 DUP3 ADD SWAP1 POP SWAP2 SWAP1 POP JUMP JUMPDEST PUSH0 PUSH1 0x20 DUP3 ADD SWAP1 POP DUP2 DUP2 SUB PUSH0 DUP4 ADD MSTORE PUSH2 0x4161 DUP2 PUSH2 0x4128 JUMP JUMPDEST SWAP1 POP SWAP2 SWAP1 POP JUMP JUMPDEST PUSH32 0x52616E6B696E6720616C7265616479207375626D697474656400000000000000 PUSH0 DUP3 ADD MSTORE POP JUMP JUMPDEST PUSH0 PUSH2 0x419C PUSH1 0x19 DUP4 PUSH2 0x3F51 JUMP JUMPDEST SWAP2 POP PUSH2 0x41A7 DUP3 PUSH2 0x4168 JUMP JUMPDEST PUSH1 0x20 DUP3 ADD SWAP1 POP SWAP2 SWAP1 POP JUMP JUMPDEST PUSH0 PUSH1 0x20 DUP3 ADD SWAP1 POP DUP2 DUP2 SUB PUSH0 DUP4 ADD MSTORE PUSH2 0x41C9 DUP2 PUSH2 0x4190 JUMP JUMPDEST SWAP1 POP SWAP2 SWAP1 POP JUMP JUMPDEST PUSH32 0x496E76616C6964206164647265737320696E2072616E6B696E67000000000000 PUSH0 DUP3 ADD MSTORE POP JUMP JUMPDEST PUSH0 PUSH2 0x4204 PUSH1 0x1A DUP4 PUSH2 0x3F51 JUMP JUMPDEST SWAP2 POP PUSH2 0x420F DUP3 PUSH2 0x41D0 JUMP JUMPDEST PUSH1 0x20 DUP3 ADD SWAP1 POP SWAP2 SWAP1 POP JUMP JUMPDEST PUSH0 PUSH1 0x20 DUP3 ADD SWAP1 POP DUP2 DUP2 SUB PUSH0 DUP4 ADD MSTORE PUSH2 0x4231 DUP2 PUSH2 0x41F8 JUMP JUMPDEST SWAP1 POP SWAP2 SWAP1 POP JUMP JUMPDEST PUSH32 0x53656E646572206D75737420626520696E636C7564656420696E207468652072 PUSH0 DUP3 ADD MSTORE PUSH32 0x616E6B696E670000000000000000000000000000000000000000000000000000 PUSH1 0x20 DUP3 ADD MSTORE POP JUMP JUMPDEST PUSH0 PUSH2 0x4292 PUSH1 0x26 DUP4 PUSH2 0x3F51 JUMP JUMPDEST SWAP2 POP PUSH2 0x429D DUP3 PUSH2 0x4238 JUMP JUMPDEST PUSH1 0x40 DUP3 ADD SWAP1 POP SWAP2 SWAP1 POP JUMP JUMPDEST PUSH0 PUSH1 0x20 DUP3 ADD SWAP1 POP DUP2 DUP2 SUB PUSH0 DUP4 ADD MSTORE PUSH2 0x42BF DUP2 PUSH2 0x4286 JUMP JUMPDEST SWAP1 POP SWAP2 SWAP1 POP JUMP JUMPDEST PUSH0 PUSH1 0x40 DUP3 ADD SWAP1 POP PUSH2 0x42D9 PUSH0 DUP4 ADD DUP6 PUSH2 0x31BC JUMP JUMPDEST PUSH2 0x42E6 PUSH1 0x20 DUP4 ADD DUP5 PUSH2 0x31BC JUMP JUMPDEST SWAP4 SWAP3 POP POP POP JUMP JUMPDEST PUSH32 0x496E76616C69642067726F757020494400000000000000000000000000000000 PUSH0 DUP3 ADD MSTORE POP JUMP JUMPDEST PUSH0 PUSH2 0x4321 PUSH1 0x10 DUP4 PUSH2 0x3F51 JUMP JUMPDEST SWAP2 POP PUSH2 0x432C DUP3 PUSH2 0x42ED JUMP JUMPDEST PUSH1 0x20 DUP3 ADD SWAP1 POP SWAP2 SWAP1 POP JUMP JUMPDEST PUSH0 PUSH1 0x20 DUP3 ADD SWAP1 POP DUP2 DUP2 SUB PUSH0 DUP4 ADD MSTORE PUSH2 0x434E DUP2 PUSH2 0x4315 JUMP JUMPDEST SWAP1 POP SWAP2 SWAP1 POP JUMP JUMPDEST PUSH2 0x435E DUP2 PUSH2 0x332A JUMP JUMPDEST DUP3 MSTORE POP POP JUMP JUMPDEST PUSH0 PUSH1 0x20 DUP3 ADD SWAP1 POP PUSH2 0x4377 PUSH0 DUP4 ADD DUP5 PUSH2 0x4355 JUMP JUMPDEST SWAP3 SWAP2 POP POP JUMP JUMPDEST PUSH0 PUSH2 0x438F PUSH2 0x438A DUP5 PUSH2 0x3738 JUMP JUMPDEST PUSH2 0x32E1 JUMP JUMPDEST SWAP1 POP DUP3 DUP2 MSTORE PUSH1 0x20 DUP2 ADD DUP5 DUP5 DUP5 ADD GT ISZERO PUSH2 0x43AB JUMPI PUSH2 0x43AA PUSH2 0x3734 JUMP JUMPDEST JUMPDEST PUSH2 0x43B6 DUP5 DUP3 DUP6 PUSH2 0x3BA3 JUMP JUMPDEST POP SWAP4 SWAP3 POP POP POP JUMP JUMPDEST PUSH0 DUP3 PUSH1 0x1F DUP4 ADD SLT PUSH2 0x43D2 JUMPI PUSH2 0x43D1 PUSH2 0x326F JUMP JUMPDEST JUMPDEST DUP2 MLOAD PUSH2 0x43E2 DUP5 DUP3 PUSH1 0x20 DUP7 ADD PUSH2 0x437D JUMP JUMPDEST SWAP2 POP POP SWAP3 SWAP2 POP POP JUMP JUMPDEST PUSH0 DUP1 PUSH0 PUSH1 0x60 DUP5 DUP7 SUB SLT ISZERO PUSH2 0x4402 JUMPI PUSH2 0x4401 PUSH2 0x31ED JUMP JUMPDEST JUMPDEST PUSH0 DUP5 ADD MLOAD PUSH8 0xFFFFFFFFFFFFFFFF DUP2 GT ISZERO PUSH2 0x441F JUMPI PUSH2 0x441E PUSH2 0x31F1 JUMP JUMPDEST JUMPDEST PUSH2 0x442B DUP7 DUP3 DUP8 ADD PUSH2 0x43BE JUMP JUMPDEST SWAP4 POP POP PUSH1 0x20 DUP5 ADD MLOAD PUSH8 0xFFFFFFFFFFFFFFFF DUP2 GT ISZERO PUSH2 0x444C JUMPI PUSH2 0x444B PUSH2 0x31F1 JUMP JUMPDEST JUMPDEST PUSH2 0x4458 DUP7 DUP3 DUP8 ADD PUSH2 0x43BE JUMP JUMPDEST SWAP3 POP POP PUSH1 0x40 DUP5 ADD MLOAD PUSH8 0xFFFFFFFFFFFFFFFF DUP2 GT ISZERO PUSH2 0x4479 JUMPI PUSH2 0x4478 PUSH2 0x31F1 JUMP JUMPDEST JUMPDEST PUSH2 0x4485 DUP7 DUP3 DUP8 ADD PUSH2 0x43BE JUMP JUMPDEST SWAP2 POP POP SWAP3 POP SWAP3 POP SWAP3 JUMP JUMPDEST PUSH32 0x50726F66696C65206D75737420657869737420746F207375626D697420636F6E PUSH0 DUP3 ADD MSTORE PUSH32 0x747269627574696F6E7300000000000000000000000000000000000000000000 PUSH1 0x20 DUP3 ADD MSTORE POP JUMP JUMPDEST PUSH0 PUSH2 0x44E9 PUSH1 0x2A DUP4 PUSH2 0x3F51 JUMP JUMPDEST SWAP2 POP PUSH2 0x44F4 DUP3 PUSH2 0x448F JUMP JUMPDEST PUSH1 0x40 DUP3 ADD SWAP1 POP SWAP2 SWAP1 POP JUMP JUMPDEST PUSH0 PUSH1 0x20 DUP3 ADD SWAP1 POP DUP2 DUP2 SUB PUSH0 DUP4 ADD MSTORE PUSH2 0x4516 DUP2 PUSH2 0x44DD JUMP JUMPDEST SWAP1 POP SWAP2 SWAP1 POP JUMP JUMPDEST PUSH0 PUSH1 0x40 DUP3 ADD SWAP1 POP PUSH2 0x4530 PUSH0 DUP4 ADD DUP6 PUSH2 0x4355 JUMP JUMPDEST PUSH2 0x453D PUSH1 0x20 DUP4 ADD DUP5 PUSH2 0x31BC JUMP JUMPDEST SWAP4 SWAP3 POP POP POP JUMP JUMPDEST PUSH0 DUP2 MLOAD SWAP1 POP PUSH2 0x4552 DUP2 PUSH2 0x31F5 JUMP JUMPDEST SWAP3 SWAP2 POP POP JUMP JUMPDEST PUSH0 DUP2 ISZERO ISZERO SWAP1 POP SWAP2 SWAP1 POP JUMP JUMPDEST PUSH2 0x456C DUP2 PUSH2 0x4558 JUMP JUMPDEST DUP2 EQ PUSH2 0x4576 JUMPI PUSH0 DUP1 REVERT JUMPDEST POP JUMP JUMPDEST PUSH0 DUP2 MLOAD SWAP1 POP PUSH2 0x4587 DUP2 PUSH2 0x4563 JUMP JUMPDEST SWAP3 SWAP2 POP POP JUMP JUMPDEST PUSH0 DUP2 MLOAD SWAP1 POP PUSH2 0x459B DUP2 PUSH2 0x333B JUMP JUMPDEST SWAP3 SWAP2 POP POP JUMP JUMPDEST PUSH0 PUSH2 0x45B3 PUSH2 0x45AE DUP5 PUSH2 0x32FB JUMP JUMPDEST PUSH2 0x32E1 JUMP JUMPDEST SWAP1 POP DUP1 DUP4 DUP3 MSTORE PUSH1 0x20 DUP3 ADD SWAP1 POP PUSH1 0x20 DUP5 MUL DUP4 ADD DUP6 DUP2 GT ISZERO PUSH2 0x45D6 JUMPI PUSH2 0x45D5 PUSH2 0x3326 JUMP JUMPDEST JUMPDEST DUP4 JUMPDEST DUP2 DUP2 LT ISZERO PUSH2 0x45FF JUMPI DUP1 PUSH2 0x45EB DUP9 DUP3 PUSH2 0x458D JUMP JUMPDEST DUP5 MSTORE PUSH1 0x20 DUP5 ADD SWAP4 POP POP PUSH1 0x20 DUP2 ADD SWAP1 POP PUSH2 0x45D8 JUMP JUMPDEST POP POP POP SWAP4 SWAP3 POP POP POP JUMP JUMPDEST PUSH0 DUP3 PUSH1 0x1F DUP4 ADD SLT PUSH2 0x461D JUMPI PUSH2 0x461C PUSH2 0x326F JUMP JUMPDEST JUMPDEST DUP2 MLOAD PUSH2 0x462D DUP5 DUP3 PUSH1 0x20 DUP7 ADD PUSH2 0x45A1 JUMP JUMPDEST SWAP2 POP POP SWAP3 SWAP2 POP POP JUMP JUMPDEST PUSH0 DUP1 PUSH0 DUP1 PUSH0 PUSH1 0xA0 DUP7 DUP9 SUB SLT ISZERO PUSH2 0x464F JUMPI PUSH2 0x464E PUSH2 0x31ED JUMP JUMPDEST JUMPDEST PUSH0 PUSH2 0x465C DUP9 DUP3 DUP10 ADD PUSH2 0x4544 JUMP JUMPDEST SWAP6 POP POP PUSH1 0x20 PUSH2 0x466D DUP9 DUP3 DUP10 ADD PUSH2 0x4544 JUMP JUMPDEST SWAP5 POP POP PUSH1 0x40 PUSH2 0x467E DUP9 DUP3 DUP10 ADD PUSH2 0x4544 JUMP JUMPDEST SWAP4 POP POP PUSH1 0x60 PUSH2 0x468F DUP9 DUP3 DUP10 ADD PUSH2 0x4579 JUMP JUMPDEST SWAP3 POP POP PUSH1 0x80 DUP7 ADD MLOAD PUSH8 0xFFFFFFFFFFFFFFFF DUP2 GT ISZERO PUSH2 0x46B0 JUMPI PUSH2 0x46AF PUSH2 0x31F1 JUMP JUMPDEST JUMPDEST PUSH2 0x46BC DUP9 DUP3 DUP10 ADD PUSH2 0x4609 JUMP JUMPDEST SWAP2 POP POP SWAP3 SWAP6 POP SWAP3 SWAP6 SWAP1 SWAP4 POP JUMP JUMPDEST PUSH32 0x55736572206E6F7420617070726F76656420696E207468697320636F6D6D756E PUSH0 DUP3 ADD MSTORE PUSH32 0x6974790000000000000000000000000000000000000000000000000000000000 PUSH1 0x20 DUP3 ADD MSTORE POP JUMP JUMPDEST PUSH0 PUSH2 0x4723 PUSH1 0x23 DUP4 PUSH2 0x3F51 JUMP JUMPDEST SWAP2 POP PUSH2 0x472E DUP3 PUSH2 0x46C9 JUMP JUMPDEST PUSH1 0x40 DUP3 ADD SWAP1 POP SWAP2 SWAP1 POP JUMP JUMPDEST PUSH0 PUSH1 0x20 DUP3 ADD SWAP1 POP DUP2 DUP2 SUB PUSH0 DUP4 ADD MSTORE PUSH2 0x4750 DUP2 PUSH2 0x4717 JUMP JUMPDEST SWAP1 POP SWAP2 SWAP1 POP JUMP JUMPDEST PUSH32 0x4D757374207375626D6974206174206C65617374206F6E6520636F6E74726962 PUSH0 DUP3 ADD MSTORE PUSH32 0x7574696F6E000000000000000000000000000000000000000000000000000000 PUSH1 0x20 DUP3 ADD MSTORE POP JUMP JUMPDEST PUSH0 PUSH2 0x47B1 PUSH1 0x25 DUP4 PUSH2 0x3F51 JUMP JUMPDEST SWAP2 POP PUSH2 0x47BC DUP3 PUSH2 0x4757 JUMP JUMPDEST PUSH1 0x40 DUP3 ADD SWAP1 POP SWAP2 SWAP1 POP JUMP JUMPDEST PUSH0 PUSH1 0x20 DUP3 ADD SWAP1 POP DUP2 DUP2 SUB PUSH0 DUP4 ADD MSTORE PUSH2 0x47DE DUP2 PUSH2 0x47A5 JUMP JUMPDEST SWAP1 POP SWAP2 SWAP1 POP JUMP JUMPDEST PUSH0 DUP1 PUSH0 DUP1 PUSH0 PUSH1 0xA0 DUP7 DUP9 SUB SLT ISZERO PUSH2 0x47FE JUMPI PUSH2 0x47FD PUSH2 0x31ED JUMP JUMPDEST JUMPDEST PUSH0 DUP7 ADD MLOAD PUSH8 0xFFFFFFFFFFFFFFFF DUP2 GT ISZERO PUSH2 0x481B JUMPI PUSH2 0x481A PUSH2 0x31F1 JUMP JUMPDEST JUMPDEST PUSH2 0x4827 DUP9 DUP3 DUP10 ADD PUSH2 0x43BE JUMP JUMPDEST SWAP6 POP POP PUSH1 0x20 DUP7 ADD MLOAD PUSH8 0xFFFFFFFFFFFFFFFF DUP2 GT ISZERO PUSH2 0x4848 JUMPI PUSH2 0x4847 PUSH2 0x31F1 JUMP JUMPDEST JUMPDEST PUSH2 0x4854 DUP9 DUP3 DUP10 ADD PUSH2 0x43BE JUMP JUMPDEST SWAP5 POP POP PUSH1 0x40 DUP7 ADD MLOAD PUSH8 0xFFFFFFFFFFFFFFFF DUP2 GT ISZERO PUSH2 0x4875 JUMPI PUSH2 0x4874 PUSH2 0x31F1 JUMP JUMPDEST JUMPDEST PUSH2 0x4881 DUP9 DUP3 DUP10 ADD PUSH2 0x43BE JUMP JUMPDEST SWAP4 POP POP PUSH1 0x60 PUSH2 0x4892 DUP9 DUP3 DUP10 ADD PUSH2 0x458D JUMP JUMPDEST SWAP3 POP POP PUSH1 0x80 PUSH2 0x48A3 DUP9 DUP3 DUP10 ADD PUSH2 0x4544 JUMP JUMPDEST SWAP2 POP POP SWAP3 SWAP6 POP SWAP3 SWAP6 SWAP1 SWAP4 POP JUMP JUMPDEST PUSH32 0x4E487B7100000000000000000000000000000000000000000000000000000000 PUSH0 MSTORE PUSH1 0x22 PUSH1 0x4 MSTORE PUSH1 0x24 PUSH0 REVERT JUMPDEST PUSH0 PUSH1 0x2 DUP3 DIV SWAP1 POP PUSH1 0x1 DUP3 AND DUP1 PUSH2 0x48F4 JUMPI PUSH1 0x7F DUP3 AND SWAP2 POP JUMPDEST PUSH1 0x20 DUP3 LT DUP2 SUB PUSH2 0x4907 JUMPI PUSH2 0x4906 PUSH2 0x48B0 JUMP JUMPDEST JUMPDEST POP SWAP2 SWAP1 POP JUMP JUMPDEST PUSH0 DUP2 SWAP1 POP DUP2 PUSH0 MSTORE PUSH1 0x20 PUSH0 KECCAK256 SWAP1 POP SWAP2 SWAP1 POP JUMP JUMPDEST PUSH0 PUSH1 0x20 PUSH1 0x1F DUP4 ADD DIV SWAP1 POP SWAP2 SWAP1 POP JUMP JUMPDEST PUSH0 DUP3 DUP3 SHL SWAP1 POP SWAP3 SWAP2 POP POP JUMP JUMPDEST PUSH0 PUSH1 0x8 DUP4 MUL PUSH2 0x4969 PUSH32 0xFFFFFFFFFFFFFFFFFFFFFFFFFFFFFFFFFFFFFFFFFFFFFFFFFFFFFFFFFFFFFFFF DUP3 PUSH2 0x492E JUMP JUMPDEST PUSH2 0x4973 DUP7 DUP4 PUSH2 0x492E JUMP JUMPDEST SWAP6 POP DUP1 NOT DUP5 AND SWAP4 POP DUP1 DUP7 AND DUP5 OR SWAP3 POP POP POP SWAP4 SWAP3 POP POP POP JUMP JUMPDEST PUSH0 PUSH2 0x49A5 PUSH2 0x49A0 PUSH2 0x499B DUP5 PUSH2 0x31B3 JUMP JUMPDEST PUSH2 0x313F JUMP JUMPDEST PUSH2 0x31B3 JUMP JUMPDEST SWAP1 POP SWAP2 SWAP1 POP JUMP JUMPDEST PUSH0 DUP2 SWAP1 POP SWAP2 SWAP1 POP JUMP JUMPDEST PUSH2 0x49BE DUP4 PUSH2 0x498B JUMP JUMPDEST PUSH2 0x49D2 PUSH2 0x49CA DUP3 PUSH2 0x49AC JUMP JUMPDEST DUP5 DUP5 SLOAD PUSH2 0x493A JUMP JUMPDEST DUP3 SSTORE POP POP POP POP JUMP JUMPDEST PUSH0 SWAP1 JUMP JUMPDEST PUSH2 0x49E6 PUSH2 0x49DA JUMP JUMPDEST PUSH2 0x49F1 DUP2 DUP5 DUP5 PUSH2 0x49B5 JUMP JUMPDEST POP POP POP JUMP JUMPDEST JUMPDEST DUP2 DUP2 LT ISZERO PUSH2 0x4A14 JUMPI PUSH2 0x4A09 PUSH0 DUP3 PUSH2 0x49DE JUMP JUMPDEST PUSH1 0x1 DUP2 ADD SWAP1 POP PUSH2 0x49F7 JUMP JUMPDEST POP POP JUMP JUMPDEST PUSH1 0x1F DUP3 GT ISZERO PUSH2 0x4A59 JUMPI PUSH2 0x4A2A DUP2 PUSH2 0x490D JUMP JUMPDEST PUSH2 0x4A33 DUP5 PUSH2 0x491F JUMP JUMPDEST DUP2 ADD PUSH1 0x20 DUP6 LT ISZERO PUSH2 0x4A42 JUMPI DUP2 SWAP1 POP JUMPDEST PUSH2 0x4A56 PUSH2 0x4A4E DUP6 PUSH2 0x491F JUMP JUMPDEST DUP4 ADD DUP3 PUSH2 0x49F6 JUMP JUMPDEST POP POP JUMPDEST POP POP POP JUMP JUMPDEST PUSH0 DUP3 DUP3 SHR SWAP1 POP SWAP3 SWAP2 POP POP JUMP JUMPDEST PUSH0 PUSH2 0x4A79 PUSH0 NOT DUP5 PUSH1 0x8 MUL PUSH2 0x4A5E JUMP JUMPDEST NOT DUP1 DUP4 AND SWAP2 POP POP SWAP3 SWAP2 POP POP JUMP JUMPDEST PUSH0 PUSH2 0x4A91 DUP4 DUP4 PUSH2 0x4A6A JUMP JUMPDEST SWAP2 POP DUP3 PUSH1 0x2 MUL DUP3 OR SWAP1 POP SWAP3 SWAP2 POP POP JUMP JUMPDEST PUSH2 0x4AAA DUP3 PUSH2 0x3B89 JUMP JUMPDEST PUSH8 0xFFFFFFFFFFFFFFFF DUP2 GT ISZERO PUSH2 0x4AC3 JUMPI PUSH2 0x4AC2 PUSH2 0x3283 JUMP JUMPDEST JUMPDEST PUSH2 0x4ACD DUP3 SLOAD PUSH2 0x48DD JUMP JUMPDEST PUSH2 0x4AD8 DUP3 DUP3 DUP6 PUSH2 0x4A18 JUMP JUMPDEST PUSH0 PUSH1 0x20 SWAP1 POP PUSH1 0x1F DUP4 GT PUSH1 0x1 DUP2 EQ PUSH2 0x4B09 JUMPI PUSH0 DUP5 ISZERO PUSH2 0x4AF7 JUMPI DUP3 DUP8 ADD MLOAD SWAP1 POP JUMPDEST PUSH2 0x4B01 DUP6 DUP3 PUSH2 0x4A86 JUMP JUMPDEST DUP7 SSTORE POP PUSH2 0x4B68 JUMP JUMPDEST PUSH1 0x1F NOT DUP5 AND PUSH2 0x4B17 DUP7 PUSH2 0x490D JUMP JUMPDEST PUSH0 JUMPDEST DUP3 DUP2 LT ISZERO PUSH2 0x4B3E JUMPI DUP5 DUP10 ADD MLOAD DUP3 SSTORE PUSH1 0x1 DUP3 ADD SWAP2 POP PUSH1 0x20 DUP6 ADD SWAP5 POP PUSH1 0x20 DUP2 ADD SWAP1 POP PUSH2 0x4B19 JUMP JUMPDEST DUP7 DUP4 LT ISZERO PUSH2 0x4B5B JUMPI DUP5 DUP10 ADD MLOAD PUSH2 0x4B57 PUSH1 0x1F DUP10 AND DUP3 PUSH2 0x4A6A JUMP JUMPDEST DUP4 SSTORE POP JUMPDEST PUSH1 0x1 PUSH1 0x2 DUP9 MUL ADD DUP9 SSTORE POP POP POP JUMPDEST POP POP POP POP POP POP JUMP JUMPDEST PUSH32 0x4E6F20636F6E747269627574696F6E7320666F756E6420666F72207468697320 PUSH0 DUP3 ADD MSTORE PUSH32 0x7573657220696E207468697320636F6D6D756E69747900000000000000000000 PUSH1 0x20 DUP3 ADD MSTORE POP JUMP JUMPDEST PUSH0 PUSH2 0x4BCA PUSH1 0x36 DUP4 PUSH2 0x3F51 JUMP JUMPDEST SWAP2 POP PUSH2 0x4BD5 DUP3 PUSH2 0x4B70 JUMP JUMPDEST PUSH1 0x40 DUP3 ADD SWAP1 POP SWAP2 SWAP1 POP JUMP JUMPDEST PUSH0 PUSH1 0x20 DUP3 ADD SWAP1 POP DUP2 DUP2 SUB PUSH0 DUP4 ADD MSTORE PUSH2 0x4BF7 DUP2 PUSH2 0x4BBE JUMP JUMPDEST SWAP1 POP SWAP2 SWAP1 POP JUMP JUMPDEST PUSH32 0x4E6F20636F6E7472696275746F727320666F72207468652063757272656E7420 PUSH0 DUP3 ADD MSTORE PUSH32 0x7765656B00000000000000000000000000000000000000000000000000000000 PUSH1 0x20 DUP3 ADD MSTORE POP JUMP JUMPDEST PUSH0 PUSH2 0x4C58 PUSH1 0x24 DUP4 PUSH2 0x3F51 JUMP JUMPDEST SWAP2 POP PUSH2 0x4C63 DUP3 PUSH2 0x4BFE JUMP JUMPDEST PUSH1 0x40 DUP3 ADD SWAP1 POP SWAP2 SWAP1 POP JUMP JUMPDEST PUSH0 PUSH1 0x20 DUP3 ADD SWAP1 POP DUP2 DUP2 SUB PUSH0 DUP4 ADD MSTORE PUSH2 0x4C85 DUP2 PUSH2 0x4C4C JUMP JUMPDEST SWAP1 POP SWAP2 SWAP1 POP JUMP JUMPDEST PUSH0 PUSH2 0x4C96 DUP3 PUSH2 0x31B3 JUMP JUMPDEST SWAP2 POP PUSH32 0xFFFFFFFFFFFFFFFFFFFFFFFFFFFFFFFFFFFFFFFFFFFFFFFFFFFFFFFFFFFFFFFF DUP3 SUB PUSH2 0x4CC8 JUMPI PUSH2 0x4CC7 PUSH2 0x3FC9 JUMP JUMPDEST JUMPDEST PUSH1 0x1 DUP3 ADD SWAP1 POP SWAP2 SWAP1 POP JUMP JUMPDEST PUSH32 0x4E487B7100000000000000000000000000000000000000000000000000000000 PUSH0 MSTORE PUSH1 0x12 PUSH1 0x4 MSTORE PUSH1 0x24 PUSH0 REVERT JUMPDEST PUSH0 PUSH2 0x4D0A DUP3 PUSH2 0x31B3 JUMP JUMPDEST SWAP2 POP PUSH2 0x4D15 DUP4 PUSH2 0x31B3 JUMP JUMPDEST SWAP3 POP DUP3 PUSH2 0x4D25 JUMPI PUSH2 0x4D24 PUSH2 0x4CD3 JUMP JUMPDEST JUMPDEST DUP3 DUP3 DIV SWAP1 POP SWAP3 SWAP2 POP POP JUMP JUMPDEST PUSH0 PUSH2 0x4D3A DUP3 PUSH2 0x31B3 JUMP JUMPDEST SWAP2 POP PUSH2 0x4D45 DUP4 PUSH2 0x31B3 JUMP JUMPDEST SWAP3 POP DUP3 DUP3 MUL PUSH2 0x4D53 DUP2 PUSH2 0x31B3 JUMP JUMPDEST SWAP2 POP DUP3 DUP3 DIV DUP5 EQ DUP4 ISZERO OR PUSH2 0x4D6A JUMPI PUSH2 0x4D69 PUSH2 0x3FC9 JUMP JUMPDEST JUMPDEST POP SWAP3 SWAP2 POP POP JUMP JUMPDEST PUSH0 DUP2 SWAP1 POP SWAP2 SWAP1 POP JUMP JUMPDEST PUSH2 0x4D8B PUSH2 0x4D86 DUP3 PUSH2 0x31B3 JUMP JUMPDEST PUSH2 0x4D71 JUMP JUMPDEST DUP3 MSTORE POP POP JUMP JUMPDEST PUSH0 PUSH2 0x4D9C DUP3 DUP7 PUSH2 0x4D7A JUMP JUMPDEST PUSH1 0x20 DUP3 ADD SWAP2 POP PUSH2 0x4DAC DUP3 DUP6 PUSH2 0x4D7A JUMP JUMPDEST PUSH1 0x20 DUP3 ADD SWAP2 POP PUSH2 0x4DBC DUP3 DUP5 PUSH2 0x4D7A JUMP JUMPDEST PUSH1 0x20 DUP3 ADD SWAP2 POP DUP2 SWAP1 POP SWAP5 SWAP4 POP POP POP POP JUMP JUMPDEST PUSH0 PUSH2 0x4DD7 DUP3 PUSH2 0x31B3 JUMP JUMPDEST SWAP2 POP PUSH2 0x4DE2 DUP4 PUSH2 0x31B3 JUMP JUMPDEST SWAP3 POP DUP3 PUSH2 0x4DF2 JUMPI PUSH2 0x4DF1 PUSH2 0x4CD3 JUMP JUMPDEST JUMPDEST DUP3 DUP3 MOD SWAP1 POP SWAP3 SWAP2 POP POP JUMP JUMPDEST PUSH0 PUSH2 0x4E07 DUP3 PUSH2 0x31B3 JUMP JUMPDEST SWAP2 POP PUSH0 DUP3 SUB PUSH2 0x4E19 JUMPI PUSH2 0x4E18 PUSH2 0x3FC9 JUMP JUMPDEST JUMPDEST PUSH1 0x1 DUP3 SUB SWAP1 POP SWAP2 SWAP1 POP JUMP JUMPDEST PUSH0 DUP2 SWAP1 POP SWAP2 SWAP1 POP JUMP JUMPDEST PUSH0 PUSH2 0x4E37 DUP3 PUSH2 0x4E24 JUMP JUMPDEST SWAP2 POP PUSH2 0x4E42 DUP4 PUSH2 0x4E24 JUMP JUMPDEST SWAP3 POP DUP3 DUP3 SUB SWAP1 POP DUP2 DUP2 SLT PUSH0 DUP5 SLT AND DUP3 DUP3 SGT PUSH0 DUP6 SLT ISZERO AND OR ISZERO PUSH2 0x4E67 JUMPI PUSH2 0x4E66 PUSH2 0x3FC9 JUMP JUMPDEST JUMPDEST SWAP3 SWAP2 POP POP JUMP JUMPDEST PUSH0 PUSH2 0x4E77 DUP3 PUSH2 0x4E24 JUMP JUMPDEST SWAP2 POP PUSH2 0x4E82 DUP4 PUSH2 0x4E24 JUMP JUMPDEST SWAP3 POP DUP3 DUP3 MUL PUSH2 0x4E90 DUP2 PUSH2 0x4E24 JUMP JUMPDEST SWAP2 POP PUSH32 0x8000000000000000000000000000000000000000000000000000000000000000 DUP5 EQ PUSH0 DUP5 SLT AND ISZERO PUSH2 0x4EC7 JUMPI PUSH2 0x4EC6 PUSH2 0x3FC9 JUMP JUMPDEST JUMPDEST DUP3 DUP3 SDIV DUP5 EQ DUP4 ISZERO OR PUSH2 0x4EDC JUMPI PUSH2 0x4EDB PUSH2 0x3FC9 JUMP JUMPDEST JUMPDEST POP SWAP3 SWAP2 POP POP JUMP INVALID LOG2 PUSH5 0x6970667358 0x22 SLT KECCAK256 0xFC DUP10 PUSH1 0x53 0xD8 GASLIMIT 0x28 SLOAD MOD 0xE3 0xEB 0xB2 PUSH21 0xB0DE20B7C1B6E2D310A707831B3D469CFD04A96473 PUSH16 0x6C634300081A00330000000000000000 "
		},
		"gasEstimates": {
			"creation": {
				"codeDepositCost": "4049800",
				"executionCost": "infinite",
				"totalCost": "infinite"
			},
			"external": {
				"createGroupsForCurrentWeek(uint256)": "infinite",
				"determineConsensus(uint256,uint256,uint256)": "infinite",
				"getConsensusRanking(uint256,uint256,uint256)": "infinite",
				"getContributions(address,uint256,uint256)": "infinite",
				"getDetailedGroupInfo()": "infinite",
				"getGroupCount()": "2486",
				"getGroupMembers(uint256)": "infinite",
				"getLastRoomSizes()": "infinite",
				"getRanking(uint256,uint256,uint256,address)": "infinite",
				"getTransientScores(uint256,uint256,uint256)": "infinite",
				"getUserContributedWeeks(address,uint256)": "infinite",
				"getWeeklyContributors(uint256,uint256)": "infinite",
				"profilesContract()": "infinite",
				"submitContributions(uint256,(string,string,string[])[])": "infinite",
				"submitRanking(uint256,uint256,uint256,address[])": "infinite",
				"userContributions(address,uint256)": "infinite"
			},
			"internal": {
				"calculateMaxVariance(uint256)": "infinite",
				"calculateTransientScore(uint256,uint256,uint256,address)": "infinite",
				"calculateVariance(uint256[] memory,uint256,uint256)": "infinite",
				"determineRoomSizes(uint256)": "infinite",
				"genericRoomSizes(uint256)": "infinite",
				"hardcodedRoomSizes(uint256)": "infinite",
				"isContributor(uint256,uint256,address)": "infinite",
				"isPartOfGroup(uint256,address)": "infinite",
				"shuffle(address[] memory)": "infinite"
			}
		},
		"methodIdentifiers": {
			"createGroupsForCurrentWeek(uint256)": "690ec8d1",
			"determineConsensus(uint256,uint256,uint256)": "17dd9e73",
			"getConsensusRanking(uint256,uint256,uint256)": "415b5d7d",
			"getContributions(address,uint256,uint256)": "667f0e63",
			"getDetailedGroupInfo()": "32a41f3e",
			"getGroupCount()": "06545a93",
			"getGroupMembers(uint256)": "36cc8130",
			"getLastRoomSizes()": "771197d8",
			"getRanking(uint256,uint256,uint256,address)": "2b3dffeb",
			"getTransientScores(uint256,uint256,uint256)": "32a7adb0",
			"getUserContributedWeeks(address,uint256)": "4fe038a2",
			"getWeeklyContributors(uint256,uint256)": "8ec2c82b",
			"profilesContract()": "06428f02",
			"submitContributions(uint256,(string,string,string[])[])": "3722a0e8",
			"submitRanking(uint256,uint256,uint256,address[])": "2a00bbf2",
			"userContributions(address,uint256)": "7331fa95"
		}
	},
	"abi": [
		{
			"inputs": [
				{
					"internalType": "address",
					"name": "_profilesContractAddress",
					"type": "address"
				}
			],
			"stateMutability": "nonpayable",
			"type": "constructor"
		},
		{
			"anonymous": false,
			"inputs": [
				{
					"indexed": true,
					"internalType": "uint256",
					"name": "communityId",
					"type": "uint256"
				},
				{
					"indexed": false,
					"internalType": "uint256",
					"name": "weekNumber",
					"type": "uint256"
				},
				{
					"indexed": false,
					"internalType": "uint256",
					"name": "groupId",
					"type": "uint256"
				},
				{
					"indexed": false,
					"internalType": "address[]",
					"name": "consensusRanking",
					"type": "address[]"
				}
			],
			"name": "ConsensusReached",
			"type": "event"
		},
		{
			"anonymous": false,
			"inputs": [
				{
					"indexed": true,
					"internalType": "address",
					"name": "user",
					"type": "address"
				},
				{
					"indexed": true,
					"internalType": "uint256",
					"name": "communityId",
					"type": "uint256"
				},
				{
					"indexed": false,
					"internalType": "uint256",
					"name": "weekNumber",
					"type": "uint256"
				},
				{
					"indexed": false,
					"internalType": "uint256",
					"name": "contributionIndex",
					"type": "uint256"
				}
			],
			"name": "ContributionSubmitted",
			"type": "event"
		},
		{
			"anonymous": false,
			"inputs": [
				{
					"indexed": true,
					"internalType": "uint256",
					"name": "communityId",
					"type": "uint256"
				},
				{
					"indexed": false,
					"internalType": "uint256",
					"name": "weekNumber",
					"type": "uint256"
				},
				{
					"indexed": false,
					"internalType": "uint256",
					"name": "groupCount",
					"type": "uint256"
				}
			],
			"name": "GroupsCreated",
			"type": "event"
		},
		{
			"anonymous": false,
			"inputs": [
				{
					"indexed": true,
					"internalType": "uint256",
					"name": "communityId",
					"type": "uint256"
				},
				{
					"indexed": false,
					"internalType": "uint256",
					"name": "weekNumber",
					"type": "uint256"
				},
				{
					"indexed": false,
					"internalType": "uint256",
					"name": "groupId",
					"type": "uint256"
				},
				{
					"indexed": true,
					"internalType": "address",
					"name": "submitter",
					"type": "address"
				}
			],
			"name": "RankingSubmitted",
			"type": "event"
		},
		{
			"inputs": [
				{
					"internalType": "uint256",
					"name": "_communityId",
					"type": "uint256"
				}
			],
			"name": "createGroupsForCurrentWeek",
			"outputs": [],
			"stateMutability": "nonpayable",
			"type": "function"
		},
		{
			"inputs": [
				{
					"internalType": "uint256",
					"name": "_communityId",
					"type": "uint256"
				},
				{
					"internalType": "uint256",
					"name": "_weekNumber",
					"type": "uint256"
				},
				{
					"internalType": "uint256",
					"name": "_groupId",
					"type": "uint256"
				}
			],
			"name": "determineConsensus",
			"outputs": [],
			"stateMutability": "nonpayable",
			"type": "function"
		},
		{
			"inputs": [
				{
					"internalType": "uint256",
					"name": "_communityId",
					"type": "uint256"
				},
				{
					"internalType": "uint256",
					"name": "_weekNumber",
					"type": "uint256"
				},
				{
					"internalType": "uint256",
					"name": "_groupId",
					"type": "uint256"
				}
			],
			"name": "getConsensusRanking",
			"outputs": [
				{
					"internalType": "address[]",
					"name": "rankedAddresses",
					"type": "address[]"
				},
				{
					"internalType": "uint256",
					"name": "timestamp",
					"type": "uint256"
				}
			],
			"stateMutability": "view",
			"type": "function"
		},
		{
			"inputs": [
				{
					"internalType": "address",
					"name": "_user",
					"type": "address"
				},
				{
					"internalType": "uint256",
					"name": "_communityId",
					"type": "uint256"
				},
				{
					"internalType": "uint256",
					"name": "_weekNumber",
					"type": "uint256"
				}
			],
			"name": "getContributions",
			"outputs": [
				{
					"internalType": "string[]",
					"name": "names",
					"type": "string[]"
				},
				{
					"internalType": "string[]",
					"name": "descriptions",
					"type": "string[]"
				},
				{
					"internalType": "string[][]",
					"name": "links",
					"type": "string[][]"
				}
			],
			"stateMutability": "view",
			"type": "function"
		},
		{
			"inputs": [],
			"name": "getDetailedGroupInfo",
			"outputs": [
				{
					"internalType": "uint256[]",
					"name": "groupIds",
					"type": "uint256[]"
				},
				{
					"internalType": "uint256[]",
					"name": "groupSizes",
					"type": "uint256[]"
				}
			],
			"stateMutability": "view",
			"type": "function"
		},
		{
			"inputs": [],
			"name": "getGroupCount",
			"outputs": [
				{
					"internalType": "uint256",
					"name": "",
					"type": "uint256"
				}
			],
			"stateMutability": "view",
			"type": "function"
		},
		{
			"inputs": [
				{
					"internalType": "uint256",
					"name": "groupId",
					"type": "uint256"
				}
			],
			"name": "getGroupMembers",
			"outputs": [
				{
					"internalType": "address[]",
					"name": "",
					"type": "address[]"
				}
			],
			"stateMutability": "view",
			"type": "function"
		},
		{
			"inputs": [],
			"name": "getLastRoomSizes",
			"outputs": [
				{
					"internalType": "uint8[]",
					"name": "",
					"type": "uint8[]"
				}
			],
			"stateMutability": "view",
			"type": "function"
		},
		{
			"inputs": [
				{
					"internalType": "uint256",
					"name": "_communityId",
					"type": "uint256"
				},
				{
					"internalType": "uint256",
					"name": "_weekNumber",
					"type": "uint256"
				},
				{
					"internalType": "uint256",
					"name": "_groupId",
					"type": "uint256"
				},
				{
					"internalType": "address",
					"name": "_user",
					"type": "address"
				}
			],
			"name": "getRanking",
			"outputs": [
				{
					"internalType": "address[]",
					"name": "",
					"type": "address[]"
				}
			],
			"stateMutability": "view",
			"type": "function"
		},
		{
			"inputs": [
				{
					"internalType": "uint256",
					"name": "_communityId",
					"type": "uint256"
				},
				{
					"internalType": "uint256",
					"name": "_weekNumber",
					"type": "uint256"
				},
				{
					"internalType": "uint256",
					"name": "_groupId",
					"type": "uint256"
				}
			],
			"name": "getTransientScores",
			"outputs": [
				{
					"internalType": "address[]",
					"name": "members",
					"type": "address[]"
				},
				{
					"internalType": "uint256[]",
					"name": "scores",
					"type": "uint256[]"
				}
			],
			"stateMutability": "view",
			"type": "function"
		},
		{
			"inputs": [
				{
					"internalType": "address",
					"name": "_user",
					"type": "address"
				},
				{
					"internalType": "uint256",
					"name": "_communityId",
					"type": "uint256"
				}
			],
			"name": "getUserContributedWeeks",
			"outputs": [
				{
					"internalType": "uint256[]",
					"name": "",
					"type": "uint256[]"
				}
			],
			"stateMutability": "view",
			"type": "function"
		},
		{
			"inputs": [
				{
					"internalType": "uint256",
					"name": "_communityId",
					"type": "uint256"
				},
				{
					"internalType": "uint256",
					"name": "_week",
					"type": "uint256"
				}
			],
			"name": "getWeeklyContributors",
			"outputs": [
				{
					"internalType": "address[]",
					"name": "",
					"type": "address[]"
				}
			],
			"stateMutability": "view",
			"type": "function"
		},
		{
			"inputs": [],
			"name": "profilesContract",
			"outputs": [
				{
					"internalType": "contract ICommunityGovernanceProfiles",
					"name": "",
					"type": "address"
				}
			],
			"stateMutability": "view",
			"type": "function"
		},
		{
			"inputs": [
				{
					"internalType": "uint256",
					"name": "_communityId",
					"type": "uint256"
				},
				{
					"components": [
						{
							"internalType": "string",
							"name": "name",
							"type": "string"
						},
						{
							"internalType": "string",
							"name": "description",
							"type": "string"
						},
						{
							"internalType": "string[]",
							"name": "links",
							"type": "string[]"
						}
					],
					"internalType": "struct CommunityGovernanceContributions.Contribution[]",
					"name": "_contributions",
					"type": "tuple[]"
				}
			],
			"name": "submitContributions",
			"outputs": [],
			"stateMutability": "nonpayable",
			"type": "function"
		},
		{
			"inputs": [
				{
					"internalType": "uint256",
					"name": "_communityId",
					"type": "uint256"
				},
				{
					"internalType": "uint256",
					"name": "_weekNumber",
					"type": "uint256"
				},
				{
					"internalType": "uint256",
					"name": "_groupId",
					"type": "uint256"
				},
				{
					"internalType": "address[]",
					"name": "_ranking",
					"type": "address[]"
				}
			],
			"name": "submitRanking",
			"outputs": [],
			"stateMutability": "nonpayable",
			"type": "function"
		},
		{
			"inputs": [
				{
					"internalType": "address",
					"name": "",
					"type": "address"
				},
				{
					"internalType": "uint256",
					"name": "",
					"type": "uint256"
				}
			],
			"name": "userContributions",
			"outputs": [
				{
					"internalType": "uint256",
					"name": "communityId",
					"type": "uint256"
				}
			],
			"stateMutability": "view",
			"type": "function"
		}
	]
}