{
	"data": {
		"bytecode": {
			"linkReferences": {},
			"object": "6080604052348015600e575f80fd5b506120d38061001c5f395ff3fe608060405234801561000f575f80fd5b5060043610610055575f3560e01c806306545a931461005957806336cc8130146100775780633a40fea8146100a757806371b44fc7146100c35780639119ba1b146100f3575b5f80fd5b610061610123565b60405161006e9190611936565b60405180910390f35b610091600480360381019061008c919061198a565b61012e565b60405161009e9190611a9c565b60405180910390f35b6100c160048036038101906100bc9190611c36565b61021c565b005b6100dd60048036038101906100d89190611c7d565b61049b565b6040516100ea9190611cca565b60405180910390f35b61010d6004803603810190610108919061198a565b6105a3565b60405161011a9190611936565b60405180910390f35b5f8080549050905090565b60605f805490508210610176576040517f08c379a000000000000000000000000000000000000000000000000000000000815260040161016d90611d3d565b60405180910390fd5b5f828154811061018957610188611d5b565b5b905f5260205f20015f0180548060200260200160405190810160405280929190818152602001828054801561021057602002820191905f5260205f20905b815f9054906101000a900473ffffffffffffffffffffffffffffffffffffffff1673ffffffffffffffffffffffffffffffffffffffff16815260200190600101908083116101c7575b50505050509050919050565b5f81511161025f576040517f08c379a000000000000000000000000000000000000000000000000000000000815260040161025690611dd2565b60405180910390fd5b5f8061026b919061181b565b61027481610612565b5f61027f8251610757565b90505f805b825181101561045a575f8382815181106102a1576102a0611d5b565b5b602002602001015160ff1667ffffffffffffffff8111156102c5576102c4611ad0565b5b6040519080825280602002602001820160405280156102f35781602001602082028036833780820191505090505b5090505f5b84838151811061030b5761030a611d5b565b5b602002602001015160ff16811080156103245750855184105b156103b25785848151811061033c5761033b611d5b565b5b602002602001015182828151811061035757610356611d5b565b5b602002602001019073ffffffffffffffffffffffffffffffffffffffff16908173ffffffffffffffffffffffffffffffffffffffff1681525050838061039c90611e1d565b94505080806103aa90611e1d565b9150506102f8565b505f604051806020016040528083815250908060018154018082558091505060019003905f5260205f20015f909190919091505f820151815f0190805190602001906103ff929190611839565b5050507f767a851128f909c41fca6f6228026b9236f48b30fbea453b216bb7bb5fd5191a60015f805490506104349190611e64565b8251604051610444929190611e97565b60405180910390a1508080600101915050610284565b507fa190acb00932f4b8695e401d761368489be3aee79a894990162d47abf4148daa5f8054905060405161048e9190611936565b60405180910390a1505050565b5f808054905083106104e2576040517f08c379a00000000000000000000000000000000000000000000000000000000081526004016104d990611d3d565b60405180910390fd5b5f83815481106104f5576104f4611d5b565b5b905f5260205f20015f01805490508210610544576040517f08c379a000000000000000000000000000000000000000000000000000000000815260040161053b90611f08565b60405180910390fd5b5f838154811061055757610556611d5b565b5b905f5260205f20015f01828154811061057357610572611d5b565b5b905f5260205f20015f9054906101000a900473ffffffffffffffffffffffffffffffffffffffff16905092915050565b5f808054905082106105ea576040517f08c379a00000000000000000000000000000000000000000000000000000000081526004016105e190611d3d565b60405180910390fd5b5f82815481106105fd576105fc611d5b565b5b905f5260205f20015f01805490509050919050565b5f600182516106219190611e64565b90505b5f811115610753575f60018261063a9190611f26565b42448460405160200161064f93929190611f79565b604051602081830303815290604052805190602001205f1c6106719190611fe2565b905082818151811061068657610685611d5b565b5b60200260200101518383815181106106a1576106a0611d5b565b5b60200260200101518484815181106106bc576106bb611d5b565b5b602002602001018584815181106106d6576106d5611d5b565b5b602002602001018273ffffffffffffffffffffffffffffffffffffffff1673ffffffffffffffffffffffffffffffffffffffff168152508273ffffffffffffffffffffffffffffffffffffffff1673ffffffffffffffffffffffffffffffffffffffff16815250505050808061074b90612012565b915050610624565b5050565b6060601482116107715761076a82610782565b905061077d565b61077a826116c8565b90505b919050565b606080600183036107de57600167ffffffffffffffff8111156107a8576107a7611ad0565b5b6040519080825280602002602001820160405280156107d65781602001602082028036833780820191505090505b509050610e88565b6002830361083757600167ffffffffffffffff81111561080157610800611ad0565b5b60405190808252806020026020018201604052801561082f5781602001602082028036833780820191505090505b509050610e87565b6003830361089057600167ffffffffffffffff81111561085a57610859611ad0565b5b6040519080825280602002602001820160405280156108885781602001602082028036833780820191505090505b509050610e86565b600483036108e957600167ffffffffffffffff8111156108b3576108b2611ad0565b5b6040519080825280602002602001820160405280156108e15781602001602082028036833780820191505090505b509050610e85565b6005830361094257600167ffffffffffffffff81111561090c5761090b611ad0565b5b60405190808252806020026020018201604052801561093a5781602001602082028036833780820191505090505b509050610e84565b6006830361099b57600167ffffffffffffffff81111561096557610964611ad0565b5b6040519080825280602002602001820160405280156109935781602001602082028036833780820191505090505b509050610e83565b600783036109f457600267ffffffffffffffff8111156109be576109bd611ad0565b5b6040519080825280602002602001820160405280156109ec5781602001602082028036833780820191505090505b509050610e82565b60088303610a4d57600267ffffffffffffffff811115610a1757610a16611ad0565b5b604051908082528060200260200182016040528015610a455781602001602082028036833780820191505090505b509050610e81565b60098303610aa657600267ffffffffffffffff811115610a7057610a6f611ad0565b5b604051908082528060200260200182016040528015610a9e5781602001602082028036833780820191505090505b509050610e80565b600a8303610aff57600267ffffffffffffffff811115610ac957610ac8611ad0565b5b604051908082528060200260200182016040528015610af75781602001602082028036833780820191505090505b509050610e7f565b600b8303610b5857600267ffffffffffffffff811115610b2257610b21611ad0565b5b604051908082528060200260200182016040528015610b505781602001602082028036833780820191505090505b509050610e7e565b600c8303610bb157600267ffffffffffffffff811115610b7b57610b7a611ad0565b5b604051908082528060200260200182016040528015610ba95781602001602082028036833780820191505090505b509050610e7d565b600d8303610c0a57600367ffffffffffffffff811115610bd457610bd3611ad0565b5b604051908082528060200260200182016040528015610c025781602001602082028036833780820191505090505b509050610e7c565b600e8303610c6357600367ffffffffffffffff811115610c2d57610c2c611ad0565b5b604051908082528060200260200182016040528015610c5b5781602001602082028036833780820191505090505b509050610e7b565b600f8303610cbc57600367ffffffffffffffff811115610c8657610c85611ad0565b5b604051908082528060200260200182016040528015610cb45781602001602082028036833780820191505090505b509050610e7a565b60108303610d1557600367ffffffffffffffff811115610cdf57610cde611ad0565b5b604051908082528060200260200182016040528015610d0d5781602001602082028036833780820191505090505b509050610e79565b60118303610d6e57600367ffffffffffffffff811115610d3857610d37611ad0565b5b604051908082528060200260200182016040528015610d665781602001602082028036833780820191505090505b509050610e78565b60128303610dc757600367ffffffffffffffff811115610d9157610d90611ad0565b5b604051908082528060200260200182016040528015610dbf5781602001602082028036833780820191505090505b509050610e77565b60138303610e2057600467ffffffffffffffff811115610dea57610de9611ad0565b5b604051908082528060200260200182016040528015610e185781602001602082028036833780820191505090505b509050610e76565b60148303610e7557600467ffffffffffffffff811115610e4357610e42611ad0565b5b604051908082528060200260200182016040528015610e715781602001602082028036833780820191505090505b5090505b5b5b5b5b5b5b5b5b5b5b5b5b5b5b5b5b5b5b5b60018303610ebe576001815f81518110610ea557610ea4611d5b565b5b602002602001019060ff16908160ff16815250506116bf565b60028303610ef4576002815f81518110610edb57610eda611d5b565b5b602002602001019060ff16908160ff16815250506116be565b60038303610f2a576003815f81518110610f1157610f10611d5b565b5b602002602001019060ff16908160ff16815250506116bd565b60048303610f60576004815f81518110610f4757610f46611d5b565b5b602002602001019060ff16908160ff16815250506116bc565b60058303610f96576005815f81518110610f7d57610f7c611d5b565b5b602002602001019060ff16908160ff16815250506116bb565b60068303610fcc576006815f81518110610fb357610fb2611d5b565b5b602002602001019060ff16908160ff16815250506116ba565b6007830361102c576003815f81518110610fe957610fe8611d5b565b5b602002602001019060ff16908160ff168152505060048160018151811061101357611012611d5b565b5b602002602001019060ff16908160ff16815250506116b9565b6008830361108c576004815f8151811061104957611048611d5b565b5b602002602001019060ff16908160ff168152505060048160018151811061107357611072611d5b565b5b602002602001019060ff16908160ff16815250506116b8565b600983036110ec576005815f815181106110a9576110a8611d5b565b5b602002602001019060ff16908160ff16815250506004816001815181106110d3576110d2611d5b565b5b602002602001019060ff16908160ff16815250506116b7565b600a830361114c576005815f8151811061110957611108611d5b565b5b602002602001019060ff16908160ff168152505060058160018151811061113357611132611d5b565b5b602002602001019060ff16908160ff16815250506116b6565b600b83036111ac576005815f8151811061116957611168611d5b565b5b602002602001019060ff16908160ff168152505060068160018151811061119357611192611d5b565b5b602002602001019060ff16908160ff16815250506116b5565b600c830361120c576006815f815181106111c9576111c8611d5b565b5b602002602001019060ff16908160ff16815250506006816001815181106111f3576111f2611d5b565b5b602002602001019060ff16908160ff16815250506116b4565b600d8303611296576005815f8151811061122957611228611d5b565b5b602002602001019060ff16908160ff168152505060048160018151811061125357611252611d5b565b5b602002602001019060ff16908160ff168152505060048160028151811061127d5761127c611d5b565b5b602002602001019060ff16908160ff16815250506116b3565b600e8303611320576005815f815181106112b3576112b2611d5b565b5b602002602001019060ff16908160ff16815250506005816001815181106112dd576112dc611d5b565b5b602002602001019060ff16908160ff168152505060048160028151811061130757611306611d5b565b5b602002602001019060ff16908160ff16815250506116b2565b600f83036113aa576005815f8151811061133d5761133c611d5b565b5b602002602001019060ff16908160ff168152505060058160018151811061136757611366611d5b565b5b602002602001019060ff16908160ff168152505060058160028151811061139157611390611d5b565b5b602002602001019060ff16908160ff16815250506116b1565b60108303611434576006815f815181106113c7576113c6611d5b565b5b602002602001019060ff16908160ff16815250506005816001815181106113f1576113f0611d5b565b5b602002602001019060ff16908160ff168152505060058160028151811061141b5761141a611d5b565b5b602002602001019060ff16908160ff16815250506116b0565b601183036114be576006815f8151811061145157611450611d5b565b5b602002602001019060ff16908160ff168152505060068160018151811061147b5761147a611d5b565b5b602002602001019060ff16908160ff16815250506005816002815181106114a5576114a4611d5b565b5b602002602001019060ff16908160ff16815250506116af565b60128303611548576006815f815181106114db576114da611d5b565b5b602002602001019060ff16908160ff168152505060068160018151811061150557611504611d5b565b5b602002602001019060ff16908160ff168152505060068160028151811061152f5761152e611d5b565b5b602002602001019060ff16908160ff16815250506116ae565b601383036115fc576005815f8151811061156557611564611d5b565b5b602002602001019060ff16908160ff168152505060058160018151811061158f5761158e611d5b565b5b602002602001019060ff16908160ff16815250506005816002815181106115b9576115b8611d5b565b5b602002602001019060ff16908160ff16815250506004816003815181106115e3576115e2611d5b565b5b602002602001019060ff16908160ff16815250506116ad565b601483036116ac576005815f8151811061161957611618611d5b565b5b602002602001019060ff16908160ff168152505060058160018151811061164357611642611d5b565b5b602002602001019060ff16908160ff168152505060058160028151811061166d5761166c611d5b565b5b602002602001019060ff16908160ff168152505060058160038151811061169757611696611d5b565b5b602002602001019060ff16908160ff16815250505b5b5b5b5b5b5b5b5b5b5b5b5b5b5b5b5b5b5b5b80915050919050565b60605f60066005846116da9190611f26565b6116e49190612039565b67ffffffffffffffff8111156116fd576116fc611ad0565b5b60405190808252806020026020018201604052801561172b5781602001602082028036833780820191505090505b5090505f805b5f85111561180d575f6006866117479190611fe2565b14158015611758575060058160ff16105b156117b457600583838061176b90611e1d565b94508151811061177e5761177d611d5b565b5b602002602001019060ff16908160ff168152505060058561179f9190611e64565b945080806117ac90612075565b915050611808565b60068383806117c290611e1d565b9450815181106117d5576117d4611d5b565b5b602002602001019060ff16908160ff16815250506006856117f69190611e64565b945060058160ff1603611807575f90505b5b611731565b818352829350505050919050565b5080545f8255905f5260205f209081019061183691906118c0565b50565b828054828255905f5260205f209081019282156118af579160200282015b828111156118ae578251825f6101000a81548173ffffffffffffffffffffffffffffffffffffffff021916908373ffffffffffffffffffffffffffffffffffffffff16021790555091602001919060010190611857565b5b5090506118bc91906118e5565b5090565b5b808211156118e1575f8082015f6118d89190611900565b506001016118c1565b5090565b5b808211156118fc575f815f9055506001016118e6565b5090565b5080545f8255905f5260205f209081019061191b91906118e5565b50565b5f819050919050565b6119308161191e565b82525050565b5f6020820190506119495f830184611927565b92915050565b5f604051905090565b5f80fd5b5f80fd5b6119698161191e565b8114611973575f80fd5b50565b5f8135905061198481611960565b92915050565b5f6020828403121561199f5761199e611958565b5b5f6119ac84828501611976565b91505092915050565b5f81519050919050565b5f82825260208201905092915050565b5f819050602082019050919050565b5f73ffffffffffffffffffffffffffffffffffffffff82169050919050565b5f611a07826119de565b9050919050565b611a17816119fd565b82525050565b5f611a288383611a0e565b60208301905092915050565b5f602082019050919050565b5f611a4a826119b5565b611a5481856119bf565b9350611a5f836119cf565b805f5b83811015611a8f578151611a768882611a1d565b9750611a8183611a34565b925050600181019050611a62565b5085935050505092915050565b5f6020820190508181035f830152611ab48184611a40565b905092915050565b5f80fd5b5f601f19601f8301169050919050565b7f4e487b71000000000000000000000000000000000000000000000000000000005f52604160045260245ffd5b611b0682611ac0565b810181811067ffffffffffffffff82111715611b2557611b24611ad0565b5b80604052505050565b5f611b3761194f565b9050611b438282611afd565b919050565b5f67ffffffffffffffff821115611b6257611b61611ad0565b5b602082029050602081019050919050565b5f80fd5b611b80816119fd565b8114611b8a575f80fd5b50565b5f81359050611b9b81611b77565b92915050565b5f611bb3611bae84611b48565b611b2e565b90508083825260208201905060208402830185811115611bd657611bd5611b73565b5b835b81811015611bff5780611beb8882611b8d565b845260208401935050602081019050611bd8565b5050509392505050565b5f82601f830112611c1d57611c1c611abc565b5b8135611c2d848260208601611ba1565b91505092915050565b5f60208284031215611c4b57611c4a611958565b5b5f82013567ffffffffffffffff811115611c6857611c6761195c565b5b611c7484828501611c09565b91505092915050565b5f8060408385031215611c9357611c92611958565b5b5f611ca085828601611976565b9250506020611cb185828601611976565b9150509250929050565b611cc4816119fd565b82525050565b5f602082019050611cdd5f830184611cbb565b92915050565b5f82825260208201905092915050565b7f47726f757020696e646578206f7574206f6620626f756e6473000000000000005f82015250565b5f611d27601983611ce3565b9150611d3282611cf3565b602082019050919050565b5f6020820190508181035f830152611d5481611d1b565b9050919050565b7f4e487b71000000000000000000000000000000000000000000000000000000005f52603260045260245ffd5b7f4e6f207061727469636970616e747300000000000000000000000000000000005f82015250565b5f611dbc600f83611ce3565b9150611dc782611d88565b602082019050919050565b5f6020820190508181035f830152611de981611db0565b9050919050565b7f4e487b71000000000000000000000000000000000000000000000000000000005f52601160045260245ffd5b5f611e278261191e565b91507fffffffffffffffffffffffffffffffffffffffffffffffffffffffffffffffff8203611e5957611e58611df0565b5b600182019050919050565b5f611e6e8261191e565b9150611e798361191e565b9250828203905081811115611e9157611e90611df0565b5b92915050565b5f604082019050611eaa5f830185611927565b611eb76020830184611927565b9392505050565b7f4d656d62657220696e646578206f7574206f6620626f756e64730000000000005f82015250565b5f611ef2601a83611ce3565b9150611efd82611ebe565b602082019050919050565b5f6020820190508181035f830152611f1f81611ee6565b9050919050565b5f611f308261191e565b9150611f3b8361191e565b9250828201905080821115611f5357611f52611df0565b5b92915050565b5f819050919050565b611f73611f6e8261191e565b611f59565b82525050565b5f611f848286611f62565b602082019150611f948285611f62565b602082019150611fa48284611f62565b602082019150819050949350505050565b7f4e487b71000000000000000000000000000000000000000000000000000000005f52601260045260245ffd5b5f611fec8261191e565b9150611ff78361191e565b92508261200757612006611fb5565b5b828206905092915050565b5f61201c8261191e565b91505f820361202e5761202d611df0565b5b600182039050919050565b5f6120438261191e565b915061204e8361191e565b92508261205e5761205d611fb5565b5b828204905092915050565b5f60ff82169050919050565b5f61207f82612069565b915060ff820361209257612091611df0565b5b60018201905091905056fea26469706673582212209988ea24803707a3a3eaa6853a4e5ea4a52445758c20288b32dd940b5ffb7ccf64736f6c634300081a0033",
			"opcodes": "PUSH1 0x80 PUSH1 0x40 MSTORE CALLVALUE DUP1 ISZERO PUSH1 0xE JUMPI PUSH0 DUP1 REVERT JUMPDEST POP PUSH2 0x20D3 DUP1 PUSH2 0x1C PUSH0 CODECOPY PUSH0 RETURN INVALID PUSH1 0x80 PUSH1 0x40 MSTORE CALLVALUE DUP1 ISZERO PUSH2 0xF JUMPI PUSH0 DUP1 REVERT JUMPDEST POP PUSH1 0x4 CALLDATASIZE LT PUSH2 0x55 JUMPI PUSH0 CALLDATALOAD PUSH1 0xE0 SHR DUP1 PUSH4 0x6545A93 EQ PUSH2 0x59 JUMPI DUP1 PUSH4 0x36CC8130 EQ PUSH2 0x77 JUMPI DUP1 PUSH4 0x3A40FEA8 EQ PUSH2 0xA7 JUMPI DUP1 PUSH4 0x71B44FC7 EQ PUSH2 0xC3 JUMPI DUP1 PUSH4 0x9119BA1B EQ PUSH2 0xF3 JUMPI JUMPDEST PUSH0 DUP1 REVERT JUMPDEST PUSH2 0x61 PUSH2 0x123 JUMP JUMPDEST PUSH1 0x40 MLOAD PUSH2 0x6E SWAP2 SWAP1 PUSH2 0x1936 JUMP JUMPDEST PUSH1 0x40 MLOAD DUP1 SWAP2 SUB SWAP1 RETURN JUMPDEST PUSH2 0x91 PUSH1 0x4 DUP1 CALLDATASIZE SUB DUP2 ADD SWAP1 PUSH2 0x8C SWAP2 SWAP1 PUSH2 0x198A JUMP JUMPDEST PUSH2 0x12E JUMP JUMPDEST PUSH1 0x40 MLOAD PUSH2 0x9E SWAP2 SWAP1 PUSH2 0x1A9C JUMP JUMPDEST PUSH1 0x40 MLOAD DUP1 SWAP2 SUB SWAP1 RETURN JUMPDEST PUSH2 0xC1 PUSH1 0x4 DUP1 CALLDATASIZE SUB DUP2 ADD SWAP1 PUSH2 0xBC SWAP2 SWAP1 PUSH2 0x1C36 JUMP JUMPDEST PUSH2 0x21C JUMP JUMPDEST STOP JUMPDEST PUSH2 0xDD PUSH1 0x4 DUP1 CALLDATASIZE SUB DUP2 ADD SWAP1 PUSH2 0xD8 SWAP2 SWAP1 PUSH2 0x1C7D JUMP JUMPDEST PUSH2 0x49B JUMP JUMPDEST PUSH1 0x40 MLOAD PUSH2 0xEA SWAP2 SWAP1 PUSH2 0x1CCA JUMP JUMPDEST PUSH1 0x40 MLOAD DUP1 SWAP2 SUB SWAP1 RETURN JUMPDEST PUSH2 0x10D PUSH1 0x4 DUP1 CALLDATASIZE SUB DUP2 ADD SWAP1 PUSH2 0x108 SWAP2 SWAP1 PUSH2 0x198A JUMP JUMPDEST PUSH2 0x5A3 JUMP JUMPDEST PUSH1 0x40 MLOAD PUSH2 0x11A SWAP2 SWAP1 PUSH2 0x1936 JUMP JUMPDEST PUSH1 0x40 MLOAD DUP1 SWAP2 SUB SWAP1 RETURN JUMPDEST PUSH0 DUP1 DUP1 SLOAD SWAP1 POP SWAP1 POP SWAP1 JUMP JUMPDEST PUSH1 0x60 PUSH0 DUP1 SLOAD SWAP1 POP DUP3 LT PUSH2 0x176 JUMPI PUSH1 0x40 MLOAD PUSH32 0x8C379A000000000000000000000000000000000000000000000000000000000 DUP2 MSTORE PUSH1 0x4 ADD PUSH2 0x16D SWAP1 PUSH2 0x1D3D JUMP JUMPDEST PUSH1 0x40 MLOAD DUP1 SWAP2 SUB SWAP1 REVERT JUMPDEST PUSH0 DUP3 DUP2 SLOAD DUP2 LT PUSH2 0x189 JUMPI PUSH2 0x188 PUSH2 0x1D5B JUMP JUMPDEST JUMPDEST SWAP1 PUSH0 MSTORE PUSH1 0x20 PUSH0 KECCAK256 ADD PUSH0 ADD DUP1 SLOAD DUP1 PUSH1 0x20 MUL PUSH1 0x20 ADD PUSH1 0x40 MLOAD SWAP1 DUP2 ADD PUSH1 0x40 MSTORE DUP1 SWAP3 SWAP2 SWAP1 DUP2 DUP2 MSTORE PUSH1 0x20 ADD DUP3 DUP1 SLOAD DUP1 ISZERO PUSH2 0x210 JUMPI PUSH1 0x20 MUL DUP3 ADD SWAP2 SWAP1 PUSH0 MSTORE PUSH1 0x20 PUSH0 KECCAK256 SWAP1 JUMPDEST DUP2 PUSH0 SWAP1 SLOAD SWAP1 PUSH2 0x100 EXP SWAP1 DIV PUSH20 0xFFFFFFFFFFFFFFFFFFFFFFFFFFFFFFFFFFFFFFFF AND PUSH20 0xFFFFFFFFFFFFFFFFFFFFFFFFFFFFFFFFFFFFFFFF AND DUP2 MSTORE PUSH1 0x20 ADD SWAP1 PUSH1 0x1 ADD SWAP1 DUP1 DUP4 GT PUSH2 0x1C7 JUMPI JUMPDEST POP POP POP POP POP SWAP1 POP SWAP2 SWAP1 POP JUMP JUMPDEST PUSH0 DUP2 MLOAD GT PUSH2 0x25F JUMPI PUSH1 0x40 MLOAD PUSH32 0x8C379A000000000000000000000000000000000000000000000000000000000 DUP2 MSTORE PUSH1 0x4 ADD PUSH2 0x256 SWAP1 PUSH2 0x1DD2 JUMP JUMPDEST PUSH1 0x40 MLOAD DUP1 SWAP2 SUB SWAP1 REVERT JUMPDEST PUSH0 DUP1 PUSH2 0x26B SWAP2 SWAP1 PUSH2 0x181B JUMP JUMPDEST PUSH2 0x274 DUP2 PUSH2 0x612 JUMP JUMPDEST PUSH0 PUSH2 0x27F DUP3 MLOAD PUSH2 0x757 JUMP JUMPDEST SWAP1 POP PUSH0 DUP1 JUMPDEST DUP3 MLOAD DUP2 LT ISZERO PUSH2 0x45A JUMPI PUSH0 DUP4 DUP3 DUP2 MLOAD DUP2 LT PUSH2 0x2A1 JUMPI PUSH2 0x2A0 PUSH2 0x1D5B JUMP JUMPDEST JUMPDEST PUSH1 0x20 MUL PUSH1 0x20 ADD ADD MLOAD PUSH1 0xFF AND PUSH8 0xFFFFFFFFFFFFFFFF DUP2 GT ISZERO PUSH2 0x2C5 JUMPI PUSH2 0x2C4 PUSH2 0x1AD0 JUMP JUMPDEST JUMPDEST PUSH1 0x40 MLOAD SWAP1 DUP1 DUP3 MSTORE DUP1 PUSH1 0x20 MUL PUSH1 0x20 ADD DUP3 ADD PUSH1 0x40 MSTORE DUP1 ISZERO PUSH2 0x2F3 JUMPI DUP2 PUSH1 0x20 ADD PUSH1 0x20 DUP3 MUL DUP1 CALLDATASIZE DUP4 CALLDATACOPY DUP1 DUP3 ADD SWAP2 POP POP SWAP1 POP JUMPDEST POP SWAP1 POP PUSH0 JUMPDEST DUP5 DUP4 DUP2 MLOAD DUP2 LT PUSH2 0x30B JUMPI PUSH2 0x30A PUSH2 0x1D5B JUMP JUMPDEST JUMPDEST PUSH1 0x20 MUL PUSH1 0x20 ADD ADD MLOAD PUSH1 0xFF AND DUP2 LT DUP1 ISZERO PUSH2 0x324 JUMPI POP DUP6 MLOAD DUP5 LT JUMPDEST ISZERO PUSH2 0x3B2 JUMPI DUP6 DUP5 DUP2 MLOAD DUP2 LT PUSH2 0x33C JUMPI PUSH2 0x33B PUSH2 0x1D5B JUMP JUMPDEST JUMPDEST PUSH1 0x20 MUL PUSH1 0x20 ADD ADD MLOAD DUP3 DUP3 DUP2 MLOAD DUP2 LT PUSH2 0x357 JUMPI PUSH2 0x356 PUSH2 0x1D5B JUMP JUMPDEST JUMPDEST PUSH1 0x20 MUL PUSH1 0x20 ADD ADD SWAP1 PUSH20 0xFFFFFFFFFFFFFFFFFFFFFFFFFFFFFFFFFFFFFFFF AND SWAP1 DUP2 PUSH20 0xFFFFFFFFFFFFFFFFFFFFFFFFFFFFFFFFFFFFFFFF AND DUP2 MSTORE POP POP DUP4 DUP1 PUSH2 0x39C SWAP1 PUSH2 0x1E1D JUMP JUMPDEST SWAP5 POP POP DUP1 DUP1 PUSH2 0x3AA SWAP1 PUSH2 0x1E1D JUMP JUMPDEST SWAP2 POP POP PUSH2 0x2F8 JUMP JUMPDEST POP PUSH0 PUSH1 0x40 MLOAD DUP1 PUSH1 0x20 ADD PUSH1 0x40 MSTORE DUP1 DUP4 DUP2 MSTORE POP SWAP1 DUP1 PUSH1 0x1 DUP2 SLOAD ADD DUP1 DUP3 SSTORE DUP1 SWAP2 POP POP PUSH1 0x1 SWAP1 SUB SWAP1 PUSH0 MSTORE PUSH1 0x20 PUSH0 KECCAK256 ADD PUSH0 SWAP1 SWAP2 SWAP1 SWAP2 SWAP1 SWAP2 POP PUSH0 DUP3 ADD MLOAD DUP2 PUSH0 ADD SWAP1 DUP1 MLOAD SWAP1 PUSH1 0x20 ADD SWAP1 PUSH2 0x3FF SWAP3 SWAP2 SWAP1 PUSH2 0x1839 JUMP JUMPDEST POP POP POP PUSH32 0x767A851128F909C41FCA6F6228026B9236F48B30FBEA453B216BB7BB5FD5191A PUSH1 0x1 PUSH0 DUP1 SLOAD SWAP1 POP PUSH2 0x434 SWAP2 SWAP1 PUSH2 0x1E64 JUMP JUMPDEST DUP3 MLOAD PUSH1 0x40 MLOAD PUSH2 0x444 SWAP3 SWAP2 SWAP1 PUSH2 0x1E97 JUMP JUMPDEST PUSH1 0x40 MLOAD DUP1 SWAP2 SUB SWAP1 LOG1 POP DUP1 DUP1 PUSH1 0x1 ADD SWAP2 POP POP PUSH2 0x284 JUMP JUMPDEST POP PUSH32 0xA190ACB00932F4B8695E401D761368489BE3AEE79A894990162D47ABF4148DAA PUSH0 DUP1 SLOAD SWAP1 POP PUSH1 0x40 MLOAD PUSH2 0x48E SWAP2 SWAP1 PUSH2 0x1936 JUMP JUMPDEST PUSH1 0x40 MLOAD DUP1 SWAP2 SUB SWAP1 LOG1 POP POP POP JUMP JUMPDEST PUSH0 DUP1 DUP1 SLOAD SWAP1 POP DUP4 LT PUSH2 0x4E2 JUMPI PUSH1 0x40 MLOAD PUSH32 0x8C379A000000000000000000000000000000000000000000000000000000000 DUP2 MSTORE PUSH1 0x4 ADD PUSH2 0x4D9 SWAP1 PUSH2 0x1D3D JUMP JUMPDEST PUSH1 0x40 MLOAD DUP1 SWAP2 SUB SWAP1 REVERT JUMPDEST PUSH0 DUP4 DUP2 SLOAD DUP2 LT PUSH2 0x4F5 JUMPI PUSH2 0x4F4 PUSH2 0x1D5B JUMP JUMPDEST JUMPDEST SWAP1 PUSH0 MSTORE PUSH1 0x20 PUSH0 KECCAK256 ADD PUSH0 ADD DUP1 SLOAD SWAP1 POP DUP3 LT PUSH2 0x544 JUMPI PUSH1 0x40 MLOAD PUSH32 0x8C379A000000000000000000000000000000000000000000000000000000000 DUP2 MSTORE PUSH1 0x4 ADD PUSH2 0x53B SWAP1 PUSH2 0x1F08 JUMP JUMPDEST PUSH1 0x40 MLOAD DUP1 SWAP2 SUB SWAP1 REVERT JUMPDEST PUSH0 DUP4 DUP2 SLOAD DUP2 LT PUSH2 0x557 JUMPI PUSH2 0x556 PUSH2 0x1D5B JUMP JUMPDEST JUMPDEST SWAP1 PUSH0 MSTORE PUSH1 0x20 PUSH0 KECCAK256 ADD PUSH0 ADD DUP3 DUP2 SLOAD DUP2 LT PUSH2 0x573 JUMPI PUSH2 0x572 PUSH2 0x1D5B JUMP JUMPDEST JUMPDEST SWAP1 PUSH0 MSTORE PUSH1 0x20 PUSH0 KECCAK256 ADD PUSH0 SWAP1 SLOAD SWAP1 PUSH2 0x100 EXP SWAP1 DIV PUSH20 0xFFFFFFFFFFFFFFFFFFFFFFFFFFFFFFFFFFFFFFFF AND SWAP1 POP SWAP3 SWAP2 POP POP JUMP JUMPDEST PUSH0 DUP1 DUP1 SLOAD SWAP1 POP DUP3 LT PUSH2 0x5EA JUMPI PUSH1 0x40 MLOAD PUSH32 0x8C379A000000000000000000000000000000000000000000000000000000000 DUP2 MSTORE PUSH1 0x4 ADD PUSH2 0x5E1 SWAP1 PUSH2 0x1D3D JUMP JUMPDEST PUSH1 0x40 MLOAD DUP1 SWAP2 SUB SWAP1 REVERT JUMPDEST PUSH0 DUP3 DUP2 SLOAD DUP2 LT PUSH2 0x5FD JUMPI PUSH2 0x5FC PUSH2 0x1D5B JUMP JUMPDEST JUMPDEST SWAP1 PUSH0 MSTORE PUSH1 0x20 PUSH0 KECCAK256 ADD PUSH0 ADD DUP1 SLOAD SWAP1 POP SWAP1 POP SWAP2 SWAP1 POP JUMP JUMPDEST PUSH0 PUSH1 0x1 DUP3 MLOAD PUSH2 0x621 SWAP2 SWAP1 PUSH2 0x1E64 JUMP JUMPDEST SWAP1 POP JUMPDEST PUSH0 DUP2 GT ISZERO PUSH2 0x753 JUMPI PUSH0 PUSH1 0x1 DUP3 PUSH2 0x63A SWAP2 SWAP1 PUSH2 0x1F26 JUMP JUMPDEST TIMESTAMP PREVRANDAO DUP5 PUSH1 0x40 MLOAD PUSH1 0x20 ADD PUSH2 0x64F SWAP4 SWAP3 SWAP2 SWAP1 PUSH2 0x1F79 JUMP JUMPDEST PUSH1 0x40 MLOAD PUSH1 0x20 DUP2 DUP4 SUB SUB DUP2 MSTORE SWAP1 PUSH1 0x40 MSTORE DUP1 MLOAD SWAP1 PUSH1 0x20 ADD KECCAK256 PUSH0 SHR PUSH2 0x671 SWAP2 SWAP1 PUSH2 0x1FE2 JUMP JUMPDEST SWAP1 POP DUP3 DUP2 DUP2 MLOAD DUP2 LT PUSH2 0x686 JUMPI PUSH2 0x685 PUSH2 0x1D5B JUMP JUMPDEST JUMPDEST PUSH1 0x20 MUL PUSH1 0x20 ADD ADD MLOAD DUP4 DUP4 DUP2 MLOAD DUP2 LT PUSH2 0x6A1 JUMPI PUSH2 0x6A0 PUSH2 0x1D5B JUMP JUMPDEST JUMPDEST PUSH1 0x20 MUL PUSH1 0x20 ADD ADD MLOAD DUP5 DUP5 DUP2 MLOAD DUP2 LT PUSH2 0x6BC JUMPI PUSH2 0x6BB PUSH2 0x1D5B JUMP JUMPDEST JUMPDEST PUSH1 0x20 MUL PUSH1 0x20 ADD ADD DUP6 DUP5 DUP2 MLOAD DUP2 LT PUSH2 0x6D6 JUMPI PUSH2 0x6D5 PUSH2 0x1D5B JUMP JUMPDEST JUMPDEST PUSH1 0x20 MUL PUSH1 0x20 ADD ADD DUP3 PUSH20 0xFFFFFFFFFFFFFFFFFFFFFFFFFFFFFFFFFFFFFFFF AND PUSH20 0xFFFFFFFFFFFFFFFFFFFFFFFFFFFFFFFFFFFFFFFF AND DUP2 MSTORE POP DUP3 PUSH20 0xFFFFFFFFFFFFFFFFFFFFFFFFFFFFFFFFFFFFFFFF AND PUSH20 0xFFFFFFFFFFFFFFFFFFFFFFFFFFFFFFFFFFFFFFFF AND DUP2 MSTORE POP POP POP POP DUP1 DUP1 PUSH2 0x74B SWAP1 PUSH2 0x2012 JUMP JUMPDEST SWAP2 POP POP PUSH2 0x624 JUMP JUMPDEST POP POP JUMP JUMPDEST PUSH1 0x60 PUSH1 0x14 DUP3 GT PUSH2 0x771 JUMPI PUSH2 0x76A DUP3 PUSH2 0x782 JUMP JUMPDEST SWAP1 POP PUSH2 0x77D JUMP JUMPDEST PUSH2 0x77A DUP3 PUSH2 0x16C8 JUMP JUMPDEST SWAP1 POP JUMPDEST SWAP2 SWAP1 POP JUMP JUMPDEST PUSH1 0x60 DUP1 PUSH1 0x1 DUP4 SUB PUSH2 0x7DE JUMPI PUSH1 0x1 PUSH8 0xFFFFFFFFFFFFFFFF DUP2 GT ISZERO PUSH2 0x7A8 JUMPI PUSH2 0x7A7 PUSH2 0x1AD0 JUMP JUMPDEST JUMPDEST PUSH1 0x40 MLOAD SWAP1 DUP1 DUP3 MSTORE DUP1 PUSH1 0x20 MUL PUSH1 0x20 ADD DUP3 ADD PUSH1 0x40 MSTORE DUP1 ISZERO PUSH2 0x7D6 JUMPI DUP2 PUSH1 0x20 ADD PUSH1 0x20 DUP3 MUL DUP1 CALLDATASIZE DUP4 CALLDATACOPY DUP1 DUP3 ADD SWAP2 POP POP SWAP1 POP JUMPDEST POP SWAP1 POP PUSH2 0xE88 JUMP JUMPDEST PUSH1 0x2 DUP4 SUB PUSH2 0x837 JUMPI PUSH1 0x1 PUSH8 0xFFFFFFFFFFFFFFFF DUP2 GT ISZERO PUSH2 0x801 JUMPI PUSH2 0x800 PUSH2 0x1AD0 JUMP JUMPDEST JUMPDEST PUSH1 0x40 MLOAD SWAP1 DUP1 DUP3 MSTORE DUP1 PUSH1 0x20 MUL PUSH1 0x20 ADD DUP3 ADD PUSH1 0x40 MSTORE DUP1 ISZERO PUSH2 0x82F JUMPI DUP2 PUSH1 0x20 ADD PUSH1 0x20 DUP3 MUL DUP1 CALLDATASIZE DUP4 CALLDATACOPY DUP1 DUP3 ADD SWAP2 POP POP SWAP1 POP JUMPDEST POP SWAP1 POP PUSH2 0xE87 JUMP JUMPDEST PUSH1 0x3 DUP4 SUB PUSH2 0x890 JUMPI PUSH1 0x1 PUSH8 0xFFFFFFFFFFFFFFFF DUP2 GT ISZERO PUSH2 0x85A JUMPI PUSH2 0x859 PUSH2 0x1AD0 JUMP JUMPDEST JUMPDEST PUSH1 0x40 MLOAD SWAP1 DUP1 DUP3 MSTORE DUP1 PUSH1 0x20 MUL PUSH1 0x20 ADD DUP3 ADD PUSH1 0x40 MSTORE DUP1 ISZERO PUSH2 0x888 JUMPI DUP2 PUSH1 0x20 ADD PUSH1 0x20 DUP3 MUL DUP1 CALLDATASIZE DUP4 CALLDATACOPY DUP1 DUP3 ADD SWAP2 POP POP SWAP1 POP JUMPDEST POP SWAP1 POP PUSH2 0xE86 JUMP JUMPDEST PUSH1 0x4 DUP4 SUB PUSH2 0x8E9 JUMPI PUSH1 0x1 PUSH8 0xFFFFFFFFFFFFFFFF DUP2 GT ISZERO PUSH2 0x8B3 JUMPI PUSH2 0x8B2 PUSH2 0x1AD0 JUMP JUMPDEST JUMPDEST PUSH1 0x40 MLOAD SWAP1 DUP1 DUP3 MSTORE DUP1 PUSH1 0x20 MUL PUSH1 0x20 ADD DUP3 ADD PUSH1 0x40 MSTORE DUP1 ISZERO PUSH2 0x8E1 JUMPI DUP2 PUSH1 0x20 ADD PUSH1 0x20 DUP3 MUL DUP1 CALLDATASIZE DUP4 CALLDATACOPY DUP1 DUP3 ADD SWAP2 POP POP SWAP1 POP JUMPDEST POP SWAP1 POP PUSH2 0xE85 JUMP JUMPDEST PUSH1 0x5 DUP4 SUB PUSH2 0x942 JUMPI PUSH1 0x1 PUSH8 0xFFFFFFFFFFFFFFFF DUP2 GT ISZERO PUSH2 0x90C JUMPI PUSH2 0x90B PUSH2 0x1AD0 JUMP JUMPDEST JUMPDEST PUSH1 0x40 MLOAD SWAP1 DUP1 DUP3 MSTORE DUP1 PUSH1 0x20 MUL PUSH1 0x20 ADD DUP3 ADD PUSH1 0x40 MSTORE DUP1 ISZERO PUSH2 0x93A JUMPI DUP2 PUSH1 0x20 ADD PUSH1 0x20 DUP3 MUL DUP1 CALLDATASIZE DUP4 CALLDATACOPY DUP1 DUP3 ADD SWAP2 POP POP SWAP1 POP JUMPDEST POP SWAP1 POP PUSH2 0xE84 JUMP JUMPDEST PUSH1 0x6 DUP4 SUB PUSH2 0x99B JUMPI PUSH1 0x1 PUSH8 0xFFFFFFFFFFFFFFFF DUP2 GT ISZERO PUSH2 0x965 JUMPI PUSH2 0x964 PUSH2 0x1AD0 JUMP JUMPDEST JUMPDEST PUSH1 0x40 MLOAD SWAP1 DUP1 DUP3 MSTORE DUP1 PUSH1 0x20 MUL PUSH1 0x20 ADD DUP3 ADD PUSH1 0x40 MSTORE DUP1 ISZERO PUSH2 0x993 JUMPI DUP2 PUSH1 0x20 ADD PUSH1 0x20 DUP3 MUL DUP1 CALLDATASIZE DUP4 CALLDATACOPY DUP1 DUP3 ADD SWAP2 POP POP SWAP1 POP JUMPDEST POP SWAP1 POP PUSH2 0xE83 JUMP JUMPDEST PUSH1 0x7 DUP4 SUB PUSH2 0x9F4 JUMPI PUSH1 0x2 PUSH8 0xFFFFFFFFFFFFFFFF DUP2 GT ISZERO PUSH2 0x9BE JUMPI PUSH2 0x9BD PUSH2 0x1AD0 JUMP JUMPDEST JUMPDEST PUSH1 0x40 MLOAD SWAP1 DUP1 DUP3 MSTORE DUP1 PUSH1 0x20 MUL PUSH1 0x20 ADD DUP3 ADD PUSH1 0x40 MSTORE DUP1 ISZERO PUSH2 0x9EC JUMPI DUP2 PUSH1 0x20 ADD PUSH1 0x20 DUP3 MUL DUP1 CALLDATASIZE DUP4 CALLDATACOPY DUP1 DUP3 ADD SWAP2 POP POP SWAP1 POP JUMPDEST POP SWAP1 POP PUSH2 0xE82 JUMP JUMPDEST PUSH1 0x8 DUP4 SUB PUSH2 0xA4D JUMPI PUSH1 0x2 PUSH8 0xFFFFFFFFFFFFFFFF DUP2 GT ISZERO PUSH2 0xA17 JUMPI PUSH2 0xA16 PUSH2 0x1AD0 JUMP JUMPDEST JUMPDEST PUSH1 0x40 MLOAD SWAP1 DUP1 DUP3 MSTORE DUP1 PUSH1 0x20 MUL PUSH1 0x20 ADD DUP3 ADD PUSH1 0x40 MSTORE DUP1 ISZERO PUSH2 0xA45 JUMPI DUP2 PUSH1 0x20 ADD PUSH1 0x20 DUP3 MUL DUP1 CALLDATASIZE DUP4 CALLDATACOPY DUP1 DUP3 ADD SWAP2 POP POP SWAP1 POP JUMPDEST POP SWAP1 POP PUSH2 0xE81 JUMP JUMPDEST PUSH1 0x9 DUP4 SUB PUSH2 0xAA6 JUMPI PUSH1 0x2 PUSH8 0xFFFFFFFFFFFFFFFF DUP2 GT ISZERO PUSH2 0xA70 JUMPI PUSH2 0xA6F PUSH2 0x1AD0 JUMP JUMPDEST JUMPDEST PUSH1 0x40 MLOAD SWAP1 DUP1 DUP3 MSTORE DUP1 PUSH1 0x20 MUL PUSH1 0x20 ADD DUP3 ADD PUSH1 0x40 MSTORE DUP1 ISZERO PUSH2 0xA9E JUMPI DUP2 PUSH1 0x20 ADD PUSH1 0x20 DUP3 MUL DUP1 CALLDATASIZE DUP4 CALLDATACOPY DUP1 DUP3 ADD SWAP2 POP POP SWAP1 POP JUMPDEST POP SWAP1 POP PUSH2 0xE80 JUMP JUMPDEST PUSH1 0xA DUP4 SUB PUSH2 0xAFF JUMPI PUSH1 0x2 PUSH8 0xFFFFFFFFFFFFFFFF DUP2 GT ISZERO PUSH2 0xAC9 JUMPI PUSH2 0xAC8 PUSH2 0x1AD0 JUMP JUMPDEST JUMPDEST PUSH1 0x40 MLOAD SWAP1 DUP1 DUP3 MSTORE DUP1 PUSH1 0x20 MUL PUSH1 0x20 ADD DUP3 ADD PUSH1 0x40 MSTORE DUP1 ISZERO PUSH2 0xAF7 JUMPI DUP2 PUSH1 0x20 ADD PUSH1 0x20 DUP3 MUL DUP1 CALLDATASIZE DUP4 CALLDATACOPY DUP1 DUP3 ADD SWAP2 POP POP SWAP1 POP JUMPDEST POP SWAP1 POP PUSH2 0xE7F JUMP JUMPDEST PUSH1 0xB DUP4 SUB PUSH2 0xB58 JUMPI PUSH1 0x2 PUSH8 0xFFFFFFFFFFFFFFFF DUP2 GT ISZERO PUSH2 0xB22 JUMPI PUSH2 0xB21 PUSH2 0x1AD0 JUMP JUMPDEST JUMPDEST PUSH1 0x40 MLOAD SWAP1 DUP1 DUP3 MSTORE DUP1 PUSH1 0x20 MUL PUSH1 0x20 ADD DUP3 ADD PUSH1 0x40 MSTORE DUP1 ISZERO PUSH2 0xB50 JUMPI DUP2 PUSH1 0x20 ADD PUSH1 0x20 DUP3 MUL DUP1 CALLDATASIZE DUP4 CALLDATACOPY DUP1 DUP3 ADD SWAP2 POP POP SWAP1 POP JUMPDEST POP SWAP1 POP PUSH2 0xE7E JUMP JUMPDEST PUSH1 0xC DUP4 SUB PUSH2 0xBB1 JUMPI PUSH1 0x2 PUSH8 0xFFFFFFFFFFFFFFFF DUP2 GT ISZERO PUSH2 0xB7B JUMPI PUSH2 0xB7A PUSH2 0x1AD0 JUMP JUMPDEST JUMPDEST PUSH1 0x40 MLOAD SWAP1 DUP1 DUP3 MSTORE DUP1 PUSH1 0x20 MUL PUSH1 0x20 ADD DUP3 ADD PUSH1 0x40 MSTORE DUP1 ISZERO PUSH2 0xBA9 JUMPI DUP2 PUSH1 0x20 ADD PUSH1 0x20 DUP3 MUL DUP1 CALLDATASIZE DUP4 CALLDATACOPY DUP1 DUP3 ADD SWAP2 POP POP SWAP1 POP JUMPDEST POP SWAP1 POP PUSH2 0xE7D JUMP JUMPDEST PUSH1 0xD DUP4 SUB PUSH2 0xC0A JUMPI PUSH1 0x3 PUSH8 0xFFFFFFFFFFFFFFFF DUP2 GT ISZERO PUSH2 0xBD4 JUMPI PUSH2 0xBD3 PUSH2 0x1AD0 JUMP JUMPDEST JUMPDEST PUSH1 0x40 MLOAD SWAP1 DUP1 DUP3 MSTORE DUP1 PUSH1 0x20 MUL PUSH1 0x20 ADD DUP3 ADD PUSH1 0x40 MSTORE DUP1 ISZERO PUSH2 0xC02 JUMPI DUP2 PUSH1 0x20 ADD PUSH1 0x20 DUP3 MUL DUP1 CALLDATASIZE DUP4 CALLDATACOPY DUP1 DUP3 ADD SWAP2 POP POP SWAP1 POP JUMPDEST POP SWAP1 POP PUSH2 0xE7C JUMP JUMPDEST PUSH1 0xE DUP4 SUB PUSH2 0xC63 JUMPI PUSH1 0x3 PUSH8 0xFFFFFFFFFFFFFFFF DUP2 GT ISZERO PUSH2 0xC2D JUMPI PUSH2 0xC2C PUSH2 0x1AD0 JUMP JUMPDEST JUMPDEST PUSH1 0x40 MLOAD SWAP1 DUP1 DUP3 MSTORE DUP1 PUSH1 0x20 MUL PUSH1 0x20 ADD DUP3 ADD PUSH1 0x40 MSTORE DUP1 ISZERO PUSH2 0xC5B JUMPI DUP2 PUSH1 0x20 ADD PUSH1 0x20 DUP3 MUL DUP1 CALLDATASIZE DUP4 CALLDATACOPY DUP1 DUP3 ADD SWAP2 POP POP SWAP1 POP JUMPDEST POP SWAP1 POP PUSH2 0xE7B JUMP JUMPDEST PUSH1 0xF DUP4 SUB PUSH2 0xCBC JUMPI PUSH1 0x3 PUSH8 0xFFFFFFFFFFFFFFFF DUP2 GT ISZERO PUSH2 0xC86 JUMPI PUSH2 0xC85 PUSH2 0x1AD0 JUMP JUMPDEST JUMPDEST PUSH1 0x40 MLOAD SWAP1 DUP1 DUP3 MSTORE DUP1 PUSH1 0x20 MUL PUSH1 0x20 ADD DUP3 ADD PUSH1 0x40 MSTORE DUP1 ISZERO PUSH2 0xCB4 JUMPI DUP2 PUSH1 0x20 ADD PUSH1 0x20 DUP3 MUL DUP1 CALLDATASIZE DUP4 CALLDATACOPY DUP1 DUP3 ADD SWAP2 POP POP SWAP1 POP JUMPDEST POP SWAP1 POP PUSH2 0xE7A JUMP JUMPDEST PUSH1 0x10 DUP4 SUB PUSH2 0xD15 JUMPI PUSH1 0x3 PUSH8 0xFFFFFFFFFFFFFFFF DUP2 GT ISZERO PUSH2 0xCDF JUMPI PUSH2 0xCDE PUSH2 0x1AD0 JUMP JUMPDEST JUMPDEST PUSH1 0x40 MLOAD SWAP1 DUP1 DUP3 MSTORE DUP1 PUSH1 0x20 MUL PUSH1 0x20 ADD DUP3 ADD PUSH1 0x40 MSTORE DUP1 ISZERO PUSH2 0xD0D JUMPI DUP2 PUSH1 0x20 ADD PUSH1 0x20 DUP3 MUL DUP1 CALLDATASIZE DUP4 CALLDATACOPY DUP1 DUP3 ADD SWAP2 POP POP SWAP1 POP JUMPDEST POP SWAP1 POP PUSH2 0xE79 JUMP JUMPDEST PUSH1 0x11 DUP4 SUB PUSH2 0xD6E JUMPI PUSH1 0x3 PUSH8 0xFFFFFFFFFFFFFFFF DUP2 GT ISZERO PUSH2 0xD38 JUMPI PUSH2 0xD37 PUSH2 0x1AD0 JUMP JUMPDEST JUMPDEST PUSH1 0x40 MLOAD SWAP1 DUP1 DUP3 MSTORE DUP1 PUSH1 0x20 MUL PUSH1 0x20 ADD DUP3 ADD PUSH1 0x40 MSTORE DUP1 ISZERO PUSH2 0xD66 JUMPI DUP2 PUSH1 0x20 ADD PUSH1 0x20 DUP3 MUL DUP1 CALLDATASIZE DUP4 CALLDATACOPY DUP1 DUP3 ADD SWAP2 POP POP SWAP1 POP JUMPDEST POP SWAP1 POP PUSH2 0xE78 JUMP JUMPDEST PUSH1 0x12 DUP4 SUB PUSH2 0xDC7 JUMPI PUSH1 0x3 PUSH8 0xFFFFFFFFFFFFFFFF DUP2 GT ISZERO PUSH2 0xD91 JUMPI PUSH2 0xD90 PUSH2 0x1AD0 JUMP JUMPDEST JUMPDEST PUSH1 0x40 MLOAD SWAP1 DUP1 DUP3 MSTORE DUP1 PUSH1 0x20 MUL PUSH1 0x20 ADD DUP3 ADD PUSH1 0x40 MSTORE DUP1 ISZERO PUSH2 0xDBF JUMPI DUP2 PUSH1 0x20 ADD PUSH1 0x20 DUP3 MUL DUP1 CALLDATASIZE DUP4 CALLDATACOPY DUP1 DUP3 ADD SWAP2 POP POP SWAP1 POP JUMPDEST POP SWAP1 POP PUSH2 0xE77 JUMP JUMPDEST PUSH1 0x13 DUP4 SUB PUSH2 0xE20 JUMPI PUSH1 0x4 PUSH8 0xFFFFFFFFFFFFFFFF DUP2 GT ISZERO PUSH2 0xDEA JUMPI PUSH2 0xDE9 PUSH2 0x1AD0 JUMP JUMPDEST JUMPDEST PUSH1 0x40 MLOAD SWAP1 DUP1 DUP3 MSTORE DUP1 PUSH1 0x20 MUL PUSH1 0x20 ADD DUP3 ADD PUSH1 0x40 MSTORE DUP1 ISZERO PUSH2 0xE18 JUMPI DUP2 PUSH1 0x20 ADD PUSH1 0x20 DUP3 MUL DUP1 CALLDATASIZE DUP4 CALLDATACOPY DUP1 DUP3 ADD SWAP2 POP POP SWAP1 POP JUMPDEST POP SWAP1 POP PUSH2 0xE76 JUMP JUMPDEST PUSH1 0x14 DUP4 SUB PUSH2 0xE75 JUMPI PUSH1 0x4 PUSH8 0xFFFFFFFFFFFFFFFF DUP2 GT ISZERO PUSH2 0xE43 JUMPI PUSH2 0xE42 PUSH2 0x1AD0 JUMP JUMPDEST JUMPDEST PUSH1 0x40 MLOAD SWAP1 DUP1 DUP3 MSTORE DUP1 PUSH1 0x20 MUL PUSH1 0x20 ADD DUP3 ADD PUSH1 0x40 MSTORE DUP1 ISZERO PUSH2 0xE71 JUMPI DUP2 PUSH1 0x20 ADD PUSH1 0x20 DUP3 MUL DUP1 CALLDATASIZE DUP4 CALLDATACOPY DUP1 DUP3 ADD SWAP2 POP POP SWAP1 POP JUMPDEST POP SWAP1 POP JUMPDEST JUMPDEST JUMPDEST JUMPDEST JUMPDEST JUMPDEST JUMPDEST JUMPDEST JUMPDEST JUMPDEST JUMPDEST JUMPDEST JUMPDEST JUMPDEST JUMPDEST JUMPDEST JUMPDEST JUMPDEST JUMPDEST JUMPDEST PUSH1 0x1 DUP4 SUB PUSH2 0xEBE JUMPI PUSH1 0x1 DUP2 PUSH0 DUP2 MLOAD DUP2 LT PUSH2 0xEA5 JUMPI PUSH2 0xEA4 PUSH2 0x1D5B JUMP JUMPDEST JUMPDEST PUSH1 0x20 MUL PUSH1 0x20 ADD ADD SWAP1 PUSH1 0xFF AND SWAP1 DUP2 PUSH1 0xFF AND DUP2 MSTORE POP POP PUSH2 0x16BF JUMP JUMPDEST PUSH1 0x2 DUP4 SUB PUSH2 0xEF4 JUMPI PUSH1 0x2 DUP2 PUSH0 DUP2 MLOAD DUP2 LT PUSH2 0xEDB JUMPI PUSH2 0xEDA PUSH2 0x1D5B JUMP JUMPDEST JUMPDEST PUSH1 0x20 MUL PUSH1 0x20 ADD ADD SWAP1 PUSH1 0xFF AND SWAP1 DUP2 PUSH1 0xFF AND DUP2 MSTORE POP POP PUSH2 0x16BE JUMP JUMPDEST PUSH1 0x3 DUP4 SUB PUSH2 0xF2A JUMPI PUSH1 0x3 DUP2 PUSH0 DUP2 MLOAD DUP2 LT PUSH2 0xF11 JUMPI PUSH2 0xF10 PUSH2 0x1D5B JUMP JUMPDEST JUMPDEST PUSH1 0x20 MUL PUSH1 0x20 ADD ADD SWAP1 PUSH1 0xFF AND SWAP1 DUP2 PUSH1 0xFF AND DUP2 MSTORE POP POP PUSH2 0x16BD JUMP JUMPDEST PUSH1 0x4 DUP4 SUB PUSH2 0xF60 JUMPI PUSH1 0x4 DUP2 PUSH0 DUP2 MLOAD DUP2 LT PUSH2 0xF47 JUMPI PUSH2 0xF46 PUSH2 0x1D5B JUMP JUMPDEST JUMPDEST PUSH1 0x20 MUL PUSH1 0x20 ADD ADD SWAP1 PUSH1 0xFF AND SWAP1 DUP2 PUSH1 0xFF AND DUP2 MSTORE POP POP PUSH2 0x16BC JUMP JUMPDEST PUSH1 0x5 DUP4 SUB PUSH2 0xF96 JUMPI PUSH1 0x5 DUP2 PUSH0 DUP2 MLOAD DUP2 LT PUSH2 0xF7D JUMPI PUSH2 0xF7C PUSH2 0x1D5B JUMP JUMPDEST JUMPDEST PUSH1 0x20 MUL PUSH1 0x20 ADD ADD SWAP1 PUSH1 0xFF AND SWAP1 DUP2 PUSH1 0xFF AND DUP2 MSTORE POP POP PUSH2 0x16BB JUMP JUMPDEST PUSH1 0x6 DUP4 SUB PUSH2 0xFCC JUMPI PUSH1 0x6 DUP2 PUSH0 DUP2 MLOAD DUP2 LT PUSH2 0xFB3 JUMPI PUSH2 0xFB2 PUSH2 0x1D5B JUMP JUMPDEST JUMPDEST PUSH1 0x20 MUL PUSH1 0x20 ADD ADD SWAP1 PUSH1 0xFF AND SWAP1 DUP2 PUSH1 0xFF AND DUP2 MSTORE POP POP PUSH2 0x16BA JUMP JUMPDEST PUSH1 0x7 DUP4 SUB PUSH2 0x102C JUMPI PUSH1 0x3 DUP2 PUSH0 DUP2 MLOAD DUP2 LT PUSH2 0xFE9 JUMPI PUSH2 0xFE8 PUSH2 0x1D5B JUMP JUMPDEST JUMPDEST PUSH1 0x20 MUL PUSH1 0x20 ADD ADD SWAP1 PUSH1 0xFF AND SWAP1 DUP2 PUSH1 0xFF AND DUP2 MSTORE POP POP PUSH1 0x4 DUP2 PUSH1 0x1 DUP2 MLOAD DUP2 LT PUSH2 0x1013 JUMPI PUSH2 0x1012 PUSH2 0x1D5B JUMP JUMPDEST JUMPDEST PUSH1 0x20 MUL PUSH1 0x20 ADD ADD SWAP1 PUSH1 0xFF AND SWAP1 DUP2 PUSH1 0xFF AND DUP2 MSTORE POP POP PUSH2 0x16B9 JUMP JUMPDEST PUSH1 0x8 DUP4 SUB PUSH2 0x108C JUMPI PUSH1 0x4 DUP2 PUSH0 DUP2 MLOAD DUP2 LT PUSH2 0x1049 JUMPI PUSH2 0x1048 PUSH2 0x1D5B JUMP JUMPDEST JUMPDEST PUSH1 0x20 MUL PUSH1 0x20 ADD ADD SWAP1 PUSH1 0xFF AND SWAP1 DUP2 PUSH1 0xFF AND DUP2 MSTORE POP POP PUSH1 0x4 DUP2 PUSH1 0x1 DUP2 MLOAD DUP2 LT PUSH2 0x1073 JUMPI PUSH2 0x1072 PUSH2 0x1D5B JUMP JUMPDEST JUMPDEST PUSH1 0x20 MUL PUSH1 0x20 ADD ADD SWAP1 PUSH1 0xFF AND SWAP1 DUP2 PUSH1 0xFF AND DUP2 MSTORE POP POP PUSH2 0x16B8 JUMP JUMPDEST PUSH1 0x9 DUP4 SUB PUSH2 0x10EC JUMPI PUSH1 0x5 DUP2 PUSH0 DUP2 MLOAD DUP2 LT PUSH2 0x10A9 JUMPI PUSH2 0x10A8 PUSH2 0x1D5B JUMP JUMPDEST JUMPDEST PUSH1 0x20 MUL PUSH1 0x20 ADD ADD SWAP1 PUSH1 0xFF AND SWAP1 DUP2 PUSH1 0xFF AND DUP2 MSTORE POP POP PUSH1 0x4 DUP2 PUSH1 0x1 DUP2 MLOAD DUP2 LT PUSH2 0x10D3 JUMPI PUSH2 0x10D2 PUSH2 0x1D5B JUMP JUMPDEST JUMPDEST PUSH1 0x20 MUL PUSH1 0x20 ADD ADD SWAP1 PUSH1 0xFF AND SWAP1 DUP2 PUSH1 0xFF AND DUP2 MSTORE POP POP PUSH2 0x16B7 JUMP JUMPDEST PUSH1 0xA DUP4 SUB PUSH2 0x114C JUMPI PUSH1 0x5 DUP2 PUSH0 DUP2 MLOAD DUP2 LT PUSH2 0x1109 JUMPI PUSH2 0x1108 PUSH2 0x1D5B JUMP JUMPDEST JUMPDEST PUSH1 0x20 MUL PUSH1 0x20 ADD ADD SWAP1 PUSH1 0xFF AND SWAP1 DUP2 PUSH1 0xFF AND DUP2 MSTORE POP POP PUSH1 0x5 DUP2 PUSH1 0x1 DUP2 MLOAD DUP2 LT PUSH2 0x1133 JUMPI PUSH2 0x1132 PUSH2 0x1D5B JUMP JUMPDEST JUMPDEST PUSH1 0x20 MUL PUSH1 0x20 ADD ADD SWAP1 PUSH1 0xFF AND SWAP1 DUP2 PUSH1 0xFF AND DUP2 MSTORE POP POP PUSH2 0x16B6 JUMP JUMPDEST PUSH1 0xB DUP4 SUB PUSH2 0x11AC JUMPI PUSH1 0x5 DUP2 PUSH0 DUP2 MLOAD DUP2 LT PUSH2 0x1169 JUMPI PUSH2 0x1168 PUSH2 0x1D5B JUMP JUMPDEST JUMPDEST PUSH1 0x20 MUL PUSH1 0x20 ADD ADD SWAP1 PUSH1 0xFF AND SWAP1 DUP2 PUSH1 0xFF AND DUP2 MSTORE POP POP PUSH1 0x6 DUP2 PUSH1 0x1 DUP2 MLOAD DUP2 LT PUSH2 0x1193 JUMPI PUSH2 0x1192 PUSH2 0x1D5B JUMP JUMPDEST JUMPDEST PUSH1 0x20 MUL PUSH1 0x20 ADD ADD SWAP1 PUSH1 0xFF AND SWAP1 DUP2 PUSH1 0xFF AND DUP2 MSTORE POP POP PUSH2 0x16B5 JUMP JUMPDEST PUSH1 0xC DUP4 SUB PUSH2 0x120C JUMPI PUSH1 0x6 DUP2 PUSH0 DUP2 MLOAD DUP2 LT PUSH2 0x11C9 JUMPI PUSH2 0x11C8 PUSH2 0x1D5B JUMP JUMPDEST JUMPDEST PUSH1 0x20 MUL PUSH1 0x20 ADD ADD SWAP1 PUSH1 0xFF AND SWAP1 DUP2 PUSH1 0xFF AND DUP2 MSTORE POP POP PUSH1 0x6 DUP2 PUSH1 0x1 DUP2 MLOAD DUP2 LT PUSH2 0x11F3 JUMPI PUSH2 0x11F2 PUSH2 0x1D5B JUMP JUMPDEST JUMPDEST PUSH1 0x20 MUL PUSH1 0x20 ADD ADD SWAP1 PUSH1 0xFF AND SWAP1 DUP2 PUSH1 0xFF AND DUP2 MSTORE POP POP PUSH2 0x16B4 JUMP JUMPDEST PUSH1 0xD DUP4 SUB PUSH2 0x1296 JUMPI PUSH1 0x5 DUP2 PUSH0 DUP2 MLOAD DUP2 LT PUSH2 0x1229 JUMPI PUSH2 0x1228 PUSH2 0x1D5B JUMP JUMPDEST JUMPDEST PUSH1 0x20 MUL PUSH1 0x20 ADD ADD SWAP1 PUSH1 0xFF AND SWAP1 DUP2 PUSH1 0xFF AND DUP2 MSTORE POP POP PUSH1 0x4 DUP2 PUSH1 0x1 DUP2 MLOAD DUP2 LT PUSH2 0x1253 JUMPI PUSH2 0x1252 PUSH2 0x1D5B JUMP JUMPDEST JUMPDEST PUSH1 0x20 MUL PUSH1 0x20 ADD ADD SWAP1 PUSH1 0xFF AND SWAP1 DUP2 PUSH1 0xFF AND DUP2 MSTORE POP POP PUSH1 0x4 DUP2 PUSH1 0x2 DUP2 MLOAD DUP2 LT PUSH2 0x127D JUMPI PUSH2 0x127C PUSH2 0x1D5B JUMP JUMPDEST JUMPDEST PUSH1 0x20 MUL PUSH1 0x20 ADD ADD SWAP1 PUSH1 0xFF AND SWAP1 DUP2 PUSH1 0xFF AND DUP2 MSTORE POP POP PUSH2 0x16B3 JUMP JUMPDEST PUSH1 0xE DUP4 SUB PUSH2 0x1320 JUMPI PUSH1 0x5 DUP2 PUSH0 DUP2 MLOAD DUP2 LT PUSH2 0x12B3 JUMPI PUSH2 0x12B2 PUSH2 0x1D5B JUMP JUMPDEST JUMPDEST PUSH1 0x20 MUL PUSH1 0x20 ADD ADD SWAP1 PUSH1 0xFF AND SWAP1 DUP2 PUSH1 0xFF AND DUP2 MSTORE POP POP PUSH1 0x5 DUP2 PUSH1 0x1 DUP2 MLOAD DUP2 LT PUSH2 0x12DD JUMPI PUSH2 0x12DC PUSH2 0x1D5B JUMP JUMPDEST JUMPDEST PUSH1 0x20 MUL PUSH1 0x20 ADD ADD SWAP1 PUSH1 0xFF AND SWAP1 DUP2 PUSH1 0xFF AND DUP2 MSTORE POP POP PUSH1 0x4 DUP2 PUSH1 0x2 DUP2 MLOAD DUP2 LT PUSH2 0x1307 JUMPI PUSH2 0x1306 PUSH2 0x1D5B JUMP JUMPDEST JUMPDEST PUSH1 0x20 MUL PUSH1 0x20 ADD ADD SWAP1 PUSH1 0xFF AND SWAP1 DUP2 PUSH1 0xFF AND DUP2 MSTORE POP POP PUSH2 0x16B2 JUMP JUMPDEST PUSH1 0xF DUP4 SUB PUSH2 0x13AA JUMPI PUSH1 0x5 DUP2 PUSH0 DUP2 MLOAD DUP2 LT PUSH2 0x133D JUMPI PUSH2 0x133C PUSH2 0x1D5B JUMP JUMPDEST JUMPDEST PUSH1 0x20 MUL PUSH1 0x20 ADD ADD SWAP1 PUSH1 0xFF AND SWAP1 DUP2 PUSH1 0xFF AND DUP2 MSTORE POP POP PUSH1 0x5 DUP2 PUSH1 0x1 DUP2 MLOAD DUP2 LT PUSH2 0x1367 JUMPI PUSH2 0x1366 PUSH2 0x1D5B JUMP JUMPDEST JUMPDEST PUSH1 0x20 MUL PUSH1 0x20 ADD ADD SWAP1 PUSH1 0xFF AND SWAP1 DUP2 PUSH1 0xFF AND DUP2 MSTORE POP POP PUSH1 0x5 DUP2 PUSH1 0x2 DUP2 MLOAD DUP2 LT PUSH2 0x1391 JUMPI PUSH2 0x1390 PUSH2 0x1D5B JUMP JUMPDEST JUMPDEST PUSH1 0x20 MUL PUSH1 0x20 ADD ADD SWAP1 PUSH1 0xFF AND SWAP1 DUP2 PUSH1 0xFF AND DUP2 MSTORE POP POP PUSH2 0x16B1 JUMP JUMPDEST PUSH1 0x10 DUP4 SUB PUSH2 0x1434 JUMPI PUSH1 0x6 DUP2 PUSH0 DUP2 MLOAD DUP2 LT PUSH2 0x13C7 JUMPI PUSH2 0x13C6 PUSH2 0x1D5B JUMP JUMPDEST JUMPDEST PUSH1 0x20 MUL PUSH1 0x20 ADD ADD SWAP1 PUSH1 0xFF AND SWAP1 DUP2 PUSH1 0xFF AND DUP2 MSTORE POP POP PUSH1 0x5 DUP2 PUSH1 0x1 DUP2 MLOAD DUP2 LT PUSH2 0x13F1 JUMPI PUSH2 0x13F0 PUSH2 0x1D5B JUMP JUMPDEST JUMPDEST PUSH1 0x20 MUL PUSH1 0x20 ADD ADD SWAP1 PUSH1 0xFF AND SWAP1 DUP2 PUSH1 0xFF AND DUP2 MSTORE POP POP PUSH1 0x5 DUP2 PUSH1 0x2 DUP2 MLOAD DUP2 LT PUSH2 0x141B JUMPI PUSH2 0x141A PUSH2 0x1D5B JUMP JUMPDEST JUMPDEST PUSH1 0x20 MUL PUSH1 0x20 ADD ADD SWAP1 PUSH1 0xFF AND SWAP1 DUP2 PUSH1 0xFF AND DUP2 MSTORE POP POP PUSH2 0x16B0 JUMP JUMPDEST PUSH1 0x11 DUP4 SUB PUSH2 0x14BE JUMPI PUSH1 0x6 DUP2 PUSH0 DUP2 MLOAD DUP2 LT PUSH2 0x1451 JUMPI PUSH2 0x1450 PUSH2 0x1D5B JUMP JUMPDEST JUMPDEST PUSH1 0x20 MUL PUSH1 0x20 ADD ADD SWAP1 PUSH1 0xFF AND SWAP1 DUP2 PUSH1 0xFF AND DUP2 MSTORE POP POP PUSH1 0x6 DUP2 PUSH1 0x1 DUP2 MLOAD DUP2 LT PUSH2 0x147B JUMPI PUSH2 0x147A PUSH2 0x1D5B JUMP JUMPDEST JUMPDEST PUSH1 0x20 MUL PUSH1 0x20 ADD ADD SWAP1 PUSH1 0xFF AND SWAP1 DUP2 PUSH1 0xFF AND DUP2 MSTORE POP POP PUSH1 0x5 DUP2 PUSH1 0x2 DUP2 MLOAD DUP2 LT PUSH2 0x14A5 JUMPI PUSH2 0x14A4 PUSH2 0x1D5B JUMP JUMPDEST JUMPDEST PUSH1 0x20 MUL PUSH1 0x20 ADD ADD SWAP1 PUSH1 0xFF AND SWAP1 DUP2 PUSH1 0xFF AND DUP2 MSTORE POP POP PUSH2 0x16AF JUMP JUMPDEST PUSH1 0x12 DUP4 SUB PUSH2 0x1548 JUMPI PUSH1 0x6 DUP2 PUSH0 DUP2 MLOAD DUP2 LT PUSH2 0x14DB JUMPI PUSH2 0x14DA PUSH2 0x1D5B JUMP JUMPDEST JUMPDEST PUSH1 0x20 MUL PUSH1 0x20 ADD ADD SWAP1 PUSH1 0xFF AND SWAP1 DUP2 PUSH1 0xFF AND DUP2 MSTORE POP POP PUSH1 0x6 DUP2 PUSH1 0x1 DUP2 MLOAD DUP2 LT PUSH2 0x1505 JUMPI PUSH2 0x1504 PUSH2 0x1D5B JUMP JUMPDEST JUMPDEST PUSH1 0x20 MUL PUSH1 0x20 ADD ADD SWAP1 PUSH1 0xFF AND SWAP1 DUP2 PUSH1 0xFF AND DUP2 MSTORE POP POP PUSH1 0x6 DUP2 PUSH1 0x2 DUP2 MLOAD DUP2 LT PUSH2 0x152F JUMPI PUSH2 0x152E PUSH2 0x1D5B JUMP JUMPDEST JUMPDEST PUSH1 0x20 MUL PUSH1 0x20 ADD ADD SWAP1 PUSH1 0xFF AND SWAP1 DUP2 PUSH1 0xFF AND DUP2 MSTORE POP POP PUSH2 0x16AE JUMP JUMPDEST PUSH1 0x13 DUP4 SUB PUSH2 0x15FC JUMPI PUSH1 0x5 DUP2 PUSH0 DUP2 MLOAD DUP2 LT PUSH2 0x1565 JUMPI PUSH2 0x1564 PUSH2 0x1D5B JUMP JUMPDEST JUMPDEST PUSH1 0x20 MUL PUSH1 0x20 ADD ADD SWAP1 PUSH1 0xFF AND SWAP1 DUP2 PUSH1 0xFF AND DUP2 MSTORE POP POP PUSH1 0x5 DUP2 PUSH1 0x1 DUP2 MLOAD DUP2 LT PUSH2 0x158F JUMPI PUSH2 0x158E PUSH2 0x1D5B JUMP JUMPDEST JUMPDEST PUSH1 0x20 MUL PUSH1 0x20 ADD ADD SWAP1 PUSH1 0xFF AND SWAP1 DUP2 PUSH1 0xFF AND DUP2 MSTORE POP POP PUSH1 0x5 DUP2 PUSH1 0x2 DUP2 MLOAD DUP2 LT PUSH2 0x15B9 JUMPI PUSH2 0x15B8 PUSH2 0x1D5B JUMP JUMPDEST JUMPDEST PUSH1 0x20 MUL PUSH1 0x20 ADD ADD SWAP1 PUSH1 0xFF AND SWAP1 DUP2 PUSH1 0xFF AND DUP2 MSTORE POP POP PUSH1 0x4 DUP2 PUSH1 0x3 DUP2 MLOAD DUP2 LT PUSH2 0x15E3 JUMPI PUSH2 0x15E2 PUSH2 0x1D5B JUMP JUMPDEST JUMPDEST PUSH1 0x20 MUL PUSH1 0x20 ADD ADD SWAP1 PUSH1 0xFF AND SWAP1 DUP2 PUSH1 0xFF AND DUP2 MSTORE POP POP PUSH2 0x16AD JUMP JUMPDEST PUSH1 0x14 DUP4 SUB PUSH2 0x16AC JUMPI PUSH1 0x5 DUP2 PUSH0 DUP2 MLOAD DUP2 LT PUSH2 0x1619 JUMPI PUSH2 0x1618 PUSH2 0x1D5B JUMP JUMPDEST JUMPDEST PUSH1 0x20 MUL PUSH1 0x20 ADD ADD SWAP1 PUSH1 0xFF AND SWAP1 DUP2 PUSH1 0xFF AND DUP2 MSTORE POP POP PUSH1 0x5 DUP2 PUSH1 0x1 DUP2 MLOAD DUP2 LT PUSH2 0x1643 JUMPI PUSH2 0x1642 PUSH2 0x1D5B JUMP JUMPDEST JUMPDEST PUSH1 0x20 MUL PUSH1 0x20 ADD ADD SWAP1 PUSH1 0xFF AND SWAP1 DUP2 PUSH1 0xFF AND DUP2 MSTORE POP POP PUSH1 0x5 DUP2 PUSH1 0x2 DUP2 MLOAD DUP2 LT PUSH2 0x166D JUMPI PUSH2 0x166C PUSH2 0x1D5B JUMP JUMPDEST JUMPDEST PUSH1 0x20 MUL PUSH1 0x20 ADD ADD SWAP1 PUSH1 0xFF AND SWAP1 DUP2 PUSH1 0xFF AND DUP2 MSTORE POP POP PUSH1 0x5 DUP2 PUSH1 0x3 DUP2 MLOAD DUP2 LT PUSH2 0x1697 JUMPI PUSH2 0x1696 PUSH2 0x1D5B JUMP JUMPDEST JUMPDEST PUSH1 0x20 MUL PUSH1 0x20 ADD ADD SWAP1 PUSH1 0xFF AND SWAP1 DUP2 PUSH1 0xFF AND DUP2 MSTORE POP POP JUMPDEST JUMPDEST JUMPDEST JUMPDEST JUMPDEST JUMPDEST JUMPDEST JUMPDEST JUMPDEST JUMPDEST JUMPDEST JUMPDEST JUMPDEST JUMPDEST JUMPDEST JUMPDEST JUMPDEST JUMPDEST JUMPDEST JUMPDEST DUP1 SWAP2 POP POP SWAP2 SWAP1 POP JUMP JUMPDEST PUSH1 0x60 PUSH0 PUSH1 0x6 PUSH1 0x5 DUP5 PUSH2 0x16DA SWAP2 SWAP1 PUSH2 0x1F26 JUMP JUMPDEST PUSH2 0x16E4 SWAP2 SWAP1 PUSH2 0x2039 JUMP JUMPDEST PUSH8 0xFFFFFFFFFFFFFFFF DUP2 GT ISZERO PUSH2 0x16FD JUMPI PUSH2 0x16FC PUSH2 0x1AD0 JUMP JUMPDEST JUMPDEST PUSH1 0x40 MLOAD SWAP1 DUP1 DUP3 MSTORE DUP1 PUSH1 0x20 MUL PUSH1 0x20 ADD DUP3 ADD PUSH1 0x40 MSTORE DUP1 ISZERO PUSH2 0x172B JUMPI DUP2 PUSH1 0x20 ADD PUSH1 0x20 DUP3 MUL DUP1 CALLDATASIZE DUP4 CALLDATACOPY DUP1 DUP3 ADD SWAP2 POP POP SWAP1 POP JUMPDEST POP SWAP1 POP PUSH0 DUP1 JUMPDEST PUSH0 DUP6 GT ISZERO PUSH2 0x180D JUMPI PUSH0 PUSH1 0x6 DUP7 PUSH2 0x1747 SWAP2 SWAP1 PUSH2 0x1FE2 JUMP JUMPDEST EQ ISZERO DUP1 ISZERO PUSH2 0x1758 JUMPI POP PUSH1 0x5 DUP2 PUSH1 0xFF AND LT JUMPDEST ISZERO PUSH2 0x17B4 JUMPI PUSH1 0x5 DUP4 DUP4 DUP1 PUSH2 0x176B SWAP1 PUSH2 0x1E1D JUMP JUMPDEST SWAP5 POP DUP2 MLOAD DUP2 LT PUSH2 0x177E JUMPI PUSH2 0x177D PUSH2 0x1D5B JUMP JUMPDEST JUMPDEST PUSH1 0x20 MUL PUSH1 0x20 ADD ADD SWAP1 PUSH1 0xFF AND SWAP1 DUP2 PUSH1 0xFF AND DUP2 MSTORE POP POP PUSH1 0x5 DUP6 PUSH2 0x179F SWAP2 SWAP1 PUSH2 0x1E64 JUMP JUMPDEST SWAP5 POP DUP1 DUP1 PUSH2 0x17AC SWAP1 PUSH2 0x2075 JUMP JUMPDEST SWAP2 POP POP PUSH2 0x1808 JUMP JUMPDEST PUSH1 0x6 DUP4 DUP4 DUP1 PUSH2 0x17C2 SWAP1 PUSH2 0x1E1D JUMP JUMPDEST SWAP5 POP DUP2 MLOAD DUP2 LT PUSH2 0x17D5 JUMPI PUSH2 0x17D4 PUSH2 0x1D5B JUMP JUMPDEST JUMPDEST PUSH1 0x20 MUL PUSH1 0x20 ADD ADD SWAP1 PUSH1 0xFF AND SWAP1 DUP2 PUSH1 0xFF AND DUP2 MSTORE POP POP PUSH1 0x6 DUP6 PUSH2 0x17F6 SWAP2 SWAP1 PUSH2 0x1E64 JUMP JUMPDEST SWAP5 POP PUSH1 0x5 DUP2 PUSH1 0xFF AND SUB PUSH2 0x1807 JUMPI PUSH0 SWAP1 POP JUMPDEST JUMPDEST PUSH2 0x1731 JUMP JUMPDEST DUP2 DUP4 MSTORE DUP3 SWAP4 POP POP POP POP SWAP2 SWAP1 POP JUMP JUMPDEST POP DUP1 SLOAD PUSH0 DUP3 SSTORE SWAP1 PUSH0 MSTORE PUSH1 0x20 PUSH0 KECCAK256 SWAP1 DUP2 ADD SWAP1 PUSH2 0x1836 SWAP2 SWAP1 PUSH2 0x18C0 JUMP JUMPDEST POP JUMP JUMPDEST DUP3 DUP1 SLOAD DUP3 DUP3 SSTORE SWAP1 PUSH0 MSTORE PUSH1 0x20 PUSH0 KECCAK256 SWAP1 DUP2 ADD SWAP3 DUP3 ISZERO PUSH2 0x18AF JUMPI SWAP2 PUSH1 0x20 MUL DUP3 ADD JUMPDEST DUP3 DUP2 GT ISZERO PUSH2 0x18AE JUMPI DUP3 MLOAD DUP3 PUSH0 PUSH2 0x100 EXP DUP2 SLOAD DUP2 PUSH20 0xFFFFFFFFFFFFFFFFFFFFFFFFFFFFFFFFFFFFFFFF MUL NOT AND SWAP1 DUP4 PUSH20 0xFFFFFFFFFFFFFFFFFFFFFFFFFFFFFFFFFFFFFFFF AND MUL OR SWAP1 SSTORE POP SWAP2 PUSH1 0x20 ADD SWAP2 SWAP1 PUSH1 0x1 ADD SWAP1 PUSH2 0x1857 JUMP JUMPDEST JUMPDEST POP SWAP1 POP PUSH2 0x18BC SWAP2 SWAP1 PUSH2 0x18E5 JUMP JUMPDEST POP SWAP1 JUMP JUMPDEST JUMPDEST DUP1 DUP3 GT ISZERO PUSH2 0x18E1 JUMPI PUSH0 DUP1 DUP3 ADD PUSH0 PUSH2 0x18D8 SWAP2 SWAP1 PUSH2 0x1900 JUMP JUMPDEST POP PUSH1 0x1 ADD PUSH2 0x18C1 JUMP JUMPDEST POP SWAP1 JUMP JUMPDEST JUMPDEST DUP1 DUP3 GT ISZERO PUSH2 0x18FC JUMPI PUSH0 DUP2 PUSH0 SWAP1 SSTORE POP PUSH1 0x1 ADD PUSH2 0x18E6 JUMP JUMPDEST POP SWAP1 JUMP JUMPDEST POP DUP1 SLOAD PUSH0 DUP3 SSTORE SWAP1 PUSH0 MSTORE PUSH1 0x20 PUSH0 KECCAK256 SWAP1 DUP2 ADD SWAP1 PUSH2 0x191B SWAP2 SWAP1 PUSH2 0x18E5 JUMP JUMPDEST POP JUMP JUMPDEST PUSH0 DUP2 SWAP1 POP SWAP2 SWAP1 POP JUMP JUMPDEST PUSH2 0x1930 DUP2 PUSH2 0x191E JUMP JUMPDEST DUP3 MSTORE POP POP JUMP JUMPDEST PUSH0 PUSH1 0x20 DUP3 ADD SWAP1 POP PUSH2 0x1949 PUSH0 DUP4 ADD DUP5 PUSH2 0x1927 JUMP JUMPDEST SWAP3 SWAP2 POP POP JUMP JUMPDEST PUSH0 PUSH1 0x40 MLOAD SWAP1 POP SWAP1 JUMP JUMPDEST PUSH0 DUP1 REVERT JUMPDEST PUSH0 DUP1 REVERT JUMPDEST PUSH2 0x1969 DUP2 PUSH2 0x191E JUMP JUMPDEST DUP2 EQ PUSH2 0x1973 JUMPI PUSH0 DUP1 REVERT JUMPDEST POP JUMP JUMPDEST PUSH0 DUP2 CALLDATALOAD SWAP1 POP PUSH2 0x1984 DUP2 PUSH2 0x1960 JUMP JUMPDEST SWAP3 SWAP2 POP POP JUMP JUMPDEST PUSH0 PUSH1 0x20 DUP3 DUP5 SUB SLT ISZERO PUSH2 0x199F JUMPI PUSH2 0x199E PUSH2 0x1958 JUMP JUMPDEST JUMPDEST PUSH0 PUSH2 0x19AC DUP5 DUP3 DUP6 ADD PUSH2 0x1976 JUMP JUMPDEST SWAP2 POP POP SWAP3 SWAP2 POP POP JUMP JUMPDEST PUSH0 DUP2 MLOAD SWAP1 POP SWAP2 SWAP1 POP JUMP JUMPDEST PUSH0 DUP3 DUP3 MSTORE PUSH1 0x20 DUP3 ADD SWAP1 POP SWAP3 SWAP2 POP POP JUMP JUMPDEST PUSH0 DUP2 SWAP1 POP PUSH1 0x20 DUP3 ADD SWAP1 POP SWAP2 SWAP1 POP JUMP JUMPDEST PUSH0 PUSH20 0xFFFFFFFFFFFFFFFFFFFFFFFFFFFFFFFFFFFFFFFF DUP3 AND SWAP1 POP SWAP2 SWAP1 POP JUMP JUMPDEST PUSH0 PUSH2 0x1A07 DUP3 PUSH2 0x19DE JUMP JUMPDEST SWAP1 POP SWAP2 SWAP1 POP JUMP JUMPDEST PUSH2 0x1A17 DUP2 PUSH2 0x19FD JUMP JUMPDEST DUP3 MSTORE POP POP JUMP JUMPDEST PUSH0 PUSH2 0x1A28 DUP4 DUP4 PUSH2 0x1A0E JUMP JUMPDEST PUSH1 0x20 DUP4 ADD SWAP1 POP SWAP3 SWAP2 POP POP JUMP JUMPDEST PUSH0 PUSH1 0x20 DUP3 ADD SWAP1 POP SWAP2 SWAP1 POP JUMP JUMPDEST PUSH0 PUSH2 0x1A4A DUP3 PUSH2 0x19B5 JUMP JUMPDEST PUSH2 0x1A54 DUP2 DUP6 PUSH2 0x19BF JUMP JUMPDEST SWAP4 POP PUSH2 0x1A5F DUP4 PUSH2 0x19CF JUMP JUMPDEST DUP1 PUSH0 JUMPDEST DUP4 DUP2 LT ISZERO PUSH2 0x1A8F JUMPI DUP2 MLOAD PUSH2 0x1A76 DUP9 DUP3 PUSH2 0x1A1D JUMP JUMPDEST SWAP8 POP PUSH2 0x1A81 DUP4 PUSH2 0x1A34 JUMP JUMPDEST SWAP3 POP POP PUSH1 0x1 DUP2 ADD SWAP1 POP PUSH2 0x1A62 JUMP JUMPDEST POP DUP6 SWAP4 POP POP POP POP SWAP3 SWAP2 POP POP JUMP JUMPDEST PUSH0 PUSH1 0x20 DUP3 ADD SWAP1 POP DUP2 DUP2 SUB PUSH0 DUP4 ADD MSTORE PUSH2 0x1AB4 DUP2 DUP5 PUSH2 0x1A40 JUMP JUMPDEST SWAP1 POP SWAP3 SWAP2 POP POP JUMP JUMPDEST PUSH0 DUP1 REVERT JUMPDEST PUSH0 PUSH1 0x1F NOT PUSH1 0x1F DUP4 ADD AND SWAP1 POP SWAP2 SWAP1 POP JUMP JUMPDEST PUSH32 0x4E487B7100000000000000000000000000000000000000000000000000000000 PUSH0 MSTORE PUSH1 0x41 PUSH1 0x4 MSTORE PUSH1 0x24 PUSH0 REVERT JUMPDEST PUSH2 0x1B06 DUP3 PUSH2 0x1AC0 JUMP JUMPDEST DUP2 ADD DUP2 DUP2 LT PUSH8 0xFFFFFFFFFFFFFFFF DUP3 GT OR ISZERO PUSH2 0x1B25 JUMPI PUSH2 0x1B24 PUSH2 0x1AD0 JUMP JUMPDEST JUMPDEST DUP1 PUSH1 0x40 MSTORE POP POP POP JUMP JUMPDEST PUSH0 PUSH2 0x1B37 PUSH2 0x194F JUMP JUMPDEST SWAP1 POP PUSH2 0x1B43 DUP3 DUP3 PUSH2 0x1AFD JUMP JUMPDEST SWAP2 SWAP1 POP JUMP JUMPDEST PUSH0 PUSH8 0xFFFFFFFFFFFFFFFF DUP3 GT ISZERO PUSH2 0x1B62 JUMPI PUSH2 0x1B61 PUSH2 0x1AD0 JUMP JUMPDEST JUMPDEST PUSH1 0x20 DUP3 MUL SWAP1 POP PUSH1 0x20 DUP2 ADD SWAP1 POP SWAP2 SWAP1 POP JUMP JUMPDEST PUSH0 DUP1 REVERT JUMPDEST PUSH2 0x1B80 DUP2 PUSH2 0x19FD JUMP JUMPDEST DUP2 EQ PUSH2 0x1B8A JUMPI PUSH0 DUP1 REVERT JUMPDEST POP JUMP JUMPDEST PUSH0 DUP2 CALLDATALOAD SWAP1 POP PUSH2 0x1B9B DUP2 PUSH2 0x1B77 JUMP JUMPDEST SWAP3 SWAP2 POP POP JUMP JUMPDEST PUSH0 PUSH2 0x1BB3 PUSH2 0x1BAE DUP5 PUSH2 0x1B48 JUMP JUMPDEST PUSH2 0x1B2E JUMP JUMPDEST SWAP1 POP DUP1 DUP4 DUP3 MSTORE PUSH1 0x20 DUP3 ADD SWAP1 POP PUSH1 0x20 DUP5 MUL DUP4 ADD DUP6 DUP2 GT ISZERO PUSH2 0x1BD6 JUMPI PUSH2 0x1BD5 PUSH2 0x1B73 JUMP JUMPDEST JUMPDEST DUP4 JUMPDEST DUP2 DUP2 LT ISZERO PUSH2 0x1BFF JUMPI DUP1 PUSH2 0x1BEB DUP9 DUP3 PUSH2 0x1B8D JUMP JUMPDEST DUP5 MSTORE PUSH1 0x20 DUP5 ADD SWAP4 POP POP PUSH1 0x20 DUP2 ADD SWAP1 POP PUSH2 0x1BD8 JUMP JUMPDEST POP POP POP SWAP4 SWAP3 POP POP POP JUMP JUMPDEST PUSH0 DUP3 PUSH1 0x1F DUP4 ADD SLT PUSH2 0x1C1D JUMPI PUSH2 0x1C1C PUSH2 0x1ABC JUMP JUMPDEST JUMPDEST DUP2 CALLDATALOAD PUSH2 0x1C2D DUP5 DUP3 PUSH1 0x20 DUP7 ADD PUSH2 0x1BA1 JUMP JUMPDEST SWAP2 POP POP SWAP3 SWAP2 POP POP JUMP JUMPDEST PUSH0 PUSH1 0x20 DUP3 DUP5 SUB SLT ISZERO PUSH2 0x1C4B JUMPI PUSH2 0x1C4A PUSH2 0x1958 JUMP JUMPDEST JUMPDEST PUSH0 DUP3 ADD CALLDATALOAD PUSH8 0xFFFFFFFFFFFFFFFF DUP2 GT ISZERO PUSH2 0x1C68 JUMPI PUSH2 0x1C67 PUSH2 0x195C JUMP JUMPDEST JUMPDEST PUSH2 0x1C74 DUP5 DUP3 DUP6 ADD PUSH2 0x1C09 JUMP JUMPDEST SWAP2 POP POP SWAP3 SWAP2 POP POP JUMP JUMPDEST PUSH0 DUP1 PUSH1 0x40 DUP4 DUP6 SUB SLT ISZERO PUSH2 0x1C93 JUMPI PUSH2 0x1C92 PUSH2 0x1958 JUMP JUMPDEST JUMPDEST PUSH0 PUSH2 0x1CA0 DUP6 DUP3 DUP7 ADD PUSH2 0x1976 JUMP JUMPDEST SWAP3 POP POP PUSH1 0x20 PUSH2 0x1CB1 DUP6 DUP3 DUP7 ADD PUSH2 0x1976 JUMP JUMPDEST SWAP2 POP POP SWAP3 POP SWAP3 SWAP1 POP JUMP JUMPDEST PUSH2 0x1CC4 DUP2 PUSH2 0x19FD JUMP JUMPDEST DUP3 MSTORE POP POP JUMP JUMPDEST PUSH0 PUSH1 0x20 DUP3 ADD SWAP1 POP PUSH2 0x1CDD PUSH0 DUP4 ADD DUP5 PUSH2 0x1CBB JUMP JUMPDEST SWAP3 SWAP2 POP POP JUMP JUMPDEST PUSH0 DUP3 DUP3 MSTORE PUSH1 0x20 DUP3 ADD SWAP1 POP SWAP3 SWAP2 POP POP JUMP JUMPDEST PUSH32 0x47726F757020696E646578206F7574206F6620626F756E647300000000000000 PUSH0 DUP3 ADD MSTORE POP JUMP JUMPDEST PUSH0 PUSH2 0x1D27 PUSH1 0x19 DUP4 PUSH2 0x1CE3 JUMP JUMPDEST SWAP2 POP PUSH2 0x1D32 DUP3 PUSH2 0x1CF3 JUMP JUMPDEST PUSH1 0x20 DUP3 ADD SWAP1 POP SWAP2 SWAP1 POP JUMP JUMPDEST PUSH0 PUSH1 0x20 DUP3 ADD SWAP1 POP DUP2 DUP2 SUB PUSH0 DUP4 ADD MSTORE PUSH2 0x1D54 DUP2 PUSH2 0x1D1B JUMP JUMPDEST SWAP1 POP SWAP2 SWAP1 POP JUMP JUMPDEST PUSH32 0x4E487B7100000000000000000000000000000000000000000000000000000000 PUSH0 MSTORE PUSH1 0x32 PUSH1 0x4 MSTORE PUSH1 0x24 PUSH0 REVERT JUMPDEST PUSH32 0x4E6F207061727469636970616E74730000000000000000000000000000000000 PUSH0 DUP3 ADD MSTORE POP JUMP JUMPDEST PUSH0 PUSH2 0x1DBC PUSH1 0xF DUP4 PUSH2 0x1CE3 JUMP JUMPDEST SWAP2 POP PUSH2 0x1DC7 DUP3 PUSH2 0x1D88 JUMP JUMPDEST PUSH1 0x20 DUP3 ADD SWAP1 POP SWAP2 SWAP1 POP JUMP JUMPDEST PUSH0 PUSH1 0x20 DUP3 ADD SWAP1 POP DUP2 DUP2 SUB PUSH0 DUP4 ADD MSTORE PUSH2 0x1DE9 DUP2 PUSH2 0x1DB0 JUMP JUMPDEST SWAP1 POP SWAP2 SWAP1 POP JUMP JUMPDEST PUSH32 0x4E487B7100000000000000000000000000000000000000000000000000000000 PUSH0 MSTORE PUSH1 0x11 PUSH1 0x4 MSTORE PUSH1 0x24 PUSH0 REVERT JUMPDEST PUSH0 PUSH2 0x1E27 DUP3 PUSH2 0x191E JUMP JUMPDEST SWAP2 POP PUSH32 0xFFFFFFFFFFFFFFFFFFFFFFFFFFFFFFFFFFFFFFFFFFFFFFFFFFFFFFFFFFFFFFFF DUP3 SUB PUSH2 0x1E59 JUMPI PUSH2 0x1E58 PUSH2 0x1DF0 JUMP JUMPDEST JUMPDEST PUSH1 0x1 DUP3 ADD SWAP1 POP SWAP2 SWAP1 POP JUMP JUMPDEST PUSH0 PUSH2 0x1E6E DUP3 PUSH2 0x191E JUMP JUMPDEST SWAP2 POP PUSH2 0x1E79 DUP4 PUSH2 0x191E JUMP JUMPDEST SWAP3 POP DUP3 DUP3 SUB SWAP1 POP DUP2 DUP2 GT ISZERO PUSH2 0x1E91 JUMPI PUSH2 0x1E90 PUSH2 0x1DF0 JUMP JUMPDEST JUMPDEST SWAP3 SWAP2 POP POP JUMP JUMPDEST PUSH0 PUSH1 0x40 DUP3 ADD SWAP1 POP PUSH2 0x1EAA PUSH0 DUP4 ADD DUP6 PUSH2 0x1927 JUMP JUMPDEST PUSH2 0x1EB7 PUSH1 0x20 DUP4 ADD DUP5 PUSH2 0x1927 JUMP JUMPDEST SWAP4 SWAP3 POP POP POP JUMP JUMPDEST PUSH32 0x4D656D62657220696E646578206F7574206F6620626F756E6473000000000000 PUSH0 DUP3 ADD MSTORE POP JUMP JUMPDEST PUSH0 PUSH2 0x1EF2 PUSH1 0x1A DUP4 PUSH2 0x1CE3 JUMP JUMPDEST SWAP2 POP PUSH2 0x1EFD DUP3 PUSH2 0x1EBE JUMP JUMPDEST PUSH1 0x20 DUP3 ADD SWAP1 POP SWAP2 SWAP1 POP JUMP JUMPDEST PUSH0 PUSH1 0x20 DUP3 ADD SWAP1 POP DUP2 DUP2 SUB PUSH0 DUP4 ADD MSTORE PUSH2 0x1F1F DUP2 PUSH2 0x1EE6 JUMP JUMPDEST SWAP1 POP SWAP2 SWAP1 POP JUMP JUMPDEST PUSH0 PUSH2 0x1F30 DUP3 PUSH2 0x191E JUMP JUMPDEST SWAP2 POP PUSH2 0x1F3B DUP4 PUSH2 0x191E JUMP JUMPDEST SWAP3 POP DUP3 DUP3 ADD SWAP1 POP DUP1 DUP3 GT ISZERO PUSH2 0x1F53 JUMPI PUSH2 0x1F52 PUSH2 0x1DF0 JUMP JUMPDEST JUMPDEST SWAP3 SWAP2 POP POP JUMP JUMPDEST PUSH0 DUP2 SWAP1 POP SWAP2 SWAP1 POP JUMP JUMPDEST PUSH2 0x1F73 PUSH2 0x1F6E DUP3 PUSH2 0x191E JUMP JUMPDEST PUSH2 0x1F59 JUMP JUMPDEST DUP3 MSTORE POP POP JUMP JUMPDEST PUSH0 PUSH2 0x1F84 DUP3 DUP7 PUSH2 0x1F62 JUMP JUMPDEST PUSH1 0x20 DUP3 ADD SWAP2 POP PUSH2 0x1F94 DUP3 DUP6 PUSH2 0x1F62 JUMP JUMPDEST PUSH1 0x20 DUP3 ADD SWAP2 POP PUSH2 0x1FA4 DUP3 DUP5 PUSH2 0x1F62 JUMP JUMPDEST PUSH1 0x20 DUP3 ADD SWAP2 POP DUP2 SWAP1 POP SWAP5 SWAP4 POP POP POP POP JUMP JUMPDEST PUSH32 0x4E487B7100000000000000000000000000000000000000000000000000000000 PUSH0 MSTORE PUSH1 0x12 PUSH1 0x4 MSTORE PUSH1 0x24 PUSH0 REVERT JUMPDEST PUSH0 PUSH2 0x1FEC DUP3 PUSH2 0x191E JUMP JUMPDEST SWAP2 POP PUSH2 0x1FF7 DUP4 PUSH2 0x191E JUMP JUMPDEST SWAP3 POP DUP3 PUSH2 0x2007 JUMPI PUSH2 0x2006 PUSH2 0x1FB5 JUMP JUMPDEST JUMPDEST DUP3 DUP3 MOD SWAP1 POP SWAP3 SWAP2 POP POP JUMP JUMPDEST PUSH0 PUSH2 0x201C DUP3 PUSH2 0x191E JUMP JUMPDEST SWAP2 POP PUSH0 DUP3 SUB PUSH2 0x202E JUMPI PUSH2 0x202D PUSH2 0x1DF0 JUMP JUMPDEST JUMPDEST PUSH1 0x1 DUP3 SUB SWAP1 POP SWAP2 SWAP1 POP JUMP JUMPDEST PUSH0 PUSH2 0x2043 DUP3 PUSH2 0x191E JUMP JUMPDEST SWAP2 POP PUSH2 0x204E DUP4 PUSH2 0x191E JUMP JUMPDEST SWAP3 POP DUP3 PUSH2 0x205E JUMPI PUSH2 0x205D PUSH2 0x1FB5 JUMP JUMPDEST JUMPDEST DUP3 DUP3 DIV SWAP1 POP SWAP3 SWAP2 POP POP JUMP JUMPDEST PUSH0 PUSH1 0xFF DUP3 AND SWAP1 POP SWAP2 SWAP1 POP JUMP JUMPDEST PUSH0 PUSH2 0x207F DUP3 PUSH2 0x2069 JUMP JUMPDEST SWAP2 POP PUSH1 0xFF DUP3 SUB PUSH2 0x2092 JUMPI PUSH2 0x2091 PUSH2 0x1DF0 JUMP JUMPDEST JUMPDEST PUSH1 0x1 DUP3 ADD SWAP1 POP SWAP2 SWAP1 POP JUMP INVALID LOG2 PUSH5 0x6970667358 0x22 SLT KECCAK256 SWAP10 DUP9 0xEA 0x24 DUP1 CALLDATACOPY SMOD LOG3 LOG3 0xEA 0xA6 DUP6 GASPRICE 0x4E MCOPY LOG4 0xA5 0x24 GASLIMIT PUSH22 0x8C20288B32DD940B5FFB7CCF64736F6C634300081A00 CALLER "
		},
		"gasEstimates": {
			"creation": {
				"codeDepositCost": "1680600",
				"executionCost": "1762",
				"totalCost": "1682362"
			},
			"external": {
				"createGroups(address[])": "infinite",
				"getGroupCount()": "2418",
				"getGroupMember(uint256,uint256)": "infinite",
				"getGroupMembers(uint256)": "infinite",
				"getGroupSize(uint256)": "infinite"
			},
			"internal": {
				"determineRoomSizes(uint256)": "infinite",
				"genericRoomSizes(uint256)": "infinite",
				"hardcodedRoomSizes(uint256)": "infinite",
				"shuffle(address[] memory)": "infinite"
			}
		},
		"methodIdentifiers": {
			"createGroups(address[])": "3a40fea8",
			"getGroupCount()": "06545a93",
			"getGroupMember(uint256,uint256)": "71b44fc7",
			"getGroupMembers(uint256)": "36cc8130",
			"getGroupSize(uint256)": "9119ba1b"
		}
	},
	"abi": [
		{
			"anonymous": false,
			"inputs": [
				{
					"indexed": false,
					"internalType": "uint256",
					"name": "groupIndex",
					"type": "uint256"
				},
				{
					"indexed": false,
					"internalType": "uint256",
					"name": "size",
					"type": "uint256"
				}
			],
			"name": "GroupSize",
			"type": "event"
		},
		{
			"anonymous": false,
			"inputs": [
				{
					"indexed": false,
					"internalType": "uint256",
					"name": "numberOfGroups",
					"type": "uint256"
				}
			],
			"name": "GroupsCreated",
			"type": "event"
		},
		{
			"inputs": [
				{
					"internalType": "address[]",
					"name": "participants",
					"type": "address[]"
				}
			],
			"name": "createGroups",
			"outputs": [],
			"stateMutability": "nonpayable",
			"type": "function"
		},
		{
			"inputs": [],
			"name": "getGroupCount",
			"outputs": [
				{
					"internalType": "uint256",
					"name": "",
					"type": "uint256"
				}
			],
			"stateMutability": "view",
			"type": "function"
		},
		{
			"inputs": [
				{
					"internalType": "uint256",
					"name": "groupIndex",
					"type": "uint256"
				},
				{
					"internalType": "uint256",
					"name": "memberIndex",
					"type": "uint256"
				}
			],
			"name": "getGroupMember",
			"outputs": [
				{
					"internalType": "address",
					"name": "",
					"type": "address"
				}
			],
			"stateMutability": "view",
			"type": "function"
		},
		{
			"inputs": [
				{
					"internalType": "uint256",
					"name": "groupIndex",
					"type": "uint256"
				}
			],
			"name": "getGroupMembers",
			"outputs": [
				{
					"internalType": "address[]",
					"name": "",
					"type": "address[]"
				}
			],
			"stateMutability": "view",
			"type": "function"
		},
		{
			"inputs": [
				{
					"internalType": "uint256",
					"name": "index",
					"type": "uint256"
				}
			],
			"name": "getGroupSize",
			"outputs": [
				{
					"internalType": "uint256",
					"name": "",
					"type": "uint256"
				}
			],
			"stateMutability": "view",
			"type": "function"
		}
	]
}